{
  "address": "0xDC378442B5B87BE3840633412e0FA5bC064Adfed",
  "abi": [
    {
      "inputs": [
        {
          "internalType": "contract IMate2AutomationRegistry1_1",
          "name": "_automate",
          "type": "address"
        }
      ],
      "stateMutability": "nonpayable",
      "type": "constructor"
    },
    {
      "inputs": [],
      "name": "AlreadyRebalanceTaskExist",
      "type": "error"
    },
    {
      "inputs": [],
      "name": "NotAutomationCalled",
      "type": "error"
    },
    {
      "inputs": [],
      "name": "OnlyAccessableByOwner",
      "type": "error"
    },
    {
      "anonymous": false,
      "inputs": [
        {
          "indexed": false,
          "internalType": "address",
          "name": "lp",
          "type": "address"
        },
        {
          "indexed": false,
          "internalType": "uint256",
          "name": "taskId",
          "type": "uint256"
        }
      ],
      "name": "CancelRebalanceTaskFailed",
      "type": "event"
    },
    {
      "anonymous": false,
      "inputs": [
        {
          "indexed": false,
          "internalType": "address",
          "name": "lp",
          "type": "address"
        },
        {
          "indexed": false,
          "internalType": "uint256",
          "name": "taskId",
          "type": "uint256"
        }
      ],
      "name": "CancelRebalanceTaskSucceeded",
      "type": "event"
    },
    {
      "anonymous": false,
      "inputs": [
        {
          "indexed": false,
          "internalType": "address",
          "name": "lp",
          "type": "address"
        },
        {
          "indexed": false,
          "internalType": "uint256",
          "name": "receiptId",
          "type": "uint256"
        },
        {
          "indexed": false,
          "internalType": "uint256",
          "name": "taskId",
          "type": "uint256"
        }
      ],
      "name": "CancelSettleTaskFailed",
      "type": "event"
    },
    {
      "anonymous": false,
      "inputs": [
        {
          "indexed": false,
          "internalType": "address",
          "name": "lp",
          "type": "address"
        },
        {
          "indexed": false,
          "internalType": "uint256",
          "name": "receiptId",
          "type": "uint256"
        },
        {
          "indexed": false,
          "internalType": "uint256",
          "name": "taskId",
          "type": "uint256"
        }
      ],
      "name": "CancelSettleTaskSucceeded",
      "type": "event"
    },
    {
      "anonymous": false,
      "inputs": [
        {
          "indexed": true,
          "internalType": "address",
          "name": "previousOwner",
          "type": "address"
        },
        {
          "indexed": true,
          "internalType": "address",
          "name": "newOwner",
          "type": "address"
        }
      ],
      "name": "OwnershipTransferred",
      "type": "event"
    },
    {
      "anonymous": false,
      "inputs": [
        {
          "indexed": false,
          "internalType": "uint32",
          "name": "gasLimitOld",
          "type": "uint32"
        },
        {
          "indexed": false,
          "internalType": "uint32",
          "name": "gasLimitNew",
          "type": "uint32"
        }
      ],
      "name": "UpkeepGasLimitUpdated",
      "type": "event"
    },
    {
      "anonymous": false,
      "inputs": [
        {
          "indexed": false,
          "internalType": "string",
          "name": "_name",
          "type": "string"
        },
        {
          "indexed": false,
          "internalType": "string",
          "name": "_err",
          "type": "string"
        }
      ],
      "name": "catchErr",
      "type": "event"
    },
    {
      "inputs": [],
      "name": "DEFAULT_UPKEEP_GAS_LIMIT",
      "outputs": [
        {
          "internalType": "uint32",
          "name": "",
          "type": "uint32"
        }
      ],
      "stateMutability": "view",
      "type": "function"
    },
    {
      "inputs": [],
      "name": "automate",
      "outputs": [
        {
          "internalType": "contract IMate2AutomationRegistry1_1",
          "name": "",
          "type": "address"
        }
      ],
      "stateMutability": "view",
      "type": "function"
    },
    {
      "inputs": [],
      "name": "cancelRebalanceTask",
      "outputs": [],
      "stateMutability": "nonpayable",
      "type": "function"
    },
    {
      "inputs": [
        {
          "internalType": "uint256",
          "name": "receiptId",
          "type": "uint256"
        }
      ],
      "name": "cancelSettleTask",
      "outputs": [],
      "stateMutability": "nonpayable",
      "type": "function"
    },
    {
      "inputs": [
        {
          "internalType": "uint256",
          "name": "upkeepId",
          "type": "uint256"
        }
      ],
      "name": "cancelUpkeep",
      "outputs": [],
      "stateMutability": "nonpayable",
      "type": "function"
    },
    {
      "inputs": [
        {
          "internalType": "bytes",
          "name": "checkData",
          "type": "bytes"
        },
        {
          "internalType": "bytes",
          "name": "",
          "type": "bytes"
        }
      ],
      "name": "checkUpkeep",
      "outputs": [
        {
          "internalType": "bool",
          "name": "upkeepNeeded",
          "type": "bool"
        },
        {
          "internalType": "bytes",
          "name": "performData",
          "type": "bytes"
        }
      ],
      "stateMutability": "view",
      "type": "function"
    },
    {
      "inputs": [],
      "name": "createRebalanceTask",
      "outputs": [],
      "stateMutability": "nonpayable",
      "type": "function"
    },
    {
      "inputs": [
        {
          "internalType": "uint256",
          "name": "receiptId",
          "type": "uint256"
        }
      ],
      "name": "createSettleTask",
      "outputs": [],
      "stateMutability": "nonpayable",
      "type": "function"
    },
    {
      "inputs": [
        {
          "internalType": "contract IChromaticLP",
          "name": "lp",
          "type": "address"
        }
      ],
      "name": "getRebalanceTaskId",
      "outputs": [
        {
          "internalType": "uint256",
          "name": "",
          "type": "uint256"
        }
      ],
      "stateMutability": "view",
      "type": "function"
    },
    {
      "inputs": [
        {
          "internalType": "contract IChromaticLP",
          "name": "lp",
          "type": "address"
        },
        {
          "internalType": "uint256",
          "name": "receiptId",
          "type": "uint256"
        }
      ],
      "name": "getSettleTaskId",
      "outputs": [
        {
          "internalType": "uint256",
          "name": "",
          "type": "uint256"
        }
      ],
      "stateMutability": "view",
      "type": "function"
    },
    {
      "inputs": [],
      "name": "owner",
      "outputs": [
        {
          "internalType": "address",
          "name": "",
          "type": "address"
        }
      ],
      "stateMutability": "view",
      "type": "function"
    },
    {
      "inputs": [
        {
          "internalType": "bytes",
          "name": "performData",
          "type": "bytes"
        }
      ],
      "name": "performUpkeep",
      "outputs": [],
      "stateMutability": "nonpayable",
      "type": "function"
    },
    {
      "inputs": [
        {
          "internalType": "address",
          "name": "lp",
          "type": "address"
        }
      ],
      "name": "rebalance",
      "outputs": [],
      "stateMutability": "nonpayable",
      "type": "function"
    },
    {
      "inputs": [],
      "name": "renounceOwnership",
      "outputs": [],
      "stateMutability": "nonpayable",
      "type": "function"
    },
    {
      "inputs": [
        {
          "internalType": "address",
          "name": "lp",
          "type": "address"
        }
      ],
      "name": "resolveRebalance",
      "outputs": [
        {
          "internalType": "bool",
          "name": "upkeepNeeded",
          "type": "bool"
        },
        {
          "internalType": "bytes",
          "name": "performData",
          "type": "bytes"
        }
      ],
      "stateMutability": "view",
      "type": "function"
    },
    {
      "inputs": [
        {
          "internalType": "address",
          "name": "lp",
          "type": "address"
        },
        {
          "internalType": "uint256",
          "name": "receiptId",
          "type": "uint256"
        }
      ],
      "name": "resolveSettle",
      "outputs": [
        {
          "internalType": "bool",
          "name": "upkeepNeeded",
          "type": "bool"
        },
        {
          "internalType": "bytes",
          "name": "performData",
          "type": "bytes"
        }
      ],
      "stateMutability": "view",
      "type": "function"
    },
    {
      "inputs": [
        {
          "internalType": "address",
          "name": "lp",
          "type": "address"
        },
        {
          "internalType": "uint256",
          "name": "receiptId",
          "type": "uint256"
        }
      ],
      "name": "settle",
      "outputs": [],
      "stateMutability": "nonpayable",
      "type": "function"
    },
    {
      "inputs": [
        {
          "internalType": "address",
          "name": "newOwner",
          "type": "address"
        }
      ],
      "name": "transferOwnership",
      "outputs": [],
      "stateMutability": "nonpayable",
      "type": "function"
    },
    {
      "inputs": [
        {
          "internalType": "uint32",
          "name": "gasLimit",
          "type": "uint32"
        }
      ],
      "name": "updateUpkeepGasLimit",
      "outputs": [],
      "stateMutability": "nonpayable",
      "type": "function"
    },
    {
      "inputs": [],
      "name": "upkeepGasLimit",
      "outputs": [
        {
          "internalType": "uint32",
          "name": "",
          "type": "uint32"
        }
      ],
      "stateMutability": "view",
      "type": "function"
    }
  ],
  "transactionHash": "0x90a0043a89949e120f5f4be56f05cfed3278262f3ec8dd71f8677e3d70fc4dcd",
  "args": [
    "0x14cC9A5B88425d357AEca1B13B8cd6F81388Fe86"
  ],
  "numDeployments": 2,
  "solcInputHash": "00c682cb822944ff993ed565d66a6230",
  "bytecode": "0x60a060405234801561001057600080fd5b5060405161173238038061173283398101604081905261002f916100b3565b600160005561003d33610061565b6001600160a01b03166080526003805463ffffffff19166302faf0801790556100e3565b600180546001600160a01b038381166001600160a01b0319831681179093556040519116919082907f8be0079c531659141344cd1fd0a4f28419497f9722a3daafe3b4186f6b6457e090600090a35050565b6000602082840312156100c557600080fd5b81516001600160a01b03811681146100dc57600080fd5b9392505050565b60805161160a610128600039600081816101760152818161090601528181610b6001528181610cbe01528181610de901528181610e790152611087015261160a6000f3fe608060405234801561001057600080fd5b506004361061016c5760003560e01c8063715018a6116100cd578063a9ea1f8011610081578063c6bd624911610066578063c6bd62491461032a578063c80480221461033d578063f2fde38b1461035057600080fd5b8063a9ea1f8014610307578063b48949b51461031757600080fd5b8063890e2ec9116100b2578063890e2ec9146102ce5780638da5cb5b146102e157806393e15ee9146102ff57600080fd5b8063715018a6146102be578063747cd3d9146102c657600080fd5b80632d0534c7116101245780634585e33b116101095780634585e33b1461028557806365756271146102985780636dbbd373146102ab57600080fd5b80632d0534c71461021e5780633f6f38361461023e57600080fd5b806315afd4091161015557806315afd409146101e357806316d0d82f146101f857806321c281911461020b57600080fd5b8063049aacfe1461017157806304acb2af146101c2575b600080fd5b6101987f000000000000000000000000000000000000000000000000000000000000000081565b60405173ffffffffffffffffffffffffffffffffffffffff90911681526020015b60405180910390f35b6101d56101d03660046111d2565b610363565b6040516101b992919061125a565b6101f66101f136600461127d565b610483565b005b6101f66102063660046112a9565b61052a565b6101f66102193660046111d2565b6105a9565b6102296302faf08081565b60405163ffffffff90911681526020016101b9565b61027761024c3660046111d2565b73ffffffffffffffffffffffffffffffffffffffff1660009081526002602052604090206001015490565b6040519081526020016101b9565b6101f6610293366004611311565b61064e565b6101d56102a6366004611353565b6106b6565b6102776102b936600461127d565b61072e565b6101f6610768565b6101f661077c565b6101f66102dc3660046113bf565b61081f565b60015473ffffffffffffffffffffffffffffffffffffffff16610198565b6101f661088c565b6003546102299063ffffffff1681565b6101d561032536600461127d565b610a05565b6101f66103383660046113bf565b610ae9565b6101f661034b3660046113bf565b610c87565b6101f661035e3660046111d2565b610d2b565b73ffffffffffffffffffffffffffffffffffffffff8116600090815260026020526040812054606090158015906103bf575073ffffffffffffffffffffffffffffffffffffffff83166000908152600260205260409020544210155b801561043557508273ffffffffffffffffffffffffffffffffffffffff1663a56c077f6040518163ffffffff1660e01b8152600401602060405180830381865afa158015610411573d6000803e3d6000fd5b505050506040513d601f19601f8201168201806040525081019061043591906113d8565b1561046b57600160008460006040516020016104539392919061143d565b60405160208183030381529060405291509150915091565b50506040805160208101909152600080825292909150565b60008061048e610de4565b6040517f95fc33c50000000000000000000000000000000000000000000000000000000081526004810186905273ffffffffffffffffffffffffffffffffffffffff808316602483015260448201849052929450909250908516906395fc33c590606401600060405180830381600087803b15801561050c57600080fd5b505af1158015610520573d6000803e3d6000fd5b5050505050505050565b610532610e9e565b6003805463ffffffff8381167fffffffffffffffffffffffffffffffffffffffffffffffffffffffff0000000083168117909355604080519190921680825260208201939093527fa3712acf4c1617a1da00c315e0718fcedb43a2940ec2d43d66f3b8121282ffbd91015b60405180910390a15050565b6000806105b4610de4565b915091506105c183610eef565b6040517f3da9b9d000000000000000000000000000000000000000000000000000000000815273ffffffffffffffffffffffffffffffffffffffff828116600483015260248201849052841690633da9b9d090604401600060405180830381600087803b15801561063157600080fd5b505af1158015610645573d6000803e3d6000fd5b50505050505050565b6000808061065e84860186611478565b919450925090506001836001811115610679576106796113fa565b0361068d576106888282610483565b6106af565b60008360018111156106a1576106a16113fa565b036106af576106af826105a9565b5050505050565b600060608180806106c9888a018a611478565b9194509250905060018360018111156106e4576106e46113fa565b036106ff576106f38282610a05565b94509450505050610725565b6000836001811115610713576107136113fa565b03610721576106f382610363565b5050505b94509492505050565b73ffffffffffffffffffffffffffffffffffffffff8216600090815260026020818152604080842085855290920190529020545b92915050565b610770610e9e565b61077a6000610f99565b565b610784611010565b3360008181526002602052604090206001015480156107cf576040517f78bfb91700000000000000000000000000000000000000000000000000000000815260040160405180910390fd5b6107dd600083600080611083565b90506107e882610eef565b73ffffffffffffffffffffffffffffffffffffffff82166000908152600260205260409020600101819055505061077a6001600055565b610827611010565b33610832818361072e565b60000361087e576000610849600183856001611083565b73ffffffffffffffffffffffffffffffffffffffff831660009081526002602081815260408084208885529092019052902055505b506108896001600055565b50565b336000818152600260205260409020600101548015610a015773ffffffffffffffffffffffffffffffffffffffff8281166000908152600260205260408082206001810183905582905580517fc80480220000000000000000000000000000000000000000000000000000000081526004810185905290517f00000000000000000000000000000000000000000000000000000000000000009093169263c80480229260248084019391929182900301818387803b15801561094d57600080fd5b505af192505050801561095e575060015b6109b5576040805173ffffffffffffffffffffffffffffffffffffffff84168152602081018390527fe26790c474f9d81f2f8628d9ec249bfac04dc65a53f6c1cf5be82b1326da5b13910160405180910390a15050565b6040805173ffffffffffffffffffffffffffffffffffffffff84168152602081018390527f58616b9bfa96449b9b198ab056facabb08688ef14ffdf00f08ee901833a91191910161059d565b5050565b6040517f7c48868a0000000000000000000000000000000000000000000000000000000081526004810182905260009060609073ffffffffffffffffffffffffffffffffffffffff851690637c48868a90602401602060405180830381865afa158015610a76573d6000803e3d6000fd5b505050506040513d601f19601f82011682018060405250810190610a9a91906113d8565b15610ace576001808585604051602001610ab6939291906114bd565b60405160208183030381529060405291509150610ae2565b505060408051602081019091526000808252905b9250929050565b336000610af6828461072e565b90508015610c825773ffffffffffffffffffffffffffffffffffffffff8216600090815260026020818152604080842087855290920190528120556040517fc8048022000000000000000000000000000000000000000000000000000000008152600481018290527f000000000000000000000000000000000000000000000000000000000000000073ffffffffffffffffffffffffffffffffffffffff169063c804802290602401600060405180830381600087803b158015610bb957600080fd5b505af1925050508015610bca575060015b610c2a576040805173ffffffffffffffffffffffffffffffffffffffff84168152602081018590529081018290527f5a1a66422ef5a9d9cdac18d2ee5332263e772a0710c8f476a0eb862fda0517919060600160405180910390a1505050565b6040805173ffffffffffffffffffffffffffffffffffffffff84168152602081018590529081018290527f3d40ef7f31f4f1795fde220cf33a2107c84fe6a7085e3521a2872334d7147cf69060600160405180910390a15b505050565b610c8f610e9e565b6040517fc8048022000000000000000000000000000000000000000000000000000000008152600481018290527f000000000000000000000000000000000000000000000000000000000000000073ffffffffffffffffffffffffffffffffffffffff169063c804802290602401600060405180830381600087803b158015610d1757600080fd5b505af11580156106af573d6000803e3d6000fd5b610d33610e9e565b73ffffffffffffffffffffffffffffffffffffffff8116610ddb576040517f08c379a000000000000000000000000000000000000000000000000000000000815260206004820152602660248201527f4f776e61626c653a206e6577206f776e657220697320746865207a65726f206160448201527f646472657373000000000000000000000000000000000000000000000000000060648201526084015b60405180910390fd5b61088981610f99565b6000807f000000000000000000000000000000000000000000000000000000000000000073ffffffffffffffffffffffffffffffffffffffff1663d11d397a6040518163ffffffff1660e01b8152600401602060405180830381865afa158015610e52573d6000803e3d6000fd5b505050506040513d601f19601f82011682018060405250810190610e7691906114f2565b927f000000000000000000000000000000000000000000000000000000000000000092509050565b60015473ffffffffffffffffffffffffffffffffffffffff16331461077a576040517f9298645b00000000000000000000000000000000000000000000000000000000815260040160405180910390fd5b60008173ffffffffffffffffffffffffffffffffffffffff16633efe49656040518163ffffffff1660e01b8152600401602060405180830381865afa158015610f3c573d6000803e3d6000fd5b505050506040513d601f19601f82011682018060405250810190610f6091906114f2565b9050610f6c814261150b565b73ffffffffffffffffffffffffffffffffffffffff90921660009081526002602052604090209190915550565b6001805473ffffffffffffffffffffffffffffffffffffffff8381167fffffffffffffffffffffffff0000000000000000000000000000000000000000831681179093556040519116919082907f8be0079c531659141344cd1fd0a4f28419497f9722a3daafe3b4186f6b6457e090600090a35050565b60026000540361107c576040517f08c379a000000000000000000000000000000000000000000000000000000000815260206004820152601f60248201527f5265656e7472616e637947756172643a207265656e7472616e742063616c6c006044820152606401610dd2565b6002600055565b60007f000000000000000000000000000000000000000000000000000000000000000073ffffffffffffffffffffffffffffffffffffffff16639e571d3830600360009054906101000a900463ffffffff16306000878b8b8b6040516020016110ee939291906114bd565b604080517fffffffffffffffffffffffffffffffffffffffffffffffffffffffffffffffe0818403018152602083018252600080845291517fffffffff0000000000000000000000000000000000000000000000000000000060e08b901b16815261116498979695949391929190600401611545565b6020604051808303816000875af1158015611183573d6000803e3d6000fd5b505050506040513d601f19601f820116820180604052508101906111a791906114f2565b95945050505050565b73ffffffffffffffffffffffffffffffffffffffff8116811461088957600080fd5b6000602082840312156111e457600080fd5b81356111ef816111b0565b9392505050565b6000815180845260005b8181101561121c57602081850181015186830182015201611200565b5060006020828601015260207fffffffffffffffffffffffffffffffffffffffffffffffffffffffffffffffe0601f83011685010191505092915050565b821515815260406020820152600061127560408301846111f6565b949350505050565b6000806040838503121561129057600080fd5b823561129b816111b0565b946020939093013593505050565b6000602082840312156112bb57600080fd5b813563ffffffff811681146111ef57600080fd5b60008083601f8401126112e157600080fd5b50813567ffffffffffffffff8111156112f957600080fd5b602083019150836020828501011115610ae257600080fd5b6000806020838503121561132457600080fd5b823567ffffffffffffffff81111561133b57600080fd5b611347858286016112cf565b90969095509350505050565b6000806000806040858703121561136957600080fd5b843567ffffffffffffffff8082111561138157600080fd5b61138d888389016112cf565b909650945060208701359150808211156113a657600080fd5b506113b3878288016112cf565b95989497509550505050565b6000602082840312156113d157600080fd5b5035919050565b6000602082840312156113ea57600080fd5b815180151581146111ef57600080fd5b7f4e487b7100000000000000000000000000000000000000000000000000000000600052602160045260246000fd5b60028110611439576114396113fa565b9052565b6060810161144b8286611429565b73ffffffffffffffffffffffffffffffffffffffff8416602083015260ff83166040830152949350505050565b60008060006060848603121561148d57600080fd5b83356002811061149c57600080fd5b925060208401356114ac816111b0565b929592945050506040919091013590565b606081016114cb8286611429565b73ffffffffffffffffffffffffffffffffffffffff93909316602082015260400152919050565b60006020828403121561150457600080fd5b5051919050565b80820180821115610762577f4e487b7100000000000000000000000000000000000000000000000000000000600052601160045260246000fd5b600061010073ffffffffffffffffffffffffffffffffffffffff808c16845263ffffffff8b166020850152808a16604085015250871515606084015286151560808401528060a084015261159b818401876111f6565b9050600385106115ad576115ad6113fa565b8460c084015282810360e08401526115c581856111f6565b9b9a505050505050505050505056fea2646970667358221220df0188454485bcf9703231bc2f9a20a6ce6a2ec260c2c75a78712a2ecbd0053b64736f6c63430008130033",
  "devdoc": {
    "errors": {
      "AlreadyRebalanceTaskExist()": [
        {
          "details": "Emitted when attempting to create a rebalance task while one already exists."
        }
      ],
      "NotAutomationCalled()": [
        {
          "details": "Emitted when a function is called by an unauthorized address."
        }
      ],
      "OnlyAccessableByOwner()": [
        {
          "details": "Signifies that the function is only accessible by the owner"
        }
      ]
    },
    "events": {
      "CancelRebalanceTaskFailed(address,uint256)": {
        "details": "Emitted when a rebalance task cancellation fails.",
        "params": {
          "lp": "The address of the liquidity provider.",
          "taskId": "The unique identifier of the cancelled rebalance task."
        }
      },
      "CancelRebalanceTaskSucceeded(address,uint256)": {
        "details": "Emitted when a rebalance task cancellation is successful.",
        "params": {
          "lp": "The address of the liquidity provider.",
          "taskId": "The unique identifier of the cancelled rebalance task."
        }
      },
      "CancelSettleTaskFailed(address,uint256,uint256)": {
        "details": "Emitted when a settle task cancellation fails.",
        "params": {
          "lp": "The address of the liquidity provider.",
          "receiptId": "The unique identifier of the cancelled settle task.",
          "taskId": "The unique identifier of the cancelled settle task."
        }
      },
      "CancelSettleTaskSucceeded(address,uint256,uint256)": {
        "details": "Emitted when a settle task cancellation is successful.",
        "params": {
          "lp": "The address of the liquidity provider.",
          "receiptId": "The unique identifier of the cancelled settle task.",
          "taskId": "The unique identifier of the cancelled settle task."
        }
      }
    },
    "kind": "dev",
    "methods": {
      "cancelRebalanceTask()": {
        "details": "Cancels the existing rebalance task for the specified LP (msg.sender)."
      },
      "cancelSettleTask(uint256)": {
        "details": "Cancels the existing settle task for a specific receipt ID.",
        "params": {
          "receiptId": "The unique identifier of the receipt associated with the task."
        }
      },
      "cancelUpkeep(uint256)": {
        "details": "Cancels the existing task for a specific upkeep ID.",
        "params": {
          "upkeepId": "The unique identifier of the task."
        }
      },
      "createRebalanceTask()": {
        "details": "Initiates the creation of a rebalance task for the specified LP (msg.sender)."
      },
      "createSettleTask(uint256)": {
        "details": "Initiates the creation of a settle task for a specific receipt ID.",
        "params": {
          "receiptId": "The unique identifier of the receipt associated with the task."
        }
      },
      "getRebalanceTaskId(address)": {
        "details": "Gets the task ID of the existing rebalance task for the specified LP.",
        "params": {
          "lp": "The address of the liquidity provider."
        },
        "returns": {
          "_0": "The task ID of the rebalance task."
        }
      },
      "getSettleTaskId(address,uint256)": {
        "details": "Gets the task ID of the existing settle task for the specified LP and receipt ID.",
        "params": {
          "lp": "The address of the liquidity provider.",
          "receiptId": "The unique identifier of the receipt associated with the task."
        },
        "returns": {
          "_0": "The task ID of the settle task."
        }
      },
      "owner()": {
        "details": "Returns the address of the current owner."
      },
      "performUpkeep(bytes)": {
        "details": "The input to this method should not be trusted, and the caller of the method should not even be restricted to any single registry. Anyone should be able call it, and the input should be validated, there is no guarantee that the data passed in is the performData returned from checkUpkeep. This could happen due to malicious keepers, racing keepers, or simply a state change while the performUpkeep transaction is waiting for confirmation. Always validate the data passed in.",
        "params": {
          "performData": "is the data which was passed back from the checkData simulation. If it is encoded, it can easily be decoded into other types by calling `abi.decode`. This data should not be trusted, and should be validated against the contract's current state."
        }
      },
      "rebalance(address)": {
        "details": "Executes the rebalance task for the specified LP.",
        "params": {
          "lp": "The address of the liquidity provider."
        }
      },
      "renounceOwnership()": {
        "details": "Leaves the contract without owner. It will not be possible to call `onlyOwner` functions. Can only be called by the current owner. NOTE: Renouncing ownership will leave the contract without an owner, thereby disabling any functionality that is only available to the owner."
      },
      "resolveRebalance(address)": {
        "details": "Checks whether a rebalance task is needed for the specified LP.",
        "params": {
          "lp": "The address of the liquidity provider."
        },
        "returns": {
          "performData": "Additional data required for performing the task.",
          "upkeepNeeded": "Indicates whether upkeep is needed."
        }
      },
      "resolveSettle(address,uint256)": {
        "details": "Checks whether a settle task is needed for the specified LP and receipt ID.",
        "params": {
          "lp": "The address of the liquidity provider.",
          "receiptId": "The unique identifier of the receipt associated with the task."
        },
        "returns": {
          "performData": "Additional data required for performing the task.",
          "upkeepNeeded": "Indicates whether upkeep is needed."
        }
      },
      "settle(address,uint256)": {
        "details": "Executes the settle task for the specified LP and receipt ID.",
        "params": {
          "lp": "The address of the liquidity provider.",
          "receiptId": "The unique identifier of the receipt associated with the task."
        }
      },
      "transferOwnership(address)": {
        "details": "Transfers ownership of the contract to a new account (`newOwner`). Can only be called by the current owner."
      }
    },
    "version": 1
  },
  "userdoc": {
    "kind": "user",
    "methods": {
      "performUpkeep(bytes)": {
        "notice": "method that is actually executed by the keepers, via the registry. The data returned by the checkUpkeep simulation will be passed into this method to actually be executed."
      }
    },
    "version": 1
  },
  "storageLayout": {
    "storage": [
      {
        "astId": 3573,
        "contract": "contracts/automation/mate2/AutomateLP.sol:AutomateLP",
        "label": "_status",
        "offset": 0,
        "slot": "0",
        "type": "t_uint256"
      },
      {
        "astId": 3445,
        "contract": "contracts/automation/mate2/AutomateLP.sol:AutomateLP",
        "label": "_owner",
        "offset": 0,
        "slot": "1",
        "type": "t_address"
      },
      {
        "astId": 7655,
        "contract": "contracts/automation/mate2/AutomateLP.sol:AutomateLP",
        "label": "_taskMap",
        "offset": 0,
        "slot": "2",
        "type": "t_mapping(t_contract(IChromaticLP)9781,t_struct(LPTasks)7646_storage)"
      },
      {
        "astId": 7660,
        "contract": "contracts/automation/mate2/AutomateLP.sol:AutomateLP",
        "label": "upkeepGasLimit",
        "offset": 0,
        "slot": "3",
        "type": "t_uint32"
      }
    ],
    "types": {
      "t_address": {
        "encoding": "inplace",
        "label": "address",
        "numberOfBytes": "20"
      },
      "t_contract(IChromaticLP)9781": {
        "encoding": "inplace",
        "label": "contract IChromaticLP",
        "numberOfBytes": "20"
      },
      "t_mapping(t_contract(IChromaticLP)9781,t_struct(LPTasks)7646_storage)": {
        "encoding": "mapping",
        "key": "t_contract(IChromaticLP)9781",
        "label": "mapping(contract IChromaticLP => struct AutomateLP.LPTasks)",
        "numberOfBytes": "32",
        "value": "t_struct(LPTasks)7646_storage"
      },
      "t_mapping(t_uint256,t_uint256)": {
        "encoding": "mapping",
        "key": "t_uint256",
        "label": "mapping(uint256 => uint256)",
        "numberOfBytes": "32",
        "value": "t_uint256"
      },
      "t_struct(LPTasks)7646_storage": {
        "encoding": "inplace",
        "label": "struct AutomateLP.LPTasks",
        "members": [
          {
            "astId": 7639,
            "contract": "contracts/automation/mate2/AutomateLP.sol:AutomateLP",
            "label": "nextRebalanceCheck",
            "offset": 0,
            "slot": "0",
            "type": "t_uint256"
          },
          {
            "astId": 7641,
            "contract": "contracts/automation/mate2/AutomateLP.sol:AutomateLP",
            "label": "rebalanceTaskId",
            "offset": 0,
            "slot": "1",
            "type": "t_uint256"
          },
          {
            "astId": 7645,
            "contract": "contracts/automation/mate2/AutomateLP.sol:AutomateLP",
            "label": "settleTasks",
            "offset": 0,
            "slot": "2",
            "type": "t_mapping(t_uint256,t_uint256)"
          }
        ],
        "numberOfBytes": "96"
      },
      "t_uint256": {
        "encoding": "inplace",
        "label": "uint256",
        "numberOfBytes": "32"
      },
      "t_uint32": {
        "encoding": "inplace",
        "label": "uint32",
        "numberOfBytes": "4"
      }
    }
  }
}