{
  "address": "0xb30308c400123aC39049FFfa42fEBc8446A9400d",
  "abi": [
    {
      "inputs": [
        {
          "internalType": "address",
          "name": "gelatoAutomate",
          "type": "address"
        }
      ],
      "stateMutability": "nonpayable",
      "type": "constructor"
    },
    {
      "inputs": [],
      "name": "AlreadyRebalanceTaskExist",
      "type": "error"
    },
    {
      "inputs": [],
      "name": "NotAutomationCalled",
      "type": "error"
    },
    {
      "inputs": [],
      "name": "OnlyAccessableByOwner",
      "type": "error"
    },
    {
      "anonymous": false,
      "inputs": [
        {
          "indexed": true,
          "internalType": "bytes32",
          "name": "taskId",
          "type": "bytes32"
        }
      ],
      "name": "CancelTaskFailed",
      "type": "event"
    },
    {
      "anonymous": false,
      "inputs": [
        {
          "indexed": true,
          "internalType": "bytes32",
          "name": "taskId",
          "type": "bytes32"
        }
      ],
      "name": "CancelTaskSucceeded",
      "type": "event"
    },
    {
      "anonymous": false,
      "inputs": [
        {
          "indexed": false,
          "internalType": "address",
          "name": "lp",
          "type": "address"
        },
        {
          "indexed": false,
          "internalType": "bytes32",
          "name": "taskId",
          "type": "bytes32"
        }
      ],
      "name": "CancleRebalanceTaskFailed",
      "type": "event"
    },
    {
      "anonymous": false,
      "inputs": [
        {
          "indexed": false,
          "internalType": "address",
          "name": "lp",
          "type": "address"
        },
        {
          "indexed": false,
          "internalType": "bytes32",
          "name": "taskId",
          "type": "bytes32"
        }
      ],
      "name": "CancleRebalanceTaskSucceeded",
      "type": "event"
    },
    {
      "anonymous": false,
      "inputs": [
        {
          "indexed": false,
          "internalType": "address",
          "name": "lp",
          "type": "address"
        },
        {
          "indexed": false,
          "internalType": "uint256",
          "name": "receiptId",
          "type": "uint256"
        },
        {
          "indexed": false,
          "internalType": "bytes32",
          "name": "taskId",
          "type": "bytes32"
        }
      ],
      "name": "CancleSettleTaskFailed",
      "type": "event"
    },
    {
      "anonymous": false,
      "inputs": [
        {
          "indexed": false,
          "internalType": "address",
          "name": "lp",
          "type": "address"
        },
        {
          "indexed": false,
          "internalType": "uint256",
          "name": "receiptId",
          "type": "uint256"
        },
        {
          "indexed": false,
          "internalType": "bytes32",
          "name": "taskId",
          "type": "bytes32"
        }
      ],
      "name": "CancleSettleTaskSucceeded",
      "type": "event"
    },
    {
      "anonymous": false,
      "inputs": [
        {
          "indexed": true,
          "internalType": "address",
          "name": "previousOwner",
          "type": "address"
        },
        {
          "indexed": true,
          "internalType": "address",
          "name": "newOwner",
          "type": "address"
        }
      ],
      "name": "OwnershipTransferred",
      "type": "event"
    },
    {
      "inputs": [],
      "name": "automate",
      "outputs": [
        {
          "internalType": "contract IAutomate",
          "name": "",
          "type": "address"
        }
      ],
      "stateMutability": "view",
      "type": "function"
    },
    {
      "inputs": [],
      "name": "cancelRebalanceTask",
      "outputs": [],
      "stateMutability": "nonpayable",
      "type": "function"
    },
    {
      "inputs": [
        {
          "internalType": "uint256",
          "name": "receiptId",
          "type": "uint256"
        }
      ],
      "name": "cancelSettleTask",
      "outputs": [],
      "stateMutability": "nonpayable",
      "type": "function"
    },
    {
      "inputs": [
        {
          "internalType": "bytes32",
          "name": "taskId",
          "type": "bytes32"
        }
      ],
      "name": "cancelTask",
      "outputs": [],
      "stateMutability": "nonpayable",
      "type": "function"
    },
    {
      "inputs": [],
      "name": "createRebalanceTask",
      "outputs": [],
      "stateMutability": "nonpayable",
      "type": "function"
    },
    {
      "inputs": [
        {
          "internalType": "uint256",
          "name": "receiptId",
          "type": "uint256"
        }
      ],
      "name": "createSettleTask",
      "outputs": [],
      "stateMutability": "nonpayable",
      "type": "function"
    },
    {
      "inputs": [],
      "name": "dedicatedMsgSender",
      "outputs": [
        {
          "internalType": "address",
          "name": "",
          "type": "address"
        }
      ],
      "stateMutability": "view",
      "type": "function"
    },
    {
      "inputs": [
        {
          "internalType": "contract IChromaticLP",
          "name": "lp",
          "type": "address"
        }
      ],
      "name": "getRebalanceTaskId",
      "outputs": [
        {
          "internalType": "bytes32",
          "name": "",
          "type": "bytes32"
        }
      ],
      "stateMutability": "view",
      "type": "function"
    },
    {
      "inputs": [
        {
          "internalType": "contract IChromaticLP",
          "name": "lp",
          "type": "address"
        },
        {
          "internalType": "uint256",
          "name": "receiptId",
          "type": "uint256"
        }
      ],
      "name": "getSettleTaskId",
      "outputs": [
        {
          "internalType": "bytes32",
          "name": "",
          "type": "bytes32"
        }
      ],
      "stateMutability": "view",
      "type": "function"
    },
    {
      "inputs": [],
      "name": "owner",
      "outputs": [
        {
          "internalType": "address",
          "name": "",
          "type": "address"
        }
      ],
      "stateMutability": "view",
      "type": "function"
    },
    {
      "inputs": [
        {
          "internalType": "address",
          "name": "lp",
          "type": "address"
        }
      ],
      "name": "rebalance",
      "outputs": [],
      "stateMutability": "nonpayable",
      "type": "function"
    },
    {
      "inputs": [],
      "name": "renounceOwnership",
      "outputs": [],
      "stateMutability": "nonpayable",
      "type": "function"
    },
    {
      "inputs": [
        {
          "internalType": "address",
          "name": "lp",
          "type": "address"
        }
      ],
      "name": "resolveRebalance",
      "outputs": [
        {
          "internalType": "bool",
          "name": "upkeepNeeded",
          "type": "bool"
        },
        {
          "internalType": "bytes",
          "name": "performData",
          "type": "bytes"
        }
      ],
      "stateMutability": "view",
      "type": "function"
    },
    {
      "inputs": [
        {
          "internalType": "address",
          "name": "lp",
          "type": "address"
        },
        {
          "internalType": "uint256",
          "name": "receiptId",
          "type": "uint256"
        }
      ],
      "name": "resolveSettle",
      "outputs": [
        {
          "internalType": "bool",
          "name": "upkeepNeeded",
          "type": "bool"
        },
        {
          "internalType": "bytes",
          "name": "performData",
          "type": "bytes"
        }
      ],
      "stateMutability": "view",
      "type": "function"
    },
    {
      "inputs": [
        {
          "internalType": "address",
          "name": "lp",
          "type": "address"
        },
        {
          "internalType": "uint256",
          "name": "receiptId",
          "type": "uint256"
        }
      ],
      "name": "settle",
      "outputs": [],
      "stateMutability": "nonpayable",
      "type": "function"
    },
    {
      "inputs": [
        {
          "internalType": "address",
          "name": "newOwner",
          "type": "address"
        }
      ],
      "name": "transferOwnership",
      "outputs": [],
      "stateMutability": "nonpayable",
      "type": "function"
    }
  ],
  "transactionHash": "0xbb41652ecd8d054a14ed749dbd6d0635c345ab81018f26e1ade65cfa43e6ff80",
  "args": [
    "0x2A6C106ae13B558BB9E2Ec64Bd2f1f7BEFF3A5E0"
  ],
  "numDeployments": 1,
  "solcInputHash": "a008d515ea673f5cc92f1b6fa698c223",
  "bytecode": "0x60e06040523480156200001157600080fd5b506040516200201e3803806200201e83398101604081905262000034916200031a565b80306001600081905550816001600160a01b03166080816001600160a01b0316815250506000826001600160a01b031663573ea5756040518163ffffffff1660e01b8152600401602060405180830381865afa15801562000099573d6000803e3d6000fd5b505050506040513d601f19601f82011682018060405250810190620000bf91906200031a565b9050806001600160a01b031663c415b95c6040518163ffffffff1660e01b8152600401602060405180830381865afa15801562000100573d6000803e3d6000fd5b505050506040513d601f19601f820116820180604052508101906200012691906200031a565b6001600160a01b0390811660c05260405163cd3d4fb960e01b815260009185169063cd3d4fb9906200015e9060029060040162000341565b602060405180830381865afa1580156200017c573d6000803e3d6000fd5b505050506040513d601f19601f82011682018060405250810190620001a291906200031a565b90506000816001600160a01b031663ba1d0ff46040518163ffffffff1660e01b8152600401602060405180830381865afa158015620001e5573d6000803e3d6000fd5b505050506040513d601f19601f820116820180604052508101906200020b91906200031a565b6040516337b6269f60e21b81526001600160a01b0386811660048301529192509082169063ded89a7c906024016040805180830381865afa15801562000255573d6000803e3d6000fd5b505050506040513d601f19601f820116820180604052508101906200027b91906200036a565b506001600160a01b031660a05250620002a493506200029e925050620002ab9050565b620002af565b50620003ad565b3390565b600180546001600160a01b038381166001600160a01b0319831681179093556040519116919082907f8be0079c531659141344cd1fd0a4f28419497f9722a3daafe3b4186f6b6457e090600090a35050565b6001600160a01b03811681146200031757600080fd5b50565b6000602082840312156200032d57600080fd5b81516200033a8162000301565b9392505050565b60208101600683106200036457634e487b7160e01b600052602160045260246000fd5b91905290565b600080604083850312156200037e57600080fd5b82516200038b8162000301565b60208401519092508015158114620003a257600080fd5b809150509250929050565b60805160a05160c051611c056200041960003960005050600081816101a401528181610414015261052a01526000818161010a0152818161098b01528181610c6801528181610dc601528181610f05015281816113110152818161168d015261172c0152611c056000f3fe608060405234801561001057600080fd5b50600436106101005760003560e01c8063747cd3d911610097578063b48949b511610066578063b48949b51461029a578063c6bd6249146102ad578063ee8ca3b5146102c0578063f2fde38b146102d357600080fd5b8063747cd3d914610259578063890e2ec9146102615780638da5cb5b1461027457806393e15ee91461029257600080fd5b806328f150eb116100d357806328f150eb1461019f5780633f6f3836146101c65780636dbbd3731461020a578063715018a61461025157600080fd5b8063049aacfe1461010557806304acb2af1461015657806315afd4091461017757806321c281911461018c575b600080fd5b61012c7f000000000000000000000000000000000000000000000000000000000000000081565b60405173ffffffffffffffffffffffffffffffffffffffff90911681526020015b60405180910390f35b610169610164366004611855565b6102e6565b60405161014d9291906118dd565b61018a6101853660046118f8565b6103fc565b005b61018a61019a366004611855565b610512565b61012c7f000000000000000000000000000000000000000000000000000000000000000081565b6101fc6101d4366004611855565b73ffffffffffffffffffffffffffffffffffffffff1660009081526002602052604090205490565b60405190815260200161014d565b6101fc6102183660046118f8565b73ffffffffffffffffffffffffffffffffffffffff91909116600090815260026020908152604080832093835260019093019052205490565b61018a610620565b61018a610634565b61018a61026f366004611924565b6107e6565b60015473ffffffffffffffffffffffffffffffffffffffff1661012c565b61018a610920565b6101696102a83660046118f8565b610aa0565b61018a6102bb366004611924565b610be1565b61018a6102ce366004611924565b610d8f565b61018a6102e1366004611855565b610e3a565b600060608273ffffffffffffffffffffffffffffffffffffffff1663a56c077f6040518163ffffffff1660e01b8152600401602060405180830381865afa158015610335573d6000803e3d6000fd5b505050506040513d601f19601f82011682018060405250810190610359919061193d565b156103e45750506040805173ffffffffffffffffffffffffffffffffffffffff9290921660248084019190915281518084039091018152604490920190526020810180517bffffffffffffffffffffffffffffffffffffffffffffffffffffffff167f21c2819100000000000000000000000000000000000000000000000000000000179052600191565b50506040805160208101909152600080825292909150565b3373ffffffffffffffffffffffffffffffffffffffff7f0000000000000000000000000000000000000000000000000000000000000000161461046b576040517fa19677f400000000000000000000000000000000000000000000000000000000815260040160405180910390fd5b600080610476610ef3565b6040517f95fc33c50000000000000000000000000000000000000000000000000000000081526004810186905273ffffffffffffffffffffffffffffffffffffffff808316602483015260448201849052929450909250908516906395fc33c590606401600060405180830381600087803b1580156104f457600080fd5b505af1158015610508573d6000803e3d6000fd5b5050505050505050565b3373ffffffffffffffffffffffffffffffffffffffff7f00000000000000000000000000000000000000000000000000000000000000001614610581576040517fa19677f400000000000000000000000000000000000000000000000000000000815260040160405180910390fd5b60008061058c610ef3565b6040517f3da9b9d000000000000000000000000000000000000000000000000000000000815273ffffffffffffffffffffffffffffffffffffffff80831660048301526024820184905292945090925090841690633da9b9d090604401600060405180830381600087803b15801561060357600080fd5b505af1158015610617573d6000803e3d6000fd5b50505050505050565b610628610f98565b6106326000610fe9565b565b61063c611060565b336000818152600260205260409020548015610684576040517f78bfb91700000000000000000000000000000000000000000000000000000000815260040160405180910390fd5b6040805133602480830182905283518084038201815260449384018552602080820180517f04acb2af000000000000000000000000000000000000000000000000000000007bffffffffffffffffffffffffffffffffffffffffffffffffffffffff91821617909152865180850186905287518082039095018552909501865282810180519095167f21c28191000000000000000000000000000000000000000000000000000000001790945284517f3efe496500000000000000000000000000000000000000000000000000000000815294516107b0959194929392633efe496592600480820193918290030181865afa158015610787573d6000803e3d6000fd5b505050506040513d601f19601f820116820180604052508101906107ab919061195f565b6110d3565b73ffffffffffffffffffffffffffffffffffffffff83166000908152600260205260409020819055905050506106326001600055565b6107ee611060565b3360008181526002602090815260408083208584526001019091529020546000036109125760408051336024808301829052604480840187905284518085038201815260649485018652602080820180517fb48949b5000000000000000000000000000000000000000000000000000000007bffffffffffffffffffffffffffffffffffffffffffffffffffffffff918216179091528751948501959095528383018990528651808503909301835292909401909452830180519091167f15afd409000000000000000000000000000000000000000000000000000000001790526000916108dc91906113ac565b73ffffffffffffffffffffffffffffffffffffffff83166000908152600260209081526040808320878452600101909152902055505b5061091d6001600055565b50565b336000818152600260205260409020548015610a9c5773ffffffffffffffffffffffffffffffffffffffff82166000908152600260205260408120556040517fee8ca3b5000000000000000000000000000000000000000000000000000000008152600481018290527f000000000000000000000000000000000000000000000000000000000000000073ffffffffffffffffffffffffffffffffffffffff169063ee8ca3b590602401600060405180830381600087803b1580156109e457600080fd5b505af19250505080156109f5575060015b610a4c576040805173ffffffffffffffffffffffffffffffffffffffff84168152602081018390527f49cfaf5afa51f1bfed01daf4c761129dd7ed0b7e1a84ddd03645319ef56f7399910160405180910390a15050565b6040805173ffffffffffffffffffffffffffffffffffffffff84168152602081018390527fcbb2f35ffdf017fad5a3c5c0bf3e9ad96ab10bb52ceee4009819cbd0129aa535910160405180910390a15b5050565b6040517f7c48868a0000000000000000000000000000000000000000000000000000000081526004810182905260009060609073ffffffffffffffffffffffffffffffffffffffff851690637c48868a90602401602060405180830381865afa158015610b11573d6000803e3d6000fd5b505050506040513d601f19601f82011682018060405250810190610b35919061193d565b15610bc65750506040805173ffffffffffffffffffffffffffffffffffffffff8416602482015260448082018490528251808303909101815260649091019091526020810180517bffffffffffffffffffffffffffffffffffffffffffffffffffffffff167f15afd40900000000000000000000000000000000000000000000000000000000179052600190610bda565b505060408051602081019091526000808252905b9250929050565b3360008181526002602090815260408083208584526001019091529020548015610d8a5773ffffffffffffffffffffffffffffffffffffffff821660009081526002602090815260408083208684526001019091528120556040517fee8ca3b5000000000000000000000000000000000000000000000000000000008152600481018290527f000000000000000000000000000000000000000000000000000000000000000073ffffffffffffffffffffffffffffffffffffffff169063ee8ca3b590602401600060405180830381600087803b158015610cc157600080fd5b505af1925050508015610cd2575060015b610d32576040805173ffffffffffffffffffffffffffffffffffffffff84168152602081018590529081018290527fe47901bc8b854424813403831e80253ba99b639ee95b11a483e0d26a20e933839060600160405180910390a1505050565b6040805173ffffffffffffffffffffffffffffffffffffffff84168152602081018590529081018290527fd270057c2d15299e47e0de652ee11f88f9caff85f50d46c7da14afca6c4644419060600160405180910390a15b505050565b610d97610f98565b6040517fee8ca3b5000000000000000000000000000000000000000000000000000000008152600481018290527f000000000000000000000000000000000000000000000000000000000000000073ffffffffffffffffffffffffffffffffffffffff169063ee8ca3b590602401600060405180830381600087803b158015610e1f57600080fd5b505af1158015610e33573d6000803e3d6000fd5b5050505050565b610e42610f98565b73ffffffffffffffffffffffffffffffffffffffff8116610eea576040517f08c379a000000000000000000000000000000000000000000000000000000000815260206004820152602660248201527f4f776e61626c653a206e6577206f776e657220697320746865207a65726f206160448201527f646472657373000000000000000000000000000000000000000000000000000060648201526084015b60405180910390fd5b61091d81610fe9565b600080610efe611727565b50809250507f000000000000000000000000000000000000000000000000000000000000000073ffffffffffffffffffffffffffffffffffffffff1663573ea5756040518163ffffffff1660e01b8152600401602060405180830381865afa158015610f6e573d6000803e3d6000fd5b505050506040513d601f19601f82011682018060405250810190610f929190611978565b90509091565b60015473ffffffffffffffffffffffffffffffffffffffff163314610632576040517f9298645b00000000000000000000000000000000000000000000000000000000815260040160405180910390fd5b6001805473ffffffffffffffffffffffffffffffffffffffff8381167fffffffffffffffffffffffff0000000000000000000000000000000000000000831681179093556040519116919082907f8be0079c531659141344cd1fd0a4f28419497f9722a3daafe3b4186f6b6457e090600090a35050565b6002600054036110cc576040517f08c379a000000000000000000000000000000000000000000000000000000000815260206004820152601f60248201527f5265656e7472616e637947756172643a207265656e7472616e742063616c6c006044820152606401610ee1565b6002600055565b6000806040518060400160405280600367ffffffffffffffff8111156110fb576110fb611995565b604051908082528060200260200182016040528015611124578160200160208202803683370190505b5081526040805160038082526080820190925260209092019190816020015b60608152602001906001900390816111435750509052805180519192506000918290611171576111716119c4565b6020026020010190600581111561118a5761118a6119f3565b9081600581111561119d5761119d6119f3565b81525050600281600001516001815181106111ba576111ba6119c4565b602002602001019060058111156111d3576111d36119f3565b908160058111156111e6576111e66119f3565b8152505060058160000151600281518110611203576112036119c4565b6020026020010190600581111561121c5761121c6119f3565b9081600581111561122f5761122f6119f3565b9052506040516112459030908790602001611a22565b604051602081830303815290604052816020015160008151811061126b5761126b6119c4565b602002602001018190525060405180602001604052806000815250816020015160018151811061129d5761129d6119c4565b60200260200101819052506112b242846117c1565b81602001516002815181106112c9576112c96119c4565b60209081029190910101526040517f3323b46700000000000000000000000000000000000000000000000000000000815273ffffffffffffffffffffffffffffffffffffffff7f00000000000000000000000000000000000000000000000000000000000000001690633323b467906113609030908890869073eeeeeeeeeeeeeeeeeeeeeeeeeeeeeeeeeeeeeeee90600401611a51565b6020604051808303816000875af115801561137f573d6000803e3d6000fd5b505050506040513d601f19601f820116820180604052508101906113a3919061195f565b95945050505050565b6000806040518060400160405280600467ffffffffffffffff8111156113d4576113d4611995565b6040519080825280602002602001820160405280156113fd578160200160208202803683370190505b50815260408051600480825260a0820190925260209092019190816020015b606081526020019060019003908161141c575050905280518051919250600091829061144a5761144a6119c4565b60200260200101906005811115611463576114636119f3565b90816005811115611476576114766119f3565b8152505060028160000151600181518110611493576114936119c4565b602002602001019060058111156114ac576114ac6119f3565b908160058111156114bf576114bf6119f3565b81525050600381600001516002815181106114dc576114dc6119c4565b602002602001019060058111156114f5576114f56119f3565b90816005811115611508576115086119f3565b8152505060058160000151600381518110611525576115256119c4565b6020026020010190600581111561153e5761153e6119f3565b90816005811115611551576115516119f3565b9052506040516115679030908690602001611a22565b604051602081830303815290604052816020015160008151811061158d5761158d6119c4565b60200260200101819052506040518060200160405280600081525081602001516001815181106115bf576115bf6119c4565b60200260200101819052506040518060200160405280600081525081602001516002815181106115f1576115f16119c4565b602002602001018190525060036040518060200160405280600081525060405160200161161f929190611b76565b6040516020818303038152906040528160200151600381518110611645576116456119c4565b60209081029190910101526040517f3323b46700000000000000000000000000000000000000000000000000000000815273ffffffffffffffffffffffffffffffffffffffff7f00000000000000000000000000000000000000000000000000000000000000001690633323b467906116dc9030908790869073eeeeeeeeeeeeeeeeeeeeeeeeeeeeeeeeeeeeeeee90600401611a51565b6020604051808303816000875af11580156116fb573d6000803e3d6000fd5b505050506040513d601f19601f8201168201806040525081019061171f919061195f565b949350505050565b6000807f000000000000000000000000000000000000000000000000000000000000000073ffffffffffffffffffffffffffffffffffffffff1663b810c6366040518163ffffffff1660e01b81526004016040805180830381865afa158015611794573d6000803e3d6000fd5b505050506040513d601f19601f820116820180604052508101906117b89190611b9f565b90939092509050565b6060600083836040516020016117f69291906fffffffffffffffffffffffffffffffff92831681529116602082015260400190565b604051602081830303815290604052905060008160405160200161181b929190611b76565b60405160208183030381529060405291505092915050565b73ffffffffffffffffffffffffffffffffffffffff8116811461091d57600080fd5b60006020828403121561186757600080fd5b813561187281611833565b9392505050565b6000815180845260005b8181101561189f57602081850181015186830182015201611883565b5060006020828601015260207fffffffffffffffffffffffffffffffffffffffffffffffffffffffffffffffe0601f83011685010191505092915050565b821515815260406020820152600061171f6040830184611879565b6000806040838503121561190b57600080fd5b823561191681611833565b946020939093013593505050565b60006020828403121561193657600080fd5b5035919050565b60006020828403121561194f57600080fd5b8151801515811461187257600080fd5b60006020828403121561197157600080fd5b5051919050565b60006020828403121561198a57600080fd5b815161187281611833565b7f4e487b7100000000000000000000000000000000000000000000000000000000600052604160045260246000fd5b7f4e487b7100000000000000000000000000000000000000000000000000000000600052603260045260246000fd5b7f4e487b7100000000000000000000000000000000000000000000000000000000600052602160045260246000fd5b73ffffffffffffffffffffffffffffffffffffffff8316815260406020820152600061171f6040830184611879565b73ffffffffffffffffffffffffffffffffffffffff8516815260006020608081840152611a816080840187611879565b8381036040808601919091528651818352805191830182905283019060009060608401905b80831015611ad657835160068110611ac057611ac06119f3565b8252928501926001929092019190850190611aa6565b508885015184820394860194909452835180825281860194860193509150600582901b8101850160005b83811015611b4c577fffffffffffffffffffffffffffffffffffffffffffffffffffffffffffffffe0838303018652611b3a828651611879565b95870195948701949150600101611b00565b5073ffffffffffffffffffffffffffffffffffffffff8916606089015295506113a3945050505050565b600060048410611b8857611b886119f3565b8382526040602083015261171f6040830184611879565b60008060408385031215611bb257600080fd5b825191506020830151611bc481611833565b80915050925092905056fea2646970667358221220ff465b4fcd2ac3dd3999404aad1ba616f7640120f113335b7bf4a1d96b7c4d2564736f6c63430008130033",
  "devdoc": {
    "errors": {
      "AlreadyRebalanceTaskExist()": [
        {
          "details": "Emitted when attempting to create a rebalance task while one already exists."
        }
      ],
      "NotAutomationCalled()": [
        {
          "details": "Emitted when a function is called by an unauthorized address."
        }
      ],
      "OnlyAccessableByOwner()": [
        {
          "details": "Signifies that the function is only accessible by the owner"
        }
      ]
    },
    "events": {
      "CancleRebalanceTaskFailed(address,bytes32)": {
        "details": "Emitted when a rebalance task cancellation fails.",
        "params": {
          "lp": "The address of the liquidity provider.",
          "taskId": "The unique identifier of the cancelled rebalance task."
        }
      },
      "CancleRebalanceTaskSucceeded(address,bytes32)": {
        "details": "Emitted when a rebalance task cancellation is successful.",
        "params": {
          "lp": "The address of the liquidity provider.",
          "taskId": "The unique identifier of the cancelled rebalance task."
        }
      },
      "CancleSettleTaskFailed(address,uint256,bytes32)": {
        "details": "Emitted when a settle task cancellation fails.",
        "params": {
          "lp": "The address of the liquidity provider.",
          "receiptId": "The unique identifier of the cancelled settle task.",
          "taskId": "The unique identifier of the cancelled settle task."
        }
      },
      "CancleSettleTaskSucceeded(address,uint256,bytes32)": {
        "details": "Emitted when a settle task cancellation is successful.",
        "params": {
          "lp": "The address of the liquidity provider.",
          "receiptId": "The unique identifier of the cancelled settle task.",
          "taskId": "The unique identifier of the cancelled settle task."
        }
      }
    },
    "kind": "dev",
    "methods": {
      "cancelRebalanceTask()": {
        "details": "Cancels the existing rebalance task for the specified LP (msg.sender)."
      },
      "cancelSettleTask(uint256)": {
        "details": "Cancels the existing settle task for a specific receipt ID.",
        "params": {
          "receiptId": "The unique identifier of the receipt associated with the task."
        }
      },
      "cancelTask(bytes32)": {
        "details": "Cancels the existing task for a specific task ID.",
        "params": {
          "taskId": "The unique identifier of the task."
        }
      },
      "createRebalanceTask()": {
        "details": "Initiates the creation of a rebalance task for the specified LP (msg.sender)."
      },
      "createSettleTask(uint256)": {
        "details": "Initiates the creation of a settle task for a specific receipt ID.",
        "params": {
          "receiptId": "The unique identifier of the receipt associated with the task."
        }
      },
      "getRebalanceTaskId(address)": {
        "details": "Gets the task ID of the existing rebalance task for the specified LP.",
        "params": {
          "lp": "The address of the liquidity provider."
        },
        "returns": {
          "_0": "The task ID of the rebalance task."
        }
      },
      "getSettleTaskId(address,uint256)": {
        "details": "Gets the task ID of the existing settle task for the specified LP and receipt ID.",
        "params": {
          "lp": "The address of the liquidity provider.",
          "receiptId": "The unique identifier of the receipt associated with the task."
        },
        "returns": {
          "_0": "The task ID of the settle task."
        }
      },
      "owner()": {
        "details": "Returns the address of the current owner."
      },
      "rebalance(address)": {
        "details": "Executes the rebalance task for the specified LP.",
        "params": {
          "lp": "The address of the liquidity provider."
        }
      },
      "renounceOwnership()": {
        "details": "Leaves the contract without owner. It will not be possible to call `onlyOwner` functions. Can only be called by the current owner. NOTE: Renouncing ownership will leave the contract without an owner, thereby disabling any functionality that is only available to the owner."
      },
      "resolveRebalance(address)": {
        "details": "Checks whether a rebalance task is needed for the specified LP.",
        "params": {
          "lp": "The address of the liquidity provider."
        },
        "returns": {
          "performData": "Additional data required for performing the task.",
          "upkeepNeeded": "Indicates whether upkeep is needed."
        }
      },
      "resolveSettle(address,uint256)": {
        "details": "Checks whether a settle task is needed for the specified LP and receipt ID.",
        "params": {
          "lp": "The address of the liquidity provider.",
          "receiptId": "The unique identifier of the receipt associated with the task."
        },
        "returns": {
          "performData": "Additional data required for performing the task.",
          "upkeepNeeded": "Indicates whether upkeep is needed."
        }
      },
      "settle(address,uint256)": {
        "details": "Executes the settle task for the specified LP and receipt ID.",
        "params": {
          "lp": "The address of the liquidity provider.",
          "receiptId": "The unique identifier of the receipt associated with the task."
        }
      },
      "transferOwnership(address)": {
        "details": "Transfers ownership of the contract to a new account (`newOwner`). Can only be called by the current owner."
      }
    },
    "version": 1
  },
  "userdoc": {
    "kind": "user",
    "methods": {},
    "version": 1
  },
  "storageLayout": {
    "storage": [
      {
        "astId": 3842,
        "contract": "contracts/lp/AutomateLP.sol:AutomateLP",
        "label": "_status",
        "offset": 0,
        "slot": "0",
        "type": "t_uint256"
      },
      {
        "astId": 3659,
        "contract": "contracts/lp/AutomateLP.sol:AutomateLP",
        "label": "_owner",
        "offset": 0,
        "slot": "1",
        "type": "t_address"
      },
      {
        "astId": 8702,
        "contract": "contracts/lp/AutomateLP.sol:AutomateLP",
        "label": "_taskMap",
        "offset": 0,
        "slot": "2",
        "type": "t_mapping(t_contract(IChromaticLP)12603,t_struct(LPTasks)8696_storage)"
      }
    ],
    "types": {
      "t_address": {
        "encoding": "inplace",
        "label": "address",
        "numberOfBytes": "20"
      },
      "t_bytes32": {
        "encoding": "inplace",
        "label": "bytes32",
        "numberOfBytes": "32"
      },
      "t_contract(IChromaticLP)12603": {
        "encoding": "inplace",
        "label": "contract IChromaticLP",
        "numberOfBytes": "20"
      },
      "t_mapping(t_contract(IChromaticLP)12603,t_struct(LPTasks)8696_storage)": {
        "encoding": "mapping",
        "key": "t_contract(IChromaticLP)12603",
        "label": "mapping(contract IChromaticLP => struct AutomateLP.LPTasks)",
        "numberOfBytes": "32",
        "value": "t_struct(LPTasks)8696_storage"
      },
      "t_mapping(t_uint256,t_bytes32)": {
        "encoding": "mapping",
        "key": "t_uint256",
        "label": "mapping(uint256 => bytes32)",
        "numberOfBytes": "32",
        "value": "t_bytes32"
      },
      "t_struct(LPTasks)8696_storage": {
        "encoding": "inplace",
        "label": "struct AutomateLP.LPTasks",
        "members": [
          {
            "astId": 8691,
            "contract": "contracts/lp/AutomateLP.sol:AutomateLP",
            "label": "rebalanceTaskId",
            "offset": 0,
            "slot": "0",
            "type": "t_bytes32"
          },
          {
            "astId": 8695,
            "contract": "contracts/lp/AutomateLP.sol:AutomateLP",
            "label": "settleTasks",
            "offset": 0,
            "slot": "1",
            "type": "t_mapping(t_uint256,t_bytes32)"
          }
        ],
        "numberOfBytes": "64"
      },
      "t_uint256": {
        "encoding": "inplace",
        "label": "uint256",
        "numberOfBytes": "32"
      }
    }
  }
}