{
  "address": "0xa747Db65F879f014fa2dbb4e75F815a6645DE6aa",
  "abi": [
    {
      "inputs": [
        {
          "internalType": "contract ChromaticLPLogic",
          "name": "lpLogic",
          "type": "address"
        },
        {
          "components": [
            {
              "internalType": "string",
              "name": "lpName",
              "type": "string"
            },
            {
              "internalType": "string",
              "name": "tag",
              "type": "string"
            }
          ],
          "internalType": "struct ChromaticLPStorageCore.LPMeta",
          "name": "lpMeta",
          "type": "tuple"
        },
        {
          "components": [
            {
              "internalType": "contract IChromaticMarket",
              "name": "market",
              "type": "address"
            },
            {
              "internalType": "uint16",
              "name": "utilizationTargetBPS",
              "type": "uint16"
            },
            {
              "internalType": "uint16",
              "name": "rebalanceBPS",
              "type": "uint16"
            },
            {
              "internalType": "uint256",
              "name": "rebalanceCheckingInterval",
              "type": "uint256"
            },
            {
              "internalType": "uint256",
              "name": "automationFeeReserved",
              "type": "uint256"
            },
            {
              "internalType": "uint256",
              "name": "minHoldingValueToRebalance",
              "type": "uint256"
            }
          ],
          "internalType": "struct ChromaticLPStorageCore.ConfigParam",
          "name": "config",
          "type": "tuple"
        },
        {
          "internalType": "int16[]",
          "name": "_feeRates",
          "type": "int16[]"
        },
        {
          "internalType": "uint16[]",
          "name": "_distributionRates",
          "type": "uint16[]"
        },
        {
          "internalType": "contract IAutomateLP",
          "name": "automate",
          "type": "address"
        }
      ],
      "stateMutability": "nonpayable",
      "type": "constructor"
    },
    {
      "inputs": [],
      "name": "AddLiquidityNotAllowed",
      "type": "error"
    },
    {
      "inputs": [],
      "name": "AddLiquiditySuspended",
      "type": "error"
    },
    {
      "inputs": [],
      "name": "InvalidMinHoldingValueToRebalance",
      "type": "error"
    },
    {
      "inputs": [],
      "name": "InvalidRebalanceBPS",
      "type": "error"
    },
    {
      "inputs": [
        {
          "internalType": "uint16",
          "name": "targetBPS",
          "type": "uint16"
        }
      ],
      "name": "InvalidUtilizationTarget",
      "type": "error"
    },
    {
      "inputs": [],
      "name": "NotAutomationCalled",
      "type": "error"
    },
    {
      "inputs": [],
      "name": "NotImplementedInLogicContract",
      "type": "error"
    },
    {
      "inputs": [],
      "name": "NotKeeperCalled",
      "type": "error"
    },
    {
      "inputs": [],
      "name": "NotMarket",
      "type": "error"
    },
    {
      "inputs": [
        {
          "internalType": "uint256",
          "name": "feeLength",
          "type": "uint256"
        },
        {
          "internalType": "uint256",
          "name": "distributionLength",
          "type": "uint256"
        }
      ],
      "name": "NotMatchDistributionLength",
      "type": "error"
    },
    {
      "inputs": [],
      "name": "NotOwner",
      "type": "error"
    },
    {
      "inputs": [],
      "name": "OnlyAccessableByOwner",
      "type": "error"
    },
    {
      "inputs": [],
      "name": "OnlyBatchCall",
      "type": "error"
    },
    {
      "inputs": [],
      "name": "RemoveLiquiditySuspended",
      "type": "error"
    },
    {
      "inputs": [],
      "name": "TooSmallAmountToAddLiquidity",
      "type": "error"
    },
    {
      "inputs": [],
      "name": "UnknownLPAction",
      "type": "error"
    },
    {
      "inputs": [],
      "name": "ZeroAddressError",
      "type": "error"
    },
    {
      "anonymous": false,
      "inputs": [
        {
          "indexed": true,
          "internalType": "uint256",
          "name": "receiptId",
          "type": "uint256"
        },
        {
          "indexed": true,
          "internalType": "address",
          "name": "provider",
          "type": "address"
        },
        {
          "indexed": true,
          "internalType": "address",
          "name": "recipient",
          "type": "address"
        },
        {
          "indexed": false,
          "internalType": "uint256",
          "name": "oracleVersion",
          "type": "uint256"
        },
        {
          "indexed": false,
          "internalType": "uint256",
          "name": "amount",
          "type": "uint256"
        }
      ],
      "name": "AddLiquidity",
      "type": "event"
    },
    {
      "anonymous": false,
      "inputs": [
        {
          "indexed": true,
          "internalType": "uint256",
          "name": "receiptId",
          "type": "uint256"
        },
        {
          "indexed": true,
          "internalType": "address",
          "name": "provider",
          "type": "address"
        },
        {
          "indexed": true,
          "internalType": "address",
          "name": "recipient",
          "type": "address"
        },
        {
          "indexed": false,
          "internalType": "uint256",
          "name": "settlementAdded",
          "type": "uint256"
        },
        {
          "indexed": false,
          "internalType": "uint256",
          "name": "lpTokenAmount",
          "type": "uint256"
        },
        {
          "indexed": false,
          "internalType": "uint256",
          "name": "keeperFee",
          "type": "uint256"
        }
      ],
      "name": "AddLiquiditySettled",
      "type": "event"
    },
    {
      "anonymous": false,
      "inputs": [
        {
          "indexed": true,
          "internalType": "address",
          "name": "owner",
          "type": "address"
        },
        {
          "indexed": true,
          "internalType": "address",
          "name": "spender",
          "type": "address"
        },
        {
          "indexed": false,
          "internalType": "uint256",
          "name": "value",
          "type": "uint256"
        }
      ],
      "name": "Approval",
      "type": "event"
    },
    {
      "anonymous": false,
      "inputs": [
        {
          "indexed": true,
          "internalType": "address",
          "name": "previousOwner",
          "type": "address"
        },
        {
          "indexed": true,
          "internalType": "address",
          "name": "newOwner",
          "type": "address"
        }
      ],
      "name": "OwnershipTransferred",
      "type": "event"
    },
    {
      "anonymous": false,
      "inputs": [
        {
          "indexed": true,
          "internalType": "uint256",
          "name": "receiptId",
          "type": "uint256"
        },
        {
          "indexed": false,
          "internalType": "uint256",
          "name": "oracleVersion",
          "type": "uint256"
        },
        {
          "indexed": false,
          "internalType": "uint256",
          "name": "amount",
          "type": "uint256"
        },
        {
          "indexed": false,
          "internalType": "uint256",
          "name": "currentUtility",
          "type": "uint256"
        }
      ],
      "name": "RebalanceAddLiquidity",
      "type": "event"
    },
    {
      "anonymous": false,
      "inputs": [
        {
          "indexed": true,
          "internalType": "uint256",
          "name": "receiptId",
          "type": "uint256"
        },
        {
          "indexed": false,
          "internalType": "uint256",
          "name": "oracleVersion",
          "type": "uint256"
        },
        {
          "indexed": false,
          "internalType": "uint256",
          "name": "currentUtility",
          "type": "uint256"
        }
      ],
      "name": "RebalanceRemoveLiquidity",
      "type": "event"
    },
    {
      "anonymous": false,
      "inputs": [
        {
          "indexed": true,
          "internalType": "uint256",
          "name": "receiptId",
          "type": "uint256"
        },
        {
          "indexed": false,
          "internalType": "uint256",
          "name": "keeperFee",
          "type": "uint256"
        }
      ],
      "name": "RebalanceSettled",
      "type": "event"
    },
    {
      "anonymous": false,
      "inputs": [
        {
          "indexed": true,
          "internalType": "uint256",
          "name": "receiptId",
          "type": "uint256"
        },
        {
          "indexed": true,
          "internalType": "address",
          "name": "provider",
          "type": "address"
        },
        {
          "indexed": true,
          "internalType": "address",
          "name": "recipient",
          "type": "address"
        },
        {
          "indexed": false,
          "internalType": "uint256",
          "name": "oracleVersion",
          "type": "uint256"
        },
        {
          "indexed": false,
          "internalType": "uint256",
          "name": "lpTokenAmount",
          "type": "uint256"
        }
      ],
      "name": "RemoveLiquidity",
      "type": "event"
    },
    {
      "anonymous": false,
      "inputs": [
        {
          "indexed": true,
          "internalType": "uint256",
          "name": "receiptId",
          "type": "uint256"
        },
        {
          "indexed": true,
          "internalType": "address",
          "name": "provider",
          "type": "address"
        },
        {
          "indexed": true,
          "internalType": "address",
          "name": "recipient",
          "type": "address"
        },
        {
          "indexed": false,
          "internalType": "uint256",
          "name": "burningAmount",
          "type": "uint256"
        },
        {
          "indexed": false,
          "internalType": "uint256",
          "name": "withdrawnSettlementAmount",
          "type": "uint256"
        },
        {
          "indexed": false,
          "internalType": "uint256",
          "name": "refundedAmount",
          "type": "uint256"
        },
        {
          "indexed": false,
          "internalType": "uint256",
          "name": "keeperFee",
          "type": "uint256"
        }
      ],
      "name": "RemoveLiquiditySettled",
      "type": "event"
    },
    {
      "anonymous": false,
      "inputs": [
        {
          "indexed": false,
          "internalType": "address",
          "name": "automate",
          "type": "address"
        }
      ],
      "name": "SetAutomateLP",
      "type": "event"
    },
    {
      "anonymous": false,
      "inputs": [
        {
          "indexed": false,
          "internalType": "uint256",
          "name": "newValue",
          "type": "uint256"
        }
      ],
      "name": "SetAutomationFeeReserved",
      "type": "event"
    },
    {
      "anonymous": false,
      "inputs": [
        {
          "indexed": false,
          "internalType": "string",
          "name": "name",
          "type": "string"
        }
      ],
      "name": "SetLpName",
      "type": "event"
    },
    {
      "anonymous": false,
      "inputs": [
        {
          "indexed": false,
          "internalType": "string",
          "name": "tag",
          "type": "string"
        }
      ],
      "name": "SetLpTag",
      "type": "event"
    },
    {
      "anonymous": false,
      "inputs": [
        {
          "indexed": false,
          "internalType": "uint256",
          "name": "newValue",
          "type": "uint256"
        }
      ],
      "name": "SetMinHoldingValueToRebalance",
      "type": "event"
    },
    {
      "anonymous": false,
      "inputs": [
        {
          "indexed": false,
          "internalType": "bool",
          "name": "mode",
          "type": "bool"
        }
      ],
      "name": "SetPrivateMode",
      "type": "event"
    },
    {
      "anonymous": false,
      "inputs": [
        {
          "indexed": false,
          "internalType": "uint8",
          "name": "mode",
          "type": "uint8"
        }
      ],
      "name": "SetSuspendMode",
      "type": "event"
    },
    {
      "anonymous": false,
      "inputs": [
        {
          "indexed": true,
          "internalType": "address",
          "name": "from",
          "type": "address"
        },
        {
          "indexed": true,
          "internalType": "address",
          "name": "to",
          "type": "address"
        },
        {
          "indexed": false,
          "internalType": "uint256",
          "name": "value",
          "type": "uint256"
        }
      ],
      "name": "Transfer",
      "type": "event"
    },
    {
      "stateMutability": "payable",
      "type": "fallback"
    },
    {
      "inputs": [],
      "name": "CHROMATIC_LP_LOGIC",
      "outputs": [
        {
          "internalType": "address",
          "name": "",
          "type": "address"
        }
      ],
      "stateMutability": "view",
      "type": "function"
    },
    {
      "inputs": [
        {
          "internalType": "uint256",
          "name": "amount",
          "type": "uint256"
        },
        {
          "internalType": "address",
          "name": "",
          "type": "address"
        }
      ],
      "name": "addLiquidity",
      "outputs": [
        {
          "components": [
            {
              "internalType": "uint256",
              "name": "id",
              "type": "uint256"
            },
            {
              "internalType": "address",
              "name": "provider",
              "type": "address"
            },
            {
              "internalType": "address",
              "name": "recipient",
              "type": "address"
            },
            {
              "internalType": "uint256",
              "name": "oracleVersion",
              "type": "uint256"
            },
            {
              "internalType": "uint256",
              "name": "amount",
              "type": "uint256"
            },
            {
              "internalType": "uint256",
              "name": "pendingLiquidity",
              "type": "uint256"
            },
            {
              "internalType": "enum ChromaticLPAction",
              "name": "action",
              "type": "uint8"
            },
            {
              "internalType": "bool",
              "name": "needSettle",
              "type": "bool"
            }
          ],
          "internalType": "struct ChromaticLPReceipt",
          "name": "",
          "type": "tuple"
        }
      ],
      "stateMutability": "nonpayable",
      "type": "function"
    },
    {
      "inputs": [
        {
          "internalType": "address",
          "name": "",
          "type": "address"
        },
        {
          "internalType": "address",
          "name": "",
          "type": "address"
        },
        {
          "internalType": "bytes",
          "name": "",
          "type": "bytes"
        }
      ],
      "name": "addLiquidityBatchCallback",
      "outputs": [],
      "stateMutability": "nonpayable",
      "type": "function"
    },
    {
      "inputs": [
        {
          "internalType": "address",
          "name": "",
          "type": "address"
        },
        {
          "internalType": "address",
          "name": "",
          "type": "address"
        },
        {
          "internalType": "bytes",
          "name": "",
          "type": "bytes"
        }
      ],
      "name": "addLiquidityCallback",
      "outputs": [],
      "stateMutability": "pure",
      "type": "function"
    },
    {
      "inputs": [
        {
          "internalType": "address",
          "name": "owner",
          "type": "address"
        },
        {
          "internalType": "address",
          "name": "spender",
          "type": "address"
        }
      ],
      "name": "allowance",
      "outputs": [
        {
          "internalType": "uint256",
          "name": "",
          "type": "uint256"
        }
      ],
      "stateMutability": "view",
      "type": "function"
    },
    {
      "inputs": [],
      "name": "allowedProviders",
      "outputs": [
        {
          "internalType": "address[]",
          "name": "",
          "type": "address[]"
        }
      ],
      "stateMutability": "view",
      "type": "function"
    },
    {
      "inputs": [
        {
          "internalType": "address",
          "name": "spender",
          "type": "address"
        },
        {
          "internalType": "uint256",
          "name": "amount",
          "type": "uint256"
        }
      ],
      "name": "approve",
      "outputs": [
        {
          "internalType": "bool",
          "name": "",
          "type": "bool"
        }
      ],
      "stateMutability": "nonpayable",
      "type": "function"
    },
    {
      "inputs": [],
      "name": "automateLP",
      "outputs": [
        {
          "internalType": "contract IAutomateLP",
          "name": "",
          "type": "address"
        }
      ],
      "stateMutability": "view",
      "type": "function"
    },
    {
      "inputs": [],
      "name": "automationFeeReserved",
      "outputs": [
        {
          "internalType": "uint256",
          "name": "",
          "type": "uint256"
        }
      ],
      "stateMutability": "view",
      "type": "function"
    },
    {
      "inputs": [
        {
          "internalType": "address",
          "name": "account",
          "type": "address"
        }
      ],
      "name": "balanceOf",
      "outputs": [
        {
          "internalType": "uint256",
          "name": "",
          "type": "uint256"
        }
      ],
      "stateMutability": "view",
      "type": "function"
    },
    {
      "inputs": [],
      "name": "cancelRebalanceTask",
      "outputs": [],
      "stateMutability": "nonpayable",
      "type": "function"
    },
    {
      "inputs": [
        {
          "internalType": "uint256",
          "name": "",
          "type": "uint256"
        }
      ],
      "name": "cancelSettleTask",
      "outputs": [],
      "stateMutability": "nonpayable",
      "type": "function"
    },
    {
      "inputs": [],
      "name": "checkRebalance",
      "outputs": [
        {
          "internalType": "bool",
          "name": "",
          "type": "bool"
        }
      ],
      "stateMutability": "view",
      "type": "function"
    },
    {
      "inputs": [
        {
          "internalType": "uint256",
          "name": "receiptId",
          "type": "uint256"
        }
      ],
      "name": "checkSettle",
      "outputs": [
        {
          "internalType": "bool",
          "name": "",
          "type": "bool"
        }
      ],
      "stateMutability": "view",
      "type": "function"
    },
    {
      "inputs": [
        {
          "internalType": "uint256[]",
          "name": "",
          "type": "uint256[]"
        },
        {
          "internalType": "int16[]",
          "name": "",
          "type": "int16[]"
        },
        {
          "internalType": "uint256[]",
          "name": "",
          "type": "uint256[]"
        },
        {
          "internalType": "uint256[]",
          "name": "",
          "type": "uint256[]"
        },
        {
          "internalType": "bytes",
          "name": "",
          "type": "bytes"
        }
      ],
      "name": "claimLiquidityBatchCallback",
      "outputs": [],
      "stateMutability": "nonpayable",
      "type": "function"
    },
    {
      "inputs": [
        {
          "internalType": "uint256",
          "name": "",
          "type": "uint256"
        },
        {
          "internalType": "int16",
          "name": "",
          "type": "int16"
        },
        {
          "internalType": "uint256",
          "name": "",
          "type": "uint256"
        },
        {
          "internalType": "uint256",
          "name": "",
          "type": "uint256"
        },
        {
          "internalType": "bytes",
          "name": "",
          "type": "bytes"
        }
      ],
      "name": "claimLiquidityCallback",
      "outputs": [],
      "stateMutability": "pure",
      "type": "function"
    },
    {
      "inputs": [],
      "name": "clbTokenBalances",
      "outputs": [
        {
          "internalType": "uint256[]",
          "name": "_clbTokenBalances",
          "type": "uint256[]"
        }
      ],
      "stateMutability": "view",
      "type": "function"
    },
    {
      "inputs": [],
      "name": "clbTokenIds",
      "outputs": [
        {
          "internalType": "uint256[]",
          "name": "",
          "type": "uint256[]"
        }
      ],
      "stateMutability": "view",
      "type": "function"
    },
    {
      "inputs": [],
      "name": "clbTokenValues",
      "outputs": [
        {
          "internalType": "uint256[]",
          "name": "_clbTokenBalances",
          "type": "uint256[]"
        }
      ],
      "stateMutability": "view",
      "type": "function"
    },
    {
      "inputs": [],
      "name": "createRebalanceTask",
      "outputs": [],
      "stateMutability": "nonpayable",
      "type": "function"
    },
    {
      "inputs": [],
      "name": "decimals",
      "outputs": [
        {
          "internalType": "uint8",
          "name": "",
          "type": "uint8"
        }
      ],
      "stateMutability": "view",
      "type": "function"
    },
    {
      "inputs": [
        {
          "internalType": "address",
          "name": "spender",
          "type": "address"
        },
        {
          "internalType": "uint256",
          "name": "subtractedValue",
          "type": "uint256"
        }
      ],
      "name": "decreaseAllowance",
      "outputs": [
        {
          "internalType": "bool",
          "name": "",
          "type": "bool"
        }
      ],
      "stateMutability": "nonpayable",
      "type": "function"
    },
    {
      "inputs": [],
      "name": "distributionRates",
      "outputs": [
        {
          "internalType": "uint16[]",
          "name": "rates",
          "type": "uint16[]"
        }
      ],
      "stateMutability": "view",
      "type": "function"
    },
    {
      "inputs": [],
      "name": "estimateMinAddLiquidityAmount",
      "outputs": [
        {
          "internalType": "uint256",
          "name": "",
          "type": "uint256"
        }
      ],
      "stateMutability": "view",
      "type": "function"
    },
    {
      "inputs": [],
      "name": "estimateMinRemoveLiquidityAmount",
      "outputs": [
        {
          "internalType": "uint256",
          "name": "",
          "type": "uint256"
        }
      ],
      "stateMutability": "view",
      "type": "function"
    },
    {
      "inputs": [],
      "name": "feeRates",
      "outputs": [
        {
          "internalType": "int16[]",
          "name": "",
          "type": "int16[]"
        }
      ],
      "stateMutability": "view",
      "type": "function"
    },
    {
      "inputs": [
        {
          "internalType": "uint256",
          "name": "receiptId",
          "type": "uint256"
        }
      ],
      "name": "getReceipt",
      "outputs": [
        {
          "components": [
            {
              "internalType": "uint256",
              "name": "id",
              "type": "uint256"
            },
            {
              "internalType": "address",
              "name": "provider",
              "type": "address"
            },
            {
              "internalType": "address",
              "name": "recipient",
              "type": "address"
            },
            {
              "internalType": "uint256",
              "name": "oracleVersion",
              "type": "uint256"
            },
            {
              "internalType": "uint256",
              "name": "amount",
              "type": "uint256"
            },
            {
              "internalType": "uint256",
              "name": "pendingLiquidity",
              "type": "uint256"
            },
            {
              "internalType": "enum ChromaticLPAction",
              "name": "action",
              "type": "uint8"
            },
            {
              "internalType": "bool",
              "name": "needSettle",
              "type": "bool"
            }
          ],
          "internalType": "struct ChromaticLPReceipt",
          "name": "",
          "type": "tuple"
        }
      ],
      "stateMutability": "view",
      "type": "function"
    },
    {
      "inputs": [
        {
          "internalType": "address",
          "name": "owner_",
          "type": "address"
        }
      ],
      "name": "getReceiptIdsOf",
      "outputs": [
        {
          "internalType": "uint256[]",
          "name": "receiptIds",
          "type": "uint256[]"
        }
      ],
      "stateMutability": "view",
      "type": "function"
    },
    {
      "inputs": [],
      "name": "holdingClbValue",
      "outputs": [
        {
          "internalType": "uint256",
          "name": "value",
          "type": "uint256"
        }
      ],
      "stateMutability": "view",
      "type": "function"
    },
    {
      "inputs": [],
      "name": "holdingValue",
      "outputs": [
        {
          "internalType": "uint256",
          "name": "",
          "type": "uint256"
        }
      ],
      "stateMutability": "view",
      "type": "function"
    },
    {
      "inputs": [
        {
          "internalType": "address",
          "name": "spender",
          "type": "address"
        },
        {
          "internalType": "uint256",
          "name": "addedValue",
          "type": "uint256"
        }
      ],
      "name": "increaseAllowance",
      "outputs": [
        {
          "internalType": "bool",
          "name": "",
          "type": "bool"
        }
      ],
      "stateMutability": "nonpayable",
      "type": "function"
    },
    {
      "inputs": [
        {
          "internalType": "address",
          "name": "provider",
          "type": "address"
        }
      ],
      "name": "isAllowedProvider",
      "outputs": [
        {
          "internalType": "bool",
          "name": "",
          "type": "bool"
        }
      ],
      "stateMutability": "view",
      "type": "function"
    },
    {
      "inputs": [],
      "name": "longShortInfo",
      "outputs": [
        {
          "internalType": "int8",
          "name": "",
          "type": "int8"
        }
      ],
      "stateMutability": "view",
      "type": "function"
    },
    {
      "inputs": [],
      "name": "lpName",
      "outputs": [
        {
          "internalType": "string",
          "name": "",
          "type": "string"
        }
      ],
      "stateMutability": "view",
      "type": "function"
    },
    {
      "inputs": [],
      "name": "lpTag",
      "outputs": [
        {
          "internalType": "string",
          "name": "",
          "type": "string"
        }
      ],
      "stateMutability": "view",
      "type": "function"
    },
    {
      "inputs": [],
      "name": "lpToken",
      "outputs": [
        {
          "internalType": "address",
          "name": "",
          "type": "address"
        }
      ],
      "stateMutability": "view",
      "type": "function"
    },
    {
      "inputs": [],
      "name": "market",
      "outputs": [
        {
          "internalType": "address",
          "name": "",
          "type": "address"
        }
      ],
      "stateMutability": "view",
      "type": "function"
    },
    {
      "inputs": [],
      "name": "minHoldingValueToRebalance",
      "outputs": [
        {
          "internalType": "uint256",
          "name": "",
          "type": "uint256"
        }
      ],
      "stateMutability": "view",
      "type": "function"
    },
    {
      "inputs": [],
      "name": "name",
      "outputs": [
        {
          "internalType": "string",
          "name": "",
          "type": "string"
        }
      ],
      "stateMutability": "view",
      "type": "function"
    },
    {
      "inputs": [
        {
          "internalType": "address",
          "name": "",
          "type": "address"
        },
        {
          "internalType": "address",
          "name": "",
          "type": "address"
        },
        {
          "internalType": "uint256[]",
          "name": "",
          "type": "uint256[]"
        },
        {
          "internalType": "uint256[]",
          "name": "",
          "type": "uint256[]"
        },
        {
          "internalType": "bytes",
          "name": "",
          "type": "bytes"
        }
      ],
      "name": "onERC1155BatchReceived",
      "outputs": [
        {
          "internalType": "bytes4",
          "name": "",
          "type": "bytes4"
        }
      ],
      "stateMutability": "pure",
      "type": "function"
    },
    {
      "inputs": [
        {
          "internalType": "address",
          "name": "",
          "type": "address"
        },
        {
          "internalType": "address",
          "name": "",
          "type": "address"
        },
        {
          "internalType": "uint256",
          "name": "",
          "type": "uint256"
        },
        {
          "internalType": "uint256",
          "name": "",
          "type": "uint256"
        },
        {
          "internalType": "bytes",
          "name": "",
          "type": "bytes"
        }
      ],
      "name": "onERC1155Received",
      "outputs": [
        {
          "internalType": "bytes4",
          "name": "",
          "type": "bytes4"
        }
      ],
      "stateMutability": "pure",
      "type": "function"
    },
    {
      "inputs": [],
      "name": "owner",
      "outputs": [
        {
          "internalType": "address",
          "name": "",
          "type": "address"
        }
      ],
      "stateMutability": "view",
      "type": "function"
    },
    {
      "inputs": [],
      "name": "pendingClbValue",
      "outputs": [
        {
          "internalType": "uint256",
          "name": "value",
          "type": "uint256"
        }
      ],
      "stateMutability": "view",
      "type": "function"
    },
    {
      "inputs": [],
      "name": "pendingRemoveClbBalances",
      "outputs": [
        {
          "internalType": "uint256[]",
          "name": "",
          "type": "uint256[]"
        }
      ],
      "stateMutability": "view",
      "type": "function"
    },
    {
      "inputs": [],
      "name": "pendingValue",
      "outputs": [
        {
          "internalType": "uint256",
          "name": "",
          "type": "uint256"
        }
      ],
      "stateMutability": "view",
      "type": "function"
    },
    {
      "inputs": [],
      "name": "privateMode",
      "outputs": [
        {
          "internalType": "bool",
          "name": "",
          "type": "bool"
        }
      ],
      "stateMutability": "view",
      "type": "function"
    },
    {
      "inputs": [
        {
          "internalType": "address",
          "name": "",
          "type": "address"
        },
        {
          "internalType": "uint256",
          "name": "",
          "type": "uint256"
        }
      ],
      "name": "rebalance",
      "outputs": [],
      "stateMutability": "nonpayable",
      "type": "function"
    },
    {
      "inputs": [],
      "name": "rebalanceBPS",
      "outputs": [
        {
          "internalType": "uint256",
          "name": "",
          "type": "uint256"
        }
      ],
      "stateMutability": "view",
      "type": "function"
    },
    {
      "inputs": [],
      "name": "rebalanceCheckingInterval",
      "outputs": [
        {
          "internalType": "uint256",
          "name": "",
          "type": "uint256"
        }
      ],
      "stateMutability": "view",
      "type": "function"
    },
    {
      "inputs": [
        {
          "internalType": "address",
          "name": "provider",
          "type": "address"
        }
      ],
      "name": "registerProvider",
      "outputs": [],
      "stateMutability": "nonpayable",
      "type": "function"
    },
    {
      "inputs": [
        {
          "internalType": "uint256",
          "name": "",
          "type": "uint256"
        },
        {
          "internalType": "address",
          "name": "",
          "type": "address"
        }
      ],
      "name": "removeLiquidity",
      "outputs": [
        {
          "components": [
            {
              "internalType": "uint256",
              "name": "id",
              "type": "uint256"
            },
            {
              "internalType": "address",
              "name": "provider",
              "type": "address"
            },
            {
              "internalType": "address",
              "name": "recipient",
              "type": "address"
            },
            {
              "internalType": "uint256",
              "name": "oracleVersion",
              "type": "uint256"
            },
            {
              "internalType": "uint256",
              "name": "amount",
              "type": "uint256"
            },
            {
              "internalType": "uint256",
              "name": "pendingLiquidity",
              "type": "uint256"
            },
            {
              "internalType": "enum ChromaticLPAction",
              "name": "action",
              "type": "uint8"
            },
            {
              "internalType": "bool",
              "name": "needSettle",
              "type": "bool"
            }
          ],
          "internalType": "struct ChromaticLPReceipt",
          "name": "",
          "type": "tuple"
        }
      ],
      "stateMutability": "nonpayable",
      "type": "function"
    },
    {
      "inputs": [
        {
          "internalType": "address",
          "name": "",
          "type": "address"
        },
        {
          "internalType": "uint256[]",
          "name": "",
          "type": "uint256[]"
        },
        {
          "internalType": "bytes",
          "name": "",
          "type": "bytes"
        }
      ],
      "name": "removeLiquidityBatchCallback",
      "outputs": [],
      "stateMutability": "nonpayable",
      "type": "function"
    },
    {
      "inputs": [
        {
          "internalType": "address",
          "name": "",
          "type": "address"
        },
        {
          "internalType": "uint256",
          "name": "",
          "type": "uint256"
        },
        {
          "internalType": "bytes",
          "name": "",
          "type": "bytes"
        }
      ],
      "name": "removeLiquidityCallback",
      "outputs": [],
      "stateMutability": "pure",
      "type": "function"
    },
    {
      "inputs": [
        {
          "internalType": "contract IAutomateLP",
          "name": "automate",
          "type": "address"
        }
      ],
      "name": "setAutomateLP",
      "outputs": [],
      "stateMutability": "nonpayable",
      "type": "function"
    },
    {
      "inputs": [
        {
          "internalType": "uint256",
          "name": "_automationFeeReserved",
          "type": "uint256"
        }
      ],
      "name": "setAutomationFeeReserved",
      "outputs": [],
      "stateMutability": "nonpayable",
      "type": "function"
    },
    {
      "inputs": [
        {
          "internalType": "string",
          "name": "newName",
          "type": "string"
        }
      ],
      "name": "setLpName",
      "outputs": [],
      "stateMutability": "nonpayable",
      "type": "function"
    },
    {
      "inputs": [
        {
          "internalType": "string",
          "name": "tag",
          "type": "string"
        }
      ],
      "name": "setLpTag",
      "outputs": [],
      "stateMutability": "nonpayable",
      "type": "function"
    },
    {
      "inputs": [
        {
          "internalType": "uint256",
          "name": "_minHoldingValueToRebalance",
          "type": "uint256"
        }
      ],
      "name": "setMinHoldingValueToRebalance",
      "outputs": [],
      "stateMutability": "nonpayable",
      "type": "function"
    },
    {
      "inputs": [
        {
          "internalType": "bool",
          "name": "isPrivate",
          "type": "bool"
        }
      ],
      "name": "setPrivateMode",
      "outputs": [],
      "stateMutability": "nonpayable",
      "type": "function"
    },
    {
      "inputs": [
        {
          "internalType": "uint8",
          "name": "mode",
          "type": "uint8"
        }
      ],
      "name": "setSuspendMode",
      "outputs": [],
      "stateMutability": "nonpayable",
      "type": "function"
    },
    {
      "inputs": [
        {
          "internalType": "uint256",
          "name": "",
          "type": "uint256"
        }
      ],
      "name": "settle",
      "outputs": [
        {
          "internalType": "bool",
          "name": "",
          "type": "bool"
        }
      ],
      "stateMutability": "nonpayable",
      "type": "function"
    },
    {
      "inputs": [
        {
          "internalType": "uint256",
          "name": "receiptId",
          "type": "uint256"
        },
        {
          "internalType": "address",
          "name": "",
          "type": "address"
        },
        {
          "internalType": "uint256",
          "name": "",
          "type": "uint256"
        }
      ],
      "name": "settleTask",
      "outputs": [],
      "stateMutability": "nonpayable",
      "type": "function"
    },
    {
      "inputs": [],
      "name": "settlementToken",
      "outputs": [
        {
          "internalType": "address",
          "name": "",
          "type": "address"
        }
      ],
      "stateMutability": "view",
      "type": "function"
    },
    {
      "inputs": [
        {
          "internalType": "bytes4",
          "name": "interfaceID",
          "type": "bytes4"
        }
      ],
      "name": "supportsInterface",
      "outputs": [
        {
          "internalType": "bool",
          "name": "",
          "type": "bool"
        }
      ],
      "stateMutability": "pure",
      "type": "function"
    },
    {
      "inputs": [],
      "name": "suspendMode",
      "outputs": [
        {
          "internalType": "uint8",
          "name": "",
          "type": "uint8"
        }
      ],
      "stateMutability": "view",
      "type": "function"
    },
    {
      "inputs": [],
      "name": "symbol",
      "outputs": [
        {
          "internalType": "string",
          "name": "",
          "type": "string"
        }
      ],
      "stateMutability": "view",
      "type": "function"
    },
    {
      "inputs": [],
      "name": "totalClbValue",
      "outputs": [
        {
          "internalType": "uint256",
          "name": "value",
          "type": "uint256"
        }
      ],
      "stateMutability": "view",
      "type": "function"
    },
    {
      "inputs": [],
      "name": "totalSupply",
      "outputs": [
        {
          "internalType": "uint256",
          "name": "",
          "type": "uint256"
        }
      ],
      "stateMutability": "view",
      "type": "function"
    },
    {
      "inputs": [],
      "name": "totalValue",
      "outputs": [
        {
          "internalType": "uint256",
          "name": "value",
          "type": "uint256"
        }
      ],
      "stateMutability": "view",
      "type": "function"
    },
    {
      "inputs": [
        {
          "internalType": "address",
          "name": "to",
          "type": "address"
        },
        {
          "internalType": "uint256",
          "name": "amount",
          "type": "uint256"
        }
      ],
      "name": "transfer",
      "outputs": [
        {
          "internalType": "bool",
          "name": "",
          "type": "bool"
        }
      ],
      "stateMutability": "nonpayable",
      "type": "function"
    },
    {
      "inputs": [
        {
          "internalType": "address",
          "name": "from",
          "type": "address"
        },
        {
          "internalType": "address",
          "name": "to",
          "type": "address"
        },
        {
          "internalType": "uint256",
          "name": "amount",
          "type": "uint256"
        }
      ],
      "name": "transferFrom",
      "outputs": [
        {
          "internalType": "bool",
          "name": "",
          "type": "bool"
        }
      ],
      "stateMutability": "nonpayable",
      "type": "function"
    },
    {
      "inputs": [
        {
          "internalType": "address",
          "name": "newOwner",
          "type": "address"
        }
      ],
      "name": "transferOwnership",
      "outputs": [],
      "stateMutability": "nonpayable",
      "type": "function"
    },
    {
      "inputs": [
        {
          "internalType": "address",
          "name": "provider",
          "type": "address"
        }
      ],
      "name": "unregisterProvider",
      "outputs": [],
      "stateMutability": "nonpayable",
      "type": "function"
    },
    {
      "inputs": [],
      "name": "utilization",
      "outputs": [
        {
          "internalType": "uint16",
          "name": "currentUtility",
          "type": "uint16"
        }
      ],
      "stateMutability": "view",
      "type": "function"
    },
    {
      "inputs": [],
      "name": "utilizationTargetBPS",
      "outputs": [
        {
          "internalType": "uint256",
          "name": "",
          "type": "uint256"
        }
      ],
      "stateMutability": "view",
      "type": "function"
    },
    {
      "inputs": [],
      "name": "valueInfo",
      "outputs": [
        {
          "components": [
            {
              "internalType": "uint256",
              "name": "total",
              "type": "uint256"
            },
            {
              "internalType": "uint256",
              "name": "holding",
              "type": "uint256"
            },
            {
              "internalType": "uint256",
              "name": "pending",
              "type": "uint256"
            },
            {
              "internalType": "uint256",
              "name": "holdingClb",
              "type": "uint256"
            },
            {
              "internalType": "uint256",
              "name": "pendingClb",
              "type": "uint256"
            }
          ],
          "internalType": "struct ValueInfo",
          "name": "info",
          "type": "tuple"
        }
      ],
      "stateMutability": "view",
      "type": "function"
    },
    {
      "inputs": [
        {
          "internalType": "uint256[]",
          "name": "",
          "type": "uint256[]"
        },
        {
          "internalType": "int16[]",
          "name": "",
          "type": "int16[]"
        },
        {
          "internalType": "uint256[]",
          "name": "",
          "type": "uint256[]"
        },
        {
          "internalType": "uint256[]",
          "name": "",
          "type": "uint256[]"
        },
        {
          "internalType": "bytes",
          "name": "",
          "type": "bytes"
        }
      ],
      "name": "withdrawLiquidityBatchCallback",
      "outputs": [],
      "stateMutability": "nonpayable",
      "type": "function"
    },
    {
      "inputs": [
        {
          "internalType": "uint256",
          "name": "",
          "type": "uint256"
        },
        {
          "internalType": "int16",
          "name": "",
          "type": "int16"
        },
        {
          "internalType": "uint256",
          "name": "",
          "type": "uint256"
        },
        {
          "internalType": "uint256",
          "name": "",
          "type": "uint256"
        },
        {
          "internalType": "bytes",
          "name": "",
          "type": "bytes"
        }
      ],
      "name": "withdrawLiquidityCallback",
      "outputs": [],
      "stateMutability": "pure",
      "type": "function"
    },
    {
      "stateMutability": "payable",
      "type": "receive"
    }
  ],
  "transactionHash": "0x4e98cdb3a0de6c106a66536e31a2195c3d051e948dfc340f357cf3713baf7c57",
  "args": [
    "0x757839b47625C58827501374c7EDaD7Fe6b13299",
    {
      "lpName": "Decresendo",
      "tag": "High Risk",
      "longShortInfo": -1
    },
    {
      "market": "0x28C20a1A22E490702620c14DBc08F083F505EDc1",
      "utilizationTargetBPS": 7500,
      "rebalanceBPS": 500,
      "rebalanceCheckingInterval": 86400,
      "automationFeeReserved": "20000000",
      "minHoldingValueToRebalance": "100000000"
    },
    [
      -5000,
      -4500,
      -4000,
      -3500,
      -3000,
      -2500,
      -2000,
      -1500,
      -1000,
      -900,
      -800,
      -700,
      -600,
      -500,
      -400,
      -300,
      -200,
      -100,
      -90,
      -80,
      -70,
      -60,
      -50,
      -40,
      -30,
      -20,
      -10,
      -9,
      -8,
      -7,
      -6,
      -5,
      -4,
      -3,
      -2,
      -1
    ],
    [
      2567,
      2601,
      2636,
      2671,
      2706,
      2742,
      2779,
      2817,
      2855,
      2893,
      2933,
      2973,
      3014,
      3056,
      3098,
      3142,
      3187,
      3233,
      3280,
      3328,
      3378,
      3430,
      3483,
      3538,
      3596,
      3655,
      3718,
      3784,
      3853,
      3928,
      4007,
      4094,
      4189,
      4298,
      4427,
      4595
    ],
    "0xb73c927d6211D4c06a276a32E594b980aCa02f73"
  ],
  "numDeployments": 36,
  "solcInputHash": "699eb6621be26f8afc9292787e088064",
  "bytecode": "0x60a06040523480156200001157600080fd5b50604051620062503803806200625083398101604081905262000034916200093b565b8585858585858080604051806020016040528060008152506040518060200160405280600081525081600390816200006d919062000af2565b5060046200007c828262000af2565b5050506200009081620000d160201b60201c565b5050601a80546001600160a01b031916331790556001600160a01b038616608052620000bf85858585620000f3565b50505050505050505050505062000c5f565b601780546001600160a01b0319166001600160a01b0392909216919091179055565b6200010f8360200151846040015184846200027d60201b60201c565b8260a00151836080015111156200013957604051633eb55f4560e21b815260040160405180910390fd5b83516040517ff3da74d2d1d2bae81f62790988b0907ae7ae344cb326e2f211e3513608e65b13916200016b9162000bbe565b60405180910390a17f039efd204a16c45dbd0adc05af0e996a397123584a81af9b8d0484475d7711038460200151604051620001a8919062000bbe565b60405180910390a1604080518082019091528451808252602080870151908301526005908190620001da908262000af2565b5060208201516001820190620001f1908262000af2565b50506040805160a0808201835260208781015161ffff908116808552898601519091169184018290526060808a01519585018690526080808b0151918601829052938a0151939094018390526007805463ffffffff191690911762010000909202919091179055600892909255600955600a555082516200027790600b9084846200030a565b50505050565b6127108461ffff161115620002b057604051631191f22d60e31b815261ffff851660048201526024015b60405180910390fd5b8051825114620002e15781518151604051637e2c0eb360e01b815260048101929092526024820152604401620002a7565b8261ffff168461ffff16116200027757604051630272acdf60e41b815260040160405180910390fd5b83546001600160a01b0319166001600160a01b038416178455620002778483836000805b8251811015620003df578281815181106200034d576200034d62000bf3565b602002602001015185600201600086848151811062000370576200037062000bf3565b602002602001015160010b60010b815260200190815260200160002060006101000a81548161ffff021916908361ffff160217905550828181518110620003bb57620003bb62000bf3565b602002602001015161ffff1682620003d4919062000c1f565b91506001016200032e565b50600384018190558251620003fe906001860190602086019062000538565b506001600a85015562000277848480516001600160401b0381111562000428576200042862000659565b60405190808252806020026020018201604052801562000452578160200160208202803683370190505b5080516200046b916004850191602090910190620005eb565b5060005b8151811015620004d357620004a682828151811062000492576200049262000bf3565b6020026020010151620004d860201b60201c565b836004018281548110620004be57620004be62000bf3565b6000918252602090912001556001016200046f565b505050565b6000600182900b81126200050581620004fc57620004f68462000c3b565b620004fe565b835b826200050c565b9392505050565b6000816200052f57620005296402540be40061ffff851662000c1f565b62000505565b505061ffff1690565b82805482825590600052602060002090600f01601090048101928215620005d95791602002820160005b83821115620005a757835183826101000a81548161ffff021916908360010b61ffff160217905550926020019260020160208160010104928301926001030262000562565b8015620005d75782816101000a81549061ffff0219169055600201602081600101049283019260010302620005a7565b505b50620005e792915062000629565b5090565b828054828255906000526020600020908101928215620005d9579160200282015b82811115620005d95782518255916020019190600101906200060c565b5b80821115620005e757600081556001016200062a565b6001600160a01b03811681146200065657600080fd5b50565b634e487b7160e01b600052604160045260246000fd5b604080519081016001600160401b038111828210171562000694576200069462000659565b60405290565b604051601f8201601f191681016001600160401b0381118282101715620006c557620006c562000659565b604052919050565b60005b83811015620006ea578181015183820152602001620006d0565b50506000910152565b600082601f8301126200070557600080fd5b81516001600160401b0381111562000721576200072162000659565b62000736601f8201601f19166020016200069a565b8181528460208386010111156200074c57600080fd5b6200075f826020830160208701620006cd565b949350505050565b805161ffff811681146200077a57600080fd5b919050565b600060c082840312156200079257600080fd5b60405160c081016001600160401b0381118282101715620007b757620007b762000659565b80604052508091508251620007cc8162000640565b8152620007dc6020840162000767565b6020820152620007ef6040840162000767565b6040820152606083015160608201526080830151608082015260a083015160a08201525092915050565b60006001600160401b0382111562000835576200083562000659565b5060051b60200190565b600082601f8301126200085157600080fd5b815160206200086a620008648362000819565b6200069a565b82815260059290921b840181019181810190868411156200088a57600080fd5b8286015b84811015620008b85780518060010b8114620008aa5760008081fd5b83529183019183016200088e565b509695505050505050565b600082601f830112620008d557600080fd5b81516020620008e8620008648362000819565b82815260059290921b840181019181810190868411156200090857600080fd5b8286015b84811015620008b857620009208162000767565b83529183019183016200090c565b80516200077a8162000640565b60008060008060008061016087890312156200095657600080fd5b8651620009638162000640565b60208801519096506001600160401b03808211156200098157600080fd5b908801906040828b0312156200099657600080fd5b620009a06200066f565b825182811115620009b057600080fd5b620009be8c828601620006f3565b825250602083015182811115620009d457600080fd5b620009e28c828601620006f3565b6020830152509650620009f98a60408b016200077f565b955061010089015191508082111562000a1157600080fd5b62000a1f8a838b016200083f565b945061012089015191508082111562000a3757600080fd5b5062000a4689828a01620008c3565b92505062000a5861014088016200092e565b90509295509295509295565b600181811c9082168062000a7957607f821691505b60208210810362000a9a57634e487b7160e01b600052602260045260246000fd5b50919050565b601f821115620004d357600081815260208120601f850160051c8101602086101562000ac95750805b601f850160051c820191505b8181101562000aea5782815560010162000ad5565b505050505050565b81516001600160401b0381111562000b0e5762000b0e62000659565b62000b268162000b1f845462000a64565b8462000aa0565b602080601f83116001811462000b5e576000841562000b455750858301515b600019600386901b1c1916600185901b17855562000aea565b600085815260208120601f198616915b8281101562000b8f5788860151825594840194600190910190840162000b6e565b508582101562000bae5787850151600019600388901b60f8161c191681555b5050505050600190811b01905550565b602081526000825180602084015262000bdf816040850160208701620006cd565b601f01601f19169190910160400192915050565b634e487b7160e01b600052603260045260246000fd5b634e487b7160e01b600052601160045260246000fd5b8082018082111562000c355762000c3562000c09565b92915050565b60008160010b617fff19810362000c565762000c5662000c09565b60000392915050565b6080516155ce62000c82600039600081816108010152610f6f01526155ce6000f3fe6080604052600436106105415760003560e01c80638b0ee281116102af578063bc197c8111610179578063d2419e23116100d6578063ea21cd921161008a578063f23a6e611161006f578063f23a6e6114610ee5578063f2fde38b14610f2b578063f8edb05514610f4b57610550565b8063ea21cd9214610ebd578063f120bc4d14610dea57610550565b8063dc0fde3f116100bb578063dc0fde3f14610e1f578063dd62ed3e14610e4a578063e921b5c214610e9d57610550565b8063d2419e2314610dea578063d4c3eea014610e0a57610550565b8063c95cb9691161012d578063cc05703f11610112578063cc05703f14610d95578063d0d063c014610db5578063d22e258d14610dd557610550565b8063c95cb96914610d55578063c95f9d0e14610d7557610550565b8063c244e4ca1161015e578063c244e4ca14610d20578063c6bd624914610d35578063c73fc729146106dc57610550565b8063bc197c8114610c85578063c0d6361c14610cfe57610550565b8063970d1d6f11610227578063a9059cbb116101db578063ac31bb04116101c0578063ac31bb0414610c30578063b63e6ac314610c45578063b7d1a2b714610c6557610550565b8063a9059cbb14610bfb578063a940eb6b14610c1b57610550565b8063a207d6d11161020c578063a207d6d114610ba6578063a457c2d714610bc6578063a56c077f14610be657610550565b8063970d1d6f14610b5a5780639d15558b14610b7557610550565b80638f1cc1c51161027e57806393e15ee91161026357806393e15ee914610b1057806395d89b4114610b2557806395fc33c514610b3a57610550565b80638f1cc1c514610ad9578063914ef97e14610aee57610550565b80638b0ee28114610a6f5780638c7fe72e14610a845780638da5cb5b14610aa45780638df8280014610ab957610550565b80633efe49651161040b5780636e0c4cea116103685780637b9e618d1161031c57806380f556051161030157806380f5560514610a0f5780638363396414610a3a578063861086b714610a4f57610550565b80637b9e618d146109da5780637c48868a146109ef57610550565b8063735a448e1161034d578063735a448e1461094c578063747cd3d9146109a35780637688c584146109b857610550565b80636e0c4cea146108f457806370a082311461090957610550565b80635aa3b4ed116103bf5780635fcbd285116103a45780635fcbd285146108b757806366cc811a146108ca5780636868fe1d146108df57610550565b80635aa3b4ed1461088d5780635c3986b0146108a257610550565b806346cd6801116103f057806346cd680114610848578063533cd7661461085d5780635a80e0801461087257610550565b80633efe4965146107da57806340c592c1146107ef57610550565b806326efc045116104b9578063357dbd231161046d578063395093511161045257806339509351146107855780633ab8a16c146107a55780633da9b9d0146107ba57610550565b8063357dbd23146107505780633772708a1461076557610550565b80633068e7941161049e5780633068e794146106dc578063313ce567146106fc5780633179f0481461072357610550565b806326efc0451461069b57806329e0dcfc146106b457610550565b8063095ea7b31161051057806317e84c20116104f557806317e84c201461063c57806318160ddd1461065c57806323b872dd1461067b57610550565b8063095ea7b3146105fc5780630e2600161461061c57610550565b806301ffc9a71461055857806305240e8b1461058d57806305fe138b146105ad57806306fdde03146105da57610550565b366105505761054e610f6a565b005b61054e610f6a565b34801561056457600080fd5b506105786105733660046141f1565b610f95565b60405190151581526020015b60405180910390f35b34801561059957600080fd5b5061054e6105a8366004614255565b61102e565b3480156105b957600080fd5b506105cd6105c8366004614272565b611078565b60405161058491906142d1565b3480156105e657600080fd5b506105ef6110c6565b60405161058491906143a6565b34801561060857600080fd5b506105786106173660046143f7565b6110fd565b34801561062857600080fd5b5061054e610637366004614255565b611115565b34801561064857600080fd5b5061054e610657366004614432565b61115c565b34801561066857600080fd5b506002545b604051908152602001610584565b34801561068757600080fd5b5061057861069636600461444f565b6111a3565b3480156106a757600080fd5b5060075461ffff1661066d565b3480156106c057600080fd5b506106c96111c9565b60405160009190910b8152602001610584565b3480156106e857600080fd5b5061054e6106f73660046144d9565b6111da565b34801561070857600080fd5b5061071161120c565b60405160ff9091168152602001610584565b34801561072f57600080fd5b5061074361073e366004614255565b611286565b6040516105849190614552565b34801561075c57600080fd5b5060135461066d565b34801561077157600080fd5b5061054e61078036600461465a565b6112b7565b34801561079157600080fd5b506105786107a03660046143f7565b61133c565b3480156107b157600080fd5b5061066d611388565b3480156107c657600080fd5b5061054e6107d53660046143f7565b611394565b3480156107e657600080fd5b5060085461066d565b3480156107fb57600080fd5b506108237f000000000000000000000000000000000000000000000000000000000000000081565b60405173ffffffffffffffffffffffffffffffffffffffff9091168152602001610584565b34801561085457600080fd5b506105ef61141d565b34801561086957600080fd5b5061066d6114b2565b34801561087e57600080fd5b5061054e6106f73660046146da565b34801561089957600080fd5b506105ef611504565b3480156108ae57600080fd5b50610743611516565b3480156108c357600080fd5b5030610823565b3480156108d657600080fd5b5061066d611570565b3480156108eb57600080fd5b5061066d61157c565b34801561090057600080fd5b50610711611588565b34801561091557600080fd5b5061066d610924366004614255565b73ffffffffffffffffffffffffffffffffffffffff1660009081526020819052604090205490565b34801561095857600080fd5b50610961611592565b6040516105849190600060a082019050825182526020830151602083015260408301516040830152606083015160608301526080830151608083015292915050565b3480156109af57600080fd5b5061054e6115ce565b3480156109c457600080fd5b506109cd6116e4565b6040516105849190614736565b3480156109e657600080fd5b50610823611764565b3480156109fb57600080fd5b50610578610a0a366004614771565b6117f8565b348015610a1b57600080fd5b50600b5473ffffffffffffffffffffffffffffffffffffffff16610823565b348015610a4657600080fd5b5061066d611859565b348015610a5b57600080fd5b5061054e610a6a366004614255565b611865565b348015610a7b57600080fd5b5061066d61192f565b348015610a9057600080fd5b5061054e610a9f366004614771565b611958565b348015610ab057600080fd5b506108236119ce565b348015610ac557600080fd5b50610578610ad4366004614771565b611aac565b348015610ae557600080fd5b50610743611abb565b348015610afa57600080fd5b50610b03611ac7565b60405161058491906147db565b348015610b1c57600080fd5b5061054e611ad1565b348015610b3157600080fd5b506105ef611be6565b348015610b4657600080fd5b5061054e610b553660046147ee565b611c81565b348015610b6657600080fd5b5061054e6106f7366004614815565b348015610b8157600080fd5b506017547501000000000000000000000000000000000000000000900460ff16610578565b348015610bb257600080fd5b5061054e610bc1366004614771565b611ce8565b348015610bd257600080fd5b50610578610be13660046143f7565b611d9a565b348015610bf257600080fd5b50610578611e7b565b348015610c0757600080fd5b50610578610c163660046143f7565b611f84565b348015610c2757600080fd5b50600a5461066d565b348015610c3c57600080fd5b50610743611f92565b348015610c5157600080fd5b506105cd610c60366004614771565b611f9e565b348015610c7157600080fd5b50610578610c80366004614255565b611fb1565b348015610c9157600080fd5b50610ccd610ca03660046148a7565b7fbc197c810000000000000000000000000000000000000000000000000000000098975050505050505050565b6040517fffffffff000000000000000000000000000000000000000000000000000000009091168152602001610584565b348015610d0a57600080fd5b50610d13611fbc565b6040516105849190614966565b348015610d2c57600080fd5b50610743612097565b348015610d4157600080fd5b5061054e610d50366004614771565b6120a3565b348015610d6157600080fd5b5061054e610d7036600461465a565b6120e9565b348015610d8157600080fd5b506105cd610d90366004614272565b61216a565b348015610da157600080fd5b5061054e610db03660046149a2565b6121f1565b348015610dc157600080fd5b5061054e610dd0366004614815565b611ce0565b348015610de157600080fd5b5060095461066d565b348015610df657600080fd5b5061054e610e053660046149c4565b612238565b348015610e1657600080fd5b5061066d61224c565b348015610e2b57600080fd5b5060175473ffffffffffffffffffffffffffffffffffffffff16610823565b348015610e5657600080fd5b5061066d610e65366004614ab5565b73ffffffffffffffffffffffffffffffffffffffff918216600090815260016020908152604080832093909416825291909152205490565b348015610ea957600080fd5b5061054e610eb8366004614ae3565b612258565b348015610ec957600080fd5b50610ed2612260565b60405161ffff9091168152602001610584565b348015610ef157600080fd5b50610ccd610f00366004614b66565b7ff23a6e61000000000000000000000000000000000000000000000000000000009695505050505050565b348015610f3757600080fd5b5061054e610f46366004614255565b612272565b348015610f5757600080fd5b5060075462010000900461ffff1661066d565b610f937f0000000000000000000000000000000000000000000000000000000000000000612306565b565b60007fffffffff0000000000000000000000000000000000000000000000000000000082167f01ffc9a700000000000000000000000000000000000000000000000000000000148061102857507fffffffff0000000000000000000000000000000000000000000000000000000082167f4e2312e000000000000000000000000000000000000000000000000000000000145b92915050565b61103661232a565b61106c576040517f9298645b00000000000000000000000000000000000000000000000000000000815260040160405180910390fd5b61107581612367565b50565b61108061416f565b611088612372565b6110be576040517ff1330b4c00000000000000000000000000000000000000000000000000000000815260040160405180910390fd5b611028610f6a565b60606110d06123ac565b6110d8612448565b6040516020016110e9929190614b9a565b604051602081830303815290604052905090565b60003361110b818585612526565b5060019392505050565b61111d61232a565b611153576040517f9298645b00000000000000000000000000000000000000000000000000000000815260040160405180910390fd5b611075816126d9565b61116461232a565b61119a576040517f9298645b00000000000000000000000000000000000000000000000000000000815260040160405180910390fd5b611075816126e4565b6000336111b1858285612785565b6111bc858585612856565b60019150505b9392505050565b60006111d5600b612ac5565b905090565b6040517f36bcfc9a00000000000000000000000000000000000000000000000000000000815260040160405180910390fd5b6000611218600b612b9c565b73ffffffffffffffffffffffffffffffffffffffff1663313ce5676040518163ffffffff1660e01b8152600401602060405180830381865afa158015611262573d6000803e3d6000fd5b505050506040513d601f19601f820116820180604052508101906111d59190614c1b565b73ffffffffffffffffffffffffffffffffffffffff8116600090815260126020526040902060609061102890612c2f565b6112bf61232a565b6112f5576040517f9298645b00000000000000000000000000000000000000000000000000000000815260040160405180910390fd5b7ff3da74d2d1d2bae81f62790988b0907ae7ae344cb326e2f211e3513608e65b138160405161132491906143a6565b60405180910390a160056113388282614cd3565b5050565b33600081815260016020908152604080832073ffffffffffffffffffffffffffffffffffffffff8716845290915281205490919061110b9082908690611383908790614e1c565b612526565b60006111d5600b612c3c565b6001600081905260166020527f4c4dc693d7db52f85fe052106f4b4b920e78e8ef37dee82878a60ab8585faf495473ffffffffffffffffffffffffffffffffffffffff163314611410576040517fa19677f400000000000000000000000000000000000000000000000000000000815260040160405180910390fd5b611418610f6a565b505050565b60606005600001805461142f90614c38565b80601f016020809104026020016040519081016040528092919081815260200182805461145b90614c38565b80156114a85780601f1061147d576101008083540402835291602001916114a8565b820191906000526020600020905b81548152906001019060200180831161148b57829003601f168201915b5050505050905090565b60006114bc611859565b15806114c85750600254155b156114f0576007546111d590612710906114e69061ffff1682614e2f565b6009549190612e20565b6111d56114fc60025490565b6114e6611859565b60606005600101805461142f90614c38565b6060600b6004018054806020026020016040519081016040528092919081815260200182805480156114a857602002820191906000526020600020905b815481526020019060010190808311611553575050505050905090565b60006111d5600b612f4a565b60006111d5600b6130f5565b60006111d56132d8565b6115c46040518060a0016040528060008152602001600081526020016000815260200160008152602001600081525090565b6111d5600b61330a565b6115d661232a565b61160c576040517f9298645b00000000000000000000000000000000000000000000000000000000815260040160405180910390fd5b6017546001600090815260166020527f4c4dc693d7db52f85fe052106f4b4b920e78e8ef37dee82878a60ab8585faf4980547fffffffffffffffffffffffff00000000000000000000000000000000000000001673ffffffffffffffffffffffffffffffffffffffff9093169283179055604080517f747cd3d9000000000000000000000000000000000000000000000000000000008152905163747cd3d99260048084019391929182900301818387803b1580156116ca57600080fd5b505af11580156116de573d6000803e3d6000fd5b50505050565b6060600b6001018054806020026020016040519081016040528092919081815260200182805480156114a857602002820191906000526020600020906000905b82829054906101000a900460010b60010b815260200190600201906020826001010492830192600103820291508084116117245790505050505050905090565b600b54604080517f7b9e618d000000000000000000000000000000000000000000000000000000008152905160009273ffffffffffffffffffffffffffffffffffffffff1691637b9e618d9160048083019260209291908290030181865afa1580156117d4573d6000803e3d6000fd5b505050506040513d601f19601f820116820180604052508101906111d59190614e42565b600954600090611808600b6133c1565b101561181657506000919050565b6000611823600b8461345c565b90508060e001518015611842575061183b600b613527565b8160600151105b156118505750600192915050565b50600092915050565b60006111d5600b6133c1565b61186d61232a565b6118a3576040517f9298645b00000000000000000000000000000000000000000000000000000000815260040160405180910390fd5b60405173ffffffffffffffffffffffffffffffffffffffff821681527f7651d63b1278269cdcd173e3a36edd8c2b5f049a7314dcefde10ea3acd6bd6d19060200160405180910390a1601780547fffffffffffffffffffffffff00000000000000000000000000000000000000001673ffffffffffffffffffffffffffffffffffffffff831617905550565b60075460009061194b90612710906114e69061ffff1682614e2f565b6009546111d59190614e1c565b61196061232a565b611996576040517f9298645b00000000000000000000000000000000000000000000000000000000815260040160405180910390fd5b6040518181527f1441fd786153fa8f008b6fcebb75a50b96e1b572a71b7e3330445d7b5857e9399060200160405180910390a1600955565b600b54604080517fc45a0155000000000000000000000000000000000000000000000000000000008152905160009273ffffffffffffffffffffffffffffffffffffffff169163c45a01559160048083019260209291908290030181865afa158015611a3e573d6000803e3d6000fd5b505050506040513d601f19601f82011682018060405250810190611a629190614e42565b73ffffffffffffffffffffffffffffffffffffffff16634162169f6040518163ffffffff1660e01b8152600401602060405180830381865afa1580156117d4573d6000803e3d6000fd5b6000611ab6610f6a565b919050565b60606111d5600b61362f565b60606111d5613818565b611ad961232a565b611b0f576040517f9298645b00000000000000000000000000000000000000000000000000000000815260040160405180910390fd5b6001600090815260166020527f4c4dc693d7db52f85fe052106f4b4b920e78e8ef37dee82878a60ab8585faf4980547fffffffffffffffffffffffff00000000000000000000000000000000000000008116909155604080517f93e15ee9000000000000000000000000000000000000000000000000000000008152905173ffffffffffffffffffffffffffffffffffffffff9092169283926393e15ee992600480820193929182900301818387803b158015611bcb57600080fd5b505af1158015611bdf573d6000803e3d6000fd5b5050505050565b600b54606090611c0d9073ffffffffffffffffffffffffffffffffffffffff166004613824565b60068054600090611c1d90614c38565b8110611c2b57611c2b614e5f565b815460011615611c4a5790600052602060002090602091828204019190065b9054901a7f0100000000000000000000000000000000000000000000000000000000000000026040516020016110e9929190614e8e565b600083815260166020526040902054839073ffffffffffffffffffffffffffffffffffffffff163314611ce0576040517fa19677f400000000000000000000000000000000000000000000000000000000815260040160405180910390fd5b6116de610f6a565b611cf061232a565b611d26576040517f9298645b00000000000000000000000000000000000000000000000000000000815260040160405180910390fd5b600954811015611d62576040517ffad57d1400000000000000000000000000000000000000000000000000000000815260040160405180910390fd5b6040518181527fe3ace5d94bde0cd21c2e532e3ec977a9b6db39d99fb47e6c560f276c4ef042589060200160405180910390a1600a55565b33600081815260016020908152604080832073ffffffffffffffffffffffffffffffffffffffff8716845290915281205490919083811015611e63576040517f08c379a000000000000000000000000000000000000000000000000000000000815260206004820152602560248201527f45524332303a2064656372656173656420616c6c6f77616e63652062656c6f7760448201527f207a65726f00000000000000000000000000000000000000000000000000000060648201526084015b60405180910390fd5b611e708286868403612526565b506001949350505050565b600a54600090611e8b600b6133c1565b1015611e975750600090565b600080611ea4600b6139b6565b915061ffff16915080600003611ebd5760009250505090565b6040805160a08101825260075461ffff808216835262010000909104166020820152600854918101919091526009546060820152600a546080820152600090611f069084613a05565b90506002816002811115611f1c57611f1c6142a2565b03611f4157600954611f2d84613a5a565b10611f3c576001935050505090565b611f7a565b6001816002811115611f5557611f556142a2565b03611f7a57611f6261192f565b611f6b84613a7d565b10611f7a576001935050505090565b6000935050505090565b60003361110b818585612856565b60606111d5600b613ac3565b611fa661416f565b611028600b8361345c565b600061102882613c0f565b600c5460609067ffffffffffffffff811115611fda57611fda614596565b604051908082528060200260200182016040528015612003578160200160208202803683370190505b50905060005b600c5481101561209357600c8054600d916000918490811061202d5761202d614e5f565b60009182526020808320601083040154600f9092166002026101000a90910460010b8352820192909252604001902054825161ffff9091169083908390811061207857612078614e5f565b61ffff90921660209283029190910190910152600101612009565b5090565b60606111d5600b613c1c565b6120ab61232a565b6120e1576040517f9298645b00000000000000000000000000000000000000000000000000000000815260040160405180910390fd5b611075610f6a565b6120f161232a565b612127576040517f9298645b00000000000000000000000000000000000000000000000000000000815260040160405180910390fd5b7f039efd204a16c45dbd0adc05af0e996a397123584a81af9b8d0484475d7711038160405161215691906143a6565b60405180910390a160066113388282614cd3565b61217261416f565b61217a613cf4565b6121b0576040517f8955e38200000000000000000000000000000000000000000000000000000000815260040160405180910390fd5b6121b861192f565b8310156110be576040517f266bd47800000000000000000000000000000000000000000000000000000000815260040160405180910390fd5b6121f961232a565b61222f576040517f9298645b00000000000000000000000000000000000000000000000000000000815260040160405180910390fd5b61107581613cfd565b612240610f6a565b50505050505050505050565b60006111d5600b613da5565b611bdf610f6a565b600061226c600b6139b6565b50919050565b61227a61232a565b6122b0576040517f9298645b00000000000000000000000000000000000000000000000000000000815260040160405180910390fd5b73ffffffffffffffffffffffffffffffffffffffff81166122fd576040517f3efa09af00000000000000000000000000000000000000000000000000000000815260040160405180910390fd5b61107581613dd2565b3660008037600080366000845af43d6000803e808015612325573d6000f35b3d6000fd5b60006123346119ce565b73ffffffffffffffffffffffffffffffffffffffff163373ffffffffffffffffffffffffffffffffffffffff1614905090565b611338601882613e49565b600060025b60175474010000000000000000000000000000000000000000900460ff1660028111156123a6576123a66142a2565b10905090565b60606123b8600b612b9c565b73ffffffffffffffffffffffffffffffffffffffff166395d89b416040518163ffffffff1660e01b8152600401600060405180830381865afa158015612402573d6000803e3d6000fd5b505050506040513d6000823e601f3d9081017fffffffffffffffffffffffffffffffffffffffffffffffffffffffffffffffe01682016040526111d59190810190614f24565b600b54604080517f0aa7d2f9000000000000000000000000000000000000000000000000000000008152905160609273ffffffffffffffffffffffffffffffffffffffff1691630aa7d2f99160048083019260209291908290030181865afa1580156124b8573d6000803e3d6000fd5b505050506040513d601f19601f820116820180604052508101906124dc9190614e42565b73ffffffffffffffffffffffffffffffffffffffff16637284e4166040518163ffffffff1660e01b8152600401600060405180830381865afa158015612402573d6000803e3d6000fd5b73ffffffffffffffffffffffffffffffffffffffff83166125c8576040517f08c379a0000000000000000000000000000000000000000000000000000000008152602060048201526024808201527f45524332303a20617070726f76652066726f6d20746865207a65726f2061646460448201527f72657373000000000000000000000000000000000000000000000000000000006064820152608401611e5a565b73ffffffffffffffffffffffffffffffffffffffff821661266b576040517f08c379a000000000000000000000000000000000000000000000000000000000815260206004820152602260248201527f45524332303a20617070726f766520746f20746865207a65726f20616464726560448201527f73730000000000000000000000000000000000000000000000000000000000006064820152608401611e5a565b73ffffffffffffffffffffffffffffffffffffffff83811660008181526001602090815260408083209487168084529482529182902085905590518481527f8c5be1e5ebec7d5bd14f71427d1e84f3dd0314c0f7b2291e5b200ac8c7c3b925910160405180910390a3505050565b611338601882613e6b565b60405160ff821681527ff06951584aff5272705bb7ac4526065b9af906b0346b9a8b44d60153d25d860f9060200160405180910390a18060ff16600281111561272f5761272f6142a2565b601780547fffffffffffffffffffffff00ffffffffffffffffffffffffffffffffffffffff167401000000000000000000000000000000000000000083600281111561277d5761277d6142a2565b021790555050565b73ffffffffffffffffffffffffffffffffffffffff8381166000908152600160209081526040808320938616835292905220547fffffffffffffffffffffffffffffffffffffffffffffffffffffffffffffffff81146116de5781811015612849576040517f08c379a000000000000000000000000000000000000000000000000000000000815260206004820152601d60248201527f45524332303a20696e73756666696369656e7420616c6c6f77616e63650000006044820152606401611e5a565b6116de8484848403612526565b73ffffffffffffffffffffffffffffffffffffffff83166128f9576040517f08c379a000000000000000000000000000000000000000000000000000000000815260206004820152602560248201527f45524332303a207472616e736665722066726f6d20746865207a65726f20616460448201527f64726573730000000000000000000000000000000000000000000000000000006064820152608401611e5a565b73ffffffffffffffffffffffffffffffffffffffff821661299c576040517f08c379a000000000000000000000000000000000000000000000000000000000815260206004820152602360248201527f45524332303a207472616e7366657220746f20746865207a65726f206164647260448201527f65737300000000000000000000000000000000000000000000000000000000006064820152608401611e5a565b73ffffffffffffffffffffffffffffffffffffffff831660009081526020819052604090205481811015612a52576040517f08c379a000000000000000000000000000000000000000000000000000000000815260206004820152602660248201527f45524332303a207472616e7366657220616d6f756e742065786365656473206260448201527f616c616e636500000000000000000000000000000000000000000000000000006064820152608401611e5a565b73ffffffffffffffffffffffffffffffffffffffff848116600081815260208181526040808320878703905593871680835291849020805487019055925185815290927fddf252ad1be2c89b69c2b068fc378daa952ba7f163c4a11628f55a4df523b3ef910160405180910390a36116de565b6000806000805b6001850154811015612b89576000856001018281548110612aef57612aef614e5f565b60009182526020909120601082040154600f9091166002026101000a900460010b1315612b1f5760019250612b81565b6000856001018281548110612b3657612b36614e5f565b60009182526020909120601082040154600f9091166002026101000a900460010b1215612b81577fffffffffffffffffffffffffffffffffffffffffffffffffffffffffffffffff91505b600101612acc565b50612b948183614f9b565b949350505050565b8054604080517f7b9e618d000000000000000000000000000000000000000000000000000000008152905160009273ffffffffffffffffffffffffffffffffffffffff1691637b9e618d9160048083019260209291908290030181865afa158015612c0b573d6000803e3d6000fd5b505050506040513d601f19601f820116820180604052508101906110289190614e42565b606060006111c283613e8d565b600080612c4883613ee9565b83546040517ffaf07bf300000000000000000000000000000000000000000000000000000000815291925060009173ffffffffffffffffffffffffffffffffffffffff9091169063faf07bf390612ca6906001880190600401614fda565b600060405180830381865afa158015612cc3573d6000803e3d6000fd5b505050506040513d6000823e601f3d9081017fffffffffffffffffffffffffffffffffffffffffffffffffffffffffffffffe0168201604052612d0991908101906152ed565b905060005b8151811015612e18576000856009016000876001018481548110612d3457612d34614e5f565b60009182526020808320601083040154600f9092166002026101000a90910460010b83528201929092526040019020549050801580612d8c5750838281518110612d8057612d80614e5f565b60200260200101516000145b80612db05750828281518110612da457612da4614e5f565b60200260200101516000145b612e0057612dfb838381518110612dc957612dc9614e5f565b6020026020010151858481518110612de357612de3614e5f565b602002602001015183612e209092919063ffffffff16565b612e03565b60005b612e0d9086614e1c565b945050600101612d0e565b505050919050565b600080807fffffffffffffffffffffffffffffffffffffffffffffffffffffffffffffffff85870985870292508281108382030391505080600003612e7857838281612e6e57612e6e615393565b04925050506111c2565b808411612ee1576040517f08c379a000000000000000000000000000000000000000000000000000000000815260206004820152601560248201527f4d6174683a206d756c446976206f766572666c6f7700000000000000000000006044820152606401611e5a565b60008486880960026001871981018816978890046003810283188082028403028082028403028082028403028082028403028082028403029081029092039091026000889003889004909101858311909403939093029303949094049190911702949350505050565b600080612f5683613ee9565b83546040517ffaf07bf300000000000000000000000000000000000000000000000000000000815291925060009173ffffffffffffffffffffffffffffffffffffffff9091169063faf07bf390612fb4906001880190600401614fda565b600060405180830381865afa158015612fd1573d6000803e3d6000fd5b505050506040513d6000823e601f3d9081017fffffffffffffffffffffffffffffffffffffffffffffffffffffffffffffffe016820160405261301791908101906152ed565b9050600061302485613ac3565b905060005b82518110156130ec57600082828151811061304657613046614e5f565b602002602001015190508060001480613078575084828151811061306c5761306c614e5f565b60200260200101516000145b8061309c575083828151811061309057613090614e5f565b60200260200101516000145b6130d4576130cf8483815181106130b5576130b5614e5f565b6020026020010151868481518110612de357612de3614e5f565b6130d7565b60005b6130e19087614e1c565b955050600101613029565b50505050919050565b60008061310183613ee9565b83546040517ffaf07bf300000000000000000000000000000000000000000000000000000000815291925060009173ffffffffffffffffffffffffffffffffffffffff9091169063faf07bf39061315f906001880190600401614fda565b600060405180830381865afa15801561317c573d6000803e3d6000fd5b505050506040513d6000823e601f3d9081017fffffffffffffffffffffffffffffffffffffffffffffffffffffffffffffffe01682016040526131c291908101906152ed565b905060006131cf85613ac3565b905060005b82518110156130ec5760008660090160008860010184815481106131fa576131fa614e5f565b90600052602060002090601091828204019190066002029054906101000a900460010b60010b60010b81526020019081526020016000205483838151811061324457613244614e5f565b60200260200101516132569190614e1c565b905080158061327e575084828151811061327257613272614e5f565b60200260200101516000145b806132a2575083828151811061329657613296614e5f565b60200260200101516000145b6132c0576132bb8483815181106130b5576130b5614e5f565b6132c3565b60005b6132cd9087614e1c565b9550506001016131d4565b60175460009074010000000000000000000000000000000000000000900460ff1660028111156111d5576111d56142a2565b61333c6040518060a0016040528060008152602001600081526020016000815260200160008152602001600081525090565b6040518060a0016040528060008152602001613357846133c1565b8152602001613367846008015490565b815260200161337584612f4a565b815260200161338384612c3c565b815250905080608001518160600151826040015183602001516133a69190614e1c565b6133b09190614e1c565b6133ba9190614e1c565b8152919050565b60006133cc82612b9c565b6040517f70a0823100000000000000000000000000000000000000000000000000000000815230600482015273ffffffffffffffffffffffffffffffffffffffff91909116906370a0823190602401602060405180830381865afa158015613438573d6000803e3d6000fd5b505050506040513d601f19601f8201168201806040525081019061102891906153c2565b61346461416f565b6000828152600580850160209081526040928390208351610100810185528154815260018083015473ffffffffffffffffffffffffffffffffffffffff9081169483019490945260028301549093169481019490945260038101546060850152600481015460808501529182015460a0840152600682015460c084019160ff909116908111156134f6576134f66142a2565b6001811115613507576135076142a2565b815260069190910154610100900460ff1615156020909101529392505050565b8054604080517f0aa7d2f9000000000000000000000000000000000000000000000000000000008152905160009273ffffffffffffffffffffffffffffffffffffffff1691630aa7d2f99160048083019260209291908290030181865afa158015613596573d6000803e3d6000fd5b505050506040513d601f19601f820116820180604052508101906135ba9190614e42565b73ffffffffffffffffffffffffffffffffffffffff16639d888e866040518163ffffffff1660e01b8152600401606060405180830381865afa158015613604573d6000803e3d6000fd5b505050506040513d601f19601f8201168201806040525081019061362891906153db565b5192915050565b606061363c826001015490565b67ffffffffffffffff81111561365457613654614596565b60405190808252806020026020018201604052801561367d578160200160208202803683370190505b509050600061368b83613ee9565b83546040517ffaf07bf300000000000000000000000000000000000000000000000000000000815291925060009173ffffffffffffffffffffffffffffffffffffffff9091169063faf07bf3906136e9906001880190600401614fda565b600060405180830381865afa158015613706573d6000803e3d6000fd5b505050506040513d6000823e601f3d9081017fffffffffffffffffffffffffffffffffffffffffffffffffffffffffffffffe016820160405261374c91908101906152ed565b9050600061375985613ac3565b905060005b60018601548110156130ec5783818151811061377c5761377c614e5f565b60200260200101516000146137f0576137eb8282815181106137a0576137a0614e5f565b60200260200101518583815181106137ba576137ba614e5f565b60200260200101518584815181106137d4576137d4614e5f565b6020026020010151612e209092919063ffffffff16565b6137f3565b60005b85828151811061380557613805614e5f565b602090810291909101015260010161375e565b60606111d56018612c2f565b60608160ff1667ffffffffffffffff81111561384257613842614596565b6040519080825280601f01601f19166020018201604052801561386c576020820181803683370190505b5060408051808201909152601081527f30313233343536373839616263646566000000000000000000000000000000006020820152909150836138b0846027615437565b6138bb906004615450565b60ff168173ffffffffffffffffffffffffffffffffffffffff16901c905060005b8460ff168110156139ad5760048273ffffffffffffffffffffffffffffffffffffffff16901c915082601083613912919061546c565b60ff168151811061392557613925614e5f565b01602001517fff000000000000000000000000000000000000000000000000000000000000001684600161395c8460ff8a16614e2f565b6139669190614e2f565b8151811061397657613976614e5f565b60200101907effffffffffffffffffffffffffffffffffffffffffffffffffffffffffffff1916908160001a9053506001016138dc565b50505092915050565b60008060006139c48461330a565b80519250905060008290036139dc57600092506139ff565b805160208201516139fc91612710916139f59082614e2f565b9190612e20565b92505b50915091565b60008183602001518460000151613a1c91906154c6565b61ffff161015613a2e57506002611028565b602083015183518391613a40916154e1565b61ffff161115613a5257506001611028565b506000611028565b60075460009061102890613a729061ffff1684614e2f565b836139f5600b612f4a565b60075460009061102890613a979061ffff16612710614e2f565b613aa384612710614e2f565b613aad9190614e2f565b613ab984612710614e2f565b6139f5600b6133c1565b60606000613ad2836001015490565b67ffffffffffffffff811115613aea57613aea614596565b604051908082528060200260200182016040528015613b13578160200160208202803683370190505b50905060005b6001840154811015613b655730828281518110613b3857613b38614e5f565b73ffffffffffffffffffffffffffffffffffffffff90921660209283029190910190910152600101613b19565b50613b6f83613f92565b73ffffffffffffffffffffffffffffffffffffffff16634e1273f482856004016040518363ffffffff1660e01b8152600401613bac929190615531565b600060405180830381865afa158015613bc9573d6000803e3d6000fd5b505050506040513d6000823e601f3d9081017fffffffffffffffffffffffffffffffffffffffffffffffffffffffffffffffe01682016040526111c291908101906152ed565b6000611028601883613fff565b6060613c29826001015490565b67ffffffffffffffff811115613c4157613c41614596565b604051908082528060200260200182016040528015613c6a578160200160208202803683370190505b50905060005b600183015481101561226c57826009016000846001018381548110613c9757613c97614e5f565b90600052602060002090601091828204019190066002029054906101000a900460010b60010b60010b815260200190815260200160002054828281518110613ce157613ce1614e5f565b6020908102919091010152600101613c70565b60006001612377565b60175460ff7501000000000000000000000000000000000000000000909104161515811515146110755760405181151581527f480a26db7780c3e1e1ee9d41b682773ec820e9b82c377438dac5952eac8a3bd29060200160405180910390a1601780548215157501000000000000000000000000000000000000000000027fffffffffffffffffffff00ffffffffffffffffffffffffffffffffffffffffff90911617905550565b6000613db0826130f5565b6008830154613dbe846133c1565b613dc89190614e1c565b6110289190614e1c565b601a805473ffffffffffffffffffffffffffffffffffffffff8381167fffffffffffffffffffffffff0000000000000000000000000000000000000000831681179093556040519116919082907f8be0079c531659141344cd1fd0a4f28419497f9722a3daafe3b4186f6b6457e090600090a35050565b60006111c28373ffffffffffffffffffffffffffffffffffffffff841661402e565b60006111c28373ffffffffffffffffffffffffffffffffffffffff8416614128565b606081600001805480602002602001604051908101604052809291908181526020018280548015613edd57602002820191906000526020600020905b815481526020019060010190808311613ec9575b50505050509050919050565b6060613ef482613f92565b73ffffffffffffffffffffffffffffffffffffffff166377954ac2836004016040518263ffffffff1660e01b8152600401613f2f9190615556565b600060405180830381865afa158015613f4c573d6000803e3d6000fd5b505050506040513d6000823e601f3d9081017fffffffffffffffffffffffffffffffffffffffffffffffffffffffffffffffe016820160405261102891908101906152ed565b8054604080517e64041d000000000000000000000000000000000000000000000000000000008152905160009273ffffffffffffffffffffffffffffffffffffffff16916264041d9160048083019260209291908290030181865afa158015612c0b573d6000803e3d6000fd5b73ffffffffffffffffffffffffffffffffffffffff8116600090815260018301602052604081205415156111c2565b60008181526001830160205260408120548015614117576000614052600183614e2f565b855490915060009061406690600190614e2f565b90508181146140cb57600086600001828154811061408657614086614e5f565b90600052602060002001549050808760000184815481106140a9576140a9614e5f565b6000918252602080832090910192909255918252600188019052604090208390555b85548690806140dc576140dc615569565b600190038181906000526020600020016000905590558560010160008681526020019081526020016000206000905560019350505050611028565b6000915050611028565b5092915050565b6000818152600183016020526040812054613a5257508154600181810184556000848152602080822090930184905584548482528286019093526040902091909155611028565b60405180610100016040528060008152602001600073ffffffffffffffffffffffffffffffffffffffff168152602001600073ffffffffffffffffffffffffffffffffffffffff168152602001600081526020016000815260200160008152602001600060018111156141e4576141e46142a2565b8152600060209091015290565b60006020828403121561420357600080fd5b81357fffffffff00000000000000000000000000000000000000000000000000000000811681146111c257600080fd5b73ffffffffffffffffffffffffffffffffffffffff8116811461107557600080fd5b60006020828403121561426757600080fd5b81356111c281614233565b6000806040838503121561428557600080fd5b82359150602083013561429781614233565b809150509250929050565b7f4e487b7100000000000000000000000000000000000000000000000000000000600052602160045260246000fd5b60006101008201905082518252602083015173ffffffffffffffffffffffffffffffffffffffff80821660208501528060408601511660408501525050606083015160608301526080830151608083015260a083015160a083015260c083015160028110614368577f4e487b7100000000000000000000000000000000000000000000000000000000600052602160045260246000fd5b8060c08401525060e083015161412160e084018215159052565b60005b8381101561439d578181015183820152602001614385565b50506000910152565b60208152600082518060208401526143c5816040850160208701614382565b601f017fffffffffffffffffffffffffffffffffffffffffffffffffffffffffffffffe0169190910160400192915050565b6000806040838503121561440a57600080fd5b823561441581614233565b946020939093013593505050565b60ff8116811461107557600080fd5b60006020828403121561444457600080fd5b81356111c281614423565b60008060006060848603121561446457600080fd5b833561446f81614233565b9250602084013561447f81614233565b929592945050506040919091013590565b60008083601f8401126144a257600080fd5b50813567ffffffffffffffff8111156144ba57600080fd5b6020830191508360208285010111156144d257600080fd5b9250929050565b60008060008060008060a087890312156144f257600080fd5b8635955060208701358060010b811461450a57600080fd5b94506040870135935060608701359250608087013567ffffffffffffffff81111561453457600080fd5b61454089828a01614490565b979a9699509497509295939492505050565b6020808252825182820181905260009190848201906040850190845b8181101561458a5783518352928401929184019160010161456e565b50909695505050505050565b7f4e487b7100000000000000000000000000000000000000000000000000000000600052604160045260246000fd5b604051601f82017fffffffffffffffffffffffffffffffffffffffffffffffffffffffffffffffe016810167ffffffffffffffff8111828210171561460c5761460c614596565b604052919050565b600067ffffffffffffffff82111561462e5761462e614596565b50601f017fffffffffffffffffffffffffffffffffffffffffffffffffffffffffffffffe01660200190565b60006020828403121561466c57600080fd5b813567ffffffffffffffff81111561468357600080fd5b8201601f8101841361469457600080fd5b80356146a76146a282614614565b6145c5565b8181528560208385010111156146bc57600080fd5b81602084016020830137600091810160200191909152949350505050565b600080600080606085870312156146f057600080fd5b84356146fb81614233565b935060208501359250604085013567ffffffffffffffff81111561471e57600080fd5b61472a87828801614490565b95989497509550505050565b6020808252825182820181905260009190848201906040850190845b8181101561458a578351600190810b8452938501939285019201614752565b60006020828403121561478357600080fd5b5035919050565b600081518084526020808501945080840160005b838110156147d057815173ffffffffffffffffffffffffffffffffffffffff168752958201959082019060010161479e565b509495945050505050565b6020815260006111c2602083018461478a565b60008060006060848603121561480357600080fd5b83359250602084013561447f81614233565b6000806000806060858703121561482b57600080fd5b843561483681614233565b9350602085013561484681614233565b9250604085013567ffffffffffffffff81111561471e57600080fd5b60008083601f84011261487457600080fd5b50813567ffffffffffffffff81111561488c57600080fd5b6020830191508360208260051b85010111156144d257600080fd5b60008060008060008060008060a0898b0312156148c357600080fd5b88356148ce81614233565b975060208901356148de81614233565b9650604089013567ffffffffffffffff808211156148fb57600080fd5b6149078c838d01614862565b909850965060608b013591508082111561492057600080fd5b61492c8c838d01614862565b909650945060808b013591508082111561494557600080fd5b506149528b828c01614490565b999c989b5096995094979396929594505050565b6020808252825182820181905260009190848201906040850190845b8181101561458a57835161ffff1683529284019291840191600101614982565b6000602082840312156149b457600080fd5b813580151581146111c257600080fd5b60008060008060008060008060008060a08b8d0312156149e357600080fd5b8a3567ffffffffffffffff808211156149fb57600080fd5b614a078e838f01614862565b909c509a5060208d0135915080821115614a2057600080fd5b614a2c8e838f01614862565b909a50985060408d0135915080821115614a4557600080fd5b614a518e838f01614862565b909850965060608d0135915080821115614a6a57600080fd5b614a768e838f01614862565b909650945060808d0135915080821115614a8f57600080fd5b50614a9c8d828e01614490565b915080935050809150509295989b9194979a5092959850565b60008060408385031215614ac857600080fd5b8235614ad381614233565b9150602083013561429781614233565b600080600080600060608688031215614afb57600080fd5b8535614b0681614233565b9450602086013567ffffffffffffffff80821115614b2357600080fd5b614b2f89838a01614862565b90965094506040880135915080821115614b4857600080fd5b50614b5588828901614490565b969995985093965092949392505050565b60008060008060008060a08789031215614b7f57600080fd5b8635614b8a81614233565b9550602087013561450a81614233565b7f4368726f6d617469634c50202d20000000000000000000000000000000000000815260008351614bd281600e850160208801614382565b7f202d200000000000000000000000000000000000000000000000000000000000600e918401918201528351614c0f816011840160208801614382565b01601101949350505050565b600060208284031215614c2d57600080fd5b81516111c281614423565b600181811c90821680614c4c57607f821691505b60208210810361226c577f4e487b7100000000000000000000000000000000000000000000000000000000600052602260045260246000fd5b601f82111561141857600081815260208120601f850160051c81016020861015614cac5750805b601f850160051c820191505b81811015614ccb57828155600101614cb8565b505050505050565b815167ffffffffffffffff811115614ced57614ced614596565b614d0181614cfb8454614c38565b84614c85565b602080601f831160018114614d545760008415614d1e5750858301515b7fffffffffffffffffffffffffffffffffffffffffffffffffffffffffffffffff600386901b1c1916600185901b178555614ccb565b6000858152602081207fffffffffffffffffffffffffffffffffffffffffffffffffffffffffffffffe08616915b82811015614da157888601518255948401946001909101908401614d82565b5085821015614ddd57878501517fffffffffffffffffffffffffffffffffffffffffffffffffffffffffffffffff600388901b60f8161c191681555b5050505050600190811b01905550565b7f4e487b7100000000000000000000000000000000000000000000000000000000600052601160045260246000fd5b8082018082111561102857611028614ded565b8181038181111561102857611028614ded565b600060208284031215614e5457600080fd5b81516111c281614233565b7f4e487b7100000000000000000000000000000000000000000000000000000000600052603260045260246000fd5b7f434c502d00000000000000000000000000000000000000000000000000000000815260008351614ec6816004850160208801614382565b7f2d0000000000000000000000000000000000000000000000000000000000000060049390910192830152507fff00000000000000000000000000000000000000000000000000000000000000919091166005820152600601919050565b600060208284031215614f3657600080fd5b815167ffffffffffffffff811115614f4d57600080fd5b8201601f81018413614f5e57600080fd5b8051614f6c6146a282614614565b818152856020838501011115614f8157600080fd5b614f92826020830160208601614382565b95945050505050565b600081810b9083900b01607f81137fffffffffffffffffffffffffffffffffffffffffffffffffffffffffffffff808212171561102857611028614ded565b60006020808301818452808554614ff5818490815260200190565b60008881526020812094509092505b81600f82011015615146578354600181810b8552601082901c810b878601526040615037818701848a1c840b60010b9052565b606061504c8188018560301c850b60010b9052565b608061506081890186851c860b60010b9052565b60a092506150778389018660501c860b60010b9052565b60c061508b818a0187851c870b60010b9052565b60e092506150a2838a018760701c870b60010b9052565b85821c850b60010b6101008a01526150c56101208a018760901c870b60010b9052565b85841c850b60010b6101408a01526150e86101608a018760b01c870b60010b9052565b85811c850b60010b6101808a0152505061510d6101a088018560d01c850b60010b9052565b83811c830b60010b6101c088015250506151306101e086018360f01d60010b9052565b9490940193506102009290920191601001615004565b9254928181101561515e57600184810b845292850192015b8181101561517857601084901c60010b8352918401916001015b818110156151905783851c60010b8352918401916001015b818110156151aa57603084901c60010b8352918401916001015b818110156151c457604084901c60010b8352918401916001015b818110156151de57605084901c60010b8352918401916001015b818110156151f857606084901c60010b8352918401916001015b8181101561521257607084901c60010b8352918401916001015b8181101561522c57608084901c60010b8352918401916001015b8181101561524657609084901c60010b8352918401916001015b818110156152605760a084901c60010b8352918401916001015b8181101561527a5760b084901c60010b8352918401916001015b818110156152945760c084901c60010b8352918401916001015b818110156152ae5760d084901c60010b8352918401916001015b818110156152c85760e084901c60010b8352918401916001015b8181101561458a576152df838560f01d60010b9052565b505091909101949350505050565b6000602080838503121561530057600080fd5b825167ffffffffffffffff8082111561531857600080fd5b818501915085601f83011261532c57600080fd5b81518181111561533e5761533e614596565b8060051b915061534f8483016145c5565b818152918301840191848101908884111561536957600080fd5b938501935b838510156153875784518252938501939085019061536e565b98975050505050505050565b7f4e487b7100000000000000000000000000000000000000000000000000000000600052601260045260246000fd5b6000602082840312156153d457600080fd5b5051919050565b6000606082840312156153ed57600080fd5b6040516060810181811067ffffffffffffffff8211171561541057615410614596565b80604052508251815260208301516020820152604083015160408201528091505092915050565b60ff828116828216039081111561102857611028614ded565b60ff818116838216029081169081811461412157614121614ded565b600073ffffffffffffffffffffffffffffffffffffffff808416806154ba577f4e487b7100000000000000000000000000000000000000000000000000000000600052601260045260246000fd5b92169190910692915050565b61ffff81811683821601908082111561412157614121614ded565b61ffff82811682821603908082111561412157614121614ded565b6000815480845260208085019450836000528060002060005b838110156147d057815487529582019560019182019101615515565b604081526000615544604083018561478a565b8281036020840152614f9281856154fc565b6020815260006111c260208301846154fc565b7f4e487b7100000000000000000000000000000000000000000000000000000000600052603160045260246000fdfea2646970667358221220b476fb6a5eea077da2cebf4936176cc78172f767a1ff729745a255eddb93532364736f6c63430008130033",
  "devdoc": {
    "errors": {
      "AddLiquidityNotAllowed()": [
        {
          "details": "Error indicating that adding liquidity is not allowed during private mode."
        }
      ],
      "AddLiquiditySuspended()": [
        {
          "details": "Error indicating that adding liquidity is suspended."
        }
      ],
      "InvalidMinHoldingValueToRebalance()": [
        {
          "details": "Signifies that an invalid minHoldingValueToRebalance value has been encountered."
        }
      ],
      "InvalidRebalanceBPS()": [
        {
          "details": "Signifies that an invalid rebalance basis points value has been encountered."
        }
      ],
      "InvalidUtilizationTarget(uint16)": [
        {
          "details": "The invalid target basis points."
        }
      ],
      "NotAutomationCalled()": [
        {
          "details": "Thrown when an automation call is not made"
        }
      ],
      "NotImplementedInLogicContract()": [
        {
          "details": "Indicates that the functionality is not implemented in the logic contract."
        }
      ],
      "NotKeeperCalled()": [
        {
          "details": "Thrown when the keeper is not called."
        }
      ],
      "NotMarket()": [
        {
          "details": "Indicates that the operation is not applicable to the market."
        }
      ],
      "NotMatchDistributionLength(uint256,uint256)": [
        {
          "details": "Thrown when the lengths of the fee array and distribution array do not match.",
          "params": {
            "distributionLength": "The length of the distribution array.",
            "feeLength": "The length of the fee array."
          }
        }
      ],
      "NotOwner()": [
        {
          "details": "Signifies that the caller is not the owner of the contract"
        }
      ],
      "OnlyAccessableByOwner()": [
        {
          "details": "Signifies that the function is only accessible by the owner"
        }
      ],
      "OnlyBatchCall()": [
        {
          "details": "Denotes that the function can only be called within a batch call."
        }
      ],
      "RemoveLiquiditySuspended()": [
        {
          "details": "Error indicating that removing liquidity is suspended."
        }
      ],
      "TooSmallAmountToAddLiquidity()": [
        {
          "details": "Throws an error indicating that the amount to add liquidity is too small."
        }
      ],
      "UnknownLPAction()": [
        {
          "details": "Thrown when an unknown liquidity provider action is encountered"
        }
      ],
      "ZeroAddressError()": [
        {
          "details": "Error indicating an attempt to use a zero address."
        }
      ]
    },
    "events": {
      "AddLiquidity(uint256,address,address,uint256,uint256)": {
        "params": {
          "amount": "Amount of liquidity added in the settlement token.",
          "oracleVersion": "Version of the oracle used.",
          "provider": "Address of the liquidity provider.",
          "receiptId": "Unique identifier for the liquidity addition receipt.",
          "recipient": "Address of the recipient."
        }
      },
      "AddLiquiditySettled(uint256,address,address,uint256,uint256,uint256)": {
        "params": {
          "keeperFee": "Fee paid to the keeper.",
          "lpTokenAmount": "Amount of LP tokens issued.",
          "provider": "Address of the liquidity provider.",
          "receiptId": "Unique identifier for the liquidity addition receipt.",
          "recipient": "Address of the recipient.",
          "settlementAdded": "Settlement added to the liquidity"
        }
      },
      "Approval(address,address,uint256)": {
        "details": "Emitted when the allowance of a `spender` for an `owner` is set by a call to {approve}. `value` is the new allowance."
      },
      "OwnershipTransferred(address,address)": {
        "details": "Emitted when ownership of the LP contract is transferred.",
        "params": {
          "newOwner": "The address of the new owner.",
          "previousOwner": "The address of the previous owner."
        }
      },
      "RebalanceAddLiquidity(uint256,uint256,uint256,uint256)": {
        "params": {
          "amount": "Amount of liquidity added during rebalance.",
          "currentUtility": "Current utility of the liquidity provider.",
          "oracleVersion": "Version of the oracle used.",
          "receiptId": "Unique identifier for the rebalance liquidity addition receipt."
        }
      },
      "RebalanceRemoveLiquidity(uint256,uint256,uint256)": {
        "params": {
          "currentUtility": "Current utility of the liquidity pool.",
          "oracleVersion": "Version of the oracle used.",
          "receiptId": "Unique identifier for the rebalance liquidity removal receipt."
        }
      },
      "RebalanceSettled(uint256,uint256)": {
        "params": {
          "keeperFee": "Fee paid to the keeper.",
          "receiptId": "Unique identifier for the settled rebalance receipt."
        }
      },
      "RemoveLiquidity(uint256,address,address,uint256,uint256)": {
        "params": {
          "lpTokenAmount": "Amount of LP tokens to be removed.",
          "oracleVersion": "Version of the oracle used.",
          "provider": "Address of the liquidity provider.",
          "receiptId": "Unique identifier for the liquidity removal receipt.",
          "recipient": "Address of the recipient."
        }
      },
      "RemoveLiquiditySettled(uint256,address,address,uint256,uint256,uint256,uint256)": {
        "params": {
          "burningAmount": "Amount of LP tokens burned.",
          "keeperFee": "Fee paid to the keeper.",
          "provider": "Address of the liquidity provider.",
          "receiptId": "Unique identifier for the settled liquidity removal receipt.",
          "recipient": "Address of the recipient.",
          "refundedAmount": "Amount refunded to the provider.",
          "withdrawnSettlementAmount": "Withdrawn settlement amount."
        }
      },
      "SetAutomateLP(address)": {
        "params": {
          "automate": "The address of the AutomateLP contract."
        }
      },
      "SetAutomationFeeReserved(uint256)": {
        "details": "Emitted when the automation fee reserved value is updated.",
        "params": {
          "newValue": "The new value of the automation fee reserved."
        }
      },
      "SetLpName(string)": {
        "details": "Emitted when the name of the liquidity provider is updated.",
        "params": {
          "name": "The new name of the liquidity provider."
        }
      },
      "SetLpTag(string)": {
        "details": "Emitted when the tag of the liquidity provider is updated.",
        "params": {
          "tag": "The new tag associated with the liquidity provider."
        }
      },
      "SetMinHoldingValueToRebalance(uint256)": {
        "details": "Emitted when the minimum holding value to trigger rebalance is updated.",
        "params": {
          "newValue": "The new value of the minimum holding value to rebalance."
        }
      },
      "SetPrivateMode(bool)": {
        "details": "Emitted when the private/public mode is set.",
        "params": {
          "mode": "The new private/public mode ."
        }
      },
      "SetSuspendMode(uint8)": {
        "details": "Emitted when the suspension mode is set.",
        "params": {
          "mode": "The new suspension mode."
        }
      },
      "Transfer(address,address,uint256)": {
        "details": "Emitted when `value` tokens are moved from one account (`from`) to another (`to`). Note that `value` may be zero."
      }
    },
    "kind": "dev",
    "methods": {
      "addLiquidity(uint256,address)": {
        "details": "Adds liquidity to the Chromatic Protocol, minting LP tokens for the specified amount and assigning them to the recipient.",
        "params": {
          "amount": "The amount of liquidity to add.",
          "recipient": "The address of the recipient for the LP tokens."
        },
        "returns": {
          "_0": "ChromaticLPReceipt A data structure representing the receipt of the liquidity addition."
        }
      },
      "addLiquidityBatchCallback(address,address,bytes)": {
        "details": "not implemented",
        "params": {
          "data": "Additional data associated with the liquidity addition.",
          "settlementToken": "The address of the settlement token used for adding liquidity.",
          "vault": "The address of the vault where the liquidity is added."
        }
      },
      "addLiquidityCallback(address,address,bytes)": {
        "details": "not implemented",
        "params": {
          "data": "Additional data associated with the liquidity addition.",
          "settlementToken": "The address of the settlement token used for adding liquidity.",
          "vault": "The address of the vault where the liquidity is added."
        }
      },
      "allowance(address,address)": {
        "details": "See {IERC20-allowance}."
      },
      "allowedProviders()": {
        "details": "Retrieves the list of allowed providers for addLiquidity during private mode.",
        "returns": {
          "_0": "An array containing the addresses of allowed providers."
        }
      },
      "approve(address,uint256)": {
        "details": "See {IERC20-approve}. NOTE: If `amount` is the maximum `uint256`, the allowance is not updated on `transferFrom`. This is semantically equivalent to an infinite approval. Requirements: - `spender` cannot be the zero address."
      },
      "automateLP()": {
        "returns": {
          "_0": "The address of the AutomateLP contract."
        }
      },
      "automationFeeReserved()": {
        "details": "Retrieves the amount reserved as automation fee for automated operations within the liquidity provider.",
        "returns": {
          "_0": "The automation fee reserved amount."
        }
      },
      "balanceOf(address)": {
        "details": "See {IERC20-balanceOf}."
      },
      "cancelRebalanceTask()": {
        "details": "Cancels the currently active rebalance task in the liquidity provider. This is allowed for the owner of LP contract to call"
      },
      "cancelSettleTask(uint256)": {
        "details": "Cancels the settle task in the liquidity provider. This is allowed for the owner of LP contract to call",
        "params": {
          "receiptId": "The receipt ID associated with the settle execution."
        }
      },
      "checkRebalance()": {
        "details": "Checks whether a rebalance task is needed.",
        "returns": {
          "_0": "A boolean indicating whether a rebalance task is needed."
        }
      },
      "checkSettle(uint256)": {
        "details": "Checks whether a settle task is needed for a specific receipt ID.",
        "params": {
          "receiptId": "The unique identifier of the receipt associated with the task."
        },
        "returns": {
          "_0": "A boolean indicating whether a settle task is needed."
        }
      },
      "claimLiquidityBatchCallback(uint256[],int16[],uint256[],uint256[],bytes)": {
        "details": "not implemented",
        "params": {
          "data": "Additional data associated with the liquidity claim.",
          "depositedAmounts": "The array of deposited liquidity amounts for each receipt in the batch.",
          "feeRates": "The array of trading fee rates associated with each claim in the batch.",
          "mintedCLBTokenAmounts": "The array of CLB token amounts minted for each receipt in the batch.",
          "receiptIds": "The array of the liquidity receipt IDs."
        }
      },
      "claimLiquidityCallback(uint256,int16,uint256,uint256,bytes)": {
        "details": "not implemented",
        "params": {
          "data": "Additional data associated with the liquidity claim.",
          "depositedAmount": "The amount of liquidity deposited.",
          "feeRate": "The trading fee rate associated with the liquidity claim.",
          "mintedCLBTokenAmount": "The amount of CLB tokens minted as liquidity.",
          "receiptId": "The ID of the liquidity claim receipt."
        }
      },
      "clbTokenBalances()": {
        "details": "Retrieves the balances of CLB tokens held in the liquidity provider.",
        "returns": {
          "_clbTokenBalances": "An array of CLB token balances held in the liquidity provider."
        }
      },
      "clbTokenIds()": {
        "details": "Retrieves the token IDs of CLB tokens handled in the liquidity provider",
        "returns": {
          "_0": "An array of CLB token IDs handled in the liquidity provider."
        }
      },
      "clbTokenValues()": {
        "details": "Retrieves the values of CLB tokens held in the liquidity provider.",
        "returns": {
          "_clbTokenBalances": "An array of CLB token value held in the liquidity provider."
        }
      },
      "createRebalanceTask()": {
        "details": "Initiates the creation of a rebalance task in the liquidity provider. This is allowed for the owner of LP contract to call"
      },
      "decimals()": {
        "details": "Returns the number of decimals used to get its user representation. For example, if `decimals` equals `2`, a balance of `505` tokens should be displayed to a user as `5.05` (`505 / 10 ** 2`). Tokens usually opt for a value of 18, imitating the relationship between Ether and Wei. This is the default value returned by this function, unless it's overridden. NOTE: This information is only used for _display_ purposes: it in no way affects any of the arithmetic of the contract, including {IERC20-balanceOf} and {IERC20-transfer}."
      },
      "decreaseAllowance(address,uint256)": {
        "details": "Atomically decreases the allowance granted to `spender` by the caller. This is an alternative to {approve} that can be used as a mitigation for problems described in {IERC20-approve}. Emits an {Approval} event indicating the updated allowance. Requirements: - `spender` cannot be the zero address. - `spender` must have allowance for the caller of at least `subtractedValue`."
      },
      "distributionRates()": {
        "details": "Retrieves an array of distribution rates associated with different fee rates.",
        "returns": {
          "rates": "An array of distribution rates."
        }
      },
      "estimateMinAddLiquidityAmount()": {
        "details": "Estimates the minimum amount of liquidity that can be added by automation.",
        "returns": {
          "_0": "The minimum amount of liquidity in the settlement token that can be added."
        }
      },
      "estimateMinRemoveLiquidityAmount()": {
        "details": "Estimates the minimum amount of liquidity that can be removed by automation.",
        "returns": {
          "_0": "The minimum amount of liquidity in the LP token that can be removed."
        }
      },
      "feeRates()": {
        "details": "Retrieves the fee rates associated with various actions in the liquidity provider.",
        "returns": {
          "_0": "An array of fee rates for different actions within the liquidity pool."
        }
      },
      "getReceipt(uint256)": {
        "details": "Retrieves detailed information about a specific liquidity receipt identified by id.",
        "params": {
          "id": "The unique identifier of the liquidity receipt to retrieve."
        },
        "returns": {
          "_0": "A data structure representing the liquidity receipt."
        }
      },
      "getReceiptIdsOf(address)": {
        "details": "Retrieves the unique identifiers of all liquidity receipts owned by a given address.",
        "params": {
          "owner": "The address of the liquidity provider."
        },
        "returns": {
          "receiptIds": "An array of unique identifiers for the liquidity receipts owned by the specified address."
        }
      },
      "holdingClbValue()": {
        "details": "Retrieves the current holding CLB value in the liquidity provider.",
        "returns": {
          "value": "The current holding CLB value in the liquidity provider."
        }
      },
      "holdingValue()": {
        "details": "Retrieves the current holding value of the liquidity pool.",
        "returns": {
          "_0": "The current holding value in the liquidity provider."
        }
      },
      "increaseAllowance(address,uint256)": {
        "details": "Atomically increases the allowance granted to `spender` by the caller. This is an alternative to {approve} that can be used as a mitigation for problems described in {IERC20-approve}. Emits an {Approval} event indicating the updated allowance. Requirements: - `spender` cannot be the zero address."
      },
      "isAllowedProvider(address)": {
        "details": "Checks if a provider is allowed for addLiquidity during private mode.",
        "params": {
          "provider": "The address of the provider to check."
        },
        "returns": {
          "_0": "true if the provider is allowed, false otherwise."
        }
      },
      "longShortInfo()": {
        "details": "Retrieves information about the target of liquidity.",
        "returns": {
          "_0": "longShortInfo An integer representing long (1), short (-1), or both side(0)."
        }
      },
      "lpName()": {
        "details": "Retrieves the name of the Chromatic Protocol liquidity provider.",
        "returns": {
          "_0": "The name of the liquidity provider."
        }
      },
      "lpTag()": {
        "details": "Retrieves the tag associated with the Chromatic Protocol liquidity provider.",
        "returns": {
          "_0": "The tag associated with the liquidity provider"
        }
      },
      "lpToken()": {
        "details": "Retrieves the address of the LP token associated with the Chromatic Protocol liquidity provider.",
        "returns": {
          "_0": "The address of the LP (Liquidity Provider) token issued by the liquidity provider."
        }
      },
      "market()": {
        "details": "Retrieves the address of the market associated with the Chromatic Protocol liquidity provider.",
        "returns": {
          "_0": "The address of the market associated with the liquidity provider."
        }
      },
      "minHoldingValueToRebalance()": {
        "details": "Retrieves the minimum holding value required to trigger rebalance.",
        "returns": {
          "_0": "The minimum holding value to rebalance."
        }
      },
      "name()": {
        "details": "Returns the name of the token."
      },
      "onERC1155BatchReceived(address,address,uint256[],uint256[],bytes)": {
        "details": "Handles the receipt of a multiple ERC1155 token types. This function is called at the end of a `safeBatchTransferFrom` after the balances have been updated. NOTE: To accept the transfer(s), this must return `bytes4(keccak256(\"onERC1155BatchReceived(address,address,uint256[],uint256[],bytes)\"))` (i.e. 0xbc197c81, or its own function selector).",
        "params": {
          "data": "Additional data with no specified format",
          "from": "The address which previously owned the token",
          "ids": "An array containing ids of each token being transferred (order and length must match values array)",
          "operator": "The address which initiated the batch transfer (i.e. msg.sender)",
          "values": "An array containing amounts of each token being transferred (order and length must match ids array)"
        },
        "returns": {
          "_0": "`bytes4(keccak256(\"onERC1155BatchReceived(address,address,uint256[],uint256[],bytes)\"))` if transfer is allowed"
        }
      },
      "onERC1155Received(address,address,uint256,uint256,bytes)": {
        "details": "Handles the receipt of a single ERC1155 token type. This function is called at the end of a `safeTransferFrom` after the balance has been updated. NOTE: To accept the transfer, this must return `bytes4(keccak256(\"onERC1155Received(address,address,uint256,uint256,bytes)\"))` (i.e. 0xf23a6e61, or its own function selector).",
        "params": {
          "data": "Additional data with no specified format",
          "from": "The address which previously owned the token",
          "id": "The ID of the token being transferred",
          "operator": "The address which initiated the transfer (i.e. msg.sender)",
          "value": "The amount of tokens being transferred"
        },
        "returns": {
          "_0": "`bytes4(keccak256(\"onERC1155Received(address,address,uint256,uint256,bytes)\"))` if transfer is allowed"
        }
      },
      "owner()": {
        "details": "Retrieves the address of the current owner.",
        "returns": {
          "_0": "The address of the owner."
        }
      },
      "pendingClbValue()": {
        "details": "Retrieves the pending CLB value in the liquidity provider.",
        "returns": {
          "value": "The pending CLB value in the liquidity provider."
        }
      },
      "pendingRemoveClbBalances()": {
        "details": "An array of pending CLB token balances for removal. Retrieves the pending CLB token balances that are pending removal from the liquidity provider."
      },
      "pendingValue()": {
        "details": "Retrieves the pending value of the liquidity provider.",
        "returns": {
          "_0": "pendingValue The pending value in the liquidity pool."
        }
      },
      "privateMode()": {
        "details": "Retrieves the current private mode status of the LP.",
        "returns": {
          "_0": "true if private mode is enabled, false otherwise."
        }
      },
      "rebalance(address,uint256)": {
        "details": "called by automation only"
      },
      "rebalanceBPS()": {
        "details": "Retrieves the rebalance basis points (BPS) for the liquidity provider.",
        "returns": {
          "_0": "The rebalance BPS."
        }
      },
      "rebalanceCheckingInterval()": {
        "details": "Retrieves the time interval in seconds between checks for rebalance conditions.",
        "returns": {
          "_0": "The rebalance checking interval in seconds."
        }
      },
      "registerProvider(address)": {
        "details": "Registers a provider as allowed for addLiquidity during private mode.",
        "params": {
          "provider": "The address of the provider to register."
        }
      },
      "removeLiquidity(uint256,address)": {
        "details": "Removes liquidity from the Chromatic Protocol, burning the specified amount of LP tokens and transferring the corresponding assets to the recipient.",
        "params": {
          "lpTokenAmount": "The amount of LP tokens to remove.",
          "recipient": "The address of the recipient for the withdrawn assets."
        }
      },
      "removeLiquidityBatchCallback(address,uint256[],bytes)": {
        "details": "not implemented",
        "params": {
          "clbToken": "The address of the Chromatic liquidity token.",
          "clbTokenIds": "The array of the Chromatic liquidity token IDs to be removed.",
          "data": "Additional data associated with the liquidity removal."
        }
      },
      "removeLiquidityCallback(address,uint256,bytes)": {
        "details": "not implemented",
        "params": {
          "clbToken": "The address of the Chromatic liquidity token.",
          "clbTokenId": "The ID of the Chromatic liquidity token to be removed.",
          "data": "Additional data associated with the liquidity removal."
        }
      },
      "setAutomateLP(address)": {
        "params": {
          "automate": "The address of the AutomateLP contract."
        }
      },
      "setAutomationFeeReserved(uint256)": {
        "details": "Additional data to be used in the rebalance process.",
        "params": {
          "_automationFeeReserved": "The new value for the reserved automation fee."
        }
      },
      "setLpName(string)": {
        "details": "Sets the name of the Chromatic Protocol liquidity provider.",
        "params": {
          "newName": "The new name for the liquidity provider."
        }
      },
      "setLpTag(string)": {
        "details": "Sets the tag associated with the Chromatic Protocol liquidity provider.",
        "params": {
          "newTag": "The new tag for the liquidity provider."
        }
      },
      "setMinHoldingValueToRebalance(uint256)": {
        "details": "Additional data to be used in the rebalance process.",
        "params": {
          "_minHoldingValueToRebalance": "The new value for the required minimum amount to trigger rebalance."
        }
      },
      "setPrivateMode(bool)": {
        "details": "Sets the private mode for the LP.",
        "params": {
          "isPrivate": "The new private mode status."
        }
      },
      "setSuspendMode(uint8)": {
        "details": "Sets the suspension mode for the LP.",
        "params": {
          "mode": "The new suspension mode to be set."
        }
      },
      "settle(uint256)": {
        "details": "Initiates the settlement process for a specific liquidity receipt identified by receiptId.",
        "params": {
          "receiptId": "The unique identifier of the liquidity receipt to settle."
        },
        "returns": {
          "_0": "true if the settlement is successful, false otherwise."
        }
      },
      "settleTask(uint256,address,uint256)": {
        "details": "called by automation only"
      },
      "settlementToken()": {
        "details": "Retrieves the address of the settlement token associated with the Chromatic Protocol liquidity provider.",
        "returns": {
          "_0": "The address of the settlement token used in the liquidity provider."
        }
      },
      "supportsInterface(bytes4)": {
        "details": "Returns true if this contract implements the interface defined by `interfaceId`. See the corresponding https://eips.ethereum.org/EIPS/eip-165#how-interfaces-are-identified[EIP section] to learn more about how these ids are created. This function call must use less than 30 000 gas."
      },
      "suspendMode()": {
        "details": "Retrieves the current suspension mode of the LP.",
        "returns": {
          "_0": "The current suspension mode."
        }
      },
      "symbol()": {
        "details": "Returns the symbol of the token, usually a shorter version of the name."
      },
      "totalClbValue()": {
        "details": "Retrieves the total CLB value in the liquidity provider, combining holding and pending CLB values.",
        "returns": {
          "value": "The total CLB value in the liquidity provider."
        }
      },
      "totalSupply()": {
        "details": "See {IERC20-totalSupply}."
      },
      "totalValue()": {
        "details": "The total value of the liquidity provider"
      },
      "transfer(address,uint256)": {
        "details": "See {IERC20-transfer}. Requirements: - `to` cannot be the zero address. - the caller must have a balance of at least `amount`."
      },
      "transferFrom(address,address,uint256)": {
        "details": "See {IERC20-transferFrom}. Emits an {Approval} event indicating the updated allowance. This is not required by the EIP. See the note at the beginning of {ERC20}. NOTE: Does not update the allowance if the current allowance is the maximum `uint256`. Requirements: - `from` and `to` cannot be the zero address. - `from` must have a balance of at least `amount`. - the caller must have allowance for ``from``'s tokens of at least `amount`."
      },
      "transferOwnership(address)": {
        "details": "Transfers ownership of the contract to a new account (`newOwner`). Can only be called by the current owner."
      },
      "unregisterProvider(address)": {
        "details": "Unregisters a provider as allowed for addLiquidity during private mode.",
        "params": {
          "provider": "The address of the provider to unregister."
        }
      },
      "utilization()": {
        "details": "The current utilization of the liquidity provider, represented in basis points (BPS)"
      },
      "utilizationTargetBPS()": {
        "details": "Retrieves the target utilization rate in basis points (BPS) for the liquidity provider.",
        "returns": {
          "_0": "The target utilization rate in BPS."
        }
      },
      "valueInfo()": {
        "details": "Retrieves the total value of the liquidity provider, including both holding and pending values.",
        "returns": {
          "info": "A ValueInfo struct containing total, holding, pending, holdingClb, and pendingClb values."
        }
      },
      "withdrawLiquidityBatchCallback(uint256[],int16[],uint256[],uint256[],bytes)": {
        "details": "not implemented",
        "params": {
          "burnedCLBTokenAmounts": "The array of CLB token amounts burned for each receipt in the batch.",
          "data": "Additional data associated with the liquidity withdrawal.",
          "feeRates": "The array of trading fee rates associated with each withdrawal in the batch.",
          "receiptIds": "The array of the liquidity receipt IDs.",
          "withdrawnAmounts": "The array of withdrawn liquidity amounts for each receipt in the batch."
        }
      },
      "withdrawLiquidityCallback(uint256,int16,uint256,uint256,bytes)": {
        "details": "not implemented",
        "params": {
          "burnedCLBTokenAmount": "The amount of CLB tokens burned during the withdrawal.",
          "data": "Additional data associated with the liquidity withdrawal.",
          "feeRate": "The trading fee rate associated with the liquidity withdrawal.",
          "receiptId": "The ID of the liquidity withdrawal receipt.",
          "withdrawnAmount": "The amount of liquidity that has been withdrawn."
        }
      }
    },
    "version": 1
  },
  "userdoc": {
    "events": {
      "AddLiquidity(uint256,address,address,uint256,uint256)": {
        "notice": "Emitted when addLiquidity is performed."
      },
      "AddLiquiditySettled(uint256,address,address,uint256,uint256,uint256)": {
        "notice": "Emitted when addLiquidity is settled."
      },
      "RebalanceAddLiquidity(uint256,uint256,uint256,uint256)": {
        "notice": "Emitted when rebalance of adding liquidity is performed."
      },
      "RebalanceRemoveLiquidity(uint256,uint256,uint256)": {
        "notice": "Emitted when rebalance of removing liquidity is performed."
      },
      "RebalanceSettled(uint256,uint256)": {
        "notice": "Emitted when rebalancing is settled."
      },
      "RemoveLiquidity(uint256,address,address,uint256,uint256)": {
        "notice": "Emitted when removeLiquidity is performed."
      },
      "RemoveLiquiditySettled(uint256,address,address,uint256,uint256,uint256,uint256)": {
        "notice": "Emitted when removeLiquidity is settled."
      },
      "SetAutomateLP(address)": {
        "notice": "Emitted when the AutomateLP address is set."
      }
    },
    "kind": "user",
    "methods": {
      "addLiquidityBatchCallback(address,address,bytes)": {
        "notice": "Handles the callback after adding liquidity to the Chromatic protocol."
      },
      "addLiquidityCallback(address,address,bytes)": {
        "notice": "Handles the callback after adding liquidity to the Chromatic protocol."
      },
      "automateLP()": {
        "notice": "Gets the current AutomateLP contract address."
      },
      "claimLiquidityBatchCallback(uint256[],int16[],uint256[],uint256[],bytes)": {
        "notice": "Handles the callback after claiming liquidity from the Chromatic protocol."
      },
      "claimLiquidityCallback(uint256,int16,uint256,uint256,bytes)": {
        "notice": "Handles the callback after claiming liquidity from the Chromatic protocol."
      },
      "removeLiquidityBatchCallback(address,uint256[],bytes)": {
        "notice": "Handles the callback after removing liquidity from the Chromatic protocol."
      },
      "removeLiquidityCallback(address,uint256,bytes)": {
        "notice": "Handles the callback after removing liquidity from the Chromatic protocol."
      },
      "setAutomateLP(address)": {
        "notice": "Sets the AutomateLP contract address."
      },
      "withdrawLiquidityBatchCallback(uint256[],int16[],uint256[],uint256[],bytes)": {
        "notice": "Handles the callback after withdrawing liquidity from the Chromatic protocol."
      },
      "withdrawLiquidityCallback(uint256,int16,uint256,uint256,bytes)": {
        "notice": "Handles the callback after withdrawing liquidity from the Chromatic protocol."
      }
    },
    "version": 1
  },
  "storageLayout": {
    "storage": [
      {
        "astId": 6574,
        "contract": "contracts/lp/ChromaticLP.sol:ChromaticLP",
        "label": "_balances",
        "offset": 0,
        "slot": "0",
        "type": "t_mapping(t_address,t_uint256)"
      },
      {
        "astId": 6580,
        "contract": "contracts/lp/ChromaticLP.sol:ChromaticLP",
        "label": "_allowances",
        "offset": 0,
        "slot": "1",
        "type": "t_mapping(t_address,t_mapping(t_address,t_uint256))"
      },
      {
        "astId": 6582,
        "contract": "contracts/lp/ChromaticLP.sol:ChromaticLP",
        "label": "_totalSupply",
        "offset": 0,
        "slot": "2",
        "type": "t_uint256"
      },
      {
        "astId": 6584,
        "contract": "contracts/lp/ChromaticLP.sol:ChromaticLP",
        "label": "_name",
        "offset": 0,
        "slot": "3",
        "type": "t_string_storage"
      },
      {
        "astId": 6586,
        "contract": "contracts/lp/ChromaticLP.sol:ChromaticLP",
        "label": "_symbol",
        "offset": 0,
        "slot": "4",
        "type": "t_string_storage"
      },
      {
        "astId": 20095,
        "contract": "contracts/lp/ChromaticLP.sol:ChromaticLP",
        "label": "s_meta",
        "offset": 0,
        "slot": "5",
        "type": "t_struct(LPMeta)20078_storage"
      },
      {
        "astId": 20098,
        "contract": "contracts/lp/ChromaticLP.sol:ChromaticLP",
        "label": "s_config",
        "offset": 0,
        "slot": "7",
        "type": "t_struct(LPConfig)21193_storage"
      },
      {
        "astId": 20101,
        "contract": "contracts/lp/ChromaticLP.sol:ChromaticLP",
        "label": "s_state",
        "offset": 0,
        "slot": "11",
        "type": "t_struct(LPState)21293_storage"
      },
      {
        "astId": 19956,
        "contract": "contracts/lp/ChromaticLP.sol:ChromaticLP",
        "label": "s_task",
        "offset": 0,
        "slot": "22",
        "type": "t_mapping(t_uint256,t_contract(IAutomateLP)20414)"
      },
      {
        "astId": 19959,
        "contract": "contracts/lp/ChromaticLP.sol:ChromaticLP",
        "label": "s_automate",
        "offset": 0,
        "slot": "23",
        "type": "t_contract(IAutomateLP)20414"
      },
      {
        "astId": 20262,
        "contract": "contracts/lp/ChromaticLP.sol:ChromaticLP",
        "label": "_mode",
        "offset": 20,
        "slot": "23",
        "type": "t_enum(SuspendModeType)20254"
      },
      {
        "astId": 20143,
        "contract": "contracts/lp/ChromaticLP.sol:ChromaticLP",
        "label": "_isPrivateMode",
        "offset": 21,
        "slot": "23",
        "type": "t_bool"
      },
      {
        "astId": 20146,
        "contract": "contracts/lp/ChromaticLP.sol:ChromaticLP",
        "label": "_addLiquidityAllowed",
        "offset": 0,
        "slot": "24",
        "type": "t_struct(AddressSet)10862_storage"
      },
      {
        "astId": 17834,
        "contract": "contracts/lp/ChromaticLP.sol:ChromaticLP",
        "label": "_owner",
        "offset": 0,
        "slot": "26",
        "type": "t_address"
      }
    ],
    "types": {
      "t_address": {
        "encoding": "inplace",
        "label": "address",
        "numberOfBytes": "20"
      },
      "t_array(t_bytes32)dyn_storage": {
        "base": "t_bytes32",
        "encoding": "dynamic_array",
        "label": "bytes32[]",
        "numberOfBytes": "32"
      },
      "t_array(t_int16)dyn_storage": {
        "base": "t_int16",
        "encoding": "dynamic_array",
        "label": "int16[]",
        "numberOfBytes": "32"
      },
      "t_array(t_uint256)dyn_storage": {
        "base": "t_uint256",
        "encoding": "dynamic_array",
        "label": "uint256[]",
        "numberOfBytes": "32"
      },
      "t_bool": {
        "encoding": "inplace",
        "label": "bool",
        "numberOfBytes": "1"
      },
      "t_bytes32": {
        "encoding": "inplace",
        "label": "bytes32",
        "numberOfBytes": "32"
      },
      "t_contract(IAutomateLP)20414": {
        "encoding": "inplace",
        "label": "contract IAutomateLP",
        "numberOfBytes": "20"
      },
      "t_contract(IChromaticMarket)2056": {
        "encoding": "inplace",
        "label": "contract IChromaticMarket",
        "numberOfBytes": "20"
      },
      "t_enum(ChromaticLPAction)21148": {
        "encoding": "inplace",
        "label": "enum ChromaticLPAction",
        "numberOfBytes": "1"
      },
      "t_enum(SuspendModeType)20254": {
        "encoding": "inplace",
        "label": "enum SuspendModeType",
        "numberOfBytes": "1"
      },
      "t_int16": {
        "encoding": "inplace",
        "label": "int16",
        "numberOfBytes": "2"
      },
      "t_mapping(t_address,t_mapping(t_address,t_uint256))": {
        "encoding": "mapping",
        "key": "t_address",
        "label": "mapping(address => mapping(address => uint256))",
        "numberOfBytes": "32",
        "value": "t_mapping(t_address,t_uint256)"
      },
      "t_mapping(t_address,t_struct(UintSet)11019_storage)": {
        "encoding": "mapping",
        "key": "t_address",
        "label": "mapping(address => struct EnumerableSet.UintSet)",
        "numberOfBytes": "32",
        "value": "t_struct(UintSet)11019_storage"
      },
      "t_mapping(t_address,t_uint256)": {
        "encoding": "mapping",
        "key": "t_address",
        "label": "mapping(address => uint256)",
        "numberOfBytes": "32",
        "value": "t_uint256"
      },
      "t_mapping(t_bytes32,t_uint256)": {
        "encoding": "mapping",
        "key": "t_bytes32",
        "label": "mapping(bytes32 => uint256)",
        "numberOfBytes": "32",
        "value": "t_uint256"
      },
      "t_mapping(t_int16,t_uint16)": {
        "encoding": "mapping",
        "key": "t_int16",
        "label": "mapping(int16 => uint16)",
        "numberOfBytes": "32",
        "value": "t_uint16"
      },
      "t_mapping(t_int16,t_uint256)": {
        "encoding": "mapping",
        "key": "t_int16",
        "label": "mapping(int16 => uint256)",
        "numberOfBytes": "32",
        "value": "t_uint256"
      },
      "t_mapping(t_uint256,t_contract(IAutomateLP)20414)": {
        "encoding": "mapping",
        "key": "t_uint256",
        "label": "mapping(uint256 => contract IAutomateLP)",
        "numberOfBytes": "32",
        "value": "t_contract(IAutomateLP)20414"
      },
      "t_mapping(t_uint256,t_struct(ChromaticLPReceipt)21166_storage)": {
        "encoding": "mapping",
        "key": "t_uint256",
        "label": "mapping(uint256 => struct ChromaticLPReceipt)",
        "numberOfBytes": "32",
        "value": "t_struct(ChromaticLPReceipt)21166_storage"
      },
      "t_mapping(t_uint256,t_struct(UintSet)11019_storage)": {
        "encoding": "mapping",
        "key": "t_uint256",
        "label": "mapping(uint256 => struct EnumerableSet.UintSet)",
        "numberOfBytes": "32",
        "value": "t_struct(UintSet)11019_storage"
      },
      "t_string_storage": {
        "encoding": "bytes",
        "label": "string",
        "numberOfBytes": "32"
      },
      "t_struct(AddressSet)10862_storage": {
        "encoding": "inplace",
        "label": "struct EnumerableSet.AddressSet",
        "members": [
          {
            "astId": 10861,
            "contract": "contracts/lp/ChromaticLP.sol:ChromaticLP",
            "label": "_inner",
            "offset": 0,
            "slot": "0",
            "type": "t_struct(Set)10547_storage"
          }
        ],
        "numberOfBytes": "64"
      },
      "t_struct(ChromaticLPReceipt)21166_storage": {
        "encoding": "inplace",
        "label": "struct ChromaticLPReceipt",
        "members": [
          {
            "astId": 21150,
            "contract": "contracts/lp/ChromaticLP.sol:ChromaticLP",
            "label": "id",
            "offset": 0,
            "slot": "0",
            "type": "t_uint256"
          },
          {
            "astId": 21152,
            "contract": "contracts/lp/ChromaticLP.sol:ChromaticLP",
            "label": "provider",
            "offset": 0,
            "slot": "1",
            "type": "t_address"
          },
          {
            "astId": 21154,
            "contract": "contracts/lp/ChromaticLP.sol:ChromaticLP",
            "label": "recipient",
            "offset": 0,
            "slot": "2",
            "type": "t_address"
          },
          {
            "astId": 21156,
            "contract": "contracts/lp/ChromaticLP.sol:ChromaticLP",
            "label": "oracleVersion",
            "offset": 0,
            "slot": "3",
            "type": "t_uint256"
          },
          {
            "astId": 21158,
            "contract": "contracts/lp/ChromaticLP.sol:ChromaticLP",
            "label": "amount",
            "offset": 0,
            "slot": "4",
            "type": "t_uint256"
          },
          {
            "astId": 21160,
            "contract": "contracts/lp/ChromaticLP.sol:ChromaticLP",
            "label": "pendingLiquidity",
            "offset": 0,
            "slot": "5",
            "type": "t_uint256"
          },
          {
            "astId": 21163,
            "contract": "contracts/lp/ChromaticLP.sol:ChromaticLP",
            "label": "action",
            "offset": 0,
            "slot": "6",
            "type": "t_enum(ChromaticLPAction)21148"
          },
          {
            "astId": 21165,
            "contract": "contracts/lp/ChromaticLP.sol:ChromaticLP",
            "label": "needSettle",
            "offset": 1,
            "slot": "6",
            "type": "t_bool"
          }
        ],
        "numberOfBytes": "224"
      },
      "t_struct(LPConfig)21193_storage": {
        "encoding": "inplace",
        "label": "struct LPConfig",
        "members": [
          {
            "astId": 21184,
            "contract": "contracts/lp/ChromaticLP.sol:ChromaticLP",
            "label": "utilizationTargetBPS",
            "offset": 0,
            "slot": "0",
            "type": "t_uint16"
          },
          {
            "astId": 21186,
            "contract": "contracts/lp/ChromaticLP.sol:ChromaticLP",
            "label": "rebalanceBPS",
            "offset": 2,
            "slot": "0",
            "type": "t_uint16"
          },
          {
            "astId": 21188,
            "contract": "contracts/lp/ChromaticLP.sol:ChromaticLP",
            "label": "rebalanceCheckingInterval",
            "offset": 0,
            "slot": "1",
            "type": "t_uint256"
          },
          {
            "astId": 21190,
            "contract": "contracts/lp/ChromaticLP.sol:ChromaticLP",
            "label": "automationFeeReserved",
            "offset": 0,
            "slot": "2",
            "type": "t_uint256"
          },
          {
            "astId": 21192,
            "contract": "contracts/lp/ChromaticLP.sol:ChromaticLP",
            "label": "minHoldingValueToRebalance",
            "offset": 0,
            "slot": "3",
            "type": "t_uint256"
          }
        ],
        "numberOfBytes": "128"
      },
      "t_struct(LPMeta)20078_storage": {
        "encoding": "inplace",
        "label": "struct ChromaticLPStorageCore.LPMeta",
        "members": [
          {
            "astId": 20075,
            "contract": "contracts/lp/ChromaticLP.sol:ChromaticLP",
            "label": "lpName",
            "offset": 0,
            "slot": "0",
            "type": "t_string_storage"
          },
          {
            "astId": 20077,
            "contract": "contracts/lp/ChromaticLP.sol:ChromaticLP",
            "label": "tag",
            "offset": 0,
            "slot": "1",
            "type": "t_string_storage"
          }
        ],
        "numberOfBytes": "64"
      },
      "t_struct(LPState)21293_storage": {
        "encoding": "inplace",
        "label": "struct LPState",
        "members": [
          {
            "astId": 21257,
            "contract": "contracts/lp/ChromaticLP.sol:ChromaticLP",
            "label": "market",
            "offset": 0,
            "slot": "0",
            "type": "t_contract(IChromaticMarket)2056"
          },
          {
            "astId": 21260,
            "contract": "contracts/lp/ChromaticLP.sol:ChromaticLP",
            "label": "feeRates",
            "offset": 0,
            "slot": "1",
            "type": "t_array(t_int16)dyn_storage"
          },
          {
            "astId": 21264,
            "contract": "contracts/lp/ChromaticLP.sol:ChromaticLP",
            "label": "distributionRates",
            "offset": 0,
            "slot": "2",
            "type": "t_mapping(t_int16,t_uint16)"
          },
          {
            "astId": 21266,
            "contract": "contracts/lp/ChromaticLP.sol:ChromaticLP",
            "label": "totalRate",
            "offset": 0,
            "slot": "3",
            "type": "t_uint256"
          },
          {
            "astId": 21269,
            "contract": "contracts/lp/ChromaticLP.sol:ChromaticLP",
            "label": "clbTokenIds",
            "offset": 0,
            "slot": "4",
            "type": "t_array(t_uint256)dyn_storage"
          },
          {
            "astId": 21274,
            "contract": "contracts/lp/ChromaticLP.sol:ChromaticLP",
            "label": "receipts",
            "offset": 0,
            "slot": "5",
            "type": "t_mapping(t_uint256,t_struct(ChromaticLPReceipt)21166_storage)"
          },
          {
            "astId": 21279,
            "contract": "contracts/lp/ChromaticLP.sol:ChromaticLP",
            "label": "lpReceiptMap",
            "offset": 0,
            "slot": "6",
            "type": "t_mapping(t_uint256,t_struct(UintSet)11019_storage)"
          },
          {
            "astId": 21284,
            "contract": "contracts/lp/ChromaticLP.sol:ChromaticLP",
            "label": "providerReceiptIds",
            "offset": 0,
            "slot": "7",
            "type": "t_mapping(t_address,t_struct(UintSet)11019_storage)"
          },
          {
            "astId": 21286,
            "contract": "contracts/lp/ChromaticLP.sol:ChromaticLP",
            "label": "pendingAddAmount",
            "offset": 0,
            "slot": "8",
            "type": "t_uint256"
          },
          {
            "astId": 21290,
            "contract": "contracts/lp/ChromaticLP.sol:ChromaticLP",
            "label": "pendingRemoveClbAmounts",
            "offset": 0,
            "slot": "9",
            "type": "t_mapping(t_int16,t_uint256)"
          },
          {
            "astId": 21292,
            "contract": "contracts/lp/ChromaticLP.sol:ChromaticLP",
            "label": "receiptId",
            "offset": 0,
            "slot": "10",
            "type": "t_uint256"
          }
        ],
        "numberOfBytes": "352"
      },
      "t_struct(Set)10547_storage": {
        "encoding": "inplace",
        "label": "struct EnumerableSet.Set",
        "members": [
          {
            "astId": 10542,
            "contract": "contracts/lp/ChromaticLP.sol:ChromaticLP",
            "label": "_values",
            "offset": 0,
            "slot": "0",
            "type": "t_array(t_bytes32)dyn_storage"
          },
          {
            "astId": 10546,
            "contract": "contracts/lp/ChromaticLP.sol:ChromaticLP",
            "label": "_indexes",
            "offset": 0,
            "slot": "1",
            "type": "t_mapping(t_bytes32,t_uint256)"
          }
        ],
        "numberOfBytes": "64"
      },
      "t_struct(UintSet)11019_storage": {
        "encoding": "inplace",
        "label": "struct EnumerableSet.UintSet",
        "members": [
          {
            "astId": 11018,
            "contract": "contracts/lp/ChromaticLP.sol:ChromaticLP",
            "label": "_inner",
            "offset": 0,
            "slot": "0",
            "type": "t_struct(Set)10547_storage"
          }
        ],
        "numberOfBytes": "64"
      },
      "t_uint16": {
        "encoding": "inplace",
        "label": "uint16",
        "numberOfBytes": "2"
      },
      "t_uint256": {
        "encoding": "inplace",
        "label": "uint256",
        "numberOfBytes": "32"
      }
    }
  }
}