{
  "address": "0x19C9C8CE6bc9D9EFdbe47447eB999bD10958Ce2e",
  "abi": [
    {
      "inputs": [
        {
          "internalType": "bytes32",
          "name": "_version",
          "type": "bytes32"
        }
      ],
      "stateMutability": "nonpayable",
      "type": "constructor"
    },
    {
      "inputs": [],
      "name": "AddLiquidityNotAllowed",
      "type": "error"
    },
    {
      "inputs": [],
      "name": "AddLiquiditySuspended",
      "type": "error"
    },
    {
      "inputs": [],
      "name": "AlreadySettled",
      "type": "error"
    },
    {
      "inputs": [],
      "name": "InvalidMinHoldingValueToRebalance",
      "type": "error"
    },
    {
      "inputs": [],
      "name": "InvalidRebalanceBPS",
      "type": "error"
    },
    {
      "inputs": [],
      "name": "InvalidReceiptId",
      "type": "error"
    },
    {
      "inputs": [
        {
          "internalType": "uint16",
          "name": "targetBPS",
          "type": "uint16"
        }
      ],
      "name": "InvalidUtilizationTarget",
      "type": "error"
    },
    {
      "inputs": [],
      "name": "NotAutomationCalled",
      "type": "error"
    },
    {
      "inputs": [],
      "name": "NotImplementedInLogicContract",
      "type": "error"
    },
    {
      "inputs": [],
      "name": "NotKeeperCalled",
      "type": "error"
    },
    {
      "inputs": [],
      "name": "NotMarket",
      "type": "error"
    },
    {
      "inputs": [
        {
          "internalType": "uint256",
          "name": "feeLength",
          "type": "uint256"
        },
        {
          "internalType": "uint256",
          "name": "distributionLength",
          "type": "uint256"
        }
      ],
      "name": "NotMatchDistributionLength",
      "type": "error"
    },
    {
      "inputs": [],
      "name": "NotOwner",
      "type": "error"
    },
    {
      "inputs": [],
      "name": "OnlyAccessableByDao",
      "type": "error"
    },
    {
      "inputs": [],
      "name": "OnlyBatchCall",
      "type": "error"
    },
    {
      "inputs": [],
      "name": "OnlyDelegateCall",
      "type": "error"
    },
    {
      "inputs": [],
      "name": "OracleVersionError",
      "type": "error"
    },
    {
      "inputs": [],
      "name": "RemoveLiquiditySuspended",
      "type": "error"
    },
    {
      "inputs": [],
      "name": "TooSmallAmountToAddLiquidity",
      "type": "error"
    },
    {
      "inputs": [],
      "name": "UnknownLPAction",
      "type": "error"
    },
    {
      "inputs": [],
      "name": "UpgradeFailed",
      "type": "error"
    },
    {
      "inputs": [],
      "name": "UpgradeFailedNotContractAddress",
      "type": "error"
    },
    {
      "inputs": [],
      "name": "ZeroAddressError",
      "type": "error"
    },
    {
      "inputs": [],
      "name": "ZeroRemoveLiquidityError",
      "type": "error"
    },
    {
      "anonymous": false,
      "inputs": [
        {
          "indexed": true,
          "internalType": "uint256",
          "name": "receiptId",
          "type": "uint256"
        },
        {
          "indexed": true,
          "internalType": "address",
          "name": "provider",
          "type": "address"
        },
        {
          "indexed": true,
          "internalType": "address",
          "name": "recipient",
          "type": "address"
        },
        {
          "indexed": false,
          "internalType": "uint256",
          "name": "oracleVersion",
          "type": "uint256"
        },
        {
          "indexed": false,
          "internalType": "uint256",
          "name": "amount",
          "type": "uint256"
        }
      ],
      "name": "AddLiquidity",
      "type": "event"
    },
    {
      "anonymous": false,
      "inputs": [
        {
          "indexed": true,
          "internalType": "uint256",
          "name": "receiptId",
          "type": "uint256"
        },
        {
          "indexed": true,
          "internalType": "address",
          "name": "provider",
          "type": "address"
        },
        {
          "indexed": true,
          "internalType": "address",
          "name": "recipient",
          "type": "address"
        },
        {
          "indexed": false,
          "internalType": "uint256",
          "name": "settlementAdded",
          "type": "uint256"
        },
        {
          "indexed": false,
          "internalType": "uint256",
          "name": "lpTokenAmount",
          "type": "uint256"
        },
        {
          "indexed": false,
          "internalType": "uint256",
          "name": "keeperFee",
          "type": "uint256"
        }
      ],
      "name": "AddLiquiditySettled",
      "type": "event"
    },
    {
      "anonymous": false,
      "inputs": [
        {
          "indexed": true,
          "internalType": "address",
          "name": "owner",
          "type": "address"
        },
        {
          "indexed": true,
          "internalType": "address",
          "name": "spender",
          "type": "address"
        },
        {
          "indexed": false,
          "internalType": "uint256",
          "name": "value",
          "type": "uint256"
        }
      ],
      "name": "Approval",
      "type": "event"
    },
    {
      "anonymous": false,
      "inputs": [
        {
          "indexed": true,
          "internalType": "uint256",
          "name": "receiptId",
          "type": "uint256"
        },
        {
          "indexed": false,
          "internalType": "uint256",
          "name": "oracleVersion",
          "type": "uint256"
        },
        {
          "indexed": false,
          "internalType": "uint256",
          "name": "amount",
          "type": "uint256"
        },
        {
          "indexed": false,
          "internalType": "uint256",
          "name": "currentUtility",
          "type": "uint256"
        }
      ],
      "name": "RebalanceAddLiquidity",
      "type": "event"
    },
    {
      "anonymous": false,
      "inputs": [
        {
          "indexed": true,
          "internalType": "uint256",
          "name": "receiptId",
          "type": "uint256"
        },
        {
          "indexed": false,
          "internalType": "uint256",
          "name": "oracleVersion",
          "type": "uint256"
        },
        {
          "indexed": false,
          "internalType": "uint256",
          "name": "currentUtility",
          "type": "uint256"
        }
      ],
      "name": "RebalanceRemoveLiquidity",
      "type": "event"
    },
    {
      "anonymous": false,
      "inputs": [
        {
          "indexed": true,
          "internalType": "uint256",
          "name": "receiptId",
          "type": "uint256"
        },
        {
          "indexed": false,
          "internalType": "uint256",
          "name": "keeperFee",
          "type": "uint256"
        }
      ],
      "name": "RebalanceSettled",
      "type": "event"
    },
    {
      "anonymous": false,
      "inputs": [
        {
          "indexed": true,
          "internalType": "uint256",
          "name": "receiptId",
          "type": "uint256"
        },
        {
          "indexed": true,
          "internalType": "address",
          "name": "provider",
          "type": "address"
        },
        {
          "indexed": true,
          "internalType": "address",
          "name": "recipient",
          "type": "address"
        },
        {
          "indexed": false,
          "internalType": "uint256",
          "name": "oracleVersion",
          "type": "uint256"
        },
        {
          "indexed": false,
          "internalType": "uint256",
          "name": "lpTokenAmount",
          "type": "uint256"
        }
      ],
      "name": "RemoveLiquidity",
      "type": "event"
    },
    {
      "anonymous": false,
      "inputs": [
        {
          "indexed": true,
          "internalType": "uint256",
          "name": "receiptId",
          "type": "uint256"
        },
        {
          "indexed": true,
          "internalType": "address",
          "name": "provider",
          "type": "address"
        },
        {
          "indexed": true,
          "internalType": "address",
          "name": "recipient",
          "type": "address"
        },
        {
          "indexed": false,
          "internalType": "uint256",
          "name": "burningAmount",
          "type": "uint256"
        },
        {
          "indexed": false,
          "internalType": "uint256",
          "name": "withdrawnSettlementAmount",
          "type": "uint256"
        },
        {
          "indexed": false,
          "internalType": "uint256",
          "name": "refundedAmount",
          "type": "uint256"
        },
        {
          "indexed": false,
          "internalType": "uint256",
          "name": "keeperFee",
          "type": "uint256"
        }
      ],
      "name": "RemoveLiquiditySettled",
      "type": "event"
    },
    {
      "anonymous": false,
      "inputs": [
        {
          "indexed": false,
          "internalType": "address",
          "name": "automate",
          "type": "address"
        }
      ],
      "name": "SetAutomateLP",
      "type": "event"
    },
    {
      "anonymous": false,
      "inputs": [
        {
          "indexed": false,
          "internalType": "bool",
          "name": "mode",
          "type": "bool"
        }
      ],
      "name": "SetPrivateMode",
      "type": "event"
    },
    {
      "anonymous": false,
      "inputs": [
        {
          "indexed": false,
          "internalType": "uint8",
          "name": "mode",
          "type": "uint8"
        }
      ],
      "name": "SetSuspendMode",
      "type": "event"
    },
    {
      "anonymous": false,
      "inputs": [
        {
          "indexed": true,
          "internalType": "address",
          "name": "from",
          "type": "address"
        },
        {
          "indexed": true,
          "internalType": "address",
          "name": "to",
          "type": "address"
        },
        {
          "indexed": false,
          "internalType": "uint256",
          "name": "value",
          "type": "uint256"
        }
      ],
      "name": "Transfer",
      "type": "event"
    },
    {
      "anonymous": false,
      "inputs": [
        {
          "indexed": false,
          "internalType": "address",
          "name": "previousLogic",
          "type": "address"
        },
        {
          "indexed": true,
          "internalType": "address",
          "name": "newLogic",
          "type": "address"
        }
      ],
      "name": "Upgraded",
      "type": "event"
    },
    {
      "inputs": [
        {
          "internalType": "uint256",
          "name": "amount",
          "type": "uint256"
        },
        {
          "internalType": "address",
          "name": "recipient",
          "type": "address"
        }
      ],
      "name": "addLiquidity",
      "outputs": [
        {
          "components": [
            {
              "internalType": "uint256",
              "name": "id",
              "type": "uint256"
            },
            {
              "internalType": "address",
              "name": "provider",
              "type": "address"
            },
            {
              "internalType": "address",
              "name": "recipient",
              "type": "address"
            },
            {
              "internalType": "uint256",
              "name": "oracleVersion",
              "type": "uint256"
            },
            {
              "internalType": "uint256",
              "name": "amount",
              "type": "uint256"
            },
            {
              "internalType": "uint256",
              "name": "pendingLiquidity",
              "type": "uint256"
            },
            {
              "internalType": "enum ChromaticLPAction",
              "name": "action",
              "type": "uint8"
            },
            {
              "internalType": "bool",
              "name": "needSettle",
              "type": "bool"
            }
          ],
          "internalType": "struct ChromaticLPReceipt",
          "name": "receipt",
          "type": "tuple"
        }
      ],
      "stateMutability": "nonpayable",
      "type": "function"
    },
    {
      "inputs": [
        {
          "internalType": "address",
          "name": "settlementToken",
          "type": "address"
        },
        {
          "internalType": "address",
          "name": "vault",
          "type": "address"
        },
        {
          "internalType": "bytes",
          "name": "data",
          "type": "bytes"
        }
      ],
      "name": "addLiquidityBatchCallback",
      "outputs": [],
      "stateMutability": "nonpayable",
      "type": "function"
    },
    {
      "inputs": [
        {
          "internalType": "address",
          "name": "owner",
          "type": "address"
        },
        {
          "internalType": "address",
          "name": "spender",
          "type": "address"
        }
      ],
      "name": "allowance",
      "outputs": [
        {
          "internalType": "uint256",
          "name": "",
          "type": "uint256"
        }
      ],
      "stateMutability": "view",
      "type": "function"
    },
    {
      "inputs": [
        {
          "internalType": "address",
          "name": "spender",
          "type": "address"
        },
        {
          "internalType": "uint256",
          "name": "amount",
          "type": "uint256"
        }
      ],
      "name": "approve",
      "outputs": [
        {
          "internalType": "bool",
          "name": "",
          "type": "bool"
        }
      ],
      "stateMutability": "nonpayable",
      "type": "function"
    },
    {
      "inputs": [
        {
          "internalType": "address",
          "name": "account",
          "type": "address"
        }
      ],
      "name": "balanceOf",
      "outputs": [
        {
          "internalType": "uint256",
          "name": "",
          "type": "uint256"
        }
      ],
      "stateMutability": "view",
      "type": "function"
    },
    {
      "inputs": [
        {
          "internalType": "uint256",
          "name": "receiptId",
          "type": "uint256"
        }
      ],
      "name": "cancelSettleTask",
      "outputs": [],
      "stateMutability": "nonpayable",
      "type": "function"
    },
    {
      "inputs": [
        {
          "internalType": "uint256[]",
          "name": "",
          "type": "uint256[]"
        },
        {
          "internalType": "int16[]",
          "name": "",
          "type": "int16[]"
        },
        {
          "internalType": "uint256[]",
          "name": "",
          "type": "uint256[]"
        },
        {
          "internalType": "uint256[]",
          "name": "",
          "type": "uint256[]"
        },
        {
          "internalType": "bytes",
          "name": "data",
          "type": "bytes"
        }
      ],
      "name": "claimLiquidityBatchCallback",
      "outputs": [],
      "stateMutability": "nonpayable",
      "type": "function"
    },
    {
      "inputs": [],
      "name": "decimals",
      "outputs": [
        {
          "internalType": "uint8",
          "name": "",
          "type": "uint8"
        }
      ],
      "stateMutability": "view",
      "type": "function"
    },
    {
      "inputs": [
        {
          "internalType": "address",
          "name": "spender",
          "type": "address"
        },
        {
          "internalType": "uint256",
          "name": "subtractedValue",
          "type": "uint256"
        }
      ],
      "name": "decreaseAllowance",
      "outputs": [
        {
          "internalType": "bool",
          "name": "",
          "type": "bool"
        }
      ],
      "stateMutability": "nonpayable",
      "type": "function"
    },
    {
      "inputs": [
        {
          "internalType": "address",
          "name": "spender",
          "type": "address"
        },
        {
          "internalType": "uint256",
          "name": "addedValue",
          "type": "uint256"
        }
      ],
      "name": "increaseAllowance",
      "outputs": [
        {
          "internalType": "bool",
          "name": "",
          "type": "bool"
        }
      ],
      "stateMutability": "nonpayable",
      "type": "function"
    },
    {
      "inputs": [],
      "name": "name",
      "outputs": [
        {
          "internalType": "string",
          "name": "",
          "type": "string"
        }
      ],
      "stateMutability": "view",
      "type": "function"
    },
    {
      "inputs": [
        {
          "internalType": "bytes",
          "name": "data",
          "type": "bytes"
        }
      ],
      "name": "onUpgrade",
      "outputs": [],
      "stateMutability": "nonpayable",
      "type": "function"
    },
    {
      "inputs": [
        {
          "internalType": "address",
          "name": "feePayee",
          "type": "address"
        },
        {
          "internalType": "uint256",
          "name": "keeperFee",
          "type": "uint256"
        }
      ],
      "name": "rebalance",
      "outputs": [],
      "stateMutability": "nonpayable",
      "type": "function"
    },
    {
      "inputs": [],
      "name": "rebalance",
      "outputs": [],
      "stateMutability": "nonpayable",
      "type": "function"
    },
    {
      "inputs": [
        {
          "internalType": "uint256",
          "name": "lpTokenAmount",
          "type": "uint256"
        },
        {
          "internalType": "address",
          "name": "recipient",
          "type": "address"
        }
      ],
      "name": "removeLiquidity",
      "outputs": [
        {
          "components": [
            {
              "internalType": "uint256",
              "name": "id",
              "type": "uint256"
            },
            {
              "internalType": "address",
              "name": "provider",
              "type": "address"
            },
            {
              "internalType": "address",
              "name": "recipient",
              "type": "address"
            },
            {
              "internalType": "uint256",
              "name": "oracleVersion",
              "type": "uint256"
            },
            {
              "internalType": "uint256",
              "name": "amount",
              "type": "uint256"
            },
            {
              "internalType": "uint256",
              "name": "pendingLiquidity",
              "type": "uint256"
            },
            {
              "internalType": "enum ChromaticLPAction",
              "name": "action",
              "type": "uint8"
            },
            {
              "internalType": "bool",
              "name": "needSettle",
              "type": "bool"
            }
          ],
          "internalType": "struct ChromaticLPReceipt",
          "name": "receipt",
          "type": "tuple"
        }
      ],
      "stateMutability": "nonpayable",
      "type": "function"
    },
    {
      "inputs": [
        {
          "internalType": "address",
          "name": "clbToken",
          "type": "address"
        },
        {
          "internalType": "uint256[]",
          "name": "_clbTokenIds",
          "type": "uint256[]"
        },
        {
          "internalType": "bytes",
          "name": "data",
          "type": "bytes"
        }
      ],
      "name": "removeLiquidityBatchCallback",
      "outputs": [],
      "stateMutability": "nonpayable",
      "type": "function"
    },
    {
      "inputs": [],
      "name": "resolveRebalance",
      "outputs": [
        {
          "internalType": "bool",
          "name": "",
          "type": "bool"
        },
        {
          "internalType": "bytes",
          "name": "",
          "type": "bytes"
        }
      ],
      "stateMutability": "view",
      "type": "function"
    },
    {
      "inputs": [
        {
          "internalType": "uint256",
          "name": "receiptId",
          "type": "uint256"
        }
      ],
      "name": "settle",
      "outputs": [],
      "stateMutability": "nonpayable",
      "type": "function"
    },
    {
      "inputs": [
        {
          "internalType": "uint256",
          "name": "receiptId",
          "type": "uint256"
        },
        {
          "internalType": "address",
          "name": "feePayee",
          "type": "address"
        },
        {
          "internalType": "uint256",
          "name": "keeperFee",
          "type": "uint256"
        }
      ],
      "name": "settleTask",
      "outputs": [],
      "stateMutability": "nonpayable",
      "type": "function"
    },
    {
      "inputs": [],
      "name": "symbol",
      "outputs": [
        {
          "internalType": "string",
          "name": "",
          "type": "string"
        }
      ],
      "stateMutability": "view",
      "type": "function"
    },
    {
      "inputs": [],
      "name": "totalSupply",
      "outputs": [
        {
          "internalType": "uint256",
          "name": "",
          "type": "uint256"
        }
      ],
      "stateMutability": "view",
      "type": "function"
    },
    {
      "inputs": [
        {
          "internalType": "address",
          "name": "to",
          "type": "address"
        },
        {
          "internalType": "uint256",
          "name": "amount",
          "type": "uint256"
        }
      ],
      "name": "transfer",
      "outputs": [
        {
          "internalType": "bool",
          "name": "",
          "type": "bool"
        }
      ],
      "stateMutability": "nonpayable",
      "type": "function"
    },
    {
      "inputs": [
        {
          "internalType": "address",
          "name": "from",
          "type": "address"
        },
        {
          "internalType": "address",
          "name": "to",
          "type": "address"
        },
        {
          "internalType": "uint256",
          "name": "amount",
          "type": "uint256"
        }
      ],
      "name": "transferFrom",
      "outputs": [
        {
          "internalType": "bool",
          "name": "",
          "type": "bool"
        }
      ],
      "stateMutability": "nonpayable",
      "type": "function"
    },
    {
      "inputs": [],
      "name": "version",
      "outputs": [
        {
          "internalType": "bytes32",
          "name": "",
          "type": "bytes32"
        }
      ],
      "stateMutability": "view",
      "type": "function"
    },
    {
      "inputs": [
        {
          "internalType": "uint256[]",
          "name": "",
          "type": "uint256[]"
        },
        {
          "internalType": "int16[]",
          "name": "",
          "type": "int16[]"
        },
        {
          "internalType": "uint256[]",
          "name": "",
          "type": "uint256[]"
        },
        {
          "internalType": "uint256[]",
          "name": "",
          "type": "uint256[]"
        },
        {
          "internalType": "bytes",
          "name": "data",
          "type": "bytes"
        }
      ],
      "name": "withdrawLiquidityBatchCallback",
      "outputs": [],
      "stateMutability": "nonpayable",
      "type": "function"
    }
  ],
  "transactionHash": "0x920bca07742713b438d95e548122833c690d413289b0f31ed4871c0cdb40241f",
  "args": [
    "0x6463613531333000000000000000000000000000000000000000000000000000"
  ],
  "numDeployments": 3,
  "solcInputHash": "46cd9b1d7582f79b59c4d20087d4269d",
  "bytecode": "0x60a06040523480156200001157600080fd5b5060405162005db738038062005db7833981016040819052620000349162000084565b604080516020808201835260008083528351918201909352918252829160036200005f838262000143565b5060046200006e828262000143565b5050600160185550604e5550306080526200020f565b6000602082840312156200009757600080fd5b5051919050565b634e487b7160e01b600052604160045260246000fd5b600181811c90821680620000c957607f821691505b602082108103620000ea57634e487b7160e01b600052602260045260246000fd5b50919050565b601f8211156200013e57600081815260208120601f850160051c81016020861015620001195750805b601f850160051c820191505b818110156200013a5782815560010162000125565b5050505b505050565b81516001600160401b038111156200015f576200015f6200009e565b6200017781620001708454620000b4565b84620000f0565b602080601f831160018114620001af5760008415620001965750858301515b600019600386901b1c1916600185901b1785556200013a565b600085815260208120601f198616915b82811015620001e057888601518255948401946001909101908401620001bf565b5085821015620001ff5787850151600019600388901b60f8161c191681555b5050505050600190811b01905550565b608051615b8c6200022b60003960006108460152615b8c6000f3fe608060405234801561001057600080fd5b50600436106101a35760003560e01c806395d89b41116100ee578063c6bd624911610097578063d2419e2311610071578063d2419e2314610365578063dd62ed3e14610378578063e921b5c2146103be578063f120bc4d146103d157600080fd5b8063c6bd62491461032c578063c95f9d0e1461033f578063d0d063c01461035257600080fd5b8063a06104ae116100c8578063a06104ae146102f0578063a457c2d714610306578063a9059cbb1461031957600080fd5b806395d89b41146102c257806395fc33c5146102ca57806398b07550146102dd57600080fd5b8063395093511161015057806370a082311161012a57806370a08231146102795780637d7c2a1c1461026e5780638df82800146102af57600080fd5b806339509351146102485780633da9b9d01461025b57806354fd4d501461027057600080fd5b806318160ddd1161018157806318160ddd1461020957806323b872dd1461021b578063313ce5671461022e57600080fd5b806305fe138b146101a857806306fdde03146101d1578063095ea7b3146101e6575b600080fd5b6101bb6101b63660046146ef565b6103e4565b6040516101c891906147f7565b60405180910390f35b6101d96104b6565b6040516101c89190614874565b6101f96101f4366004614887565b610548565b60405190151581526020016101c8565b6002545b6040519081526020016101c8565b6101f96102293660046148b3565b610560565b610236610586565b60405160ff90911681526020016101c8565b6101f9610256366004614887565b610605565b61026e610269366004614887565b610651565b005b61020d604e5481565b61020d6102873660046148f4565b73ffffffffffffffffffffffffffffffffffffffff1660009081526020819052604090205490565b61026e6102bd366004614911565b6107a8565b6101d96107c8565b61026e6102d836600461492a565b6107d7565b61026e6102eb36600461499a565b61082f565b6102f86108dc565b6040516101c89291906149dc565b6101f9610314366004614887565b610912565b6101f9610327366004614887565b6109f3565b61026e61033a366004614911565b610a01565b6101bb61034d3660046146ef565b610a0a565b61026e6103603660046149f7565b610a8d565b61026e610373366004614aa1565b610b49565b61020d610386366004614b92565b73ffffffffffffffffffffffffffffffffffffffff918216600090815260016020908152604080832093909416825291909152205490565b61026e6103cc366004614bc0565b610ecc565b61026e6103df366004614aa1565b611017565b6103ec61463b565b6103f461125b565b8260000361042e576040517f9474613f00000000000000000000000000000000000000000000000000000000815260040160405180910390fd5b6000610439846112ce565b9050610447818533866112e6565b80516060820151604080519182526020820188905292945073ffffffffffffffffffffffffffffffffffffffff8616923392917fafe189cdf0c6561ab41d175127551a2c23d63bbcd824c7670394b7f691a64aa8910160405180910390a4506104b06001601855565b92915050565b6060600380546104c590614c43565b80601f01602080910402602001604051908101604052809291908181526020018280546104f190614c43565b801561053e5780601f106105135761010080835404028352916020019161053e565b820191906000526020600020905b81548152906001019060200180831161052157829003601f168201915b5050505050905090565b600033610556818585611313565b5060019392505050565b60003361056e8582856114c6565b61057985858561159d565b60019150505b9392505050565b6000610592600b61180c565b73ffffffffffffffffffffffffffffffffffffffff1663313ce5676040518163ffffffff1660e01b8152600401602060405180830381865afa1580156105dc573d6000803e3d6000fd5b505050506040513d601f19601f820116820180604052508101906106009190614c90565b905090565b33600081815260016020908152604080832073ffffffffffffffffffffffffffffffffffffffff87168452909152812054909190610556908290869061064c908790614ce2565b611313565b61065961125b565b600080610666600b61189f565b915061ffff1691508060000361067d57505061079a565b6040805160a08101825260075461ffff808216835262010000909104166020820152600854918101919091526009546060820152600a5460808201526000906106c690846118ee565b905060008160028111156106dc576106dc61471f565b146107965760006106ed600b61180c565b6040517f70a0823100000000000000000000000000000000000000000000000000000000815230600482015273ffffffffffffffffffffffffffffffffffffffff91909116906370a0823190602401602060405180830381865afa158015610759573d6000803e3d6000fd5b505050506040513d601f19601f8201168201806040525081019061077d9190614cf5565b905061078a818787611943565b50610793611b0e565b50505b5050505b6107a46001601855565b5050565b6107b061125b565b6107bb816000611bd7565b6107c56001601855565b50565b6060600480546104c590614c43565b6000838152604c602052604090205473ffffffffffffffffffffffffffffffffffffffff161561082a57600061080c84611d32565b9050600061081b828585611943565b90506108278582611bd7565b50505b505050565b73ffffffffffffffffffffffffffffffffffffffff7f000000000000000000000000000000000000000000000000000000000000000016300361089e576040517ff193e64c00000000000000000000000000000000000000000000000000000000815260040160405180910390fd5b6108a6611e63565b6107a4576040517f808ca14f00000000000000000000000000000000000000000000000000000000815260040160405180910390fd5b600060606040517ff3b52be100000000000000000000000000000000000000000000000000000000815260040160405180910390fd5b33600081815260016020908152604080832073ffffffffffffffffffffffffffffffffffffffff87168452909152812054909190838110156109db576040517f08c379a000000000000000000000000000000000000000000000000000000000815260206004820152602560248201527f45524332303a2064656372656173656420616c6c6f77616e63652062656c6f7760448201527f207a65726f00000000000000000000000000000000000000000000000000000060648201526084015b60405180910390fd5b6109e88286868403611313565b506001949350505050565b60003361055681858561159d565b6107c581611f98565b610a1261463b565b610a1a61125b565b610a25833384612073565b80516060820151604080519182526020820187905292935073ffffffffffffffffffffffffffffffffffffffff8516923392917f91c55d0ae650a995846fcc24c8f3cfa58b5d18d1d1c340968383d8de36a90202910160405180910390a46104b06001601855565b600b5473ffffffffffffffffffffffffffffffffffffffff163314610ade576040517fc4bbea6900000000000000000000000000000000000000000000000000000000815260040160405180910390fd5b6000610aec82840184614dfb565b805190915073ffffffffffffffffffffffffffffffffffffffff163014610b3a57610b218582600001518684602001516120f3565b610b358582600001513084604001516120f3565b610827565b610827858583602001516121cf565b600b5473ffffffffffffffffffffffffffffffffffffffff163314610b9a576040517fc4bbea6900000000000000000000000000000000000000000000000000000000815260040160405180910390fd5b6000808080610bab85870187614f54565b92965090945092509050610bc0600b84612225565b604084015173ffffffffffffffffffffffffffffffffffffffff163014610e85576000610bed8284614ce2565b90506000610c0a8660800151610c0260025490565b849190612290565b90506000808483116040518060400160405280600381526020017f574c41000000000000000000000000000000000000000000000000000000000081525090610c80576040517f08c379a00000000000000000000000000000000000000000000000000000000081526004016109d29190614874565b50610c8b600b6123ba565b610c958685615077565b1115610cc757610ca5600b6123ba565b9050610cc0610cb48683614ce2565b60808a01519085612290565b9150610cdb565b610cd18584615077565b9050876080015191505b6000828960800151610ced9190615077565b9050886040015173ffffffffffffffffffffffffffffffffffffffff16896020015173ffffffffffffffffffffffffffffffffffffffff168a600001517f5bbeef7d0f97fe132bb4988cb4af5a595ea5581d621e7b401f81db43bc271edc8686868c604051610d75949392919093845260208401929092526040830152606082015260800190565b60405180910390a4610d95610d8a600b61180c565b8a60400151846121cf565b8215610da557610da53084612455565b8015610dba57610dba308a60400151836121cf565b602089015173ffffffffffffffffffffffffffffffffffffffff163b15610e7b57602089015189516040517f9a7d780400000000000000000000000000000000000000000000000000000000815260048101919091526024810185905260448101849052606481018390526084810188905273ffffffffffffffffffffffffffffffffffffffff90911690639a7d78049060a401600060405180830381600087803b158015610e6857600080fd5b505af1925050508015610e79575060015b505b5050505050610ebc565b83516040518281527f824a4cafd1a20228e797b24256dbd7c904c6b7a156b58e5c829262200ad0e367906020015b60405180910390a25b5050505050505050505050505050565b600b5473ffffffffffffffffffffffffffffffffffffffff163314610f1d576040517fc4bbea6900000000000000000000000000000000000000000000000000000000815260040160405180910390fd5b6000610f2b8284018461508a565b6060810151604080516020810182526000815290517f2eb2c2d600000000000000000000000000000000000000000000000000000000815292935073ffffffffffffffffffffffffffffffffffffffff891692632eb2c2d692610f9892309233928c928c926004016151b8565b600060405180830381600087803b158015610fb257600080fd5b505af1158015610fc6573d6000803e3d6000fd5b5050825173ffffffffffffffffffffffffffffffffffffffff163014801592509050610ff6575060008160400151115b1561100f5761100f3082600001513084604001516120f3565b505050505050565b600b5473ffffffffffffffffffffffffffffffffffffffff163314611068576040517fc4bbea6900000000000000000000000000000000000000000000000000000000815260040160405180910390fd5b600080806110788486018661525e565b92509250925060008184608001516110909190615077565b90506110ac818560a00151600b6126199092919063ffffffff16565b604084015173ffffffffffffffffffffffffffffffffffffffff16301461122957600083156110ee576110e96110e160025490565b839086612290565b6110f0565b815b9050611100856040015182612652565b6040808601516020808801518851845187815292830186905293820187905273ffffffffffffffffffffffffffffffffffffffff92831693921691907f84a0ab8a0f72efed93757330872213c3b5294e2ea31dfcd2be5bb50fdcaeb0d09060600160405180910390a4602085015173ffffffffffffffffffffffffffffffffffffffff163b1561122357602085015185516040517fb6ebedbf000000000000000000000000000000000000000000000000000000008152600481019190915260248101849052604481018390526064810185905273ffffffffffffffffffffffffffffffffffffffff9091169063b6ebedbf90608401600060405180830381600087803b15801561121057600080fd5b505af1925050508015611221575060015b505b50610ebc565b83516040518381527f824a4cafd1a20228e797b24256dbd7c904c6b7a156b58e5c829262200ad0e36790602001610eb3565b6002601854036112c7576040517f08c379a000000000000000000000000000000000000000000000000000000000815260206004820152601f60248201527f5265656e7472616e637947756172643a207265656e7472616e742063616c6c0060448201526064016109d2565b6002601855565b60606104b0826112dd60025490565b600b9190612745565b6112ee61463b565b6112fc600b868686866128b1565b905061130b8160000151612ab3565b949350505050565b73ffffffffffffffffffffffffffffffffffffffff83166113b5576040517f08c379a0000000000000000000000000000000000000000000000000000000008152602060048201526024808201527f45524332303a20617070726f76652066726f6d20746865207a65726f2061646460448201527f726573730000000000000000000000000000000000000000000000000000000060648201526084016109d2565b73ffffffffffffffffffffffffffffffffffffffff8216611458576040517f08c379a000000000000000000000000000000000000000000000000000000000815260206004820152602260248201527f45524332303a20617070726f766520746f20746865207a65726f20616464726560448201527f737300000000000000000000000000000000000000000000000000000000000060648201526084016109d2565b73ffffffffffffffffffffffffffffffffffffffff83811660008181526001602090815260408083209487168084529482529182902085905590518481527f8c5be1e5ebec7d5bd14f71427d1e84f3dd0314c0f7b2291e5b200ac8c7c3b925910160405180910390a3505050565b73ffffffffffffffffffffffffffffffffffffffff8381166000908152600160209081526040808320938616835292905220547fffffffffffffffffffffffffffffffffffffffffffffffffffffffffffffffff8114611597578181101561158a576040517f08c379a000000000000000000000000000000000000000000000000000000000815260206004820152601d60248201527f45524332303a20696e73756666696369656e7420616c6c6f77616e636500000060448201526064016109d2565b6115978484848403611313565b50505050565b73ffffffffffffffffffffffffffffffffffffffff8316611640576040517f08c379a000000000000000000000000000000000000000000000000000000000815260206004820152602560248201527f45524332303a207472616e736665722066726f6d20746865207a65726f20616460448201527f647265737300000000000000000000000000000000000000000000000000000060648201526084016109d2565b73ffffffffffffffffffffffffffffffffffffffff82166116e3576040517f08c379a000000000000000000000000000000000000000000000000000000000815260206004820152602360248201527f45524332303a207472616e7366657220746f20746865207a65726f206164647260448201527f657373000000000000000000000000000000000000000000000000000000000060648201526084016109d2565b73ffffffffffffffffffffffffffffffffffffffff831660009081526020819052604090205481811015611799576040517f08c379a000000000000000000000000000000000000000000000000000000000815260206004820152602660248201527f45524332303a207472616e7366657220616d6f756e742065786365656473206260448201527f616c616e6365000000000000000000000000000000000000000000000000000060648201526084016109d2565b73ffffffffffffffffffffffffffffffffffffffff848116600081815260208181526040808320878703905593871680835291849020805487019055925185815290927fddf252ad1be2c89b69c2b068fc378daa952ba7f163c4a11628f55a4df523b3ef910160405180910390a3611597565b8054604080517f7b9e618d000000000000000000000000000000000000000000000000000000008152905160009273ffffffffffffffffffffffffffffffffffffffff1691637b9e618d9160048083019260209291908290030181865afa15801561187b573d6000803e3d6000fd5b505050506040513d601f19601f820116820180604052508101906104b09190615295565b60008060006118ad84612b6e565b80519250905060008290036118c557600092506118e8565b805160208201516118e591612710916118de9082615077565b9190612290565b92505b50915091565b6000818360200151846000015161190591906152b2565b61ffff161015611917575060026104b0565b602083015183518391611929916152cd565b61ffff16111561193b575060016104b0565b5060006104b0565b600080600b60000160009054906101000a900473ffffffffffffffffffffffffffffffffffffffff1673ffffffffffffffffffffffffffffffffffffffff1663c45a01556040518163ffffffff1660e01b8152600401602060405180830381865afa1580156119b6573d6000803e3d6000fd5b505050506040513d601f19601f820116820180604052508101906119da9190615295565b73ffffffffffffffffffffffffffffffffffffffff16635b5b52c06040518163ffffffff1660e01b8152600401602060405180830381865afa158015611a24573d6000803e3d6000fd5b505050506040513d601f19601f82011682018060405250810190611a489190615295565b90506000611a56600b61180c565b9050611a638183886121cf565b6040517f780205b100000000000000000000000000000000000000000000000000000000815273ffffffffffffffffffffffffffffffffffffffff828116600483015260248201869052868116604483015283169063780205b1906064016020604051808303816000875af1158015611ae0573d6000803e3d6000fd5b505050506040513d601f19601f82011682018060405250810190611b049190614cf5565b9695505050505050565b6000806000611b1d600b61189f565b915061ffff16915080600003611b365760009250505090565b6040805160a08101825260075461ffff808216835262010000909104166020820152600854918101919091526009546060820152600a546080820152600090611b7f90846118ee565b90506002816002811115611b9557611b9561471f565b03611bab57611ba383612c25565b935050505090565b6001816002811115611bbf57611bbf61471f565b03611bcd57611ba383612d4d565b6000935050505090565b6000611be4600b84612dbb565b90506001816000015111611c24576040517f64f7872900000000000000000000000000000000000000000000000000000000815260040160405180910390fd5b8060e00151611c5f576040517f560ff90000000000000000000000000000000000000000000000000000000000815260040160405180910390fd5b611c69600b612e86565b816060015110611ca5576040517f937b1e3800000000000000000000000000000000000000000000000000000000815260040160405180910390fd5b611cae83611f98565b60008160c001516001811115611cc657611cc661471f565b03611cd75761082a600b8284612f8e565b60018160c001516001811115611cef57611cef61471f565b03611d005761082a600b8284613054565b6040517f0c63171200000000000000000000000000000000000000000000000000000000815260040160405180910390fd5b600080611d40600b84612dbb565b905060008160c001516001811115611d5a57611d5a61471f565b03611d8d576007546080820151611d779161ffff16612710612290565b8160800151611d869190615077565b9150611e5d565b6000611d99600b61180c565b6040517f70a0823100000000000000000000000000000000000000000000000000000000815230600482015273ffffffffffffffffffffffffffffffffffffffff91909116906370a0823190602401602060405180830381865afa158015611e05573d6000803e3d6000fd5b505050506040513d601f19601f82011682018060405250810190611e299190614cf5565b90508160800151600003611e3f57809250611e5b565b611e588260800151611e5060025490565b839190612290565b92505b505b50919050565b600b54604080517fc45a0155000000000000000000000000000000000000000000000000000000008152905160009273ffffffffffffffffffffffffffffffffffffffff169163c45a01559160048083019260209291908290030181865afa158015611ed3573d6000803e3d6000fd5b505050506040513d601f19601f82011682018060405250810190611ef79190615295565b73ffffffffffffffffffffffffffffffffffffffff16634162169f6040518163ffffffff1660e01b8152600401602060405180830381865afa158015611f41573d6000803e3d6000fd5b505050506040513d601f19601f82011682018060405250810190611f659190615295565b73ffffffffffffffffffffffffffffffffffffffff163373ffffffffffffffffffffffffffffffffffffffff1614905090565b6000818152604c602052604090205473ffffffffffffffffffffffffffffffffffffffff1680156107a4576000828152604c60205260409081902080547fffffffffffffffffffffffff0000000000000000000000000000000000000000169055517fc6bd62490000000000000000000000000000000000000000000000000000000081526004810183905273ffffffffffffffffffffffffffffffffffffffff82169063c6bd624990602401600060405180830381600087803b15801561205f57600080fd5b505af115801561100f573d6000803e3d6000fd5b61207b61463b565b60095484116120b6576040517f266bd47800000000000000000000000000000000000000000000000000000000815260040160405180910390fd5b6007546009546120e49186916120d99161ffff1690612710906118de9085615077565b600b9190868661322f565b905061057f8160000151612ab3565b60405173ffffffffffffffffffffffffffffffffffffffff808516602483015283166044820152606481018290526115979085907f23b872dd00000000000000000000000000000000000000000000000000000000906084015b604080517fffffffffffffffffffffffffffffffffffffffffffffffffffffffffffffffe08184030181529190526020810180517bffffffffffffffffffffffffffffffffffffffffffffffffffffffff167fffffffff000000000000000000000000000000000000000000000000000000009093169290921790915261345a565b60405173ffffffffffffffffffffffffffffffffffffffff831660248201526044810182905261082a9084907fa9059cbb000000000000000000000000000000000000000000000000000000009060640161214d565b60005b815181101561082a576000828281518110612245576122456152e8565b60200260200101519050806040015184600a0160008360a0015160010b60010b815260200190815260200160002060008282546122829190615077565b909155505050600101612228565b600080807fffffffffffffffffffffffffffffffffffffffffffffffffffffffffffffffff858709858702925082811083820303915050806000036122e8578382816122de576122de615317565b049250505061057f565b808411612351576040517f08c379a000000000000000000000000000000000000000000000000000000000815260206004820152601560248201527f4d6174683a206d756c446976206f766572666c6f77000000000000000000000060448201526064016109d2565b60008486880960026001871981018816978890046003810283188082028403028082028403028082028403028082028403028082028403029081029092039091026000889003889004909101858311909403939093029303949094049190911702949350505050565b60006123c58261180c565b6040517f70a0823100000000000000000000000000000000000000000000000000000000815230600482015273ffffffffffffffffffffffffffffffffffffffff91909116906370a0823190602401602060405180830381865afa158015612431573d6000803e3d6000fd5b505050506040513d601f19601f820116820180604052508101906104b09190614cf5565b73ffffffffffffffffffffffffffffffffffffffff82166124f8576040517f08c379a000000000000000000000000000000000000000000000000000000000815260206004820152602160248201527f45524332303a206275726e2066726f6d20746865207a65726f2061646472657360448201527f730000000000000000000000000000000000000000000000000000000000000060648201526084016109d2565b73ffffffffffffffffffffffffffffffffffffffff8216600090815260208190526040902054818110156125ae576040517f08c379a000000000000000000000000000000000000000000000000000000000815260206004820152602260248201527f45524332303a206275726e20616d6f756e7420657863656564732062616c616e60448201527f636500000000000000000000000000000000000000000000000000000000000060648201526084016109d2565b73ffffffffffffffffffffffffffffffffffffffff83166000818152602081815260408083208686039055600280548790039055518581529192917fddf252ad1be2c89b69c2b068fc378daa952ba7f163c4a11628f55a4df523b3ef910160405180910390a3505050565b8183600801600082825461262d9190615077565b92505081905550808360090160008282546126489190615077565b9091555050505050565b73ffffffffffffffffffffffffffffffffffffffff82166126cf576040517f08c379a000000000000000000000000000000000000000000000000000000000815260206004820152601f60248201527f45524332303a206d696e7420746f20746865207a65726f20616464726573730060448201526064016109d2565b80600260008282546126e19190614ce2565b909155505073ffffffffffffffffffffffffffffffffffffffff8216600081815260208181526040808320805486019055518481527fddf252ad1be2c89b69c2b068fc378daa952ba7f163c4a11628f55a4df523b3ef910160405180910390a35050565b60606000612754856001015490565b9050600061276186613569565b9050600061276e876136b5565b90508267ffffffffffffffff81111561278957612789614d0e565b6040519080825280602002602001820160405280156127b2578160200160208202803683370190505b50935060005b838110156128a65761280d878760018585815181106127d9576127d96152e8565b60200260200101518786815181106127f3576127f36152e8565b60200260200101516128059190614ce2565b92919061378d565b85828151811061281f5761281f6152e8565b60200260200101818152505082818151811061283d5761283d6152e8565b6020026020010151858281518110612857576128576152e8565b6020026020010151111561289e57828181518110612877576128776152e8565b6020026020010151858281518110612891576128916152e8565b6020026020010181815250505b6001016127b8565b505050509392505050565b6128b961463b565b60008660000160009054906101000a900473ffffffffffffffffffffffffffffffffffffffff1673ffffffffffffffffffffffffffffffffffffffff1663766e1b1730896001018960405180608001604052808a73ffffffffffffffffffffffffffffffffffffffff1681526020018973ffffffffffffffffffffffffffffffffffffffff1681526020018b81526020018c81525060405160200161295e9190615346565b6040516020818303038152906040526040518563ffffffff1660e01b815260040161298c94939291906156d2565b6000604051808303816000875af11580156129ab573d6000803e3d6000fd5b505050506040513d6000823e601f3d9081017fffffffffffffffffffffffffffffffffffffffffffffffffffffffffffffffe01682016040526129f19190810190615727565b9050604051806101000160405280612a08896137ea565b81526020018573ffffffffffffffffffffffffffffffffffffffff1681526020018473ffffffffffffffffffffffffffffffffffffffff16815260200182600081518110612a5857612a586152e8565b602002602001015160200151815260200186815260200160008152602001600180811115612a8857612a8861471f565b815260016020909101529150612a9f878383613808565b612aa987826139a5565b5095945050505050565b604d80546000838152604c60205260409081902080547fffffffffffffffffffffffff00000000000000000000000000000000000000001673ffffffffffffffffffffffffffffffffffffffff938416179055915491517f890e2ec90000000000000000000000000000000000000000000000000000000081526004810184905291169063890e2ec990602401600060405180830381600087803b158015612b5a57600080fd5b505af1158015610827573d6000803e3d6000fd5b612ba06040518060a0016040528060008152602001600081526020016000815260200160008152602001600081525090565b6040518060a0016040528060008152602001612bbb846123ba565b8152602001612bcb846009015490565b8152602001612bd984613a23565b8152602001612be784613be6565b81525090508060800151816060015182604001518360200151612c0a9190614ce2565b612c149190614ce2565b612c1e9190614ce2565b8152919050565b600080612c32600b613569565b600c5490915060008167ffffffffffffffff811115612c5357612c53614d0e565b604051908082528060200260200182016040528015612c7c578160200160208202803683370190505b50905060005b82811015612cee57600754612cc990612c9f9061ffff1688615077565b87868481518110612cb257612cb26152e8565b60200260200101516122909092919063ffffffff16565b828281518110612cdb57612cdb6152e8565b6020908102919091010152600101612c82565b506000612cfe82600030306112e6565b8051606082015160408051918252602082018a905292935090917f8aad6bbc03265658da02fa5fbd92dceeb370324eb38f13306dd6fa7a99f41a1e910160405180910390a25195945050505050565b600080612d5983613db2565b90506000612d68823030612073565b80516060808301516040805191825260208201879052810188905292935090917fda49fd3c25d3b48f4b00bc9f0676581393595167b76d99ab50ae0b894fecf608910160405180910390a2519392505050565b612dc361463b565b6000828152600580850160209081526040928390208351610100810185528154815260018083015473ffffffffffffffffffffffffffffffffffffffff9081169483019490945260028301549093169481019490945260038101546060850152600481015460808501529182015460a0840152600682015460c084019160ff90911690811115612e5557612e5561471f565b6001811115612e6657612e6661471f565b815260069190910154610100900460ff1615156020909101529392505050565b8054604080517f0aa7d2f9000000000000000000000000000000000000000000000000000000008152905160009273ffffffffffffffffffffffffffffffffffffffff1691630aa7d2f99160048083019260209291908290030181865afa158015612ef5573d6000803e3d6000fd5b505050506040513d601f19601f82011682018060405250810190612f199190615295565b73ffffffffffffffffffffffffffffffffffffffff16639d888e866040518163ffffffff1660e01b8152600401606060405180830381865afa158015612f63573d6000803e3d6000fd5b505050506040513d601f19601f82011682018060405250810190612f87919061581e565b5192915050565b612f9a83826000612619565b825482516000908152600685016020526040902073ffffffffffffffffffffffffffffffffffffffff90911690623fb6539084612fd687613df8565b85604051602001612fe99392919061585a565b6040516020818303038152906040526040518363ffffffff1660e01b81526004016130159291906158b1565b600060405180830381600087803b15801561302f57600080fd5b505af1158015613043573d6000803e3d6000fd5b5050835161082a9250859150613e18565b815160009081526006840160209081526040808320805482518185028101850190935280835291929091908301828280156130ae57602002820191906000526020600020905b81548152602001906001019080831161309a575b505087546040517f336b974e00000000000000000000000000000000000000000000000000000000815294955060009473ffffffffffffffffffffffffffffffffffffffff909116935063336b974e925061310e915085906004016158d6565b600060405180830381865afa15801561312b573d6000803e3d6000fd5b505050506040513d6000823e601f3d9081017fffffffffffffffffffffffffffffffffffffffffffffffffffffffffffffffe01682016040526131719190810190615727565b855485516000908152600688016020526040902091925073ffffffffffffffffffffffffffffffffffffffff169063b9d3e6979086846131b08a613df8565b886040516020016131c494939291906158e9565b6040516020818303038152906040526040518363ffffffff1660e01b81526004016131f09291906158b1565b600060405180830381600087803b15801561320a57600080fd5b505af115801561321e573d6000803e3d6000fd5b505085516108279250879150613e18565b61323761463b565b6000806132448887613e86565b9150915060008860000160009054906101000a900473ffffffffffffffffffffffffffffffffffffffff1673ffffffffffffffffffffffffffffffffffffffff166328700ad2308b6001018660405180606001604052808c73ffffffffffffffffffffffffffffffffffffffff168152602001888152602001888f6132c99190615077565b905260408051825173ffffffffffffffffffffffffffffffffffffffff166020808301919091528301518183015291015160608201526080016040516020818303038152906040526040518563ffffffff1660e01b815260040161333094939291906156d2565b6000604051808303816000875af115801561334f573d6000803e3d6000fd5b505050506040513d6000823e601f3d9081017fffffffffffffffffffffffffffffffffffffffffffffffffffffffffffffffe01682016040526133959190810190615727565b90506040518061010001604052806133ac8b6137ea565b81526020018773ffffffffffffffffffffffffffffffffffffffff1681526020018673ffffffffffffffffffffffffffffffffffffffff168152602001826000815181106133fc576133fc6152e8565b60200260200101516020015181526020018981526020018381526020016000600181111561342c5761342c61471f565b815260016020909101529350613443898583613808565b61344e898984613f86565b50505095945050505050565b60006134bc826040518060400160405280602081526020017f5361666545524332303a206c6f772d6c6576656c2063616c6c206661696c65648152508573ffffffffffffffffffffffffffffffffffffffff16613fb59092919063ffffffff16565b90508051600014806134dd5750808060200190518101906134dd91906159a7565b61082a576040517f08c379a000000000000000000000000000000000000000000000000000000000815260206004820152602a60248201527f5361666545524332303a204552433230206f7065726174696f6e20646964206e60448201527f6f7420737563636565640000000000000000000000000000000000000000000060648201526084016109d2565b60606000613578836001015490565b67ffffffffffffffff81111561359057613590614d0e565b6040519080825280602002602001820160405280156135b9578160200160208202803683370190505b50905060005b600184015481101561360b57308282815181106135de576135de6152e8565b73ffffffffffffffffffffffffffffffffffffffff909216602092830291909101909101526001016135bf565b5061361583613fc4565b73ffffffffffffffffffffffffffffffffffffffff16634e1273f482856004016040518363ffffffff1660e01b81526004016136529291906159c4565b600060405180830381865afa15801561366f573d6000803e3d6000fd5b505050506040513d6000823e601f3d9081017fffffffffffffffffffffffffffffffffffffffffffffffffffffffffffffffe016820160405261057f9190810190615a27565b60606136c2826001015490565b67ffffffffffffffff8111156136da576136da614d0e565b604051908082528060200260200182016040528015613703578160200160208202803683370190505b50905060005b6001830154811015611e5d5782600a016000846001018381548110613730576137306152e8565b90600052602060002090601091828204019190066002029054906101000a900460010b60010b60010b81526020019081526020016000205482828151811061377a5761377a6152e8565b6020908102919091010152600101613709565b60008061379b868686612290565b905060018360028111156137b1576137b161471f565b1480156137ce5750600084806137c9576137c9615317565b868809115b156137e1576137de600182614ce2565b90505b95945050505050565b600081600b01600081546137fd90615aad565b918290555092915050565b815160009081526005808501602090815260409283902085518155908501516001808301805473ffffffffffffffffffffffffffffffffffffffff9384167fffffffffffffffffffffffff00000000000000000000000000000000000000009182161790915594870151600284018054919093169516949094179055606085015160038201556080850151600482015560a08501519181019190915560c084015160068201805486947fffffffffffffffffffffffffffffffffffffffffffffffffffffffffffffff009091169083818111156138e7576138e761471f565b021790555060e0919091015160069182018054911515610100027fffffffffffffffffffffffffffffffffffffffffffffffffffffffffffff00ff9092169190911790558251600090815290840160205260408120905b8251811015613986578183828151811061395a5761395a6152e8565b60209081029190910181015151825460018181018555600094855292909320909201919091550161393e565b503360009081526007850160205260409020835161100f908290614031565b60005b815181101561082a578181815181106139c3576139c36152e8565b60200260200101516040015183600a0160008484815181106139e7576139e76152e8565b602002602001015160a0015160010b60010b81526020019081526020016000206000828254613a169190614ce2565b90915550506001016139a8565b600080613a2f8361403d565b83546040517ffaf07bf300000000000000000000000000000000000000000000000000000000815291925060009173ffffffffffffffffffffffffffffffffffffffff9091169063faf07bf390613a8d906001880190600401615ae5565b600060405180830381865afa158015613aaa573d6000803e3d6000fd5b505050506040513d6000823e601f3d9081017fffffffffffffffffffffffffffffffffffffffffffffffffffffffffffffffe0168201604052613af09190810190615a27565b90506000613afd85613569565b905060005b8251811015613bdd576000828281518110613b1f57613b1f6152e8565b602002602001015190508060001480613b515750848281518110613b4557613b456152e8565b60200260200101516000145b80613b755750838281518110613b6957613b696152e8565b60200260200101516000145b613bc557613bc0848381518110613b8e57613b8e6152e8565b6020026020010151868481518110613ba857613ba86152e8565b6020026020010151836122909092919063ffffffff16565b613bc8565b60005b613bd29087614ce2565b955050600101613b02565b50505050919050565b600080613bf28361403d565b83546040517ffaf07bf300000000000000000000000000000000000000000000000000000000815291925060009173ffffffffffffffffffffffffffffffffffffffff9091169063faf07bf390613c50906001880190600401615ae5565b600060405180830381865afa158015613c6d573d6000803e3d6000fd5b505050506040513d6000823e601f3d9081017fffffffffffffffffffffffffffffffffffffffffffffffffffffffffffffffe0168201604052613cb39190810190615a27565b905060005b8151811015613daa57600085600a016000876001018481548110613cde57613cde6152e8565b60009182526020808320601083040154600f9092166002026101000a90910460010b83528201929092526040019020549050801580613d365750838281518110613d2a57613d2a6152e8565b60200260200101516000145b80613d5a5750828281518110613d4e57613d4e6152e8565b60200260200101516000145b613d9257613d8d838381518110613d7357613d736152e8565b6020026020010151858481518110613ba857613ba86152e8565b613d95565b60005b613d9f9086614ce2565b945050600101613cb8565b505050919050565b6007546000906104b090613dcc9061ffff16612710615077565b613dd884612710615077565b613de29190615077565b613dee84612710615077565b6118de600b6123ba565b6000613e05826008015490565b613e0e836140e6565b6104b09190615077565b600081815260058301602090815260408083206006810180547fffffffffffffffffffffffffffffffffffffffffffffffffffffffffffff00ff169055600181015473ffffffffffffffffffffffffffffffffffffffff168452600786019092529091206108278184614113565b60606000613e95846001015490565b67ffffffffffffffff811115613ead57613ead614d0e565b604051908082528060200260200182016040528015613ed6578160200160208202803683370190505b50915060005b6001850154811015613f7e576000613f49866002016000886001018581548110613f0857613f086152e8565b60009182526020808320601083040154600f9092166002026101000a90910460010b83528201929092526040019020546003880154879161ffff1690612290565b905080848381518110613f5e57613f5e6152e8565b6020908102919091010152613f738184614ce2565b925050600101613edc565b509250929050565b81836008016000828254613f9a9190614ce2565b92505081905550808360090160008282546126489190614ce2565b606061130b848460008561411f565b8054604080517e64041d000000000000000000000000000000000000000000000000000000008152905160009273ffffffffffffffffffffffffffffffffffffffff16916264041d9160048083019260209291908290030181865afa15801561187b573d6000803e3d6000fd5b600061057f8383614238565b606061404882613fc4565b73ffffffffffffffffffffffffffffffffffffffff166377954ac2836004016040518263ffffffff1660e01b81526004016140839190615af8565b600060405180830381865afa1580156140a0573d6000803e3d6000fd5b505050506040513d6000823e601f3d9081017fffffffffffffffffffffffffffffffffffffffffffffffffffffffffffffffe01682016040526104b09190810190615a27565b60006140f18261427f565b60098301546140ff846123ba565b6141099190614ce2565b6104b09190614ce2565b600061057f8383614462565b6060824710156141b1576040517f08c379a000000000000000000000000000000000000000000000000000000000815260206004820152602660248201527f416464726573733a20696e73756666696369656e742062616c616e636520666f60448201527f722063616c6c000000000000000000000000000000000000000000000000000060648201526084016109d2565b6000808673ffffffffffffffffffffffffffffffffffffffff1685876040516141da9190615b0b565b60006040518083038185875af1925050503d8060008114614217576040519150601f19603f3d011682016040523d82523d6000602084013e61421c565b606091505b509150915061422d8783838761455c565b979650505050505050565b600081815260018301602052604081205461193b575081546001818101845560008481526020808220909301849055845484825282860190935260409020919091556104b0565b60008061428b8361403d565b83546040517ffaf07bf300000000000000000000000000000000000000000000000000000000815291925060009173ffffffffffffffffffffffffffffffffffffffff9091169063faf07bf3906142e9906001880190600401615ae5565b600060405180830381865afa158015614306573d6000803e3d6000fd5b505050506040513d6000823e601f3d9081017fffffffffffffffffffffffffffffffffffffffffffffffffffffffffffffffe016820160405261434c9190810190615a27565b9050600061435985613569565b905060005b8251811015613bdd57600086600a016000886001018481548110614384576143846152e8565b90600052602060002090601091828204019190066002029054906101000a900460010b60010b60010b8152602001908152602001600020548383815181106143ce576143ce6152e8565b60200260200101516143e09190614ce2565b905080158061440857508482815181106143fc576143fc6152e8565b60200260200101516000145b8061442c5750838281518110614420576144206152e8565b60200260200101516000145b61444a57614445848381518110613b8e57613b8e6152e8565b61444d565b60005b6144579087614ce2565b95505060010161435e565b6000818152600183016020526040812054801561454b576000614486600183615077565b855490915060009061449a90600190615077565b90508181146144ff5760008660000182815481106144ba576144ba6152e8565b90600052602060002001549050808760000184815481106144dd576144dd6152e8565b6000918252602080832090910192909255918252600188019052604090208390555b855486908061451057614510615b27565b6001900381819060005260206000200160009055905585600101600086815260200190815260200160002060009055600193505050506104b0565b60009150506104b0565b5092915050565b606083156145f25782516000036145eb5773ffffffffffffffffffffffffffffffffffffffff85163b6145eb576040517f08c379a000000000000000000000000000000000000000000000000000000000815260206004820152601d60248201527f416464726573733a2063616c6c20746f206e6f6e2d636f6e747261637400000060448201526064016109d2565b508161130b565b61130b83838151156146075781518083602001fd5b806040517f08c379a00000000000000000000000000000000000000000000000000000000081526004016109d29190614874565b60405180610100016040528060008152602001600073ffffffffffffffffffffffffffffffffffffffff168152602001600073ffffffffffffffffffffffffffffffffffffffff168152602001600081526020016000815260200160008152602001600060018111156146b0576146b061471f565b8152600060209091015290565b73ffffffffffffffffffffffffffffffffffffffff811681146107c557600080fd5b80356146ea816146bd565b919050565b6000806040838503121561470257600080fd5b823591506020830135614714816146bd565b809150509250929050565b7f4e487b7100000000000000000000000000000000000000000000000000000000600052602160045260246000fd5b600281106107c5577f4e487b7100000000000000000000000000000000000000000000000000000000600052602160045260246000fd5b80518252602081015173ffffffffffffffffffffffffffffffffffffffff80821660208501528060408401511660408501525050606081015160608301526080810151608083015260a081015160a083015260c08101516147e58161474e565b60c083015260e0908101511515910152565b61010081016104b08284614785565b60005b83811015614821578181015183820152602001614809565b50506000910152565b60008151808452614842816020860160208601614806565b601f017fffffffffffffffffffffffffffffffffffffffffffffffffffffffffffffffe0169290920160200192915050565b60208152600061057f602083018461482a565b6000806040838503121561489a57600080fd5b82356148a5816146bd565b946020939093013593505050565b6000806000606084860312156148c857600080fd5b83356148d3816146bd565b925060208401356148e3816146bd565b929592945050506040919091013590565b60006020828403121561490657600080fd5b813561057f816146bd565b60006020828403121561492357600080fd5b5035919050565b60008060006060848603121561493f57600080fd5b8335925060208401356148e3816146bd565b60008083601f84011261496357600080fd5b50813567ffffffffffffffff81111561497b57600080fd5b60208301915083602082850101111561499357600080fd5b9250929050565b600080602083850312156149ad57600080fd5b823567ffffffffffffffff8111156149c457600080fd5b6149d085828601614951565b90969095509350505050565b821515815260406020820152600061130b604083018461482a565b60008060008060608587031215614a0d57600080fd5b8435614a18816146bd565b93506020850135614a28816146bd565b9250604085013567ffffffffffffffff811115614a4457600080fd5b614a5087828801614951565b95989497509550505050565b60008083601f840112614a6e57600080fd5b50813567ffffffffffffffff811115614a8657600080fd5b6020830191508360208260051b850101111561499357600080fd5b60008060008060008060008060008060a08b8d031215614ac057600080fd5b8a3567ffffffffffffffff80821115614ad857600080fd5b614ae48e838f01614a5c565b909c509a5060208d0135915080821115614afd57600080fd5b614b098e838f01614a5c565b909a50985060408d0135915080821115614b2257600080fd5b614b2e8e838f01614a5c565b909850965060608d0135915080821115614b4757600080fd5b614b538e838f01614a5c565b909650945060808d0135915080821115614b6c57600080fd5b50614b798d828e01614951565b915080935050809150509295989b9194979a5092959850565b60008060408385031215614ba557600080fd5b8235614bb0816146bd565b91506020830135614714816146bd565b600080600080600060608688031215614bd857600080fd5b8535614be3816146bd565b9450602086013567ffffffffffffffff80821115614c0057600080fd5b614c0c89838a01614a5c565b90965094506040880135915080821115614c2557600080fd5b50614c3288828901614951565b969995985093965092949392505050565b600181811c90821680614c5757607f821691505b602082108103611e5d577f4e487b7100000000000000000000000000000000000000000000000000000000600052602260045260246000fd5b600060208284031215614ca257600080fd5b815160ff8116811461057f57600080fd5b7f4e487b7100000000000000000000000000000000000000000000000000000000600052601160045260246000fd5b808201808211156104b0576104b0614cb3565b600060208284031215614d0757600080fd5b5051919050565b7f4e487b7100000000000000000000000000000000000000000000000000000000600052604160045260246000fd5b6040516060810167ffffffffffffffff81118282101715614d6057614d60614d0e565b60405290565b60405160c0810167ffffffffffffffff81118282101715614d6057614d60614d0e565b6040516080810167ffffffffffffffff81118282101715614d6057614d60614d0e565b604051601f82017fffffffffffffffffffffffffffffffffffffffffffffffffffffffffffffffe016810167ffffffffffffffff81118282101715614df357614df3614d0e565b604052919050565b600060608284031215614e0d57600080fd5b614e15614d3d565b8235614e20816146bd565b8152602083810135908201526040928301359281019290925250919050565b600281106107c557600080fd5b80356146ea81614e3f565b80151581146107c557600080fd5b80356146ea81614e57565b6000610100808385031215614e8457600080fd5b6040519081019067ffffffffffffffff82118183101715614ea757614ea7614d0e565b816040528092508335815260208401359150614ec2826146bd565b816020820152614ed4604085016146df565b6040820152606084013560608201526080840135608082015260a084013560a0820152614f0360c08501614e4c565b60c0820152614f1460e08501614e65565b60e0820152505092915050565b600067ffffffffffffffff821115614f3b57614f3b614d0e565b5060051b60200190565b8060010b81146107c557600080fd5b6000806000806101608587031215614f6b57600080fd5b614f758686614e70565b935061010085013567ffffffffffffffff811115614f9257600080fd5b8501601f81018713614fa357600080fd5b80356020614fb8614fb383614f21565b614dac565b82815260c0928302840182019282820191908b851115614fd757600080fd5b948301945b8486101561505a5780868d031215614ff45760008081fd5b614ffc614d66565b86358152848701358582015260408088013590820152606080880135615021816146bd565b9082015260808781013561503481614e3f565b9082015260a08781013561504781614f45565b9082015283529485019491830191614fdc565b50979a979950505050610120860135956101400135949350505050565b818103818111156104b0576104b0614cb3565b6000602080838503121561509d57600080fd5b823567ffffffffffffffff808211156150b557600080fd5b90840190608082870312156150c957600080fd5b6150d1614d89565b82356150dc816146bd565b8152828401356150eb816146bd565b818501526040838101359082015260608301358281111561510b57600080fd5b80840193505086601f84011261512057600080fd5b82359150615130614fb383614f21565b82815260059290921b8301840191848101908884111561514f57600080fd5b938501935b8385101561516d57843582529385019390850190615154565b6060830152509695505050505050565b600081518084526020808501945080840160005b838110156151ad57815187529582019590820190600101615191565b509495945050505050565b600073ffffffffffffffffffffffffffffffffffffffff808916835280881660208401525060a060408301528460a08301527f07ffffffffffffffffffffffffffffffffffffffffffffffffffffffffffffff85111561521757600080fd5b8460051b808760c0850137820182810360c0908101606085015261523d9082018661517d565b90508281036080840152615251818561482a565b9998505050505050505050565b6000806000610140848603121561527457600080fd5b61527e8585614e70565b956101008501359550610120909401359392505050565b6000602082840312156152a757600080fd5b815161057f816146bd565b61ffff81811683821601908082111561455557614555614cb3565b61ffff82811682821603908082111561455557614555614cb3565b7f4e487b7100000000000000000000000000000000000000000000000000000000600052603260045260246000fd5b7f4e487b7100000000000000000000000000000000000000000000000000000000600052601260045260246000fd5b60208152600073ffffffffffffffffffffffffffffffffffffffff8084511660208401528060208501511660408401525060408301516060830152606083015160808084015261130b60a084018261517d565b805480835260008281526020808220940193909190825b82600f820110156154fe578154600181810b885260206153d9818a018460101c840b60010b9052565b60406153ed818b0185841c850b60010b9052565b60609150615404828b018560301c850b60010b9052565b6080615418818c0186841c860b60010b9052565b60a0915061542f828c018660501c860b60010b9052565b60c0615443818d0187861c870b60010b9052565b60e0935061545a848d018760701c870b60010b9052565b85821c850b60010b6101008d015261547d6101208d018760901c870b60010b9052565b85831c850b60010b6101408d01526154a06101608d018760b01c870b60010b9052565b85811c850b60010b6101808d01525050506154c66101a08a018460d01c840b60010b9052565b82811c820b60010b6101c08a0152506154e86101e089018360f01d60010b9052565b61020097909701969290920191506010016153b0565b9054908281101561551857600182810b8752602090960195015b8281101561553557601082901c60010b8652602095909501946001015b8281101561554e57602082811c600190810b8852960195015b8281101561556b57603082901c60010b8652602095909501946001015b8281101561558857604082901c60010b8652602095909501946001015b828110156155a557605082901c60010b8652602095909501946001015b828110156155c257606082901c60010b8652602095909501946001015b828110156155df57607082901c60010b8652602095909501946001015b828110156155fc57608082901c60010b8652602095909501946001015b8281101561561957609082901c60010b8652602095909501946001015b828110156156365760a082901c60010b8652602095909501946001015b828110156156535760b082901c60010b8652602095909501946001015b828110156156705760c082901c60010b8652602095909501946001015b8281101561568d5760d082901c60010b8652602095909501946001015b828110156156aa5760e082901c60010b8652602095909501946001015b828110156156c8576156c1868360f01d60010b9052565b6020860195505b5093949350505050565b73ffffffffffffffffffffffffffffffffffffffff851681526080602082015260006157016080830186615399565b8281036040840152615713818661517d565b9050828103606084015261422d818561482a565b6000602080838503121561573a57600080fd5b825167ffffffffffffffff81111561575157600080fd5b8301601f8101851361576257600080fd5b8051615770614fb382614f21565b81815260c0918202830184019184820191908884111561578f57600080fd5b938501935b838510156158125780858a0312156157ac5760008081fd5b6157b4614d66565b855181528686015187820152604080870151908201526060808701516157d9816146bd565b908201526080868101516157ec81614e3f565b9082015260a0868101516157ff81614f45565b9082015283529384019391850191615794565b50979650505050505050565b60006060828403121561583057600080fd5b615838614d3d565b8251815260208301516020820152604083015160408201528091505092915050565b61014081016158698286614785565b6101008201939093526101200152919050565b6000815480845260208085019450836000528060002060005b838110156151ad57815487529582019560019182019101615895565b6040815260006158c4604083018561587c565b82810360208401526137e1818561482a565b60208152600061057f602083018461517d565b60006101608083016158fb8489614785565b61010084019190915285519081905261018083019060209081880160005b8281101561598e5781518051865284810151858701526040808201519087015260608082015173ffffffffffffffffffffffffffffffffffffffff16908701526080808201516159688161474e565b9087015260a090810151600190810b9187019190915260c0909501949184019101615919565b5050505061012083019490945250610140015292915050565b6000602082840312156159b957600080fd5b815161057f81614e57565b604080825283519082018190526000906020906060840190828701845b82811015615a1357815173ffffffffffffffffffffffffffffffffffffffff16845292840192908401906001016159e1565b50505083810382850152611b04818661587c565b60006020808385031215615a3a57600080fd5b825167ffffffffffffffff811115615a5157600080fd5b8301601f81018513615a6257600080fd5b8051615a70614fb382614f21565b81815260059190911b82018301908381019087831115615a8f57600080fd5b928401925b8284101561422d57835182529284019290840190615a94565b60007fffffffffffffffffffffffffffffffffffffffffffffffffffffffffffffffff8203615ade57615ade614cb3565b5060010190565b60208152600061057f6020830184615399565b60208152600061057f602083018461587c565b60008251615b1d818460208701614806565b9190910192915050565b7f4e487b7100000000000000000000000000000000000000000000000000000000600052603160045260246000fdfea2646970667358221220b476b30320fcac2807fe5f9e1eabc5a5bf691e6848baf45c61bb273956a8e6f964736f6c63430008130033",
  "devdoc": {
    "errors": {
      "AddLiquidityNotAllowed()": [
        {
          "details": "Error indicating that adding liquidity is not allowed during private mode."
        }
      ],
      "AddLiquiditySuspended()": [
        {
          "details": "Error indicating that adding liquidity is suspended."
        }
      ],
      "AlreadySettled()": [
        {
          "details": "Error indicating that the action has already been settled."
        }
      ],
      "InvalidMinHoldingValueToRebalance()": [
        {
          "details": "Signifies that an invalid minHoldingValueToRebalance value has been encountered."
        }
      ],
      "InvalidRebalanceBPS()": [
        {
          "details": "Signifies that an invalid rebalance basis points value has been encountered."
        }
      ],
      "InvalidReceiptId()": [
        {
          "details": "Error indicating invalid receitp ID."
        }
      ],
      "InvalidUtilizationTarget(uint16)": [
        {
          "details": "The invalid target basis points."
        }
      ],
      "NotAutomationCalled()": [
        {
          "details": "Thrown when an automation call is not made"
        }
      ],
      "NotImplementedInLogicContract()": [
        {
          "details": "Indicates that the functionality is not implemented in the logic contract."
        }
      ],
      "NotKeeperCalled()": [
        {
          "details": "Thrown when the keeper is not called."
        }
      ],
      "NotMarket()": [
        {
          "details": "Indicates that the operation is not applicable to the market."
        }
      ],
      "NotMatchDistributionLength(uint256,uint256)": [
        {
          "details": "Thrown when the lengths of the fee array and distribution array do not match.",
          "params": {
            "distributionLength": "The length of the distribution array.",
            "feeLength": "The length of the fee array."
          }
        }
      ],
      "NotOwner()": [
        {
          "details": "Signifies that the caller is not the owner of the contract"
        }
      ],
      "OnlyAccessableByDao()": [
        {
          "details": "Signifies that the function is only accessible by the DAO"
        }
      ],
      "OnlyBatchCall()": [
        {
          "details": "Denotes that the function can only be called within a batch call."
        }
      ],
      "OracleVersionError()": [
        {
          "details": "Error indicating an invalid oracle version."
        }
      ],
      "RemoveLiquiditySuspended()": [
        {
          "details": "Error indicating that removing liquidity is suspended."
        }
      ],
      "TooSmallAmountToAddLiquidity()": [
        {
          "details": "Throws an error indicating that the amount to add liquidity is too small."
        }
      ],
      "UnknownLPAction()": [
        {
          "details": "Thrown when an unknown liquidity provider action is encountered"
        }
      ],
      "UpgradeFailed()": [
        {
          "details": "Error indicating that upgrading failed."
        }
      ],
      "UpgradeFailedNotContractAddress()": [
        {
          "details": "Error indicating that upgrading failed with a invalid contract address."
        }
      ],
      "ZeroAddressError()": [
        {
          "details": "Error indicating an attempt to use a zero address."
        }
      ],
      "ZeroRemoveLiquidityError()": [
        {
          "details": "Error indicating that removing zero amount of liquidity is invalid."
        }
      ]
    },
    "events": {
      "AddLiquidity(uint256,address,address,uint256,uint256)": {
        "params": {
          "amount": "Amount of liquidity added in the settlement token.",
          "oracleVersion": "Version of the oracle used.",
          "provider": "Address of the liquidity provider.",
          "receiptId": "Unique identifier for the liquidity addition receipt.",
          "recipient": "Address of the recipient."
        }
      },
      "AddLiquiditySettled(uint256,address,address,uint256,uint256,uint256)": {
        "params": {
          "keeperFee": "Fee paid to the keeper.",
          "lpTokenAmount": "Amount of LP tokens issued.",
          "provider": "Address of the liquidity provider.",
          "receiptId": "Unique identifier for the liquidity addition receipt.",
          "recipient": "Address of the recipient.",
          "settlementAdded": "Settlement added to the liquidity"
        }
      },
      "Approval(address,address,uint256)": {
        "details": "Emitted when the allowance of a `spender` for an `owner` is set by a call to {approve}. `value` is the new allowance."
      },
      "RebalanceAddLiquidity(uint256,uint256,uint256,uint256)": {
        "params": {
          "amount": "Amount of liquidity added during rebalance.",
          "currentUtility": "Current utility of the liquidity provider.",
          "oracleVersion": "Version of the oracle used.",
          "receiptId": "Unique identifier for the rebalance liquidity addition receipt."
        }
      },
      "RebalanceRemoveLiquidity(uint256,uint256,uint256)": {
        "params": {
          "currentUtility": "Current utility of the liquidity pool.",
          "oracleVersion": "Version of the oracle used.",
          "receiptId": "Unique identifier for the rebalance liquidity removal receipt."
        }
      },
      "RebalanceSettled(uint256,uint256)": {
        "params": {
          "keeperFee": "Fee paid to the keeper.",
          "receiptId": "Unique identifier for the settled rebalance receipt."
        }
      },
      "RemoveLiquidity(uint256,address,address,uint256,uint256)": {
        "params": {
          "lpTokenAmount": "Amount of LP tokens to be removed.",
          "oracleVersion": "Version of the oracle used.",
          "provider": "Address of the liquidity provider.",
          "receiptId": "Unique identifier for the liquidity removal receipt.",
          "recipient": "Address of the recipient."
        }
      },
      "RemoveLiquiditySettled(uint256,address,address,uint256,uint256,uint256,uint256)": {
        "params": {
          "burningAmount": "Amount of LP tokens burned.",
          "keeperFee": "Fee paid to the keeper.",
          "provider": "Address of the liquidity provider.",
          "receiptId": "Unique identifier for the settled liquidity removal receipt.",
          "recipient": "Address of the recipient.",
          "refundedAmount": "Amount refunded to the provider.",
          "withdrawnSettlementAmount": "Withdrawn settlement amount."
        }
      },
      "SetAutomateLP(address)": {
        "params": {
          "automate": "The address of the AutomateLP contract."
        }
      },
      "SetPrivateMode(bool)": {
        "details": "Emitted when the private/public mode is set.",
        "params": {
          "mode": "The new private/public mode ."
        }
      },
      "SetSuspendMode(uint8)": {
        "details": "Emitted when the suspension mode is set.",
        "params": {
          "mode": "The new suspension mode."
        }
      },
      "Transfer(address,address,uint256)": {
        "details": "Emitted when `value` tokens are moved from one account (`from`) to another (`to`). Note that `value` may be zero."
      },
      "Upgraded(address,address)": {
        "details": "Emitted when logic contract of the LP contract is upgraded.",
        "params": {
          "newLogic": "The address of the new logic.",
          "previousLogic": "The address of the previous logic."
        }
      }
    },
    "kind": "dev",
    "methods": {
      "addLiquidity(uint256,address)": {
        "details": "implementation of IChromaticLP"
      },
      "addLiquidityBatchCallback(address,address,bytes)": {
        "details": "implementation of IChromaticLiquidityCallback"
      },
      "allowance(address,address)": {
        "details": "See {IERC20-allowance}."
      },
      "approve(address,uint256)": {
        "details": "See {IERC20-approve}. NOTE: If `amount` is the maximum `uint256`, the allowance is not updated on `transferFrom`. This is semantically equivalent to an infinite approval. Requirements: - `spender` cannot be the zero address."
      },
      "balanceOf(address)": {
        "details": "See {IERC20-balanceOf}."
      },
      "claimLiquidityBatchCallback(uint256[],int16[],uint256[],uint256[],bytes)": {
        "details": "implementation of IChromaticLiquidityCallback"
      },
      "decimals()": {
        "details": "Returns the number of decimals used to get its user representation. For example, if `decimals` equals `2`, a balance of `505` tokens should be displayed to a user as `5.05` (`505 / 10 ** 2`). Tokens usually opt for a value of 18, imitating the relationship between Ether and Wei. This is the default value returned by this function, unless it's overridden. NOTE: This information is only used for _display_ purposes: it in no way affects any of the arithmetic of the contract, including {IERC20-balanceOf} and {IERC20-transfer}."
      },
      "decreaseAllowance(address,uint256)": {
        "details": "Atomically decreases the allowance granted to `spender` by the caller. This is an alternative to {approve} that can be used as a mitigation for problems described in {IERC20-approve}. Emits an {Approval} event indicating the updated allowance. Requirements: - `spender` cannot be the zero address. - `spender` must have allowance for the caller of at least `subtractedValue`."
      },
      "increaseAllowance(address,uint256)": {
        "details": "Atomically increases the allowance granted to `spender` by the caller. This is an alternative to {approve} that can be used as a mitigation for problems described in {IERC20-approve}. Emits an {Approval} event indicating the updated allowance. Requirements: - `spender` cannot be the zero address."
      },
      "name()": {
        "details": "Returns the name of the token."
      },
      "rebalance(address,uint256)": {
        "details": "implementation of IChromaticLP"
      },
      "removeLiquidity(uint256,address)": {
        "details": "implementation of IChromaticLP"
      },
      "removeLiquidityBatchCallback(address,uint256[],bytes)": {
        "details": "implementation of IChromaticLiquidityCallback"
      },
      "settle(uint256)": {
        "details": "implementation of IChromaticLP"
      },
      "symbol()": {
        "details": "Returns the symbol of the token, usually a shorter version of the name."
      },
      "totalSupply()": {
        "details": "See {IERC20-totalSupply}."
      },
      "transfer(address,uint256)": {
        "details": "See {IERC20-transfer}. Requirements: - `to` cannot be the zero address. - the caller must have a balance of at least `amount`."
      },
      "transferFrom(address,address,uint256)": {
        "details": "See {IERC20-transferFrom}. Emits an {Approval} event indicating the updated allowance. This is not required by the EIP. See the note at the beginning of {ERC20}. NOTE: Does not update the allowance if the current allowance is the maximum `uint256`. Requirements: - `from` and `to` cannot be the zero address. - `from` must have a balance of at least `amount`. - the caller must have allowance for ``from``'s tokens of at least `amount`."
      },
      "withdrawLiquidityBatchCallback(uint256[],int16[],uint256[],uint256[],bytes)": {
        "details": "implementation of IChromaticLiquidityCallback"
      }
    },
    "version": 1
  },
  "userdoc": {
    "events": {
      "AddLiquidity(uint256,address,address,uint256,uint256)": {
        "notice": "Emitted when addLiquidity is performed."
      },
      "AddLiquiditySettled(uint256,address,address,uint256,uint256,uint256)": {
        "notice": "Emitted when addLiquidity is settled."
      },
      "RebalanceAddLiquidity(uint256,uint256,uint256,uint256)": {
        "notice": "Emitted when rebalance of adding liquidity is performed."
      },
      "RebalanceRemoveLiquidity(uint256,uint256,uint256)": {
        "notice": "Emitted when rebalance of removing liquidity is performed."
      },
      "RebalanceSettled(uint256,uint256)": {
        "notice": "Emitted when rebalancing is settled."
      },
      "RemoveLiquidity(uint256,address,address,uint256,uint256)": {
        "notice": "Emitted when removeLiquidity is performed."
      },
      "RemoveLiquiditySettled(uint256,address,address,uint256,uint256,uint256,uint256)": {
        "notice": "Emitted when removeLiquidity is settled."
      },
      "SetAutomateLP(address)": {
        "notice": "Emitted when the AutomateLP address is set."
      }
    },
    "kind": "user",
    "methods": {},
    "version": 1
  },
  "storageLayout": {
    "storage": [
      {
        "astId": 4004,
        "contract": "contracts/lp/ChromaticLPLogic.sol:ChromaticLPLogic",
        "label": "_balances",
        "offset": 0,
        "slot": "0",
        "type": "t_mapping(t_address,t_uint256)"
      },
      {
        "astId": 4010,
        "contract": "contracts/lp/ChromaticLPLogic.sol:ChromaticLPLogic",
        "label": "_allowances",
        "offset": 0,
        "slot": "1",
        "type": "t_mapping(t_address,t_mapping(t_address,t_uint256))"
      },
      {
        "astId": 4012,
        "contract": "contracts/lp/ChromaticLPLogic.sol:ChromaticLPLogic",
        "label": "_totalSupply",
        "offset": 0,
        "slot": "2",
        "type": "t_uint256"
      },
      {
        "astId": 4014,
        "contract": "contracts/lp/ChromaticLPLogic.sol:ChromaticLPLogic",
        "label": "_name",
        "offset": 0,
        "slot": "3",
        "type": "t_string_storage"
      },
      {
        "astId": 4016,
        "contract": "contracts/lp/ChromaticLPLogic.sol:ChromaticLPLogic",
        "label": "_symbol",
        "offset": 0,
        "slot": "4",
        "type": "t_string_storage"
      },
      {
        "astId": 11828,
        "contract": "contracts/lp/ChromaticLPLogic.sol:ChromaticLPLogic",
        "label": "s_meta",
        "offset": 0,
        "slot": "5",
        "type": "t_struct(LPMeta)11811_storage"
      },
      {
        "astId": 11831,
        "contract": "contracts/lp/ChromaticLPLogic.sol:ChromaticLPLogic",
        "label": "s_config",
        "offset": 0,
        "slot": "7",
        "type": "t_struct(LPConfig)12841_storage"
      },
      {
        "astId": 11834,
        "contract": "contracts/lp/ChromaticLPLogic.sol:ChromaticLPLogic",
        "label": "s_state",
        "offset": 0,
        "slot": "11",
        "type": "t_struct(LPState)12943_storage"
      },
      {
        "astId": 11836,
        "contract": "contracts/lp/ChromaticLPLogic.sol:ChromaticLPLogic",
        "label": "s_logicAddress",
        "offset": 0,
        "slot": "23",
        "type": "t_address"
      },
      {
        "astId": 3756,
        "contract": "contracts/lp/ChromaticLPLogic.sol:ChromaticLPLogic",
        "label": "_status",
        "offset": 0,
        "slot": "24",
        "type": "t_uint256"
      },
      {
        "astId": 11887,
        "contract": "contracts/lp/ChromaticLPLogic.sol:ChromaticLPLogic",
        "label": "_mode",
        "offset": 0,
        "slot": "25",
        "type": "t_enum(SuspendModeType)11879"
      },
      {
        "astId": 11651,
        "contract": "contracts/lp/ChromaticLPLogic.sol:ChromaticLPLogic",
        "label": "__proxyReserved",
        "offset": 0,
        "slot": "26",
        "type": "t_array(t_uint256)50_storage"
      },
      {
        "astId": 11686,
        "contract": "contracts/lp/ChromaticLPLogic.sol:ChromaticLPLogic",
        "label": "s_task",
        "offset": 0,
        "slot": "76",
        "type": "t_mapping(t_uint256,t_contract(IAutomateLP)12039)"
      },
      {
        "astId": 11689,
        "contract": "contracts/lp/ChromaticLPLogic.sol:ChromaticLPLogic",
        "label": "s_automate",
        "offset": 0,
        "slot": "77",
        "type": "t_contract(IAutomateLP)12039"
      },
      {
        "astId": 10460,
        "contract": "contracts/lp/ChromaticLPLogic.sol:ChromaticLPLogic",
        "label": "version",
        "offset": 0,
        "slot": "78",
        "type": "t_bytes32"
      }
    ],
    "types": {
      "t_address": {
        "encoding": "inplace",
        "label": "address",
        "numberOfBytes": "20"
      },
      "t_array(t_bytes32)dyn_storage": {
        "base": "t_bytes32",
        "encoding": "dynamic_array",
        "label": "bytes32[]",
        "numberOfBytes": "32"
      },
      "t_array(t_int16)dyn_storage": {
        "base": "t_int16",
        "encoding": "dynamic_array",
        "label": "int16[]",
        "numberOfBytes": "32"
      },
      "t_array(t_uint256)50_storage": {
        "base": "t_uint256",
        "encoding": "inplace",
        "label": "uint256[50]",
        "numberOfBytes": "1600"
      },
      "t_array(t_uint256)dyn_storage": {
        "base": "t_uint256",
        "encoding": "dynamic_array",
        "label": "uint256[]",
        "numberOfBytes": "32"
      },
      "t_bool": {
        "encoding": "inplace",
        "label": "bool",
        "numberOfBytes": "1"
      },
      "t_bytes32": {
        "encoding": "inplace",
        "label": "bytes32",
        "numberOfBytes": "32"
      },
      "t_contract(IAutomateLP)12039": {
        "encoding": "inplace",
        "label": "contract IAutomateLP",
        "numberOfBytes": "20"
      },
      "t_contract(IChromaticMarket)125": {
        "encoding": "inplace",
        "label": "contract IChromaticMarket",
        "numberOfBytes": "20"
      },
      "t_enum(ChromaticLPAction)12796": {
        "encoding": "inplace",
        "label": "enum ChromaticLPAction",
        "numberOfBytes": "1"
      },
      "t_enum(SuspendModeType)11879": {
        "encoding": "inplace",
        "label": "enum SuspendModeType",
        "numberOfBytes": "1"
      },
      "t_int16": {
        "encoding": "inplace",
        "label": "int16",
        "numberOfBytes": "2"
      },
      "t_mapping(t_address,t_mapping(t_address,t_uint256))": {
        "encoding": "mapping",
        "key": "t_address",
        "label": "mapping(address => mapping(address => uint256))",
        "numberOfBytes": "32",
        "value": "t_mapping(t_address,t_uint256)"
      },
      "t_mapping(t_address,t_struct(UintSet)8449_storage)": {
        "encoding": "mapping",
        "key": "t_address",
        "label": "mapping(address => struct EnumerableSet.UintSet)",
        "numberOfBytes": "32",
        "value": "t_struct(UintSet)8449_storage"
      },
      "t_mapping(t_address,t_uint256)": {
        "encoding": "mapping",
        "key": "t_address",
        "label": "mapping(address => uint256)",
        "numberOfBytes": "32",
        "value": "t_uint256"
      },
      "t_mapping(t_bytes32,t_uint256)": {
        "encoding": "mapping",
        "key": "t_bytes32",
        "label": "mapping(bytes32 => uint256)",
        "numberOfBytes": "32",
        "value": "t_uint256"
      },
      "t_mapping(t_int16,t_uint16)": {
        "encoding": "mapping",
        "key": "t_int16",
        "label": "mapping(int16 => uint16)",
        "numberOfBytes": "32",
        "value": "t_uint16"
      },
      "t_mapping(t_int16,t_uint256)": {
        "encoding": "mapping",
        "key": "t_int16",
        "label": "mapping(int16 => uint256)",
        "numberOfBytes": "32",
        "value": "t_uint256"
      },
      "t_mapping(t_uint256,t_array(t_uint256)dyn_storage)": {
        "encoding": "mapping",
        "key": "t_uint256",
        "label": "mapping(uint256 => uint256[])",
        "numberOfBytes": "32",
        "value": "t_array(t_uint256)dyn_storage"
      },
      "t_mapping(t_uint256,t_contract(IAutomateLP)12039)": {
        "encoding": "mapping",
        "key": "t_uint256",
        "label": "mapping(uint256 => contract IAutomateLP)",
        "numberOfBytes": "32",
        "value": "t_contract(IAutomateLP)12039"
      },
      "t_mapping(t_uint256,t_struct(ChromaticLPReceipt)12814_storage)": {
        "encoding": "mapping",
        "key": "t_uint256",
        "label": "mapping(uint256 => struct ChromaticLPReceipt)",
        "numberOfBytes": "32",
        "value": "t_struct(ChromaticLPReceipt)12814_storage"
      },
      "t_string_storage": {
        "encoding": "bytes",
        "label": "string",
        "numberOfBytes": "32"
      },
      "t_struct(ChromaticLPReceipt)12814_storage": {
        "encoding": "inplace",
        "label": "struct ChromaticLPReceipt",
        "members": [
          {
            "astId": 12798,
            "contract": "contracts/lp/ChromaticLPLogic.sol:ChromaticLPLogic",
            "label": "id",
            "offset": 0,
            "slot": "0",
            "type": "t_uint256"
          },
          {
            "astId": 12800,
            "contract": "contracts/lp/ChromaticLPLogic.sol:ChromaticLPLogic",
            "label": "provider",
            "offset": 0,
            "slot": "1",
            "type": "t_address"
          },
          {
            "astId": 12802,
            "contract": "contracts/lp/ChromaticLPLogic.sol:ChromaticLPLogic",
            "label": "recipient",
            "offset": 0,
            "slot": "2",
            "type": "t_address"
          },
          {
            "astId": 12804,
            "contract": "contracts/lp/ChromaticLPLogic.sol:ChromaticLPLogic",
            "label": "oracleVersion",
            "offset": 0,
            "slot": "3",
            "type": "t_uint256"
          },
          {
            "astId": 12806,
            "contract": "contracts/lp/ChromaticLPLogic.sol:ChromaticLPLogic",
            "label": "amount",
            "offset": 0,
            "slot": "4",
            "type": "t_uint256"
          },
          {
            "astId": 12808,
            "contract": "contracts/lp/ChromaticLPLogic.sol:ChromaticLPLogic",
            "label": "pendingLiquidity",
            "offset": 0,
            "slot": "5",
            "type": "t_uint256"
          },
          {
            "astId": 12811,
            "contract": "contracts/lp/ChromaticLPLogic.sol:ChromaticLPLogic",
            "label": "action",
            "offset": 0,
            "slot": "6",
            "type": "t_enum(ChromaticLPAction)12796"
          },
          {
            "astId": 12813,
            "contract": "contracts/lp/ChromaticLPLogic.sol:ChromaticLPLogic",
            "label": "needSettle",
            "offset": 1,
            "slot": "6",
            "type": "t_bool"
          }
        ],
        "numberOfBytes": "224"
      },
      "t_struct(LPConfig)12841_storage": {
        "encoding": "inplace",
        "label": "struct LPConfig",
        "members": [
          {
            "astId": 12832,
            "contract": "contracts/lp/ChromaticLPLogic.sol:ChromaticLPLogic",
            "label": "utilizationTargetBPS",
            "offset": 0,
            "slot": "0",
            "type": "t_uint16"
          },
          {
            "astId": 12834,
            "contract": "contracts/lp/ChromaticLPLogic.sol:ChromaticLPLogic",
            "label": "rebalanceBPS",
            "offset": 2,
            "slot": "0",
            "type": "t_uint16"
          },
          {
            "astId": 12836,
            "contract": "contracts/lp/ChromaticLPLogic.sol:ChromaticLPLogic",
            "label": "rebalanceCheckingInterval",
            "offset": 0,
            "slot": "1",
            "type": "t_uint256"
          },
          {
            "astId": 12838,
            "contract": "contracts/lp/ChromaticLPLogic.sol:ChromaticLPLogic",
            "label": "automationFeeReserved",
            "offset": 0,
            "slot": "2",
            "type": "t_uint256"
          },
          {
            "astId": 12840,
            "contract": "contracts/lp/ChromaticLPLogic.sol:ChromaticLPLogic",
            "label": "minHoldingValueToRebalance",
            "offset": 0,
            "slot": "3",
            "type": "t_uint256"
          }
        ],
        "numberOfBytes": "128"
      },
      "t_struct(LPMeta)11811_storage": {
        "encoding": "inplace",
        "label": "struct ChromaticLPStorageCore.LPMeta",
        "members": [
          {
            "astId": 11808,
            "contract": "contracts/lp/ChromaticLPLogic.sol:ChromaticLPLogic",
            "label": "lpName",
            "offset": 0,
            "slot": "0",
            "type": "t_string_storage"
          },
          {
            "astId": 11810,
            "contract": "contracts/lp/ChromaticLPLogic.sol:ChromaticLPLogic",
            "label": "tag",
            "offset": 0,
            "slot": "1",
            "type": "t_string_storage"
          }
        ],
        "numberOfBytes": "64"
      },
      "t_struct(LPState)12943_storage": {
        "encoding": "inplace",
        "label": "struct LPState",
        "members": [
          {
            "astId": 12905,
            "contract": "contracts/lp/ChromaticLPLogic.sol:ChromaticLPLogic",
            "label": "market",
            "offset": 0,
            "slot": "0",
            "type": "t_contract(IChromaticMarket)125"
          },
          {
            "astId": 12908,
            "contract": "contracts/lp/ChromaticLPLogic.sol:ChromaticLPLogic",
            "label": "feeRates",
            "offset": 0,
            "slot": "1",
            "type": "t_array(t_int16)dyn_storage"
          },
          {
            "astId": 12912,
            "contract": "contracts/lp/ChromaticLPLogic.sol:ChromaticLPLogic",
            "label": "distributionRates",
            "offset": 0,
            "slot": "2",
            "type": "t_mapping(t_int16,t_uint16)"
          },
          {
            "astId": 12914,
            "contract": "contracts/lp/ChromaticLPLogic.sol:ChromaticLPLogic",
            "label": "totalRate",
            "offset": 0,
            "slot": "3",
            "type": "t_uint256"
          },
          {
            "astId": 12917,
            "contract": "contracts/lp/ChromaticLPLogic.sol:ChromaticLPLogic",
            "label": "clbTokenIds",
            "offset": 0,
            "slot": "4",
            "type": "t_array(t_uint256)dyn_storage"
          },
          {
            "astId": 12922,
            "contract": "contracts/lp/ChromaticLPLogic.sol:ChromaticLPLogic",
            "label": "receipts",
            "offset": 0,
            "slot": "5",
            "type": "t_mapping(t_uint256,t_struct(ChromaticLPReceipt)12814_storage)"
          },
          {
            "astId": 12927,
            "contract": "contracts/lp/ChromaticLPLogic.sol:ChromaticLPLogic",
            "label": "lpReceiptMap",
            "offset": 0,
            "slot": "6",
            "type": "t_mapping(t_uint256,t_array(t_uint256)dyn_storage)"
          },
          {
            "astId": 12932,
            "contract": "contracts/lp/ChromaticLPLogic.sol:ChromaticLPLogic",
            "label": "providerReceiptIds",
            "offset": 0,
            "slot": "7",
            "type": "t_mapping(t_address,t_struct(UintSet)8449_storage)"
          },
          {
            "astId": 12934,
            "contract": "contracts/lp/ChromaticLPLogic.sol:ChromaticLPLogic",
            "label": "pendingAddLp",
            "offset": 0,
            "slot": "8",
            "type": "t_uint256"
          },
          {
            "astId": 12936,
            "contract": "contracts/lp/ChromaticLPLogic.sol:ChromaticLPLogic",
            "label": "pendingAddMarket",
            "offset": 0,
            "slot": "9",
            "type": "t_uint256"
          },
          {
            "astId": 12940,
            "contract": "contracts/lp/ChromaticLPLogic.sol:ChromaticLPLogic",
            "label": "pendingRemoveClbAmounts",
            "offset": 0,
            "slot": "10",
            "type": "t_mapping(t_int16,t_uint256)"
          },
          {
            "astId": 12942,
            "contract": "contracts/lp/ChromaticLPLogic.sol:ChromaticLPLogic",
            "label": "receiptId",
            "offset": 0,
            "slot": "11",
            "type": "t_uint256"
          }
        ],
        "numberOfBytes": "384"
      },
      "t_struct(Set)7977_storage": {
        "encoding": "inplace",
        "label": "struct EnumerableSet.Set",
        "members": [
          {
            "astId": 7972,
            "contract": "contracts/lp/ChromaticLPLogic.sol:ChromaticLPLogic",
            "label": "_values",
            "offset": 0,
            "slot": "0",
            "type": "t_array(t_bytes32)dyn_storage"
          },
          {
            "astId": 7976,
            "contract": "contracts/lp/ChromaticLPLogic.sol:ChromaticLPLogic",
            "label": "_indexes",
            "offset": 0,
            "slot": "1",
            "type": "t_mapping(t_bytes32,t_uint256)"
          }
        ],
        "numberOfBytes": "64"
      },
      "t_struct(UintSet)8449_storage": {
        "encoding": "inplace",
        "label": "struct EnumerableSet.UintSet",
        "members": [
          {
            "astId": 8448,
            "contract": "contracts/lp/ChromaticLPLogic.sol:ChromaticLPLogic",
            "label": "_inner",
            "offset": 0,
            "slot": "0",
            "type": "t_struct(Set)7977_storage"
          }
        ],
        "numberOfBytes": "64"
      },
      "t_uint16": {
        "encoding": "inplace",
        "label": "uint16",
        "numberOfBytes": "2"
      },
      "t_uint256": {
        "encoding": "inplace",
        "label": "uint256",
        "numberOfBytes": "32"
      }
    }
  }
}