{
  "address": "0xEf625c27Aa50c0469F323f95A03B84A3ef6d7226",
  "abi": [
    {
      "inputs": [
        {
          "internalType": "contract IChromaticMarketFactory",
          "name": "_factory",
          "type": "address"
        },
        {
          "internalType": "contract IAutomateBP",
          "name": "automate",
          "type": "address"
        }
      ],
      "stateMutability": "nonpayable",
      "type": "constructor"
    },
    {
      "inputs": [],
      "name": "OnlyAccessableByDao",
      "type": "error"
    },
    {
      "anonymous": false,
      "inputs": [
        {
          "indexed": true,
          "internalType": "address",
          "name": "lp",
          "type": "address"
        },
        {
          "indexed": false,
          "internalType": "address",
          "name": "bp",
          "type": "address"
        }
      ],
      "name": "ChromaticBPCreated",
      "type": "event"
    },
    {
      "anonymous": false,
      "inputs": [
        {
          "indexed": false,
          "internalType": "address",
          "name": "automateBP",
          "type": "address"
        }
      ],
      "name": "SetAutomateBP",
      "type": "event"
    },
    {
      "inputs": [],
      "name": "automateBP",
      "outputs": [
        {
          "internalType": "contract IAutomateBP",
          "name": "automate",
          "type": "address"
        }
      ],
      "stateMutability": "view",
      "type": "function"
    },
    {
      "inputs": [],
      "name": "bpList",
      "outputs": [
        {
          "internalType": "address[]",
          "name": "bpAddresses",
          "type": "address[]"
        }
      ],
      "stateMutability": "view",
      "type": "function"
    },
    {
      "inputs": [
        {
          "internalType": "address",
          "name": "lp",
          "type": "address"
        }
      ],
      "name": "bpListByLP",
      "outputs": [
        {
          "internalType": "address[]",
          "name": "bpAddresses",
          "type": "address[]"
        }
      ],
      "stateMutability": "view",
      "type": "function"
    },
    {
      "inputs": [
        {
          "components": [
            {
              "internalType": "contract IChromaticLP",
              "name": "lp",
              "type": "address"
            },
            {
              "internalType": "uint256",
              "name": "totalReward",
              "type": "uint256"
            },
            {
              "internalType": "uint256",
              "name": "minRaisingTarget",
              "type": "uint256"
            },
            {
              "internalType": "uint256",
              "name": "maxRaisingTarget",
              "type": "uint256"
            },
            {
              "internalType": "uint256",
              "name": "startTimeOfWarmup",
              "type": "uint256"
            },
            {
              "internalType": "uint256",
              "name": "maxDurationOfWarmup",
              "type": "uint256"
            },
            {
              "internalType": "uint256",
              "name": "durationOfLockup",
              "type": "uint256"
            },
            {
              "internalType": "uint256",
              "name": "minDeposit",
              "type": "uint256"
            }
          ],
          "internalType": "struct BPConfig",
          "name": "config",
          "type": "tuple"
        }
      ],
      "name": "createBP",
      "outputs": [],
      "stateMutability": "nonpayable",
      "type": "function"
    },
    {
      "inputs": [],
      "name": "marketFactory",
      "outputs": [
        {
          "internalType": "contract IChromaticMarketFactory",
          "name": "",
          "type": "address"
        }
      ],
      "stateMutability": "view",
      "type": "function"
    },
    {
      "inputs": [
        {
          "internalType": "contract IAutomateBP",
          "name": "automate",
          "type": "address"
        }
      ],
      "name": "setAutomateBP",
      "outputs": [],
      "stateMutability": "nonpayable",
      "type": "function"
    }
  ],
  "transactionHash": "0xb92558e1c31c331cc3b506fb8c72f15d5c60fef7c5bfbeca48bbdcde0f233ba9",
  "args": [
    "0x7e8e54FD9A35B3Bf908dD56Bb18928226d70810a",
    "0xa6feD539b77a40e63FCfd15940D029682fad433C"
  ],
  "numDeployments": 2,
  "solcInputHash": "87dd17862f202dc246bd4ba28d192414",
  "bytecode": "0x60a060405234801561001057600080fd5b5060405161427e38038061427e83398101604081905261002f91610157565b6001600160a01b0382166080526100458161004c565b50506101b5565b6080516001600160a01b0316634162169f6040518163ffffffff1660e01b8152600401602060405180830381865afa15801561008c573d6000803e3d6000fd5b505050506040513d601f19601f820116820180604052508101906100b09190610191565b6001600160a01b0316336001600160a01b0316146100e15760405163808ca14f60e01b815260040160405180910390fd5b6040516001600160a01b03821681527fe65539b9829c8146325bb042388c74e61f85a7a5a846143cef591c4b04f7df649060200160405180910390a1600380546001600160a01b0319166001600160a01b0392909216919091179055565b6001600160a01b038116811461015457600080fd5b50565b6000806040838503121561016a57600080fd5b82516101758161013f565b60208401519092506101868161013f565b809150509250929050565b6000602082840312156101a357600080fd5b81516101ae8161013f565b9392505050565b6080516140a16101dd6000396000818160820152818161014d01526103c801526140a16000f3fe60806040523480156200001157600080fd5b50600436106200007b5760003560e01c8063297e71181162000056578063297e711814620000fe57806353206b861462000115578063d6fe9bab146200012c57600080fd5b806306ae7095146200008057806316714d9d14620000cc57806326b1426814620000e5575b600080fd5b7f00000000000000000000000000000000000000000000000000000000000000005b60405173ffffffffffffffffffffffffffffffffffffffff90911681526020015b60405180910390f35b620000e3620000dd3660046200067d565b6200014b565b005b620000ef6200037a565b604051620000c391906200073f565b620000ef6200010f3660046200079b565b6200038d565b620000e3620001263660046200079b565b620003c6565b60035473ffffffffffffffffffffffffffffffffffffffff16620000a2565b7f000000000000000000000000000000000000000000000000000000000000000073ffffffffffffffffffffffffffffffffffffffff16634162169f6040518163ffffffff1660e01b8152600401602060405180830381865afa158015620001b7573d6000803e3d6000fd5b505050506040513d601f19601f82011682018060405250810190620001dd9190620007bb565b73ffffffffffffffffffffffffffffffffffffffff163373ffffffffffffffffffffffffffffffffffffffff161462000242576040517f808ca14f00000000000000000000000000000000000000000000000000000000815260040160405180910390fd5b60008130604051620002549062000637565b825173ffffffffffffffffffffffffffffffffffffffff90811682526020808501519083015260408085015190830152606080850151908301526080808501519083015260a0808501519083015260c0808501519083015260e09384015193820193909352911661010082015261012001604051809103906000f080158015620002e2573d6000803e3d6000fd5b50825160405173ffffffffffffffffffffffffffffffffffffffff80841682529293509116907fb5c46f74ae73ebe546a94859386f8096f6413123546860bd0a8ab6769cac4ed69060200160405180910390a2815173ffffffffffffffffffffffffffffffffffffffff1660009081526020819052604090206200036790826200054d565b50620003756001826200054d565b505050565b606062000388600162000578565b905090565b73ffffffffffffffffffffffffffffffffffffffff81166000908152602081905260409020606090620003c09062000578565b92915050565b7f000000000000000000000000000000000000000000000000000000000000000073ffffffffffffffffffffffffffffffffffffffff16634162169f6040518163ffffffff1660e01b8152600401602060405180830381865afa15801562000432573d6000803e3d6000fd5b505050506040513d601f19601f82011682018060405250810190620004589190620007bb565b73ffffffffffffffffffffffffffffffffffffffff163373ffffffffffffffffffffffffffffffffffffffff1614620004bd576040517f808ca14f00000000000000000000000000000000000000000000000000000000815260040160405180910390fd5b60405173ffffffffffffffffffffffffffffffffffffffff821681527fe65539b9829c8146325bb042388c74e61f85a7a5a846143cef591c4b04f7df649060200160405180910390a1600380547fffffffffffffffffffffffff00000000000000000000000000000000000000001673ffffffffffffffffffffffffffffffffffffffff92909216919091179055565b6000620005718373ffffffffffffffffffffffffffffffffffffffff841662000587565b9392505050565b606060006200057183620005d9565b6000818152600183016020526040812054620005d057508154600181810184556000848152602080822090930184905584548482528286019093526040902091909155620003c0565b506000620003c0565b6060816000018054806020026020016040519081016040528092919081815260200182805480156200062b57602002820191906000526020600020905b81548152602001906001019080831162000616575b50505050509050919050565b61389080620007dc83390190565b73ffffffffffffffffffffffffffffffffffffffff811681146200066857600080fd5b50565b8035620006788162000645565b919050565b60006101008083850312156200069257600080fd5b6040519081019067ffffffffffffffff82118183101715620006dd577f4e487b7100000000000000000000000000000000000000000000000000000000600052604160045260246000fd5b81604052620006ec846200066b565b81526020840135602082015260408401356040820152606084013560608201526080840135608082015260a084013560a082015260c084013560c082015260e084013560e0820152809250505092915050565b6020808252825182820181905260009190848201906040850190845b818110156200078f57835173ffffffffffffffffffffffffffffffffffffffff16835292840192918401916001016200075b565b50909695505050505050565b600060208284031215620007ae57600080fd5b8135620005718162000645565b600060208284031215620007ce57600080fd5b815162000571816200064556fe60a06040523480156200001157600080fd5b506040516200389038038062003890833981016040819052620000349162000376565b6040805160208082018352600080835283519182019093529182529060036200005e8382620004c3565b5060046200006d8282620004c3565b5050600160055550620000808262000106565b7fa68649dc8aecc0be21ef9063f6e2dc8ff1505e0bf1968d1d2bff951bb31c58688260200151604051620000b691815260200190565b60405180910390a1620000cb600683620002c6565b6001600160a01b038116620000f35760405163f121ab1b60e01b815260040160405180910390fd5b6001600160a01b031660805250620005d1565b428160800151116200012b576040516327169cc760e11b815260040160405180910390fd5b620151808160a0015110156200015457604051631de4f9fb60e21b815260040160405180910390fd5b620151808160c0015110156200017d5760405163f38bb1ad60e01b815260040160405180910390fd5b80600001516001600160a01b0316638b0ee2816040518163ffffffff1660e01b8152600401602060405180830381865afa158015620001c0573d6000803e3d6000fd5b505050506040513d601f19601f82011682018060405250810190620001e691906200058f565b816040015110156200020b57604051634e898db360e01b815260040160405180910390fd5b8060600151816040015111156200023557604051631f42696360e31b815260040160405180910390fd5b80600001516001600160a01b0316638b0ee2816040518163ffffffff1660e01b8152600401602060405180830381865afa15801562000278573d6000803e3d6000fd5b505050506040513d601f19601f820116820180604052508101906200029e91906200058f565b8160e001511015620002c35760405163bd26124f60e01b815260040160405180910390fd5b50565b805182546001600160a01b0319166001600160a01b0390911617825560208101516001830155604081015160028301556060810151600383015560808101516004830181905560a08201516005840181905560c0830151600685015560e083015160078501556200033791620005a9565b600d9092019190915550565b634e487b7160e01b600052604160045260246000fd5b80516001600160a01b03811681146200037157600080fd5b919050565b6000808284036101208112156200038c57600080fd5b610100808212156200039d57600080fd5b60405191508082016001600160401b0381118382101715620003c357620003c362000343565b604052620003d18562000359565b82526020850151602083015260408501516040830152606085015160608301526080850151608083015260a085015160a083015260c085015160c083015260e085015160e08301528193506200042981860162000359565b925050509250929050565b600181811c908216806200044957607f821691505b6020821081036200046a57634e487b7160e01b600052602260045260246000fd5b50919050565b601f821115620004be57600081815260208120601f850160051c81016020861015620004995750805b601f850160051c820191505b81811015620004ba57828155600101620004a5565b5050505b505050565b81516001600160401b03811115620004df57620004df62000343565b620004f781620004f0845462000434565b8462000470565b602080601f8311600181146200052f5760008415620005165750858301515b600019600386901b1c1916600185901b178555620004ba565b600085815260208120601f198616915b8281101562000560578886015182559484019460019091019084016200053f565b50858210156200057f5787850151600019600388901b60f8161c191681555b5050505050600190811b01905550565b600060208284031215620005a257600080fd5b5051919050565b80820180821115620005cb57634e487b7160e01b600052601160045260246000fd5b92915050565b608051613295620005fb6000396000818161027e015281816109a6015261255501526132956000f3fe608060405234801561001057600080fd5b50600436106102775760003560e01c806375d6480e11610160578063b6b55f25116100d8578063dd62ed3e1161008c578063e6ea07d911610071578063e6ea07d91461050c578063fb9d0a6d14610514578063fd0cae211461051c57600080fd5b8063dd62ed3e146104b3578063e4c2cb83146104f957600080fd5b8063c5c4744c116100bd578063c5c4744c14610485578063ce6c69721461048d578063d6fe9bab1461049557600080fd5b8063b6b55f251461045f578063b6ebedbf1461047257600080fd5b80639a7d78041161012f578063a5eb531011610114578063a5eb53101461043c578063a66f42c014610444578063a9059cbb1461044c57600080fd5b80639a7d780414610414578063a457c2d71461042957600080fd5b806375d6480e146103f45780637b9e618d146103fc57806389c9d7421461040457806395d89b411461040c57600080fd5b806339509351116101f357806361588221116101c257806374226bad116101a757806374226bad146103dc57806374478bb3146103e4578063750142e6146103ec57600080fd5b8063615882211461039e57806370a08231146103a657600080fd5b8063395093511461037157806341b3d1851461038457806348a0c8dd1461038c578063590e1ae31461039457600080fd5b806318160ddd1161024a57806323b872dd1161022f57806323b872dd1461033c5780632c1fecfe1461034f578063313ce5671461035757600080fd5b806318160ddd14610315578063200d2ed21461032757600080fd5b806301574ccd1461027c57806306040618146102c857806306fdde03146102dd578063095ea7b3146102f2575b600080fd5b7f00000000000000000000000000000000000000000000000000000000000000005b60405173ffffffffffffffffffffffffffffffffffffffff90911681526020015b60405180910390f35b6102d0610524565b6040516102bf9190612ce3565b6102e5610535565b6040516102bf9190612d21565b610305610300366004612d94565b610584565b60405190151581526020016102bf565b6002545b6040519081526020016102bf565b61032f61059e565b6040516102bf9190612dc0565b61030561034a366004612dd4565b6105aa565b6103056105d0565b61035f6105dc565b60405160ff90911681526020016102bf565b61030561037f366004612d94565b610656565b600d54610319565b6103056106a2565b61039c6106ae565b005b61039c610751565b6103196103b4366004612e15565b73ffffffffffffffffffffffffffffffffffffffff1660009081526020819052604090205490565b61031961098c565b610305610998565b600754610319565b61039c6109a4565b61029e610bb9565b61029e610bc5565b6102e5610be6565b61039c610422366004612e32565b5050505050565b610305610437366004612d94565b610c1a565b600a54610319565b61039c610cfb565b61030561045a366004612d94565b610d59565b61039c61046d366004612e6d565b610d67565b61039c610480366004612e86565b610fd4565b600e54610319565b600954610319565b60105473ffffffffffffffffffffffffffffffffffffffff1661029e565b6103196104c1366004612eb8565b73ffffffffffffffffffffffffffffffffffffffff918216600090815260016020908152604080832093909416825291909152205490565b61039c610507366004612d94565b611085565b61031961119b565b6103056111a7565b600854610319565b600061053060066111c4565b905090565b606061056061055960065473ffffffffffffffffffffffffffffffffffffffff1690565b600461121d565b6040516020016105709190612ef1565b604051602081830303815290604052905090565b6000336105928185856113af565b60019150505b92915050565b60006105306006611563565b6000336105b885828561166c565b6105c385858561173d565b60019150505b9392505050565b600061053060066119b7565b60006105e860066119f7565b73ffffffffffffffffffffffffffffffffffffffff1663313ce5676040518163ffffffff1660e01b8152600401602060405180830381865afa158015610632573d6000803e3d6000fd5b505050506040513d601f19601f820116820180604052508101906105309190612f36565b33600081815260016020908152604080832073ffffffffffffffffffffffffffffffffffffffff87168452909152812054909190610592908290869061069d908790612f88565b6113af565b60006105306006611a8a565b6106b6611ac5565b60145460ff1661073d57600a544210156106fc576040517f75d3e9d700000000000000000000000000000000000000000000000000000000815260040160405180910390fd5b6107066006611b38565b1561073d576040517f8b0822bc00000000000000000000000000000000000000000000000000000000815260040160405180910390fd5b610745611b52565b61074f6001600555565b565b610759611ac5565b600060125460ff16600281111561077257610772612cb4565b036107a9576040517ff5fa648f00000000000000000000000000000000000000000000000000000000815260040160405180910390fd5b600160125460ff1660028111156107c2576107c2612cb4565b036107f9576040517f71bfe98b00000000000000000000000000000000000000000000000000000000815260040160405180910390fd5b6108036006611be4565b421161083b576040517f951e1d7d00000000000000000000000000000000000000000000000000000000815260040160405180910390fd5b3360009081526020819052604081205490819003610885576040517f03f88f7700000000000000000000000000000000000000000000000000000000815260040160405180910390fd5b60006108a18261089760066008015490565b600f549190611c01565b604080518481526020810183905291925033917f82a623e47048a7446c8f02d7ca15cb6fe3eac6bce1073976efe3e5195feccb7b910160405180910390a26108e93383611d2b565b61098061090b60065473ffffffffffffffffffffffffffffffffffffffff1690565b73ffffffffffffffffffffffffffffffffffffffff16635fcbd2856040518163ffffffff1660e01b8152600401602060405180830381865afa158015610955573d6000803e3d6000fd5b505050506040513d601f19601f820116820180604052508101906109799190612fa6565b3383611ef8565b505061074f6001600555565b60006105306006611be4565b60006105306006611fcc565b7f000000000000000000000000000000000000000000000000000000000000000073ffffffffffffffffffffffffffffffffffffffff166306ae70956040518163ffffffff1660e01b8152600401602060405180830381865afa158015610a0f573d6000803e3d6000fd5b505050506040513d601f19601f82011682018060405250810190610a339190612fa6565b73ffffffffffffffffffffffffffffffffffffffff16634162169f6040518163ffffffff1660e01b8152600401602060405180830381865afa158015610a7d573d6000803e3d6000fd5b505050506040513d601f19601f82011682018060405250810190610aa19190612fa6565b73ffffffffffffffffffffffffffffffffffffffff163373ffffffffffffffffffffffffffffffffffffffff1614610b05576040517f808ca14f00000000000000000000000000000000000000000000000000000000815260040160405180910390fd5b600060125460ff166002811115610b1e57610b1e612cb4565b14610b55576040517ff5b32f9d00000000000000000000000000000000000000000000000000000000815260040160405180910390fd5b6040517f77c6548c689d07a1b0ef371f1662bc3cd51018db9f526c7453a9e6a410430e8590600090a1610bb16006600e0180547fffffffffffffffffffffffffffffffffffffffffffffffffffffffffffffff00166001179055565b61074f612002565b600061053060066119f7565b600061053060065473ffffffffffffffffffffffffffffffffffffffff1690565b6060610c0a61055960065473ffffffffffffffffffffffffffffffffffffffff1690565b6040516020016105709190612fc3565b33600081815260016020908152604080832073ffffffffffffffffffffffffffffffffffffffff8716845290915281205490919083811015610ce3576040517f08c379a000000000000000000000000000000000000000000000000000000000815260206004820152602560248201527f45524332303a2064656372656173656420616c6c6f77616e63652062656c6f7760448201527f207a65726f00000000000000000000000000000000000000000000000000000060648201526084015b60405180910390fd5b610cf082868684036113af565b506001949350505050565b610d03611ac5565b610d0d60066120a1565b15610d2757610d1a612118565b610d22612002565b610745565b6040517ff14c4fec00000000000000000000000000000000000000000000000000000000815260040160405180910390fd5b60003361059281858561173d565b610d6f611ac5565b60145460ff1615610dac576040517fd3e7f56400000000000000000000000000000000000000000000000000000000815260040160405180910390fd5b80600003610de6576040517fa9b2496d00000000000000000000000000000000000000000000000000000000815260040160405180910390fd5b6001610df0610524565b6003811115610e0157610e01612cb4565b03610f95576000610e126006612350565b600d549091508082118015610e2657508083105b15610e5d576040517f65f2fd1100000000000000000000000000000000000000000000000000000000815260040160405180910390fd5b600083831015610e6d5782610e6f565b835b90508015610f5b5760405181815233907fe43e26f4db42041026773118d6d3967135108baac9c4c307b44a990f77bd0e5f9060200160405180910390a2610ebf610eb7610bb9565b333084612389565b610ec933826123e7565b610ed46006826124e6565b828103610f1657600e547f5150301896795bacf9973dc052ea1472a7b36d823f9a9accf81021742676fd5c9060405190815260200160405180910390a1426013555b610f206006612506565b15610f56576040517f8a38b95fb494a02ec6203adbbfe76d2f53daf116c061e475d519482ff16e6dfc90600090a1610f56612551565b610f8d565b6040517fa6398a4e00000000000000000000000000000000000000000000000000000000815260040160405180910390fd5b505050610fc7565b6040517f6cd0b15400000000000000000000000000000000000000000000000000000000815260040160405180910390fd5b610fd16001600555565b50565b33610ff460065473ffffffffffffffffffffffffffffffffffffffff1690565b73ffffffffffffffffffffffffffffffffffffffff1614611041576040517f571b62aa00000000000000000000000000000000000000000000000000000000815260040160405180910390fd5b6040518281527fe11fddddb3556e3adf284fcf0a652f329dde03d3df71b65b437b169d1677efb69060200160405180910390a161107f600683612680565b50505050565b61108d611ac5565b60105473ffffffffffffffffffffffffffffffffffffffff1633146110de576040517fa19677f400000000000000000000000000000000000000000000000000000000815260040160405180910390fd5b6110e860066120a1565b1561118d5761118461110f60065473ffffffffffffffffffffffffffffffffffffffff1690565b73ffffffffffffffffffffffffffffffffffffffff1663d22e258d6040518163ffffffff1660e01b8152600401602060405180830381865afa158015611159573d6000803e3d6000fd5b505050506040513d601f19601f8201168201806040525081019061117d9190613008565b83836126b7565b5061118d612118565b6111976001600555565b5050565b60006105306006612866565b60006111b360066120a1565b156111be5750600190565b50600090565b6000426111d2836004015490565b8110156111e25750600092915050565b6111eb83612866565b8110156111fb5750600192915050565b61120483611be4565b8110156112145750600292915050565b50600392915050565b60608160ff1667ffffffffffffffff81111561123b5761123b613021565b6040519080825280601f01601f191660200182016040528015611265576020820181803683370190505b5060408051808201909152601081527f30313233343536373839616263646566000000000000000000000000000000006020820152909150836112a9846027613050565b6112b4906004613069565b60ff168173ffffffffffffffffffffffffffffffffffffffff16901c905060005b8460ff168110156113a65760048273ffffffffffffffffffffffffffffffffffffffff16901c91508260108361130b91906130bb565b60ff168151811061131e5761131e613115565b01602001517fff00000000000000000000000000000000000000000000000000000000000000168460016113558460ff8a16613144565b61135f9190613144565b8151811061136f5761136f613115565b60200101907effffffffffffffffffffffffffffffffffffffffffffffffffffffffffffff1916908160001a9053506001016112d5565b50505092915050565b73ffffffffffffffffffffffffffffffffffffffff8316611451576040517f08c379a0000000000000000000000000000000000000000000000000000000008152602060048201526024808201527f45524332303a20617070726f76652066726f6d20746865207a65726f2061646460448201527f72657373000000000000000000000000000000000000000000000000000000006064820152608401610cda565b73ffffffffffffffffffffffffffffffffffffffff82166114f4576040517f08c379a000000000000000000000000000000000000000000000000000000000815260206004820152602260248201527f45524332303a20617070726f766520746f20746865207a65726f20616464726560448201527f73730000000000000000000000000000000000000000000000000000000000006064820152608401610cda565b73ffffffffffffffffffffffffffffffffffffffff83811660008181526001602090815260408083209487168084529482529182902085905590518481527f8c5be1e5ebec7d5bd14f71427d1e84f3dd0314c0f7b2291e5b200ac8c7c3b92591015b60405180910390a3505050565b600061157382600e015460ff1690565b1561158057506006919050565b600061158b836111c4565b905060008160038111156115a1576115a1612cb4565b036115af5750600092915050565b60018160038111156115c3576115c3612cb4565b036115d15750600192915050565b6115da836119b7565b156115e85750600692915050565b60028160038111156115fc576115fc612cb4565b0361166357600061161184600c015460ff1690565b9050600081600281111561162757611627612cb4565b03611636575060029392505050565b600181600281111561164a5761164a612cb4565b03611659575060039392505050565b5060049392505050565b50600592915050565b73ffffffffffffffffffffffffffffffffffffffff8381166000908152600160209081526040808320938616835292905220547fffffffffffffffffffffffffffffffffffffffffffffffffffffffffffffffff811461107f5781811015611730576040517f08c379a000000000000000000000000000000000000000000000000000000000815260206004820152601d60248201527f45524332303a20696e73756666696369656e7420616c6c6f77616e63650000006044820152606401610cda565b61107f84848484036113af565b73ffffffffffffffffffffffffffffffffffffffff83166117e0576040517f08c379a000000000000000000000000000000000000000000000000000000000815260206004820152602560248201527f45524332303a207472616e736665722066726f6d20746865207a65726f20616460448201527f64726573730000000000000000000000000000000000000000000000000000006064820152608401610cda565b73ffffffffffffffffffffffffffffffffffffffff8216611883576040517f08c379a000000000000000000000000000000000000000000000000000000000815260206004820152602360248201527f45524332303a207472616e7366657220746f20746865207a65726f206164647260448201527f65737300000000000000000000000000000000000000000000000000000000006064820152608401610cda565b61188e838383612873565b73ffffffffffffffffffffffffffffffffffffffff831660009081526020819052604090205481811015611944576040517f08c379a000000000000000000000000000000000000000000000000000000000815260206004820152602660248201527f45524332303a207472616e7366657220616d6f756e742065786365656473206260448201527f616c616e636500000000000000000000000000000000000000000000000000006064820152608401610cda565b73ffffffffffffffffffffffffffffffffffffffff848116600081815260208181526040808320878703905593871680835291849020805487019055925185815290927fddf252ad1be2c89b69c2b068fc378daa952ba7f163c4a11628f55a4df523b3ef910160405180910390a361107f565b60006119c782600e015460ff1690565b156119d457506001919050565b6119dd82612866565b421015801561059857506119f082611b38565b1592915050565b8054604080517f7b9e618d000000000000000000000000000000000000000000000000000000008152905160009273ffffffffffffffffffffffffffffffffffffffff1691637b9e618d9160048083019260209291908290030181865afa158015611a66573d6000803e3d6000fd5b505050506040513d601f19601f820116820180604052508101906105989190612fa6565b6000611a9a82600e015460ff1690565b15801561059857506001611aad836111c4565b6003811115611abe57611abe612cb4565b1492915050565b600260055403611b31576040517f08c379a000000000000000000000000000000000000000000000000000000000815260206004820152601f60248201527f5265656e7472616e637947756172643a207265656e7472616e742063616c6c006044820152606401610cda565b6002600555565b6000611b45826002015490565b6008830154101592915050565b336000908152602081905260409020548015611bb25760405181815233907f7eae074c33a60d3e7aa7ff3a534e3c633cb1c933dbf90300720ddf5fcba91dae9060200160405180910390a2611ba73382611d2b565b610fd1610979610bb9565b6040517fe737df7f00000000000000000000000000000000000000000000000000000000815260040160405180910390fd5b6006810154600090611bf783600d015490565b6105989190612f88565b600080807fffffffffffffffffffffffffffffffffffffffffffffffffffffffffffffffff85870985870292508281108382030391505080600003611c5957838281611c4f57611c4f61308c565b04925050506105c9565b808411611cc2576040517f08c379a000000000000000000000000000000000000000000000000000000000815260206004820152601560248201527f4d6174683a206d756c446976206f766572666c6f7700000000000000000000006044820152606401610cda565b60008486880960026001871981018816978890046003810283188082028403028082028403028082028403028082028403028082028403029081029092039091026000889003889004909101858311909403939093029303949094049190911702949350505050565b73ffffffffffffffffffffffffffffffffffffffff8216611dce576040517f08c379a000000000000000000000000000000000000000000000000000000000815260206004820152602160248201527f45524332303a206275726e2066726f6d20746865207a65726f2061646472657360448201527f73000000000000000000000000000000000000000000000000000000000000006064820152608401610cda565b611dda82600083612873565b73ffffffffffffffffffffffffffffffffffffffff821660009081526020819052604090205481811015611e90576040517f08c379a000000000000000000000000000000000000000000000000000000000815260206004820152602260248201527f45524332303a206275726e20616d6f756e7420657863656564732062616c616e60448201527f63650000000000000000000000000000000000000000000000000000000000006064820152608401610cda565b73ffffffffffffffffffffffffffffffffffffffff83166000818152602081815260408083208686039055600280548790039055518581529192917fddf252ad1be2c89b69c2b068fc378daa952ba7f163c4a11628f55a4df523b3ef9101611556565b505050565b60405173ffffffffffffffffffffffffffffffffffffffff8316602482015260448101829052611ef39084907fa9059cbb00000000000000000000000000000000000000000000000000000000906064015b604080517fffffffffffffffffffffffffffffffffffffffffffffffffffffffffffffffe08184030181529190526020810180517bffffffffffffffffffffffffffffffffffffffffffffffffffffffff167fffffffff00000000000000000000000000000000000000000000000000000000909316929092179091526128e4565b60006002600c83015460ff166002811115611fe957611fe9612cb4565b1480156105985750611ffa82611be4565b421192915050565b60105473ffffffffffffffffffffffffffffffffffffffff168015610fd1576040517f82ca3ecb00000000000000000000000000000000000000000000000000000000815230600482015273ffffffffffffffffffffffffffffffffffffffff8216906382ca3ecb90602401600060405180830381600087803b15801561208857600080fd5b505af1925050508015612099575060015b15610fd15750565b60006120b182600e015460ff1690565b156120be57506000919050565b6000600c83015460ff1660028111156120d9576120d9612cb4565b146120e657506000919050565b60038201546008830154106120fd57506001919050565b61210682612866565b42118015610598575061059882611b38565b600061213960065473ffffffffffffffffffffffffffffffffffffffff1690565b9050600061214760066119f7565b6040517f70a0823100000000000000000000000000000000000000000000000000000000815230600482015290915060009073ffffffffffffffffffffffffffffffffffffffff8316906370a0823190602401602060405180830381865afa1580156121b7573d6000803e3d6000fd5b505050506040513d601f19601f820116820180604052508101906121db9190613008565b6040517f095ea7b300000000000000000000000000000000000000000000000000000000815273ffffffffffffffffffffffffffffffffffffffff8581166004830152602482018390529192509083169063095ea7b3906044016020604051808303816000875af1158015612254573d6000803e3d6000fd5b505050506040513d601f19601f820116820180604052508101906122789190613157565b506040517fc95f9d0e0000000000000000000000000000000000000000000000000000000081526004810182905230602482015260009073ffffffffffffffffffffffffffffffffffffffff85169063c95f9d0e9060440160e0604051808303816000875af11580156122ef573d6000803e3d6000fd5b505050506040513d601f19601f820116820180604052508101906123139190613188565b6040519091507f2f8e33bc22cb25cc8ca6a129cd49f3a2aac7c11cc6e27bc12f613eb82c6998a990600090a1805160115561107f600660016129f3565b600061235d826003015490565b6008830154101561237c57600882015460038301546105989190613144565b506000919050565b919050565b60405173ffffffffffffffffffffffffffffffffffffffff8085166024830152831660448201526064810182905261107f9085907f23b872dd0000000000000000000000000000000000000000000000000000000090608401611f4a565b73ffffffffffffffffffffffffffffffffffffffff8216612464576040517f08c379a000000000000000000000000000000000000000000000000000000000815260206004820152601f60248201527f45524332303a206d696e7420746f20746865207a65726f2061646472657373006044820152606401610cda565b61247060008383612873565b80600260008282546124829190612f88565b909155505073ffffffffffffffffffffffffffffffffffffffff8216600081815260208181526040808320805486019055518481527fddf252ad1be2c89b69c2b068fc378daa952ba7f163c4a11628f55a4df523b3ef910160405180910390a35050565b808260080160000160008282546124fd9190612f88565b90915550505050565b60008061252a83600a015473ffffffffffffffffffffffffffffffffffffffff1690565b73ffffffffffffffffffffffffffffffffffffffff16148015610598575061059882611b38565b60007f000000000000000000000000000000000000000000000000000000000000000073ffffffffffffffffffffffffffffffffffffffff1663d6fe9bab6040518163ffffffff1660e01b8152600401602060405180830381865afa1580156125be573d6000803e3d6000fd5b505050506040513d601f19601f820116820180604052508101906125e29190612fa6565b601080547fffffffffffffffffffffffff00000000000000000000000000000000000000001673ffffffffffffffffffffffffffffffffffffffff831617905590508073ffffffffffffffffffffffffffffffffffffffff166335e5258f6040518163ffffffff1660e01b8152600401600060405180830381600087803b15801561266c57600080fd5b505af1158015610422573d6000803e3d6000fd5b6001600c83015460ff16600281111561269b5761269b612cb4565b146126a557600080fd5b600982018190556111978260026129f3565b6000806126c46006612a3b565b73ffffffffffffffffffffffffffffffffffffffff1663c45a01556040518163ffffffff1660e01b8152600401602060405180830381865afa15801561270e573d6000803e3d6000fd5b505050506040513d601f19601f820116820180604052508101906127329190612fa6565b73ffffffffffffffffffffffffffffffffffffffff16635b5b52c06040518163ffffffff1660e01b8152600401602060405180830381865afa15801561277c573d6000803e3d6000fd5b505050506040513d601f19601f820116820180604052508101906127a09190612fa6565b905060006127ae60066119f7565b90506127bb818388611ef8565b6040517f780205b100000000000000000000000000000000000000000000000000000000815273ffffffffffffffffffffffffffffffffffffffff828116600483015260248201869052868116604483015283169063780205b1906064016020604051808303816000875af1158015612838573d6000803e3d6000fd5b505050506040513d601f19601f8201168201806040525081019061285c9190613008565b9695505050505050565b600061059882600d015490565b73ffffffffffffffffffffffffffffffffffffffff8316158015906128ad575073ffffffffffffffffffffffffffffffffffffffff821615155b15611ef3576040517f9cbe235700000000000000000000000000000000000000000000000000000000815260040160405180910390fd5b6000612946826040518060400160405280602081526020017f5361666545524332303a206c6f772d6c6576656c2063616c6c206661696c65648152508573ffffffffffffffffffffffffffffffffffffffff16612aa59092919063ffffffff16565b90508051600014806129675750808060200190518101906129679190613157565b611ef3576040517f08c379a000000000000000000000000000000000000000000000000000000000815260206004820152602a60248201527f5361666545524332303a204552433230206f7065726174696f6e20646964206e60448201527f6f742073756363656564000000000000000000000000000000000000000000006064820152608401610cda565b600c820180548291907fffffffffffffffffffffffffffffffffffffffffffffffffffffffffffffff00166001836002811115612a3257612a32612cb4565b02179055505050565b6000612a5b825473ffffffffffffffffffffffffffffffffffffffff1690565b73ffffffffffffffffffffffffffffffffffffffff166380f556056040518163ffffffff1660e01b8152600401602060405180830381865afa158015611a66573d6000803e3d6000fd5b6060612ab48484600085612abc565b949350505050565b606082471015612b4e576040517f08c379a000000000000000000000000000000000000000000000000000000000815260206004820152602660248201527f416464726573733a20696e73756666696369656e742062616c616e636520666f60448201527f722063616c6c00000000000000000000000000000000000000000000000000006064820152608401610cda565b6000808673ffffffffffffffffffffffffffffffffffffffff168587604051612b779190613243565b60006040518083038185875af1925050503d8060008114612bb4576040519150601f19603f3d011682016040523d82523d6000602084013e612bb9565b606091505b5091509150612bca87838387612bd5565b979650505050505050565b60608315612c6b578251600003612c645773ffffffffffffffffffffffffffffffffffffffff85163b612c64576040517f08c379a000000000000000000000000000000000000000000000000000000000815260206004820152601d60248201527f416464726573733a2063616c6c20746f206e6f6e2d636f6e74726163740000006044820152606401610cda565b5081612ab4565b612ab48383815115612c805781518083602001fd5b806040517f08c379a0000000000000000000000000000000000000000000000000000000008152600401610cda9190612d21565b7f4e487b7100000000000000000000000000000000000000000000000000000000600052602160045260246000fd5b6020810160048310612cf757612cf7612cb4565b91905290565b60005b83811015612d18578181015183820152602001612d00565b50506000910152565b6020815260008251806020840152612d40816040850160208701612cfd565b601f017fffffffffffffffffffffffffffffffffffffffffffffffffffffffffffffffe0169190910160400192915050565b73ffffffffffffffffffffffffffffffffffffffff81168114610fd157600080fd5b60008060408385031215612da757600080fd5b8235612db281612d72565b946020939093013593505050565b6020810160078310612cf757612cf7612cb4565b600080600060608486031215612de957600080fd5b8335612df481612d72565b92506020840135612e0481612d72565b929592945050506040919091013590565b600060208284031215612e2757600080fd5b81356105c981612d72565b600080600080600060a08688031215612e4a57600080fd5b505083359560208501359550604085013594606081013594506080013592509050565b600060208284031215612e7f57600080fd5b5035919050565b60008060008060808587031215612e9c57600080fd5b5050823594602084013594506040840135936060013592509050565b60008060408385031215612ecb57600080fd5b8235612ed681612d72565b91506020830135612ee681612d72565b809150509250929050565b7f4368726f6d617469634250202d20000000000000000000000000000000000000815260008251612f2981600e850160208701612cfd565b91909101600e0192915050565b600060208284031215612f4857600080fd5b815160ff811681146105c957600080fd5b7f4e487b7100000000000000000000000000000000000000000000000000000000600052601160045260246000fd5b8082018082111561059857610598612f59565b805161238481612d72565b600060208284031215612fb857600080fd5b81516105c981612d72565b7f424c502d00000000000000000000000000000000000000000000000000000000815260008251612ffb816004850160208701612cfd565b9190910160040192915050565b60006020828403121561301a57600080fd5b5051919050565b7f4e487b7100000000000000000000000000000000000000000000000000000000600052604160045260246000fd5b60ff828116828216039081111561059857610598612f59565b60ff818116838216029081169081811461308557613085612f59565b5092915050565b7f4e487b7100000000000000000000000000000000000000000000000000000000600052601260045260246000fd5b600073ffffffffffffffffffffffffffffffffffffffff80841680613109577f4e487b7100000000000000000000000000000000000000000000000000000000600052601260045260246000fd5b92169190910692915050565b7f4e487b7100000000000000000000000000000000000000000000000000000000600052603260045260246000fd5b8181038181111561059857610598612f59565b60006020828403121561316957600080fd5b815180151581146105c957600080fd5b80516002811061238457600080fd5b600060e0828403121561319a57600080fd5b60405160e0810181811067ffffffffffffffff821117156131e4577f4e487b7100000000000000000000000000000000000000000000000000000000600052604160045260246000fd5b604052825181526131f760208401612f9b565b602082015261320860408401612f9b565b6040820152606083015160608201526080830151608082015260a083015160a082015261323760c08401613179565b60c08201529392505050565b60008251613255818460208701612cfd565b919091019291505056fea264697066735822122048b1953b43be0e63475263fa2bd8a82481303c122157a38ff209be84353bdb2964736f6c63430008130033a2646970667358221220e084d4797814c69278bac9fde1b4b227f6ffe471d1659423fe996d8297b8ed3064736f6c63430008130033",
  "devdoc": {
    "details": "A contract to create and manage instances of ChromaticBP.",
    "errors": {
      "OnlyAccessableByDao()": [
        {
          "details": "Throws an `OnlyAccessableByDao` error if the caller is not the DAO."
        }
      ]
    },
    "events": {
      "ChromaticBPCreated(address,address)": {
        "details": "Emitted when a Chromatic BP is successfully created.",
        "params": {
          "bp": "The address of the created Chromatic BP.",
          "lp": "The address of the associated Liquidity Provider (LP)."
        }
      },
      "SetAutomateBP(address)": {
        "details": "Emitted when the automate contract for Chromatic BPs is set.",
        "params": {
          "automateBP": "The address of the set automate contract for Chromatic BPs."
        }
      }
    },
    "kind": "dev",
    "methods": {
      "automateBP()": {
        "details": "Retrieves the automate contract currently set for Chromatic BPs.",
        "returns": {
          "automate": "The address of the automate contract for Chromatic BPs."
        }
      },
      "bpList()": {
        "details": "Retrieves the list of all ChromaticBP addresses.",
        "returns": {
          "bpAddresses": "An array of ChromaticBP addresses."
        }
      },
      "bpListByLP(address)": {
        "details": "Retrieves the list of ChromaticBP addresses associated with a specific ChromaticLP.",
        "params": {
          "lp": "The address of the ChromaticLP."
        },
        "returns": {
          "bpAddresses": "An array of ChromaticBP addresses."
        }
      },
      "constructor": {
        "details": "Creates a new ChromaticBPFactory contract."
      },
      "createBP((address,uint256,uint256,uint256,uint256,uint256,uint256,uint256))": {
        "details": "Creates a new ChromaticBP instance.",
        "params": {
          "config": "The configuration parameters for the ChromaticBP."
        }
      },
      "marketFactory()": {
        "details": "Retrieves the ChromatcMarketFactory address.",
        "returns": {
          "_0": "the ChromatcMarketFactory address."
        }
      },
      "setAutomateBP(address)": {
        "details": "Sets the automate contract for Chromatic BPs.",
        "params": {
          "automate": "The address of the automate contract for Chromatic BPs."
        }
      }
    },
    "title": "ChromaticBPFactory",
    "version": 1
  },
  "userdoc": {
    "kind": "user",
    "methods": {},
    "version": 1
  },
  "storageLayout": {
    "storage": [
      {
        "astId": 14541,
        "contract": "contracts/bp/ChromaticBPFactory.sol:ChromaticBPFactory",
        "label": "_lpToBpSet",
        "offset": 0,
        "slot": "0",
        "type": "t_mapping(t_address,t_struct(AddressSet)11296_storage)"
      },
      {
        "astId": 14544,
        "contract": "contracts/bp/ChromaticBPFactory.sol:ChromaticBPFactory",
        "label": "_bpSet",
        "offset": 0,
        "slot": "1",
        "type": "t_struct(AddressSet)11296_storage"
      },
      {
        "astId": 14547,
        "contract": "contracts/bp/ChromaticBPFactory.sol:ChromaticBPFactory",
        "label": "_automateBP",
        "offset": 0,
        "slot": "3",
        "type": "t_contract(IAutomateBP)14752"
      }
    ],
    "types": {
      "t_address": {
        "encoding": "inplace",
        "label": "address",
        "numberOfBytes": "20"
      },
      "t_array(t_bytes32)dyn_storage": {
        "base": "t_bytes32",
        "encoding": "dynamic_array",
        "label": "bytes32[]",
        "numberOfBytes": "32"
      },
      "t_bytes32": {
        "encoding": "inplace",
        "label": "bytes32",
        "numberOfBytes": "32"
      },
      "t_contract(IAutomateBP)14752": {
        "encoding": "inplace",
        "label": "contract IAutomateBP",
        "numberOfBytes": "20"
      },
      "t_mapping(t_address,t_struct(AddressSet)11296_storage)": {
        "encoding": "mapping",
        "key": "t_address",
        "label": "mapping(address => struct EnumerableSet.AddressSet)",
        "numberOfBytes": "32",
        "value": "t_struct(AddressSet)11296_storage"
      },
      "t_mapping(t_bytes32,t_uint256)": {
        "encoding": "mapping",
        "key": "t_bytes32",
        "label": "mapping(bytes32 => uint256)",
        "numberOfBytes": "32",
        "value": "t_uint256"
      },
      "t_struct(AddressSet)11296_storage": {
        "encoding": "inplace",
        "label": "struct EnumerableSet.AddressSet",
        "members": [
          {
            "astId": 11295,
            "contract": "contracts/bp/ChromaticBPFactory.sol:ChromaticBPFactory",
            "label": "_inner",
            "offset": 0,
            "slot": "0",
            "type": "t_struct(Set)10981_storage"
          }
        ],
        "numberOfBytes": "64"
      },
      "t_struct(Set)10981_storage": {
        "encoding": "inplace",
        "label": "struct EnumerableSet.Set",
        "members": [
          {
            "astId": 10976,
            "contract": "contracts/bp/ChromaticBPFactory.sol:ChromaticBPFactory",
            "label": "_values",
            "offset": 0,
            "slot": "0",
            "type": "t_array(t_bytes32)dyn_storage"
          },
          {
            "astId": 10980,
            "contract": "contracts/bp/ChromaticBPFactory.sol:ChromaticBPFactory",
            "label": "_indexes",
            "offset": 0,
            "slot": "1",
            "type": "t_mapping(t_bytes32,t_uint256)"
          }
        ],
        "numberOfBytes": "64"
      },
      "t_uint256": {
        "encoding": "inplace",
        "label": "uint256",
        "numberOfBytes": "32"
      }
    }
  }
}