{
  "address": "0xe590D84EB1cfc78100D33E15BC279098bFb4f3d2",
  "abi": [
    {
      "inputs": [
        {
          "internalType": "contract ChromaticLPLogic",
          "name": "lpLogic",
          "type": "address"
        },
        {
          "components": [
            {
              "internalType": "string",
              "name": "lpName",
              "type": "string"
            },
            {
              "internalType": "string",
              "name": "tag",
              "type": "string"
            }
          ],
          "internalType": "struct ChromaticLPStorageCore.LPMeta",
          "name": "lpMeta",
          "type": "tuple"
        },
        {
          "components": [
            {
              "internalType": "contract IChromaticMarket",
              "name": "market",
              "type": "address"
            },
            {
              "internalType": "uint16",
              "name": "utilizationTargetBPS",
              "type": "uint16"
            },
            {
              "internalType": "uint16",
              "name": "rebalanceBPS",
              "type": "uint16"
            },
            {
              "internalType": "uint256",
              "name": "rebalanceCheckingInterval",
              "type": "uint256"
            },
            {
              "internalType": "uint256",
              "name": "automationFeeReserved",
              "type": "uint256"
            },
            {
              "internalType": "uint256",
              "name": "minHoldingValueToRebalance",
              "type": "uint256"
            }
          ],
          "internalType": "struct ChromaticLPStorageCore.ConfigParam",
          "name": "config",
          "type": "tuple"
        },
        {
          "internalType": "int16[]",
          "name": "_feeRates",
          "type": "int16[]"
        },
        {
          "internalType": "uint16[]",
          "name": "_distributionRates",
          "type": "uint16[]"
        },
        {
          "internalType": "contract IAutomateLP",
          "name": "automate",
          "type": "address"
        }
      ],
      "stateMutability": "nonpayable",
      "type": "constructor"
    },
    {
      "inputs": [],
      "name": "InvalidMinHoldingValueToRebalance",
      "type": "error"
    },
    {
      "inputs": [],
      "name": "InvalidRebalanceBPS",
      "type": "error"
    },
    {
      "inputs": [
        {
          "internalType": "uint16",
          "name": "targetBPS",
          "type": "uint16"
        }
      ],
      "name": "InvalidUtilizationTarget",
      "type": "error"
    },
    {
      "inputs": [],
      "name": "NotAutomationCalled",
      "type": "error"
    },
    {
      "inputs": [],
      "name": "NotImplementedInLogicContract",
      "type": "error"
    },
    {
      "inputs": [],
      "name": "NotKeeperCalled",
      "type": "error"
    },
    {
      "inputs": [],
      "name": "NotMarket",
      "type": "error"
    },
    {
      "inputs": [
        {
          "internalType": "uint256",
          "name": "feeLength",
          "type": "uint256"
        },
        {
          "internalType": "uint256",
          "name": "distributionLength",
          "type": "uint256"
        }
      ],
      "name": "NotMatchDistributionLength",
      "type": "error"
    },
    {
      "inputs": [],
      "name": "NotOwner",
      "type": "error"
    },
    {
      "inputs": [],
      "name": "OnlyAccessableByOwner",
      "type": "error"
    },
    {
      "inputs": [],
      "name": "OnlyBatchCall",
      "type": "error"
    },
    {
      "inputs": [],
      "name": "TooSmallAmountToAddLiquidity",
      "type": "error"
    },
    {
      "inputs": [],
      "name": "UnknownLPAction",
      "type": "error"
    },
    {
      "anonymous": false,
      "inputs": [
        {
          "indexed": true,
          "internalType": "uint256",
          "name": "receiptId",
          "type": "uint256"
        },
        {
          "indexed": true,
          "internalType": "address",
          "name": "provider",
          "type": "address"
        },
        {
          "indexed": true,
          "internalType": "address",
          "name": "recipient",
          "type": "address"
        },
        {
          "indexed": false,
          "internalType": "uint256",
          "name": "oracleVersion",
          "type": "uint256"
        },
        {
          "indexed": false,
          "internalType": "uint256",
          "name": "amount",
          "type": "uint256"
        }
      ],
      "name": "AddLiquidity",
      "type": "event"
    },
    {
      "anonymous": false,
      "inputs": [
        {
          "indexed": true,
          "internalType": "uint256",
          "name": "receiptId",
          "type": "uint256"
        },
        {
          "indexed": true,
          "internalType": "address",
          "name": "provider",
          "type": "address"
        },
        {
          "indexed": true,
          "internalType": "address",
          "name": "recipient",
          "type": "address"
        },
        {
          "indexed": false,
          "internalType": "uint256",
          "name": "settlementAdded",
          "type": "uint256"
        },
        {
          "indexed": false,
          "internalType": "uint256",
          "name": "lpTokenAmount",
          "type": "uint256"
        },
        {
          "indexed": false,
          "internalType": "uint256",
          "name": "keeperFee",
          "type": "uint256"
        }
      ],
      "name": "AddLiquiditySettled",
      "type": "event"
    },
    {
      "anonymous": false,
      "inputs": [
        {
          "indexed": true,
          "internalType": "address",
          "name": "owner",
          "type": "address"
        },
        {
          "indexed": true,
          "internalType": "address",
          "name": "spender",
          "type": "address"
        },
        {
          "indexed": false,
          "internalType": "uint256",
          "name": "value",
          "type": "uint256"
        }
      ],
      "name": "Approval",
      "type": "event"
    },
    {
      "anonymous": false,
      "inputs": [
        {
          "indexed": true,
          "internalType": "uint256",
          "name": "receiptId",
          "type": "uint256"
        },
        {
          "indexed": false,
          "internalType": "uint256",
          "name": "oracleVersion",
          "type": "uint256"
        },
        {
          "indexed": false,
          "internalType": "uint256",
          "name": "amount",
          "type": "uint256"
        },
        {
          "indexed": false,
          "internalType": "uint256",
          "name": "currentUtility",
          "type": "uint256"
        }
      ],
      "name": "RebalanceAddLiquidity",
      "type": "event"
    },
    {
      "anonymous": false,
      "inputs": [
        {
          "indexed": true,
          "internalType": "uint256",
          "name": "receiptId",
          "type": "uint256"
        },
        {
          "indexed": false,
          "internalType": "uint256",
          "name": "oracleVersion",
          "type": "uint256"
        },
        {
          "indexed": false,
          "internalType": "uint256",
          "name": "currentUtility",
          "type": "uint256"
        }
      ],
      "name": "RebalanceRemoveLiquidity",
      "type": "event"
    },
    {
      "anonymous": false,
      "inputs": [
        {
          "indexed": true,
          "internalType": "uint256",
          "name": "receiptId",
          "type": "uint256"
        },
        {
          "indexed": false,
          "internalType": "uint256",
          "name": "keeperFee",
          "type": "uint256"
        }
      ],
      "name": "RebalanceSettled",
      "type": "event"
    },
    {
      "anonymous": false,
      "inputs": [
        {
          "indexed": true,
          "internalType": "uint256",
          "name": "receiptId",
          "type": "uint256"
        },
        {
          "indexed": true,
          "internalType": "address",
          "name": "provider",
          "type": "address"
        },
        {
          "indexed": true,
          "internalType": "address",
          "name": "recipient",
          "type": "address"
        },
        {
          "indexed": false,
          "internalType": "uint256",
          "name": "oracleVersion",
          "type": "uint256"
        },
        {
          "indexed": false,
          "internalType": "uint256",
          "name": "lpTokenAmount",
          "type": "uint256"
        }
      ],
      "name": "RemoveLiquidity",
      "type": "event"
    },
    {
      "anonymous": false,
      "inputs": [
        {
          "indexed": true,
          "internalType": "uint256",
          "name": "receiptId",
          "type": "uint256"
        },
        {
          "indexed": true,
          "internalType": "address",
          "name": "provider",
          "type": "address"
        },
        {
          "indexed": true,
          "internalType": "address",
          "name": "recipient",
          "type": "address"
        },
        {
          "indexed": false,
          "internalType": "uint256",
          "name": "burningAmount",
          "type": "uint256"
        },
        {
          "indexed": false,
          "internalType": "uint256",
          "name": "withdrawnSettlementAmount",
          "type": "uint256"
        },
        {
          "indexed": false,
          "internalType": "uint256",
          "name": "refundedAmount",
          "type": "uint256"
        },
        {
          "indexed": false,
          "internalType": "uint256",
          "name": "keeperFee",
          "type": "uint256"
        }
      ],
      "name": "RemoveLiquiditySettled",
      "type": "event"
    },
    {
      "anonymous": false,
      "inputs": [
        {
          "indexed": false,
          "internalType": "address",
          "name": "automate",
          "type": "address"
        }
      ],
      "name": "SetAutomateLP",
      "type": "event"
    },
    {
      "anonymous": false,
      "inputs": [
        {
          "indexed": false,
          "internalType": "uint256",
          "name": "newValue",
          "type": "uint256"
        }
      ],
      "name": "SetAutomationFeeReserved",
      "type": "event"
    },
    {
      "anonymous": false,
      "inputs": [
        {
          "indexed": false,
          "internalType": "string",
          "name": "name",
          "type": "string"
        }
      ],
      "name": "SetLpName",
      "type": "event"
    },
    {
      "anonymous": false,
      "inputs": [
        {
          "indexed": false,
          "internalType": "string",
          "name": "tag",
          "type": "string"
        }
      ],
      "name": "SetLpTag",
      "type": "event"
    },
    {
      "anonymous": false,
      "inputs": [
        {
          "indexed": false,
          "internalType": "uint256",
          "name": "newValue",
          "type": "uint256"
        }
      ],
      "name": "SetMinHoldingValueToRebalance",
      "type": "event"
    },
    {
      "anonymous": false,
      "inputs": [
        {
          "indexed": true,
          "internalType": "address",
          "name": "from",
          "type": "address"
        },
        {
          "indexed": true,
          "internalType": "address",
          "name": "to",
          "type": "address"
        },
        {
          "indexed": false,
          "internalType": "uint256",
          "name": "value",
          "type": "uint256"
        }
      ],
      "name": "Transfer",
      "type": "event"
    },
    {
      "stateMutability": "payable",
      "type": "fallback"
    },
    {
      "inputs": [],
      "name": "CHROMATIC_LP_LOGIC",
      "outputs": [
        {
          "internalType": "address",
          "name": "",
          "type": "address"
        }
      ],
      "stateMutability": "view",
      "type": "function"
    },
    {
      "inputs": [
        {
          "internalType": "uint256",
          "name": "amount",
          "type": "uint256"
        },
        {
          "internalType": "address",
          "name": "",
          "type": "address"
        }
      ],
      "name": "addLiquidity",
      "outputs": [
        {
          "components": [
            {
              "internalType": "uint256",
              "name": "id",
              "type": "uint256"
            },
            {
              "internalType": "address",
              "name": "provider",
              "type": "address"
            },
            {
              "internalType": "address",
              "name": "recipient",
              "type": "address"
            },
            {
              "internalType": "uint256",
              "name": "oracleVersion",
              "type": "uint256"
            },
            {
              "internalType": "uint256",
              "name": "amount",
              "type": "uint256"
            },
            {
              "internalType": "uint256",
              "name": "pendingLiquidity",
              "type": "uint256"
            },
            {
              "internalType": "enum ChromaticLPAction",
              "name": "action",
              "type": "uint8"
            }
          ],
          "internalType": "struct ChromaticLPReceipt",
          "name": "",
          "type": "tuple"
        }
      ],
      "stateMutability": "nonpayable",
      "type": "function"
    },
    {
      "inputs": [
        {
          "internalType": "address",
          "name": "",
          "type": "address"
        },
        {
          "internalType": "address",
          "name": "",
          "type": "address"
        },
        {
          "internalType": "bytes",
          "name": "",
          "type": "bytes"
        }
      ],
      "name": "addLiquidityBatchCallback",
      "outputs": [],
      "stateMutability": "nonpayable",
      "type": "function"
    },
    {
      "inputs": [
        {
          "internalType": "address",
          "name": "",
          "type": "address"
        },
        {
          "internalType": "address",
          "name": "",
          "type": "address"
        },
        {
          "internalType": "bytes",
          "name": "",
          "type": "bytes"
        }
      ],
      "name": "addLiquidityCallback",
      "outputs": [],
      "stateMutability": "pure",
      "type": "function"
    },
    {
      "inputs": [
        {
          "internalType": "address",
          "name": "owner",
          "type": "address"
        },
        {
          "internalType": "address",
          "name": "spender",
          "type": "address"
        }
      ],
      "name": "allowance",
      "outputs": [
        {
          "internalType": "uint256",
          "name": "",
          "type": "uint256"
        }
      ],
      "stateMutability": "view",
      "type": "function"
    },
    {
      "inputs": [
        {
          "internalType": "address",
          "name": "spender",
          "type": "address"
        },
        {
          "internalType": "uint256",
          "name": "amount",
          "type": "uint256"
        }
      ],
      "name": "approve",
      "outputs": [
        {
          "internalType": "bool",
          "name": "",
          "type": "bool"
        }
      ],
      "stateMutability": "nonpayable",
      "type": "function"
    },
    {
      "inputs": [],
      "name": "automationFeeReserved",
      "outputs": [
        {
          "internalType": "uint256",
          "name": "",
          "type": "uint256"
        }
      ],
      "stateMutability": "view",
      "type": "function"
    },
    {
      "inputs": [
        {
          "internalType": "address",
          "name": "account",
          "type": "address"
        }
      ],
      "name": "balanceOf",
      "outputs": [
        {
          "internalType": "uint256",
          "name": "",
          "type": "uint256"
        }
      ],
      "stateMutability": "view",
      "type": "function"
    },
    {
      "inputs": [],
      "name": "cancelRebalanceTask",
      "outputs": [],
      "stateMutability": "nonpayable",
      "type": "function"
    },
    {
      "inputs": [
        {
          "internalType": "uint256",
          "name": "",
          "type": "uint256"
        }
      ],
      "name": "cancelSettleTask",
      "outputs": [],
      "stateMutability": "nonpayable",
      "type": "function"
    },
    {
      "inputs": [],
      "name": "checkRebalance",
      "outputs": [
        {
          "internalType": "bool",
          "name": "",
          "type": "bool"
        }
      ],
      "stateMutability": "view",
      "type": "function"
    },
    {
      "inputs": [
        {
          "internalType": "uint256",
          "name": "receiptId",
          "type": "uint256"
        }
      ],
      "name": "checkSettle",
      "outputs": [
        {
          "internalType": "bool",
          "name": "",
          "type": "bool"
        }
      ],
      "stateMutability": "view",
      "type": "function"
    },
    {
      "inputs": [
        {
          "internalType": "uint256[]",
          "name": "",
          "type": "uint256[]"
        },
        {
          "internalType": "int16[]",
          "name": "",
          "type": "int16[]"
        },
        {
          "internalType": "uint256[]",
          "name": "",
          "type": "uint256[]"
        },
        {
          "internalType": "uint256[]",
          "name": "",
          "type": "uint256[]"
        },
        {
          "internalType": "bytes",
          "name": "",
          "type": "bytes"
        }
      ],
      "name": "claimLiquidityBatchCallback",
      "outputs": [],
      "stateMutability": "nonpayable",
      "type": "function"
    },
    {
      "inputs": [
        {
          "internalType": "uint256",
          "name": "",
          "type": "uint256"
        },
        {
          "internalType": "int16",
          "name": "",
          "type": "int16"
        },
        {
          "internalType": "uint256",
          "name": "",
          "type": "uint256"
        },
        {
          "internalType": "uint256",
          "name": "",
          "type": "uint256"
        },
        {
          "internalType": "bytes",
          "name": "",
          "type": "bytes"
        }
      ],
      "name": "claimLiquidityCallback",
      "outputs": [],
      "stateMutability": "pure",
      "type": "function"
    },
    {
      "inputs": [],
      "name": "clbTokenBalances",
      "outputs": [
        {
          "internalType": "uint256[]",
          "name": "_clbTokenBalances",
          "type": "uint256[]"
        }
      ],
      "stateMutability": "view",
      "type": "function"
    },
    {
      "inputs": [],
      "name": "clbTokenIds",
      "outputs": [
        {
          "internalType": "uint256[]",
          "name": "",
          "type": "uint256[]"
        }
      ],
      "stateMutability": "view",
      "type": "function"
    },
    {
      "inputs": [],
      "name": "clbTokenValues",
      "outputs": [
        {
          "internalType": "uint256[]",
          "name": "_clbTokenBalances",
          "type": "uint256[]"
        }
      ],
      "stateMutability": "view",
      "type": "function"
    },
    {
      "inputs": [],
      "name": "createRebalanceTask",
      "outputs": [],
      "stateMutability": "nonpayable",
      "type": "function"
    },
    {
      "inputs": [],
      "name": "decimals",
      "outputs": [
        {
          "internalType": "uint8",
          "name": "",
          "type": "uint8"
        }
      ],
      "stateMutability": "view",
      "type": "function"
    },
    {
      "inputs": [
        {
          "internalType": "address",
          "name": "spender",
          "type": "address"
        },
        {
          "internalType": "uint256",
          "name": "subtractedValue",
          "type": "uint256"
        }
      ],
      "name": "decreaseAllowance",
      "outputs": [
        {
          "internalType": "bool",
          "name": "",
          "type": "bool"
        }
      ],
      "stateMutability": "nonpayable",
      "type": "function"
    },
    {
      "inputs": [],
      "name": "distributionRates",
      "outputs": [
        {
          "internalType": "uint16[]",
          "name": "rates",
          "type": "uint16[]"
        }
      ],
      "stateMutability": "view",
      "type": "function"
    },
    {
      "inputs": [],
      "name": "estimateMinAddLiquidityAmount",
      "outputs": [
        {
          "internalType": "uint256",
          "name": "",
          "type": "uint256"
        }
      ],
      "stateMutability": "view",
      "type": "function"
    },
    {
      "inputs": [],
      "name": "estimateMinRemoveLiquidityAmount",
      "outputs": [
        {
          "internalType": "uint256",
          "name": "",
          "type": "uint256"
        }
      ],
      "stateMutability": "view",
      "type": "function"
    },
    {
      "inputs": [],
      "name": "feeRates",
      "outputs": [
        {
          "internalType": "int16[]",
          "name": "",
          "type": "int16[]"
        }
      ],
      "stateMutability": "view",
      "type": "function"
    },
    {
      "inputs": [],
      "name": "getAutomateLP",
      "outputs": [
        {
          "internalType": "contract IAutomateLP",
          "name": "",
          "type": "address"
        }
      ],
      "stateMutability": "view",
      "type": "function"
    },
    {
      "inputs": [
        {
          "internalType": "uint256",
          "name": "receiptId",
          "type": "uint256"
        }
      ],
      "name": "getReceipt",
      "outputs": [
        {
          "components": [
            {
              "internalType": "uint256",
              "name": "id",
              "type": "uint256"
            },
            {
              "internalType": "address",
              "name": "provider",
              "type": "address"
            },
            {
              "internalType": "address",
              "name": "recipient",
              "type": "address"
            },
            {
              "internalType": "uint256",
              "name": "oracleVersion",
              "type": "uint256"
            },
            {
              "internalType": "uint256",
              "name": "amount",
              "type": "uint256"
            },
            {
              "internalType": "uint256",
              "name": "pendingLiquidity",
              "type": "uint256"
            },
            {
              "internalType": "enum ChromaticLPAction",
              "name": "action",
              "type": "uint8"
            }
          ],
          "internalType": "struct ChromaticLPReceipt",
          "name": "",
          "type": "tuple"
        }
      ],
      "stateMutability": "view",
      "type": "function"
    },
    {
      "inputs": [
        {
          "internalType": "address",
          "name": "owner",
          "type": "address"
        }
      ],
      "name": "getReceiptIdsOf",
      "outputs": [
        {
          "internalType": "uint256[]",
          "name": "receiptIds",
          "type": "uint256[]"
        }
      ],
      "stateMutability": "view",
      "type": "function"
    },
    {
      "inputs": [],
      "name": "holdingClbValue",
      "outputs": [
        {
          "internalType": "uint256",
          "name": "value",
          "type": "uint256"
        }
      ],
      "stateMutability": "view",
      "type": "function"
    },
    {
      "inputs": [],
      "name": "holdingValue",
      "outputs": [
        {
          "internalType": "uint256",
          "name": "",
          "type": "uint256"
        }
      ],
      "stateMutability": "view",
      "type": "function"
    },
    {
      "inputs": [
        {
          "internalType": "address",
          "name": "spender",
          "type": "address"
        },
        {
          "internalType": "uint256",
          "name": "addedValue",
          "type": "uint256"
        }
      ],
      "name": "increaseAllowance",
      "outputs": [
        {
          "internalType": "bool",
          "name": "",
          "type": "bool"
        }
      ],
      "stateMutability": "nonpayable",
      "type": "function"
    },
    {
      "inputs": [],
      "name": "longShortInfo",
      "outputs": [
        {
          "internalType": "int8",
          "name": "",
          "type": "int8"
        }
      ],
      "stateMutability": "view",
      "type": "function"
    },
    {
      "inputs": [],
      "name": "lpName",
      "outputs": [
        {
          "internalType": "string",
          "name": "",
          "type": "string"
        }
      ],
      "stateMutability": "view",
      "type": "function"
    },
    {
      "inputs": [],
      "name": "lpTag",
      "outputs": [
        {
          "internalType": "string",
          "name": "",
          "type": "string"
        }
      ],
      "stateMutability": "view",
      "type": "function"
    },
    {
      "inputs": [],
      "name": "lpToken",
      "outputs": [
        {
          "internalType": "address",
          "name": "",
          "type": "address"
        }
      ],
      "stateMutability": "view",
      "type": "function"
    },
    {
      "inputs": [],
      "name": "market",
      "outputs": [
        {
          "internalType": "address",
          "name": "",
          "type": "address"
        }
      ],
      "stateMutability": "view",
      "type": "function"
    },
    {
      "inputs": [],
      "name": "minHoldingValueToRebalance",
      "outputs": [
        {
          "internalType": "uint256",
          "name": "",
          "type": "uint256"
        }
      ],
      "stateMutability": "view",
      "type": "function"
    },
    {
      "inputs": [],
      "name": "name",
      "outputs": [
        {
          "internalType": "string",
          "name": "",
          "type": "string"
        }
      ],
      "stateMutability": "view",
      "type": "function"
    },
    {
      "inputs": [
        {
          "internalType": "address",
          "name": "",
          "type": "address"
        },
        {
          "internalType": "address",
          "name": "",
          "type": "address"
        },
        {
          "internalType": "uint256[]",
          "name": "",
          "type": "uint256[]"
        },
        {
          "internalType": "uint256[]",
          "name": "",
          "type": "uint256[]"
        },
        {
          "internalType": "bytes",
          "name": "",
          "type": "bytes"
        }
      ],
      "name": "onERC1155BatchReceived",
      "outputs": [
        {
          "internalType": "bytes4",
          "name": "",
          "type": "bytes4"
        }
      ],
      "stateMutability": "pure",
      "type": "function"
    },
    {
      "inputs": [
        {
          "internalType": "address",
          "name": "",
          "type": "address"
        },
        {
          "internalType": "address",
          "name": "",
          "type": "address"
        },
        {
          "internalType": "uint256",
          "name": "",
          "type": "uint256"
        },
        {
          "internalType": "uint256",
          "name": "",
          "type": "uint256"
        },
        {
          "internalType": "bytes",
          "name": "",
          "type": "bytes"
        }
      ],
      "name": "onERC1155Received",
      "outputs": [
        {
          "internalType": "bytes4",
          "name": "",
          "type": "bytes4"
        }
      ],
      "stateMutability": "pure",
      "type": "function"
    },
    {
      "inputs": [],
      "name": "pendingClbValue",
      "outputs": [
        {
          "internalType": "uint256",
          "name": "value",
          "type": "uint256"
        }
      ],
      "stateMutability": "view",
      "type": "function"
    },
    {
      "inputs": [],
      "name": "pendingRemoveClbBalances",
      "outputs": [
        {
          "internalType": "uint256[]",
          "name": "",
          "type": "uint256[]"
        }
      ],
      "stateMutability": "view",
      "type": "function"
    },
    {
      "inputs": [],
      "name": "pendingValue",
      "outputs": [
        {
          "internalType": "uint256",
          "name": "",
          "type": "uint256"
        }
      ],
      "stateMutability": "view",
      "type": "function"
    },
    {
      "inputs": [
        {
          "internalType": "address",
          "name": "",
          "type": "address"
        },
        {
          "internalType": "uint256",
          "name": "",
          "type": "uint256"
        }
      ],
      "name": "rebalance",
      "outputs": [],
      "stateMutability": "nonpayable",
      "type": "function"
    },
    {
      "inputs": [],
      "name": "rebalanceBPS",
      "outputs": [
        {
          "internalType": "uint256",
          "name": "",
          "type": "uint256"
        }
      ],
      "stateMutability": "view",
      "type": "function"
    },
    {
      "inputs": [],
      "name": "rebalanceCheckingInterval",
      "outputs": [
        {
          "internalType": "uint256",
          "name": "",
          "type": "uint256"
        }
      ],
      "stateMutability": "view",
      "type": "function"
    },
    {
      "inputs": [
        {
          "internalType": "uint256",
          "name": "",
          "type": "uint256"
        },
        {
          "internalType": "address",
          "name": "",
          "type": "address"
        }
      ],
      "name": "removeLiquidity",
      "outputs": [
        {
          "components": [
            {
              "internalType": "uint256",
              "name": "id",
              "type": "uint256"
            },
            {
              "internalType": "address",
              "name": "provider",
              "type": "address"
            },
            {
              "internalType": "address",
              "name": "recipient",
              "type": "address"
            },
            {
              "internalType": "uint256",
              "name": "oracleVersion",
              "type": "uint256"
            },
            {
              "internalType": "uint256",
              "name": "amount",
              "type": "uint256"
            },
            {
              "internalType": "uint256",
              "name": "pendingLiquidity",
              "type": "uint256"
            },
            {
              "internalType": "enum ChromaticLPAction",
              "name": "action",
              "type": "uint8"
            }
          ],
          "internalType": "struct ChromaticLPReceipt",
          "name": "",
          "type": "tuple"
        }
      ],
      "stateMutability": "nonpayable",
      "type": "function"
    },
    {
      "inputs": [
        {
          "internalType": "address",
          "name": "",
          "type": "address"
        },
        {
          "internalType": "uint256[]",
          "name": "",
          "type": "uint256[]"
        },
        {
          "internalType": "bytes",
          "name": "",
          "type": "bytes"
        }
      ],
      "name": "removeLiquidityBatchCallback",
      "outputs": [],
      "stateMutability": "nonpayable",
      "type": "function"
    },
    {
      "inputs": [
        {
          "internalType": "address",
          "name": "",
          "type": "address"
        },
        {
          "internalType": "uint256",
          "name": "",
          "type": "uint256"
        },
        {
          "internalType": "bytes",
          "name": "",
          "type": "bytes"
        }
      ],
      "name": "removeLiquidityCallback",
      "outputs": [],
      "stateMutability": "pure",
      "type": "function"
    },
    {
      "inputs": [
        {
          "internalType": "contract IAutomateLP",
          "name": "automate",
          "type": "address"
        }
      ],
      "name": "setAutomateLP",
      "outputs": [],
      "stateMutability": "nonpayable",
      "type": "function"
    },
    {
      "inputs": [
        {
          "internalType": "uint256",
          "name": "_automationFeeReserved",
          "type": "uint256"
        }
      ],
      "name": "setAutomationFeeReserved",
      "outputs": [],
      "stateMutability": "nonpayable",
      "type": "function"
    },
    {
      "inputs": [
        {
          "internalType": "string",
          "name": "newName",
          "type": "string"
        }
      ],
      "name": "setLpName",
      "outputs": [],
      "stateMutability": "nonpayable",
      "type": "function"
    },
    {
      "inputs": [
        {
          "internalType": "string",
          "name": "tag",
          "type": "string"
        }
      ],
      "name": "setLpTag",
      "outputs": [],
      "stateMutability": "nonpayable",
      "type": "function"
    },
    {
      "inputs": [
        {
          "internalType": "uint256",
          "name": "_minHoldingValueToRebalance",
          "type": "uint256"
        }
      ],
      "name": "setMinHoldingValueToRebalance",
      "outputs": [],
      "stateMutability": "nonpayable",
      "type": "function"
    },
    {
      "inputs": [
        {
          "internalType": "uint256",
          "name": "",
          "type": "uint256"
        }
      ],
      "name": "settle",
      "outputs": [
        {
          "internalType": "bool",
          "name": "",
          "type": "bool"
        }
      ],
      "stateMutability": "nonpayable",
      "type": "function"
    },
    {
      "inputs": [
        {
          "internalType": "uint256",
          "name": "receiptId",
          "type": "uint256"
        },
        {
          "internalType": "address",
          "name": "",
          "type": "address"
        },
        {
          "internalType": "uint256",
          "name": "",
          "type": "uint256"
        }
      ],
      "name": "settleTask",
      "outputs": [],
      "stateMutability": "nonpayable",
      "type": "function"
    },
    {
      "inputs": [],
      "name": "settlementToken",
      "outputs": [
        {
          "internalType": "address",
          "name": "",
          "type": "address"
        }
      ],
      "stateMutability": "view",
      "type": "function"
    },
    {
      "inputs": [
        {
          "internalType": "bytes4",
          "name": "interfaceID",
          "type": "bytes4"
        }
      ],
      "name": "supportsInterface",
      "outputs": [
        {
          "internalType": "bool",
          "name": "",
          "type": "bool"
        }
      ],
      "stateMutability": "pure",
      "type": "function"
    },
    {
      "inputs": [],
      "name": "symbol",
      "outputs": [
        {
          "internalType": "string",
          "name": "",
          "type": "string"
        }
      ],
      "stateMutability": "view",
      "type": "function"
    },
    {
      "inputs": [],
      "name": "totalClbValue",
      "outputs": [
        {
          "internalType": "uint256",
          "name": "value",
          "type": "uint256"
        }
      ],
      "stateMutability": "view",
      "type": "function"
    },
    {
      "inputs": [],
      "name": "totalSupply",
      "outputs": [
        {
          "internalType": "uint256",
          "name": "",
          "type": "uint256"
        }
      ],
      "stateMutability": "view",
      "type": "function"
    },
    {
      "inputs": [],
      "name": "totalValue",
      "outputs": [
        {
          "internalType": "uint256",
          "name": "value",
          "type": "uint256"
        }
      ],
      "stateMutability": "view",
      "type": "function"
    },
    {
      "inputs": [
        {
          "internalType": "address",
          "name": "to",
          "type": "address"
        },
        {
          "internalType": "uint256",
          "name": "amount",
          "type": "uint256"
        }
      ],
      "name": "transfer",
      "outputs": [
        {
          "internalType": "bool",
          "name": "",
          "type": "bool"
        }
      ],
      "stateMutability": "nonpayable",
      "type": "function"
    },
    {
      "inputs": [
        {
          "internalType": "address",
          "name": "from",
          "type": "address"
        },
        {
          "internalType": "address",
          "name": "to",
          "type": "address"
        },
        {
          "internalType": "uint256",
          "name": "amount",
          "type": "uint256"
        }
      ],
      "name": "transferFrom",
      "outputs": [
        {
          "internalType": "bool",
          "name": "",
          "type": "bool"
        }
      ],
      "stateMutability": "nonpayable",
      "type": "function"
    },
    {
      "inputs": [],
      "name": "utilization",
      "outputs": [
        {
          "internalType": "uint16",
          "name": "currentUtility",
          "type": "uint16"
        }
      ],
      "stateMutability": "view",
      "type": "function"
    },
    {
      "inputs": [],
      "name": "utilizationTargetBPS",
      "outputs": [
        {
          "internalType": "uint256",
          "name": "",
          "type": "uint256"
        }
      ],
      "stateMutability": "view",
      "type": "function"
    },
    {
      "inputs": [],
      "name": "valueInfo",
      "outputs": [
        {
          "components": [
            {
              "internalType": "uint256",
              "name": "total",
              "type": "uint256"
            },
            {
              "internalType": "uint256",
              "name": "holding",
              "type": "uint256"
            },
            {
              "internalType": "uint256",
              "name": "pending",
              "type": "uint256"
            },
            {
              "internalType": "uint256",
              "name": "holdingClb",
              "type": "uint256"
            },
            {
              "internalType": "uint256",
              "name": "pendingClb",
              "type": "uint256"
            }
          ],
          "internalType": "struct ValueInfo",
          "name": "info",
          "type": "tuple"
        }
      ],
      "stateMutability": "view",
      "type": "function"
    },
    {
      "inputs": [
        {
          "internalType": "uint256[]",
          "name": "",
          "type": "uint256[]"
        },
        {
          "internalType": "int16[]",
          "name": "",
          "type": "int16[]"
        },
        {
          "internalType": "uint256[]",
          "name": "",
          "type": "uint256[]"
        },
        {
          "internalType": "uint256[]",
          "name": "",
          "type": "uint256[]"
        },
        {
          "internalType": "bytes",
          "name": "",
          "type": "bytes"
        }
      ],
      "name": "withdrawLiquidityBatchCallback",
      "outputs": [],
      "stateMutability": "nonpayable",
      "type": "function"
    },
    {
      "inputs": [
        {
          "internalType": "uint256",
          "name": "",
          "type": "uint256"
        },
        {
          "internalType": "int16",
          "name": "",
          "type": "int16"
        },
        {
          "internalType": "uint256",
          "name": "",
          "type": "uint256"
        },
        {
          "internalType": "uint256",
          "name": "",
          "type": "uint256"
        },
        {
          "internalType": "bytes",
          "name": "",
          "type": "bytes"
        }
      ],
      "name": "withdrawLiquidityCallback",
      "outputs": [],
      "stateMutability": "pure",
      "type": "function"
    },
    {
      "stateMutability": "payable",
      "type": "receive"
    }
  ],
  "transactionHash": "0xd8fe49ac98ba8c2e1314cdec526d770cb081622c146e1f83c86bf9b24944358c",
  "args": [
    "0xeF5E510A6d023bd92aEf4DdB57BC1F025793EAC6",
    {
      "lpName": "Decresendo",
      "tag": "High Risk"
    },
    {
      "market": "0xe1dcb9c62e3ee91d4BFdb347D7099fCB71Eebe66",
      "utilizationTargetBPS": 7500,
      "rebalanceBPS": 500,
      "rebalanceCheckingInterval": 86400,
      "automationFeeReserved": "4000000000000000000",
      "minHoldingValueToRebalance": "100000000000000000000"
    },
    [
      -5000,
      -4500,
      -4000,
      -3500,
      -3000,
      -2500,
      -2000,
      -1500,
      -1000,
      -900,
      -800,
      -700,
      -600,
      -500,
      -400,
      -300,
      -200,
      -100,
      -90,
      -80,
      -70,
      -60,
      -50,
      -40,
      -30,
      -20,
      -10,
      -9,
      -8,
      -7,
      -6,
      -5,
      -4,
      -3,
      -2,
      -1
    ],
    [
      2567,
      2601,
      2636,
      2671,
      2706,
      2742,
      2779,
      2817,
      2855,
      2893,
      2933,
      2973,
      3014,
      3056,
      3098,
      3142,
      3187,
      3233,
      3280,
      3328,
      3378,
      3430,
      3483,
      3538,
      3596,
      3655,
      3718,
      3784,
      3853,
      3928,
      4007,
      4094,
      4189,
      4298,
      4427,
      4595
    ],
    "0x529aC861782A6ea9e57A5A317b68EFFAa9E6E096"
  ],
  "numDeployments": 54,
  "solcInputHash": "d92ceaaf0e60e9bc882053d71cea4ffb",
  "bytecode": "0x60c06040523480156200001157600080fd5b50604051620058a7380380620058a7833981016040819052620000349162000921565b80806040518060200160405280600081525060405180602001604052806000815250816003908162000067919062000ad8565b50600462000076828262000ad8565b5050506200008a81620000b760201b60201c565b5050336080526001600160a01b03861660a052620000ab85858585620000d9565b50505050505062000c45565b601780546001600160a01b0319166001600160a01b0392909216919091179055565b620000f58360200151846040015184846200026360201b60201c565b8260a00151836080015111156200011f57604051633eb55f4560e21b815260040160405180910390fd5b83516040517ff3da74d2d1d2bae81f62790988b0907ae7ae344cb326e2f211e3513608e65b1391620001519162000ba4565b60405180910390a17f039efd204a16c45dbd0adc05af0e996a397123584a81af9b8d0484475d77110384602001516040516200018e919062000ba4565b60405180910390a1604080518082019091528451808252602080870151908301526005908190620001c0908262000ad8565b5060208201516001820190620001d7908262000ad8565b50506040805160a0808201835260208781015161ffff908116808552898601519091169184018290526060808a01519585018690526080808b0151918601829052938a0151939094018390526007805463ffffffff191690911762010000909202919091179055600892909255600955600a555082516200025d90600b908484620002f0565b50505050565b6127108461ffff1611156200029657604051631191f22d60e31b815261ffff851660048201526024015b60405180910390fd5b8051825114620002c75781518151604051637e2c0eb360e01b8152600481019290925260248201526044016200028d565b8261ffff168461ffff16116200025d57604051630272acdf60e41b815260040160405180910390fd5b83546001600160a01b0319166001600160a01b0384161784556200025d8483836000805b8251811015620003c55782818151811062000333576200033362000bd9565b602002602001015185600201600086848151811062000356576200035662000bd9565b602002602001015160010b60010b815260200190815260200160002060006101000a81548161ffff021916908361ffff160217905550828181518110620003a157620003a162000bd9565b602002602001015161ffff1682620003ba919062000c05565b915060010162000314565b50600384018190558251620003e490600186019060208601906200051e565b506001600a8501556200025d848480516001600160401b038111156200040e576200040e6200063f565b60405190808252806020026020018201604052801562000438578160200160208202803683370190505b50805162000451916004850191602090910190620005d1565b5060005b8151811015620004b9576200048c82828151811062000478576200047862000bd9565b6020026020010151620004be60201b60201c565b836004018281548110620004a457620004a462000bd9565b60009182526020909120015560010162000455565b505050565b6000600182900b8112620004eb81620004e257620004dc8462000c21565b620004e4565b835b82620004f2565b9392505050565b60008162000515576200050f6402540be40061ffff851662000c05565b620004eb565b505061ffff1690565b82805482825590600052602060002090600f01601090048101928215620005bf5791602002820160005b838211156200058d57835183826101000a81548161ffff021916908360010b61ffff160217905550926020019260020160208160010104928301926001030262000548565b8015620005bd5782816101000a81549061ffff02191690556002016020816001010492830192600103026200058d565b505b50620005cd9291506200060f565b5090565b828054828255906000526020600020908101928215620005bf579160200282015b82811115620005bf578251825591602001919060010190620005f2565b5b80821115620005cd576000815560010162000610565b6001600160a01b03811681146200063c57600080fd5b50565b634e487b7160e01b600052604160045260246000fd5b604080519081016001600160401b03811182821017156200067a576200067a6200063f565b60405290565b604051601f8201601f191681016001600160401b0381118282101715620006ab57620006ab6200063f565b604052919050565b60005b83811015620006d0578181015183820152602001620006b6565b50506000910152565b600082601f830112620006eb57600080fd5b81516001600160401b038111156200070757620007076200063f565b6200071c601f8201601f191660200162000680565b8181528460208386010111156200073257600080fd5b62000745826020830160208701620006b3565b949350505050565b805161ffff811681146200076057600080fd5b919050565b600060c082840312156200077857600080fd5b60405160c081016001600160401b03811182821017156200079d576200079d6200063f565b80604052508091508251620007b28162000626565b8152620007c2602084016200074d565b6020820152620007d5604084016200074d565b6040820152606083015160608201526080830151608082015260a083015160a08201525092915050565b60006001600160401b038211156200081b576200081b6200063f565b5060051b60200190565b600082601f8301126200083757600080fd5b81516020620008506200084a83620007ff565b62000680565b82815260059290921b840181019181810190868411156200087057600080fd5b8286015b848110156200089e5780518060010b8114620008905760008081fd5b835291830191830162000874565b509695505050505050565b600082601f830112620008bb57600080fd5b81516020620008ce6200084a83620007ff565b82815260059290921b84018101918181019086841115620008ee57600080fd5b8286015b848110156200089e5762000906816200074d565b8352918301918301620008f2565b8051620007608162000626565b60008060008060008061016087890312156200093c57600080fd5b8651620009498162000626565b60208801519096506001600160401b03808211156200096757600080fd5b908801906040828b0312156200097c57600080fd5b6200098662000655565b8251828111156200099657600080fd5b620009a48c828601620006d9565b825250602083015182811115620009ba57600080fd5b620009c88c828601620006d9565b6020830152509650620009df8a60408b0162000765565b9550610100890151915080821115620009f757600080fd5b62000a058a838b0162000825565b945061012089015191508082111562000a1d57600080fd5b5062000a2c89828a01620008a9565b92505062000a3e610140880162000914565b90509295509295509295565b600181811c9082168062000a5f57607f821691505b60208210810362000a8057634e487b7160e01b600052602260045260246000fd5b50919050565b601f821115620004b957600081815260208120601f850160051c8101602086101562000aaf5750805b601f850160051c820191505b8181101562000ad05782815560010162000abb565b505050505050565b81516001600160401b0381111562000af45762000af46200063f565b62000b0c8162000b05845462000a4a565b8462000a86565b602080601f83116001811462000b44576000841562000b2b5750858301515b600019600386901b1c1916600185901b17855562000ad0565b600085815260208120601f198616915b8281101562000b755788860151825594840194600190910190840162000b54565b508582101562000b945787850151600019600388901b60f8161c191681555b5050505050600190811b01905550565b602081526000825180602084015262000bc5816040850160208701620006b3565b601f01601f19169190910160400192915050565b634e487b7160e01b600052603260045260246000fd5b634e487b7160e01b600052601160045260246000fd5b8082018082111562000c1b5762000c1b62000bef565b92915050565b60008160010b617fff19810362000c3c5762000c3c62000bef565b60000392915050565b60805160a051614c0462000ca3600039600081816106880152610d19015260008181610ee9015281816111f5015281816114bd015281816115e4015281816116a6015281816118ee01528181611ccf0152611d460152614c046000f3fe6080604052600436106104335760003560e01c80638363396411610228578063bc197c8111610128578063d22e258d116100bb578063e921b5c21161008a578063f120bc4d1161006f578063f120bc4d14610bdf578063f23a6e6114610caf578063f8edb05514610cf557610442565b8063e921b5c214610c67578063ea21cd9214610c8757610442565b8063d22e258d14610bca578063d2419e2314610bdf578063d4c3eea014610bff578063dd62ed3e14610c1457610442565b8063c73fc729116100f7578063c73fc7291461056e578063c95cb96914610b6a578063c95f9d0e14610b8a578063d0d063c014610baa57610442565b8063bc197c8114610a9a578063c0d6361c14610b13578063c244e4ca14610b35578063c6bd624914610b4a57610442565b806395fc33c5116101bb578063a56c077f1161018a578063a940eb6b1161016f578063a940eb6b14610a50578063ac31bb0414610a65578063b63e6ac314610a7a57610442565b8063a56c077f14610a1b578063a9059cbb14610a3057610442565b806395fc33c5146109a0578063970d1d6f146109c0578063a207d6d1146109db578063a457c2d7146109fb57610442565b80638df82800116101f75780638df82800146109415780638f1cc1c51461096157806393e15ee91461097657806395d89b411461098b57610442565b806383633964146108d7578063861086b7146108ec5780638b0ee2811461090c5780638c7fe72e1461092157610442565b806340c592c11161033357806366cc811a116102c6578063747cd3d9116102955780637b9e618d1161027a5780637b9e618d146108775780637c48868a1461088c57806380f55605146108ac57610442565b8063747cd3d9146108405780637688c5841461085557610442565b806366cc811a1461077c5780636868fe1d1461079157806370a08231146107a6578063735a448e146107e957610442565b80635a80e080116103025780635a80e080146107245780635aa3b4ed1461073f5780635c3986b0146107545780635fcbd2851461076957610442565b806340c592c11461067657806344b41602146106cf57806346cd6801146106fa578063533cd7661461070f57610442565b80633068e794116103c65780633772708a116103955780633ab8a16c1161037a5780633ab8a16c1461062c5780633da9b9d0146106415780633efe49651461066157610442565b80633772708a146105ec578063395093511461060c57610442565b80633068e7941461056e578063313ce5671461058e5780633179f048146105aa578063357dbd23146105d757610442565b806318160ddd1161040257806318160ddd146104ee57806323b872dd1461050d57806326efc0451461052d57806329e0dcfc1461054657610442565b806301ffc9a71461044a57806305fe138b1461047f57806306fdde03146104ac578063095ea7b3146104ce57610442565b3661044257610440610d14565b005b610440610d14565b34801561045657600080fd5b5061046a6104653660046138d9565b610d3f565b60405190151581526020015b60405180910390f35b34801561048b57600080fd5b5061049f61049a36600461393d565b610dd8565b604051610476919061399c565b3480156104b857600080fd5b506104c1610de8565b6040516104769190613a63565b3480156104da57600080fd5b5061046a6104e9366004613ab4565b610e1f565b3480156104fa57600080fd5b506002545b604051908152602001610476565b34801561051957600080fd5b5061046a610528366004613ae0565b610e37565b34801561053957600080fd5b5060075461ffff166104ff565b34801561055257600080fd5b5061055b610e5d565b60405160009190910b8152602001610476565b34801561057a57600080fd5b50610440610589366004613b6a565b610e6e565b34801561059a57600080fd5b5060405160128152602001610476565b3480156105b657600080fd5b506105ca6105c5366004613be3565b610ea0565b6040516104769190613c00565b3480156105e357600080fd5b506013546104ff565b3480156105f857600080fd5b50610440610607366004613d08565b610ed1565b34801561061857600080fd5b5061046a610627366004613ab4565b610f87565b34801561063857600080fd5b506104ff610fd3565b34801561064d57600080fd5b5061044061065c366004613ab4565b610fdf565b34801561066d57600080fd5b506008546104ff565b34801561068257600080fd5b506106aa7f000000000000000000000000000000000000000000000000000000000000000081565b60405173ffffffffffffffffffffffffffffffffffffffff9091168152602001610476565b3480156106db57600080fd5b5060175473ffffffffffffffffffffffffffffffffffffffff166106aa565b34801561070657600080fd5b506104c1611068565b34801561071b57600080fd5b506104ff6110fd565b34801561073057600080fd5b50610440610589366004613d88565b34801561074b57600080fd5b506104c161111d565b34801561076057600080fd5b506105ca61112f565b34801561077557600080fd5b50306106aa565b34801561078857600080fd5b506104ff611189565b34801561079d57600080fd5b506104ff611195565b3480156107b257600080fd5b506104ff6107c1366004613be3565b73ffffffffffffffffffffffffffffffffffffffff1660009081526020819052604090205490565b3480156107f557600080fd5b506107fe6111a1565b6040516104769190600060a082019050825182526020830151602083015260408301516040830152606083015160608301526080830151608083015292915050565b34801561084c57600080fd5b506104406111dd565b34801561086157600080fd5b5061086a611324565b6040516104769190613de4565b34801561088357600080fd5b506106aa6113a4565b34801561089857600080fd5b5061046a6108a7366004613e1f565b611438565b3480156108b857600080fd5b50600b5473ffffffffffffffffffffffffffffffffffffffff166106aa565b3480156108e357600080fd5b506104ff611499565b3480156108f857600080fd5b50610440610907366004613be3565b6114a5565b34801561091857600080fd5b506104ff6115a3565b34801561092d57600080fd5b5061044061093c366004613e1f565b6115cc565b34801561094d57600080fd5b5061046a61095c366004613e1f565b611673565b34801561096d57600080fd5b506105ca611682565b34801561098257600080fd5b5061044061168e565b34801561099757600080fd5b506104c16117d4565b3480156109ac57600080fd5b506104406109bb366004613e38565b61186f565b3480156109cc57600080fd5b50610440610589366004613e5f565b3480156109e757600080fd5b506104406109f6366004613e1f565b6118d6565b348015610a0757600080fd5b5061046a610a16366004613ab4565b6119b9565b348015610a2757600080fd5b5061046a611a9a565b348015610a3c57600080fd5b5061046a610a4b366004613ab4565b611ba3565b348015610a5c57600080fd5b50600a546104ff565b348015610a7157600080fd5b506105ca611bb1565b348015610a8657600080fd5b5061049f610a95366004613e1f565b611bbd565b348015610aa657600080fd5b50610ae2610ab5366004613ef1565b7fbc197c810000000000000000000000000000000000000000000000000000000098975050505050505050565b6040517fffffffff000000000000000000000000000000000000000000000000000000009091168152602001610476565b348015610b1f57600080fd5b50610b28611bd0565b6040516104769190613fb0565b348015610b4157600080fd5b506105ca611cab565b348015610b5657600080fd5b50610440610b65366004613e1f565b611cb7565b348015610b7657600080fd5b50610440610b85366004613d08565b611d2e565b348015610b9657600080fd5b5061049f610ba536600461393d565b611de0565b348015610bb657600080fd5b50610440610bc5366004613e5f565b6118ce565b348015610bd657600080fd5b506009546104ff565b348015610beb57600080fd5b50610440610bfa366004613fec565b611e29565b348015610c0b57600080fd5b506104ff611e3d565b348015610c2057600080fd5b506104ff610c2f3660046140dd565b73ffffffffffffffffffffffffffffffffffffffff918216600090815260016020908152604080832093909416825291909152205490565b348015610c7357600080fd5b50610440610c8236600461410b565b611e49565b348015610c9357600080fd5b50610c9c611e51565b60405161ffff9091168152602001610476565b348015610cbb57600080fd5b50610ae2610cca36600461418e565b7ff23a6e61000000000000000000000000000000000000000000000000000000009695505050505050565b348015610d0157600080fd5b5060075462010000900461ffff166104ff565b610d3d7f0000000000000000000000000000000000000000000000000000000000000000611e63565b565b60007fffffffff0000000000000000000000000000000000000000000000000000000082167f01ffc9a7000000000000000000000000000000000000000000000000000000001480610dd257507fffffffff0000000000000000000000000000000000000000000000000000000082167f4e2312e000000000000000000000000000000000000000000000000000000000145b92915050565b610de0613860565b610dd2610d14565b6060610df2611e87565b610dfa611f23565b604051602001610e0b9291906141c2565b604051602081830303815290604052905090565b600033610e2d818585612001565b5060019392505050565b600033610e458582856121b4565b610e50858585612285565b60019150505b9392505050565b6000610e69600b6124f4565b905090565b6040517f36bcfc9a00000000000000000000000000000000000000000000000000000000815260040160405180910390fd5b73ffffffffffffffffffffffffffffffffffffffff81166000908152601260205260409020606090610dd2906125cb565b3373ffffffffffffffffffffffffffffffffffffffff7f00000000000000000000000000000000000000000000000000000000000000001614610f40576040517f9298645b00000000000000000000000000000000000000000000000000000000815260040160405180910390fd5b7ff3da74d2d1d2bae81f62790988b0907ae7ae344cb326e2f211e3513608e65b1381604051610f6f9190613a63565b60405180910390a16005610f8382826142de565b5050565b33600081815260016020908152604080832073ffffffffffffffffffffffffffffffffffffffff87168452909152812054909190610e2d9082908690610fce908790614427565b612001565b6000610e69600b6125d8565b6001600081905260166020527f4c4dc693d7db52f85fe052106f4b4b920e78e8ef37dee82878a60ab8585faf495473ffffffffffffffffffffffffffffffffffffffff16331461105b576040517fa19677f400000000000000000000000000000000000000000000000000000000815260040160405180910390fd5b611063610d14565b505050565b60606005600001805461107a90614243565b80601f01602080910402602001604051908101604052809291908181526020018280546110a690614243565b80156110f35780601f106110c8576101008083540402835291602001916110f3565b820191906000526020600020905b8154815290600101906020018083116110d657829003601f168201915b5050505050905090565b6000610e6961110b60025490565b611113611499565b60095491906127bc565b60606005600101805461107a90614243565b6060600b6004018054806020026020016040519081016040528092919081815260200182805480156110f357602002820191906000526020600020905b81548152602001906001019080831161116c575050505050905090565b6000610e69600b6128e6565b6000610e69600b612a91565b6111d36040518060a0016040528060008152602001600081526020016000815260200160008152602001600081525090565b610e69600b612c74565b3373ffffffffffffffffffffffffffffffffffffffff7f0000000000000000000000000000000000000000000000000000000000000000161461124c576040517f9298645b00000000000000000000000000000000000000000000000000000000815260040160405180910390fd5b6017546001600090815260166020527f4c4dc693d7db52f85fe052106f4b4b920e78e8ef37dee82878a60ab8585faf4980547fffffffffffffffffffffffff00000000000000000000000000000000000000001673ffffffffffffffffffffffffffffffffffffffff9093169283179055604080517f747cd3d9000000000000000000000000000000000000000000000000000000008152905163747cd3d99260048084019391929182900301818387803b15801561130a57600080fd5b505af115801561131e573d6000803e3d6000fd5b50505050565b6060600b6001018054806020026020016040519081016040528092919081815260200182805480156110f357602002820191906000526020600020906000905b82829054906101000a900460010b60010b815260200190600201906020826001010492830192600103820291508084116113645790505050505050905090565b600b54604080517f7b9e618d000000000000000000000000000000000000000000000000000000008152905160009273ffffffffffffffffffffffffffffffffffffffff1691637b9e618d9160048083019260209291908290030181865afa158015611414573d6000803e3d6000fd5b505050506040513d601f19601f82011682018060405250810190610e69919061443a565b600954600090611448600b612d2b565b101561145657506000919050565b6000611463600b84612dc6565b805190915015801590611482575061147b600b612e7a565b8160600151105b156114905750600192915050565b50600092915050565b6000610e69600b612d2b565b3373ffffffffffffffffffffffffffffffffffffffff7f00000000000000000000000000000000000000000000000000000000000000001614611514576040517f9298645b00000000000000000000000000000000000000000000000000000000815260040160405180910390fd5b60405173ffffffffffffffffffffffffffffffffffffffff821681527f7651d63b1278269cdcd173e3a36edd8c2b5f049a7314dcefde10ea3acd6bd6d19060200160405180910390a1601780547fffffffffffffffffffffffff00000000000000000000000000000000000000001673ffffffffffffffffffffffffffffffffffffffff831617905550565b50565b6007546000906115bf90612710906111139061ffff1682614457565b600954610e699190614427565b3373ffffffffffffffffffffffffffffffffffffffff7f0000000000000000000000000000000000000000000000000000000000000000161461163b576040517f9298645b00000000000000000000000000000000000000000000000000000000815260040160405180910390fd5b6040518181527f1441fd786153fa8f008b6fcebb75a50b96e1b572a71b7e3330445d7b5857e9399060200160405180910390a1600955565b600061167d610d14565b919050565b6060610e69600b612f82565b3373ffffffffffffffffffffffffffffffffffffffff7f000000000000000000000000000000000000000000000000000000000000000016146116fd576040517f9298645b00000000000000000000000000000000000000000000000000000000815260040160405180910390fd5b6001600090815260166020527f4c4dc693d7db52f85fe052106f4b4b920e78e8ef37dee82878a60ab8585faf4980547fffffffffffffffffffffffff00000000000000000000000000000000000000008116909155604080517f93e15ee9000000000000000000000000000000000000000000000000000000008152905173ffffffffffffffffffffffffffffffffffffffff9092169283926393e15ee992600480820193929182900301818387803b1580156117b957600080fd5b505af11580156117cd573d6000803e3d6000fd5b5050505050565b600b546060906117fb9073ffffffffffffffffffffffffffffffffffffffff16600461316b565b6006805460009061180b90614243565b81106118195761181961446a565b8154600116156118385790600052602060002090602091828204019190065b9054901a7f010000000000000000000000000000000000000000000000000000000000000002604051602001610e0b929190614499565b600083815260166020526040902054839073ffffffffffffffffffffffffffffffffffffffff1633146118ce576040517fa19677f400000000000000000000000000000000000000000000000000000000815260040160405180910390fd5b61131e610d14565b3373ffffffffffffffffffffffffffffffffffffffff7f00000000000000000000000000000000000000000000000000000000000000001614611945576040517f9298645b00000000000000000000000000000000000000000000000000000000815260040160405180910390fd5b600954811015611981576040517ffad57d1400000000000000000000000000000000000000000000000000000000815260040160405180910390fd5b6040518181527fe3ace5d94bde0cd21c2e532e3ec977a9b6db39d99fb47e6c560f276c4ef042589060200160405180910390a1600a55565b33600081815260016020908152604080832073ffffffffffffffffffffffffffffffffffffffff8716845290915281205490919083811015611a82576040517f08c379a000000000000000000000000000000000000000000000000000000000815260206004820152602560248201527f45524332303a2064656372656173656420616c6c6f77616e63652062656c6f7760448201527f207a65726f00000000000000000000000000000000000000000000000000000060648201526084015b60405180910390fd5b611a8f8286868403612001565b506001949350505050565b600a54600090611aaa600b612d2b565b1015611ab65750600090565b600080611ac3600b6132fd565b915061ffff16915080600003611adc5760009250505090565b6040805160a08101825260075461ffff808216835262010000909104166020820152600854918101919091526009546060820152600a546080820152600090611b25908461334c565b90506002816002811115611b3b57611b3b61396d565b03611b6057600954611b4c846133a1565b10611b5b576001935050505090565b611b99565b6001816002811115611b7457611b7461396d565b03611b9957611b816115a3565b611b8a846133c4565b10611b99576001935050505090565b6000935050505090565b600033610e2d818585612285565b6060610e69600b61340a565b611bc5613860565b610dd2600b83612dc6565b600c5460609067ffffffffffffffff811115611bee57611bee613c44565b604051908082528060200260200182016040528015611c17578160200160208202803683370190505b50905060005b600c54811015611ca757600c8054600d9160009184908110611c4157611c4161446a565b60009182526020808320601083040154600f9092166002026101000a90910460010b8352820192909252604001902054825161ffff90911690839083908110611c8c57611c8c61446a565b61ffff90921660209283029190910190910152600101611c1d565b5090565b6060610e69600b613556565b3373ffffffffffffffffffffffffffffffffffffffff7f00000000000000000000000000000000000000000000000000000000000000001614611d26576040517f9298645b00000000000000000000000000000000000000000000000000000000815260040160405180910390fd5b6115a0610d14565b3373ffffffffffffffffffffffffffffffffffffffff7f00000000000000000000000000000000000000000000000000000000000000001614611d9d576040517f9298645b00000000000000000000000000000000000000000000000000000000815260040160405180910390fd5b7f039efd204a16c45dbd0adc05af0e996a397123584a81af9b8d0484475d77110381604051611dcc9190613a63565b60405180910390a16006610f8382826142de565b611de8613860565b611df06115a3565b831015610de0576040517f266bd47800000000000000000000000000000000000000000000000000000000815260040160405180910390fd5b611e31610d14565b50505050505050505050565b6000610e69600b61362e565b6117cd610d14565b6000611e5d600b6132fd565b50919050565b3660008037600080366000845af43d6000803e808015611e82573d6000f35b3d6000fd5b6060611e93600b61365b565b73ffffffffffffffffffffffffffffffffffffffff166395d89b416040518163ffffffff1660e01b8152600401600060405180830381865afa158015611edd573d6000803e3d6000fd5b505050506040513d6000823e601f3d9081017fffffffffffffffffffffffffffffffffffffffffffffffffffffffffffffffe0168201604052610e69919081019061452f565b600b54604080517f0aa7d2f9000000000000000000000000000000000000000000000000000000008152905160609273ffffffffffffffffffffffffffffffffffffffff1691630aa7d2f99160048083019260209291908290030181865afa158015611f93573d6000803e3d6000fd5b505050506040513d601f19601f82011682018060405250810190611fb7919061443a565b73ffffffffffffffffffffffffffffffffffffffff16637284e4166040518163ffffffff1660e01b8152600401600060405180830381865afa158015611edd573d6000803e3d6000fd5b73ffffffffffffffffffffffffffffffffffffffff83166120a3576040517f08c379a0000000000000000000000000000000000000000000000000000000008152602060048201526024808201527f45524332303a20617070726f76652066726f6d20746865207a65726f2061646460448201527f72657373000000000000000000000000000000000000000000000000000000006064820152608401611a79565b73ffffffffffffffffffffffffffffffffffffffff8216612146576040517f08c379a000000000000000000000000000000000000000000000000000000000815260206004820152602260248201527f45524332303a20617070726f766520746f20746865207a65726f20616464726560448201527f73730000000000000000000000000000000000000000000000000000000000006064820152608401611a79565b73ffffffffffffffffffffffffffffffffffffffff83811660008181526001602090815260408083209487168084529482529182902085905590518481527f8c5be1e5ebec7d5bd14f71427d1e84f3dd0314c0f7b2291e5b200ac8c7c3b925910160405180910390a3505050565b73ffffffffffffffffffffffffffffffffffffffff8381166000908152600160209081526040808320938616835292905220547fffffffffffffffffffffffffffffffffffffffffffffffffffffffffffffffff811461131e5781811015612278576040517f08c379a000000000000000000000000000000000000000000000000000000000815260206004820152601d60248201527f45524332303a20696e73756666696369656e7420616c6c6f77616e63650000006044820152606401611a79565b61131e8484848403612001565b73ffffffffffffffffffffffffffffffffffffffff8316612328576040517f08c379a000000000000000000000000000000000000000000000000000000000815260206004820152602560248201527f45524332303a207472616e736665722066726f6d20746865207a65726f20616460448201527f64726573730000000000000000000000000000000000000000000000000000006064820152608401611a79565b73ffffffffffffffffffffffffffffffffffffffff82166123cb576040517f08c379a000000000000000000000000000000000000000000000000000000000815260206004820152602360248201527f45524332303a207472616e7366657220746f20746865207a65726f206164647260448201527f65737300000000000000000000000000000000000000000000000000000000006064820152608401611a79565b73ffffffffffffffffffffffffffffffffffffffff831660009081526020819052604090205481811015612481576040517f08c379a000000000000000000000000000000000000000000000000000000000815260206004820152602660248201527f45524332303a207472616e7366657220616d6f756e742065786365656473206260448201527f616c616e636500000000000000000000000000000000000000000000000000006064820152608401611a79565b73ffffffffffffffffffffffffffffffffffffffff848116600081815260208181526040808320878703905593871680835291849020805487019055925185815290927fddf252ad1be2c89b69c2b068fc378daa952ba7f163c4a11628f55a4df523b3ef910160405180910390a361131e565b6000806000805b60018501548110156125b857600085600101828154811061251e5761251e61446a565b60009182526020909120601082040154600f9091166002026101000a900460010b131561254e57600192506125b0565b60008560010182815481106125655761256561446a565b60009182526020909120601082040154600f9091166002026101000a900460010b12156125b0577fffffffffffffffffffffffffffffffffffffffffffffffffffffffffffffffff91505b6001016124fb565b506125c381836145a6565b949350505050565b60606000610e56836136ee565b6000806125e48361374a565b83546040517ffaf07bf300000000000000000000000000000000000000000000000000000000815291925060009173ffffffffffffffffffffffffffffffffffffffff9091169063faf07bf3906126429060018801906004016145e5565b600060405180830381865afa15801561265f573d6000803e3d6000fd5b505050506040513d6000823e601f3d9081017fffffffffffffffffffffffffffffffffffffffffffffffffffffffffffffffe01682016040526126a591908101906148f8565b905060005b81518110156127b45760008560090160008760010184815481106126d0576126d061446a565b60009182526020808320601083040154600f9092166002026101000a90910460010b83528201929092526040019020549050801580612728575083828151811061271c5761271c61446a565b60200260200101516000145b8061274c57508282815181106127405761274061446a565b60200260200101516000145b61279c576127978383815181106127655761276561446a565b602002602001015185848151811061277f5761277f61446a565b6020026020010151836127bc9092919063ffffffff16565b61279f565b60005b6127a99086614427565b9450506001016126aa565b505050919050565b600080807fffffffffffffffffffffffffffffffffffffffffffffffffffffffffffffffff858709858702925082811083820303915050806000036128145783828161280a5761280a61499e565b0492505050610e56565b80841161287d576040517f08c379a000000000000000000000000000000000000000000000000000000000815260206004820152601560248201527f4d6174683a206d756c446976206f766572666c6f7700000000000000000000006044820152606401611a79565b60008486880960026001871981018816978890046003810283188082028403028082028403028082028403028082028403028082028403029081029092039091026000889003889004909101858311909403939093029303949094049190911702949350505050565b6000806128f28361374a565b83546040517ffaf07bf300000000000000000000000000000000000000000000000000000000815291925060009173ffffffffffffffffffffffffffffffffffffffff9091169063faf07bf3906129509060018801906004016145e5565b600060405180830381865afa15801561296d573d6000803e3d6000fd5b505050506040513d6000823e601f3d9081017fffffffffffffffffffffffffffffffffffffffffffffffffffffffffffffffe01682016040526129b391908101906148f8565b905060006129c08561340a565b905060005b8251811015612a885760008282815181106129e2576129e261446a565b602002602001015190508060001480612a145750848281518110612a0857612a0861446a565b60200260200101516000145b80612a385750838281518110612a2c57612a2c61446a565b60200260200101516000145b612a7057612a6b848381518110612a5157612a5161446a565b602002602001015186848151811061277f5761277f61446a565b612a73565b60005b612a7d9087614427565b9550506001016129c5565b50505050919050565b600080612a9d8361374a565b83546040517ffaf07bf300000000000000000000000000000000000000000000000000000000815291925060009173ffffffffffffffffffffffffffffffffffffffff9091169063faf07bf390612afb9060018801906004016145e5565b600060405180830381865afa158015612b18573d6000803e3d6000fd5b505050506040513d6000823e601f3d9081017fffffffffffffffffffffffffffffffffffffffffffffffffffffffffffffffe0168201604052612b5e91908101906148f8565b90506000612b6b8561340a565b905060005b8251811015612a88576000866009016000886001018481548110612b9657612b9661446a565b90600052602060002090601091828204019190066002029054906101000a900460010b60010b60010b815260200190815260200160002054838381518110612be057612be061446a565b6020026020010151612bf29190614427565b9050801580612c1a5750848281518110612c0e57612c0e61446a565b60200260200101516000145b80612c3e5750838281518110612c3257612c3261446a565b60200260200101516000145b612c5c57612c57848381518110612a5157612a5161446a565b612c5f565b60005b612c699087614427565b955050600101612b70565b612ca66040518060a0016040528060008152602001600081526020016000815260200160008152602001600081525090565b6040518060a0016040528060008152602001612cc184612d2b565b8152602001612cd1846008015490565b8152602001612cdf846128e6565b8152602001612ced846125d8565b81525090508060800151816060015182604001518360200151612d109190614427565b612d1a9190614427565b612d249190614427565b8152919050565b6000612d368261365b565b6040517f70a0823100000000000000000000000000000000000000000000000000000000815230600482015273ffffffffffffffffffffffffffffffffffffffff91909116906370a0823190602401602060405180830381865afa158015612da2573d6000803e3d6000fd5b505050506040513d601f19601f82011682018060405250810190610dd291906149cd565b612dce613860565b600082815260058085016020908152604092839020835160e0810185528154815260018083015473ffffffffffffffffffffffffffffffffffffffff9081169483019490945260028301549093169481019490945260038101546060850152600481015460808501529182015460a0840152600682015460c084019160ff90911690811115612e5f57612e5f61396d565b6001811115612e7057612e7061396d565b9052509392505050565b8054604080517f0aa7d2f9000000000000000000000000000000000000000000000000000000008152905160009273ffffffffffffffffffffffffffffffffffffffff1691630aa7d2f99160048083019260209291908290030181865afa158015612ee9573d6000803e3d6000fd5b505050506040513d601f19601f82011682018060405250810190612f0d919061443a565b73ffffffffffffffffffffffffffffffffffffffff16639d888e866040518163ffffffff1660e01b8152600401606060405180830381865afa158015612f57573d6000803e3d6000fd5b505050506040513d601f19601f82011682018060405250810190612f7b91906149e6565b5192915050565b6060612f8f826001015490565b67ffffffffffffffff811115612fa757612fa7613c44565b604051908082528060200260200182016040528015612fd0578160200160208202803683370190505b5090506000612fde8361374a565b83546040517ffaf07bf300000000000000000000000000000000000000000000000000000000815291925060009173ffffffffffffffffffffffffffffffffffffffff9091169063faf07bf39061303c9060018801906004016145e5565b600060405180830381865afa158015613059573d6000803e3d6000fd5b505050506040513d6000823e601f3d9081017fffffffffffffffffffffffffffffffffffffffffffffffffffffffffffffffe016820160405261309f91908101906148f8565b905060006130ac8561340a565b905060005b6001860154811015612a88578381815181106130cf576130cf61446a565b60200260200101516000146131435761313e8282815181106130f3576130f361446a565b602002602001015185838151811061310d5761310d61446a565b60200260200101518584815181106131275761312761446a565b60200260200101516127bc9092919063ffffffff16565b613146565b60005b8582815181106131585761315861446a565b60209081029190910101526001016130b1565b60608160ff1667ffffffffffffffff81111561318957613189613c44565b6040519080825280601f01601f1916602001820160405280156131b3576020820181803683370190505b5060408051808201909152601081527f30313233343536373839616263646566000000000000000000000000000000006020820152909150836131f7846027614a42565b613202906004614a5b565b60ff168173ffffffffffffffffffffffffffffffffffffffff16901c905060005b8460ff168110156132f45760048273ffffffffffffffffffffffffffffffffffffffff16901c9150826010836132599190614a7e565b60ff168151811061326c5761326c61446a565b01602001517fff00000000000000000000000000000000000000000000000000000000000000168460016132a38460ff8a16614457565b6132ad9190614457565b815181106132bd576132bd61446a565b60200101907effffffffffffffffffffffffffffffffffffffffffffffffffffffffffffff1916908160001a905350600101613223565b50505092915050565b600080600061330b84612c74565b80519250905060008290036133235760009250613346565b80516020820151613343916127109161333c9082614457565b91906127bc565b92505b50915091565b600081836020015184600001516133639190614ad8565b61ffff16101561337557506002610dd2565b60208301518351839161338791614af3565b61ffff16111561339957506001610dd2565b506000610dd2565b600754600090610dd2906133b99061ffff1684614457565b8361333c600b6128e6565b600754600090610dd2906133de9061ffff16612710614457565b6133ea84612710614457565b6133f49190614457565b61340084612710614457565b61333c600b612d2b565b60606000613419836001015490565b67ffffffffffffffff81111561343157613431613c44565b60405190808252806020026020018201604052801561345a578160200160208202803683370190505b50905060005b60018401548110156134ac573082828151811061347f5761347f61446a565b73ffffffffffffffffffffffffffffffffffffffff90921660209283029190910190910152600101613460565b506134b6836137f3565b73ffffffffffffffffffffffffffffffffffffffff16634e1273f482856004016040518363ffffffff1660e01b81526004016134f3929190614b4e565b600060405180830381865afa158015613510573d6000803e3d6000fd5b505050506040513d6000823e601f3d9081017fffffffffffffffffffffffffffffffffffffffffffffffffffffffffffffffe0168201604052610e5691908101906148f8565b6060613563826001015490565b67ffffffffffffffff81111561357b5761357b613c44565b6040519080825280602002602001820160405280156135a4578160200160208202803683370190505b50905060005b6001830154811015611e5d578260090160008460010183815481106135d1576135d161446a565b90600052602060002090601091828204019190066002029054906101000a900460010b60010b60010b81526020019081526020016000205482828151811061361b5761361b61446a565b60209081029190910101526001016135aa565b600061363982612a91565b600883015461364784612d2b565b6136519190614427565b610dd29190614427565b8054604080517f7b9e618d000000000000000000000000000000000000000000000000000000008152905160009273ffffffffffffffffffffffffffffffffffffffff1691637b9e618d9160048083019260209291908290030181865afa1580156136ca573d6000803e3d6000fd5b505050506040513d601f19601f82011682018060405250810190610dd2919061443a565b60608160000180548060200260200160405190810160405280929190818152602001828054801561373e57602002820191906000526020600020905b81548152602001906001019080831161372a575b50505050509050919050565b6060613755826137f3565b73ffffffffffffffffffffffffffffffffffffffff166377954ac2836004016040518263ffffffff1660e01b81526004016137909190614bbb565b600060405180830381865afa1580156137ad573d6000803e3d6000fd5b505050506040513d6000823e601f3d9081017fffffffffffffffffffffffffffffffffffffffffffffffffffffffffffffffe0168201604052610dd291908101906148f8565b8054604080517e64041d000000000000000000000000000000000000000000000000000000008152905160009273ffffffffffffffffffffffffffffffffffffffff16916264041d9160048083019260209291908290030181865afa1580156136ca573d6000803e3d6000fd5b6040518060e0016040528060008152602001600073ffffffffffffffffffffffffffffffffffffffff168152602001600073ffffffffffffffffffffffffffffffffffffffff168152602001600081526020016000815260200160008152602001600060018111156138d4576138d461396d565b905290565b6000602082840312156138eb57600080fd5b81357fffffffff0000000000000000000000000000000000000000000000000000000081168114610e5657600080fd5b73ffffffffffffffffffffffffffffffffffffffff811681146115a057600080fd5b6000806040838503121561395057600080fd5b8235915060208301356139628161391b565b809150509250929050565b7f4e487b7100000000000000000000000000000000000000000000000000000000600052602160045260246000fd5b600060e08201905082518252602083015173ffffffffffffffffffffffffffffffffffffffff80821660208501528060408601511660408501525050606083015160608301526080830151608083015260a083015160a083015260c083015160028110613a32577f4e487b7100000000000000000000000000000000000000000000000000000000600052602160045260246000fd5b8060c08401525092915050565b60005b83811015613a5a578181015183820152602001613a42565b50506000910152565b6020815260008251806020840152613a82816040850160208701613a3f565b601f017fffffffffffffffffffffffffffffffffffffffffffffffffffffffffffffffe0169190910160400192915050565b60008060408385031215613ac757600080fd5b8235613ad28161391b565b946020939093013593505050565b600080600060608486031215613af557600080fd5b8335613b008161391b565b92506020840135613b108161391b565b929592945050506040919091013590565b60008083601f840112613b3357600080fd5b50813567ffffffffffffffff811115613b4b57600080fd5b602083019150836020828501011115613b6357600080fd5b9250929050565b60008060008060008060a08789031215613b8357600080fd5b8635955060208701358060010b8114613b9b57600080fd5b94506040870135935060608701359250608087013567ffffffffffffffff811115613bc557600080fd5b613bd189828a01613b21565b979a9699509497509295939492505050565b600060208284031215613bf557600080fd5b8135610e568161391b565b6020808252825182820181905260009190848201906040850190845b81811015613c3857835183529284019291840191600101613c1c565b50909695505050505050565b7f4e487b7100000000000000000000000000000000000000000000000000000000600052604160045260246000fd5b604051601f82017fffffffffffffffffffffffffffffffffffffffffffffffffffffffffffffffe016810167ffffffffffffffff81118282101715613cba57613cba613c44565b604052919050565b600067ffffffffffffffff821115613cdc57613cdc613c44565b50601f017fffffffffffffffffffffffffffffffffffffffffffffffffffffffffffffffe01660200190565b600060208284031215613d1a57600080fd5b813567ffffffffffffffff811115613d3157600080fd5b8201601f81018413613d4257600080fd5b8035613d55613d5082613cc2565b613c73565b818152856020838501011115613d6a57600080fd5b81602084016020830137600091810160200191909152949350505050565b60008060008060608587031215613d9e57600080fd5b8435613da98161391b565b935060208501359250604085013567ffffffffffffffff811115613dcc57600080fd5b613dd887828801613b21565b95989497509550505050565b6020808252825182820181905260009190848201906040850190845b81811015613c38578351600190810b8452938501939285019201613e00565b600060208284031215613e3157600080fd5b5035919050565b600080600060608486031215613e4d57600080fd5b833592506020840135613b108161391b565b60008060008060608587031215613e7557600080fd5b8435613e808161391b565b93506020850135613e908161391b565b9250604085013567ffffffffffffffff811115613dcc57600080fd5b60008083601f840112613ebe57600080fd5b50813567ffffffffffffffff811115613ed657600080fd5b6020830191508360208260051b8501011115613b6357600080fd5b60008060008060008060008060a0898b031215613f0d57600080fd5b8835613f188161391b565b97506020890135613f288161391b565b9650604089013567ffffffffffffffff80821115613f4557600080fd5b613f518c838d01613eac565b909850965060608b0135915080821115613f6a57600080fd5b613f768c838d01613eac565b909650945060808b0135915080821115613f8f57600080fd5b50613f9c8b828c01613b21565b999c989b5096995094979396929594505050565b6020808252825182820181905260009190848201906040850190845b81811015613c3857835161ffff1683529284019291840191600101613fcc565b60008060008060008060008060008060a08b8d03121561400b57600080fd5b8a3567ffffffffffffffff8082111561402357600080fd5b61402f8e838f01613eac565b909c509a5060208d013591508082111561404857600080fd5b6140548e838f01613eac565b909a50985060408d013591508082111561406d57600080fd5b6140798e838f01613eac565b909850965060608d013591508082111561409257600080fd5b61409e8e838f01613eac565b909650945060808d01359150808211156140b757600080fd5b506140c48d828e01613b21565b915080935050809150509295989b9194979a5092959850565b600080604083850312156140f057600080fd5b82356140fb8161391b565b915060208301356139628161391b565b60008060008060006060868803121561412357600080fd5b853561412e8161391b565b9450602086013567ffffffffffffffff8082111561414b57600080fd5b61415789838a01613eac565b9096509450604088013591508082111561417057600080fd5b5061417d88828901613b21565b969995985093965092949392505050565b60008060008060008060a087890312156141a757600080fd5b86356141b28161391b565b95506020870135613b9b8161391b565b7f4368726f6d617469634c50202d200000000000000000000000000000000000008152600083516141fa81600e850160208801613a3f565b7f202d200000000000000000000000000000000000000000000000000000000000600e918401918201528351614237816011840160208801613a3f565b01601101949350505050565b600181811c9082168061425757607f821691505b602082108103611e5d577f4e487b7100000000000000000000000000000000000000000000000000000000600052602260045260246000fd5b601f82111561106357600081815260208120601f850160051c810160208610156142b75750805b601f850160051c820191505b818110156142d6578281556001016142c3565b505050505050565b815167ffffffffffffffff8111156142f8576142f8613c44565b61430c816143068454614243565b84614290565b602080601f83116001811461435f57600084156143295750858301515b7fffffffffffffffffffffffffffffffffffffffffffffffffffffffffffffffff600386901b1c1916600185901b1785556142d6565b6000858152602081207fffffffffffffffffffffffffffffffffffffffffffffffffffffffffffffffe08616915b828110156143ac5788860151825594840194600190910190840161438d565b50858210156143e857878501517fffffffffffffffffffffffffffffffffffffffffffffffffffffffffffffffff600388901b60f8161c191681555b5050505050600190811b01905550565b7f4e487b7100000000000000000000000000000000000000000000000000000000600052601160045260246000fd5b80820180821115610dd257610dd26143f8565b60006020828403121561444c57600080fd5b8151610e568161391b565b81810381811115610dd257610dd26143f8565b7f4e487b7100000000000000000000000000000000000000000000000000000000600052603260045260246000fd5b7f434c502d000000000000000000000000000000000000000000000000000000008152600083516144d1816004850160208801613a3f565b7f2d0000000000000000000000000000000000000000000000000000000000000060049390910192830152507fff00000000000000000000000000000000000000000000000000000000000000919091166005820152600601919050565b60006020828403121561454157600080fd5b815167ffffffffffffffff81111561455857600080fd5b8201601f8101841361456957600080fd5b8051614577613d5082613cc2565b81815285602083850101111561458c57600080fd5b61459d826020830160208601613a3f565b95945050505050565b600081810b9083900b01607f81137fffffffffffffffffffffffffffffffffffffffffffffffffffffffffffffff8082121715610dd257610dd26143f8565b60006020808301818452808554614600818490815260200190565b60008881526020812094509092505b81600f82011015614751578354600181810b8552601082901c810b878601526040614642818701848a1c840b60010b9052565b60606146578188018560301c850b60010b9052565b608061466b81890186851c860b60010b9052565b60a092506146828389018660501c860b60010b9052565b60c0614696818a0187851c870b60010b9052565b60e092506146ad838a018760701c870b60010b9052565b85821c850b60010b6101008a01526146d06101208a018760901c870b60010b9052565b85841c850b60010b6101408a01526146f36101608a018760b01c870b60010b9052565b85811c850b60010b6101808a015250506147186101a088018560d01c850b60010b9052565b83811c830b60010b6101c0880152505061473b6101e086018360f01d60010b9052565b949094019350610200929092019160100161460f565b9254928181101561476957600184810b845292850192015b8181101561478357601084901c60010b8352918401916001015b8181101561479b5783851c60010b8352918401916001015b818110156147b557603084901c60010b8352918401916001015b818110156147cf57604084901c60010b8352918401916001015b818110156147e957605084901c60010b8352918401916001015b8181101561480357606084901c60010b8352918401916001015b8181101561481d57607084901c60010b8352918401916001015b8181101561483757608084901c60010b8352918401916001015b8181101561485157609084901c60010b8352918401916001015b8181101561486b5760a084901c60010b8352918401916001015b818110156148855760b084901c60010b8352918401916001015b8181101561489f5760c084901c60010b8352918401916001015b818110156148b95760d084901c60010b8352918401916001015b818110156148d35760e084901c60010b8352918401916001015b81811015613c38576148ea838560f01d60010b9052565b505091909101949350505050565b6000602080838503121561490b57600080fd5b825167ffffffffffffffff8082111561492357600080fd5b818501915085601f83011261493757600080fd5b81518181111561494957614949613c44565b8060051b915061495a848301613c73565b818152918301840191848101908884111561497457600080fd5b938501935b8385101561499257845182529385019390850190614979565b98975050505050505050565b7f4e487b7100000000000000000000000000000000000000000000000000000000600052601260045260246000fd5b6000602082840312156149df57600080fd5b5051919050565b6000606082840312156149f857600080fd5b6040516060810181811067ffffffffffffffff82111715614a1b57614a1b613c44565b80604052508251815260208301516020820152604083015160408201528091505092915050565b60ff8281168282160390811115610dd257610dd26143f8565b60ff8181168382160290811690818114614a7757614a776143f8565b5092915050565b600073ffffffffffffffffffffffffffffffffffffffff80841680614acc577f4e487b7100000000000000000000000000000000000000000000000000000000600052601260045260246000fd5b92169190910692915050565b61ffff818116838216019080821115614a7757614a776143f8565b61ffff828116828216039080821115614a7757614a776143f8565b6000815480845260208085019450836000528060002060005b83811015614b4357815487529582019560019182019101614b27565b509495945050505050565b604080825283519082018190526000906020906060840190828701845b82811015614b9d57815173ffffffffffffffffffffffffffffffffffffffff1684529284019290840190600101614b6b565b50505083810382850152614bb18186614b0e565b9695505050505050565b602081526000610e566020830184614b0e56fea26469706673582212207fb761889bee139598d87354b8e2530ff62c625867413dd0cb76c0053a65418a64736f6c63430008130033",
  "devdoc": {
    "errors": {
      "InvalidMinHoldingValueToRebalance()": [
        {
          "details": "Signifies that an invalid minHoldingValueToRebalance value has been encountered."
        }
      ],
      "InvalidRebalanceBPS()": [
        {
          "details": "Signifies that an invalid rebalance basis points value has been encountered."
        }
      ],
      "InvalidUtilizationTarget(uint16)": [
        {
          "details": "The invalid target basis points."
        }
      ],
      "NotAutomationCalled()": [
        {
          "details": "Thrown when an automation call is not made"
        }
      ],
      "NotImplementedInLogicContract()": [
        {
          "details": "Indicates that the functionality is not implemented in the logic contract."
        }
      ],
      "NotKeeperCalled()": [
        {
          "details": "Thrown when the keeper is not called."
        }
      ],
      "NotMarket()": [
        {
          "details": "Indicates that the operation is not applicable to the market."
        }
      ],
      "NotMatchDistributionLength(uint256,uint256)": [
        {
          "details": "Thrown when the lengths of the fee array and distribution array do not match.",
          "params": {
            "distributionLength": "The length of the distribution array.",
            "feeLength": "The length of the fee array."
          }
        }
      ],
      "NotOwner()": [
        {
          "details": "Signifies that the caller is not the owner of the contract"
        }
      ],
      "OnlyAccessableByOwner()": [
        {
          "details": "Signifies that the function is only accessible by the owner"
        }
      ],
      "OnlyBatchCall()": [
        {
          "details": "Denotes that the function can only be called within a batch call."
        }
      ],
      "TooSmallAmountToAddLiquidity()": [
        {
          "details": "Throws an error indicating that the amount to add liquidity is too small."
        }
      ],
      "UnknownLPAction()": [
        {
          "details": "Thrown when an unknown liquidity provider action is encountered"
        }
      ]
    },
    "events": {
      "AddLiquidity(uint256,address,address,uint256,uint256)": {
        "params": {
          "amount": "Amount of liquidity added in the settlement token.",
          "oracleVersion": "Version of the oracle used.",
          "provider": "Address of the liquidity provider.",
          "receiptId": "Unique identifier for the liquidity addition receipt.",
          "recipient": "Address of the recipient."
        }
      },
      "AddLiquiditySettled(uint256,address,address,uint256,uint256,uint256)": {
        "params": {
          "keeperFee": "Fee paid to the keeper.",
          "lpTokenAmount": "Amount of LP tokens issued.",
          "provider": "Address of the liquidity provider.",
          "receiptId": "Unique identifier for the liquidity addition receipt.",
          "recipient": "Address of the recipient.",
          "settlementAdded": "Settlement added to the liquidity"
        }
      },
      "Approval(address,address,uint256)": {
        "details": "Emitted when the allowance of a `spender` for an `owner` is set by a call to {approve}. `value` is the new allowance."
      },
      "RebalanceAddLiquidity(uint256,uint256,uint256,uint256)": {
        "params": {
          "amount": "Amount of liquidity added during rebalance.",
          "currentUtility": "Current utility of the liquidity provider.",
          "oracleVersion": "Version of the oracle used.",
          "receiptId": "Unique identifier for the rebalance liquidity addition receipt."
        }
      },
      "RebalanceRemoveLiquidity(uint256,uint256,uint256)": {
        "params": {
          "currentUtility": "Current utility of the liquidity pool.",
          "oracleVersion": "Version of the oracle used.",
          "receiptId": "Unique identifier for the rebalance liquidity removal receipt."
        }
      },
      "RebalanceSettled(uint256,uint256)": {
        "params": {
          "keeperFee": "Fee paid to the keeper.",
          "receiptId": "Unique identifier for the settled rebalance receipt."
        }
      },
      "RemoveLiquidity(uint256,address,address,uint256,uint256)": {
        "params": {
          "lpTokenAmount": "Amount of LP tokens to be removed.",
          "oracleVersion": "Version of the oracle used.",
          "provider": "Address of the liquidity provider.",
          "receiptId": "Unique identifier for the liquidity removal receipt.",
          "recipient": "Address of the recipient."
        }
      },
      "RemoveLiquiditySettled(uint256,address,address,uint256,uint256,uint256,uint256)": {
        "params": {
          "burningAmount": "Amount of LP tokens burned.",
          "keeperFee": "Fee paid to the keeper.",
          "provider": "Address of the liquidity provider.",
          "receiptId": "Unique identifier for the settled liquidity removal receipt.",
          "recipient": "Address of the recipient.",
          "refundedAmount": "Amount refunded to the provider.",
          "withdrawnSettlementAmount": "Withdrawn settlement amount."
        }
      },
      "SetAutomateLP(address)": {
        "params": {
          "automate": "The address of the AutomateLP contract."
        }
      },
      "SetAutomationFeeReserved(uint256)": {
        "details": "Emitted when the automation fee reserved value is updated.",
        "params": {
          "newValue": "The new value of the automation fee reserved."
        }
      },
      "SetLpName(string)": {
        "details": "Emitted when the name of the liquidity provider is updated.",
        "params": {
          "name": "The new name of the liquidity provider."
        }
      },
      "SetLpTag(string)": {
        "details": "Emitted when the tag of the liquidity provider is updated.",
        "params": {
          "tag": "The new tag associated with the liquidity provider."
        }
      },
      "SetMinHoldingValueToRebalance(uint256)": {
        "details": "Emitted when the minimum holding value to trigger rebalance is updated.",
        "params": {
          "newValue": "The new value of the minimum holding value to rebalance."
        }
      },
      "Transfer(address,address,uint256)": {
        "details": "Emitted when `value` tokens are moved from one account (`from`) to another (`to`). Note that `value` may be zero."
      }
    },
    "kind": "dev",
    "methods": {
      "addLiquidity(uint256,address)": {
        "details": "Adds liquidity to the Chromatic Protocol, minting LP tokens for the specified amount and assigning them to the recipient.",
        "params": {
          "amount": "The amount of liquidity to add.",
          "recipient": "The address of the recipient for the LP tokens."
        },
        "returns": {
          "_0": "ChromaticLPReceipt A data structure representing the receipt of the liquidity addition."
        }
      },
      "addLiquidityBatchCallback(address,address,bytes)": {
        "details": "not implemented",
        "params": {
          "data": "Additional data associated with the liquidity addition.",
          "settlementToken": "The address of the settlement token used for adding liquidity.",
          "vault": "The address of the vault where the liquidity is added."
        }
      },
      "addLiquidityCallback(address,address,bytes)": {
        "details": "not implemented",
        "params": {
          "data": "Additional data associated with the liquidity addition.",
          "settlementToken": "The address of the settlement token used for adding liquidity.",
          "vault": "The address of the vault where the liquidity is added."
        }
      },
      "allowance(address,address)": {
        "details": "See {IERC20-allowance}."
      },
      "approve(address,uint256)": {
        "details": "See {IERC20-approve}. NOTE: If `amount` is the maximum `uint256`, the allowance is not updated on `transferFrom`. This is semantically equivalent to an infinite approval. Requirements: - `spender` cannot be the zero address."
      },
      "automationFeeReserved()": {
        "details": "Retrieves the amount reserved as automation fee for automated operations within the liquidity provider.",
        "returns": {
          "_0": "The automation fee reserved amount."
        }
      },
      "balanceOf(address)": {
        "details": "See {IERC20-balanceOf}."
      },
      "cancelRebalanceTask()": {
        "details": "Cancels the currently active rebalance task in the liquidity provider. This is allowed for the owner of LP contract to call"
      },
      "cancelSettleTask(uint256)": {
        "details": "Cancels the settle task in the liquidity provider. This is allowed for the owner of LP contract to call",
        "params": {
          "receiptId": "The receipt ID associated with the settle execution."
        }
      },
      "checkRebalance()": {
        "details": "Checks whether a rebalance task is needed.",
        "returns": {
          "_0": "A boolean indicating whether a rebalance task is needed."
        }
      },
      "checkSettle(uint256)": {
        "details": "Checks whether a settle task is needed for a specific receipt ID.",
        "params": {
          "receiptId": "The unique identifier of the receipt associated with the task."
        },
        "returns": {
          "_0": "A boolean indicating whether a settle task is needed."
        }
      },
      "claimLiquidityBatchCallback(uint256[],int16[],uint256[],uint256[],bytes)": {
        "details": "not implemented",
        "params": {
          "data": "Additional data associated with the liquidity claim.",
          "depositedAmounts": "The array of deposited liquidity amounts for each receipt in the batch.",
          "feeRates": "The array of trading fee rates associated with each claim in the batch.",
          "mintedCLBTokenAmounts": "The array of CLB token amounts minted for each receipt in the batch.",
          "receiptIds": "The array of the liquidity receipt IDs."
        }
      },
      "claimLiquidityCallback(uint256,int16,uint256,uint256,bytes)": {
        "details": "not implemented",
        "params": {
          "data": "Additional data associated with the liquidity claim.",
          "depositedAmount": "The amount of liquidity deposited.",
          "feeRate": "The trading fee rate associated with the liquidity claim.",
          "mintedCLBTokenAmount": "The amount of CLB tokens minted as liquidity.",
          "receiptId": "The ID of the liquidity claim receipt."
        }
      },
      "clbTokenBalances()": {
        "details": "Retrieves the balances of CLB tokens held in the liquidity provider.",
        "returns": {
          "_clbTokenBalances": "An array of CLB token balances held in the liquidity provider."
        }
      },
      "clbTokenIds()": {
        "details": "Retrieves the token IDs of CLB tokens handled in the liquidity provider",
        "returns": {
          "_0": "An array of CLB token IDs handled in the liquidity provider."
        }
      },
      "clbTokenValues()": {
        "details": "Retrieves the values of CLB tokens held in the liquidity provider.",
        "returns": {
          "_clbTokenBalances": "An array of CLB token value held in the liquidity provider."
        }
      },
      "createRebalanceTask()": {
        "details": "Initiates the creation of a rebalance task in the liquidity provider. This is allowed for the owner of LP contract to call"
      },
      "decimals()": {
        "details": "Returns the number of decimals used to get its user representation. For example, if `decimals` equals `2`, a balance of `505` tokens should be displayed to a user as `5.05` (`505 / 10 ** 2`). Tokens usually opt for a value of 18, imitating the relationship between Ether and Wei. This is the default value returned by this function, unless it's overridden. NOTE: This information is only used for _display_ purposes: it in no way affects any of the arithmetic of the contract, including {IERC20-balanceOf} and {IERC20-transfer}."
      },
      "decreaseAllowance(address,uint256)": {
        "details": "Atomically decreases the allowance granted to `spender` by the caller. This is an alternative to {approve} that can be used as a mitigation for problems described in {IERC20-approve}. Emits an {Approval} event indicating the updated allowance. Requirements: - `spender` cannot be the zero address. - `spender` must have allowance for the caller of at least `subtractedValue`."
      },
      "distributionRates()": {
        "details": "Retrieves an array of distribution rates associated with different fee rates.",
        "returns": {
          "rates": "An array of distribution rates."
        }
      },
      "estimateMinAddLiquidityAmount()": {
        "details": "Estimates the minimum amount of liquidity that can be added by automation.",
        "returns": {
          "_0": "The minimum amount of liquidity in the settlement token that can be added."
        }
      },
      "estimateMinRemoveLiquidityAmount()": {
        "details": "Estimates the minimum amount of liquidity that can be removed by automation.",
        "returns": {
          "_0": "The minimum amount of liquidity in the LP token that can be removed."
        }
      },
      "feeRates()": {
        "details": "Retrieves the fee rates associated with various actions in the liquidity provider.",
        "returns": {
          "_0": "An array of fee rates for different actions within the liquidity pool."
        }
      },
      "getAutomateLP()": {
        "returns": {
          "_0": "The address of the AutomateLP contract."
        }
      },
      "getReceipt(uint256)": {
        "details": "Retrieves detailed information about a specific liquidity receipt identified by id.",
        "params": {
          "id": "The unique identifier of the liquidity receipt to retrieve."
        },
        "returns": {
          "_0": "A data structure representing the liquidity receipt."
        }
      },
      "getReceiptIdsOf(address)": {
        "details": "Retrieves the unique identifiers of all liquidity receipts owned by a given address.",
        "params": {
          "owner": "The address of the liquidity provider."
        },
        "returns": {
          "receiptIds": "An array of unique identifiers for the liquidity receipts owned by the specified address."
        }
      },
      "holdingClbValue()": {
        "details": "Retrieves the current holding CLB value in the liquidity provider.",
        "returns": {
          "value": "The current holding CLB value in the liquidity provider."
        }
      },
      "holdingValue()": {
        "details": "Retrieves the current holding value of the liquidity pool.",
        "returns": {
          "_0": "The current holding value in the liquidity provider."
        }
      },
      "increaseAllowance(address,uint256)": {
        "details": "Atomically increases the allowance granted to `spender` by the caller. This is an alternative to {approve} that can be used as a mitigation for problems described in {IERC20-approve}. Emits an {Approval} event indicating the updated allowance. Requirements: - `spender` cannot be the zero address."
      },
      "longShortInfo()": {
        "details": "Retrieves information about the target of liquidity.",
        "returns": {
          "_0": "longShortInfo An integer representing long (1), short (-1), or both side(0)."
        }
      },
      "lpName()": {
        "details": "Retrieves the name of the Chromatic Protocol liquidity provider.",
        "returns": {
          "_0": "The name of the liquidity provider."
        }
      },
      "lpTag()": {
        "details": "Retrieves the tag associated with the Chromatic Protocol liquidity provider.",
        "returns": {
          "_0": "The tag associated with the liquidity provider"
        }
      },
      "lpToken()": {
        "details": "Retrieves the address of the LP token associated with the Chromatic Protocol liquidity provider.",
        "returns": {
          "_0": "The address of the LP (Liquidity Provider) token issued by the liquidity provider."
        }
      },
      "market()": {
        "details": "Retrieves the address of the market associated with the Chromatic Protocol liquidity provider.",
        "returns": {
          "_0": "The address of the market associated with the liquidity provider."
        }
      },
      "minHoldingValueToRebalance()": {
        "details": "Retrieves the minimum holding value required to trigger rebalance.",
        "returns": {
          "_0": "The minimum holding value to rebalance."
        }
      },
      "name()": {
        "details": "Returns the name of the token."
      },
      "onERC1155BatchReceived(address,address,uint256[],uint256[],bytes)": {
        "details": "Handles the receipt of a multiple ERC1155 token types. This function is called at the end of a `safeBatchTransferFrom` after the balances have been updated. NOTE: To accept the transfer(s), this must return `bytes4(keccak256(\"onERC1155BatchReceived(address,address,uint256[],uint256[],bytes)\"))` (i.e. 0xbc197c81, or its own function selector).",
        "params": {
          "data": "Additional data with no specified format",
          "from": "The address which previously owned the token",
          "ids": "An array containing ids of each token being transferred (order and length must match values array)",
          "operator": "The address which initiated the batch transfer (i.e. msg.sender)",
          "values": "An array containing amounts of each token being transferred (order and length must match ids array)"
        },
        "returns": {
          "_0": "`bytes4(keccak256(\"onERC1155BatchReceived(address,address,uint256[],uint256[],bytes)\"))` if transfer is allowed"
        }
      },
      "onERC1155Received(address,address,uint256,uint256,bytes)": {
        "details": "Handles the receipt of a single ERC1155 token type. This function is called at the end of a `safeTransferFrom` after the balance has been updated. NOTE: To accept the transfer, this must return `bytes4(keccak256(\"onERC1155Received(address,address,uint256,uint256,bytes)\"))` (i.e. 0xf23a6e61, or its own function selector).",
        "params": {
          "data": "Additional data with no specified format",
          "from": "The address which previously owned the token",
          "id": "The ID of the token being transferred",
          "operator": "The address which initiated the transfer (i.e. msg.sender)",
          "value": "The amount of tokens being transferred"
        },
        "returns": {
          "_0": "`bytes4(keccak256(\"onERC1155Received(address,address,uint256,uint256,bytes)\"))` if transfer is allowed"
        }
      },
      "pendingClbValue()": {
        "details": "Retrieves the pending CLB value in the liquidity provider.",
        "returns": {
          "value": "The pending CLB value in the liquidity provider."
        }
      },
      "pendingRemoveClbBalances()": {
        "details": "An array of pending CLB token balances for removal. Retrieves the pending CLB token balances that are pending removal from the liquidity provider."
      },
      "pendingValue()": {
        "details": "Retrieves the pending value of the liquidity provider.",
        "returns": {
          "_0": "pendingValue The pending value in the liquidity pool."
        }
      },
      "rebalance(address,uint256)": {
        "details": "called by automation only"
      },
      "rebalanceBPS()": {
        "details": "Retrieves the rebalance basis points (BPS) for the liquidity provider.",
        "returns": {
          "_0": "The rebalance BPS."
        }
      },
      "rebalanceCheckingInterval()": {
        "details": "Retrieves the time interval in seconds between checks for rebalance conditions.",
        "returns": {
          "_0": "The rebalance checking interval in seconds."
        }
      },
      "removeLiquidity(uint256,address)": {
        "details": "Removes liquidity from the Chromatic Protocol, burning the specified amount of LP tokens and transferring the corresponding assets to the recipient.",
        "params": {
          "lpTokenAmount": "The amount of LP tokens to remove.",
          "recipient": "The address of the recipient for the withdrawn assets."
        }
      },
      "removeLiquidityBatchCallback(address,uint256[],bytes)": {
        "details": "not implemented",
        "params": {
          "clbToken": "The address of the Chromatic liquidity token.",
          "clbTokenIds": "The array of the Chromatic liquidity token IDs to be removed.",
          "data": "Additional data associated with the liquidity removal."
        }
      },
      "removeLiquidityCallback(address,uint256,bytes)": {
        "details": "not implemented",
        "params": {
          "clbToken": "The address of the Chromatic liquidity token.",
          "clbTokenId": "The ID of the Chromatic liquidity token to be removed.",
          "data": "Additional data associated with the liquidity removal."
        }
      },
      "setAutomateLP(address)": {
        "params": {
          "automate": "The address of the AutomateLP contract."
        }
      },
      "setAutomationFeeReserved(uint256)": {
        "details": "Additional data to be used in the rebalance process.",
        "params": {
          "_automationFeeReserved": "The new value for the reserved automation fee."
        }
      },
      "setLpName(string)": {
        "details": "Sets the name of the Chromatic Protocol liquidity provider.",
        "params": {
          "newName": "The new name for the liquidity provider."
        }
      },
      "setLpTag(string)": {
        "details": "Sets the tag associated with the Chromatic Protocol liquidity provider.",
        "params": {
          "newTag": "The new tag for the liquidity provider."
        }
      },
      "setMinHoldingValueToRebalance(uint256)": {
        "details": "Additional data to be used in the rebalance process.",
        "params": {
          "_minHoldingValueToRebalance": "The new value for the required minimum amount to trigger rebalance."
        }
      },
      "settle(uint256)": {
        "details": "Initiates the settlement process for a specific liquidity receipt identified by receiptId.",
        "params": {
          "receiptId": "The unique identifier of the liquidity receipt to settle."
        },
        "returns": {
          "_0": "true if the settlement is successful, false otherwise."
        }
      },
      "settleTask(uint256,address,uint256)": {
        "details": "called by automation only"
      },
      "settlementToken()": {
        "details": "Retrieves the address of the settlement token associated with the Chromatic Protocol liquidity provider.",
        "returns": {
          "_0": "The address of the settlement token used in the liquidity provider."
        }
      },
      "supportsInterface(bytes4)": {
        "details": "Returns true if this contract implements the interface defined by `interfaceId`. See the corresponding https://eips.ethereum.org/EIPS/eip-165#how-interfaces-are-identified[EIP section] to learn more about how these ids are created. This function call must use less than 30 000 gas."
      },
      "symbol()": {
        "details": "Returns the symbol of the token, usually a shorter version of the name."
      },
      "totalClbValue()": {
        "details": "Retrieves the total CLB value in the liquidity provider, combining holding and pending CLB values.",
        "returns": {
          "value": "The total CLB value in the liquidity provider."
        }
      },
      "totalSupply()": {
        "details": "See {IERC20-totalSupply}."
      },
      "totalValue()": {
        "details": "The total value of the liquidity provider"
      },
      "transfer(address,uint256)": {
        "details": "See {IERC20-transfer}. Requirements: - `to` cannot be the zero address. - the caller must have a balance of at least `amount`."
      },
      "transferFrom(address,address,uint256)": {
        "details": "See {IERC20-transferFrom}. Emits an {Approval} event indicating the updated allowance. This is not required by the EIP. See the note at the beginning of {ERC20}. NOTE: Does not update the allowance if the current allowance is the maximum `uint256`. Requirements: - `from` and `to` cannot be the zero address. - `from` must have a balance of at least `amount`. - the caller must have allowance for ``from``'s tokens of at least `amount`."
      },
      "utilization()": {
        "details": "The current utilization of the liquidity provider, represented in basis points (BPS)"
      },
      "utilizationTargetBPS()": {
        "details": "Retrieves the target utilization rate in basis points (BPS) for the liquidity provider.",
        "returns": {
          "_0": "The target utilization rate in BPS."
        }
      },
      "valueInfo()": {
        "details": "Retrieves the total value of the liquidity provider, including both holding and pending values.",
        "returns": {
          "info": "A ValueInfo struct containing total, holding, pending, holdingClb, and pendingClb values."
        }
      },
      "withdrawLiquidityBatchCallback(uint256[],int16[],uint256[],uint256[],bytes)": {
        "details": "not implemented",
        "params": {
          "burnedCLBTokenAmounts": "The array of CLB token amounts burned for each receipt in the batch.",
          "data": "Additional data associated with the liquidity withdrawal.",
          "feeRates": "The array of trading fee rates associated with each withdrawal in the batch.",
          "receiptIds": "The array of the liquidity receipt IDs.",
          "withdrawnAmounts": "The array of withdrawn liquidity amounts for each receipt in the batch."
        }
      },
      "withdrawLiquidityCallback(uint256,int16,uint256,uint256,bytes)": {
        "details": "not implemented",
        "params": {
          "burnedCLBTokenAmount": "The amount of CLB tokens burned during the withdrawal.",
          "data": "Additional data associated with the liquidity withdrawal.",
          "feeRate": "The trading fee rate associated with the liquidity withdrawal.",
          "receiptId": "The ID of the liquidity withdrawal receipt.",
          "withdrawnAmount": "The amount of liquidity that has been withdrawn."
        }
      }
    },
    "version": 1
  },
  "userdoc": {
    "events": {
      "AddLiquidity(uint256,address,address,uint256,uint256)": {
        "notice": "Emitted when addLiquidity is performed."
      },
      "AddLiquiditySettled(uint256,address,address,uint256,uint256,uint256)": {
        "notice": "Emitted when addLiquidity is settled."
      },
      "RebalanceAddLiquidity(uint256,uint256,uint256,uint256)": {
        "notice": "Emitted when rebalance of adding liquidity is performed."
      },
      "RebalanceRemoveLiquidity(uint256,uint256,uint256)": {
        "notice": "Emitted when rebalance of removing liquidity is performed."
      },
      "RebalanceSettled(uint256,uint256)": {
        "notice": "Emitted when rebalancing is settled."
      },
      "RemoveLiquidity(uint256,address,address,uint256,uint256)": {
        "notice": "Emitted when removeLiquidity is performed."
      },
      "RemoveLiquiditySettled(uint256,address,address,uint256,uint256,uint256,uint256)": {
        "notice": "Emitted when removeLiquidity is settled."
      },
      "SetAutomateLP(address)": {
        "notice": "Emitted when the AutomateLP address is set."
      }
    },
    "kind": "user",
    "methods": {
      "addLiquidityBatchCallback(address,address,bytes)": {
        "notice": "Handles the callback after adding liquidity to the Chromatic protocol."
      },
      "addLiquidityCallback(address,address,bytes)": {
        "notice": "Handles the callback after adding liquidity to the Chromatic protocol."
      },
      "claimLiquidityBatchCallback(uint256[],int16[],uint256[],uint256[],bytes)": {
        "notice": "Handles the callback after claiming liquidity from the Chromatic protocol."
      },
      "claimLiquidityCallback(uint256,int16,uint256,uint256,bytes)": {
        "notice": "Handles the callback after claiming liquidity from the Chromatic protocol."
      },
      "getAutomateLP()": {
        "notice": "Gets the current AutomateLP contract address."
      },
      "removeLiquidityBatchCallback(address,uint256[],bytes)": {
        "notice": "Handles the callback after removing liquidity from the Chromatic protocol."
      },
      "removeLiquidityCallback(address,uint256,bytes)": {
        "notice": "Handles the callback after removing liquidity from the Chromatic protocol."
      },
      "setAutomateLP(address)": {
        "notice": "Sets the AutomateLP contract address."
      },
      "withdrawLiquidityBatchCallback(uint256[],int16[],uint256[],uint256[],bytes)": {
        "notice": "Handles the callback after withdrawing liquidity from the Chromatic protocol."
      },
      "withdrawLiquidityCallback(uint256,int16,uint256,uint256,bytes)": {
        "notice": "Handles the callback after withdrawing liquidity from the Chromatic protocol."
      }
    },
    "version": 1
  },
  "storageLayout": {
    "storage": [
      {
        "astId": 3728,
        "contract": "contracts/lp/ChromaticLP.sol:ChromaticLP",
        "label": "_balances",
        "offset": 0,
        "slot": "0",
        "type": "t_mapping(t_address,t_uint256)"
      },
      {
        "astId": 3734,
        "contract": "contracts/lp/ChromaticLP.sol:ChromaticLP",
        "label": "_allowances",
        "offset": 0,
        "slot": "1",
        "type": "t_mapping(t_address,t_mapping(t_address,t_uint256))"
      },
      {
        "astId": 3736,
        "contract": "contracts/lp/ChromaticLP.sol:ChromaticLP",
        "label": "_totalSupply",
        "offset": 0,
        "slot": "2",
        "type": "t_uint256"
      },
      {
        "astId": 3738,
        "contract": "contracts/lp/ChromaticLP.sol:ChromaticLP",
        "label": "_name",
        "offset": 0,
        "slot": "3",
        "type": "t_string_storage"
      },
      {
        "astId": 3740,
        "contract": "contracts/lp/ChromaticLP.sol:ChromaticLP",
        "label": "_symbol",
        "offset": 0,
        "slot": "4",
        "type": "t_string_storage"
      },
      {
        "astId": 11296,
        "contract": "contracts/lp/ChromaticLP.sol:ChromaticLP",
        "label": "s_meta",
        "offset": 0,
        "slot": "5",
        "type": "t_struct(LPMeta)11279_storage"
      },
      {
        "astId": 11299,
        "contract": "contracts/lp/ChromaticLP.sol:ChromaticLP",
        "label": "s_config",
        "offset": 0,
        "slot": "7",
        "type": "t_struct(LPConfig)12067_storage"
      },
      {
        "astId": 11302,
        "contract": "contracts/lp/ChromaticLP.sol:ChromaticLP",
        "label": "s_state",
        "offset": 0,
        "slot": "11",
        "type": "t_struct(LPState)12167_storage"
      },
      {
        "astId": 11163,
        "contract": "contracts/lp/ChromaticLP.sol:ChromaticLP",
        "label": "s_task",
        "offset": 0,
        "slot": "22",
        "type": "t_mapping(t_uint256,t_contract(IAutomateLP)11382)"
      },
      {
        "astId": 11166,
        "contract": "contracts/lp/ChromaticLP.sol:ChromaticLP",
        "label": "s_automate",
        "offset": 0,
        "slot": "23",
        "type": "t_contract(IAutomateLP)11382"
      }
    ],
    "types": {
      "t_address": {
        "encoding": "inplace",
        "label": "address",
        "numberOfBytes": "20"
      },
      "t_array(t_bytes32)dyn_storage": {
        "base": "t_bytes32",
        "encoding": "dynamic_array",
        "label": "bytes32[]",
        "numberOfBytes": "32"
      },
      "t_array(t_int16)dyn_storage": {
        "base": "t_int16",
        "encoding": "dynamic_array",
        "label": "int16[]",
        "numberOfBytes": "32"
      },
      "t_array(t_uint256)dyn_storage": {
        "base": "t_uint256",
        "encoding": "dynamic_array",
        "label": "uint256[]",
        "numberOfBytes": "32"
      },
      "t_bytes32": {
        "encoding": "inplace",
        "label": "bytes32",
        "numberOfBytes": "32"
      },
      "t_contract(IAutomateLP)11382": {
        "encoding": "inplace",
        "label": "contract IAutomateLP",
        "numberOfBytes": "20"
      },
      "t_contract(IChromaticMarket)109": {
        "encoding": "inplace",
        "label": "contract IChromaticMarket",
        "numberOfBytes": "20"
      },
      "t_enum(ChromaticLPAction)12024": {
        "encoding": "inplace",
        "label": "enum ChromaticLPAction",
        "numberOfBytes": "1"
      },
      "t_int16": {
        "encoding": "inplace",
        "label": "int16",
        "numberOfBytes": "2"
      },
      "t_mapping(t_address,t_mapping(t_address,t_uint256))": {
        "encoding": "mapping",
        "key": "t_address",
        "label": "mapping(address => mapping(address => uint256))",
        "numberOfBytes": "32",
        "value": "t_mapping(t_address,t_uint256)"
      },
      "t_mapping(t_address,t_struct(UintSet)8173_storage)": {
        "encoding": "mapping",
        "key": "t_address",
        "label": "mapping(address => struct EnumerableSet.UintSet)",
        "numberOfBytes": "32",
        "value": "t_struct(UintSet)8173_storage"
      },
      "t_mapping(t_address,t_uint256)": {
        "encoding": "mapping",
        "key": "t_address",
        "label": "mapping(address => uint256)",
        "numberOfBytes": "32",
        "value": "t_uint256"
      },
      "t_mapping(t_bytes32,t_uint256)": {
        "encoding": "mapping",
        "key": "t_bytes32",
        "label": "mapping(bytes32 => uint256)",
        "numberOfBytes": "32",
        "value": "t_uint256"
      },
      "t_mapping(t_int16,t_uint16)": {
        "encoding": "mapping",
        "key": "t_int16",
        "label": "mapping(int16 => uint16)",
        "numberOfBytes": "32",
        "value": "t_uint16"
      },
      "t_mapping(t_int16,t_uint256)": {
        "encoding": "mapping",
        "key": "t_int16",
        "label": "mapping(int16 => uint256)",
        "numberOfBytes": "32",
        "value": "t_uint256"
      },
      "t_mapping(t_uint256,t_contract(IAutomateLP)11382)": {
        "encoding": "mapping",
        "key": "t_uint256",
        "label": "mapping(uint256 => contract IAutomateLP)",
        "numberOfBytes": "32",
        "value": "t_contract(IAutomateLP)11382"
      },
      "t_mapping(t_uint256,t_struct(ChromaticLPReceipt)12040_storage)": {
        "encoding": "mapping",
        "key": "t_uint256",
        "label": "mapping(uint256 => struct ChromaticLPReceipt)",
        "numberOfBytes": "32",
        "value": "t_struct(ChromaticLPReceipt)12040_storage"
      },
      "t_mapping(t_uint256,t_struct(UintSet)8173_storage)": {
        "encoding": "mapping",
        "key": "t_uint256",
        "label": "mapping(uint256 => struct EnumerableSet.UintSet)",
        "numberOfBytes": "32",
        "value": "t_struct(UintSet)8173_storage"
      },
      "t_string_storage": {
        "encoding": "bytes",
        "label": "string",
        "numberOfBytes": "32"
      },
      "t_struct(ChromaticLPReceipt)12040_storage": {
        "encoding": "inplace",
        "label": "struct ChromaticLPReceipt",
        "members": [
          {
            "astId": 12026,
            "contract": "contracts/lp/ChromaticLP.sol:ChromaticLP",
            "label": "id",
            "offset": 0,
            "slot": "0",
            "type": "t_uint256"
          },
          {
            "astId": 12028,
            "contract": "contracts/lp/ChromaticLP.sol:ChromaticLP",
            "label": "provider",
            "offset": 0,
            "slot": "1",
            "type": "t_address"
          },
          {
            "astId": 12030,
            "contract": "contracts/lp/ChromaticLP.sol:ChromaticLP",
            "label": "recipient",
            "offset": 0,
            "slot": "2",
            "type": "t_address"
          },
          {
            "astId": 12032,
            "contract": "contracts/lp/ChromaticLP.sol:ChromaticLP",
            "label": "oracleVersion",
            "offset": 0,
            "slot": "3",
            "type": "t_uint256"
          },
          {
            "astId": 12034,
            "contract": "contracts/lp/ChromaticLP.sol:ChromaticLP",
            "label": "amount",
            "offset": 0,
            "slot": "4",
            "type": "t_uint256"
          },
          {
            "astId": 12036,
            "contract": "contracts/lp/ChromaticLP.sol:ChromaticLP",
            "label": "pendingLiquidity",
            "offset": 0,
            "slot": "5",
            "type": "t_uint256"
          },
          {
            "astId": 12039,
            "contract": "contracts/lp/ChromaticLP.sol:ChromaticLP",
            "label": "action",
            "offset": 0,
            "slot": "6",
            "type": "t_enum(ChromaticLPAction)12024"
          }
        ],
        "numberOfBytes": "224"
      },
      "t_struct(LPConfig)12067_storage": {
        "encoding": "inplace",
        "label": "struct LPConfig",
        "members": [
          {
            "astId": 12058,
            "contract": "contracts/lp/ChromaticLP.sol:ChromaticLP",
            "label": "utilizationTargetBPS",
            "offset": 0,
            "slot": "0",
            "type": "t_uint16"
          },
          {
            "astId": 12060,
            "contract": "contracts/lp/ChromaticLP.sol:ChromaticLP",
            "label": "rebalanceBPS",
            "offset": 2,
            "slot": "0",
            "type": "t_uint16"
          },
          {
            "astId": 12062,
            "contract": "contracts/lp/ChromaticLP.sol:ChromaticLP",
            "label": "rebalanceCheckingInterval",
            "offset": 0,
            "slot": "1",
            "type": "t_uint256"
          },
          {
            "astId": 12064,
            "contract": "contracts/lp/ChromaticLP.sol:ChromaticLP",
            "label": "automationFeeReserved",
            "offset": 0,
            "slot": "2",
            "type": "t_uint256"
          },
          {
            "astId": 12066,
            "contract": "contracts/lp/ChromaticLP.sol:ChromaticLP",
            "label": "minHoldingValueToRebalance",
            "offset": 0,
            "slot": "3",
            "type": "t_uint256"
          }
        ],
        "numberOfBytes": "128"
      },
      "t_struct(LPMeta)11279_storage": {
        "encoding": "inplace",
        "label": "struct ChromaticLPStorageCore.LPMeta",
        "members": [
          {
            "astId": 11276,
            "contract": "contracts/lp/ChromaticLP.sol:ChromaticLP",
            "label": "lpName",
            "offset": 0,
            "slot": "0",
            "type": "t_string_storage"
          },
          {
            "astId": 11278,
            "contract": "contracts/lp/ChromaticLP.sol:ChromaticLP",
            "label": "tag",
            "offset": 0,
            "slot": "1",
            "type": "t_string_storage"
          }
        ],
        "numberOfBytes": "64"
      },
      "t_struct(LPState)12167_storage": {
        "encoding": "inplace",
        "label": "struct LPState",
        "members": [
          {
            "astId": 12131,
            "contract": "contracts/lp/ChromaticLP.sol:ChromaticLP",
            "label": "market",
            "offset": 0,
            "slot": "0",
            "type": "t_contract(IChromaticMarket)109"
          },
          {
            "astId": 12134,
            "contract": "contracts/lp/ChromaticLP.sol:ChromaticLP",
            "label": "feeRates",
            "offset": 0,
            "slot": "1",
            "type": "t_array(t_int16)dyn_storage"
          },
          {
            "astId": 12138,
            "contract": "contracts/lp/ChromaticLP.sol:ChromaticLP",
            "label": "distributionRates",
            "offset": 0,
            "slot": "2",
            "type": "t_mapping(t_int16,t_uint16)"
          },
          {
            "astId": 12140,
            "contract": "contracts/lp/ChromaticLP.sol:ChromaticLP",
            "label": "totalRate",
            "offset": 0,
            "slot": "3",
            "type": "t_uint256"
          },
          {
            "astId": 12143,
            "contract": "contracts/lp/ChromaticLP.sol:ChromaticLP",
            "label": "clbTokenIds",
            "offset": 0,
            "slot": "4",
            "type": "t_array(t_uint256)dyn_storage"
          },
          {
            "astId": 12148,
            "contract": "contracts/lp/ChromaticLP.sol:ChromaticLP",
            "label": "receipts",
            "offset": 0,
            "slot": "5",
            "type": "t_mapping(t_uint256,t_struct(ChromaticLPReceipt)12040_storage)"
          },
          {
            "astId": 12153,
            "contract": "contracts/lp/ChromaticLP.sol:ChromaticLP",
            "label": "lpReceiptMap",
            "offset": 0,
            "slot": "6",
            "type": "t_mapping(t_uint256,t_struct(UintSet)8173_storage)"
          },
          {
            "astId": 12158,
            "contract": "contracts/lp/ChromaticLP.sol:ChromaticLP",
            "label": "providerReceiptIds",
            "offset": 0,
            "slot": "7",
            "type": "t_mapping(t_address,t_struct(UintSet)8173_storage)"
          },
          {
            "astId": 12160,
            "contract": "contracts/lp/ChromaticLP.sol:ChromaticLP",
            "label": "pendingAddAmount",
            "offset": 0,
            "slot": "8",
            "type": "t_uint256"
          },
          {
            "astId": 12164,
            "contract": "contracts/lp/ChromaticLP.sol:ChromaticLP",
            "label": "pendingRemoveClbAmounts",
            "offset": 0,
            "slot": "9",
            "type": "t_mapping(t_int16,t_uint256)"
          },
          {
            "astId": 12166,
            "contract": "contracts/lp/ChromaticLP.sol:ChromaticLP",
            "label": "receiptId",
            "offset": 0,
            "slot": "10",
            "type": "t_uint256"
          }
        ],
        "numberOfBytes": "352"
      },
      "t_struct(Set)7701_storage": {
        "encoding": "inplace",
        "label": "struct EnumerableSet.Set",
        "members": [
          {
            "astId": 7696,
            "contract": "contracts/lp/ChromaticLP.sol:ChromaticLP",
            "label": "_values",
            "offset": 0,
            "slot": "0",
            "type": "t_array(t_bytes32)dyn_storage"
          },
          {
            "astId": 7700,
            "contract": "contracts/lp/ChromaticLP.sol:ChromaticLP",
            "label": "_indexes",
            "offset": 0,
            "slot": "1",
            "type": "t_mapping(t_bytes32,t_uint256)"
          }
        ],
        "numberOfBytes": "64"
      },
      "t_struct(UintSet)8173_storage": {
        "encoding": "inplace",
        "label": "struct EnumerableSet.UintSet",
        "members": [
          {
            "astId": 8172,
            "contract": "contracts/lp/ChromaticLP.sol:ChromaticLP",
            "label": "_inner",
            "offset": 0,
            "slot": "0",
            "type": "t_struct(Set)7701_storage"
          }
        ],
        "numberOfBytes": "64"
      },
      "t_uint16": {
        "encoding": "inplace",
        "label": "uint16",
        "numberOfBytes": "2"
      },
      "t_uint256": {
        "encoding": "inplace",
        "label": "uint256",
        "numberOfBytes": "32"
      }
    }
  }
}