{
  "address": "0x5BeC0154cD16731EA881E7bD1A0D62F41E64a458",
  "abi": [
    {
      "inputs": [
        {
          "internalType": "contract IMate2AutomationRegistry1_1",
          "name": "_automate",
          "type": "address"
        }
      ],
      "stateMutability": "nonpayable",
      "type": "constructor"
    },
    {
      "inputs": [],
      "name": "AlreadyBoostTaskExist",
      "type": "error"
    },
    {
      "inputs": [],
      "name": "NotAutomationCalled",
      "type": "error"
    },
    {
      "inputs": [],
      "name": "OnlyAccessableByOwner",
      "type": "error"
    },
    {
      "inputs": [],
      "name": "TaskNotExist",
      "type": "error"
    },
    {
      "anonymous": false,
      "inputs": [
        {
          "indexed": false,
          "internalType": "address",
          "name": "bp",
          "type": "address"
        },
        {
          "indexed": false,
          "internalType": "uint256",
          "name": "taskId",
          "type": "uint256"
        }
      ],
      "name": "CancelBoostTaskFailed",
      "type": "event"
    },
    {
      "anonymous": false,
      "inputs": [
        {
          "indexed": false,
          "internalType": "address",
          "name": "bp",
          "type": "address"
        },
        {
          "indexed": false,
          "internalType": "uint256",
          "name": "taskId",
          "type": "uint256"
        }
      ],
      "name": "CancelBoostTaskSucceeded",
      "type": "event"
    },
    {
      "anonymous": false,
      "inputs": [
        {
          "indexed": true,
          "internalType": "address",
          "name": "previousOwner",
          "type": "address"
        },
        {
          "indexed": true,
          "internalType": "address",
          "name": "newOwner",
          "type": "address"
        }
      ],
      "name": "OwnershipTransferStarted",
      "type": "event"
    },
    {
      "anonymous": false,
      "inputs": [
        {
          "indexed": true,
          "internalType": "address",
          "name": "previousOwner",
          "type": "address"
        },
        {
          "indexed": true,
          "internalType": "address",
          "name": "newOwner",
          "type": "address"
        }
      ],
      "name": "OwnershipTransferred",
      "type": "event"
    },
    {
      "anonymous": false,
      "inputs": [
        {
          "indexed": false,
          "internalType": "uint32",
          "name": "gasLimitOld",
          "type": "uint32"
        },
        {
          "indexed": false,
          "internalType": "uint32",
          "name": "gasLimitNew",
          "type": "uint32"
        }
      ],
      "name": "UpkeepGasLimitUpdated",
      "type": "event"
    },
    {
      "anonymous": false,
      "inputs": [
        {
          "indexed": false,
          "internalType": "string",
          "name": "_name",
          "type": "string"
        },
        {
          "indexed": false,
          "internalType": "string",
          "name": "_err",
          "type": "string"
        }
      ],
      "name": "catchErr",
      "type": "event"
    },
    {
      "inputs": [],
      "name": "DEFAULT_UPKEEP_GAS_LIMIT",
      "outputs": [
        {
          "internalType": "uint32",
          "name": "",
          "type": "uint32"
        }
      ],
      "stateMutability": "view",
      "type": "function"
    },
    {
      "inputs": [],
      "name": "acceptOwnership",
      "outputs": [],
      "stateMutability": "nonpayable",
      "type": "function"
    },
    {
      "inputs": [],
      "name": "automate",
      "outputs": [
        {
          "internalType": "contract IMate2AutomationRegistry1_1",
          "name": "",
          "type": "address"
        }
      ],
      "stateMutability": "view",
      "type": "function"
    },
    {
      "inputs": [
        {
          "internalType": "address",
          "name": "bp",
          "type": "address"
        }
      ],
      "name": "boost",
      "outputs": [],
      "stateMutability": "nonpayable",
      "type": "function"
    },
    {
      "inputs": [
        {
          "internalType": "contract IChromaticBP",
          "name": "bp",
          "type": "address"
        }
      ],
      "name": "cancelBoostTask",
      "outputs": [],
      "stateMutability": "nonpayable",
      "type": "function"
    },
    {
      "inputs": [
        {
          "internalType": "uint256",
          "name": "upkeepId",
          "type": "uint256"
        }
      ],
      "name": "cancelUpkeep",
      "outputs": [],
      "stateMutability": "nonpayable",
      "type": "function"
    },
    {
      "inputs": [
        {
          "internalType": "bytes",
          "name": "checkData",
          "type": "bytes"
        },
        {
          "internalType": "bytes",
          "name": "",
          "type": "bytes"
        }
      ],
      "name": "checkUpkeep",
      "outputs": [
        {
          "internalType": "bool",
          "name": "upkeepNeeded",
          "type": "bool"
        },
        {
          "internalType": "bytes",
          "name": "performData",
          "type": "bytes"
        }
      ],
      "stateMutability": "view",
      "type": "function"
    },
    {
      "inputs": [],
      "name": "createBoostTask",
      "outputs": [],
      "stateMutability": "nonpayable",
      "type": "function"
    },
    {
      "inputs": [
        {
          "internalType": "contract IChromaticBP",
          "name": "bp",
          "type": "address"
        }
      ],
      "name": "getBoostTaskId",
      "outputs": [
        {
          "internalType": "uint256",
          "name": "",
          "type": "uint256"
        }
      ],
      "stateMutability": "view",
      "type": "function"
    },
    {
      "inputs": [],
      "name": "owner",
      "outputs": [
        {
          "internalType": "address",
          "name": "",
          "type": "address"
        }
      ],
      "stateMutability": "view",
      "type": "function"
    },
    {
      "inputs": [],
      "name": "pendingOwner",
      "outputs": [
        {
          "internalType": "address",
          "name": "",
          "type": "address"
        }
      ],
      "stateMutability": "view",
      "type": "function"
    },
    {
      "inputs": [
        {
          "internalType": "bytes",
          "name": "performData",
          "type": "bytes"
        }
      ],
      "name": "performUpkeep",
      "outputs": [],
      "stateMutability": "nonpayable",
      "type": "function"
    },
    {
      "inputs": [],
      "name": "renounceOwnership",
      "outputs": [],
      "stateMutability": "nonpayable",
      "type": "function"
    },
    {
      "inputs": [
        {
          "internalType": "address",
          "name": "bp",
          "type": "address"
        }
      ],
      "name": "resolveBoost",
      "outputs": [
        {
          "internalType": "bool",
          "name": "upkeepNeeded",
          "type": "bool"
        },
        {
          "internalType": "bytes",
          "name": "performData",
          "type": "bytes"
        }
      ],
      "stateMutability": "view",
      "type": "function"
    },
    {
      "inputs": [
        {
          "internalType": "address",
          "name": "newOwner",
          "type": "address"
        }
      ],
      "name": "transferOwnership",
      "outputs": [],
      "stateMutability": "nonpayable",
      "type": "function"
    },
    {
      "inputs": [
        {
          "internalType": "uint32",
          "name": "gasLimit",
          "type": "uint32"
        }
      ],
      "name": "updateUpkeepGasLimit",
      "outputs": [],
      "stateMutability": "nonpayable",
      "type": "function"
    },
    {
      "inputs": [],
      "name": "upkeepGasLimit",
      "outputs": [
        {
          "internalType": "uint32",
          "name": "",
          "type": "uint32"
        }
      ],
      "stateMutability": "view",
      "type": "function"
    }
  ],
  "transactionHash": "0x27fdcf5cc6da408dd3d43d6117b0af8942e3471fe9c38dd53bdedbb9fcd21d7f",
  "args": [
    "0x2959Cac7c8fB17Af213f6aA9ea50C3779FcEbbEa"
  ],
  "numDeployments": 1,
  "solcInputHash": "699eb6621be26f8afc9292787e088064",
  "bytecode": "0x60a060405234801561001057600080fd5b5060405161124438038061124483398101604081905261002f916100cf565b600160005561003d33610061565b6001600160a01b03166080526004805463ffffffff19166302faf0801790556100ff565b600280546001600160a01b031916905561007a8161007d565b50565b600180546001600160a01b038381166001600160a01b0319831681179093556040519116919082907f8be0079c531659141344cd1fd0a4f28419497f9722a3daafe3b4186f6b6457e090600090a35050565b6000602082840312156100e157600080fd5b81516001600160a01b03811681146100f857600080fd5b9392505050565b60805161110761013d60003960008181610125015281816105d2015281816108f301528181610adf01528181610c3b0152610ccb01526111076000f3fe608060405234801561001057600080fd5b506004361061011b5760003560e01c806382ca3ecb116100b2578063b00ea08911610081578063c804802211610066578063c80480221461029d578063e30c3978146102b0578063f2fde38b146102ce57600080fd5b8063b00ea08914610246578063b7c6ad2f1461028a57600080fd5b806382ca3ecb146101f2578063852b5128146102055780638da5cb5b14610218578063a9ea1f801461023657600080fd5b80634585e33b116100ee5780634585e33b146101ae57806365756271146101c1578063715018a6146101e257806379ba5097146101ea57600080fd5b8063049aacfe1461012057806316d0d82f146101715780632d0534c71461018657806335e5258f146101a6575b600080fd5b6101477f000000000000000000000000000000000000000000000000000000000000000081565b60405173ffffffffffffffffffffffffffffffffffffffff90911681526020015b60405180910390f35b61018461017f366004610d67565b6102e1565b005b6101916302faf08081565b60405163ffffffff9091168152602001610168565b610184610360565b6101846101bc366004610ddd565b6103f5565b6101d46101cf366004610e1f565b610433565b604051610168929190610eef565b61018461047d565b61018461048f565b610184610200366004610f2c565b610549565b6101d4610213366004610f2c565b61070a565b60015473ffffffffffffffffffffffffffffffffffffffff16610147565b6004546101919063ffffffff1681565b61027c610254366004610f2c565b73ffffffffffffffffffffffffffffffffffffffff1660009081526003602052604090205490565b604051908152602001610168565b610184610298366004610f2c565b6107c8565b6101846102ab366004610f49565b6108bc565b60025473ffffffffffffffffffffffffffffffffffffffff16610147565b6101846102dc366004610f2c565b610967565b6102e9610a17565b6004805463ffffffff8381167fffffffffffffffffffffffffffffffffffffffffffffffffffffffff0000000083168117909355604080519190921680825260208201939093527fa3712acf4c1617a1da00c315e0718fcedb43a2940ec2d43d66f3b8121282ffbd91015b60405180910390a15050565b610368610a68565b3360008181526003602052604090205480156103b0576040517f1c73303800000000000000000000000000000000000000000000000000000000815260040160405180910390fd5b6103bd6000836000610adb565b73ffffffffffffffffffffffffffffffffffffffff83166000908152600360205260409020819055905050506103f36001600055565b565b60008061040483850185610f62565b9092509050600082801561041a5761041a610f9f565b1461042457600080fd5b61042d816107c8565b50505050565b60006060818061044587890189610f62565b9092509050600082801561045b5761045b610f9f565b1461046557600080fd5b61046e8161070a565b93509350505094509492505050565b610485610a17565b6103f36000610c05565b600254339073ffffffffffffffffffffffffffffffffffffffff16811461053d576040517f08c379a000000000000000000000000000000000000000000000000000000000815260206004820152602960248201527f4f776e61626c6532537465703a2063616c6c6572206973206e6f74207468652060448201527f6e6577206f776e6572000000000000000000000000000000000000000000000060648201526084015b60405180910390fd5b61054681610c05565b50565b610551610a17565b73ffffffffffffffffffffffffffffffffffffffff811660009081526003602052604090205480156106d85773ffffffffffffffffffffffffffffffffffffffff82166000908152600360205260408120556040517fc8048022000000000000000000000000000000000000000000000000000000008152600481018290527f000000000000000000000000000000000000000000000000000000000000000073ffffffffffffffffffffffffffffffffffffffff169063c804802290602401600060405180830381600087803b15801561062b57600080fd5b505af192505050801561063c575060015b61068c576040805173ffffffffffffffffffffffffffffffffffffffff84168152602081018390527f568f3cd0be30fd03587fe5b1a5f6c1e682fa780a8f0fbefec3aee2e5258f9ca59101610354565b6040805173ffffffffffffffffffffffffffffffffffffffff84168152602081018390527f6c761d4bea999b5f351b75780c475dfe35278dcdd6e574bcaf57b9da2703b61a9101610354565b6040517f82b46d3100000000000000000000000000000000000000000000000000000000815260040160405180910390fd5b600060608273ffffffffffffffffffffffffffffffffffffffff1663fb9d0a6d6040518163ffffffff1660e01b8152600401602060405180830381865afa158015610759573d6000803e3d6000fd5b505050506040513d601f19601f8201168201806040525081019061077d9190610fce565b156107b0576001600084604051602001610798929190610ff0565b60405160208183030381529060405291509150915091565b50506040805160208101909152600080825292909150565b6000806107d3610c36565b915091506108038373ffffffffffffffffffffffffffffffffffffffff1660009081526003602052604090205490565b156108b75773ffffffffffffffffffffffffffffffffffffffff83166000908152600360205260408120556040517fe4c2cb8300000000000000000000000000000000000000000000000000000000815273ffffffffffffffffffffffffffffffffffffffff82811660048301526024820184905284169063e4c2cb8390604401600060405180830381600087803b15801561089e57600080fd5b505af11580156108b2573d6000803e3d6000fd5b505050505b505050565b6108c4610a17565b6040517fc8048022000000000000000000000000000000000000000000000000000000008152600481018290527f000000000000000000000000000000000000000000000000000000000000000073ffffffffffffffffffffffffffffffffffffffff169063c804802290602401600060405180830381600087803b15801561094c57600080fd5b505af1158015610960573d6000803e3d6000fd5b5050505050565b61096f610a17565b6002805473ffffffffffffffffffffffffffffffffffffffff83167fffffffffffffffffffffffff000000000000000000000000000000000000000090911681179091556109d260015473ffffffffffffffffffffffffffffffffffffffff1690565b73ffffffffffffffffffffffffffffffffffffffff167f38d16b8cac22d99fc7c124b9cd0de2d3fa1faef420bfe791d8c362d765e2270060405160405180910390a350565b60015473ffffffffffffffffffffffffffffffffffffffff1633146103f3576040517f9298645b00000000000000000000000000000000000000000000000000000000815260040160405180910390fd5b600260005403610ad4576040517f08c379a000000000000000000000000000000000000000000000000000000000815260206004820152601f60248201527f5265656e7472616e637947756172643a207265656e7472616e742063616c6c006044820152606401610534565b6002600055565b60007f000000000000000000000000000000000000000000000000000000000000000073ffffffffffffffffffffffffffffffffffffffff16639e571d3830600460009054906101000a900463ffffffff16306000878a8a604051602001610b44929190610ff0565b604080517fffffffffffffffffffffffffffffffffffffffffffffffffffffffffffffffe0818403018152602083018252600080845291517fffffffff0000000000000000000000000000000000000000000000000000000060e08b901b168152610bba98979695949391929190600401611029565b6020604051808303816000875af1158015610bd9573d6000803e3d6000fd5b505050506040513d601f19601f82011682018060405250810190610bfd91906110b8565b949350505050565b600280547fffffffffffffffffffffffff000000000000000000000000000000000000000016905561054681610cf0565b6000807f000000000000000000000000000000000000000000000000000000000000000073ffffffffffffffffffffffffffffffffffffffff1663d11d397a6040518163ffffffff1660e01b8152600401602060405180830381865afa158015610ca4573d6000803e3d6000fd5b505050506040513d601f19601f82011682018060405250810190610cc891906110b8565b927f000000000000000000000000000000000000000000000000000000000000000092509050565b6001805473ffffffffffffffffffffffffffffffffffffffff8381167fffffffffffffffffffffffff0000000000000000000000000000000000000000831681179093556040519116919082907f8be0079c531659141344cd1fd0a4f28419497f9722a3daafe3b4186f6b6457e090600090a35050565b600060208284031215610d7957600080fd5b813563ffffffff81168114610d8d57600080fd5b9392505050565b60008083601f840112610da657600080fd5b50813567ffffffffffffffff811115610dbe57600080fd5b602083019150836020828501011115610dd657600080fd5b9250929050565b60008060208385031215610df057600080fd5b823567ffffffffffffffff811115610e0757600080fd5b610e1385828601610d94565b90969095509350505050565b60008060008060408587031215610e3557600080fd5b843567ffffffffffffffff80821115610e4d57600080fd5b610e5988838901610d94565b90965094506020870135915080821115610e7257600080fd5b50610e7f87828801610d94565b95989497509550505050565b6000815180845260005b81811015610eb157602081850181015186830182015201610e95565b5060006020828601015260207fffffffffffffffffffffffffffffffffffffffffffffffffffffffffffffffe0601f83011685010191505092915050565b8215158152604060208201526000610bfd6040830184610e8b565b73ffffffffffffffffffffffffffffffffffffffff8116811461054657600080fd5b600060208284031215610f3e57600080fd5b8135610d8d81610f0a565b600060208284031215610f5b57600080fd5b5035919050565b60008060408385031215610f7557600080fd5b823560018110610f8457600080fd5b91506020830135610f9481610f0a565b809150509250929050565b7f4e487b7100000000000000000000000000000000000000000000000000000000600052602160045260246000fd5b600060208284031215610fe057600080fd5b81518015158114610d8d57600080fd5b604081016001841061100457611004610f9f565b92815273ffffffffffffffffffffffffffffffffffffffff9190911660209091015290565b600061010073ffffffffffffffffffffffffffffffffffffffff808c16845263ffffffff8b166020850152808a16604085015250871515606084015286151560808401528060a084015261107f81840187610e8b565b90506003851061109157611091610f9f565b8460c084015282810360e08401526110a98185610e8b565b9b9a5050505050505050505050565b6000602082840312156110ca57600080fd5b505191905056fea264697066735822122019f3b40332bbe15493f735a92afccb784ffa1230101e98c4921fdeabd5b1d54764736f6c63430008130033",
  "devdoc": {
    "errors": {
      "AlreadyBoostTaskExist()": [
        {
          "details": "Emitted when attempting to create a boost task while one already exists."
        }
      ],
      "NotAutomationCalled()": [
        {
          "details": "Emitted when a function is called by an unauthorized address."
        }
      ],
      "OnlyAccessableByOwner()": [
        {
          "details": "Signifies that the function is only accessible by the owner."
        }
      ],
      "TaskNotExist()": [
        {
          "details": "Emitted when attempting to cancel a boost task not existing."
        }
      ]
    },
    "events": {
      "CancelBoostTaskFailed(address,uint256)": {
        "details": "Emitted when a boost task cancellation is successful.",
        "params": {
          "bp": "The address of the boosting pool.",
          "taskId": "The unique identifier of the cancelled rebalance task."
        }
      },
      "CancelBoostTaskSucceeded(address,uint256)": {
        "details": "Emitted when a boost task cancellation is successful.",
        "params": {
          "bp": "The address of the boosting pool.",
          "taskId": "The unique identifier of the cancelled rebalance task."
        }
      }
    },
    "kind": "dev",
    "methods": {
      "acceptOwnership()": {
        "details": "The new owner accepts the ownership transfer."
      },
      "boost(address)": {
        "details": "Executes the boost task for the specified BP.",
        "params": {
          "bp": "The address of the Chromatic BP."
        }
      },
      "cancelBoostTask(address)": {
        "details": "Cancels the existing boost task for the specified BP."
      },
      "cancelUpkeep(uint256)": {
        "details": "Cancels the existing task for a specific    .",
        "params": {
          "upkeepId": "The unique identifier of the task."
        }
      },
      "createBoostTask()": {
        "details": "Initiates the creation of a boost task for the specified BP (msg.sender)."
      },
      "getBoostTaskId(address)": {
        "details": "Gets the task ID of the existing boost task for the specified BP.",
        "params": {
          "bp": "The address of the Chromatic BP."
        },
        "returns": {
          "_0": "The task ID of the boost task."
        }
      },
      "owner()": {
        "details": "Returns the address of the current owner."
      },
      "pendingOwner()": {
        "details": "Returns the address of the pending owner."
      },
      "performUpkeep(bytes)": {
        "details": "The input to this method should not be trusted, and the caller of the method should not even be restricted to any single registry. Anyone should be able call it, and the input should be validated, there is no guarantee that the data passed in is the performData returned from checkUpkeep. This could happen due to malicious keepers, racing keepers, or simply a state change while the performUpkeep transaction is waiting for confirmation. Always validate the data passed in.",
        "params": {
          "performData": "is the data which was passed back from the checkData simulation. If it is encoded, it can easily be decoded into other types by calling `abi.decode`. This data should not be trusted, and should be validated against the contract's current state."
        }
      },
      "renounceOwnership()": {
        "details": "Leaves the contract without owner. It will not be possible to call `onlyOwner` functions. Can only be called by the current owner. NOTE: Renouncing ownership will leave the contract without an owner, thereby disabling any functionality that is only available to the owner."
      },
      "resolveBoost(address)": {
        "details": "Checks whether a boost task is needed for the specified BP.",
        "params": {
          "bp": "The address of the Chromatic BP."
        },
        "returns": {
          "performData": "Additional data required for performing the task.",
          "upkeepNeeded": "Indicates whether upkeep is needed."
        }
      },
      "transferOwnership(address)": {
        "details": "Starts the ownership transfer of the contract to a new account. Replaces the pending transfer if there is one. Can only be called by the current owner."
      }
    },
    "version": 1
  },
  "userdoc": {
    "kind": "user",
    "methods": {
      "performUpkeep(bytes)": {
        "notice": "method that is actually executed by the keepers, via the registry. The data returned by the checkUpkeep simulation will be passed into this method to actually be executed."
      }
    },
    "version": 1
  },
  "storageLayout": {
    "storage": [
      {
        "astId": 6326,
        "contract": "contracts/automation/mate2/AutomateBP.sol:AutomateBP",
        "label": "_status",
        "offset": 0,
        "slot": "0",
        "type": "t_uint256"
      },
      {
        "astId": 6060,
        "contract": "contracts/automation/mate2/AutomateBP.sol:AutomateBP",
        "label": "_owner",
        "offset": 0,
        "slot": "1",
        "type": "t_address"
      },
      {
        "astId": 6173,
        "contract": "contracts/automation/mate2/AutomateBP.sol:AutomateBP",
        "label": "_pendingOwner",
        "offset": 0,
        "slot": "2",
        "type": "t_address"
      },
      {
        "astId": 12637,
        "contract": "contracts/automation/mate2/AutomateBP.sol:AutomateBP",
        "label": "_boostTasks",
        "offset": 0,
        "slot": "3",
        "type": "t_mapping(t_contract(IChromaticBP)15356,t_uint256)"
      },
      {
        "astId": 12642,
        "contract": "contracts/automation/mate2/AutomateBP.sol:AutomateBP",
        "label": "upkeepGasLimit",
        "offset": 0,
        "slot": "4",
        "type": "t_uint32"
      }
    ],
    "types": {
      "t_address": {
        "encoding": "inplace",
        "label": "address",
        "numberOfBytes": "20"
      },
      "t_contract(IChromaticBP)15356": {
        "encoding": "inplace",
        "label": "contract IChromaticBP",
        "numberOfBytes": "20"
      },
      "t_mapping(t_contract(IChromaticBP)15356,t_uint256)": {
        "encoding": "mapping",
        "key": "t_contract(IChromaticBP)15356",
        "label": "mapping(contract IChromaticBP => uint256)",
        "numberOfBytes": "32",
        "value": "t_uint256"
      },
      "t_uint256": {
        "encoding": "inplace",
        "label": "uint256",
        "numberOfBytes": "32"
      },
      "t_uint32": {
        "encoding": "inplace",
        "label": "uint32",
        "numberOfBytes": "4"
      }
    }
  }
}