{
  "address": "0xc337325525eF17B7852Fd36DA400d3F9eEd51A4a",
  "abi": [
    {
      "inputs": [
        {
          "internalType": "contract IChromaticMarketFactory",
          "name": "_factory",
          "type": "address"
        }
      ],
      "stateMutability": "nonpayable",
      "type": "constructor"
    },
    {
      "inputs": [],
      "name": "AlreadyRegistered",
      "type": "error"
    },
    {
      "inputs": [],
      "name": "NotRegistered",
      "type": "error"
    },
    {
      "inputs": [],
      "name": "OnlyAccessableByDao",
      "type": "error"
    },
    {
      "anonymous": false,
      "inputs": [
        {
          "indexed": true,
          "internalType": "address",
          "name": "market",
          "type": "address"
        },
        {
          "indexed": true,
          "internalType": "address",
          "name": "lp",
          "type": "address"
        }
      ],
      "name": "ChromaticLPRegistered",
      "type": "event"
    },
    {
      "anonymous": false,
      "inputs": [
        {
          "indexed": true,
          "internalType": "address",
          "name": "market",
          "type": "address"
        },
        {
          "indexed": true,
          "internalType": "address",
          "name": "lp",
          "type": "address"
        }
      ],
      "name": "ChromaticLPUnregistered",
      "type": "event"
    },
    {
      "inputs": [],
      "name": "factory",
      "outputs": [
        {
          "internalType": "contract IChromaticMarketFactory",
          "name": "",
          "type": "address"
        }
      ],
      "stateMutability": "view",
      "type": "function"
    },
    {
      "inputs": [],
      "name": "lpList",
      "outputs": [
        {
          "internalType": "address[]",
          "name": "lpAddresses",
          "type": "address[]"
        }
      ],
      "stateMutability": "view",
      "type": "function"
    },
    {
      "inputs": [
        {
          "internalType": "address",
          "name": "market",
          "type": "address"
        }
      ],
      "name": "lpListByMarket",
      "outputs": [
        {
          "internalType": "address[]",
          "name": "",
          "type": "address[]"
        }
      ],
      "stateMutability": "view",
      "type": "function"
    },
    {
      "inputs": [
        {
          "internalType": "address",
          "name": "token",
          "type": "address"
        }
      ],
      "name": "lpListBySettlementToken",
      "outputs": [
        {
          "internalType": "address[]",
          "name": "",
          "type": "address[]"
        }
      ],
      "stateMutability": "view",
      "type": "function"
    },
    {
      "inputs": [
        {
          "internalType": "contract IChromaticLP",
          "name": "lp",
          "type": "address"
        }
      ],
      "name": "register",
      "outputs": [],
      "stateMutability": "nonpayable",
      "type": "function"
    },
    {
      "inputs": [
        {
          "internalType": "contract IChromaticLP",
          "name": "lp",
          "type": "address"
        }
      ],
      "name": "unregister",
      "outputs": [],
      "stateMutability": "nonpayable",
      "type": "function"
    }
  ],
  "transactionHash": "0x02e0f7d6dca8463fe3e93417ba5ee781dd05134bad62a64a4d5e194c4775c8d2",
  "args": [
    "0x0b216AB26E20d6caA770B18596A3D53B683638B4"
  ],
  "numDeployments": 1,
  "solcInputHash": "699eb6621be26f8afc9292787e088064",
  "bytecode": "0x60a060405234801561001057600080fd5b50604051610ba1380380610ba183398101604081905261002f91610040565b6001600160a01b0316608052610070565b60006020828403121561005257600080fd5b81516001600160a01b038116811461006957600080fd5b9392505050565b608051610b096100986000396000818160d50152818161013101526104230152610b096000f3fe608060405234801561001057600080fd5b50600436106100725760003560e01c8063a82e2a9c11610050578063a82e2a9c146100c8578063c45a0155146100d0578063f67188701461011c57600080fd5b80632ec2c246146100775780634420e4861461008c5780637fc73df11461009f575b600080fd5b61008a6100853660046109a7565b61012f565b005b61008a61009a3660046109a7565b610421565b6100b26100ad3660046109a7565b610713565b6040516100bf91906109c4565b60405180910390f35b6100b261074a565b6100f77f000000000000000000000000000000000000000000000000000000000000000081565b60405173ffffffffffffffffffffffffffffffffffffffff90911681526020016100bf565b6100b261012a3660046109a7565b61075b565b7f000000000000000000000000000000000000000000000000000000000000000073ffffffffffffffffffffffffffffffffffffffff16634162169f6040518163ffffffff1660e01b8152600401602060405180830381865afa15801561019a573d6000803e3d6000fd5b505050506040513d601f19601f820116820180604052508101906101be9190610a1e565b73ffffffffffffffffffffffffffffffffffffffff163373ffffffffffffffffffffffffffffffffffffffff1614610222576040517f808ca14f00000000000000000000000000000000000000000000000000000000815260040160405180910390fd5b60008173ffffffffffffffffffffffffffffffffffffffff166380f556056040518163ffffffff1660e01b8152600401602060405180830381865afa15801561026f573d6000803e3d6000fd5b505050506040513d601f19601f820116820180604052508101906102939190610a1e565b73ffffffffffffffffffffffffffffffffffffffff81166000908152602081905260408120919250906102c6908461078c565b9050808015610373575061037383600160008673ffffffffffffffffffffffffffffffffffffffff16637b9e618d6040518163ffffffff1660e01b8152600401602060405180830381865afa158015610323573d6000803e3d6000fd5b505050506040513d601f19601f820116820180604052508101906103479190610a1e565b73ffffffffffffffffffffffffffffffffffffffff16815260208101919091526040016000209061078c565b9050808015610388575061038860028461078c565b905080156103ef578273ffffffffffffffffffffffffffffffffffffffff168273ffffffffffffffffffffffffffffffffffffffff167f66d239913eaca8ae904608125c5fbd16c6f7c093904e5f0a0b5f5c3540f80b0e60405160405180910390a3505050565b6040517faba4733900000000000000000000000000000000000000000000000000000000815260040160405180910390fd5b7f000000000000000000000000000000000000000000000000000000000000000073ffffffffffffffffffffffffffffffffffffffff16634162169f6040518163ffffffff1660e01b8152600401602060405180830381865afa15801561048c573d6000803e3d6000fd5b505050506040513d601f19601f820116820180604052508101906104b09190610a1e565b73ffffffffffffffffffffffffffffffffffffffff163373ffffffffffffffffffffffffffffffffffffffff1614610514576040517f808ca14f00000000000000000000000000000000000000000000000000000000815260040160405180910390fd5b60008173ffffffffffffffffffffffffffffffffffffffff166380f556056040518163ffffffff1660e01b8152600401602060405180830381865afa158015610561573d6000803e3d6000fd5b505050506040513d601f19601f820116820180604052508101906105859190610a1e565b73ffffffffffffffffffffffffffffffffffffffff81166000908152602081905260408120919250906105b890846107b5565b9050808015610665575061066583600160008673ffffffffffffffffffffffffffffffffffffffff16637b9e618d6040518163ffffffff1660e01b8152600401602060405180830381865afa158015610615573d6000803e3d6000fd5b505050506040513d601f19601f820116820180604052508101906106399190610a1e565b73ffffffffffffffffffffffffffffffffffffffff1681526020810191909152604001600020906107b5565b905080801561067a575061067a6002846107b5565b905080156106e1578273ffffffffffffffffffffffffffffffffffffffff168273ffffffffffffffffffffffffffffffffffffffff167ffcfbf32d91a6881e9070cb68f1a2329fe4896a66b20638faa8da73a7e09af2ad60405160405180910390a3505050565b6040517f3a81d6fc00000000000000000000000000000000000000000000000000000000815260040160405180910390fd5b73ffffffffffffffffffffffffffffffffffffffff81166000908152600160205260409020606090610744906107d7565b92915050565b606061075660026107d7565b905090565b73ffffffffffffffffffffffffffffffffffffffff81166000908152602081905260409020606090610744906107d7565b60006107ae8373ffffffffffffffffffffffffffffffffffffffff84166107e4565b9392505050565b60006107ae8373ffffffffffffffffffffffffffffffffffffffff84166108d7565b606060006107ae83610926565b600081815260018301602052604081205480156108cd576000610808600183610a3b565b855490915060009061081c90600190610a3b565b905081811461088157600086600001828154811061083c5761083c610a75565b906000526020600020015490508087600001848154811061085f5761085f610a75565b6000918252602080832090910192909255918252600188019052604090208390555b855486908061089257610892610aa4565b600190038181906000526020600020016000905590558560010160008681526020019081526020016000206000905560019350505050610744565b6000915050610744565b600081815260018301602052604081205461091e57508154600181810184556000848152602080822090930184905584548482528286019093526040902091909155610744565b506000610744565b60608160000180548060200260200160405190810160405280929190818152602001828054801561097657602002820191906000526020600020905b815481526020019060010190808311610962575b50505050509050919050565b73ffffffffffffffffffffffffffffffffffffffff811681146109a457600080fd5b50565b6000602082840312156109b957600080fd5b81356107ae81610982565b6020808252825182820181905260009190848201906040850190845b81811015610a1257835173ffffffffffffffffffffffffffffffffffffffff16835292840192918401916001016109e0565b50909695505050505050565b600060208284031215610a3057600080fd5b81516107ae81610982565b81810381811115610744577f4e487b7100000000000000000000000000000000000000000000000000000000600052601160045260246000fd5b7f4e487b7100000000000000000000000000000000000000000000000000000000600052603260045260246000fd5b7f4e487b7100000000000000000000000000000000000000000000000000000000600052603160045260246000fdfea2646970667358221220cd9a964ef9c3bef9c69a3f89c8bb5cb433ed7f1e69b888be6cd7845c0010fc7064736f6c63430008130033",
  "devdoc": {
    "events": {
      "ChromaticLPRegistered(address,address)": {
        "params": {
          "lp": "The address of the registered Chromatic LP.",
          "market": "The address of the associated market."
        }
      },
      "ChromaticLPUnregistered(address,address)": {
        "params": {
          "lp": "The address of the unregistered Chromatic LP.",
          "market": "The address of the associated market."
        }
      }
    },
    "kind": "dev",
    "methods": {
      "lpList()": {
        "returns": {
          "lpAddresses": "An array of Chromatic LP addresses."
        }
      },
      "lpListByMarket(address)": {
        "params": {
          "market": "The address of the market for which LPs are to be retrieved."
        },
        "returns": {
          "_0": "An array of Chromatic LP addresses associated with the specified market."
        }
      },
      "lpListBySettlementToken(address)": {
        "params": {
          "token": "The address of the settlement token for which LPs are to be retrieved."
        },
        "returns": {
          "_0": "An array of Chromatic LP addresses associated with the specified settlement token."
        }
      },
      "register(address)": {
        "params": {
          "lp": "The address of the Chromatic LP contract to be registered."
        }
      },
      "unregister(address)": {
        "params": {
          "lp": "The address of the Chromatic LP contract to be unregistered."
        }
      }
    },
    "version": 1
  },
  "userdoc": {
    "errors": {
      "AlreadyRegistered()": [
        {
          "notice": "Error thrown when attempting to register an LP that is already registered."
        }
      ],
      "NotRegistered()": [
        {
          "notice": "Error thrown when attempting to unregister an LP that is not registered."
        }
      ],
      "OnlyAccessableByDao()": [
        {
          "notice": "Error thrown when a function is called by the DAO."
        }
      ]
    },
    "events": {
      "ChromaticLPRegistered(address,address)": {
        "notice": "Emitted when a Chromatic LP is successfully registered."
      },
      "ChromaticLPUnregistered(address,address)": {
        "notice": "Emitted when a Chromatic LP is successfully unregistered."
      }
    },
    "kind": "user",
    "methods": {
      "lpList()": {
        "notice": "Retrieves the list of all registered Chromatic LP addresses."
      },
      "lpListByMarket(address)": {
        "notice": "Retrieves the list of Chromatic LP addresses associated with a specific market."
      },
      "lpListBySettlementToken(address)": {
        "notice": "Retrieves the list of Chromatic LP addresses associated with a specific settlement token."
      },
      "register(address)": {
        "notice": "Registers a new Chromatic LP."
      },
      "unregister(address)": {
        "notice": "Unregisters an existing Chromatic LP."
      }
    },
    "version": 1
  },
  "storageLayout": {
    "storage": [
      {
        "astId": 17518,
        "contract": "contracts/lp/ChromaticLPRegistry.sol:ChromaticLPRegistry",
        "label": "_lpsByMarket",
        "offset": 0,
        "slot": "0",
        "type": "t_mapping(t_address,t_struct(AddressSet)10862_storage)"
      },
      {
        "astId": 17523,
        "contract": "contracts/lp/ChromaticLPRegistry.sol:ChromaticLPRegistry",
        "label": "_lpsBySettlementToken",
        "offset": 0,
        "slot": "1",
        "type": "t_mapping(t_address,t_struct(AddressSet)10862_storage)"
      },
      {
        "astId": 17526,
        "contract": "contracts/lp/ChromaticLPRegistry.sol:ChromaticLPRegistry",
        "label": "_lpsAll",
        "offset": 0,
        "slot": "2",
        "type": "t_struct(AddressSet)10862_storage"
      }
    ],
    "types": {
      "t_address": {
        "encoding": "inplace",
        "label": "address",
        "numberOfBytes": "20"
      },
      "t_array(t_bytes32)dyn_storage": {
        "base": "t_bytes32",
        "encoding": "dynamic_array",
        "label": "bytes32[]",
        "numberOfBytes": "32"
      },
      "t_bytes32": {
        "encoding": "inplace",
        "label": "bytes32",
        "numberOfBytes": "32"
      },
      "t_mapping(t_address,t_struct(AddressSet)10862_storage)": {
        "encoding": "mapping",
        "key": "t_address",
        "label": "mapping(address => struct EnumerableSet.AddressSet)",
        "numberOfBytes": "32",
        "value": "t_struct(AddressSet)10862_storage"
      },
      "t_mapping(t_bytes32,t_uint256)": {
        "encoding": "mapping",
        "key": "t_bytes32",
        "label": "mapping(bytes32 => uint256)",
        "numberOfBytes": "32",
        "value": "t_uint256"
      },
      "t_struct(AddressSet)10862_storage": {
        "encoding": "inplace",
        "label": "struct EnumerableSet.AddressSet",
        "members": [
          {
            "astId": 10861,
            "contract": "contracts/lp/ChromaticLPRegistry.sol:ChromaticLPRegistry",
            "label": "_inner",
            "offset": 0,
            "slot": "0",
            "type": "t_struct(Set)10547_storage"
          }
        ],
        "numberOfBytes": "64"
      },
      "t_struct(Set)10547_storage": {
        "encoding": "inplace",
        "label": "struct EnumerableSet.Set",
        "members": [
          {
            "astId": 10542,
            "contract": "contracts/lp/ChromaticLPRegistry.sol:ChromaticLPRegistry",
            "label": "_values",
            "offset": 0,
            "slot": "0",
            "type": "t_array(t_bytes32)dyn_storage"
          },
          {
            "astId": 10546,
            "contract": "contracts/lp/ChromaticLPRegistry.sol:ChromaticLPRegistry",
            "label": "_indexes",
            "offset": 0,
            "slot": "1",
            "type": "t_mapping(t_bytes32,t_uint256)"
          }
        ],
        "numberOfBytes": "64"
      },
      "t_uint256": {
        "encoding": "inplace",
        "label": "uint256",
        "numberOfBytes": "32"
      }
    }
  }
}