{
  "address": "0x848f268CaAAF07DA06826f2B6364a9067af33605",
  "abi": [
    {
      "inputs": [
        {
          "internalType": "address",
          "name": "logicAddress",
          "type": "address"
        },
        {
          "components": [
            {
              "internalType": "string",
              "name": "lpName",
              "type": "string"
            },
            {
              "internalType": "string",
              "name": "tag",
              "type": "string"
            }
          ],
          "internalType": "struct ChromaticLPStorageCore.LPMeta",
          "name": "lpMeta",
          "type": "tuple"
        },
        {
          "components": [
            {
              "internalType": "contract IChromaticMarket",
              "name": "market",
              "type": "address"
            },
            {
              "internalType": "uint16",
              "name": "utilizationTargetBPS",
              "type": "uint16"
            },
            {
              "internalType": "uint16",
              "name": "rebalanceBPS",
              "type": "uint16"
            },
            {
              "internalType": "uint256",
              "name": "rebalanceCheckingInterval",
              "type": "uint256"
            },
            {
              "internalType": "uint256",
              "name": "automationFeeReserved",
              "type": "uint256"
            },
            {
              "internalType": "uint256",
              "name": "minHoldingValueToRebalance",
              "type": "uint256"
            }
          ],
          "internalType": "struct ChromaticLPStorageCore.ConfigParam",
          "name": "config",
          "type": "tuple"
        },
        {
          "internalType": "int16[]",
          "name": "_feeRates",
          "type": "int16[]"
        },
        {
          "internalType": "uint16[]",
          "name": "_distributionRates",
          "type": "uint16[]"
        },
        {
          "internalType": "contract IAutomateLP",
          "name": "automate",
          "type": "address"
        }
      ],
      "stateMutability": "nonpayable",
      "type": "constructor"
    },
    {
      "inputs": [],
      "name": "AddLiquidityNotAllowed",
      "type": "error"
    },
    {
      "inputs": [],
      "name": "AddLiquiditySuspended",
      "type": "error"
    },
    {
      "inputs": [],
      "name": "AlreadySettled",
      "type": "error"
    },
    {
      "inputs": [],
      "name": "InvalidMinHoldingValueToRebalance",
      "type": "error"
    },
    {
      "inputs": [],
      "name": "InvalidRebalanceBPS",
      "type": "error"
    },
    {
      "inputs": [],
      "name": "InvalidReceiptId",
      "type": "error"
    },
    {
      "inputs": [
        {
          "internalType": "uint16",
          "name": "targetBPS",
          "type": "uint16"
        }
      ],
      "name": "InvalidUtilizationTarget",
      "type": "error"
    },
    {
      "inputs": [],
      "name": "NotAutomationCalled",
      "type": "error"
    },
    {
      "inputs": [],
      "name": "NotImplementedInLogicContract",
      "type": "error"
    },
    {
      "inputs": [],
      "name": "NotKeeperCalled",
      "type": "error"
    },
    {
      "inputs": [],
      "name": "NotMarket",
      "type": "error"
    },
    {
      "inputs": [
        {
          "internalType": "uint256",
          "name": "feeLength",
          "type": "uint256"
        },
        {
          "internalType": "uint256",
          "name": "distributionLength",
          "type": "uint256"
        }
      ],
      "name": "NotMatchDistributionLength",
      "type": "error"
    },
    {
      "inputs": [],
      "name": "NotOwner",
      "type": "error"
    },
    {
      "inputs": [],
      "name": "OnlyAccessableByDao",
      "type": "error"
    },
    {
      "inputs": [],
      "name": "OnlyBatchCall",
      "type": "error"
    },
    {
      "inputs": [],
      "name": "OracleVersionError",
      "type": "error"
    },
    {
      "inputs": [],
      "name": "RemoveLiquiditySuspended",
      "type": "error"
    },
    {
      "inputs": [],
      "name": "TooSmallAmountToAddLiquidity",
      "type": "error"
    },
    {
      "inputs": [],
      "name": "UnknownLPAction",
      "type": "error"
    },
    {
      "inputs": [],
      "name": "UpgradeFailed",
      "type": "error"
    },
    {
      "inputs": [],
      "name": "UpgradeFailedNotContractAddress",
      "type": "error"
    },
    {
      "inputs": [],
      "name": "ZeroAddressError",
      "type": "error"
    },
    {
      "inputs": [],
      "name": "ZeroRemoveLiquidityError",
      "type": "error"
    },
    {
      "anonymous": false,
      "inputs": [
        {
          "indexed": true,
          "internalType": "uint256",
          "name": "receiptId",
          "type": "uint256"
        },
        {
          "indexed": true,
          "internalType": "address",
          "name": "provider",
          "type": "address"
        },
        {
          "indexed": true,
          "internalType": "address",
          "name": "recipient",
          "type": "address"
        },
        {
          "indexed": false,
          "internalType": "uint256",
          "name": "oracleVersion",
          "type": "uint256"
        },
        {
          "indexed": false,
          "internalType": "uint256",
          "name": "amount",
          "type": "uint256"
        }
      ],
      "name": "AddLiquidity",
      "type": "event"
    },
    {
      "anonymous": false,
      "inputs": [
        {
          "indexed": true,
          "internalType": "uint256",
          "name": "receiptId",
          "type": "uint256"
        },
        {
          "indexed": true,
          "internalType": "address",
          "name": "provider",
          "type": "address"
        },
        {
          "indexed": true,
          "internalType": "address",
          "name": "recipient",
          "type": "address"
        },
        {
          "indexed": false,
          "internalType": "uint256",
          "name": "settlementAdded",
          "type": "uint256"
        },
        {
          "indexed": false,
          "internalType": "uint256",
          "name": "lpTokenAmount",
          "type": "uint256"
        },
        {
          "indexed": false,
          "internalType": "uint256",
          "name": "keeperFee",
          "type": "uint256"
        }
      ],
      "name": "AddLiquiditySettled",
      "type": "event"
    },
    {
      "anonymous": false,
      "inputs": [
        {
          "indexed": true,
          "internalType": "address",
          "name": "owner",
          "type": "address"
        },
        {
          "indexed": true,
          "internalType": "address",
          "name": "spender",
          "type": "address"
        },
        {
          "indexed": false,
          "internalType": "uint256",
          "name": "value",
          "type": "uint256"
        }
      ],
      "name": "Approval",
      "type": "event"
    },
    {
      "anonymous": false,
      "inputs": [
        {
          "indexed": true,
          "internalType": "uint256",
          "name": "receiptId",
          "type": "uint256"
        },
        {
          "indexed": false,
          "internalType": "uint256",
          "name": "oracleVersion",
          "type": "uint256"
        },
        {
          "indexed": false,
          "internalType": "uint256",
          "name": "amount",
          "type": "uint256"
        },
        {
          "indexed": false,
          "internalType": "uint256",
          "name": "currentUtility",
          "type": "uint256"
        }
      ],
      "name": "RebalanceAddLiquidity",
      "type": "event"
    },
    {
      "anonymous": false,
      "inputs": [
        {
          "indexed": true,
          "internalType": "uint256",
          "name": "receiptId",
          "type": "uint256"
        },
        {
          "indexed": false,
          "internalType": "uint256",
          "name": "oracleVersion",
          "type": "uint256"
        },
        {
          "indexed": false,
          "internalType": "uint256",
          "name": "currentUtility",
          "type": "uint256"
        }
      ],
      "name": "RebalanceRemoveLiquidity",
      "type": "event"
    },
    {
      "anonymous": false,
      "inputs": [
        {
          "indexed": true,
          "internalType": "uint256",
          "name": "receiptId",
          "type": "uint256"
        },
        {
          "indexed": false,
          "internalType": "uint256",
          "name": "keeperFee",
          "type": "uint256"
        }
      ],
      "name": "RebalanceSettled",
      "type": "event"
    },
    {
      "anonymous": false,
      "inputs": [
        {
          "indexed": true,
          "internalType": "uint256",
          "name": "receiptId",
          "type": "uint256"
        },
        {
          "indexed": true,
          "internalType": "address",
          "name": "provider",
          "type": "address"
        },
        {
          "indexed": true,
          "internalType": "address",
          "name": "recipient",
          "type": "address"
        },
        {
          "indexed": false,
          "internalType": "uint256",
          "name": "oracleVersion",
          "type": "uint256"
        },
        {
          "indexed": false,
          "internalType": "uint256",
          "name": "lpTokenAmount",
          "type": "uint256"
        }
      ],
      "name": "RemoveLiquidity",
      "type": "event"
    },
    {
      "anonymous": false,
      "inputs": [
        {
          "indexed": true,
          "internalType": "uint256",
          "name": "receiptId",
          "type": "uint256"
        },
        {
          "indexed": true,
          "internalType": "address",
          "name": "provider",
          "type": "address"
        },
        {
          "indexed": true,
          "internalType": "address",
          "name": "recipient",
          "type": "address"
        },
        {
          "indexed": false,
          "internalType": "uint256",
          "name": "burningAmount",
          "type": "uint256"
        },
        {
          "indexed": false,
          "internalType": "uint256",
          "name": "withdrawnSettlementAmount",
          "type": "uint256"
        },
        {
          "indexed": false,
          "internalType": "uint256",
          "name": "refundedAmount",
          "type": "uint256"
        },
        {
          "indexed": false,
          "internalType": "uint256",
          "name": "keeperFee",
          "type": "uint256"
        }
      ],
      "name": "RemoveLiquiditySettled",
      "type": "event"
    },
    {
      "anonymous": false,
      "inputs": [
        {
          "indexed": false,
          "internalType": "address",
          "name": "automate",
          "type": "address"
        }
      ],
      "name": "SetAutomateLP",
      "type": "event"
    },
    {
      "anonymous": false,
      "inputs": [
        {
          "indexed": false,
          "internalType": "uint256",
          "name": "newValue",
          "type": "uint256"
        }
      ],
      "name": "SetAutomationFeeReserved",
      "type": "event"
    },
    {
      "anonymous": false,
      "inputs": [
        {
          "indexed": false,
          "internalType": "string",
          "name": "name",
          "type": "string"
        }
      ],
      "name": "SetLpName",
      "type": "event"
    },
    {
      "anonymous": false,
      "inputs": [
        {
          "indexed": false,
          "internalType": "string",
          "name": "tag",
          "type": "string"
        }
      ],
      "name": "SetLpTag",
      "type": "event"
    },
    {
      "anonymous": false,
      "inputs": [
        {
          "indexed": false,
          "internalType": "uint256",
          "name": "newValue",
          "type": "uint256"
        }
      ],
      "name": "SetMinHoldingValueToRebalance",
      "type": "event"
    },
    {
      "anonymous": false,
      "inputs": [
        {
          "indexed": false,
          "internalType": "bool",
          "name": "mode",
          "type": "bool"
        }
      ],
      "name": "SetPrivateMode",
      "type": "event"
    },
    {
      "anonymous": false,
      "inputs": [
        {
          "indexed": false,
          "internalType": "uint8",
          "name": "mode",
          "type": "uint8"
        }
      ],
      "name": "SetSuspendMode",
      "type": "event"
    },
    {
      "anonymous": false,
      "inputs": [
        {
          "indexed": true,
          "internalType": "address",
          "name": "from",
          "type": "address"
        },
        {
          "indexed": true,
          "internalType": "address",
          "name": "to",
          "type": "address"
        },
        {
          "indexed": false,
          "internalType": "uint256",
          "name": "value",
          "type": "uint256"
        }
      ],
      "name": "Transfer",
      "type": "event"
    },
    {
      "anonymous": false,
      "inputs": [
        {
          "indexed": false,
          "internalType": "address",
          "name": "previousLogic",
          "type": "address"
        },
        {
          "indexed": true,
          "internalType": "address",
          "name": "newLogic",
          "type": "address"
        }
      ],
      "name": "Upgraded",
      "type": "event"
    },
    {
      "stateMutability": "payable",
      "type": "fallback"
    },
    {
      "inputs": [
        {
          "internalType": "uint256",
          "name": "amount",
          "type": "uint256"
        },
        {
          "internalType": "address",
          "name": "",
          "type": "address"
        }
      ],
      "name": "addLiquidity",
      "outputs": [
        {
          "components": [
            {
              "internalType": "uint256",
              "name": "id",
              "type": "uint256"
            },
            {
              "internalType": "address",
              "name": "provider",
              "type": "address"
            },
            {
              "internalType": "address",
              "name": "recipient",
              "type": "address"
            },
            {
              "internalType": "uint256",
              "name": "oracleVersion",
              "type": "uint256"
            },
            {
              "internalType": "uint256",
              "name": "amount",
              "type": "uint256"
            },
            {
              "internalType": "uint256",
              "name": "pendingLiquidity",
              "type": "uint256"
            },
            {
              "internalType": "enum ChromaticLPAction",
              "name": "action",
              "type": "uint8"
            },
            {
              "internalType": "bool",
              "name": "needSettle",
              "type": "bool"
            }
          ],
          "internalType": "struct ChromaticLPReceipt",
          "name": "",
          "type": "tuple"
        }
      ],
      "stateMutability": "nonpayable",
      "type": "function"
    },
    {
      "inputs": [
        {
          "internalType": "address",
          "name": "",
          "type": "address"
        },
        {
          "internalType": "address",
          "name": "",
          "type": "address"
        },
        {
          "internalType": "bytes",
          "name": "",
          "type": "bytes"
        }
      ],
      "name": "addLiquidityBatchCallback",
      "outputs": [],
      "stateMutability": "nonpayable",
      "type": "function"
    },
    {
      "inputs": [
        {
          "internalType": "address",
          "name": "",
          "type": "address"
        },
        {
          "internalType": "address",
          "name": "",
          "type": "address"
        },
        {
          "internalType": "bytes",
          "name": "",
          "type": "bytes"
        }
      ],
      "name": "addLiquidityCallback",
      "outputs": [],
      "stateMutability": "pure",
      "type": "function"
    },
    {
      "inputs": [
        {
          "internalType": "address",
          "name": "owner",
          "type": "address"
        },
        {
          "internalType": "address",
          "name": "spender",
          "type": "address"
        }
      ],
      "name": "allowance",
      "outputs": [
        {
          "internalType": "uint256",
          "name": "",
          "type": "uint256"
        }
      ],
      "stateMutability": "view",
      "type": "function"
    },
    {
      "inputs": [
        {
          "internalType": "address",
          "name": "spender",
          "type": "address"
        },
        {
          "internalType": "uint256",
          "name": "amount",
          "type": "uint256"
        }
      ],
      "name": "approve",
      "outputs": [
        {
          "internalType": "bool",
          "name": "",
          "type": "bool"
        }
      ],
      "stateMutability": "nonpayable",
      "type": "function"
    },
    {
      "inputs": [],
      "name": "automateLP",
      "outputs": [
        {
          "internalType": "contract IAutomateLP",
          "name": "",
          "type": "address"
        }
      ],
      "stateMutability": "view",
      "type": "function"
    },
    {
      "inputs": [],
      "name": "automationFeeReserved",
      "outputs": [
        {
          "internalType": "uint256",
          "name": "",
          "type": "uint256"
        }
      ],
      "stateMutability": "view",
      "type": "function"
    },
    {
      "inputs": [
        {
          "internalType": "address",
          "name": "account",
          "type": "address"
        }
      ],
      "name": "balanceOf",
      "outputs": [
        {
          "internalType": "uint256",
          "name": "",
          "type": "uint256"
        }
      ],
      "stateMutability": "view",
      "type": "function"
    },
    {
      "inputs": [],
      "name": "cancelRebalanceTask",
      "outputs": [],
      "stateMutability": "nonpayable",
      "type": "function"
    },
    {
      "inputs": [
        {
          "internalType": "uint256",
          "name": "",
          "type": "uint256"
        }
      ],
      "name": "cancelSettleTask",
      "outputs": [],
      "stateMutability": "nonpayable",
      "type": "function"
    },
    {
      "inputs": [],
      "name": "checkRebalance",
      "outputs": [
        {
          "internalType": "bool",
          "name": "",
          "type": "bool"
        }
      ],
      "stateMutability": "view",
      "type": "function"
    },
    {
      "inputs": [
        {
          "internalType": "uint256",
          "name": "receiptId",
          "type": "uint256"
        }
      ],
      "name": "checkSettle",
      "outputs": [
        {
          "internalType": "bool",
          "name": "",
          "type": "bool"
        }
      ],
      "stateMutability": "view",
      "type": "function"
    },
    {
      "inputs": [
        {
          "internalType": "uint256",
          "name": "receiptId",
          "type": "uint256"
        }
      ],
      "name": "checkSettleByUser",
      "outputs": [
        {
          "internalType": "bool",
          "name": "",
          "type": "bool"
        }
      ],
      "stateMutability": "view",
      "type": "function"
    },
    {
      "inputs": [
        {
          "internalType": "uint256[]",
          "name": "",
          "type": "uint256[]"
        },
        {
          "internalType": "int16[]",
          "name": "",
          "type": "int16[]"
        },
        {
          "internalType": "uint256[]",
          "name": "",
          "type": "uint256[]"
        },
        {
          "internalType": "uint256[]",
          "name": "",
          "type": "uint256[]"
        },
        {
          "internalType": "bytes",
          "name": "",
          "type": "bytes"
        }
      ],
      "name": "claimLiquidityBatchCallback",
      "outputs": [],
      "stateMutability": "nonpayable",
      "type": "function"
    },
    {
      "inputs": [
        {
          "internalType": "uint256",
          "name": "",
          "type": "uint256"
        },
        {
          "internalType": "int16",
          "name": "",
          "type": "int16"
        },
        {
          "internalType": "uint256",
          "name": "",
          "type": "uint256"
        },
        {
          "internalType": "uint256",
          "name": "",
          "type": "uint256"
        },
        {
          "internalType": "bytes",
          "name": "",
          "type": "bytes"
        }
      ],
      "name": "claimLiquidityCallback",
      "outputs": [],
      "stateMutability": "pure",
      "type": "function"
    },
    {
      "inputs": [],
      "name": "clbTokenBalances",
      "outputs": [
        {
          "internalType": "uint256[]",
          "name": "_clbTokenBalances",
          "type": "uint256[]"
        }
      ],
      "stateMutability": "view",
      "type": "function"
    },
    {
      "inputs": [],
      "name": "clbTokenIds",
      "outputs": [
        {
          "internalType": "uint256[]",
          "name": "",
          "type": "uint256[]"
        }
      ],
      "stateMutability": "view",
      "type": "function"
    },
    {
      "inputs": [],
      "name": "clbTokenValues",
      "outputs": [
        {
          "internalType": "uint256[]",
          "name": "_clbTokenBalances",
          "type": "uint256[]"
        }
      ],
      "stateMutability": "view",
      "type": "function"
    },
    {
      "inputs": [],
      "name": "createRebalanceTask",
      "outputs": [],
      "stateMutability": "nonpayable",
      "type": "function"
    },
    {
      "inputs": [],
      "name": "dao",
      "outputs": [
        {
          "internalType": "address",
          "name": "",
          "type": "address"
        }
      ],
      "stateMutability": "view",
      "type": "function"
    },
    {
      "inputs": [],
      "name": "decimals",
      "outputs": [
        {
          "internalType": "uint8",
          "name": "",
          "type": "uint8"
        }
      ],
      "stateMutability": "view",
      "type": "function"
    },
    {
      "inputs": [
        {
          "internalType": "address",
          "name": "spender",
          "type": "address"
        },
        {
          "internalType": "uint256",
          "name": "subtractedValue",
          "type": "uint256"
        }
      ],
      "name": "decreaseAllowance",
      "outputs": [
        {
          "internalType": "bool",
          "name": "",
          "type": "bool"
        }
      ],
      "stateMutability": "nonpayable",
      "type": "function"
    },
    {
      "inputs": [],
      "name": "distributionRates",
      "outputs": [
        {
          "internalType": "uint16[]",
          "name": "rates",
          "type": "uint16[]"
        }
      ],
      "stateMutability": "view",
      "type": "function"
    },
    {
      "inputs": [],
      "name": "estimateMinAddLiquidityAmount",
      "outputs": [
        {
          "internalType": "uint256",
          "name": "",
          "type": "uint256"
        }
      ],
      "stateMutability": "view",
      "type": "function"
    },
    {
      "inputs": [],
      "name": "estimateMinRemoveLiquidityAmount",
      "outputs": [
        {
          "internalType": "uint256",
          "name": "",
          "type": "uint256"
        }
      ],
      "stateMutability": "view",
      "type": "function"
    },
    {
      "inputs": [],
      "name": "feeRates",
      "outputs": [
        {
          "internalType": "int16[]",
          "name": "",
          "type": "int16[]"
        }
      ],
      "stateMutability": "view",
      "type": "function"
    },
    {
      "inputs": [
        {
          "internalType": "uint256",
          "name": "receiptId",
          "type": "uint256"
        }
      ],
      "name": "getMarketReceiptsOf",
      "outputs": [
        {
          "internalType": "uint256[]",
          "name": "",
          "type": "uint256[]"
        }
      ],
      "stateMutability": "view",
      "type": "function"
    },
    {
      "inputs": [
        {
          "internalType": "uint256",
          "name": "receiptId",
          "type": "uint256"
        }
      ],
      "name": "getReceipt",
      "outputs": [
        {
          "components": [
            {
              "internalType": "uint256",
              "name": "id",
              "type": "uint256"
            },
            {
              "internalType": "address",
              "name": "provider",
              "type": "address"
            },
            {
              "internalType": "address",
              "name": "recipient",
              "type": "address"
            },
            {
              "internalType": "uint256",
              "name": "oracleVersion",
              "type": "uint256"
            },
            {
              "internalType": "uint256",
              "name": "amount",
              "type": "uint256"
            },
            {
              "internalType": "uint256",
              "name": "pendingLiquidity",
              "type": "uint256"
            },
            {
              "internalType": "enum ChromaticLPAction",
              "name": "action",
              "type": "uint8"
            },
            {
              "internalType": "bool",
              "name": "needSettle",
              "type": "bool"
            }
          ],
          "internalType": "struct ChromaticLPReceipt",
          "name": "",
          "type": "tuple"
        }
      ],
      "stateMutability": "view",
      "type": "function"
    },
    {
      "inputs": [
        {
          "internalType": "address",
          "name": "owner_",
          "type": "address"
        }
      ],
      "name": "getReceiptIdsOf",
      "outputs": [
        {
          "internalType": "uint256[]",
          "name": "receiptIds",
          "type": "uint256[]"
        }
      ],
      "stateMutability": "view",
      "type": "function"
    },
    {
      "inputs": [],
      "name": "holdingClbValue",
      "outputs": [
        {
          "internalType": "uint256",
          "name": "value",
          "type": "uint256"
        }
      ],
      "stateMutability": "view",
      "type": "function"
    },
    {
      "inputs": [],
      "name": "holdingValue",
      "outputs": [
        {
          "internalType": "uint256",
          "name": "",
          "type": "uint256"
        }
      ],
      "stateMutability": "view",
      "type": "function"
    },
    {
      "inputs": [
        {
          "internalType": "address",
          "name": "spender",
          "type": "address"
        },
        {
          "internalType": "uint256",
          "name": "addedValue",
          "type": "uint256"
        }
      ],
      "name": "increaseAllowance",
      "outputs": [
        {
          "internalType": "bool",
          "name": "",
          "type": "bool"
        }
      ],
      "stateMutability": "nonpayable",
      "type": "function"
    },
    {
      "inputs": [],
      "name": "logicAddress",
      "outputs": [
        {
          "internalType": "address",
          "name": "",
          "type": "address"
        }
      ],
      "stateMutability": "view",
      "type": "function"
    },
    {
      "inputs": [],
      "name": "longShortInfo",
      "outputs": [
        {
          "internalType": "int8",
          "name": "",
          "type": "int8"
        }
      ],
      "stateMutability": "view",
      "type": "function"
    },
    {
      "inputs": [],
      "name": "lpName",
      "outputs": [
        {
          "internalType": "string",
          "name": "",
          "type": "string"
        }
      ],
      "stateMutability": "view",
      "type": "function"
    },
    {
      "inputs": [],
      "name": "lpTag",
      "outputs": [
        {
          "internalType": "string",
          "name": "",
          "type": "string"
        }
      ],
      "stateMutability": "view",
      "type": "function"
    },
    {
      "inputs": [],
      "name": "lpToken",
      "outputs": [
        {
          "internalType": "address",
          "name": "",
          "type": "address"
        }
      ],
      "stateMutability": "view",
      "type": "function"
    },
    {
      "inputs": [],
      "name": "market",
      "outputs": [
        {
          "internalType": "address",
          "name": "",
          "type": "address"
        }
      ],
      "stateMutability": "view",
      "type": "function"
    },
    {
      "inputs": [],
      "name": "minHoldingValueToRebalance",
      "outputs": [
        {
          "internalType": "uint256",
          "name": "",
          "type": "uint256"
        }
      ],
      "stateMutability": "view",
      "type": "function"
    },
    {
      "inputs": [],
      "name": "name",
      "outputs": [
        {
          "internalType": "string",
          "name": "",
          "type": "string"
        }
      ],
      "stateMutability": "view",
      "type": "function"
    },
    {
      "inputs": [
        {
          "internalType": "address",
          "name": "",
          "type": "address"
        },
        {
          "internalType": "address",
          "name": "",
          "type": "address"
        },
        {
          "internalType": "uint256[]",
          "name": "",
          "type": "uint256[]"
        },
        {
          "internalType": "uint256[]",
          "name": "",
          "type": "uint256[]"
        },
        {
          "internalType": "bytes",
          "name": "",
          "type": "bytes"
        }
      ],
      "name": "onERC1155BatchReceived",
      "outputs": [
        {
          "internalType": "bytes4",
          "name": "",
          "type": "bytes4"
        }
      ],
      "stateMutability": "pure",
      "type": "function"
    },
    {
      "inputs": [
        {
          "internalType": "address",
          "name": "",
          "type": "address"
        },
        {
          "internalType": "address",
          "name": "",
          "type": "address"
        },
        {
          "internalType": "uint256",
          "name": "",
          "type": "uint256"
        },
        {
          "internalType": "uint256",
          "name": "",
          "type": "uint256"
        },
        {
          "internalType": "bytes",
          "name": "",
          "type": "bytes"
        }
      ],
      "name": "onERC1155Received",
      "outputs": [
        {
          "internalType": "bytes4",
          "name": "",
          "type": "bytes4"
        }
      ],
      "stateMutability": "pure",
      "type": "function"
    },
    {
      "inputs": [],
      "name": "pendingClbValue",
      "outputs": [
        {
          "internalType": "uint256",
          "name": "value",
          "type": "uint256"
        }
      ],
      "stateMutability": "view",
      "type": "function"
    },
    {
      "inputs": [],
      "name": "pendingRemoveClbBalances",
      "outputs": [
        {
          "internalType": "uint256[]",
          "name": "",
          "type": "uint256[]"
        }
      ],
      "stateMutability": "view",
      "type": "function"
    },
    {
      "inputs": [],
      "name": "pendingValue",
      "outputs": [
        {
          "internalType": "uint256",
          "name": "",
          "type": "uint256"
        }
      ],
      "stateMutability": "view",
      "type": "function"
    },
    {
      "inputs": [
        {
          "internalType": "address",
          "name": "",
          "type": "address"
        },
        {
          "internalType": "uint256",
          "name": "",
          "type": "uint256"
        }
      ],
      "name": "rebalance",
      "outputs": [],
      "stateMutability": "nonpayable",
      "type": "function"
    },
    {
      "inputs": [],
      "name": "rebalanceBPS",
      "outputs": [
        {
          "internalType": "uint256",
          "name": "",
          "type": "uint256"
        }
      ],
      "stateMutability": "view",
      "type": "function"
    },
    {
      "inputs": [],
      "name": "rebalanceCheckingInterval",
      "outputs": [
        {
          "internalType": "uint256",
          "name": "",
          "type": "uint256"
        }
      ],
      "stateMutability": "view",
      "type": "function"
    },
    {
      "inputs": [
        {
          "internalType": "uint256",
          "name": "",
          "type": "uint256"
        },
        {
          "internalType": "address",
          "name": "",
          "type": "address"
        }
      ],
      "name": "removeLiquidity",
      "outputs": [
        {
          "components": [
            {
              "internalType": "uint256",
              "name": "id",
              "type": "uint256"
            },
            {
              "internalType": "address",
              "name": "provider",
              "type": "address"
            },
            {
              "internalType": "address",
              "name": "recipient",
              "type": "address"
            },
            {
              "internalType": "uint256",
              "name": "oracleVersion",
              "type": "uint256"
            },
            {
              "internalType": "uint256",
              "name": "amount",
              "type": "uint256"
            },
            {
              "internalType": "uint256",
              "name": "pendingLiquidity",
              "type": "uint256"
            },
            {
              "internalType": "enum ChromaticLPAction",
              "name": "action",
              "type": "uint8"
            },
            {
              "internalType": "bool",
              "name": "needSettle",
              "type": "bool"
            }
          ],
          "internalType": "struct ChromaticLPReceipt",
          "name": "",
          "type": "tuple"
        }
      ],
      "stateMutability": "nonpayable",
      "type": "function"
    },
    {
      "inputs": [
        {
          "internalType": "address",
          "name": "",
          "type": "address"
        },
        {
          "internalType": "uint256[]",
          "name": "",
          "type": "uint256[]"
        },
        {
          "internalType": "bytes",
          "name": "",
          "type": "bytes"
        }
      ],
      "name": "removeLiquidityBatchCallback",
      "outputs": [],
      "stateMutability": "nonpayable",
      "type": "function"
    },
    {
      "inputs": [
        {
          "internalType": "address",
          "name": "",
          "type": "address"
        },
        {
          "internalType": "uint256",
          "name": "",
          "type": "uint256"
        },
        {
          "internalType": "bytes",
          "name": "",
          "type": "bytes"
        }
      ],
      "name": "removeLiquidityCallback",
      "outputs": [],
      "stateMutability": "pure",
      "type": "function"
    },
    {
      "inputs": [
        {
          "internalType": "contract IAutomateLP",
          "name": "automate",
          "type": "address"
        }
      ],
      "name": "setAutomateLP",
      "outputs": [],
      "stateMutability": "nonpayable",
      "type": "function"
    },
    {
      "inputs": [
        {
          "internalType": "uint256",
          "name": "_automationFeeReserved",
          "type": "uint256"
        }
      ],
      "name": "setAutomationFeeReserved",
      "outputs": [],
      "stateMutability": "nonpayable",
      "type": "function"
    },
    {
      "inputs": [
        {
          "internalType": "string",
          "name": "newName",
          "type": "string"
        }
      ],
      "name": "setLpName",
      "outputs": [],
      "stateMutability": "nonpayable",
      "type": "function"
    },
    {
      "inputs": [
        {
          "internalType": "string",
          "name": "tag",
          "type": "string"
        }
      ],
      "name": "setLpTag",
      "outputs": [],
      "stateMutability": "nonpayable",
      "type": "function"
    },
    {
      "inputs": [
        {
          "internalType": "uint256",
          "name": "_minHoldingValueToRebalance",
          "type": "uint256"
        }
      ],
      "name": "setMinHoldingValueToRebalance",
      "outputs": [],
      "stateMutability": "nonpayable",
      "type": "function"
    },
    {
      "inputs": [
        {
          "internalType": "uint8",
          "name": "mode",
          "type": "uint8"
        }
      ],
      "name": "setSuspendMode",
      "outputs": [],
      "stateMutability": "nonpayable",
      "type": "function"
    },
    {
      "inputs": [
        {
          "internalType": "uint256",
          "name": "",
          "type": "uint256"
        }
      ],
      "name": "settle",
      "outputs": [],
      "stateMutability": "nonpayable",
      "type": "function"
    },
    {
      "inputs": [
        {
          "internalType": "uint256",
          "name": "receiptId",
          "type": "uint256"
        },
        {
          "internalType": "address",
          "name": "",
          "type": "address"
        },
        {
          "internalType": "uint256",
          "name": "",
          "type": "uint256"
        }
      ],
      "name": "settleTask",
      "outputs": [],
      "stateMutability": "nonpayable",
      "type": "function"
    },
    {
      "inputs": [],
      "name": "settlementToken",
      "outputs": [
        {
          "internalType": "address",
          "name": "",
          "type": "address"
        }
      ],
      "stateMutability": "view",
      "type": "function"
    },
    {
      "inputs": [
        {
          "internalType": "bytes4",
          "name": "interfaceID",
          "type": "bytes4"
        }
      ],
      "name": "supportsInterface",
      "outputs": [
        {
          "internalType": "bool",
          "name": "",
          "type": "bool"
        }
      ],
      "stateMutability": "pure",
      "type": "function"
    },
    {
      "inputs": [],
      "name": "suspendMode",
      "outputs": [
        {
          "internalType": "uint8",
          "name": "",
          "type": "uint8"
        }
      ],
      "stateMutability": "view",
      "type": "function"
    },
    {
      "inputs": [],
      "name": "symbol",
      "outputs": [
        {
          "internalType": "string",
          "name": "",
          "type": "string"
        }
      ],
      "stateMutability": "view",
      "type": "function"
    },
    {
      "inputs": [],
      "name": "totalClbValue",
      "outputs": [
        {
          "internalType": "uint256",
          "name": "value",
          "type": "uint256"
        }
      ],
      "stateMutability": "view",
      "type": "function"
    },
    {
      "inputs": [],
      "name": "totalSupply",
      "outputs": [
        {
          "internalType": "uint256",
          "name": "",
          "type": "uint256"
        }
      ],
      "stateMutability": "view",
      "type": "function"
    },
    {
      "inputs": [],
      "name": "totalValue",
      "outputs": [
        {
          "internalType": "uint256",
          "name": "value",
          "type": "uint256"
        }
      ],
      "stateMutability": "view",
      "type": "function"
    },
    {
      "inputs": [
        {
          "internalType": "address",
          "name": "to",
          "type": "address"
        },
        {
          "internalType": "uint256",
          "name": "amount",
          "type": "uint256"
        }
      ],
      "name": "transfer",
      "outputs": [
        {
          "internalType": "bool",
          "name": "",
          "type": "bool"
        }
      ],
      "stateMutability": "nonpayable",
      "type": "function"
    },
    {
      "inputs": [
        {
          "internalType": "address",
          "name": "from",
          "type": "address"
        },
        {
          "internalType": "address",
          "name": "to",
          "type": "address"
        },
        {
          "internalType": "uint256",
          "name": "amount",
          "type": "uint256"
        }
      ],
      "name": "transferFrom",
      "outputs": [
        {
          "internalType": "bool",
          "name": "",
          "type": "bool"
        }
      ],
      "stateMutability": "nonpayable",
      "type": "function"
    },
    {
      "inputs": [
        {
          "internalType": "address",
          "name": "newLogicAddress",
          "type": "address"
        },
        {
          "internalType": "bytes",
          "name": "data",
          "type": "bytes"
        }
      ],
      "name": "upgradeTo",
      "outputs": [],
      "stateMutability": "nonpayable",
      "type": "function"
    },
    {
      "inputs": [],
      "name": "utilization",
      "outputs": [
        {
          "internalType": "uint16",
          "name": "currentUtility",
          "type": "uint16"
        }
      ],
      "stateMutability": "view",
      "type": "function"
    },
    {
      "inputs": [],
      "name": "utilizationTargetBPS",
      "outputs": [
        {
          "internalType": "uint256",
          "name": "",
          "type": "uint256"
        }
      ],
      "stateMutability": "view",
      "type": "function"
    },
    {
      "inputs": [],
      "name": "valueInfo",
      "outputs": [
        {
          "components": [
            {
              "internalType": "uint256",
              "name": "total",
              "type": "uint256"
            },
            {
              "internalType": "uint256",
              "name": "holding",
              "type": "uint256"
            },
            {
              "internalType": "uint256",
              "name": "pending",
              "type": "uint256"
            },
            {
              "internalType": "uint256",
              "name": "holdingClb",
              "type": "uint256"
            },
            {
              "internalType": "uint256",
              "name": "pendingClb",
              "type": "uint256"
            }
          ],
          "internalType": "struct ValueInfo",
          "name": "info",
          "type": "tuple"
        }
      ],
      "stateMutability": "view",
      "type": "function"
    },
    {
      "inputs": [],
      "name": "valueOfSupply",
      "outputs": [
        {
          "internalType": "uint256",
          "name": "value",
          "type": "uint256"
        }
      ],
      "stateMutability": "view",
      "type": "function"
    },
    {
      "inputs": [
        {
          "internalType": "uint256[]",
          "name": "",
          "type": "uint256[]"
        },
        {
          "internalType": "int16[]",
          "name": "",
          "type": "int16[]"
        },
        {
          "internalType": "uint256[]",
          "name": "",
          "type": "uint256[]"
        },
        {
          "internalType": "uint256[]",
          "name": "",
          "type": "uint256[]"
        },
        {
          "internalType": "bytes",
          "name": "",
          "type": "bytes"
        }
      ],
      "name": "withdrawLiquidityBatchCallback",
      "outputs": [],
      "stateMutability": "nonpayable",
      "type": "function"
    },
    {
      "inputs": [
        {
          "internalType": "uint256",
          "name": "",
          "type": "uint256"
        },
        {
          "internalType": "int16",
          "name": "",
          "type": "int16"
        },
        {
          "internalType": "uint256",
          "name": "",
          "type": "uint256"
        },
        {
          "internalType": "uint256",
          "name": "",
          "type": "uint256"
        },
        {
          "internalType": "bytes",
          "name": "",
          "type": "bytes"
        }
      ],
      "name": "withdrawLiquidityCallback",
      "outputs": [],
      "stateMutability": "pure",
      "type": "function"
    },
    {
      "stateMutability": "payable",
      "type": "receive"
    }
  ],
  "transactionHash": "0x6ac7534b1bcfddd18075831385f340f12d2124854c69bd85ae32a0afaf08ca1e",
  "args": [
    "0x8B48E672d99AC7CF1bE87BbACA41bD6B655ef0a1",
    {
      "lpName": "Decrescendo",
      "tag": "High Risk",
      "longShortInfo": -1
    },
    {
      "market": "0x23d0bF4316F5c768Be8983f71f5C05717E13E5d5",
      "utilizationTargetBPS": 7500,
      "rebalanceBPS": 500,
      "rebalanceCheckingInterval": 86400,
      "automationFeeReserved": "50000000",
      "minHoldingValueToRebalance": "100000000"
    },
    [
      -5000,
      -4500,
      -4000,
      -3500,
      -3000,
      -2500,
      -2000,
      -1500,
      -1000,
      -900,
      -800,
      -700,
      -600,
      -500,
      -400,
      -300,
      -200,
      -100,
      -90,
      -80,
      -70,
      -60,
      -50,
      -40,
      -30,
      -20,
      -10,
      -9,
      -8,
      -7,
      -6,
      -5,
      -4,
      -3,
      -2,
      -1
    ],
    [
      2567,
      2601,
      2636,
      2671,
      2706,
      2742,
      2779,
      2817,
      2855,
      2893,
      2933,
      2973,
      3014,
      3056,
      3098,
      3142,
      3187,
      3233,
      3280,
      3328,
      3378,
      3430,
      3483,
      3538,
      3596,
      3655,
      3718,
      3784,
      3853,
      3928,
      4007,
      4094,
      4189,
      4298,
      4427,
      4595
    ],
    "0xb3C0d606327f406ce51B8C210b730460f372BF05"
  ],
  "numDeployments": 18,
  "solcInputHash": "46cd9b1d7582f79b59c4d20087d4269d",
  "bytecode": "0x60806040523480156200001157600080fd5b506040516200609638038062006096833981016040819052620000349162000917565b6040805160208082018352600080835283519182019093529182529060036200005e838262000ac6565b5060046200006d828262000ac6565b50506001601855506200008585858585858b62000091565b50505050505062000c33565b601780546001600160a01b0319166001600160a01b038316179055604d80546001600160a01b0319166001600160a01b038416179055620000e38560200151866040015186866200025360201b60201c565b8460a00151856080015111156200010d57604051633eb55f4560e21b815260040160405180910390fd5b85516040517ff3da74d2d1d2bae81f62790988b0907ae7ae344cb326e2f211e3513608e65b13916200013f9162000b92565b60405180910390a17f039efd204a16c45dbd0adc05af0e996a397123584a81af9b8d0484475d77110386602001516040516200017c919062000b92565b60405180910390a1604080518082019091528651808252602080890151908301526005908190620001ae908262000ac6565b5060208201516001820190620001c5908262000ac6565b50506040805160a0808201835260208981015161ffff9081168085528b8601519091169184018290526060808c01519585018690526080808d0151918601829052938c0151939094018390526007805463ffffffff191690911762010000909202919091179055600892909255600955600a555084516200024b90600b908686620002e6565b505050505050565b6127108461ffff1611156200028657604051631191f22d60e31b815261ffff851660048201526024015b60405180910390fd5b8051825114620002b75781518151604051637e2c0eb360e01b8152600481019290925260248201526044016200027d565b8261ffff168461ffff1611620002e057604051630272acdf60e41b815260040160405180910390fd5b50505050565b83546001600160a01b0319166001600160a01b038416178455620002e08483836000805b8251811015620003bb5782818151811062000329576200032962000bc7565b60200260200101518560020160008684815181106200034c576200034c62000bc7565b602002602001015160010b60010b815260200190815260200160002060006101000a81548161ffff021916908361ffff16021790555082818151811062000397576200039762000bc7565b602002602001015161ffff1682620003b0919062000bf3565b91506001016200030a565b50600384018190558251620003da906001860190602086019062000514565b506001600b850155620002e0848480516001600160401b0381111562000404576200040462000635565b6040519080825280602002602001820160405280156200042e578160200160208202803683370190505b50805162000447916004850191602090910190620005c7565b5060005b8151811015620004af57620004828282815181106200046e576200046e62000bc7565b6020026020010151620004b460201b60201c565b8360040182815481106200049a576200049a62000bc7565b6000918252602090912001556001016200044b565b505050565b6000600182900b8112620004e181620004d857620004d28462000c0f565b620004da565b835b82620004e8565b9392505050565b6000816200050b57620005056402540be40061ffff851662000bf3565b620004e1565b505061ffff1690565b82805482825590600052602060002090600f01601090048101928215620005b55791602002820160005b838211156200058357835183826101000a81548161ffff021916908360010b61ffff16021790555092602001926002016020816001010492830192600103026200053e565b8015620005b35782816101000a81549061ffff021916905560020160208160010104928301926001030262000583565b505b50620005c392915062000605565b5090565b828054828255906000526020600020908101928215620005b5579160200282015b82811115620005b5578251825591602001919060010190620005e8565b5b80821115620005c3576000815560010162000606565b6001600160a01b03811681146200063257600080fd5b50565b634e487b7160e01b600052604160045260246000fd5b604080519081016001600160401b038111828210171562000670576200067062000635565b60405290565b604051601f8201601f191681016001600160401b0381118282101715620006a157620006a162000635565b604052919050565b60005b83811015620006c6578181015183820152602001620006ac565b50506000910152565b600082601f830112620006e157600080fd5b81516001600160401b03811115620006fd57620006fd62000635565b62000712601f8201601f191660200162000676565b8181528460208386010111156200072857600080fd5b6200073b826020830160208701620006a9565b949350505050565b805161ffff811681146200075657600080fd5b919050565b600060c082840312156200076e57600080fd5b60405160c081016001600160401b038111828210171562000793576200079362000635565b80604052508091508251620007a8816200061c565b8152620007b86020840162000743565b6020820152620007cb6040840162000743565b6040820152606083015160608201526080830151608082015260a083015160a08201525092915050565b60006001600160401b0382111562000811576200081162000635565b5060051b60200190565b600082601f8301126200082d57600080fd5b81516020620008466200084083620007f5565b62000676565b82815260059290921b840181019181810190868411156200086657600080fd5b8286015b84811015620008945780518060010b8114620008865760008081fd5b83529183019183016200086a565b509695505050505050565b600082601f830112620008b157600080fd5b81516020620008c46200084083620007f5565b82815260059290921b84018101918181019086841115620008e457600080fd5b8286015b848110156200089457620008fc8162000743565b8352918301918301620008e8565b805162000756816200061c565b60008060008060008061016087890312156200093257600080fd5b86516200093f816200061c565b60208801519096506001600160401b03808211156200095d57600080fd5b908801906040828b0312156200097257600080fd5b6200097c6200064b565b8251828111156200098c57600080fd5b6200099a8c828601620006cf565b825250602083015182811115620009b057600080fd5b620009be8c828601620006cf565b6020830152509650620009d58a60408b016200075b565b9550610100890151915080821115620009ed57600080fd5b620009fb8a838b016200081b565b945061012089015191508082111562000a1357600080fd5b5062000a2289828a016200089f565b92505062000a3461014088016200090a565b90509295509295509295565b600181811c9082168062000a5557607f821691505b60208210810362000a7657634e487b7160e01b600052602260045260246000fd5b50919050565b601f821115620004af57600081815260208120601f850160051c8101602086101562000aa55750805b601f850160051c820191505b818110156200024b5782815560010162000ab1565b81516001600160401b0381111562000ae25762000ae262000635565b62000afa8162000af3845462000a40565b8462000a7c565b602080601f83116001811462000b32576000841562000b195750858301515b600019600386901b1c1916600185901b1785556200024b565b600085815260208120601f198616915b8281101562000b635788860151825594840194600190910190840162000b42565b508582101562000b825787850151600019600388901b60f8161c191681555b5050505050600190811b01905550565b602081526000825180602084015262000bb3816040850160208701620006a9565b601f01601f19169190910160400192915050565b634e487b7160e01b600052603260045260246000fd5b634e487b7160e01b600052601160045260246000fd5b8082018082111562000c095762000c0962000bdd565b92915050565b60008160010b617fff19810362000c2a5762000c2a62000bdd565b60000392915050565b6154538062000c436000396000f3fe6080604052600436106104f05760003560e01c80637c48868a11610294578063b63e6ac31161015e578063d22e258d116100d6578063e921b5c21161008a578063f120bc4d1161006f578063f120bc4d14610d32578063f23a6e6114610e2d578063f8edb05514610e73576104ff565b8063e921b5c214610de5578063ea21cd9214610e05576104ff565b8063d4c3eea0116100bb578063d4c3eea014610d52578063dc0fde3f14610d67578063dd62ed3e14610d92576104ff565b8063d22e258d14610d1d578063d2419e2314610d32576104ff565b8063c6bd62491161012d578063c95cb96911610112578063c95cb96914610cbd578063c95f9d0e14610cdd578063d0d063c014610cfd576104ff565b8063c6bd624914610c9d578063c73fc7291461066b576104ff565b8063b63e6ac314610bcd578063bc197c8114610bed578063c0d6361c14610c66578063c244e4ca14610c88576104ff565b806395d89b411161020c578063a457c2d7116101c0578063a9059cbb116101a5578063a9059cbb14610b83578063a940eb6b14610ba3578063ac31bb0414610bb8576104ff565b8063a457c2d714610b4e578063a56c077f14610b6e576104ff565b8063970d1d6f116101f1578063970d1d6f14610ae85780639c1fcc4c14610b03578063a207d6d114610b2e576104ff565b806395d89b4114610ab357806395fc33c514610ac8576104ff565b80638b0ee281116102635780638df82800116102485780638df8280014610a695780638f1cc1c514610a8957806393e15ee914610a9e576104ff565b80638b0ee28114610a345780638c7fe72e14610a49576104ff565b80637c48868a146109b457806380f55605146109d457806383633964146109ff578063861086b714610a14576104ff565b80633efe4965116103d55780635fcbd2851161034d57806370a0823111610301578063747cd3d9116102e6578063747cd3d9146109685780637688c5841461097d5780637b9e618d1461099f576104ff565b806370a08231146108ce578063735a448e14610911576104ff565b80636868fe1d116103325780636868fe1d146108845780636e0c4cea146108995780636fbc15e9146108ae576104ff565b80635fcbd2851461085c57806366cc811a1461086f576104ff565b8063533cd766116103a45780635aa3b4ed116103895780635aa3b4ed146108125780635c3986b0146108275780635c9dea231461083c576104ff565b8063533cd766146107e25780635a80e080146107f7576104ff565b80633efe4965146107695780634162169f1461077e57806344103273146107b857806346cd6801146107cd576104ff565b806329e0dcfc11610468578063357dbd2311610437578063395093511161041c57806339509351146107145780633ab8a16c146107345780633da9b9d014610749576104ff565b8063357dbd23146106df5780633772708a146106f4576104ff565b806329e0dcfc146106435780633068e7941461066b578063313ce5671461068b5780633179f048146106b2576104ff565b806317e84c20116104bf57806320e6fbfa116104a457806320e6fbfa146105ea57806323b872dd1461060a57806326efc0451461062a576104ff565b806317e84c20146105ab57806318160ddd146105cb576104ff565b806301ffc9a71461050757806305fe138b1461053c57806306fdde0314610569578063095ea7b31461058b576104ff565b366104ff576104fd610e92565b005b6104fd610e92565b34801561051357600080fd5b50610527610522366004614013565b610ebb565b60405190151581526020015b60405180910390f35b34801561054857600080fd5b5061055c610557366004614077565b610f54565b60405161053391906140d6565b34801561057557600080fd5b5061057e610fa2565b60405161053391906141b2565b34801561059757600080fd5b506105276105a6366004614203565b610fd9565b3480156105b757600080fd5b506104fd6105c636600461423e565b610ff1565b3480156105d757600080fd5b506002545b604051908152602001610533565b3480156105f657600080fd5b5061052761060536600461425b565b61103b565b34801561061657600080fd5b50610527610625366004614274565b611046565b34801561063657600080fd5b5060075461ffff166105dc565b34801561064f57600080fd5b5061065861106c565b60405160009190910b8152602001610533565b34801561067757600080fd5b506104fd6106863660046142fe565b61107d565b34801561069757600080fd5b506106a06110af565b60405160ff9091168152602001610533565b3480156106be57600080fd5b506106d26106cd366004614377565b611129565b6040516105339190614394565b3480156106eb57600080fd5b506014546105dc565b34801561070057600080fd5b506104fd61070f36600461449c565b61115a565b34801561072057600080fd5b5061052761072f366004614203565b6111df565b34801561074057600080fd5b506105dc61122b565b34801561075557600080fd5b506104fd610764366004614203565b611237565b34801561077557600080fd5b506008546105dc565b34801561078a57600080fd5b506107936112c0565b60405173ffffffffffffffffffffffffffffffffffffffff9091168152602001610533565b3480156107c457600080fd5b506105dc6113c2565b3480156107d957600080fd5b5061057e6113ce565b3480156107ee57600080fd5b506105dc611463565b34801561080357600080fd5b506104fd61068636600461451c565b34801561081e57600080fd5b5061057e6114b5565b34801561083357600080fd5b506106d26114c7565b34801561084857600080fd5b506106d261085736600461425b565b611521565b34801561086857600080fd5b5030610793565b34801561087b57600080fd5b506105dc611583565b34801561089057600080fd5b506105dc61158f565b3480156108a557600080fd5b506106a061159b565b3480156108ba57600080fd5b506104fd6108c9366004614578565b6115a5565b3480156108da57600080fd5b506105dc6108e9366004614377565b73ffffffffffffffffffffffffffffffffffffffff1660009081526020819052604090205490565b34801561091d57600080fd5b506109266117e1565b6040516105339190600060a082019050825182526020830151602083015260408301516040830152606083015160608301526080830151608083015292915050565b34801561097457600080fd5b506104fd61181d565b34801561098957600080fd5b5061099261192d565b60405161053391906145cd565b3480156109ab57600080fd5b506107936119ad565b3480156109c057600080fd5b506105276109cf36600461425b565b611a1d565b3480156109e057600080fd5b50600b5473ffffffffffffffffffffffffffffffffffffffff16610793565b348015610a0b57600080fd5b506105dc611a44565b348015610a2057600080fd5b506104fd610a2f366004614377565b611a50565b348015610a4057600080fd5b506105dc611b1a565b348015610a5557600080fd5b506104fd610a6436600461425b565b611b43565b348015610a7557600080fd5b506104fd610a8436600461425b565b611bb9565b348015610a9557600080fd5b506106d2611bc1565b348015610aaa57600080fd5b506104fd611bcd565b348015610abf57600080fd5b5061057e611ce2565b348015610ad457600080fd5b506104fd610ae3366004614608565b611d7d565b348015610af457600080fd5b506104fd61068636600461462f565b348015610b0f57600080fd5b5060175473ffffffffffffffffffffffffffffffffffffffff16610793565b348015610b3a57600080fd5b506104fd610b4936600461425b565b611de4565b348015610b5a57600080fd5b50610527610b69366004614203565b611e96565b348015610b7a57600080fd5b50610527611f77565b348015610b8f57600080fd5b50610527610b9e366004614203565b612080565b348015610baf57600080fd5b50600a546105dc565b348015610bc457600080fd5b506106d261208e565b348015610bd957600080fd5b5061055c610be836600461425b565b61209a565b348015610bf957600080fd5b50610c35610c083660046146c1565b7fbc197c810000000000000000000000000000000000000000000000000000000098975050505050505050565b6040517fffffffff000000000000000000000000000000000000000000000000000000009091168152602001610533565b348015610c7257600080fd5b50610c7b6120ad565b6040516105339190614780565b348015610c9457600080fd5b506106d2612188565b348015610ca957600080fd5b506104fd610cb836600461425b565b612194565b348015610cc957600080fd5b506104fd610cd836600461449c565b6121d2565b348015610ce957600080fd5b5061055c610cf8366004614077565b612253565b348015610d0957600080fd5b506104fd610d1836600461462f565b611ddc565b348015610d2957600080fd5b506009546105dc565b348015610d3e57600080fd5b506104fd610d4d3660046147bc565b6122da565b348015610d5e57600080fd5b506105dc6122ee565b348015610d7357600080fd5b50604d5473ffffffffffffffffffffffffffffffffffffffff16610793565b348015610d9e57600080fd5b506105dc610dad3660046148ad565b73ffffffffffffffffffffffffffffffffffffffff918216600090815260016020908152604080832093909416825291909152205490565b348015610df157600080fd5b506104fd610e003660046148db565b6122fa565b348015610e1157600080fd5b50610e1a612302565b60405161ffff9091168152602001610533565b348015610e3957600080fd5b50610c35610e4836600461495e565b7ff23a6e61000000000000000000000000000000000000000000000000000000009695505050505050565b348015610e7f57600080fd5b5060075462010000900461ffff166105dc565b610eb9610eb460175473ffffffffffffffffffffffffffffffffffffffff1690565b612314565b565b60007fffffffff0000000000000000000000000000000000000000000000000000000082167f01ffc9a7000000000000000000000000000000000000000000000000000000001480610f4e57507fffffffff0000000000000000000000000000000000000000000000000000000082167f4e2312e000000000000000000000000000000000000000000000000000000000145b92915050565b610f5c613f91565b610f64612338565b610f9a576040517ff1330b4c00000000000000000000000000000000000000000000000000000000815260040160405180910390fd5b610f4e610e92565b6060610fac61235a565b610fb46123f6565b604051602001610fc5929190614992565b604051602081830303815290604052905090565b600033610fe78185856124d4565b5060019392505050565b610ff9612687565b61102f576040517f808ca14f00000000000000000000000000000000000000000000000000000000815260040160405180910390fd5b611038816127bc565b50565b6000610f4e82612849565b60003361105485828561288d565b61105f85858561295e565b60019150505b9392505050565b6000611078600b612bcd565b905090565b6040517f36bcfc9a00000000000000000000000000000000000000000000000000000000815260040160405180910390fd5b60006110bb600b612ca4565b73ffffffffffffffffffffffffffffffffffffffff1663313ce5676040518163ffffffff1660e01b8152600401602060405180830381865afa158015611105573d6000803e3d6000fd5b505050506040513d601f19601f820116820180604052508101906110789190614a13565b73ffffffffffffffffffffffffffffffffffffffff81166000908152601260205260409020606090610f4e90612d37565b611162612687565b611198576040517f808ca14f00000000000000000000000000000000000000000000000000000000815260040160405180910390fd5b7ff3da74d2d1d2bae81f62790988b0907ae7ae344cb326e2f211e3513608e65b13816040516111c791906141b2565b60405180910390a160056111db8282614acb565b5050565b33600081815260016020908152604080832073ffffffffffffffffffffffffffffffffffffffff87168452909152812054909190610fe79082908690611226908790614c14565b6124d4565b6000611078600b612d44565b60016000819052604c6020527f6e89c183824ab41c0f038ee229bd279207f4ee2e884ec8ac5f44a660e4145b075473ffffffffffffffffffffffffffffffffffffffff1633146112b3576040517fa19677f400000000000000000000000000000000000000000000000000000000815260040160405180910390fd5b6112bb610e92565b505050565b600b54604080517fc45a0155000000000000000000000000000000000000000000000000000000008152905160009273ffffffffffffffffffffffffffffffffffffffff169163c45a01559160048083019260209291908290030181865afa158015611330573d6000803e3d6000fd5b505050506040513d601f19601f820116820180604052508101906113549190614c27565b73ffffffffffffffffffffffffffffffffffffffff16634162169f6040518163ffffffff1660e01b8152600401602060405180830381865afa15801561139e573d6000803e3d6000fd5b505050506040513d601f19601f820116820180604052508101906110789190614c27565b6000611078600b612f28565b6060600560000180546113e090614a30565b80601f016020809104026020016040519081016040528092919081815260200182805461140c90614a30565b80156114595780601f1061142e57610100808354040283529160200191611459565b820191906000526020600020905b81548152906001019060200180831161143c57829003601f168201915b5050505050905090565b600061146d611a44565b15806114795750600254155b156114a15760075461107890612710906114979061ffff1682614c44565b6009549190612f48565b6110786114ad60025490565b611497611a44565b6060600560010180546113e090614a30565b6060600b60040180548060200260200160405190810160405280929190818152602001828054801561145957602002820191906000526020600020905b815481526020019060010190808311611504575050505050905090565b60008181526011602090815260409182902080548351818402810184019094528084526060939283018282801561157757602002820191906000526020600020905b815481526020019060010190808311611563575b50505050509050919050565b6000611078600b613072565b6000611078600b61321d565b6000611078613400565b6115ad612687565b6115e3576040517f808ca14f00000000000000000000000000000000000000000000000000000000815260040160405180910390fd5b823b63ffffffff16611621576040517f2515a06600000000000000000000000000000000000000000000000000000000815260040160405180910390fd5b60008373ffffffffffffffffffffffffffffffffffffffff16838360405160240161164d929190614c57565b604080517fffffffffffffffffffffffffffffffffffffffffffffffffffffffffffffffe08184030181529181526020820180517bffffffffffffffffffffffffffffffffffffffffffffffffffffffff167f98b0755000000000000000000000000000000000000000000000000000000000179052516116ce9190614ca4565b600060405180830381855af49150503d8060008114611709576040519150601f19603f3d011682016040523d82523d6000602084013e61170e565b606091505b5050905080611749576040517f55299b4900000000000000000000000000000000000000000000000000000000815260040160405180910390fd5b60175460405173ffffffffffffffffffffffffffffffffffffffff9182168152908516907f5d611f318680d00598bb735d61bacf0c514c6b50e1e5ad30040a4df2b12791c79060200160405180910390a2601780547fffffffffffffffffffffffff00000000000000000000000000000000000000001673ffffffffffffffffffffffffffffffffffffffff86161790555b50505050565b6118136040518060a0016040528060008152602001600081526020016000815260200160008152602001600081525090565b611078600b61341a565b611825612687565b61185b576040517f808ca14f00000000000000000000000000000000000000000000000000000000815260040160405180910390fd5b604d5460016000908152604c6020527f6e89c183824ab41c0f038ee229bd279207f4ee2e884ec8ac5f44a660e4145b0780547fffffffffffffffffffffffff00000000000000000000000000000000000000001673ffffffffffffffffffffffffffffffffffffffff9093169283179055604080517f747cd3d9000000000000000000000000000000000000000000000000000000008152905163747cd3d99260048084019391929182900301818387803b15801561191957600080fd5b505af11580156117db573d6000803e3d6000fd5b6060600b60010180548060200260200160405190810160405280929190818152602001828054801561145957602002820191906000526020600020906000905b82829054906101000a900460010b60010b8152602001906002019060208260010104928301926001038202915080841161196d5790505050505050905090565b600b54604080517f7b9e618d000000000000000000000000000000000000000000000000000000008152905160009273ffffffffffffffffffffffffffffffffffffffff1691637b9e618d9160048083019260209291908290030181865afa15801561139e573d6000803e3d6000fd5b600954600090611a2d600b6134d1565b1015611a3b57506000919050565b610f4e82612849565b6000611078600b6134d1565b611a58612687565b611a8e576040517f808ca14f00000000000000000000000000000000000000000000000000000000815260040160405180910390fd5b60405173ffffffffffffffffffffffffffffffffffffffff821681527f7651d63b1278269cdcd173e3a36edd8c2b5f049a7314dcefde10ea3acd6bd6d19060200160405180910390a1604d80547fffffffffffffffffffffffff00000000000000000000000000000000000000001673ffffffffffffffffffffffffffffffffffffffff831617905550565b600754600090611b3690612710906114979061ffff1682614c44565b6009546110789190614c14565b611b4b612687565b611b81576040517f808ca14f00000000000000000000000000000000000000000000000000000000815260040160405180910390fd5b6040518181527f1441fd786153fa8f008b6fcebb75a50b96e1b572a71b7e3330445d7b5857e9399060200160405180910390a1600955565b611038610e92565b6060611078600b61356c565b611bd5612687565b611c0b576040517f808ca14f00000000000000000000000000000000000000000000000000000000815260040160405180910390fd5b60016000908152604c6020527f6e89c183824ab41c0f038ee229bd279207f4ee2e884ec8ac5f44a660e4145b0780547fffffffffffffffffffffffff00000000000000000000000000000000000000008116909155604080517f93e15ee9000000000000000000000000000000000000000000000000000000008152905173ffffffffffffffffffffffffffffffffffffffff9092169283926393e15ee992600480820193929182900301818387803b158015611cc757600080fd5b505af1158015611cdb573d6000803e3d6000fd5b5050505050565b600b54606090611d099073ffffffffffffffffffffffffffffffffffffffff166004613755565b60068054600090611d1990614a30565b8110611d2757611d27614cc0565b815460011615611d465790600052602060002090602091828204019190065b9054901a7f010000000000000000000000000000000000000000000000000000000000000002604051602001610fc5929190614cef565b6000838152604c6020526040902054839073ffffffffffffffffffffffffffffffffffffffff163314611ddc576040517fa19677f400000000000000000000000000000000000000000000000000000000815260040160405180910390fd5b6117db610e92565b611dec612687565b611e22576040517f808ca14f00000000000000000000000000000000000000000000000000000000815260040160405180910390fd5b600954811015611e5e576040517ffad57d1400000000000000000000000000000000000000000000000000000000815260040160405180910390fd5b6040518181527fe3ace5d94bde0cd21c2e532e3ec977a9b6db39d99fb47e6c560f276c4ef042589060200160405180910390a1600a55565b33600081815260016020908152604080832073ffffffffffffffffffffffffffffffffffffffff8716845290915281205490919083811015611f5f576040517f08c379a000000000000000000000000000000000000000000000000000000000815260206004820152602560248201527f45524332303a2064656372656173656420616c6c6f77616e63652062656c6f7760448201527f207a65726f00000000000000000000000000000000000000000000000000000060648201526084015b60405180910390fd5b611f6c82868684036124d4565b506001949350505050565b600a54600090611f87600b6134d1565b1015611f935750600090565b600080611fa0600b6138e7565b915061ffff16915080600003611fb95760009250505090565b6040805160a08101825260075461ffff808216835262010000909104166020820152600854918101919091526009546060820152600a5460808201526000906120029084613936565b90506002816002811115612018576120186140a7565b0361203d576009546120298461398b565b10612038576001935050505090565b612076565b6001816002811115612051576120516140a7565b036120765761205e611b1a565b612067846139ae565b10612076576001935050505090565b6000935050505090565b600033610fe781858561295e565b6060611078600b6139f4565b6120a2613f91565b610f4e600b83613b40565b600c5460609067ffffffffffffffff8111156120cb576120cb6143d8565b6040519080825280602002602001820160405280156120f4578160200160208202803683370190505b50905060005b600c5481101561218457600c8054600d916000918490811061211e5761211e614cc0565b60009182526020808320601083040154600f9092166002026101000a90910460010b8352820192909252604001902054825161ffff9091169083908390811061216957612169614cc0565b61ffff909216602092830291909101909101526001016120fa565b5090565b6060611078600b613c0b565b61219c612687565b611bb9576040517f808ca14f00000000000000000000000000000000000000000000000000000000815260040160405180910390fd5b6121da612687565b612210576040517f808ca14f00000000000000000000000000000000000000000000000000000000815260040160405180910390fd5b7f039efd204a16c45dbd0adc05af0e996a397123584a81af9b8d0484475d7711038160405161223f91906141b2565b60405180910390a160066111db8282614acb565b61225b613f91565b612263613ce3565b612299576040517f8955e38200000000000000000000000000000000000000000000000000000000815260040160405180910390fd5b6122a1611b1a565b831015610f9a576040517f266bd47800000000000000000000000000000000000000000000000000000000815260040160405180910390fd5b6122e2610e92565b50505050505050505050565b6000611078600b613cec565b611cdb610e92565b600061230e600b6138e7565b50919050565b3660008037600080366000845af43d6000803e808015612333573d6000f35b3d6000fd5b600060025b60195460ff166002811115612354576123546140a7565b10905090565b6060612366600b612ca4565b73ffffffffffffffffffffffffffffffffffffffff166395d89b416040518163ffffffff1660e01b8152600401600060405180830381865afa1580156123b0573d6000803e3d6000fd5b505050506040513d6000823e601f3d9081017fffffffffffffffffffffffffffffffffffffffffffffffffffffffffffffffe01682016040526110789190810190614d85565b600b54604080517f0aa7d2f9000000000000000000000000000000000000000000000000000000008152905160609273ffffffffffffffffffffffffffffffffffffffff1691630aa7d2f99160048083019260209291908290030181865afa158015612466573d6000803e3d6000fd5b505050506040513d601f19601f8201168201806040525081019061248a9190614c27565b73ffffffffffffffffffffffffffffffffffffffff16637284e4166040518163ffffffff1660e01b8152600401600060405180830381865afa1580156123b0573d6000803e3d6000fd5b73ffffffffffffffffffffffffffffffffffffffff8316612576576040517f08c379a0000000000000000000000000000000000000000000000000000000008152602060048201526024808201527f45524332303a20617070726f76652066726f6d20746865207a65726f2061646460448201527f72657373000000000000000000000000000000000000000000000000000000006064820152608401611f56565b73ffffffffffffffffffffffffffffffffffffffff8216612619576040517f08c379a000000000000000000000000000000000000000000000000000000000815260206004820152602260248201527f45524332303a20617070726f766520746f20746865207a65726f20616464726560448201527f73730000000000000000000000000000000000000000000000000000000000006064820152608401611f56565b73ffffffffffffffffffffffffffffffffffffffff83811660008181526001602090815260408083209487168084529482529182902085905590518481527f8c5be1e5ebec7d5bd14f71427d1e84f3dd0314c0f7b2291e5b200ac8c7c3b925910160405180910390a3505050565b600b54604080517fc45a0155000000000000000000000000000000000000000000000000000000008152905160009273ffffffffffffffffffffffffffffffffffffffff169163c45a01559160048083019260209291908290030181865afa1580156126f7573d6000803e3d6000fd5b505050506040513d601f19601f8201168201806040525081019061271b9190614c27565b73ffffffffffffffffffffffffffffffffffffffff16634162169f6040518163ffffffff1660e01b8152600401602060405180830381865afa158015612765573d6000803e3d6000fd5b505050506040513d601f19601f820116820180604052508101906127899190614c27565b73ffffffffffffffffffffffffffffffffffffffff163373ffffffffffffffffffffffffffffffffffffffff1614905090565b60405160ff821681527ff06951584aff5272705bb7ac4526065b9af906b0346b9a8b44d60153d25d860f9060200160405180910390a18060ff166002811115612807576128076140a7565b601980547fffffffffffffffffffffffffffffffffffffffffffffffffffffffffffffff00166001836002811115612841576128416140a7565b021790555050565b600080612857600b84613b40565b90508060e001518015612876575061286f600b613d19565b8160600151105b156128845750600192915050565b50600092915050565b73ffffffffffffffffffffffffffffffffffffffff8381166000908152600160209081526040808320938616835292905220547fffffffffffffffffffffffffffffffffffffffffffffffffffffffffffffffff81146117db5781811015612951576040517f08c379a000000000000000000000000000000000000000000000000000000000815260206004820152601d60248201527f45524332303a20696e73756666696369656e7420616c6c6f77616e63650000006044820152606401611f56565b6117db84848484036124d4565b73ffffffffffffffffffffffffffffffffffffffff8316612a01576040517f08c379a000000000000000000000000000000000000000000000000000000000815260206004820152602560248201527f45524332303a207472616e736665722066726f6d20746865207a65726f20616460448201527f64726573730000000000000000000000000000000000000000000000000000006064820152608401611f56565b73ffffffffffffffffffffffffffffffffffffffff8216612aa4576040517f08c379a000000000000000000000000000000000000000000000000000000000815260206004820152602360248201527f45524332303a207472616e7366657220746f20746865207a65726f206164647260448201527f65737300000000000000000000000000000000000000000000000000000000006064820152608401611f56565b73ffffffffffffffffffffffffffffffffffffffff831660009081526020819052604090205481811015612b5a576040517f08c379a000000000000000000000000000000000000000000000000000000000815260206004820152602660248201527f45524332303a207472616e7366657220616d6f756e742065786365656473206260448201527f616c616e636500000000000000000000000000000000000000000000000000006064820152608401611f56565b73ffffffffffffffffffffffffffffffffffffffff848116600081815260208181526040808320878703905593871680835291849020805487019055925185815290927fddf252ad1be2c89b69c2b068fc378daa952ba7f163c4a11628f55a4df523b3ef910160405180910390a36117db565b6000806000805b6001850154811015612c91576000856001018281548110612bf757612bf7614cc0565b60009182526020909120601082040154600f9091166002026101000a900460010b1315612c275760019250612c89565b6000856001018281548110612c3e57612c3e614cc0565b60009182526020909120601082040154600f9091166002026101000a900460010b1215612c89577fffffffffffffffffffffffffffffffffffffffffffffffffffffffffffffffff91505b600101612bd4565b50612c9c8183614dfc565b949350505050565b8054604080517f7b9e618d000000000000000000000000000000000000000000000000000000008152905160009273ffffffffffffffffffffffffffffffffffffffff1691637b9e618d9160048083019260209291908290030181865afa158015612d13573d6000803e3d6000fd5b505050506040513d601f19601f82011682018060405250810190610f4e9190614c27565b6060600061106583613e21565b600080612d5083613e7b565b83546040517ffaf07bf300000000000000000000000000000000000000000000000000000000815291925060009173ffffffffffffffffffffffffffffffffffffffff9091169063faf07bf390612dae906001880190600401614e3b565b600060405180830381865afa158015612dcb573d6000803e3d6000fd5b505050506040513d6000823e601f3d9081017fffffffffffffffffffffffffffffffffffffffffffffffffffffffffffffffe0168201604052612e11919081019061514e565b905060005b8151811015612f2057600085600a016000876001018481548110612e3c57612e3c614cc0565b60009182526020808320601083040154600f9092166002026101000a90910460010b83528201929092526040019020549050801580612e945750838281518110612e8857612e88614cc0565b60200260200101516000145b80612eb85750828281518110612eac57612eac614cc0565b60200260200101516000145b612f0857612f03838381518110612ed157612ed1614cc0565b6020026020010151858481518110612eeb57612eeb614cc0565b602002602001015183612f489092919063ffffffff16565b612f0b565b60005b612f159086614c14565b945050600101612e16565b505050919050565b6000612f35826008015490565b612f3e83613cec565b610f4e9190614c44565b600080807fffffffffffffffffffffffffffffffffffffffffffffffffffffffffffffffff85870985870292508281108382030391505080600003612fa057838281612f9657612f966151f4565b0492505050611065565b808411613009576040517f08c379a000000000000000000000000000000000000000000000000000000000815260206004820152601560248201527f4d6174683a206d756c446976206f766572666c6f7700000000000000000000006044820152606401611f56565b60008486880960026001871981018816978890046003810283188082028403028082028403028082028403028082028403028082028403029081029092039091026000889003889004909101858311909403939093029303949094049190911702949350505050565b60008061307e83613e7b565b83546040517ffaf07bf300000000000000000000000000000000000000000000000000000000815291925060009173ffffffffffffffffffffffffffffffffffffffff9091169063faf07bf3906130dc906001880190600401614e3b565b600060405180830381865afa1580156130f9573d6000803e3d6000fd5b505050506040513d6000823e601f3d9081017fffffffffffffffffffffffffffffffffffffffffffffffffffffffffffffffe016820160405261313f919081019061514e565b9050600061314c856139f4565b905060005b825181101561321457600082828151811061316e5761316e614cc0565b6020026020010151905080600014806131a0575084828151811061319457613194614cc0565b60200260200101516000145b806131c457508382815181106131b8576131b8614cc0565b60200260200101516000145b6131fc576131f78483815181106131dd576131dd614cc0565b6020026020010151868481518110612eeb57612eeb614cc0565b6131ff565b60005b6132099087614c14565b955050600101613151565b50505050919050565b60008061322983613e7b565b83546040517ffaf07bf300000000000000000000000000000000000000000000000000000000815291925060009173ffffffffffffffffffffffffffffffffffffffff9091169063faf07bf390613287906001880190600401614e3b565b600060405180830381865afa1580156132a4573d6000803e3d6000fd5b505050506040513d6000823e601f3d9081017fffffffffffffffffffffffffffffffffffffffffffffffffffffffffffffffe01682016040526132ea919081019061514e565b905060006132f7856139f4565b905060005b825181101561321457600086600a01600088600101848154811061332257613322614cc0565b90600052602060002090601091828204019190066002029054906101000a900460010b60010b60010b81526020019081526020016000205483838151811061336c5761336c614cc0565b602002602001015161337e9190614c14565b90508015806133a6575084828151811061339a5761339a614cc0565b60200260200101516000145b806133ca57508382815181106133be576133be614cc0565b60200260200101516000145b6133e8576133e38483815181106131dd576131dd614cc0565b6133eb565b60005b6133f59087614c14565b9550506001016132fc565b60195460009060ff166002811115611078576110786140a7565b61344c6040518060a0016040528060008152602001600081526020016000815260200160008152602001600081525090565b6040518060a0016040528060008152602001613467846134d1565b8152602001613477846009015490565b815260200161348584613072565b815260200161349384612d44565b815250905080608001518160600151826040015183602001516134b69190614c14565b6134c09190614c14565b6134ca9190614c14565b8152919050565b60006134dc82612ca4565b6040517f70a0823100000000000000000000000000000000000000000000000000000000815230600482015273ffffffffffffffffffffffffffffffffffffffff91909116906370a0823190602401602060405180830381865afa158015613548573d6000803e3d6000fd5b505050506040513d601f19601f82011682018060405250810190610f4e9190615223565b6060613579826001015490565b67ffffffffffffffff811115613591576135916143d8565b6040519080825280602002602001820160405280156135ba578160200160208202803683370190505b50905060006135c883613e7b565b83546040517ffaf07bf300000000000000000000000000000000000000000000000000000000815291925060009173ffffffffffffffffffffffffffffffffffffffff9091169063faf07bf390613626906001880190600401614e3b565b600060405180830381865afa158015613643573d6000803e3d6000fd5b505050506040513d6000823e601f3d9081017fffffffffffffffffffffffffffffffffffffffffffffffffffffffffffffffe0168201604052613689919081019061514e565b90506000613696856139f4565b905060005b6001860154811015613214578381815181106136b9576136b9614cc0565b602002602001015160001461372d576137288282815181106136dd576136dd614cc0565b60200260200101518583815181106136f7576136f7614cc0565b602002602001015185848151811061371157613711614cc0565b6020026020010151612f489092919063ffffffff16565b613730565b60005b85828151811061374257613742614cc0565b602090810291909101015260010161369b565b60608160ff1667ffffffffffffffff811115613773576137736143d8565b6040519080825280601f01601f19166020018201604052801561379d576020820181803683370190505b5060408051808201909152601081527f30313233343536373839616263646566000000000000000000000000000000006020820152909150836137e184602761523c565b6137ec906004615255565b60ff168173ffffffffffffffffffffffffffffffffffffffff16901c905060005b8460ff168110156138de5760048273ffffffffffffffffffffffffffffffffffffffff16901c9150826010836138439190615271565b60ff168151811061385657613856614cc0565b01602001517fff000000000000000000000000000000000000000000000000000000000000001684600161388d8460ff8a16614c44565b6138979190614c44565b815181106138a7576138a7614cc0565b60200101907effffffffffffffffffffffffffffffffffffffffffffffffffffffffffffff1916908160001a90535060010161380d565b50505092915050565b60008060006138f58461341a565b805192509050600082900361390d5760009250613930565b8051602082015161392d91612710916139269082614c44565b9190612f48565b92505b50915091565b6000818360200151846000015161394d91906152cb565b61ffff16101561395f57506002610f4e565b602083015183518391613971916152e6565b61ffff16111561398357506001610f4e565b506000610f4e565b600754600090610f4e906139a39061ffff1684614c44565b83613926600b613072565b600754600090610f4e906139c89061ffff16612710614c44565b6139d484612710614c44565b6139de9190614c44565b6139ea84612710614c44565b613926600b6134d1565b60606000613a03836001015490565b67ffffffffffffffff811115613a1b57613a1b6143d8565b604051908082528060200260200182016040528015613a44578160200160208202803683370190505b50905060005b6001840154811015613a965730828281518110613a6957613a69614cc0565b73ffffffffffffffffffffffffffffffffffffffff90921660209283029190910190910152600101613a4a565b50613aa083613f24565b73ffffffffffffffffffffffffffffffffffffffff16634e1273f482856004016040518363ffffffff1660e01b8152600401613add929190615341565b600060405180830381865afa158015613afa573d6000803e3d6000fd5b505050506040513d6000823e601f3d9081017fffffffffffffffffffffffffffffffffffffffffffffffffffffffffffffffe0168201604052611065919081019061514e565b613b48613f91565b6000828152600580850160209081526040928390208351610100810185528154815260018083015473ffffffffffffffffffffffffffffffffffffffff9081169483019490945260028301549093169481019490945260038101546060850152600481015460808501529182015460a0840152600682015460c084019160ff90911690811115613bda57613bda6140a7565b6001811115613beb57613beb6140a7565b815260069190910154610100900460ff1615156020909101529392505050565b6060613c18826001015490565b67ffffffffffffffff811115613c3057613c306143d8565b604051908082528060200260200182016040528015613c59578160200160208202803683370190505b50905060005b600183015481101561230e5782600a016000846001018381548110613c8657613c86614cc0565b90600052602060002090601091828204019190066002029054906101000a900460010b60010b60010b815260200190815260200160002054828281518110613cd057613cd0614cc0565b6020908102919091010152600101613c5f565b6000600161233d565b6000613cf78261321d565b6009830154613d05846134d1565b613d0f9190614c14565b610f4e9190614c14565b8054604080517f0aa7d2f9000000000000000000000000000000000000000000000000000000008152905160009273ffffffffffffffffffffffffffffffffffffffff1691630aa7d2f99160048083019260209291908290030181865afa158015613d88573d6000803e3d6000fd5b505050506040513d601f19601f82011682018060405250810190613dac9190614c27565b73ffffffffffffffffffffffffffffffffffffffff16639d888e866040518163ffffffff1660e01b8152600401606060405180830381865afa158015613df6573d6000803e3d6000fd5b505050506040513d601f19601f82011682018060405250810190613e1a91906153ae565b5192915050565b60608160000180548060200260200160405190810160405280929190818152602001828054801561157757602002820191906000526020600020908154815260200190600101908083116115635750505050509050919050565b6060613e8682613f24565b73ffffffffffffffffffffffffffffffffffffffff166377954ac2836004016040518263ffffffff1660e01b8152600401613ec1919061540a565b600060405180830381865afa158015613ede573d6000803e3d6000fd5b505050506040513d6000823e601f3d9081017fffffffffffffffffffffffffffffffffffffffffffffffffffffffffffffffe0168201604052610f4e919081019061514e565b8054604080517e64041d000000000000000000000000000000000000000000000000000000008152905160009273ffffffffffffffffffffffffffffffffffffffff16916264041d9160048083019260209291908290030181865afa158015612d13573d6000803e3d6000fd5b60405180610100016040528060008152602001600073ffffffffffffffffffffffffffffffffffffffff168152602001600073ffffffffffffffffffffffffffffffffffffffff16815260200160008152602001600081526020016000815260200160006001811115614006576140066140a7565b8152600060209091015290565b60006020828403121561402557600080fd5b81357fffffffff000000000000000000000000000000000000000000000000000000008116811461106557600080fd5b73ffffffffffffffffffffffffffffffffffffffff8116811461103857600080fd5b6000806040838503121561408a57600080fd5b82359150602083013561409c81614055565b809150509250929050565b7f4e487b7100000000000000000000000000000000000000000000000000000000600052602160045260246000fd5b60006101008201905082518252602083015173ffffffffffffffffffffffffffffffffffffffff80821660208501528060408601511660408501525050606083015160608301526080830151608083015260a083015160a083015260c08301516002811061416d577f4e487b7100000000000000000000000000000000000000000000000000000000600052602160045260246000fd5b8060c08401525060e083015161418760e084018215159052565b5092915050565b60005b838110156141a9578181015183820152602001614191565b50506000910152565b60208152600082518060208401526141d181604085016020870161418e565b601f017fffffffffffffffffffffffffffffffffffffffffffffffffffffffffffffffe0169190910160400192915050565b6000806040838503121561421657600080fd5b823561422181614055565b946020939093013593505050565b60ff8116811461103857600080fd5b60006020828403121561425057600080fd5b81356110658161422f565b60006020828403121561426d57600080fd5b5035919050565b60008060006060848603121561428957600080fd5b833561429481614055565b925060208401356142a481614055565b929592945050506040919091013590565b60008083601f8401126142c757600080fd5b50813567ffffffffffffffff8111156142df57600080fd5b6020830191508360208285010111156142f757600080fd5b9250929050565b60008060008060008060a0878903121561431757600080fd5b8635955060208701358060010b811461432f57600080fd5b94506040870135935060608701359250608087013567ffffffffffffffff81111561435957600080fd5b61436589828a016142b5565b979a9699509497509295939492505050565b60006020828403121561438957600080fd5b813561106581614055565b6020808252825182820181905260009190848201906040850190845b818110156143cc578351835292840192918401916001016143b0565b50909695505050505050565b7f4e487b7100000000000000000000000000000000000000000000000000000000600052604160045260246000fd5b604051601f82017fffffffffffffffffffffffffffffffffffffffffffffffffffffffffffffffe016810167ffffffffffffffff8111828210171561444e5761444e6143d8565b604052919050565b600067ffffffffffffffff821115614470576144706143d8565b50601f017fffffffffffffffffffffffffffffffffffffffffffffffffffffffffffffffe01660200190565b6000602082840312156144ae57600080fd5b813567ffffffffffffffff8111156144c557600080fd5b8201601f810184136144d657600080fd5b80356144e96144e482614456565b614407565b8181528560208385010111156144fe57600080fd5b81602084016020830137600091810160200191909152949350505050565b6000806000806060858703121561453257600080fd5b843561453d81614055565b935060208501359250604085013567ffffffffffffffff81111561456057600080fd5b61456c878288016142b5565b95989497509550505050565b60008060006040848603121561458d57600080fd5b833561459881614055565b9250602084013567ffffffffffffffff8111156145b457600080fd5b6145c0868287016142b5565b9497909650939450505050565b6020808252825182820181905260009190848201906040850190845b818110156143cc578351600190810b84529385019392850192016145e9565b60008060006060848603121561461d57600080fd5b8335925060208401356142a481614055565b6000806000806060858703121561464557600080fd5b843561465081614055565b9350602085013561466081614055565b9250604085013567ffffffffffffffff81111561456057600080fd5b60008083601f84011261468e57600080fd5b50813567ffffffffffffffff8111156146a657600080fd5b6020830191508360208260051b85010111156142f757600080fd5b60008060008060008060008060a0898b0312156146dd57600080fd5b88356146e881614055565b975060208901356146f881614055565b9650604089013567ffffffffffffffff8082111561471557600080fd5b6147218c838d0161467c565b909850965060608b013591508082111561473a57600080fd5b6147468c838d0161467c565b909650945060808b013591508082111561475f57600080fd5b5061476c8b828c016142b5565b999c989b5096995094979396929594505050565b6020808252825182820181905260009190848201906040850190845b818110156143cc57835161ffff168352928401929184019160010161479c565b60008060008060008060008060008060a08b8d0312156147db57600080fd5b8a3567ffffffffffffffff808211156147f357600080fd5b6147ff8e838f0161467c565b909c509a5060208d013591508082111561481857600080fd5b6148248e838f0161467c565b909a50985060408d013591508082111561483d57600080fd5b6148498e838f0161467c565b909850965060608d013591508082111561486257600080fd5b61486e8e838f0161467c565b909650945060808d013591508082111561488757600080fd5b506148948d828e016142b5565b915080935050809150509295989b9194979a5092959850565b600080604083850312156148c057600080fd5b82356148cb81614055565b9150602083013561409c81614055565b6000806000806000606086880312156148f357600080fd5b85356148fe81614055565b9450602086013567ffffffffffffffff8082111561491b57600080fd5b61492789838a0161467c565b9096509450604088013591508082111561494057600080fd5b5061494d888289016142b5565b969995985093965092949392505050565b60008060008060008060a0878903121561497757600080fd5b863561498281614055565b9550602087013561432f81614055565b7f4368726f6d617469634c50202d200000000000000000000000000000000000008152600083516149ca81600e85016020880161418e565b7f202d200000000000000000000000000000000000000000000000000000000000600e918401918201528351614a0781601184016020880161418e565b01601101949350505050565b600060208284031215614a2557600080fd5b81516110658161422f565b600181811c90821680614a4457607f821691505b60208210810361230e577f4e487b7100000000000000000000000000000000000000000000000000000000600052602260045260246000fd5b601f8211156112bb57600081815260208120601f850160051c81016020861015614aa45750805b601f850160051c820191505b81811015614ac357828155600101614ab0565b505050505050565b815167ffffffffffffffff811115614ae557614ae56143d8565b614af981614af38454614a30565b84614a7d565b602080601f831160018114614b4c5760008415614b165750858301515b7fffffffffffffffffffffffffffffffffffffffffffffffffffffffffffffffff600386901b1c1916600185901b178555614ac3565b6000858152602081207fffffffffffffffffffffffffffffffffffffffffffffffffffffffffffffffe08616915b82811015614b9957888601518255948401946001909101908401614b7a565b5085821015614bd557878501517fffffffffffffffffffffffffffffffffffffffffffffffffffffffffffffffff600388901b60f8161c191681555b5050505050600190811b01905550565b7f4e487b7100000000000000000000000000000000000000000000000000000000600052601160045260246000fd5b80820180821115610f4e57610f4e614be5565b600060208284031215614c3957600080fd5b815161106581614055565b81810381811115610f4e57610f4e614be5565b60208152816020820152818360408301376000818301604090810191909152601f9092017fffffffffffffffffffffffffffffffffffffffffffffffffffffffffffffffe0160101919050565b60008251614cb681846020870161418e565b9190910192915050565b7f4e487b7100000000000000000000000000000000000000000000000000000000600052603260045260246000fd5b7f434c502d00000000000000000000000000000000000000000000000000000000815260008351614d2781600485016020880161418e565b7f2d0000000000000000000000000000000000000000000000000000000000000060049390910192830152507fff00000000000000000000000000000000000000000000000000000000000000919091166005820152600601919050565b600060208284031215614d9757600080fd5b815167ffffffffffffffff811115614dae57600080fd5b8201601f81018413614dbf57600080fd5b8051614dcd6144e482614456565b818152856020838501011115614de257600080fd5b614df382602083016020860161418e565b95945050505050565b600081810b9083900b01607f81137fffffffffffffffffffffffffffffffffffffffffffffffffffffffffffffff8082121715610f4e57610f4e614be5565b60006020808301818452808554614e56818490815260200190565b60008881526020812094509092505b81600f82011015614fa7578354600181810b8552601082901c810b878601526040614e98818701848a1c840b60010b9052565b6060614ead8188018560301c850b60010b9052565b6080614ec181890186851c860b60010b9052565b60a09250614ed88389018660501c860b60010b9052565b60c0614eec818a0187851c870b60010b9052565b60e09250614f03838a018760701c870b60010b9052565b85821c850b60010b6101008a0152614f266101208a018760901c870b60010b9052565b85841c850b60010b6101408a0152614f496101608a018760b01c870b60010b9052565b85811c850b60010b6101808a01525050614f6e6101a088018560d01c850b60010b9052565b83811c830b60010b6101c08801525050614f916101e086018360f01d60010b9052565b9490940193506102009290920191601001614e65565b92549281811015614fbf57600184810b845292850192015b81811015614fd957601084901c60010b8352918401916001015b81811015614ff15783851c60010b8352918401916001015b8181101561500b57603084901c60010b8352918401916001015b8181101561502557604084901c60010b8352918401916001015b8181101561503f57605084901c60010b8352918401916001015b8181101561505957606084901c60010b8352918401916001015b8181101561507357607084901c60010b8352918401916001015b8181101561508d57608084901c60010b8352918401916001015b818110156150a757609084901c60010b8352918401916001015b818110156150c15760a084901c60010b8352918401916001015b818110156150db5760b084901c60010b8352918401916001015b818110156150f55760c084901c60010b8352918401916001015b8181101561510f5760d084901c60010b8352918401916001015b818110156151295760e084901c60010b8352918401916001015b818110156143cc57615140838560f01d60010b9052565b505091909101949350505050565b6000602080838503121561516157600080fd5b825167ffffffffffffffff8082111561517957600080fd5b818501915085601f83011261518d57600080fd5b81518181111561519f5761519f6143d8565b8060051b91506151b0848301614407565b81815291830184019184810190888411156151ca57600080fd5b938501935b838510156151e8578451825293850193908501906151cf565b98975050505050505050565b7f4e487b7100000000000000000000000000000000000000000000000000000000600052601260045260246000fd5b60006020828403121561523557600080fd5b5051919050565b60ff8281168282160390811115610f4e57610f4e614be5565b60ff818116838216029081169081811461418757614187614be5565b600073ffffffffffffffffffffffffffffffffffffffff808416806152bf577f4e487b7100000000000000000000000000000000000000000000000000000000600052601260045260246000fd5b92169190910692915050565b61ffff81811683821601908082111561418757614187614be5565b61ffff82811682821603908082111561418757614187614be5565b6000815480845260208085019450836000528060002060005b838110156153365781548752958201956001918201910161531a565b509495945050505050565b604080825283519082018190526000906020906060840190828701845b8281101561539057815173ffffffffffffffffffffffffffffffffffffffff168452928401929084019060010161535e565b505050838103828501526153a48186615301565b9695505050505050565b6000606082840312156153c057600080fd5b6040516060810181811067ffffffffffffffff821117156153e3576153e36143d8565b80604052508251815260208301516020820152604083015160408201528091505092915050565b602081526000611065602083018461530156fea264697066735822122008f5976554aa4bc29c9e2fed3618fe11c9e5c7abbe2d82e45facc30346bb92f364736f6c63430008130033",
  "devdoc": {
    "errors": {
      "AddLiquidityNotAllowed()": [
        {
          "details": "Error indicating that adding liquidity is not allowed during private mode."
        }
      ],
      "AddLiquiditySuspended()": [
        {
          "details": "Error indicating that adding liquidity is suspended."
        }
      ],
      "AlreadySettled()": [
        {
          "details": "Error indicating that the action has already been settled."
        }
      ],
      "InvalidMinHoldingValueToRebalance()": [
        {
          "details": "Signifies that an invalid minHoldingValueToRebalance value has been encountered."
        }
      ],
      "InvalidRebalanceBPS()": [
        {
          "details": "Signifies that an invalid rebalance basis points value has been encountered."
        }
      ],
      "InvalidReceiptId()": [
        {
          "details": "Error indicating invalid receitp ID."
        }
      ],
      "InvalidUtilizationTarget(uint16)": [
        {
          "details": "The invalid target basis points."
        }
      ],
      "NotAutomationCalled()": [
        {
          "details": "Thrown when an automation call is not made"
        }
      ],
      "NotImplementedInLogicContract()": [
        {
          "details": "Indicates that the functionality is not implemented in the logic contract."
        }
      ],
      "NotKeeperCalled()": [
        {
          "details": "Thrown when the keeper is not called."
        }
      ],
      "NotMarket()": [
        {
          "details": "Indicates that the operation is not applicable to the market."
        }
      ],
      "NotMatchDistributionLength(uint256,uint256)": [
        {
          "details": "Thrown when the lengths of the fee array and distribution array do not match.",
          "params": {
            "distributionLength": "The length of the distribution array.",
            "feeLength": "The length of the fee array."
          }
        }
      ],
      "NotOwner()": [
        {
          "details": "Signifies that the caller is not the owner of the contract"
        }
      ],
      "OnlyAccessableByDao()": [
        {
          "details": "Signifies that the function is only accessible by the DAO"
        }
      ],
      "OnlyBatchCall()": [
        {
          "details": "Denotes that the function can only be called within a batch call."
        }
      ],
      "OracleVersionError()": [
        {
          "details": "Error indicating an invalid oracle version."
        }
      ],
      "RemoveLiquiditySuspended()": [
        {
          "details": "Error indicating that removing liquidity is suspended."
        }
      ],
      "TooSmallAmountToAddLiquidity()": [
        {
          "details": "Throws an error indicating that the amount to add liquidity is too small."
        }
      ],
      "UnknownLPAction()": [
        {
          "details": "Thrown when an unknown liquidity provider action is encountered"
        }
      ],
      "UpgradeFailed()": [
        {
          "details": "Error indicating that upgrading failed."
        }
      ],
      "UpgradeFailedNotContractAddress()": [
        {
          "details": "Error indicating that upgrading failed with a invalid contract address."
        }
      ],
      "ZeroAddressError()": [
        {
          "details": "Error indicating an attempt to use a zero address."
        }
      ],
      "ZeroRemoveLiquidityError()": [
        {
          "details": "Error indicating that removing zero amount of liquidity is invalid."
        }
      ]
    },
    "events": {
      "AddLiquidity(uint256,address,address,uint256,uint256)": {
        "params": {
          "amount": "Amount of liquidity added in the settlement token.",
          "oracleVersion": "Version of the oracle used.",
          "provider": "Address of the liquidity provider.",
          "receiptId": "Unique identifier for the liquidity addition receipt.",
          "recipient": "Address of the recipient."
        }
      },
      "AddLiquiditySettled(uint256,address,address,uint256,uint256,uint256)": {
        "params": {
          "keeperFee": "Fee paid to the keeper.",
          "lpTokenAmount": "Amount of LP tokens issued.",
          "provider": "Address of the liquidity provider.",
          "receiptId": "Unique identifier for the liquidity addition receipt.",
          "recipient": "Address of the recipient.",
          "settlementAdded": "Settlement added to the liquidity"
        }
      },
      "Approval(address,address,uint256)": {
        "details": "Emitted when the allowance of a `spender` for an `owner` is set by a call to {approve}. `value` is the new allowance."
      },
      "RebalanceAddLiquidity(uint256,uint256,uint256,uint256)": {
        "params": {
          "amount": "Amount of liquidity added during rebalance.",
          "currentUtility": "Current utility of the liquidity provider.",
          "oracleVersion": "Version of the oracle used.",
          "receiptId": "Unique identifier for the rebalance liquidity addition receipt."
        }
      },
      "RebalanceRemoveLiquidity(uint256,uint256,uint256)": {
        "params": {
          "currentUtility": "Current utility of the liquidity pool.",
          "oracleVersion": "Version of the oracle used.",
          "receiptId": "Unique identifier for the rebalance liquidity removal receipt."
        }
      },
      "RebalanceSettled(uint256,uint256)": {
        "params": {
          "keeperFee": "Fee paid to the keeper.",
          "receiptId": "Unique identifier for the settled rebalance receipt."
        }
      },
      "RemoveLiquidity(uint256,address,address,uint256,uint256)": {
        "params": {
          "lpTokenAmount": "Amount of LP tokens to be removed.",
          "oracleVersion": "Version of the oracle used.",
          "provider": "Address of the liquidity provider.",
          "receiptId": "Unique identifier for the liquidity removal receipt.",
          "recipient": "Address of the recipient."
        }
      },
      "RemoveLiquiditySettled(uint256,address,address,uint256,uint256,uint256,uint256)": {
        "params": {
          "burningAmount": "Amount of LP tokens burned.",
          "keeperFee": "Fee paid to the keeper.",
          "provider": "Address of the liquidity provider.",
          "receiptId": "Unique identifier for the settled liquidity removal receipt.",
          "recipient": "Address of the recipient.",
          "refundedAmount": "Amount refunded to the provider.",
          "withdrawnSettlementAmount": "Withdrawn settlement amount."
        }
      },
      "SetAutomateLP(address)": {
        "params": {
          "automate": "The address of the AutomateLP contract."
        }
      },
      "SetAutomationFeeReserved(uint256)": {
        "details": "Emitted when the automation fee reserved value is updated.",
        "params": {
          "newValue": "The new value of the automation fee reserved."
        }
      },
      "SetLpName(string)": {
        "details": "Emitted when the name of the liquidity provider is updated.",
        "params": {
          "name": "The new name of the liquidity provider."
        }
      },
      "SetLpTag(string)": {
        "details": "Emitted when the tag of the liquidity provider is updated.",
        "params": {
          "tag": "The new tag associated with the liquidity provider."
        }
      },
      "SetMinHoldingValueToRebalance(uint256)": {
        "details": "Emitted when the minimum holding value to trigger rebalance is updated.",
        "params": {
          "newValue": "The new value of the minimum holding value to rebalance."
        }
      },
      "SetPrivateMode(bool)": {
        "details": "Emitted when the private/public mode is set.",
        "params": {
          "mode": "The new private/public mode ."
        }
      },
      "SetSuspendMode(uint8)": {
        "details": "Emitted when the suspension mode is set.",
        "params": {
          "mode": "The new suspension mode."
        }
      },
      "Transfer(address,address,uint256)": {
        "details": "Emitted when `value` tokens are moved from one account (`from`) to another (`to`). Note that `value` may be zero."
      },
      "Upgraded(address,address)": {
        "details": "Emitted when logic contract of the LP contract is upgraded.",
        "params": {
          "newLogic": "The address of the new logic.",
          "previousLogic": "The address of the previous logic."
        }
      }
    },
    "kind": "dev",
    "methods": {
      "addLiquidity(uint256,address)": {
        "details": "Adds liquidity to the Chromatic Protocol, minting LP tokens for the specified amount and assigning them to the recipient.",
        "params": {
          "amount": "The amount of liquidity to add.",
          "recipient": "The address of the recipient for the LP tokens."
        },
        "returns": {
          "_0": "ChromaticLPReceipt A data structure representing the receipt of the liquidity addition."
        }
      },
      "addLiquidityBatchCallback(address,address,bytes)": {
        "details": "not implemented",
        "params": {
          "data": "Additional data associated with the liquidity addition.",
          "settlementToken": "The address of the settlement token used for adding liquidity.",
          "vault": "The address of the vault where the liquidity is added."
        }
      },
      "addLiquidityCallback(address,address,bytes)": {
        "details": "not implemented",
        "params": {
          "data": "Additional data associated with the liquidity addition.",
          "settlementToken": "The address of the settlement token used for adding liquidity.",
          "vault": "The address of the vault where the liquidity is added."
        }
      },
      "allowance(address,address)": {
        "details": "See {IERC20-allowance}."
      },
      "approve(address,uint256)": {
        "details": "See {IERC20-approve}. NOTE: If `amount` is the maximum `uint256`, the allowance is not updated on `transferFrom`. This is semantically equivalent to an infinite approval. Requirements: - `spender` cannot be the zero address."
      },
      "automateLP()": {
        "returns": {
          "_0": "The address of the AutomateLP contract."
        }
      },
      "automationFeeReserved()": {
        "details": "Retrieves the amount reserved as automation fee for automated operations within the liquidity provider.",
        "returns": {
          "_0": "The automation fee reserved amount."
        }
      },
      "balanceOf(address)": {
        "details": "See {IERC20-balanceOf}."
      },
      "cancelRebalanceTask()": {
        "details": "Cancels the currently active rebalance task in the liquidity provider. This is allowed for the owner of LP contract to call"
      },
      "cancelSettleTask(uint256)": {
        "details": "Cancels the settle task in the liquidity provider. This is allowed for the owner of LP contract to call",
        "params": {
          "receiptId": "The receipt ID associated with the settle execution."
        }
      },
      "checkRebalance()": {
        "details": "Checks whether a rebalance task is needed.",
        "returns": {
          "_0": "A boolean indicating whether a rebalance task is needed."
        }
      },
      "checkSettle(uint256)": {
        "details": "Checks whether a settle task is needed for a specific receipt ID.",
        "params": {
          "receiptId": "The unique identifier of the receipt associated with the task."
        },
        "returns": {
          "_0": "A boolean indicating whether a settle task is needed."
        }
      },
      "checkSettleByUser(uint256)": {
        "details": "Checks whether a settle is possible by user for a specific receipt ID.",
        "params": {
          "receiptId": "The unique identifier of the receipt associated with the task."
        },
        "returns": {
          "_0": "A boolean indicating whether a settle is possible by user."
        }
      },
      "claimLiquidityBatchCallback(uint256[],int16[],uint256[],uint256[],bytes)": {
        "details": "not implemented",
        "params": {
          "data": "Additional data associated with the liquidity claim.",
          "depositedAmounts": "The array of deposited liquidity amounts for each receipt in the batch.",
          "feeRates": "The array of trading fee rates associated with each claim in the batch.",
          "mintedCLBTokenAmounts": "The array of CLB token amounts minted for each receipt in the batch.",
          "receiptIds": "The array of the liquidity receipt IDs."
        }
      },
      "claimLiquidityCallback(uint256,int16,uint256,uint256,bytes)": {
        "details": "not implemented",
        "params": {
          "data": "Additional data associated with the liquidity claim.",
          "depositedAmount": "The amount of liquidity deposited.",
          "feeRate": "The trading fee rate associated with the liquidity claim.",
          "mintedCLBTokenAmount": "The amount of CLB tokens minted as liquidity.",
          "receiptId": "The ID of the liquidity claim receipt."
        }
      },
      "clbTokenBalances()": {
        "details": "Retrieves the balances of CLB tokens held in the liquidity provider.",
        "returns": {
          "_clbTokenBalances": "An array of CLB token balances held in the liquidity provider."
        }
      },
      "clbTokenIds()": {
        "details": "Retrieves the token IDs of CLB tokens handled in the liquidity provider",
        "returns": {
          "_0": "An array of CLB token IDs handled in the liquidity provider."
        }
      },
      "clbTokenValues()": {
        "details": "Retrieves the values of CLB tokens held in the liquidity provider.",
        "returns": {
          "_clbTokenBalances": "An array of CLB token value held in the liquidity provider."
        }
      },
      "createRebalanceTask()": {
        "details": "Initiates the creation of a rebalance task in the liquidity provider. This is allowed for the owner of LP contract to call"
      },
      "dao()": {
        "details": "Returns the address of the DAO.",
        "returns": {
          "_0": "The address of the DAO."
        }
      },
      "decimals()": {
        "details": "Returns the number of decimals used to get its user representation. For example, if `decimals` equals `2`, a balance of `505` tokens should be displayed to a user as `5.05` (`505 / 10 ** 2`). Tokens usually opt for a value of 18, imitating the relationship between Ether and Wei. This is the default value returned by this function, unless it's overridden. NOTE: This information is only used for _display_ purposes: it in no way affects any of the arithmetic of the contract, including {IERC20-balanceOf} and {IERC20-transfer}."
      },
      "decreaseAllowance(address,uint256)": {
        "details": "Atomically decreases the allowance granted to `spender` by the caller. This is an alternative to {approve} that can be used as a mitigation for problems described in {IERC20-approve}. Emits an {Approval} event indicating the updated allowance. Requirements: - `spender` cannot be the zero address. - `spender` must have allowance for the caller of at least `subtractedValue`."
      },
      "distributionRates()": {
        "details": "Retrieves an array of distribution rates associated with different fee rates.",
        "returns": {
          "rates": "An array of distribution rates."
        }
      },
      "estimateMinAddLiquidityAmount()": {
        "details": "Estimates the minimum amount of liquidity that can be added by automation.",
        "returns": {
          "_0": "The minimum amount of liquidity in the settlement token that can be added."
        }
      },
      "estimateMinRemoveLiquidityAmount()": {
        "details": "Estimates the minimum amount of liquidity that can be removed by automation.",
        "returns": {
          "_0": "The minimum amount of liquidity in the LP token that can be removed."
        }
      },
      "feeRates()": {
        "details": "Retrieves the fee rates associated with various actions in the liquidity provider.",
        "returns": {
          "_0": "An array of fee rates for different actions within the liquidity pool."
        }
      },
      "getMarketReceiptsOf(uint256)": {
        "details": "Retrieves the receipt ids of market belongs to receiptId of LP.",
        "params": {
          "receiptId": "The unique identifier of the liquidity receipt to retrieve."
        },
        "returns": {
          "_0": "A list of market receiptIds of the liquidity receipt of LP."
        }
      },
      "getReceipt(uint256)": {
        "details": "Retrieves detailed information about a specific liquidity receipt identified by id.",
        "params": {
          "id": "The unique identifier of the liquidity receipt to retrieve."
        },
        "returns": {
          "_0": "A data structure representing the liquidity receipt."
        }
      },
      "getReceiptIdsOf(address)": {
        "details": "Retrieves the unique identifiers of all liquidity receipts owned by a given address.",
        "params": {
          "owner": "The address of the liquidity provider."
        },
        "returns": {
          "receiptIds": "An array of unique identifiers for the liquidity receipts owned by the specified address."
        }
      },
      "holdingClbValue()": {
        "details": "Retrieves the current holding CLB value in the liquidity provider.",
        "returns": {
          "value": "The current holding CLB value in the liquidity provider."
        }
      },
      "holdingValue()": {
        "details": "Retrieves the current holding value of the liquidity pool.",
        "returns": {
          "_0": "The current holding value in the liquidity provider."
        }
      },
      "increaseAllowance(address,uint256)": {
        "details": "Atomically increases the allowance granted to `spender` by the caller. This is an alternative to {approve} that can be used as a mitigation for problems described in {IERC20-approve}. Emits an {Approval} event indicating the updated allowance. Requirements: - `spender` cannot be the zero address."
      },
      "logicAddress()": {
        "details": "Returns the address of the logic contract."
      },
      "longShortInfo()": {
        "details": "Retrieves information about the target of liquidity.",
        "returns": {
          "_0": "longShortInfo An integer representing long (1), short (-1), or both side(0)."
        }
      },
      "lpName()": {
        "details": "Retrieves the name of the Chromatic Protocol liquidity provider.",
        "returns": {
          "_0": "The name of the liquidity provider."
        }
      },
      "lpTag()": {
        "details": "Retrieves the tag associated with the Chromatic Protocol liquidity provider.",
        "returns": {
          "_0": "The tag associated with the liquidity provider"
        }
      },
      "lpToken()": {
        "details": "Retrieves the address of the LP token associated with the Chromatic Protocol liquidity provider.",
        "returns": {
          "_0": "The address of the LP (Liquidity Provider) token issued by the liquidity provider."
        }
      },
      "market()": {
        "details": "Retrieves the address of the market associated with the Chromatic Protocol liquidity provider.",
        "returns": {
          "_0": "The address of the market associated with the liquidity provider."
        }
      },
      "minHoldingValueToRebalance()": {
        "details": "Retrieves the minimum holding value required to trigger rebalance.",
        "returns": {
          "_0": "The minimum holding value to rebalance."
        }
      },
      "name()": {
        "details": "Returns the name of the token."
      },
      "onERC1155BatchReceived(address,address,uint256[],uint256[],bytes)": {
        "details": "Handles the receipt of a multiple ERC1155 token types. This function is called at the end of a `safeBatchTransferFrom` after the balances have been updated. NOTE: To accept the transfer(s), this must return `bytes4(keccak256(\"onERC1155BatchReceived(address,address,uint256[],uint256[],bytes)\"))` (i.e. 0xbc197c81, or its own function selector).",
        "params": {
          "data": "Additional data with no specified format",
          "from": "The address which previously owned the token",
          "ids": "An array containing ids of each token being transferred (order and length must match values array)",
          "operator": "The address which initiated the batch transfer (i.e. msg.sender)",
          "values": "An array containing amounts of each token being transferred (order and length must match ids array)"
        },
        "returns": {
          "_0": "`bytes4(keccak256(\"onERC1155BatchReceived(address,address,uint256[],uint256[],bytes)\"))` if transfer is allowed"
        }
      },
      "onERC1155Received(address,address,uint256,uint256,bytes)": {
        "details": "Handles the receipt of a single ERC1155 token type. This function is called at the end of a `safeTransferFrom` after the balance has been updated. NOTE: To accept the transfer, this must return `bytes4(keccak256(\"onERC1155Received(address,address,uint256,uint256,bytes)\"))` (i.e. 0xf23a6e61, or its own function selector).",
        "params": {
          "data": "Additional data with no specified format",
          "from": "The address which previously owned the token",
          "id": "The ID of the token being transferred",
          "operator": "The address which initiated the transfer (i.e. msg.sender)",
          "value": "The amount of tokens being transferred"
        },
        "returns": {
          "_0": "`bytes4(keccak256(\"onERC1155Received(address,address,uint256,uint256,bytes)\"))` if transfer is allowed"
        }
      },
      "pendingClbValue()": {
        "details": "Retrieves the pending CLB value in the liquidity provider.",
        "returns": {
          "value": "The pending CLB value in the liquidity provider."
        }
      },
      "pendingRemoveClbBalances()": {
        "details": "An array of pending CLB token balances for removal. Retrieves the pending CLB token balances that are pending removal from the liquidity provider."
      },
      "pendingValue()": {
        "details": "Retrieves the pending value of the liquidity provider.",
        "returns": {
          "_0": "pendingValue The pending value in the liquidity pool."
        }
      },
      "rebalance(address,uint256)": {
        "details": "called by automation only"
      },
      "rebalanceBPS()": {
        "details": "Retrieves the rebalance basis points (BPS) for the liquidity provider.",
        "returns": {
          "_0": "The rebalance BPS."
        }
      },
      "rebalanceCheckingInterval()": {
        "details": "Retrieves the time interval in seconds between checks for rebalance conditions.",
        "returns": {
          "_0": "The rebalance checking interval in seconds."
        }
      },
      "removeLiquidity(uint256,address)": {
        "details": "Removes liquidity from the Chromatic Protocol, burning the specified amount of LP tokens and transferring the corresponding assets to the recipient.",
        "params": {
          "lpTokenAmount": "The amount of LP tokens to remove.",
          "recipient": "The address of the recipient for the withdrawn assets."
        }
      },
      "removeLiquidityBatchCallback(address,uint256[],bytes)": {
        "details": "not implemented",
        "params": {
          "clbToken": "The address of the Chromatic liquidity token.",
          "clbTokenIds": "The array of the Chromatic liquidity token IDs to be removed.",
          "data": "Additional data associated with the liquidity removal."
        }
      },
      "removeLiquidityCallback(address,uint256,bytes)": {
        "details": "not implemented",
        "params": {
          "clbToken": "The address of the Chromatic liquidity token.",
          "clbTokenId": "The ID of the Chromatic liquidity token to be removed.",
          "data": "Additional data associated with the liquidity removal."
        }
      },
      "setAutomateLP(address)": {
        "params": {
          "automate": "The address of the AutomateLP contract."
        }
      },
      "setAutomationFeeReserved(uint256)": {
        "details": "Additional data to be used in the rebalance process.",
        "params": {
          "_automationFeeReserved": "The new value for the reserved automation fee."
        }
      },
      "setLpName(string)": {
        "details": "Sets the name of the Chromatic Protocol liquidity provider.",
        "params": {
          "newName": "The new name for the liquidity provider."
        }
      },
      "setLpTag(string)": {
        "details": "Sets the tag associated with the Chromatic Protocol liquidity provider.",
        "params": {
          "newTag": "The new tag for the liquidity provider."
        }
      },
      "setMinHoldingValueToRebalance(uint256)": {
        "details": "Additional data to be used in the rebalance process.",
        "params": {
          "_minHoldingValueToRebalance": "The new value for the required minimum amount to trigger rebalance."
        }
      },
      "setSuspendMode(uint8)": {
        "details": "Sets the suspension mode for the LP.",
        "params": {
          "mode": "The new suspension mode to be set."
        }
      },
      "settle(uint256)": {
        "details": "Initiates the settlement process for a specific liquidity receipt identified by receiptId.",
        "params": {
          "receiptId": "The unique identifier of the liquidity receipt to settle."
        }
      },
      "settleTask(uint256,address,uint256)": {
        "details": "called by automation only"
      },
      "settlementToken()": {
        "details": "Retrieves the address of the settlement token associated with the Chromatic Protocol liquidity provider.",
        "returns": {
          "_0": "The address of the settlement token used in the liquidity provider."
        }
      },
      "supportsInterface(bytes4)": {
        "details": "Returns true if this contract implements the interface defined by `interfaceId`. See the corresponding https://eips.ethereum.org/EIPS/eip-165#how-interfaces-are-identified[EIP section] to learn more about how these ids are created. This function call must use less than 30 000 gas."
      },
      "suspendMode()": {
        "details": "Retrieves the current suspension mode of the LP.",
        "returns": {
          "_0": "The current suspension mode."
        }
      },
      "symbol()": {
        "details": "Returns the symbol of the token, usually a shorter version of the name."
      },
      "totalClbValue()": {
        "details": "Retrieves the total CLB value in the liquidity provider, combining holding and pending CLB values.",
        "returns": {
          "value": "The total CLB value in the liquidity provider."
        }
      },
      "totalSupply()": {
        "details": "See {IERC20-totalSupply}."
      },
      "totalValue()": {
        "details": "The total value of the liquidity provider"
      },
      "transfer(address,uint256)": {
        "details": "See {IERC20-transfer}. Requirements: - `to` cannot be the zero address. - the caller must have a balance of at least `amount`."
      },
      "transferFrom(address,address,uint256)": {
        "details": "See {IERC20-transferFrom}. Emits an {Approval} event indicating the updated allowance. This is not required by the EIP. See the note at the beginning of {ERC20}. NOTE: Does not update the allowance if the current allowance is the maximum `uint256`. Requirements: - `from` and `to` cannot be the zero address. - `from` must have a balance of at least `amount`. - the caller must have allowance for ``from``'s tokens of at least `amount`."
      },
      "upgradeTo(address,bytes)": {
        "details": "upgrade logic contract to new one."
      },
      "utilization()": {
        "details": "The current utilization of the liquidity provider, represented in basis points (BPS)"
      },
      "utilizationTargetBPS()": {
        "details": "Retrieves the target utilization rate in basis points (BPS) for the liquidity provider.",
        "returns": {
          "_0": "The target utilization rate in BPS."
        }
      },
      "valueInfo()": {
        "details": "Retrieves the total value of the liquidity provider, including both holding and pending values.",
        "returns": {
          "info": "A ValueInfo struct containing total, holding, pending, holdingClb, and pendingClb values."
        }
      },
      "valueOfSupply()": {
        "details": "The total value of the liquidity provider token supplied."
      },
      "withdrawLiquidityBatchCallback(uint256[],int16[],uint256[],uint256[],bytes)": {
        "details": "not implemented",
        "params": {
          "burnedCLBTokenAmounts": "The array of CLB token amounts burned for each receipt in the batch.",
          "data": "Additional data associated with the liquidity withdrawal.",
          "feeRates": "The array of trading fee rates associated with each withdrawal in the batch.",
          "receiptIds": "The array of the liquidity receipt IDs.",
          "withdrawnAmounts": "The array of withdrawn liquidity amounts for each receipt in the batch."
        }
      },
      "withdrawLiquidityCallback(uint256,int16,uint256,uint256,bytes)": {
        "details": "not implemented",
        "params": {
          "burnedCLBTokenAmount": "The amount of CLB tokens burned during the withdrawal.",
          "data": "Additional data associated with the liquidity withdrawal.",
          "feeRate": "The trading fee rate associated with the liquidity withdrawal.",
          "receiptId": "The ID of the liquidity withdrawal receipt.",
          "withdrawnAmount": "The amount of liquidity that has been withdrawn."
        }
      }
    },
    "version": 1
  },
  "userdoc": {
    "events": {
      "AddLiquidity(uint256,address,address,uint256,uint256)": {
        "notice": "Emitted when addLiquidity is performed."
      },
      "AddLiquiditySettled(uint256,address,address,uint256,uint256,uint256)": {
        "notice": "Emitted when addLiquidity is settled."
      },
      "RebalanceAddLiquidity(uint256,uint256,uint256,uint256)": {
        "notice": "Emitted when rebalance of adding liquidity is performed."
      },
      "RebalanceRemoveLiquidity(uint256,uint256,uint256)": {
        "notice": "Emitted when rebalance of removing liquidity is performed."
      },
      "RebalanceSettled(uint256,uint256)": {
        "notice": "Emitted when rebalancing is settled."
      },
      "RemoveLiquidity(uint256,address,address,uint256,uint256)": {
        "notice": "Emitted when removeLiquidity is performed."
      },
      "RemoveLiquiditySettled(uint256,address,address,uint256,uint256,uint256,uint256)": {
        "notice": "Emitted when removeLiquidity is settled."
      },
      "SetAutomateLP(address)": {
        "notice": "Emitted when the AutomateLP address is set."
      }
    },
    "kind": "user",
    "methods": {
      "addLiquidityBatchCallback(address,address,bytes)": {
        "notice": "Handles the callback after adding liquidity to the Chromatic protocol."
      },
      "addLiquidityCallback(address,address,bytes)": {
        "notice": "Handles the callback after adding liquidity to the Chromatic protocol."
      },
      "automateLP()": {
        "notice": "Gets the current AutomateLP contract address."
      },
      "claimLiquidityBatchCallback(uint256[],int16[],uint256[],uint256[],bytes)": {
        "notice": "Handles the callback after claiming liquidity from the Chromatic protocol."
      },
      "claimLiquidityCallback(uint256,int16,uint256,uint256,bytes)": {
        "notice": "Handles the callback after claiming liquidity from the Chromatic protocol."
      },
      "removeLiquidityBatchCallback(address,uint256[],bytes)": {
        "notice": "Handles the callback after removing liquidity from the Chromatic protocol."
      },
      "removeLiquidityCallback(address,uint256,bytes)": {
        "notice": "Handles the callback after removing liquidity from the Chromatic protocol."
      },
      "setAutomateLP(address)": {
        "notice": "Sets the AutomateLP contract address."
      },
      "withdrawLiquidityBatchCallback(uint256[],int16[],uint256[],uint256[],bytes)": {
        "notice": "Handles the callback after withdrawing liquidity from the Chromatic protocol."
      },
      "withdrawLiquidityCallback(uint256,int16,uint256,uint256,bytes)": {
        "notice": "Handles the callback after withdrawing liquidity from the Chromatic protocol."
      }
    },
    "version": 1
  },
  "storageLayout": {
    "storage": [
      {
        "astId": 4004,
        "contract": "contracts/lp/ChromaticLP.sol:ChromaticLP",
        "label": "_balances",
        "offset": 0,
        "slot": "0",
        "type": "t_mapping(t_address,t_uint256)"
      },
      {
        "astId": 4010,
        "contract": "contracts/lp/ChromaticLP.sol:ChromaticLP",
        "label": "_allowances",
        "offset": 0,
        "slot": "1",
        "type": "t_mapping(t_address,t_mapping(t_address,t_uint256))"
      },
      {
        "astId": 4012,
        "contract": "contracts/lp/ChromaticLP.sol:ChromaticLP",
        "label": "_totalSupply",
        "offset": 0,
        "slot": "2",
        "type": "t_uint256"
      },
      {
        "astId": 4014,
        "contract": "contracts/lp/ChromaticLP.sol:ChromaticLP",
        "label": "_name",
        "offset": 0,
        "slot": "3",
        "type": "t_string_storage"
      },
      {
        "astId": 4016,
        "contract": "contracts/lp/ChromaticLP.sol:ChromaticLP",
        "label": "_symbol",
        "offset": 0,
        "slot": "4",
        "type": "t_string_storage"
      },
      {
        "astId": 11828,
        "contract": "contracts/lp/ChromaticLP.sol:ChromaticLP",
        "label": "s_meta",
        "offset": 0,
        "slot": "5",
        "type": "t_struct(LPMeta)11811_storage"
      },
      {
        "astId": 11831,
        "contract": "contracts/lp/ChromaticLP.sol:ChromaticLP",
        "label": "s_config",
        "offset": 0,
        "slot": "7",
        "type": "t_struct(LPConfig)12841_storage"
      },
      {
        "astId": 11834,
        "contract": "contracts/lp/ChromaticLP.sol:ChromaticLP",
        "label": "s_state",
        "offset": 0,
        "slot": "11",
        "type": "t_struct(LPState)12943_storage"
      },
      {
        "astId": 11836,
        "contract": "contracts/lp/ChromaticLP.sol:ChromaticLP",
        "label": "s_logicAddress",
        "offset": 0,
        "slot": "23",
        "type": "t_address"
      },
      {
        "astId": 3756,
        "contract": "contracts/lp/ChromaticLP.sol:ChromaticLP",
        "label": "_status",
        "offset": 0,
        "slot": "24",
        "type": "t_uint256"
      },
      {
        "astId": 11887,
        "contract": "contracts/lp/ChromaticLP.sol:ChromaticLP",
        "label": "_mode",
        "offset": 0,
        "slot": "25",
        "type": "t_enum(SuspendModeType)11879"
      },
      {
        "astId": 11651,
        "contract": "contracts/lp/ChromaticLP.sol:ChromaticLP",
        "label": "__proxyReserved",
        "offset": 0,
        "slot": "26",
        "type": "t_array(t_uint256)50_storage"
      },
      {
        "astId": 11686,
        "contract": "contracts/lp/ChromaticLP.sol:ChromaticLP",
        "label": "s_task",
        "offset": 0,
        "slot": "76",
        "type": "t_mapping(t_uint256,t_contract(IAutomateLP)12039)"
      },
      {
        "astId": 11689,
        "contract": "contracts/lp/ChromaticLP.sol:ChromaticLP",
        "label": "s_automate",
        "offset": 0,
        "slot": "77",
        "type": "t_contract(IAutomateLP)12039"
      }
    ],
    "types": {
      "t_address": {
        "encoding": "inplace",
        "label": "address",
        "numberOfBytes": "20"
      },
      "t_array(t_bytes32)dyn_storage": {
        "base": "t_bytes32",
        "encoding": "dynamic_array",
        "label": "bytes32[]",
        "numberOfBytes": "32"
      },
      "t_array(t_int16)dyn_storage": {
        "base": "t_int16",
        "encoding": "dynamic_array",
        "label": "int16[]",
        "numberOfBytes": "32"
      },
      "t_array(t_uint256)50_storage": {
        "base": "t_uint256",
        "encoding": "inplace",
        "label": "uint256[50]",
        "numberOfBytes": "1600"
      },
      "t_array(t_uint256)dyn_storage": {
        "base": "t_uint256",
        "encoding": "dynamic_array",
        "label": "uint256[]",
        "numberOfBytes": "32"
      },
      "t_bool": {
        "encoding": "inplace",
        "label": "bool",
        "numberOfBytes": "1"
      },
      "t_bytes32": {
        "encoding": "inplace",
        "label": "bytes32",
        "numberOfBytes": "32"
      },
      "t_contract(IAutomateLP)12039": {
        "encoding": "inplace",
        "label": "contract IAutomateLP",
        "numberOfBytes": "20"
      },
      "t_contract(IChromaticMarket)125": {
        "encoding": "inplace",
        "label": "contract IChromaticMarket",
        "numberOfBytes": "20"
      },
      "t_enum(ChromaticLPAction)12796": {
        "encoding": "inplace",
        "label": "enum ChromaticLPAction",
        "numberOfBytes": "1"
      },
      "t_enum(SuspendModeType)11879": {
        "encoding": "inplace",
        "label": "enum SuspendModeType",
        "numberOfBytes": "1"
      },
      "t_int16": {
        "encoding": "inplace",
        "label": "int16",
        "numberOfBytes": "2"
      },
      "t_mapping(t_address,t_mapping(t_address,t_uint256))": {
        "encoding": "mapping",
        "key": "t_address",
        "label": "mapping(address => mapping(address => uint256))",
        "numberOfBytes": "32",
        "value": "t_mapping(t_address,t_uint256)"
      },
      "t_mapping(t_address,t_struct(UintSet)8449_storage)": {
        "encoding": "mapping",
        "key": "t_address",
        "label": "mapping(address => struct EnumerableSet.UintSet)",
        "numberOfBytes": "32",
        "value": "t_struct(UintSet)8449_storage"
      },
      "t_mapping(t_address,t_uint256)": {
        "encoding": "mapping",
        "key": "t_address",
        "label": "mapping(address => uint256)",
        "numberOfBytes": "32",
        "value": "t_uint256"
      },
      "t_mapping(t_bytes32,t_uint256)": {
        "encoding": "mapping",
        "key": "t_bytes32",
        "label": "mapping(bytes32 => uint256)",
        "numberOfBytes": "32",
        "value": "t_uint256"
      },
      "t_mapping(t_int16,t_uint16)": {
        "encoding": "mapping",
        "key": "t_int16",
        "label": "mapping(int16 => uint16)",
        "numberOfBytes": "32",
        "value": "t_uint16"
      },
      "t_mapping(t_int16,t_uint256)": {
        "encoding": "mapping",
        "key": "t_int16",
        "label": "mapping(int16 => uint256)",
        "numberOfBytes": "32",
        "value": "t_uint256"
      },
      "t_mapping(t_uint256,t_array(t_uint256)dyn_storage)": {
        "encoding": "mapping",
        "key": "t_uint256",
        "label": "mapping(uint256 => uint256[])",
        "numberOfBytes": "32",
        "value": "t_array(t_uint256)dyn_storage"
      },
      "t_mapping(t_uint256,t_contract(IAutomateLP)12039)": {
        "encoding": "mapping",
        "key": "t_uint256",
        "label": "mapping(uint256 => contract IAutomateLP)",
        "numberOfBytes": "32",
        "value": "t_contract(IAutomateLP)12039"
      },
      "t_mapping(t_uint256,t_struct(ChromaticLPReceipt)12814_storage)": {
        "encoding": "mapping",
        "key": "t_uint256",
        "label": "mapping(uint256 => struct ChromaticLPReceipt)",
        "numberOfBytes": "32",
        "value": "t_struct(ChromaticLPReceipt)12814_storage"
      },
      "t_string_storage": {
        "encoding": "bytes",
        "label": "string",
        "numberOfBytes": "32"
      },
      "t_struct(ChromaticLPReceipt)12814_storage": {
        "encoding": "inplace",
        "label": "struct ChromaticLPReceipt",
        "members": [
          {
            "astId": 12798,
            "contract": "contracts/lp/ChromaticLP.sol:ChromaticLP",
            "label": "id",
            "offset": 0,
            "slot": "0",
            "type": "t_uint256"
          },
          {
            "astId": 12800,
            "contract": "contracts/lp/ChromaticLP.sol:ChromaticLP",
            "label": "provider",
            "offset": 0,
            "slot": "1",
            "type": "t_address"
          },
          {
            "astId": 12802,
            "contract": "contracts/lp/ChromaticLP.sol:ChromaticLP",
            "label": "recipient",
            "offset": 0,
            "slot": "2",
            "type": "t_address"
          },
          {
            "astId": 12804,
            "contract": "contracts/lp/ChromaticLP.sol:ChromaticLP",
            "label": "oracleVersion",
            "offset": 0,
            "slot": "3",
            "type": "t_uint256"
          },
          {
            "astId": 12806,
            "contract": "contracts/lp/ChromaticLP.sol:ChromaticLP",
            "label": "amount",
            "offset": 0,
            "slot": "4",
            "type": "t_uint256"
          },
          {
            "astId": 12808,
            "contract": "contracts/lp/ChromaticLP.sol:ChromaticLP",
            "label": "pendingLiquidity",
            "offset": 0,
            "slot": "5",
            "type": "t_uint256"
          },
          {
            "astId": 12811,
            "contract": "contracts/lp/ChromaticLP.sol:ChromaticLP",
            "label": "action",
            "offset": 0,
            "slot": "6",
            "type": "t_enum(ChromaticLPAction)12796"
          },
          {
            "astId": 12813,
            "contract": "contracts/lp/ChromaticLP.sol:ChromaticLP",
            "label": "needSettle",
            "offset": 1,
            "slot": "6",
            "type": "t_bool"
          }
        ],
        "numberOfBytes": "224"
      },
      "t_struct(LPConfig)12841_storage": {
        "encoding": "inplace",
        "label": "struct LPConfig",
        "members": [
          {
            "astId": 12832,
            "contract": "contracts/lp/ChromaticLP.sol:ChromaticLP",
            "label": "utilizationTargetBPS",
            "offset": 0,
            "slot": "0",
            "type": "t_uint16"
          },
          {
            "astId": 12834,
            "contract": "contracts/lp/ChromaticLP.sol:ChromaticLP",
            "label": "rebalanceBPS",
            "offset": 2,
            "slot": "0",
            "type": "t_uint16"
          },
          {
            "astId": 12836,
            "contract": "contracts/lp/ChromaticLP.sol:ChromaticLP",
            "label": "rebalanceCheckingInterval",
            "offset": 0,
            "slot": "1",
            "type": "t_uint256"
          },
          {
            "astId": 12838,
            "contract": "contracts/lp/ChromaticLP.sol:ChromaticLP",
            "label": "automationFeeReserved",
            "offset": 0,
            "slot": "2",
            "type": "t_uint256"
          },
          {
            "astId": 12840,
            "contract": "contracts/lp/ChromaticLP.sol:ChromaticLP",
            "label": "minHoldingValueToRebalance",
            "offset": 0,
            "slot": "3",
            "type": "t_uint256"
          }
        ],
        "numberOfBytes": "128"
      },
      "t_struct(LPMeta)11811_storage": {
        "encoding": "inplace",
        "label": "struct ChromaticLPStorageCore.LPMeta",
        "members": [
          {
            "astId": 11808,
            "contract": "contracts/lp/ChromaticLP.sol:ChromaticLP",
            "label": "lpName",
            "offset": 0,
            "slot": "0",
            "type": "t_string_storage"
          },
          {
            "astId": 11810,
            "contract": "contracts/lp/ChromaticLP.sol:ChromaticLP",
            "label": "tag",
            "offset": 0,
            "slot": "1",
            "type": "t_string_storage"
          }
        ],
        "numberOfBytes": "64"
      },
      "t_struct(LPState)12943_storage": {
        "encoding": "inplace",
        "label": "struct LPState",
        "members": [
          {
            "astId": 12905,
            "contract": "contracts/lp/ChromaticLP.sol:ChromaticLP",
            "label": "market",
            "offset": 0,
            "slot": "0",
            "type": "t_contract(IChromaticMarket)125"
          },
          {
            "astId": 12908,
            "contract": "contracts/lp/ChromaticLP.sol:ChromaticLP",
            "label": "feeRates",
            "offset": 0,
            "slot": "1",
            "type": "t_array(t_int16)dyn_storage"
          },
          {
            "astId": 12912,
            "contract": "contracts/lp/ChromaticLP.sol:ChromaticLP",
            "label": "distributionRates",
            "offset": 0,
            "slot": "2",
            "type": "t_mapping(t_int16,t_uint16)"
          },
          {
            "astId": 12914,
            "contract": "contracts/lp/ChromaticLP.sol:ChromaticLP",
            "label": "totalRate",
            "offset": 0,
            "slot": "3",
            "type": "t_uint256"
          },
          {
            "astId": 12917,
            "contract": "contracts/lp/ChromaticLP.sol:ChromaticLP",
            "label": "clbTokenIds",
            "offset": 0,
            "slot": "4",
            "type": "t_array(t_uint256)dyn_storage"
          },
          {
            "astId": 12922,
            "contract": "contracts/lp/ChromaticLP.sol:ChromaticLP",
            "label": "receipts",
            "offset": 0,
            "slot": "5",
            "type": "t_mapping(t_uint256,t_struct(ChromaticLPReceipt)12814_storage)"
          },
          {
            "astId": 12927,
            "contract": "contracts/lp/ChromaticLP.sol:ChromaticLP",
            "label": "lpReceiptMap",
            "offset": 0,
            "slot": "6",
            "type": "t_mapping(t_uint256,t_array(t_uint256)dyn_storage)"
          },
          {
            "astId": 12932,
            "contract": "contracts/lp/ChromaticLP.sol:ChromaticLP",
            "label": "providerReceiptIds",
            "offset": 0,
            "slot": "7",
            "type": "t_mapping(t_address,t_struct(UintSet)8449_storage)"
          },
          {
            "astId": 12934,
            "contract": "contracts/lp/ChromaticLP.sol:ChromaticLP",
            "label": "pendingAddLp",
            "offset": 0,
            "slot": "8",
            "type": "t_uint256"
          },
          {
            "astId": 12936,
            "contract": "contracts/lp/ChromaticLP.sol:ChromaticLP",
            "label": "pendingAddMarket",
            "offset": 0,
            "slot": "9",
            "type": "t_uint256"
          },
          {
            "astId": 12940,
            "contract": "contracts/lp/ChromaticLP.sol:ChromaticLP",
            "label": "pendingRemoveClbAmounts",
            "offset": 0,
            "slot": "10",
            "type": "t_mapping(t_int16,t_uint256)"
          },
          {
            "astId": 12942,
            "contract": "contracts/lp/ChromaticLP.sol:ChromaticLP",
            "label": "receiptId",
            "offset": 0,
            "slot": "11",
            "type": "t_uint256"
          }
        ],
        "numberOfBytes": "384"
      },
      "t_struct(Set)7977_storage": {
        "encoding": "inplace",
        "label": "struct EnumerableSet.Set",
        "members": [
          {
            "astId": 7972,
            "contract": "contracts/lp/ChromaticLP.sol:ChromaticLP",
            "label": "_values",
            "offset": 0,
            "slot": "0",
            "type": "t_array(t_bytes32)dyn_storage"
          },
          {
            "astId": 7976,
            "contract": "contracts/lp/ChromaticLP.sol:ChromaticLP",
            "label": "_indexes",
            "offset": 0,
            "slot": "1",
            "type": "t_mapping(t_bytes32,t_uint256)"
          }
        ],
        "numberOfBytes": "64"
      },
      "t_struct(UintSet)8449_storage": {
        "encoding": "inplace",
        "label": "struct EnumerableSet.UintSet",
        "members": [
          {
            "astId": 8448,
            "contract": "contracts/lp/ChromaticLP.sol:ChromaticLP",
            "label": "_inner",
            "offset": 0,
            "slot": "0",
            "type": "t_struct(Set)7977_storage"
          }
        ],
        "numberOfBytes": "64"
      },
      "t_uint16": {
        "encoding": "inplace",
        "label": "uint16",
        "numberOfBytes": "2"
      },
      "t_uint256": {
        "encoding": "inplace",
        "label": "uint256",
        "numberOfBytes": "32"
      }
    }
  }
}