{
  "address": "0xC0cc6a110095DE7b3a507c707147fE0bEAF00ba4",
  "abi": [
    {
      "inputs": [
        {
          "components": [
            {
              "internalType": "address",
              "name": "automate",
              "type": "address"
            },
            {
              "internalType": "address",
              "name": "opsProxyFactory",
              "type": "address"
            }
          ],
          "internalType": "struct ChromaticLPStorage.AutomateParam",
          "name": "automateParam",
          "type": "tuple"
        }
      ],
      "stateMutability": "nonpayable",
      "type": "constructor"
    },
    {
      "inputs": [],
      "name": "AlreadyRebalanceTaskExist",
      "type": "error"
    },
    {
      "inputs": [],
      "name": "InvalidMinHoldingValueToRebalance",
      "type": "error"
    },
    {
      "inputs": [],
      "name": "InvalidRebalanceBPS",
      "type": "error"
    },
    {
      "inputs": [
        {
          "internalType": "uint16",
          "name": "targetBPS",
          "type": "uint16"
        }
      ],
      "name": "InvalidUtilizationTarget",
      "type": "error"
    },
    {
      "inputs": [],
      "name": "NotAutomationCalled",
      "type": "error"
    },
    {
      "inputs": [],
      "name": "NotImplementedInLogicContract",
      "type": "error"
    },
    {
      "inputs": [],
      "name": "NotKeeperCalled",
      "type": "error"
    },
    {
      "inputs": [],
      "name": "NotMarket",
      "type": "error"
    },
    {
      "inputs": [
        {
          "internalType": "uint256",
          "name": "feeLength",
          "type": "uint256"
        },
        {
          "internalType": "uint256",
          "name": "distributionLength",
          "type": "uint256"
        }
      ],
      "name": "NotMatchDistributionLength",
      "type": "error"
    },
    {
      "inputs": [],
      "name": "NotOwner",
      "type": "error"
    },
    {
      "inputs": [],
      "name": "OnlyAccessableByOwner",
      "type": "error"
    },
    {
      "inputs": [],
      "name": "OnlyBatchCall",
      "type": "error"
    },
    {
      "inputs": [],
      "name": "TooSmallAmountToAddLiquidity",
      "type": "error"
    },
    {
      "inputs": [],
      "name": "UnknownLPAction",
      "type": "error"
    },
    {
      "anonymous": false,
      "inputs": [
        {
          "indexed": true,
          "internalType": "uint256",
          "name": "receiptId",
          "type": "uint256"
        },
        {
          "indexed": true,
          "internalType": "address",
          "name": "provider",
          "type": "address"
        },
        {
          "indexed": true,
          "internalType": "address",
          "name": "recipient",
          "type": "address"
        },
        {
          "indexed": false,
          "internalType": "uint256",
          "name": "oracleVersion",
          "type": "uint256"
        },
        {
          "indexed": false,
          "internalType": "uint256",
          "name": "amount",
          "type": "uint256"
        }
      ],
      "name": "AddLiquidity",
      "type": "event"
    },
    {
      "anonymous": false,
      "inputs": [
        {
          "indexed": true,
          "internalType": "uint256",
          "name": "receiptId",
          "type": "uint256"
        },
        {
          "indexed": true,
          "internalType": "address",
          "name": "provider",
          "type": "address"
        },
        {
          "indexed": true,
          "internalType": "address",
          "name": "recipient",
          "type": "address"
        },
        {
          "indexed": false,
          "internalType": "uint256",
          "name": "settlementAdded",
          "type": "uint256"
        },
        {
          "indexed": false,
          "internalType": "uint256",
          "name": "lpTokenAmount",
          "type": "uint256"
        },
        {
          "indexed": false,
          "internalType": "uint256",
          "name": "keeperFee",
          "type": "uint256"
        }
      ],
      "name": "AddLiquiditySettled",
      "type": "event"
    },
    {
      "anonymous": false,
      "inputs": [
        {
          "indexed": true,
          "internalType": "address",
          "name": "owner",
          "type": "address"
        },
        {
          "indexed": true,
          "internalType": "address",
          "name": "spender",
          "type": "address"
        },
        {
          "indexed": false,
          "internalType": "uint256",
          "name": "value",
          "type": "uint256"
        }
      ],
      "name": "Approval",
      "type": "event"
    },
    {
      "anonymous": false,
      "inputs": [
        {
          "indexed": true,
          "internalType": "uint256",
          "name": "receiptId",
          "type": "uint256"
        },
        {
          "indexed": false,
          "internalType": "uint256",
          "name": "oracleVersion",
          "type": "uint256"
        },
        {
          "indexed": false,
          "internalType": "uint256",
          "name": "amount",
          "type": "uint256"
        },
        {
          "indexed": false,
          "internalType": "uint256",
          "name": "currentUtility",
          "type": "uint256"
        }
      ],
      "name": "RebalanceAddLiquidity",
      "type": "event"
    },
    {
      "anonymous": false,
      "inputs": [
        {
          "indexed": true,
          "internalType": "uint256",
          "name": "receiptId",
          "type": "uint256"
        },
        {
          "indexed": false,
          "internalType": "uint256",
          "name": "oracleVersion",
          "type": "uint256"
        },
        {
          "indexed": false,
          "internalType": "uint256",
          "name": "currentUtility",
          "type": "uint256"
        }
      ],
      "name": "RebalanceRemoveLiquidity",
      "type": "event"
    },
    {
      "anonymous": false,
      "inputs": [
        {
          "indexed": true,
          "internalType": "uint256",
          "name": "receiptId",
          "type": "uint256"
        },
        {
          "indexed": false,
          "internalType": "uint256",
          "name": "keeperFee",
          "type": "uint256"
        }
      ],
      "name": "RebalanceSettled",
      "type": "event"
    },
    {
      "anonymous": false,
      "inputs": [
        {
          "indexed": true,
          "internalType": "uint256",
          "name": "receiptId",
          "type": "uint256"
        },
        {
          "indexed": true,
          "internalType": "address",
          "name": "provider",
          "type": "address"
        },
        {
          "indexed": true,
          "internalType": "address",
          "name": "recipient",
          "type": "address"
        },
        {
          "indexed": false,
          "internalType": "uint256",
          "name": "oracleVersion",
          "type": "uint256"
        },
        {
          "indexed": false,
          "internalType": "uint256",
          "name": "lpTokenAmount",
          "type": "uint256"
        }
      ],
      "name": "RemoveLiquidity",
      "type": "event"
    },
    {
      "anonymous": false,
      "inputs": [
        {
          "indexed": true,
          "internalType": "uint256",
          "name": "receiptId",
          "type": "uint256"
        },
        {
          "indexed": true,
          "internalType": "address",
          "name": "provider",
          "type": "address"
        },
        {
          "indexed": true,
          "internalType": "address",
          "name": "recipient",
          "type": "address"
        },
        {
          "indexed": false,
          "internalType": "uint256",
          "name": "burningAmount",
          "type": "uint256"
        },
        {
          "indexed": false,
          "internalType": "uint256",
          "name": "withdrawnSettlementAmount",
          "type": "uint256"
        },
        {
          "indexed": false,
          "internalType": "uint256",
          "name": "refundedAmount",
          "type": "uint256"
        },
        {
          "indexed": false,
          "internalType": "uint256",
          "name": "keeperFee",
          "type": "uint256"
        }
      ],
      "name": "RemoveLiquiditySettled",
      "type": "event"
    },
    {
      "anonymous": false,
      "inputs": [
        {
          "indexed": true,
          "internalType": "address",
          "name": "from",
          "type": "address"
        },
        {
          "indexed": true,
          "internalType": "address",
          "name": "to",
          "type": "address"
        },
        {
          "indexed": false,
          "internalType": "uint256",
          "name": "value",
          "type": "uint256"
        }
      ],
      "name": "Transfer",
      "type": "event"
    },
    {
      "inputs": [
        {
          "internalType": "uint256",
          "name": "amount",
          "type": "uint256"
        },
        {
          "internalType": "address",
          "name": "recipient",
          "type": "address"
        }
      ],
      "name": "addLiquidity",
      "outputs": [
        {
          "components": [
            {
              "internalType": "uint256",
              "name": "id",
              "type": "uint256"
            },
            {
              "internalType": "address",
              "name": "provider",
              "type": "address"
            },
            {
              "internalType": "address",
              "name": "recipient",
              "type": "address"
            },
            {
              "internalType": "uint256",
              "name": "oracleVersion",
              "type": "uint256"
            },
            {
              "internalType": "uint256",
              "name": "amount",
              "type": "uint256"
            },
            {
              "internalType": "uint256",
              "name": "pendingLiquidity",
              "type": "uint256"
            },
            {
              "internalType": "enum ChromaticLPAction",
              "name": "action",
              "type": "uint8"
            }
          ],
          "internalType": "struct ChromaticLPReceipt",
          "name": "receipt",
          "type": "tuple"
        }
      ],
      "stateMutability": "nonpayable",
      "type": "function"
    },
    {
      "inputs": [
        {
          "internalType": "address",
          "name": "settlementToken",
          "type": "address"
        },
        {
          "internalType": "address",
          "name": "vault",
          "type": "address"
        },
        {
          "internalType": "bytes",
          "name": "data",
          "type": "bytes"
        }
      ],
      "name": "addLiquidityBatchCallback",
      "outputs": [],
      "stateMutability": "nonpayable",
      "type": "function"
    },
    {
      "inputs": [
        {
          "internalType": "address",
          "name": "owner",
          "type": "address"
        },
        {
          "internalType": "address",
          "name": "spender",
          "type": "address"
        }
      ],
      "name": "allowance",
      "outputs": [
        {
          "internalType": "uint256",
          "name": "",
          "type": "uint256"
        }
      ],
      "stateMutability": "view",
      "type": "function"
    },
    {
      "inputs": [
        {
          "internalType": "address",
          "name": "spender",
          "type": "address"
        },
        {
          "internalType": "uint256",
          "name": "amount",
          "type": "uint256"
        }
      ],
      "name": "approve",
      "outputs": [
        {
          "internalType": "bool",
          "name": "",
          "type": "bool"
        }
      ],
      "stateMutability": "nonpayable",
      "type": "function"
    },
    {
      "inputs": [],
      "name": "automate",
      "outputs": [
        {
          "internalType": "contract IAutomate",
          "name": "",
          "type": "address"
        }
      ],
      "stateMutability": "view",
      "type": "function"
    },
    {
      "inputs": [
        {
          "internalType": "address",
          "name": "account",
          "type": "address"
        }
      ],
      "name": "balanceOf",
      "outputs": [
        {
          "internalType": "uint256",
          "name": "",
          "type": "uint256"
        }
      ],
      "stateMutability": "view",
      "type": "function"
    },
    {
      "inputs": [],
      "name": "cancelRebalanceTask",
      "outputs": [],
      "stateMutability": "nonpayable",
      "type": "function"
    },
    {
      "inputs": [
        {
          "internalType": "uint256[]",
          "name": "",
          "type": "uint256[]"
        },
        {
          "internalType": "int16[]",
          "name": "",
          "type": "int16[]"
        },
        {
          "internalType": "uint256[]",
          "name": "",
          "type": "uint256[]"
        },
        {
          "internalType": "uint256[]",
          "name": "",
          "type": "uint256[]"
        },
        {
          "internalType": "bytes",
          "name": "data",
          "type": "bytes"
        }
      ],
      "name": "claimLiquidityBatchCallback",
      "outputs": [],
      "stateMutability": "nonpayable",
      "type": "function"
    },
    {
      "inputs": [],
      "name": "decimals",
      "outputs": [
        {
          "internalType": "uint8",
          "name": "",
          "type": "uint8"
        }
      ],
      "stateMutability": "view",
      "type": "function"
    },
    {
      "inputs": [
        {
          "internalType": "address",
          "name": "spender",
          "type": "address"
        },
        {
          "internalType": "uint256",
          "name": "subtractedValue",
          "type": "uint256"
        }
      ],
      "name": "decreaseAllowance",
      "outputs": [
        {
          "internalType": "bool",
          "name": "",
          "type": "bool"
        }
      ],
      "stateMutability": "nonpayable",
      "type": "function"
    },
    {
      "inputs": [],
      "name": "dedicatedMsgSender",
      "outputs": [
        {
          "internalType": "address",
          "name": "",
          "type": "address"
        }
      ],
      "stateMutability": "view",
      "type": "function"
    },
    {
      "inputs": [
        {
          "internalType": "address",
          "name": "spender",
          "type": "address"
        },
        {
          "internalType": "uint256",
          "name": "addedValue",
          "type": "uint256"
        }
      ],
      "name": "increaseAllowance",
      "outputs": [
        {
          "internalType": "bool",
          "name": "",
          "type": "bool"
        }
      ],
      "stateMutability": "nonpayable",
      "type": "function"
    },
    {
      "inputs": [],
      "name": "name",
      "outputs": [
        {
          "internalType": "string",
          "name": "",
          "type": "string"
        }
      ],
      "stateMutability": "view",
      "type": "function"
    },
    {
      "inputs": [],
      "name": "rebalance",
      "outputs": [],
      "stateMutability": "nonpayable",
      "type": "function"
    },
    {
      "inputs": [
        {
          "internalType": "uint256",
          "name": "lpTokenAmount",
          "type": "uint256"
        },
        {
          "internalType": "address",
          "name": "recipient",
          "type": "address"
        }
      ],
      "name": "removeLiquidity",
      "outputs": [
        {
          "components": [
            {
              "internalType": "uint256",
              "name": "id",
              "type": "uint256"
            },
            {
              "internalType": "address",
              "name": "provider",
              "type": "address"
            },
            {
              "internalType": "address",
              "name": "recipient",
              "type": "address"
            },
            {
              "internalType": "uint256",
              "name": "oracleVersion",
              "type": "uint256"
            },
            {
              "internalType": "uint256",
              "name": "amount",
              "type": "uint256"
            },
            {
              "internalType": "uint256",
              "name": "pendingLiquidity",
              "type": "uint256"
            },
            {
              "internalType": "enum ChromaticLPAction",
              "name": "action",
              "type": "uint8"
            }
          ],
          "internalType": "struct ChromaticLPReceipt",
          "name": "receipt",
          "type": "tuple"
        }
      ],
      "stateMutability": "nonpayable",
      "type": "function"
    },
    {
      "inputs": [
        {
          "internalType": "address",
          "name": "clbToken",
          "type": "address"
        },
        {
          "internalType": "uint256[]",
          "name": "_clbTokenIds",
          "type": "uint256[]"
        },
        {
          "internalType": "bytes",
          "name": "data",
          "type": "bytes"
        }
      ],
      "name": "removeLiquidityBatchCallback",
      "outputs": [],
      "stateMutability": "nonpayable",
      "type": "function"
    },
    {
      "inputs": [],
      "name": "resolveRebalance",
      "outputs": [
        {
          "internalType": "bool",
          "name": "",
          "type": "bool"
        },
        {
          "internalType": "bytes",
          "name": "",
          "type": "bytes"
        }
      ],
      "stateMutability": "view",
      "type": "function"
    },
    {
      "inputs": [
        {
          "internalType": "uint256",
          "name": "",
          "type": "uint256"
        }
      ],
      "name": "resolveSettle",
      "outputs": [
        {
          "internalType": "bool",
          "name": "",
          "type": "bool"
        },
        {
          "internalType": "bytes",
          "name": "",
          "type": "bytes"
        }
      ],
      "stateMutability": "view",
      "type": "function"
    },
    {
      "inputs": [
        {
          "internalType": "uint256",
          "name": "receiptId",
          "type": "uint256"
        }
      ],
      "name": "settle",
      "outputs": [
        {
          "internalType": "bool",
          "name": "",
          "type": "bool"
        }
      ],
      "stateMutability": "nonpayable",
      "type": "function"
    },
    {
      "inputs": [
        {
          "internalType": "uint256",
          "name": "receiptId",
          "type": "uint256"
        }
      ],
      "name": "settleTask",
      "outputs": [],
      "stateMutability": "nonpayable",
      "type": "function"
    },
    {
      "inputs": [],
      "name": "symbol",
      "outputs": [
        {
          "internalType": "string",
          "name": "",
          "type": "string"
        }
      ],
      "stateMutability": "view",
      "type": "function"
    },
    {
      "inputs": [],
      "name": "totalSupply",
      "outputs": [
        {
          "internalType": "uint256",
          "name": "",
          "type": "uint256"
        }
      ],
      "stateMutability": "view",
      "type": "function"
    },
    {
      "inputs": [
        {
          "internalType": "address",
          "name": "to",
          "type": "address"
        },
        {
          "internalType": "uint256",
          "name": "amount",
          "type": "uint256"
        }
      ],
      "name": "transfer",
      "outputs": [
        {
          "internalType": "bool",
          "name": "",
          "type": "bool"
        }
      ],
      "stateMutability": "nonpayable",
      "type": "function"
    },
    {
      "inputs": [
        {
          "internalType": "address",
          "name": "from",
          "type": "address"
        },
        {
          "internalType": "address",
          "name": "to",
          "type": "address"
        },
        {
          "internalType": "uint256",
          "name": "amount",
          "type": "uint256"
        }
      ],
      "name": "transferFrom",
      "outputs": [
        {
          "internalType": "bool",
          "name": "",
          "type": "bool"
        }
      ],
      "stateMutability": "nonpayable",
      "type": "function"
    },
    {
      "inputs": [
        {
          "internalType": "uint256[]",
          "name": "receiptIds",
          "type": "uint256[]"
        },
        {
          "internalType": "int16[]",
          "name": "",
          "type": "int16[]"
        },
        {
          "internalType": "uint256[]",
          "name": "",
          "type": "uint256[]"
        },
        {
          "internalType": "uint256[]",
          "name": "",
          "type": "uint256[]"
        },
        {
          "internalType": "bytes",
          "name": "data",
          "type": "bytes"
        }
      ],
      "name": "withdrawLiquidityBatchCallback",
      "outputs": [],
      "stateMutability": "nonpayable",
      "type": "function"
    }
  ],
  "transactionHash": "0xcd1254bb2d94f1f0e6af10103a0e19139ca2d3a8475a4222d81ce01d2cafe65f",
  "args": [
    {
      "automate": "0xa5f9b728ecEB9A1F6FCC89dcc2eFd810bA4Dec41",
      "opsProxyFactory": "0x0000000000000000000000000000000000000000"
    }
  ],
  "numDeployments": 3,
  "solcInputHash": "7a96ed5c068b91ab4590f04c80dc7ac8",
  "bytecode": "0x60e06040523480156200001157600080fd5b5060405162005e4738038062005e478339810160408190526200003491620001f4565b60408051808201825282516001600160a01b0390811680835260208086015190921682840181905284518084018652600080825286519485019096529483529293849391923092919060036200008b8382620002e9565b5060046200009a8282620002e9565b5050506001600160a01b03831660808190526040805163573ea57560e01b8152905163573ea575916004808201926020929091908290030181865afa158015620000e8573d6000803e3d6000fd5b505050506040513d601f19601f820116820180604052508101906200010e9190620003b5565b6001600160a01b0390811660c05281166200013a575073c815db16d4be6ddf2685c201937905abf338f5d75b6040516337b6269f60e21b81526001600160a01b03838116600483015282169063ded89a7c906024016040805180830381865afa15801562000180573d6000803e3d6000fd5b505050506040513d601f19601f82011682018060405250810190620001a69190620003dc565b506001600160a01b031660a05250506001601955506200041f92505050565b634e487b7160e01b600052604160045260246000fd5b6001600160a01b0381168114620001f157600080fd5b50565b6000604082840312156200020757600080fd5b604080519081016001600160401b03811182821017156200022c576200022c620001c5565b60405282516200023c81620001db565b815260208301516200024e81620001db565b60208201529392505050565b600181811c908216806200026f57607f821691505b6020821081036200029057634e487b7160e01b600052602260045260246000fd5b50919050565b601f821115620002e457600081815260208120601f850160051c81016020861015620002bf5750805b601f850160051c820191505b81811015620002e057828155600101620002cb565b5050505b505050565b81516001600160401b03811115620003055762000305620001c5565b6200031d816200031684546200025a565b8462000296565b602080601f8311600181146200035557600084156200033c5750858301515b600019600386901b1c1916600185901b178555620002e0565b600085815260208120601f198616915b82811015620003865788860151825594840194600190910190840162000365565b5085821015620003a55787850151600019600388901b60f8161c191681555b5050505050600190811b01905550565b600060208284031215620003c857600080fd5b8151620003d581620001db565b9392505050565b60008060408385031215620003f057600080fd5b8251620003fd81620001db565b602084015190925080151581146200041457600080fd5b809150509250929050565b60805160a05160c0516159d86200046f6000396000505060006102900152600081816101ad0152818161081a0152818161289f01528181612b8401528181613a550152613af501526159d86000f3fe608060405234801561001057600080fd5b50600436106101a35760003560e01c80638df82800116100ee578063a9059cbb11610097578063d2419e2311610071578063d2419e23146103aa578063dd62ed3e146103bd578063e921b5c214610403578063f120bc4d1461041657600080fd5b8063a9059cbb14610371578063c95f9d0e14610384578063d0d063c01461039757600080fd5b806395d89b41116100c857806395d89b411461034e578063a06104ae14610356578063a457c2d71461035e57600080fd5b80638df82800146103125780639134e7e71461032557806393e15ee91461034657600080fd5b806323b872dd11610150578063395093511161012a57806339509351146102c157806370a08231146102d45780637d7c2a1c1461030a57600080fd5b806323b872dd1461027857806328f150eb1461028b578063313ce567146102b257600080fd5b8063095ea7b311610181578063095ea7b31461022e57806318160ddd1461025157806323a43ec81461026357600080fd5b8063049aacfe146101a857806305fe138b146101f957806306fdde0314610219575b600080fd5b6101cf7f000000000000000000000000000000000000000000000000000000000000000081565b60405173ffffffffffffffffffffffffffffffffffffffff90911681526020015b60405180910390f35b61020c6102073660046146a9565b610429565b6040516101f0919061477a565b6102216104c0565b6040516101f091906147f6565b61024161023c366004614809565b610552565b60405190151581526020016101f0565b6002545b6040519081526020016101f0565b610276610271366004614835565b61056a565b005b61024161028636600461484e565b6105a9565b6101cf7f000000000000000000000000000000000000000000000000000000000000000081565b604051601281526020016101f0565b6102416102cf366004614809565b6105cf565b6102556102e236600461488f565b73ffffffffffffffffffffffffffffffffffffffff1660009081526020819052604090205490565b61027661061b565b610241610320366004614835565b610776565b610338610333366004614835565b61079c565b6040516101f09291906148ac565b6102766107d2565b610221610887565b61033861079c565b61024161036c366004614809565b610896565b61024161037f366004614809565b610977565b61020c6103923660046146a9565b610985565b6102766103a5366004614910565b610a07565b6102766103b83660046149ba565b610ab5565b6102556103cb366004614aab565b73ffffffffffffffffffffffffffffffffffffffff918216600090815260016020908152604080832093909416825291909152205490565b610276610411366004614ad9565b610e43565b6102766104243660046149ba565b610f90565b6104316145dc565b61043961110c565b60006104448461117f565b9050610451818585611197565b80516060820151604080519182526020820188905292945073ffffffffffffffffffffffffffffffffffffffff8616923392917fafe189cdf0c6561ab41d175127551a2c23d63bbcd824c7670394b7f691a64aa8910160405180910390a4506104ba6001601955565b92915050565b6060600380546104cf90614b5c565b80601f01602080910402602001604051908101604052809291908181526020018280546104fb90614b5c565b80156105485780601f1061051d57610100808354040283529160200191610548565b820191906000526020600020905b81548152906001019060200180831161052b57829003601f168201915b5050505050905090565b6000336105608185856111bb565b5060019392505050565b600081815260186020526040902054156105a65760006105898261136e565b905060006105968261149f565b90506105a2838261167a565b5050505b50565b6000336105b785828561174c565b6105c285858561181d565b60019150505b9392505050565b33600081815260016020908152604080832073ffffffffffffffffffffffffffffffffffffffff871684529091528120549091906105609082908690610616908790614bd8565b6111bb565b61062361110c565b600080610630600c611a8c565b915061ffff1691508060000361064757505061076a565b6040805160c08101825260075461ffff808216835262010000909104166020820152600854918101919091526009546060820152600a546080820152600b5460a08201526000906106989084611adb565b905060008160028111156106ae576106ae6146d9565b146107665760006106bf600c611b30565b6040517f70a0823100000000000000000000000000000000000000000000000000000000815230600482015273ffffffffffffffffffffffffffffffffffffffff91909116906370a0823190602401602060405180830381865afa15801561072b573d6000803e3d6000fd5b505050506040513d601f19601f8201168201806040525081019061074f9190614beb565b905061075a8161149f565b50610763611bc3565b50505b5050505b6107746001601955565b565b600061078061110c565b61078b82600061167a565b90506107976001601955565b919050565b600060606040517ff3b52be100000000000000000000000000000000000000000000000000000000815260040160405180910390fd5b6107da61110c565b6017541561076a576017805460009091556040517fee8ca3b5000000000000000000000000000000000000000000000000000000008152600481018290527f000000000000000000000000000000000000000000000000000000000000000073ffffffffffffffffffffffffffffffffffffffff169063ee8ca3b590602401600060405180830381600087803b15801561087357600080fd5b505af1158015610763573d6000803e3d6000fd5b6060600480546104cf90614b5c565b33600081815260016020908152604080832073ffffffffffffffffffffffffffffffffffffffff871684529091528120549091908381101561095f576040517f08c379a000000000000000000000000000000000000000000000000000000000815260206004820152602560248201527f45524332303a2064656372656173656420616c6c6f77616e63652062656c6f7760448201527f207a65726f00000000000000000000000000000000000000000000000000000060648201526084015b60405180910390fd5b61096c82868684036111bb565b506001949350505050565b60003361056081858561181d565b61098d6145dc565b61099561110c565b61099f8383611c94565b80516060820151604080519182526020820187905292935073ffffffffffffffffffffffffffffffffffffffff8516923392917f91c55d0ae650a995846fcc24c8f3cfa58b5d18d1d1c340968383d8de36a90202910160405180910390a46104ba6001601955565b600c5473ffffffffffffffffffffffffffffffffffffffff163314610a58576040517fc4bbea6900000000000000000000000000000000000000000000000000000000815260040160405180910390fd5b6000610a6682840184614d14565b9050610a7c858260000151868460200151611d13565b805173ffffffffffffffffffffffffffffffffffffffff163014610aae57610aae858260000151308460400151611d13565b5050505050565b600c5473ffffffffffffffffffffffffffffffffffffffff163314610b06576040517fc4bbea6900000000000000000000000000000000000000000000000000000000815260040160405180910390fd5b600080610b1583850185614d65565b915091506000600c60000160009054906101000a900473ffffffffffffffffffffffffffffffffffffffff1673ffffffffffffffffffffffffffffffffffffffff1663336b974e8e8e6040518363ffffffff1660e01b8152600401610b7b929190614e47565b600060405180830381865afa158015610b98573d6000803e3d6000fd5b505050506040513d6000823e601f3d9081017fffffffffffffffffffffffffffffffffffffffffffffffffffffffffffffffe0168201604052610bde9190810190614e7f565b9050610beb600c82611def565b604083015173ffffffffffffffffffffffffffffffffffffffff163014610dfe576000610c18600c611e5f565b90506000610c268483614bd8565b90506000610c438660800151610c3b60025490565b849190611e8c565b90506000808683116040518060400160405280600381526020017f574c41000000000000000000000000000000000000000000000000000000000081525090610cb9576040517f08c379a000000000000000000000000000000000000000000000000000000000815260040161095691906147f6565b50610cc4600c611fb6565b610cce8885614f83565b1115610d0057610cde600c611fb6565b9050610cf9610ced8883614bd8565b60808a01519085611e8c565b9150610d14565b610d0a8784614f83565b9050876080015191505b6000828960800151610d269190614f83565b9050886040015173ffffffffffffffffffffffffffffffffffffffff16896020015173ffffffffffffffffffffffffffffffffffffffff168a600001517f5bbeef7d0f97fe132bb4988cb4af5a595ea5581d621e7b401f81db43bc271edc8686868e604051610dae949392919093845260208401929092526040830152606082015260800190565b60405180910390a4610dce610dc3600c611b30565b8a6040015184612051565b8215610dde57610dde30846120a7565b8015610df357610df3308a6040015183612051565b505050505050610e34565b82516040518381527f824a4cafd1a20228e797b24256dbd7c904c6b7a156b58e5c829262200ad0e3679060200160405180910390a25b50505050505050505050505050565b600c5473ffffffffffffffffffffffffffffffffffffffff163314610e94576040517fc4bbea6900000000000000000000000000000000000000000000000000000000815260040160405180910390fd5b6000610ea282840184614f96565b6060810151604080516020810182526000815290517f2eb2c2d600000000000000000000000000000000000000000000000000000000815292935073ffffffffffffffffffffffffffffffffffffffff891692632eb2c2d692610f0f92309233928c928c926004016150c4565b600060405180830381600087803b158015610f2957600080fd5b505af1158015610f3d573d6000803e3d6000fd5b505050602082015173ffffffffffffffffffffffffffffffffffffffff16301480159150610f6f575060008160400151115b15610f8857610f88308260000151308460400151611d13565b505050505050565b600c5473ffffffffffffffffffffffffffffffffffffffff163314610fe1576040517fc4bbea6900000000000000000000000000000000000000000000000000000000815260040160405180910390fd5b600080610ff083850185614d65565b915091508160a00151600c600801600082825461100d9190614f83565b90915550506080820151600090611025908390614f83565b604084015190915073ffffffffffffffffffffffffffffffffffffffff163014610dfe576000611055600c611e5f565b9050600061106260025490565b1561108a5761108561107360025490565b61107d8585614f83565b859190611e8c565b61108c565b825b905061109c85604001518261226b565b6040808601516020808801518851845188815292830186905293820188905273ffffffffffffffffffffffffffffffffffffffff92831693921691907f84a0ab8a0f72efed93757330872213c3b5294e2ea31dfcd2be5bb50fdcaeb0d09060600160405180910390a45050610e34565b600260195403611178576040517f08c379a000000000000000000000000000000000000000000000000000000000815260206004820152601f60248201527f5265656e7472616e637947756172643a207265656e7472616e742063616c6c006044820152606401610956565b6002601955565b60606104ba8261118e60025490565b600c919061235e565b61119f6145dc565b6111ac600c8585856124ca565b90506105c881600001516126c2565b73ffffffffffffffffffffffffffffffffffffffff831661125d576040517f08c379a0000000000000000000000000000000000000000000000000000000008152602060048201526024808201527f45524332303a20617070726f76652066726f6d20746865207a65726f2061646460448201527f72657373000000000000000000000000000000000000000000000000000000006064820152608401610956565b73ffffffffffffffffffffffffffffffffffffffff8216611300576040517f08c379a000000000000000000000000000000000000000000000000000000000815260206004820152602260248201527f45524332303a20617070726f766520746f20746865207a65726f20616464726560448201527f73730000000000000000000000000000000000000000000000000000000000006064820152608401610956565b73ffffffffffffffffffffffffffffffffffffffff83811660008181526001602090815260408083209487168084529482529182902085905590518481527f8c5be1e5ebec7d5bd14f71427d1e84f3dd0314c0f7b2291e5b200ac8c7c3b925910160405180910390a3505050565b60008061137c600c846127d9565b905060008160c001516001811115611396576113966146d9565b036113c95760075460808201516113b39161ffff16612710611e8c565b81608001516113c29190614f83565b9150611499565b60006113d5600c611b30565b6040517f70a0823100000000000000000000000000000000000000000000000000000000815230600482015273ffffffffffffffffffffffffffffffffffffffff91909116906370a0823190602401602060405180830381865afa158015611441573d6000803e3d6000fd5b505050506040513d601f19601f820116820180604052508101906114659190614beb565b9050816080015160000361147b57809250611497565b611494826080015161148c60025490565b839190611e8c565b92505b505b50919050565b60008060006114ac61288d565b915091506000600c60000160009054906101000a900473ffffffffffffffffffffffffffffffffffffffff1673ffffffffffffffffffffffffffffffffffffffff1663c45a01556040518163ffffffff1660e01b8152600401602060405180830381865afa158015611522573d6000803e3d6000fd5b505050506040513d601f19601f820116820180604052508101906115469190615131565b73ffffffffffffffffffffffffffffffffffffffff16635b5b52c06040518163ffffffff1660e01b8152600401602060405180830381865afa158015611590573d6000803e3d6000fd5b505050506040513d601f19601f820116820180604052508101906115b49190615131565b905060006115c2600c611b30565b90506115cf818388612051565b6040517f780205b100000000000000000000000000000000000000000000000000000000815273ffffffffffffffffffffffffffffffffffffffff828116600483015260248201869052848116604483015283169063780205b1906064016020604051808303816000875af115801561164c573d6000803e3d6000fd5b505050506040513d601f19601f820116820180604052508101906116709190614beb565b9695505050505050565b600080611688600c856127d9565b9050611694600c612932565b8160600151101561173b5760008160c0015160018111156116b7576116b76146d9565b036116cd576116c8600c8285612a3a565b611728565b60018160c0015160018111156116e5576116e56146d9565b036116f6576116c8600c8285612af3565b6040517f0c63171200000000000000000000000000000000000000000000000000000000815260040160405180910390fd5b61173184612b2f565b60019150506104ba565b60009150506104ba565b5092915050565b73ffffffffffffffffffffffffffffffffffffffff8381166000908152600160209081526040808320938616835292905220547fffffffffffffffffffffffffffffffffffffffffffffffffffffffffffffffff81146105a25781811015611810576040517f08c379a000000000000000000000000000000000000000000000000000000000815260206004820152601d60248201527f45524332303a20696e73756666696369656e7420616c6c6f77616e63650000006044820152606401610956565b6105a284848484036111bb565b73ffffffffffffffffffffffffffffffffffffffff83166118c0576040517f08c379a000000000000000000000000000000000000000000000000000000000815260206004820152602560248201527f45524332303a207472616e736665722066726f6d20746865207a65726f20616460448201527f64726573730000000000000000000000000000000000000000000000000000006064820152608401610956565b73ffffffffffffffffffffffffffffffffffffffff8216611963576040517f08c379a000000000000000000000000000000000000000000000000000000000815260206004820152602360248201527f45524332303a207472616e7366657220746f20746865207a65726f206164647260448201527f65737300000000000000000000000000000000000000000000000000000000006064820152608401610956565b73ffffffffffffffffffffffffffffffffffffffff831660009081526020819052604090205481811015611a19576040517f08c379a000000000000000000000000000000000000000000000000000000000815260206004820152602660248201527f45524332303a207472616e7366657220616d6f756e742065786365656473206260448201527f616c616e636500000000000000000000000000000000000000000000000000006064820152608401610956565b73ffffffffffffffffffffffffffffffffffffffff848116600081815260208181526040808320878703905593871680835291849020805487019055925185815290927fddf252ad1be2c89b69c2b068fc378daa952ba7f163c4a11628f55a4df523b3ef910160405180910390a36105a2565b6000806000611a9a84612bf1565b8051925090506000829003611ab25760009250611ad5565b80516020820151611ad29161271091611acb9082614f83565b9190611e8c565b92505b50915091565b60008183602001518460000151611af2919061514e565b61ffff161015611b04575060026104ba565b602083015183518391611b1691615169565b61ffff161115611b28575060016104ba565b5060006104ba565b8054604080517f7b9e618d000000000000000000000000000000000000000000000000000000008152905160009273ffffffffffffffffffffffffffffffffffffffff1691637b9e618d9160048083019260209291908290030181865afa158015611b9f573d6000803e3d6000fd5b505050506040513d601f19601f820116820180604052508101906104ba9190615131565b6000806000611bd2600c611a8c565b915061ffff16915080600003611beb5760009250505090565b6040805160c08101825260075461ffff808216835262010000909104166020820152600854918101919091526009546060820152600a546080820152600b5460a0820152600090611c3c9084611adb565b90506002816002811115611c5257611c526146d9565b03611c6857611c6083612ca8565b935050505090565b6001816002811115611c7c57611c7c6146d9565b03611c8a57611c6083612dcf565b6000935050505090565b611c9c6145dc565b600a548311611cd7576040517f266bd47800000000000000000000000000000000000000000000000000000000815260040160405180910390fd5b600754600a54611d04918591611cfa9161ffff169061271090611acb9085614f83565b600c919085612e3c565b90506104ba81600001516126c2565b60405173ffffffffffffffffffffffffffffffffffffffff808516602483015283166044820152606481018290526105a29085907f23b872dd00000000000000000000000000000000000000000000000000000000906084015b604080517fffffffffffffffffffffffffffffffffffffffffffffffffffffffffffffffe08184030181529190526020810180517bffffffffffffffffffffffffffffffffffffffffffffffffffffffff167fffffffff000000000000000000000000000000000000000000000000000000009093169290921790915261303a565b60005b8151811015611e5a576000828281518110611e0f57611e0f615184565b6020026020010151905080604001518460090160008360a0015160010b60010b81526020019081526020016000206000828254611e4c9190614f83565b909155505050600101611df2565b505050565b6000611e6a82613149565b6008830154611e7884611fb6565b611e829190614bd8565b6104ba9190614bd8565b600080807fffffffffffffffffffffffffffffffffffffffffffffffffffffffffffffffff85870985870292508281108382030391505080600003611ee457838281611eda57611eda6151b3565b04925050506105c8565b808411611f4d576040517f08c379a000000000000000000000000000000000000000000000000000000000815260206004820152601560248201527f4d6174683a206d756c446976206f766572666c6f7700000000000000000000006044820152606401610956565b60008486880960026001871981018816978890046003810283188082028403028082028403028082028403028082028403028082028403029081029092039091026000889003889004909101858311909403939093029303949094049190911702949350505050565b6000611fc182611b30565b6040517f70a0823100000000000000000000000000000000000000000000000000000000815230600482015273ffffffffffffffffffffffffffffffffffffffff91909116906370a0823190602401602060405180830381865afa15801561202d573d6000803e3d6000fd5b505050506040513d601f19601f820116820180604052508101906104ba9190614beb565b60405173ffffffffffffffffffffffffffffffffffffffff8316602482015260448101829052611e5a9084907fa9059cbb0000000000000000000000000000000000000000000000000000000090606401611d6d565b73ffffffffffffffffffffffffffffffffffffffff821661214a576040517f08c379a000000000000000000000000000000000000000000000000000000000815260206004820152602160248201527f45524332303a206275726e2066726f6d20746865207a65726f2061646472657360448201527f73000000000000000000000000000000000000000000000000000000000000006064820152608401610956565b73ffffffffffffffffffffffffffffffffffffffff821660009081526020819052604090205481811015612200576040517f08c379a000000000000000000000000000000000000000000000000000000000815260206004820152602260248201527f45524332303a206275726e20616d6f756e7420657863656564732062616c616e60448201527f63650000000000000000000000000000000000000000000000000000000000006064820152608401610956565b73ffffffffffffffffffffffffffffffffffffffff83166000818152602081815260408083208686039055600280548790039055518581529192917fddf252ad1be2c89b69c2b068fc378daa952ba7f163c4a11628f55a4df523b3ef910160405180910390a3505050565b73ffffffffffffffffffffffffffffffffffffffff82166122e8576040517f08c379a000000000000000000000000000000000000000000000000000000000815260206004820152601f60248201527f45524332303a206d696e7420746f20746865207a65726f2061646472657373006044820152606401610956565b80600260008282546122fa9190614bd8565b909155505073ffffffffffffffffffffffffffffffffffffffff8216600081815260208181526040808320805486019055518481527fddf252ad1be2c89b69c2b068fc378daa952ba7f163c4a11628f55a4df523b3ef910160405180910390a35050565b6060600061236d856001015490565b9050600061237a86613367565b90506000612387876134b3565b90508267ffffffffffffffff8111156123a2576123a2614c04565b6040519080825280602002602001820160405280156123cb578160200160208202803683370190505b50935060005b838110156124bf57612426878760018585815181106123f2576123f2615184565b602002602001015187868151811061240c5761240c615184565b602002602001015161241e9190614bd8565b92919061358b565b85828151811061243857612438615184565b60200260200101818152505082818151811061245657612456615184565b602002602001015185828151811061247057612470615184565b602002602001015111156124b75782818151811061249057612490615184565b60200260200101518582815181106124aa576124aa615184565b6020026020010181815250505b6001016123d1565b505050509392505050565b6124d26145dc565b60008560000160009054906101000a900473ffffffffffffffffffffffffffffffffffffffff1673ffffffffffffffffffffffffffffffffffffffff1663766e1b1730886001018860405180608001604052803373ffffffffffffffffffffffffffffffffffffffff1681526020018973ffffffffffffffffffffffffffffffffffffffff1681526020018a81526020018b81525060405160200161257791906151e2565b6040516020818303038152906040526040518563ffffffff1660e01b81526004016125a5949392919061556e565b6000604051808303816000875af11580156125c4573d6000803e3d6000fd5b505050506040513d6000823e601f3d9081017fffffffffffffffffffffffffffffffffffffffffffffffffffffffffffffffe016820160405261260a9190810190614e7f565b90506040518060e00160405280612620886135ea565b81526020013373ffffffffffffffffffffffffffffffffffffffff1681526020018473ffffffffffffffffffffffffffffffffffffffff1681526020018260008151811061267057612670615184565b6020026020010151602001518152602001858152602001600081526020016001808111156126a0576126a06146d9565b905291506126af868383613608565b6126b98682613763565b50949350505050565b60008181526018602052604081205490036105a6576127c73073ffffffffffffffffffffffffffffffffffffffff16639134e7e78360405160240161270991815260200190565b604051602081830303815290604052915060e01b6020820180517bffffffffffffffffffffffffffffffffffffffffffffffffffffffff83818316178352505050503073ffffffffffffffffffffffffffffffffffffffff166323a43ec88460405160240161277a91815260200190565b604051602081830303815290604052915060e01b6020820180517bffffffffffffffffffffffffffffffffffffffffffffffffffffffff83818316178352505050506007600201546137e1565b60008281526018602052604090205550565b6127e16145dc565b600082815260058085016020908152604092839020835160e0810185528154815260018083015473ffffffffffffffffffffffffffffffffffffffff9081169483019490945260028301549093169481019490945260038101546060850152600481015460808501529182015460a0840152600682015460c084019160ff90911690811115612872576128726146d9565b6001811115612883576128836146d9565b9052509392505050565b600080612898613af0565b50809250507f000000000000000000000000000000000000000000000000000000000000000073ffffffffffffffffffffffffffffffffffffffff1663573ea5756040518163ffffffff1660e01b8152600401602060405180830381865afa158015612908573d6000803e3d6000fd5b505050506040513d601f19601f8201168201806040525081019061292c9190615131565b90509091565b8054604080517f0aa7d2f9000000000000000000000000000000000000000000000000000000008152905160009273ffffffffffffffffffffffffffffffffffffffff1691630aa7d2f99160048083019260209291908290030181865afa1580156129a1573d6000803e3d6000fd5b505050506040513d601f19601f820116820180604052508101906129c59190615131565b73ffffffffffffffffffffffffffffffffffffffff16639d888e866040518163ffffffff1660e01b8152600401606060405180830381865afa158015612a0f573d6000803e3d6000fd5b505050506040513d601f19601f82011682018060405250810190612a3391906155c3565b5192915050565b825482516000908152600685016020526040902073ffffffffffffffffffffffffffffffffffffffff90911690623fb65390612a7590613b8a565b8484604051602001612a889291906155ff565b6040516020818303038152906040526040518363ffffffff1660e01b8152600401612ab492919061561b565b600060405180830381600087803b158015612ace57600080fd5b505af1158015612ae2573d6000803e3d6000fd5b50508351611e5a9250859150613b97565b825482516000908152600685016020526040902073ffffffffffffffffffffffffffffffffffffffff9091169063b9d3e69790612a7590613b8a565b600081815260186020526040902054156105a6576000818152601860205260408082208054929055517fee8ca3b5000000000000000000000000000000000000000000000000000000008152600481018290527f000000000000000000000000000000000000000000000000000000000000000073ffffffffffffffffffffffffffffffffffffffff169063ee8ca3b590602401600060405180830381600087803b158015612bdd57600080fd5b505af1158015610f88573d6000803e3d6000fd5b612c236040518060a0016040528060008152602001600081526020016000815260200160008152602001600081525090565b6040518060a0016040528060008152602001612c3e84611fb6565b8152602001612c4e846008015490565b8152602001612c5c84613c81565b8152602001612c6a84613e09565b81525090508060800151816060015182604001518360200151612c8d9190614bd8565b612c979190614bd8565b612ca19190614bd8565b8152919050565b600080612cb5600c613367565b600d5490915060008167ffffffffffffffff811115612cd657612cd6614c04565b604051908082528060200260200182016040528015612cff578160200160208202803683370190505b50905060005b82811015612d7157600754612d4c90612d229061ffff1688614f83565b87868481518110612d3557612d35615184565b6020026020010151611e8c9092919063ffffffff16565b828281518110612d5e57612d5e615184565b6020908102919091010152600101612d05565b506000612d8082600030611197565b8051606082015160408051918252602082018a905292935090917f8aad6bbc03265658da02fa5fbd92dceeb370324eb38f13306dd6fa7a99f41a1e910160405180910390a25195945050505050565b600080612ddb83613fd5565b90506000612de98230611c94565b80516060808301516040805191825260208201879052810188905292935090917fda49fd3c25d3b48f4b00bc9f0676581393595167b76d99ab50ae0b894fecf608910160405180910390a2519392505050565b612e446145dc565b600080612e51878661401b565b8854604080516060810182523381526020810184905293955091935060009273ffffffffffffffffffffffffffffffffffffffff909116916328700ad291309160018d019188918101612ea4898f614f83565b905260408051825173ffffffffffffffffffffffffffffffffffffffff166020808301919091528301518183015291015160608201526080016040516020818303038152906040526040518563ffffffff1660e01b8152600401612f0b949392919061556e565b6000604051808303816000875af1158015612f2a573d6000803e3d6000fd5b505050506040513d6000823e601f3d9081017fffffffffffffffffffffffffffffffffffffffffffffffffffffffffffffffe0168201604052612f709190810190614e7f565b90506040518060e00160405280612f868a6135ea565b81526020013373ffffffffffffffffffffffffffffffffffffffff1681526020018673ffffffffffffffffffffffffffffffffffffffff16815260200182600081518110612fd657612fd6615184565b602002602001015160200151815260200188815260200183815260200160006001811115613006576130066146d9565b90529350613015888583613608565b818860080160008282546130299190614bd8565b909155509398975050505050505050565b600061309c826040518060400160405280602081526020017f5361666545524332303a206c6f772d6c6576656c2063616c6c206661696c65648152508573ffffffffffffffffffffffffffffffffffffffff1661411b9092919063ffffffff16565b90508051600014806130bd5750808060200190518101906130bd9190615640565b611e5a576040517f08c379a000000000000000000000000000000000000000000000000000000000815260206004820152602a60248201527f5361666545524332303a204552433230206f7065726174696f6e20646964206e60448201527f6f742073756363656564000000000000000000000000000000000000000000006064820152608401610956565b6000806131558361412a565b83546040517ffaf07bf300000000000000000000000000000000000000000000000000000000815291925060009173ffffffffffffffffffffffffffffffffffffffff9091169063faf07bf3906131b3906001880190600401615662565b600060405180830381865afa1580156131d0573d6000803e3d6000fd5b505050506040513d6000823e601f3d9081017fffffffffffffffffffffffffffffffffffffffffffffffffffffffffffffffe01682016040526132169190810190615675565b9050600061322385613367565b905060005b825181101561335e57600086600901600088600101848154811061324e5761324e615184565b90600052602060002090601091828204019190066002029054906101000a900460010b60010b60010b81526020019081526020016000205483838151811061329857613298615184565b60200260200101516132aa9190614bd8565b90508015806132d257508482815181106132c6576132c6615184565b60200260200101516000145b806132f657508382815181106132ea576132ea615184565b60200260200101516000145b6133465761334184838151811061330f5761330f615184565b602002602001015186848151811061332957613329615184565b602002602001015183611e8c9092919063ffffffff16565b613349565b60005b6133539087614bd8565b955050600101613228565b50505050919050565b60606000613376836001015490565b67ffffffffffffffff81111561338e5761338e614c04565b6040519080825280602002602001820160405280156133b7578160200160208202803683370190505b50905060005b600184015481101561340957308282815181106133dc576133dc615184565b73ffffffffffffffffffffffffffffffffffffffff909216602092830291909101909101526001016133bd565b50613413836141d3565b73ffffffffffffffffffffffffffffffffffffffff16634e1273f482856004016040518363ffffffff1660e01b8152600401613450929190615730565b600060405180830381865afa15801561346d573d6000803e3d6000fd5b505050506040513d6000823e601f3d9081017fffffffffffffffffffffffffffffffffffffffffffffffffffffffffffffffe01682016040526105c89190810190615675565b60606134c0826001015490565b67ffffffffffffffff8111156134d8576134d8614c04565b604051908082528060200260200182016040528015613501578160200160208202803683370190505b50905060005b60018301548110156114995782600901600084600101838154811061352e5761352e615184565b90600052602060002090601091828204019190066002029054906101000a900460010b60010b60010b81526020019081526020016000205482828151811061357857613578615184565b6020908102919091010152600101613507565b600080613599868686611e8c565b905060018360028111156135af576135af6146d9565b1480156135cc5750600084806135c7576135c76151b3565b868809115b156135df576135dc600182614bd8565b90505b90505b949350505050565b600081600a01600081546135fd90615793565b918290555092915050565b815160009081526005808501602090815260409283902085518155908501516001808301805473ffffffffffffffffffffffffffffffffffffffff9384167fffffffffffffffffffffffff00000000000000000000000000000000000000009182161790915594870151600284018054919093169516949094179055606085015160038201556080850151600482015560a08501519181019190915560c084015160068201805486947fffffffffffffffffffffffffffffffffffffffffffffffffffffffffffffff009091169083818111156136e7576136e76146d9565b02179055505082516000908152600685016020526040812091505b82518110156137445761373b83828151811061372057613720615184565b6020026020010151600001518361424090919063ffffffff16565b50600101613702565b5033600090815260078501602052604090208351610f88908290614240565b60005b8151811015611e5a5781818151811061378157613781615184565b6020026020010151604001518360090160008484815181106137a5576137a5615184565b602002602001015160a0015160010b60010b815260200190815260200160002060008282546137d49190614bd8565b9091555050600101613766565b6000806040518060400160405280600367ffffffffffffffff81111561380957613809614c04565b604051908082528060200260200182016040528015613832578160200160208202803683370190505b5081526040805160038082526080820190925260209092019190816020015b6060815260200190600190039081613851575050905280518051919250600091829061387f5761387f615184565b60200260200101906003811115613898576138986146d9565b908160038111156138ab576138ab6146d9565b81525050600181600001516001815181106138c8576138c8615184565b602002602001019060038111156138e1576138e16146d9565b908160038111156138f4576138f46146d9565b815250506002816000015160028151811061391157613911615184565b6020026020010190600381111561392a5761392a6146d9565b9081600381111561393d5761393d6146d9565b90525060405161395390309087906020016157cb565b604051602081830303815290604052816020015160008151811061397957613979615184565b602090810291909101015261398e8342614bd8565b604080516fffffffffffffffffffffffffffffffff92831660208201529185169082015260600160405160208183030381529060405281602001516001815181106139db576139db615184565b6020026020010181905250604051806020016040528060008152508160200151600281518110613a0d57613a0d615184565b60209081029190910101526040517f3323b46700000000000000000000000000000000000000000000000000000000815273ffffffffffffffffffffffffffffffffffffffff7f00000000000000000000000000000000000000000000000000000000000000001690633323b46790613aa49030908890869073eeeeeeeeeeeeeeeeeeeeeeeeeeeeeeeeeeeeeeee906004016157fa565b6020604051808303816000875af1158015613ac3573d6000803e3d6000fd5b505050506040513d601f19601f82011682018060405250810190613ae79190614beb565b95945050505050565b6000807f000000000000000000000000000000000000000000000000000000000000000073ffffffffffffffffffffffffffffffffffffffff1663b810c6366040518163ffffffff1660e01b81526004016040805180830381865afa158015613b5d573d6000803e3d6000fd5b505050506040513d601f19601f82011682018060405250810190613b81919061591f565b90939092509050565b606060006105c88361424c565b6000613ba383836127d9565b60008381526005808601602090815260408084208481556001810180547fffffffffffffffffffffffff000000000000000000000000000000000000000090811690915560028201805490911690556003810185905560048101859055928301849055600692830180547fffffffffffffffffffffffffffffffffffffffffffffffffffffffffffffff00169055918701905281209192508181613c478282614655565b5050505060208181015173ffffffffffffffffffffffffffffffffffffffff1660009081526007850190915260409020610aae81846142a8565b600080613c8d8361412a565b83546040517ffaf07bf300000000000000000000000000000000000000000000000000000000815291925060009173ffffffffffffffffffffffffffffffffffffffff9091169063faf07bf390613ceb906001880190600401615662565b600060405180830381865afa158015613d08573d6000803e3d6000fd5b505050506040513d6000823e601f3d9081017fffffffffffffffffffffffffffffffffffffffffffffffffffffffffffffffe0168201604052613d4e9190810190615675565b90506000613d5b85613367565b905060005b825181101561335e576000828281518110613d7d57613d7d615184565b602002602001015190508060001480613daf5750848281518110613da357613da3615184565b60200260200101516000145b80613dd35750838281518110613dc757613dc7615184565b60200260200101516000145b613df157613dec84838151811061330f5761330f615184565b613df4565b60005b613dfe9087614bd8565b955050600101613d60565b600080613e158361412a565b83546040517ffaf07bf300000000000000000000000000000000000000000000000000000000815291925060009173ffffffffffffffffffffffffffffffffffffffff9091169063faf07bf390613e73906001880190600401615662565b600060405180830381865afa158015613e90573d6000803e3d6000fd5b505050506040513d6000823e601f3d9081017fffffffffffffffffffffffffffffffffffffffffffffffffffffffffffffffe0168201604052613ed69190810190615675565b905060005b8151811015613fcd576000856009016000876001018481548110613f0157613f01615184565b60009182526020808320601083040154600f9092166002026101000a90910460010b83528201929092526040019020549050801580613f595750838281518110613f4d57613f4d615184565b60200260200101516000145b80613f7d5750828281518110613f7157613f71615184565b60200260200101516000145b613fb557613fb0838381518110613f9657613f96615184565b602002602001015185848151811061332957613329615184565b613fb8565b60005b613fc29086614bd8565b945050600101613edb565b505050919050565b6007546000906104ba90613fef9061ffff16612710614f83565b613ffb84612710614f83565b6140059190614f83565b61401184612710614f83565b611acb600c611fb6565b6060600061402a846001015490565b67ffffffffffffffff81111561404257614042614c04565b60405190808252806020026020018201604052801561406b578160200160208202803683370190505b50915060005b60018501548110156141135760006140de86600201600088600101858154811061409d5761409d615184565b60009182526020808320601083040154600f9092166002026101000a90910460010b83528201929092526040019020546003880154879161ffff1690611e8c565b9050808483815181106140f3576140f3615184565b60209081029190910101526141088184614bd8565b925050600101614071565b509250929050565b60606135e284846000856142b4565b6060614135826141d3565b73ffffffffffffffffffffffffffffffffffffffff166377954ac2836004016040518263ffffffff1660e01b81526004016141709190615944565b600060405180830381865afa15801561418d573d6000803e3d6000fd5b505050506040513d6000823e601f3d9081017fffffffffffffffffffffffffffffffffffffffffffffffffffffffffffffffe01682016040526104ba9190810190615675565b8054604080517e64041d000000000000000000000000000000000000000000000000000000008152905160009273ffffffffffffffffffffffffffffffffffffffff16916264041d9160048083019260209291908290030181865afa158015611b9f573d6000803e3d6000fd5b60006105c883836143cd565b60608160000180548060200260200160405190810160405280929190818152602001828054801561429c57602002820191906000526020600020905b815481526020019060010190808311614288575b50505050509050919050565b60006105c88383614414565b606082471015614346576040517f08c379a000000000000000000000000000000000000000000000000000000000815260206004820152602660248201527f416464726573733a20696e73756666696369656e742062616c616e636520666f60448201527f722063616c6c00000000000000000000000000000000000000000000000000006064820152608401610956565b6000808673ffffffffffffffffffffffffffffffffffffffff16858760405161436f9190615957565b60006040518083038185875af1925050503d80600081146143ac576040519150601f19603f3d011682016040523d82523d6000602084013e6143b1565b606091505b50915091506143c2878383876144fd565b979650505050505050565b6000818152600183016020526040812054611b28575081546001818101845560008481526020808220909301849055845484825282860190935260409020919091556104ba565b6000818152600183016020526040812054801561173b576000614438600183614f83565b855490915060009061444c90600190614f83565b90508181146144b157600086600001828154811061446c5761446c615184565b906000526020600020015490508087600001848154811061448f5761448f615184565b6000918252602080832090910192909255918252600188019052604090208390555b85548690806144c2576144c2615973565b6001900381819060005260206000200160009055905585600101600086815260200190815260200160002060009055600193505050506104ba565b6060831561459357825160000361458c5773ffffffffffffffffffffffffffffffffffffffff85163b61458c576040517f08c379a000000000000000000000000000000000000000000000000000000000815260206004820152601d60248201527f416464726573733a2063616c6c20746f206e6f6e2d636f6e74726163740000006044820152606401610956565b50816135e2565b6135e283838151156145a85781518083602001fd5b806040517f08c379a000000000000000000000000000000000000000000000000000000000815260040161095691906147f6565b6040518060e0016040528060008152602001600073ffffffffffffffffffffffffffffffffffffffff168152602001600073ffffffffffffffffffffffffffffffffffffffff16815260200160008152602001600081526020016000815260200160006001811115614650576146506146d9565b905290565b50805460008255906000526020600020908101906105a691905b80821115614683576000815560010161466f565b5090565b73ffffffffffffffffffffffffffffffffffffffff811681146105a657600080fd5b600080604083850312156146bc57600080fd5b8235915060208301356146ce81614687565b809150509250929050565b7f4e487b7100000000000000000000000000000000000000000000000000000000600052602160045260246000fd5b80518252602081015173ffffffffffffffffffffffffffffffffffffffff80821660208501528060408401511660408501525050606081015160608301526080810151608083015260a081015160a083015260c08101516002811061476f5761476f6146d9565b8060c0840152505050565b60e081016104ba8284614708565b60005b838110156147a357818101518382015260200161478b565b50506000910152565b600081518084526147c4816020860160208601614788565b601f017fffffffffffffffffffffffffffffffffffffffffffffffffffffffffffffffe0169290920160200192915050565b6020815260006105c860208301846147ac565b6000806040838503121561481c57600080fd5b823561482781614687565b946020939093013593505050565b60006020828403121561484757600080fd5b5035919050565b60008060006060848603121561486357600080fd5b833561486e81614687565b9250602084013561487e81614687565b929592945050506040919091013590565b6000602082840312156148a157600080fd5b81356105c881614687565b82151581526040602082015260006135e260408301846147ac565b60008083601f8401126148d957600080fd5b50813567ffffffffffffffff8111156148f157600080fd5b60208301915083602082850101111561490957600080fd5b9250929050565b6000806000806060858703121561492657600080fd5b843561493181614687565b9350602085013561494181614687565b9250604085013567ffffffffffffffff81111561495d57600080fd5b614969878288016148c7565b95989497509550505050565b60008083601f84011261498757600080fd5b50813567ffffffffffffffff81111561499f57600080fd5b6020830191508360208260051b850101111561490957600080fd5b60008060008060008060008060008060a08b8d0312156149d957600080fd5b8a3567ffffffffffffffff808211156149f157600080fd5b6149fd8e838f01614975565b909c509a5060208d0135915080821115614a1657600080fd5b614a228e838f01614975565b909a50985060408d0135915080821115614a3b57600080fd5b614a478e838f01614975565b909850965060608d0135915080821115614a6057600080fd5b614a6c8e838f01614975565b909650945060808d0135915080821115614a8557600080fd5b50614a928d828e016148c7565b915080935050809150509295989b9194979a5092959850565b60008060408385031215614abe57600080fd5b8235614ac981614687565b915060208301356146ce81614687565b600080600080600060608688031215614af157600080fd5b8535614afc81614687565b9450602086013567ffffffffffffffff80821115614b1957600080fd5b614b2589838a01614975565b90965094506040880135915080821115614b3e57600080fd5b50614b4b888289016148c7565b969995985093965092949392505050565b600181811c90821680614b7057607f821691505b602082108103611499577f4e487b7100000000000000000000000000000000000000000000000000000000600052602260045260246000fd5b7f4e487b7100000000000000000000000000000000000000000000000000000000600052601160045260246000fd5b808201808211156104ba576104ba614ba9565b600060208284031215614bfd57600080fd5b5051919050565b7f4e487b7100000000000000000000000000000000000000000000000000000000600052604160045260246000fd5b6040516060810167ffffffffffffffff81118282101715614c5657614c56614c04565b60405290565b60405160e0810167ffffffffffffffff81118282101715614c5657614c56614c04565b60405160c0810167ffffffffffffffff81118282101715614c5657614c56614c04565b6040516080810167ffffffffffffffff81118282101715614c5657614c56614c04565b604051601f82017fffffffffffffffffffffffffffffffffffffffffffffffffffffffffffffffe016810167ffffffffffffffff81118282101715614d0c57614d0c614c04565b604052919050565b600060608284031215614d2657600080fd5b614d2e614c33565b8235614d3981614687565b8152602083810135908201526040928301359281019290925250919050565b600281106105a657600080fd5b600080828403610100811215614d7a57600080fd5b60e0811215614d8857600080fd5b50614d91614c5c565b833581526020840135614da381614687565b60208201526040840135614db681614687565b80604083015250606084013560608201526080840135608082015260a084013560a082015260c0840135614de981614d58565b60c08201529460e0939093013593505050565b81835260007f07ffffffffffffffffffffffffffffffffffffffffffffffffffffffffffffff831115614e2e57600080fd5b8260051b80836020870137939093016020019392505050565b6020815260006135e2602083018486614dfc565b600067ffffffffffffffff821115614e7557614e75614c04565b5060051b60200190565b60006020808385031215614e9257600080fd5b825167ffffffffffffffff811115614ea957600080fd5b8301601f81018513614eba57600080fd5b8051614ecd614ec882614e5b565b614cc5565b81815260c09182028301840191848201919088841115614eec57600080fd5b938501935b83851015614f775780858a031215614f095760008081fd5b614f11614c7f565b85518152868601518782015260408087015190820152606080870151614f3681614687565b90820152608086810151614f4981614d58565b9082015260a086810151600181900b8114614f645760008081fd5b9082015283529384019391850191614ef1565b50979650505050505050565b818103818111156104ba576104ba614ba9565b60006020808385031215614fa957600080fd5b823567ffffffffffffffff80821115614fc157600080fd5b9084019060808287031215614fd557600080fd5b614fdd614ca2565b8235614fe881614687565b815282840135614ff781614687565b818501526040838101359082015260608301358281111561501757600080fd5b80840193505086601f84011261502c57600080fd5b8235915061503c614ec883614e5b565b82815260059290921b8301840191848101908884111561505b57600080fd5b938501935b8385101561507957843582529385019390850190615060565b6060830152509695505050505050565b600081518084526020808501945080840160005b838110156150b95781518752958201959082019060010161509d565b509495945050505050565b600073ffffffffffffffffffffffffffffffffffffffff808916835280881660208401525060a060408301526150fe60a083018688614dfc565b82810360608401526151108186615089565b9050828103608084015261512481856147ac565b9998505050505050505050565b60006020828403121561514357600080fd5b81516105c881614687565b61ffff81811683821601908082111561174557611745614ba9565b61ffff82811682821603908082111561174557611745614ba9565b7f4e487b7100000000000000000000000000000000000000000000000000000000600052603260045260246000fd5b7f4e487b7100000000000000000000000000000000000000000000000000000000600052601260045260246000fd5b60208152600073ffffffffffffffffffffffffffffffffffffffff808451166020840152806020850151166040840152506040830151606083015260608301516080808401526135e260a0840182615089565b805480835260008281526020808220940193909190825b82600f8201101561539a578154600181810b88526020615275818a018460101c840b60010b9052565b6040615289818b0185841c850b60010b9052565b606091506152a0828b018560301c850b60010b9052565b60806152b4818c0186841c860b60010b9052565b60a091506152cb828c018660501c860b60010b9052565b60c06152df818d0187861c870b60010b9052565b60e093506152f6848d018760701c870b60010b9052565b85821c850b60010b6101008d01526153196101208d018760901c870b60010b9052565b85831c850b60010b6101408d015261533c6101608d018760b01c870b60010b9052565b85811c850b60010b6101808d01525050506153626101a08a018460d01c840b60010b9052565b82811c820b60010b6101c08a0152506153846101e089018360f01d60010b9052565b610200979097019692909201915060100161524c565b905490828110156153b457600182810b8752602090960195015b828110156153d157601082901c60010b8652602095909501946001015b828110156153ea57602082811c600190810b8852960195015b8281101561540757603082901c60010b8652602095909501946001015b8281101561542457604082901c60010b8652602095909501946001015b8281101561544157605082901c60010b8652602095909501946001015b8281101561545e57606082901c60010b8652602095909501946001015b8281101561547b57607082901c60010b8652602095909501946001015b8281101561549857608082901c60010b8652602095909501946001015b828110156154b557609082901c60010b8652602095909501946001015b828110156154d25760a082901c60010b8652602095909501946001015b828110156154ef5760b082901c60010b8652602095909501946001015b8281101561550c5760c082901c60010b8652602095909501946001015b828110156155295760d082901c60010b8652602095909501946001015b828110156155465760e082901c60010b8652602095909501946001015b828110156155645761555d868360f01d60010b9052565b6020860195505b5093949350505050565b73ffffffffffffffffffffffffffffffffffffffff8516815260806020820152600061559d6080830186615235565b82810360408401526155af8186615089565b905082810360608401526143c281856147ac565b6000606082840312156155d557600080fd5b6155dd614c33565b8251815260208301516020820152604083015160408201528091505092915050565b610100810161560e8285614708565b8260e08301529392505050565b60408152600061562e6040830185615089565b8281036020840152613ae781856147ac565b60006020828403121561565257600080fd5b815180151581146105c857600080fd5b6020815260006105c86020830184615235565b6000602080838503121561568857600080fd5b825167ffffffffffffffff81111561569f57600080fd5b8301601f810185136156b057600080fd5b80516156be614ec882614e5b565b81815260059190911b820183019083810190878311156156dd57600080fd5b928401925b828410156143c2578351825292840192908401906156e2565b6000815480845260208085019450836000528060002060005b838110156150b957815487529582019560019182019101615714565b604080825283519082018190526000906020906060840190828701845b8281101561577f57815173ffffffffffffffffffffffffffffffffffffffff168452928401929084019060010161574d565b5050508381038285015261167081866156fb565b60007fffffffffffffffffffffffffffffffffffffffffffffffffffffffffffffffff82036157c4576157c4614ba9565b5060010190565b73ffffffffffffffffffffffffffffffffffffffff831681526040602082015260006135e260408301846147ac565b73ffffffffffffffffffffffffffffffffffffffff851681526000602060808184015261582a60808401876147ac565b8381036040808601919091528651818352805191830182905283019060009060608401905b8083101561587f57835160048110615869576158696146d9565b825292850192600192909201919085019061584f565b508885015184820394860194909452835180825281860194860193509150600582901b8101850160005b838110156158f5577fffffffffffffffffffffffffffffffffffffffffffffffffffffffffffffffe08383030186526158e38286516147ac565b958701959487019491506001016158a9565b5073ffffffffffffffffffffffffffffffffffffffff891660608901529550613ae7945050505050565b6000806040838503121561593257600080fd5b8251915060208301516146ce81614687565b6020815260006105c860208301846156fb565b60008251615969818460208701614788565b9190910192915050565b7f4e487b7100000000000000000000000000000000000000000000000000000000600052603160045260246000fdfea2646970667358221220830262f3681f1a34bfb25f5cb042cc897ea1d06e4f22524c7d29502eb82cb64464736f6c63430008130033",
  "devdoc": {
    "errors": {
      "AlreadyRebalanceTaskExist()": [
        {
          "details": "Denotes that a rebalance task already exists"
        }
      ],
      "InvalidMinHoldingValueToRebalance()": [
        {
          "details": "Signifies that an invalid minHoldingValueToRebalance value has been encountered."
        }
      ],
      "InvalidRebalanceBPS()": [
        {
          "details": "Signifies that an invalid rebalance basis points value has been encountered."
        }
      ],
      "InvalidUtilizationTarget(uint16)": [
        {
          "details": "The invalid target basis points."
        }
      ],
      "NotAutomationCalled()": [
        {
          "details": "Thrown when an automation call is not made"
        }
      ],
      "NotImplementedInLogicContract()": [
        {
          "details": "Indicates that the functionality is not implemented in the logic contract."
        }
      ],
      "NotKeeperCalled()": [
        {
          "details": "Thrown when the keeper is not called."
        }
      ],
      "NotMarket()": [
        {
          "details": "Indicates that the operation is not applicable to the market."
        }
      ],
      "NotMatchDistributionLength(uint256,uint256)": [
        {
          "details": "Thrown when the lengths of the fee array and distribution array do not match.",
          "params": {
            "distributionLength": "The length of the distribution array.",
            "feeLength": "The length of the fee array."
          }
        }
      ],
      "NotOwner()": [
        {
          "details": "Signifies that the caller is not the owner of the contract"
        }
      ],
      "OnlyAccessableByOwner()": [
        {
          "details": "Signifies that the function is only accessible by the owner"
        }
      ],
      "OnlyBatchCall()": [
        {
          "details": "Denotes that the function can only be called within a batch call."
        }
      ],
      "TooSmallAmountToAddLiquidity()": [
        {
          "details": "Throws an error indicating that the amount to add liquidity is too small."
        }
      ],
      "UnknownLPAction()": [
        {
          "details": "Thrown when an unknown liquidity provider action is encountered"
        }
      ]
    },
    "events": {
      "AddLiquidity(uint256,address,address,uint256,uint256)": {
        "params": {
          "amount": "Amount of liquidity added in the settlement token.",
          "oracleVersion": "Version of the oracle used.",
          "provider": "Address of the liquidity provider.",
          "receiptId": "Unique identifier for the liquidity addition receipt.",
          "recipient": "Address of the recipient."
        }
      },
      "AddLiquiditySettled(uint256,address,address,uint256,uint256,uint256)": {
        "params": {
          "keeperFee": "Fee paid to the keeper.",
          "lpTokenAmount": "Amount of LP tokens issued.",
          "provider": "Address of the liquidity provider.",
          "receiptId": "Unique identifier for the liquidity addition receipt.",
          "recipient": "Address of the recipient.",
          "settlementAdded": "Settlement added to the liquidity"
        }
      },
      "Approval(address,address,uint256)": {
        "details": "Emitted when the allowance of a `spender` for an `owner` is set by a call to {approve}. `value` is the new allowance."
      },
      "RebalanceAddLiquidity(uint256,uint256,uint256,uint256)": {
        "params": {
          "amount": "Amount of liquidity added during rebalance.",
          "currentUtility": "Current utility of the liquidity provider.",
          "oracleVersion": "Version of the oracle used.",
          "receiptId": "Unique identifier for the rebalance liquidity addition receipt."
        }
      },
      "RebalanceRemoveLiquidity(uint256,uint256,uint256)": {
        "params": {
          "currentUtility": "Current utility of the liquidity pool.",
          "oracleVersion": "Version of the oracle used.",
          "receiptId": "Unique identifier for the rebalance liquidity removal receipt."
        }
      },
      "RebalanceSettled(uint256,uint256)": {
        "params": {
          "keeperFee": "Fee paid to the keeper.",
          "receiptId": "Unique identifier for the settled rebalance receipt."
        }
      },
      "RemoveLiquidity(uint256,address,address,uint256,uint256)": {
        "params": {
          "lpTokenAmount": "Amount of LP tokens to be removed.",
          "oracleVersion": "Version of the oracle used.",
          "provider": "Address of the liquidity provider.",
          "receiptId": "Unique identifier for the liquidity removal receipt.",
          "recipient": "Address of the recipient."
        }
      },
      "RemoveLiquiditySettled(uint256,address,address,uint256,uint256,uint256,uint256)": {
        "params": {
          "burningAmount": "Amount of LP tokens burned.",
          "keeperFee": "Fee paid to the keeper.",
          "provider": "Address of the liquidity provider.",
          "receiptId": "Unique identifier for the settled liquidity removal receipt.",
          "recipient": "Address of the recipient.",
          "refundedAmount": "Amount refunded to the provider.",
          "withdrawnSettlementAmount": "Withdrawn settlement amount."
        }
      },
      "Transfer(address,address,uint256)": {
        "details": "Emitted when `value` tokens are moved from one account (`from`) to another (`to`). Note that `value` may be zero."
      }
    },
    "kind": "dev",
    "methods": {
      "addLiquidity(uint256,address)": {
        "details": "implementation of IChromaticLP"
      },
      "addLiquidityBatchCallback(address,address,bytes)": {
        "details": "implementation of IChromaticLiquidityCallback"
      },
      "allowance(address,address)": {
        "details": "See {IERC20-allowance}."
      },
      "approve(address,uint256)": {
        "details": "See {IERC20-approve}. NOTE: If `amount` is the maximum `uint256`, the allowance is not updated on `transferFrom`. This is semantically equivalent to an infinite approval. Requirements: - `spender` cannot be the zero address."
      },
      "balanceOf(address)": {
        "details": "See {IERC20-balanceOf}."
      },
      "claimLiquidityBatchCallback(uint256[],int16[],uint256[],uint256[],bytes)": {
        "details": "implementation of IChromaticLiquidityCallback"
      },
      "decimals()": {
        "details": "Returns the number of decimals used to get its user representation. For example, if `decimals` equals `2`, a balance of `505` tokens should be displayed to a user as `5.05` (`505 / 10 ** 2`). Tokens usually opt for a value of 18, imitating the relationship between Ether and Wei. This is the default value returned by this function, unless it's overridden. NOTE: This information is only used for _display_ purposes: it in no way affects any of the arithmetic of the contract, including {IERC20-balanceOf} and {IERC20-transfer}."
      },
      "decreaseAllowance(address,uint256)": {
        "details": "Atomically decreases the allowance granted to `spender` by the caller. This is an alternative to {approve} that can be used as a mitigation for problems described in {IERC20-approve}. Emits an {Approval} event indicating the updated allowance. Requirements: - `spender` cannot be the zero address. - `spender` must have allowance for the caller of at least `subtractedValue`."
      },
      "increaseAllowance(address,uint256)": {
        "details": "Atomically increases the allowance granted to `spender` by the caller. This is an alternative to {approve} that can be used as a mitigation for problems described in {IERC20-approve}. Emits an {Approval} event indicating the updated allowance. Requirements: - `spender` cannot be the zero address."
      },
      "name()": {
        "details": "Returns the name of the token."
      },
      "rebalance()": {
        "details": "implementation of IChromaticLP"
      },
      "removeLiquidity(uint256,address)": {
        "details": "implementation of IChromaticLP"
      },
      "removeLiquidityBatchCallback(address,uint256[],bytes)": {
        "details": "implementation of IChromaticLiquidityCallback"
      },
      "settle(uint256)": {
        "details": "implementation of IChromaticLP"
      },
      "symbol()": {
        "details": "Returns the symbol of the token, usually a shorter version of the name."
      },
      "totalSupply()": {
        "details": "See {IERC20-totalSupply}."
      },
      "transfer(address,uint256)": {
        "details": "See {IERC20-transfer}. Requirements: - `to` cannot be the zero address. - the caller must have a balance of at least `amount`."
      },
      "transferFrom(address,address,uint256)": {
        "details": "See {IERC20-transferFrom}. Emits an {Approval} event indicating the updated allowance. This is not required by the EIP. See the note at the beginning of {ERC20}. NOTE: Does not update the allowance if the current allowance is the maximum `uint256`. Requirements: - `from` and `to` cannot be the zero address. - `from` must have a balance of at least `amount`. - the caller must have allowance for ``from``'s tokens of at least `amount`."
      },
      "withdrawLiquidityBatchCallback(uint256[],int16[],uint256[],uint256[],bytes)": {
        "details": "implementation of IChromaticLiquidityCallback"
      }
    },
    "version": 1
  },
  "userdoc": {
    "events": {
      "AddLiquidity(uint256,address,address,uint256,uint256)": {
        "notice": "Emitted when addLiquidity is performed."
      },
      "AddLiquiditySettled(uint256,address,address,uint256,uint256,uint256)": {
        "notice": "Emitted when addLiquidity is settled."
      },
      "RebalanceAddLiquidity(uint256,uint256,uint256,uint256)": {
        "notice": "Emitted when rebalance of adding liquidity is performed."
      },
      "RebalanceRemoveLiquidity(uint256,uint256,uint256)": {
        "notice": "Emitted when rebalance of removing liquidity is performed."
      },
      "RebalanceSettled(uint256,uint256)": {
        "notice": "Emitted when rebalancing is settled."
      },
      "RemoveLiquidity(uint256,address,address,uint256,uint256)": {
        "notice": "Emitted when removeLiquidity is performed."
      },
      "RemoveLiquiditySettled(uint256,address,address,uint256,uint256,uint256,uint256)": {
        "notice": "Emitted when removeLiquidity is settled."
      }
    },
    "kind": "user",
    "methods": {},
    "version": 1
  },
  "storageLayout": {
    "storage": [
      {
        "astId": 4061,
        "contract": "contracts/lp/ChromaticLPLogic.sol:ChromaticLPLogic",
        "label": "_balances",
        "offset": 0,
        "slot": "0",
        "type": "t_mapping(t_address,t_uint256)"
      },
      {
        "astId": 4067,
        "contract": "contracts/lp/ChromaticLPLogic.sol:ChromaticLPLogic",
        "label": "_allowances",
        "offset": 0,
        "slot": "1",
        "type": "t_mapping(t_address,t_mapping(t_address,t_uint256))"
      },
      {
        "astId": 4069,
        "contract": "contracts/lp/ChromaticLPLogic.sol:ChromaticLPLogic",
        "label": "_totalSupply",
        "offset": 0,
        "slot": "2",
        "type": "t_uint256"
      },
      {
        "astId": 4071,
        "contract": "contracts/lp/ChromaticLPLogic.sol:ChromaticLPLogic",
        "label": "_name",
        "offset": 0,
        "slot": "3",
        "type": "t_string_storage"
      },
      {
        "astId": 4073,
        "contract": "contracts/lp/ChromaticLPLogic.sol:ChromaticLPLogic",
        "label": "_symbol",
        "offset": 0,
        "slot": "4",
        "type": "t_string_storage"
      },
      {
        "astId": 12033,
        "contract": "contracts/lp/ChromaticLPLogic.sol:ChromaticLPLogic",
        "label": "s_meta",
        "offset": 0,
        "slot": "5",
        "type": "t_struct(LPMeta)12014_storage"
      },
      {
        "astId": 12036,
        "contract": "contracts/lp/ChromaticLPLogic.sol:ChromaticLPLogic",
        "label": "s_config",
        "offset": 0,
        "slot": "7",
        "type": "t_struct(LPConfig)12659_storage"
      },
      {
        "astId": 12039,
        "contract": "contracts/lp/ChromaticLPLogic.sol:ChromaticLPLogic",
        "label": "s_state",
        "offset": 0,
        "slot": "12",
        "type": "t_struct(LPState)12759_storage"
      },
      {
        "astId": 11771,
        "contract": "contracts/lp/ChromaticLPLogic.sol:ChromaticLPLogic",
        "label": "s_task",
        "offset": 0,
        "slot": "23",
        "type": "t_struct(Tasks)11756_storage"
      },
      {
        "astId": 3813,
        "contract": "contracts/lp/ChromaticLPLogic.sol:ChromaticLPLogic",
        "label": "_status",
        "offset": 0,
        "slot": "25",
        "type": "t_uint256"
      }
    ],
    "types": {
      "t_address": {
        "encoding": "inplace",
        "label": "address",
        "numberOfBytes": "20"
      },
      "t_array(t_bytes32)dyn_storage": {
        "base": "t_bytes32",
        "encoding": "dynamic_array",
        "label": "bytes32[]",
        "numberOfBytes": "32"
      },
      "t_array(t_int16)dyn_storage": {
        "base": "t_int16",
        "encoding": "dynamic_array",
        "label": "int16[]",
        "numberOfBytes": "32"
      },
      "t_array(t_uint256)dyn_storage": {
        "base": "t_uint256",
        "encoding": "dynamic_array",
        "label": "uint256[]",
        "numberOfBytes": "32"
      },
      "t_bytes32": {
        "encoding": "inplace",
        "label": "bytes32",
        "numberOfBytes": "32"
      },
      "t_contract(IChromaticMarket)330": {
        "encoding": "inplace",
        "label": "contract IChromaticMarket",
        "numberOfBytes": "20"
      },
      "t_enum(ChromaticLPAction)12614": {
        "encoding": "inplace",
        "label": "enum ChromaticLPAction",
        "numberOfBytes": "1"
      },
      "t_int16": {
        "encoding": "inplace",
        "label": "int16",
        "numberOfBytes": "2"
      },
      "t_mapping(t_address,t_mapping(t_address,t_uint256))": {
        "encoding": "mapping",
        "key": "t_address",
        "label": "mapping(address => mapping(address => uint256))",
        "numberOfBytes": "32",
        "value": "t_mapping(t_address,t_uint256)"
      },
      "t_mapping(t_address,t_struct(UintSet)8506_storage)": {
        "encoding": "mapping",
        "key": "t_address",
        "label": "mapping(address => struct EnumerableSet.UintSet)",
        "numberOfBytes": "32",
        "value": "t_struct(UintSet)8506_storage"
      },
      "t_mapping(t_address,t_uint256)": {
        "encoding": "mapping",
        "key": "t_address",
        "label": "mapping(address => uint256)",
        "numberOfBytes": "32",
        "value": "t_uint256"
      },
      "t_mapping(t_bytes32,t_uint256)": {
        "encoding": "mapping",
        "key": "t_bytes32",
        "label": "mapping(bytes32 => uint256)",
        "numberOfBytes": "32",
        "value": "t_uint256"
      },
      "t_mapping(t_int16,t_uint16)": {
        "encoding": "mapping",
        "key": "t_int16",
        "label": "mapping(int16 => uint16)",
        "numberOfBytes": "32",
        "value": "t_uint16"
      },
      "t_mapping(t_int16,t_uint256)": {
        "encoding": "mapping",
        "key": "t_int16",
        "label": "mapping(int16 => uint256)",
        "numberOfBytes": "32",
        "value": "t_uint256"
      },
      "t_mapping(t_uint256,t_bytes32)": {
        "encoding": "mapping",
        "key": "t_uint256",
        "label": "mapping(uint256 => bytes32)",
        "numberOfBytes": "32",
        "value": "t_bytes32"
      },
      "t_mapping(t_uint256,t_struct(ChromaticLPReceipt)12630_storage)": {
        "encoding": "mapping",
        "key": "t_uint256",
        "label": "mapping(uint256 => struct ChromaticLPReceipt)",
        "numberOfBytes": "32",
        "value": "t_struct(ChromaticLPReceipt)12630_storage"
      },
      "t_mapping(t_uint256,t_struct(UintSet)8506_storage)": {
        "encoding": "mapping",
        "key": "t_uint256",
        "label": "mapping(uint256 => struct EnumerableSet.UintSet)",
        "numberOfBytes": "32",
        "value": "t_struct(UintSet)8506_storage"
      },
      "t_string_storage": {
        "encoding": "bytes",
        "label": "string",
        "numberOfBytes": "32"
      },
      "t_struct(ChromaticLPReceipt)12630_storage": {
        "encoding": "inplace",
        "label": "struct ChromaticLPReceipt",
        "members": [
          {
            "astId": 12616,
            "contract": "contracts/lp/ChromaticLPLogic.sol:ChromaticLPLogic",
            "label": "id",
            "offset": 0,
            "slot": "0",
            "type": "t_uint256"
          },
          {
            "astId": 12618,
            "contract": "contracts/lp/ChromaticLPLogic.sol:ChromaticLPLogic",
            "label": "provider",
            "offset": 0,
            "slot": "1",
            "type": "t_address"
          },
          {
            "astId": 12620,
            "contract": "contracts/lp/ChromaticLPLogic.sol:ChromaticLPLogic",
            "label": "recipient",
            "offset": 0,
            "slot": "2",
            "type": "t_address"
          },
          {
            "astId": 12622,
            "contract": "contracts/lp/ChromaticLPLogic.sol:ChromaticLPLogic",
            "label": "oracleVersion",
            "offset": 0,
            "slot": "3",
            "type": "t_uint256"
          },
          {
            "astId": 12624,
            "contract": "contracts/lp/ChromaticLPLogic.sol:ChromaticLPLogic",
            "label": "amount",
            "offset": 0,
            "slot": "4",
            "type": "t_uint256"
          },
          {
            "astId": 12626,
            "contract": "contracts/lp/ChromaticLPLogic.sol:ChromaticLPLogic",
            "label": "pendingLiquidity",
            "offset": 0,
            "slot": "5",
            "type": "t_uint256"
          },
          {
            "astId": 12629,
            "contract": "contracts/lp/ChromaticLPLogic.sol:ChromaticLPLogic",
            "label": "action",
            "offset": 0,
            "slot": "6",
            "type": "t_enum(ChromaticLPAction)12614"
          }
        ],
        "numberOfBytes": "224"
      },
      "t_struct(LPConfig)12659_storage": {
        "encoding": "inplace",
        "label": "struct LPConfig",
        "members": [
          {
            "astId": 12648,
            "contract": "contracts/lp/ChromaticLPLogic.sol:ChromaticLPLogic",
            "label": "utilizationTargetBPS",
            "offset": 0,
            "slot": "0",
            "type": "t_uint16"
          },
          {
            "astId": 12650,
            "contract": "contracts/lp/ChromaticLPLogic.sol:ChromaticLPLogic",
            "label": "rebalanceBPS",
            "offset": 2,
            "slot": "0",
            "type": "t_uint16"
          },
          {
            "astId": 12652,
            "contract": "contracts/lp/ChromaticLPLogic.sol:ChromaticLPLogic",
            "label": "rebalanceCheckingInterval",
            "offset": 0,
            "slot": "1",
            "type": "t_uint256"
          },
          {
            "astId": 12654,
            "contract": "contracts/lp/ChromaticLPLogic.sol:ChromaticLPLogic",
            "label": "settleCheckingInterval",
            "offset": 0,
            "slot": "2",
            "type": "t_uint256"
          },
          {
            "astId": 12656,
            "contract": "contracts/lp/ChromaticLPLogic.sol:ChromaticLPLogic",
            "label": "automationFeeReserved",
            "offset": 0,
            "slot": "3",
            "type": "t_uint256"
          },
          {
            "astId": 12658,
            "contract": "contracts/lp/ChromaticLPLogic.sol:ChromaticLPLogic",
            "label": "minHoldingValueToRebalance",
            "offset": 0,
            "slot": "4",
            "type": "t_uint256"
          }
        ],
        "numberOfBytes": "160"
      },
      "t_struct(LPMeta)12014_storage": {
        "encoding": "inplace",
        "label": "struct ChromaticLPStorageCore.LPMeta",
        "members": [
          {
            "astId": 12011,
            "contract": "contracts/lp/ChromaticLPLogic.sol:ChromaticLPLogic",
            "label": "lpName",
            "offset": 0,
            "slot": "0",
            "type": "t_string_storage"
          },
          {
            "astId": 12013,
            "contract": "contracts/lp/ChromaticLPLogic.sol:ChromaticLPLogic",
            "label": "tag",
            "offset": 0,
            "slot": "1",
            "type": "t_string_storage"
          }
        ],
        "numberOfBytes": "64"
      },
      "t_struct(LPState)12759_storage": {
        "encoding": "inplace",
        "label": "struct LPState",
        "members": [
          {
            "astId": 12723,
            "contract": "contracts/lp/ChromaticLPLogic.sol:ChromaticLPLogic",
            "label": "market",
            "offset": 0,
            "slot": "0",
            "type": "t_contract(IChromaticMarket)330"
          },
          {
            "astId": 12726,
            "contract": "contracts/lp/ChromaticLPLogic.sol:ChromaticLPLogic",
            "label": "feeRates",
            "offset": 0,
            "slot": "1",
            "type": "t_array(t_int16)dyn_storage"
          },
          {
            "astId": 12730,
            "contract": "contracts/lp/ChromaticLPLogic.sol:ChromaticLPLogic",
            "label": "distributionRates",
            "offset": 0,
            "slot": "2",
            "type": "t_mapping(t_int16,t_uint16)"
          },
          {
            "astId": 12732,
            "contract": "contracts/lp/ChromaticLPLogic.sol:ChromaticLPLogic",
            "label": "totalRate",
            "offset": 0,
            "slot": "3",
            "type": "t_uint256"
          },
          {
            "astId": 12735,
            "contract": "contracts/lp/ChromaticLPLogic.sol:ChromaticLPLogic",
            "label": "clbTokenIds",
            "offset": 0,
            "slot": "4",
            "type": "t_array(t_uint256)dyn_storage"
          },
          {
            "astId": 12740,
            "contract": "contracts/lp/ChromaticLPLogic.sol:ChromaticLPLogic",
            "label": "receipts",
            "offset": 0,
            "slot": "5",
            "type": "t_mapping(t_uint256,t_struct(ChromaticLPReceipt)12630_storage)"
          },
          {
            "astId": 12745,
            "contract": "contracts/lp/ChromaticLPLogic.sol:ChromaticLPLogic",
            "label": "lpReceiptMap",
            "offset": 0,
            "slot": "6",
            "type": "t_mapping(t_uint256,t_struct(UintSet)8506_storage)"
          },
          {
            "astId": 12750,
            "contract": "contracts/lp/ChromaticLPLogic.sol:ChromaticLPLogic",
            "label": "providerReceiptIds",
            "offset": 0,
            "slot": "7",
            "type": "t_mapping(t_address,t_struct(UintSet)8506_storage)"
          },
          {
            "astId": 12752,
            "contract": "contracts/lp/ChromaticLPLogic.sol:ChromaticLPLogic",
            "label": "pendingAddAmount",
            "offset": 0,
            "slot": "8",
            "type": "t_uint256"
          },
          {
            "astId": 12756,
            "contract": "contracts/lp/ChromaticLPLogic.sol:ChromaticLPLogic",
            "label": "pendingRemoveClbAmounts",
            "offset": 0,
            "slot": "9",
            "type": "t_mapping(t_int16,t_uint256)"
          },
          {
            "astId": 12758,
            "contract": "contracts/lp/ChromaticLPLogic.sol:ChromaticLPLogic",
            "label": "receiptId",
            "offset": 0,
            "slot": "10",
            "type": "t_uint256"
          }
        ],
        "numberOfBytes": "352"
      },
      "t_struct(Set)8034_storage": {
        "encoding": "inplace",
        "label": "struct EnumerableSet.Set",
        "members": [
          {
            "astId": 8029,
            "contract": "contracts/lp/ChromaticLPLogic.sol:ChromaticLPLogic",
            "label": "_values",
            "offset": 0,
            "slot": "0",
            "type": "t_array(t_bytes32)dyn_storage"
          },
          {
            "astId": 8033,
            "contract": "contracts/lp/ChromaticLPLogic.sol:ChromaticLPLogic",
            "label": "_indexes",
            "offset": 0,
            "slot": "1",
            "type": "t_mapping(t_bytes32,t_uint256)"
          }
        ],
        "numberOfBytes": "64"
      },
      "t_struct(Tasks)11756_storage": {
        "encoding": "inplace",
        "label": "struct ChromaticLPStorage.Tasks",
        "members": [
          {
            "astId": 11751,
            "contract": "contracts/lp/ChromaticLPLogic.sol:ChromaticLPLogic",
            "label": "rebalanceTaskId",
            "offset": 0,
            "slot": "0",
            "type": "t_bytes32"
          },
          {
            "astId": 11755,
            "contract": "contracts/lp/ChromaticLPLogic.sol:ChromaticLPLogic",
            "label": "settleTasks",
            "offset": 0,
            "slot": "1",
            "type": "t_mapping(t_uint256,t_bytes32)"
          }
        ],
        "numberOfBytes": "64"
      },
      "t_struct(UintSet)8506_storage": {
        "encoding": "inplace",
        "label": "struct EnumerableSet.UintSet",
        "members": [
          {
            "astId": 8505,
            "contract": "contracts/lp/ChromaticLPLogic.sol:ChromaticLPLogic",
            "label": "_inner",
            "offset": 0,
            "slot": "0",
            "type": "t_struct(Set)8034_storage"
          }
        ],
        "numberOfBytes": "64"
      },
      "t_uint16": {
        "encoding": "inplace",
        "label": "uint16",
        "numberOfBytes": "2"
      },
      "t_uint256": {
        "encoding": "inplace",
        "label": "uint256",
        "numberOfBytes": "32"
      }
    }
  }
}