{
  "address": "0x61FF180a54b3e4d5D68aB5CB9011d127AbE24b8b",
  "abi": [
    {
      "inputs": [
        {
          "components": [
            {
              "internalType": "address",
              "name": "automate",
              "type": "address"
            },
            {
              "internalType": "address",
              "name": "opsProxyFactory",
              "type": "address"
            }
          ],
          "internalType": "struct ChromaticLPStorage.AutomateParam",
          "name": "automateParam",
          "type": "tuple"
        }
      ],
      "stateMutability": "nonpayable",
      "type": "constructor"
    },
    {
      "inputs": [],
      "name": "AlreadyRebalanceTaskExist",
      "type": "error"
    },
    {
      "inputs": [],
      "name": "AlreadySwapRouterConfigured",
      "type": "error"
    },
    {
      "inputs": [],
      "name": "InvalidDistributionSum",
      "type": "error"
    },
    {
      "inputs": [],
      "name": "InvalidRebalanceBPS",
      "type": "error"
    },
    {
      "inputs": [
        {
          "internalType": "uint16",
          "name": "targetBPS",
          "type": "uint16"
        }
      ],
      "name": "InvalidUtilizationTarget",
      "type": "error"
    },
    {
      "inputs": [],
      "name": "NotAutomationCalled",
      "type": "error"
    },
    {
      "inputs": [],
      "name": "NotImplementedInLogicContract",
      "type": "error"
    },
    {
      "inputs": [],
      "name": "NotKeeperCalled",
      "type": "error"
    },
    {
      "inputs": [],
      "name": "NotMarket",
      "type": "error"
    },
    {
      "inputs": [
        {
          "internalType": "uint256",
          "name": "feeLength",
          "type": "uint256"
        },
        {
          "internalType": "uint256",
          "name": "distributionLength",
          "type": "uint256"
        }
      ],
      "name": "NotMatchDistributionLength",
      "type": "error"
    },
    {
      "inputs": [],
      "name": "NotOwner",
      "type": "error"
    },
    {
      "inputs": [],
      "name": "OnlyAccessableByOwner",
      "type": "error"
    },
    {
      "inputs": [],
      "name": "OnlyBatchCall",
      "type": "error"
    },
    {
      "inputs": [],
      "name": "UnknownLPAction",
      "type": "error"
    },
    {
      "anonymous": false,
      "inputs": [
        {
          "indexed": true,
          "internalType": "uint256",
          "name": "receiptId",
          "type": "uint256"
        },
        {
          "indexed": true,
          "internalType": "address",
          "name": "provider",
          "type": "address"
        },
        {
          "indexed": true,
          "internalType": "address",
          "name": "recipient",
          "type": "address"
        },
        {
          "indexed": false,
          "internalType": "uint256",
          "name": "oracleVersion",
          "type": "uint256"
        },
        {
          "indexed": false,
          "internalType": "uint256",
          "name": "amount",
          "type": "uint256"
        }
      ],
      "name": "AddLiquidity",
      "type": "event"
    },
    {
      "anonymous": false,
      "inputs": [
        {
          "indexed": true,
          "internalType": "uint256",
          "name": "receiptId",
          "type": "uint256"
        },
        {
          "indexed": true,
          "internalType": "address",
          "name": "provider",
          "type": "address"
        },
        {
          "indexed": true,
          "internalType": "address",
          "name": "recipient",
          "type": "address"
        },
        {
          "indexed": false,
          "internalType": "uint256",
          "name": "settlementAdded",
          "type": "uint256"
        },
        {
          "indexed": false,
          "internalType": "uint256",
          "name": "lpTokenAmount",
          "type": "uint256"
        }
      ],
      "name": "AddLiquiditySettled",
      "type": "event"
    },
    {
      "anonymous": false,
      "inputs": [
        {
          "indexed": true,
          "internalType": "address",
          "name": "owner",
          "type": "address"
        },
        {
          "indexed": true,
          "internalType": "address",
          "name": "spender",
          "type": "address"
        },
        {
          "indexed": false,
          "internalType": "uint256",
          "name": "value",
          "type": "uint256"
        }
      ],
      "name": "Approval",
      "type": "event"
    },
    {
      "anonymous": false,
      "inputs": [
        {
          "indexed": true,
          "internalType": "uint256",
          "name": "receiptId",
          "type": "uint256"
        },
        {
          "indexed": false,
          "internalType": "uint256",
          "name": "oracleVersion",
          "type": "uint256"
        },
        {
          "indexed": false,
          "internalType": "uint256",
          "name": "amount",
          "type": "uint256"
        },
        {
          "indexed": false,
          "internalType": "uint256",
          "name": "currentUtility",
          "type": "uint256"
        }
      ],
      "name": "RebalanceAddLiquidity",
      "type": "event"
    },
    {
      "anonymous": false,
      "inputs": [
        {
          "indexed": true,
          "internalType": "uint256",
          "name": "receiptId",
          "type": "uint256"
        },
        {
          "indexed": false,
          "internalType": "uint256",
          "name": "oracleVersion",
          "type": "uint256"
        },
        {
          "indexed": false,
          "internalType": "uint256",
          "name": "currentUtility",
          "type": "uint256"
        }
      ],
      "name": "RebalanceRemoveLiquidity",
      "type": "event"
    },
    {
      "anonymous": false,
      "inputs": [
        {
          "indexed": true,
          "internalType": "uint256",
          "name": "receiptId",
          "type": "uint256"
        }
      ],
      "name": "RebalanceSettled",
      "type": "event"
    },
    {
      "anonymous": false,
      "inputs": [
        {
          "indexed": true,
          "internalType": "uint256",
          "name": "receiptId",
          "type": "uint256"
        },
        {
          "indexed": true,
          "internalType": "address",
          "name": "provider",
          "type": "address"
        },
        {
          "indexed": true,
          "internalType": "address",
          "name": "recipient",
          "type": "address"
        },
        {
          "indexed": false,
          "internalType": "uint256",
          "name": "oracleVersion",
          "type": "uint256"
        },
        {
          "indexed": false,
          "internalType": "uint256",
          "name": "lpTokenAmount",
          "type": "uint256"
        }
      ],
      "name": "RemoveLiquidity",
      "type": "event"
    },
    {
      "anonymous": false,
      "inputs": [
        {
          "indexed": true,
          "internalType": "uint256",
          "name": "receiptId",
          "type": "uint256"
        },
        {
          "indexed": true,
          "internalType": "address",
          "name": "provider",
          "type": "address"
        },
        {
          "indexed": true,
          "internalType": "address",
          "name": "recipient",
          "type": "address"
        },
        {
          "indexed": false,
          "internalType": "uint256",
          "name": "burningAmount",
          "type": "uint256"
        },
        {
          "indexed": false,
          "internalType": "uint256",
          "name": "witdrawnSettlementAmount",
          "type": "uint256"
        },
        {
          "indexed": false,
          "internalType": "uint256",
          "name": "refundedAmount",
          "type": "uint256"
        }
      ],
      "name": "RemoveLiquiditySettled",
      "type": "event"
    },
    {
      "anonymous": false,
      "inputs": [
        {
          "indexed": true,
          "internalType": "address",
          "name": "from",
          "type": "address"
        },
        {
          "indexed": true,
          "internalType": "address",
          "name": "to",
          "type": "address"
        },
        {
          "indexed": false,
          "internalType": "uint256",
          "name": "value",
          "type": "uint256"
        }
      ],
      "name": "Transfer",
      "type": "event"
    },
    {
      "inputs": [
        {
          "internalType": "uint256",
          "name": "amount",
          "type": "uint256"
        },
        {
          "internalType": "address",
          "name": "recipient",
          "type": "address"
        }
      ],
      "name": "addLiquidity",
      "outputs": [
        {
          "components": [
            {
              "internalType": "uint256",
              "name": "id",
              "type": "uint256"
            },
            {
              "internalType": "address",
              "name": "provider",
              "type": "address"
            },
            {
              "internalType": "address",
              "name": "recipient",
              "type": "address"
            },
            {
              "internalType": "uint256",
              "name": "oracleVersion",
              "type": "uint256"
            },
            {
              "internalType": "uint256",
              "name": "amount",
              "type": "uint256"
            },
            {
              "internalType": "uint256",
              "name": "pendingLiquidity",
              "type": "uint256"
            },
            {
              "internalType": "enum ChromaticLPAction",
              "name": "action",
              "type": "uint8"
            }
          ],
          "internalType": "struct ChromaticLPReceipt",
          "name": "receipt",
          "type": "tuple"
        }
      ],
      "stateMutability": "nonpayable",
      "type": "function"
    },
    {
      "inputs": [
        {
          "internalType": "address",
          "name": "settlementToken",
          "type": "address"
        },
        {
          "internalType": "address",
          "name": "vault",
          "type": "address"
        },
        {
          "internalType": "bytes",
          "name": "data",
          "type": "bytes"
        }
      ],
      "name": "addLiquidityBatchCallback",
      "outputs": [],
      "stateMutability": "nonpayable",
      "type": "function"
    },
    {
      "inputs": [
        {
          "internalType": "address",
          "name": "owner",
          "type": "address"
        },
        {
          "internalType": "address",
          "name": "spender",
          "type": "address"
        }
      ],
      "name": "allowance",
      "outputs": [
        {
          "internalType": "uint256",
          "name": "",
          "type": "uint256"
        }
      ],
      "stateMutability": "view",
      "type": "function"
    },
    {
      "inputs": [
        {
          "internalType": "address",
          "name": "spender",
          "type": "address"
        },
        {
          "internalType": "uint256",
          "name": "amount",
          "type": "uint256"
        }
      ],
      "name": "approve",
      "outputs": [
        {
          "internalType": "bool",
          "name": "",
          "type": "bool"
        }
      ],
      "stateMutability": "nonpayable",
      "type": "function"
    },
    {
      "inputs": [],
      "name": "automate",
      "outputs": [
        {
          "internalType": "contract IAutomate",
          "name": "",
          "type": "address"
        }
      ],
      "stateMutability": "view",
      "type": "function"
    },
    {
      "inputs": [
        {
          "internalType": "address",
          "name": "account",
          "type": "address"
        }
      ],
      "name": "balanceOf",
      "outputs": [
        {
          "internalType": "uint256",
          "name": "",
          "type": "uint256"
        }
      ],
      "stateMutability": "view",
      "type": "function"
    },
    {
      "inputs": [],
      "name": "cancelRebalanceTask",
      "outputs": [],
      "stateMutability": "nonpayable",
      "type": "function"
    },
    {
      "inputs": [
        {
          "internalType": "uint256[]",
          "name": "",
          "type": "uint256[]"
        },
        {
          "internalType": "int16[]",
          "name": "",
          "type": "int16[]"
        },
        {
          "internalType": "uint256[]",
          "name": "",
          "type": "uint256[]"
        },
        {
          "internalType": "uint256[]",
          "name": "",
          "type": "uint256[]"
        },
        {
          "internalType": "bytes",
          "name": "data",
          "type": "bytes"
        }
      ],
      "name": "claimLiquidityBatchCallback",
      "outputs": [],
      "stateMutability": "nonpayable",
      "type": "function"
    },
    {
      "inputs": [],
      "name": "decimals",
      "outputs": [
        {
          "internalType": "uint8",
          "name": "",
          "type": "uint8"
        }
      ],
      "stateMutability": "view",
      "type": "function"
    },
    {
      "inputs": [
        {
          "internalType": "address",
          "name": "spender",
          "type": "address"
        },
        {
          "internalType": "uint256",
          "name": "subtractedValue",
          "type": "uint256"
        }
      ],
      "name": "decreaseAllowance",
      "outputs": [
        {
          "internalType": "bool",
          "name": "",
          "type": "bool"
        }
      ],
      "stateMutability": "nonpayable",
      "type": "function"
    },
    {
      "inputs": [],
      "name": "dedicatedMsgSender",
      "outputs": [
        {
          "internalType": "address",
          "name": "",
          "type": "address"
        }
      ],
      "stateMutability": "view",
      "type": "function"
    },
    {
      "inputs": [
        {
          "internalType": "address",
          "name": "spender",
          "type": "address"
        },
        {
          "internalType": "uint256",
          "name": "addedValue",
          "type": "uint256"
        }
      ],
      "name": "increaseAllowance",
      "outputs": [
        {
          "internalType": "bool",
          "name": "",
          "type": "bool"
        }
      ],
      "stateMutability": "nonpayable",
      "type": "function"
    },
    {
      "inputs": [],
      "name": "name",
      "outputs": [
        {
          "internalType": "string",
          "name": "",
          "type": "string"
        }
      ],
      "stateMutability": "view",
      "type": "function"
    },
    {
      "inputs": [],
      "name": "rebalance",
      "outputs": [],
      "stateMutability": "nonpayable",
      "type": "function"
    },
    {
      "inputs": [
        {
          "internalType": "uint256",
          "name": "lpTokenAmount",
          "type": "uint256"
        },
        {
          "internalType": "address",
          "name": "recipient",
          "type": "address"
        }
      ],
      "name": "removeLiquidity",
      "outputs": [
        {
          "components": [
            {
              "internalType": "uint256",
              "name": "id",
              "type": "uint256"
            },
            {
              "internalType": "address",
              "name": "provider",
              "type": "address"
            },
            {
              "internalType": "address",
              "name": "recipient",
              "type": "address"
            },
            {
              "internalType": "uint256",
              "name": "oracleVersion",
              "type": "uint256"
            },
            {
              "internalType": "uint256",
              "name": "amount",
              "type": "uint256"
            },
            {
              "internalType": "uint256",
              "name": "pendingLiquidity",
              "type": "uint256"
            },
            {
              "internalType": "enum ChromaticLPAction",
              "name": "action",
              "type": "uint8"
            }
          ],
          "internalType": "struct ChromaticLPReceipt",
          "name": "receipt",
          "type": "tuple"
        }
      ],
      "stateMutability": "nonpayable",
      "type": "function"
    },
    {
      "inputs": [
        {
          "internalType": "address",
          "name": "clbToken",
          "type": "address"
        },
        {
          "internalType": "uint256[]",
          "name": "_clbTokenIds",
          "type": "uint256[]"
        },
        {
          "internalType": "bytes",
          "name": "data",
          "type": "bytes"
        }
      ],
      "name": "removeLiquidityBatchCallback",
      "outputs": [],
      "stateMutability": "nonpayable",
      "type": "function"
    },
    {
      "inputs": [],
      "name": "resolveRebalance",
      "outputs": [
        {
          "internalType": "bool",
          "name": "",
          "type": "bool"
        },
        {
          "internalType": "bytes",
          "name": "",
          "type": "bytes"
        }
      ],
      "stateMutability": "view",
      "type": "function"
    },
    {
      "inputs": [
        {
          "internalType": "uint256",
          "name": "",
          "type": "uint256"
        }
      ],
      "name": "resolveSettle",
      "outputs": [
        {
          "internalType": "bool",
          "name": "",
          "type": "bool"
        },
        {
          "internalType": "bytes",
          "name": "",
          "type": "bytes"
        }
      ],
      "stateMutability": "view",
      "type": "function"
    },
    {
      "inputs": [
        {
          "internalType": "uint256",
          "name": "receiptId",
          "type": "uint256"
        }
      ],
      "name": "settle",
      "outputs": [
        {
          "internalType": "bool",
          "name": "",
          "type": "bool"
        }
      ],
      "stateMutability": "nonpayable",
      "type": "function"
    },
    {
      "inputs": [
        {
          "internalType": "uint256",
          "name": "receiptId",
          "type": "uint256"
        }
      ],
      "name": "settleTask",
      "outputs": [],
      "stateMutability": "nonpayable",
      "type": "function"
    },
    {
      "inputs": [],
      "name": "symbol",
      "outputs": [
        {
          "internalType": "string",
          "name": "",
          "type": "string"
        }
      ],
      "stateMutability": "view",
      "type": "function"
    },
    {
      "inputs": [],
      "name": "totalSupply",
      "outputs": [
        {
          "internalType": "uint256",
          "name": "",
          "type": "uint256"
        }
      ],
      "stateMutability": "view",
      "type": "function"
    },
    {
      "inputs": [
        {
          "internalType": "address",
          "name": "to",
          "type": "address"
        },
        {
          "internalType": "uint256",
          "name": "amount",
          "type": "uint256"
        }
      ],
      "name": "transfer",
      "outputs": [
        {
          "internalType": "bool",
          "name": "",
          "type": "bool"
        }
      ],
      "stateMutability": "nonpayable",
      "type": "function"
    },
    {
      "inputs": [
        {
          "internalType": "address",
          "name": "from",
          "type": "address"
        },
        {
          "internalType": "address",
          "name": "to",
          "type": "address"
        },
        {
          "internalType": "uint256",
          "name": "amount",
          "type": "uint256"
        }
      ],
      "name": "transferFrom",
      "outputs": [
        {
          "internalType": "bool",
          "name": "",
          "type": "bool"
        }
      ],
      "stateMutability": "nonpayable",
      "type": "function"
    },
    {
      "inputs": [
        {
          "internalType": "uint256[]",
          "name": "receiptIds",
          "type": "uint256[]"
        },
        {
          "internalType": "int16[]",
          "name": "_feeRates",
          "type": "int16[]"
        },
        {
          "internalType": "uint256[]",
          "name": "withdrawnAmounts",
          "type": "uint256[]"
        },
        {
          "internalType": "uint256[]",
          "name": "burnedCLBTokenAmounts",
          "type": "uint256[]"
        },
        {
          "internalType": "bytes",
          "name": "data",
          "type": "bytes"
        }
      ],
      "name": "withdrawLiquidityBatchCallback",
      "outputs": [],
      "stateMutability": "nonpayable",
      "type": "function"
    }
  ],
  "transactionHash": "0x6dffcf366f1e868bd9caf3bb9b4020ce197e365737f1083c5d7e6577f64da9c9",
  "args": [
    {
      "automate": "0xa5f9b728ecEB9A1F6FCC89dcc2eFd810bA4Dec41",
      "opsProxyFactory": "0x0000000000000000000000000000000000000000"
    }
  ],
  "numDeployments": 2,
  "solcInputHash": "aad627eb884ac60408c83d9371a2e8b1",
  "bytecode": "0x60e06040523480156200001157600080fd5b5060405162005dc938038062005dc98339810160408190526200003491620001f4565b60408051808201825282516001600160a01b0390811680835260208086015190921682840181905284518084018652600080825286519485019096529483529293849391923092919060036200008b8382620002e9565b5060046200009a8282620002e9565b5050506001600160a01b03831660808190526040805163573ea57560e01b8152905163573ea575916004808201926020929091908290030181865afa158015620000e8573d6000803e3d6000fd5b505050506040513d601f19601f820116820180604052508101906200010e9190620003b5565b6001600160a01b0390811660c05281166200013a575073c815db16d4be6ddf2685c201937905abf338f5d75b6040516337b6269f60e21b81526001600160a01b03838116600483015282169063ded89a7c906024016040805180830381865afa15801562000180573d6000803e3d6000fd5b505050506040513d601f19601f82011682018060405250810190620001a69190620003dc565b506001600160a01b031660a05250506001601655506200041f92505050565b634e487b7160e01b600052604160045260246000fd5b6001600160a01b0381168114620001f157600080fd5b50565b6000604082840312156200020757600080fd5b604080519081016001600160401b03811182821017156200022c576200022c620001c5565b60405282516200023c81620001db565b815260208301516200024e81620001db565b60208201529392505050565b600181811c908216806200026f57607f821691505b6020821081036200029057634e487b7160e01b600052602260045260246000fd5b50919050565b601f821115620002e457600081815260208120601f850160051c81016020861015620002bf5750805b601f850160051c820191505b81811015620002e057828155600101620002cb565b5050505b505050565b81516001600160401b03811115620003055762000305620001c5565b6200031d816200031684546200025a565b8462000296565b602080601f8311600181146200035557600084156200033c5750858301515b600019600386901b1c1916600185901b178555620002e0565b600085815260208120601f198616915b82811015620003865788860151825594840194600190910190840162000365565b5085821015620003a55787850151600019600388901b60f8161c191681555b5050505050600190811b01905550565b600060208284031215620003c857600080fd5b8151620003d581620001db565b9392505050565b60008060408385031215620003f057600080fd5b8251620003fd81620001db565b602084015190925080151581146200041457600080fd5b809150509250929050565b60805160a05160c05161595a6200046f6000396000505060006102900152600081816101ad015281816107850152818161288401528181612903015281816137e7015261397f015261595a6000f3fe608060405234801561001057600080fd5b50600436106101a35760003560e01c80638df82800116100ee578063a9059cbb11610097578063d2419e2311610071578063d2419e23146103aa578063dd62ed3e146103bd578063e921b5c214610403578063f120bc4d1461041657600080fd5b8063a9059cbb14610371578063c95f9d0e14610384578063d0d063c01461039757600080fd5b806395d89b41116100c857806395d89b411461034e578063a06104ae14610356578063a457c2d71461035e57600080fd5b80638df82800146103125780639134e7e71461032557806393e15ee91461034657600080fd5b806323b872dd11610150578063395093511161012a57806339509351146102c157806370a08231146102d45780637d7c2a1c1461030a57600080fd5b806323b872dd1461027857806328f150eb1461028b578063313ce567146102b257600080fd5b8063095ea7b311610181578063095ea7b31461022e57806318160ddd1461025157806323a43ec81461026357600080fd5b8063049aacfe146101a857806305fe138b146101f957806306fdde0314610219575b600080fd5b6101cf7f000000000000000000000000000000000000000000000000000000000000000081565b60405173ffffffffffffffffffffffffffffffffffffffff90911681526020015b60405180910390f35b61020c6102073660046146af565b610429565b6040516101f0919061470e565b6102216104c0565b6040516101f091906147f8565b61024161023c36600461480b565b610552565b60405190151581526020016101f0565b6002545b6040519081526020016101f0565b610276610271366004614837565b61056a565b005b610241610286366004614850565b6105a9565b6101cf7f000000000000000000000000000000000000000000000000000000000000000081565b604051601281526020016101f0565b6102416102cf36600461480b565b6105cf565b6102556102e2366004614891565b73ffffffffffffffffffffffffffffffffffffffff1660009081526020819052604090205490565b61027661061b565b610241610320366004614837565b6106ec565b610338610333366004614837565b610710565b6040516101f09291906148ae565b610276610746565b6102216107f8565b610338610710565b61024161036c36600461480b565b610807565b61024161037f36600461480b565b6108e8565b61020c6103923660046146af565b6108f6565b6102766103a5366004614912565b610978565b6102766103b83660046149bc565b610a26565b6102556103cb366004614aad565b73ffffffffffffffffffffffffffffffffffffffff918216600090815260016020908152604080832093909416825291909152205490565b610276610411366004614adb565b610cfc565b6102766104243660046149bc565b610e38565b6104316145e2565b610439610fc0565b600061044484611033565b905061045181858561104b565b80516060820151604080519182526020820188905292945073ffffffffffffffffffffffffffffffffffffffff8616923392917fafe189cdf0c6561ab41d175127551a2c23d63bbcd824c7670394b7f691a64aa8910160405180910390a4506104ba6001601655565b92915050565b6060600380546104cf90614b5e565b80601f01602080910402602001604051908101604052809291908181526020018280546104fb90614b5e565b80156105485780601f1061051d57610100808354040283529160200191610548565b820191906000526020600020905b81548152906001019060200180831161052b57829003601f168201915b5050505050905090565b60003361056081858561106f565b5060019392505050565b600081815260156020526040902054156105a657600061058982611222565b90506105948261133e565b156105a4576105a281611405565b505b505b50565b6000336105b78582856115e0565b6105c28585856116b1565b60019150505b9392505050565b33600081815260016020908152604080832073ffffffffffffffffffffffffffffffffffffffff871684529091528120549091906105609082908690610616908790614bda565b61106f565b610623610fc0565b600061062d611931565b905080156106df576000610641600a611a0a565b6040517f70a0823100000000000000000000000000000000000000000000000000000000815230600482015273ffffffffffffffffffffffffffffffffffffffff91909116906370a0823190602401602060405180830381865afa1580156106ad573d6000803e3d6000fd5b505050506040513d601f19601f820116820180604052508101906106d19190614bed565b90506106dc81611405565b50505b506106ea6001601655565b565b60006106f6610fc0565b6106ff8261133e565b905061070b6001601655565b919050565b600060606040517ff3b52be100000000000000000000000000000000000000000000000000000000815260040160405180910390fd5b601454156106ea57600060148190556040517fee8ca3b500000000000000000000000000000000000000000000000000000000815260048101919091527f000000000000000000000000000000000000000000000000000000000000000073ffffffffffffffffffffffffffffffffffffffff169063ee8ca3b590602401600060405180830381600087803b1580156107de57600080fd5b505af11580156107f2573d6000803e3d6000fd5b50505050565b6060600480546104cf90614b5e565b33600081815260016020908152604080832073ffffffffffffffffffffffffffffffffffffffff87168452909152812054909190838110156108d0576040517f08c379a000000000000000000000000000000000000000000000000000000000815260206004820152602560248201527f45524332303a2064656372656173656420616c6c6f77616e63652062656c6f7760448201527f207a65726f00000000000000000000000000000000000000000000000000000060648201526084015b60405180910390fd5b6108dd828686840361106f565b506001949350505050565b6000336105608185856116b1565b6108fe6145e2565b610906610fc0565b6109108383611a9d565b80516060820151604080519182526020820187905292935073ffffffffffffffffffffffffffffffffffffffff8516923392917f91c55d0ae650a995846fcc24c8f3cfa58b5d18d1d1c340968383d8de36a90202910160405180910390a46104ba6001601655565b600a5473ffffffffffffffffffffffffffffffffffffffff1633146109c9576040517fc4bbea6900000000000000000000000000000000000000000000000000000000815260040160405180910390fd5b60006109d782840184614cd0565b90506109ed858260000151868460200151611ad9565b805173ffffffffffffffffffffffffffffffffffffffff163014610a1f57610a1f858260000151308460400151611ad9565b5050505050565b600a5473ffffffffffffffffffffffffffffffffffffffff163314610a77576040517fc4bbea6900000000000000000000000000000000000000000000000000000000815260040160405180910390fd5b6000610a8582840184614d21565b9050610a95600a8a8a8888611bb5565b604081015173ffffffffffffffffffffffffffffffffffffffff163014610cc3576000610ac2600a611c36565b90506000805b8c811015610afe57898982818110610ae257610ae2614dbd565b9050602002013582610af49190614bda565b9150600101610ac8565b506000610b0b600a611a0a565b6040517f70a0823100000000000000000000000000000000000000000000000000000000815230600482015273ffffffffffffffffffffffffffffffffffffffff91909116906370a0823190602401602060405180830381865afa158015610b77573d6000803e3d6000fd5b505050506040513d601f19601f82011682018060405250810190610b9b9190614bed565b9050600082610bc28660800151610bb160025490565b610bbb8787614dec565b9190611c63565b610bcc9190614bda565b90506000610be4610bdc60025490565b839087611c63565b90506000818760800151610bf89190614dec565b9050866040015173ffffffffffffffffffffffffffffffffffffffff16876020015173ffffffffffffffffffffffffffffffffffffffff1688600001517fcd9b39d7570666769a58b9b23a1f189b000e0b154876b27e4a154ca847a53865858786604051610c79939291909283526020830191909152604082015260600190565b60405180910390a4610c99610c8e600a611a0a565b886040015185611d8d565b610ca33083611de3565b8015610cb857610cb830886040015183611d8d565b505050505050610cef565b80516040517ff4be8da8d897d11d4370d3632f9a9aecbc5f3182deb67b7acc8de0af6e04a9b590600090a25b5050505050505050505050565b600a5473ffffffffffffffffffffffffffffffffffffffff163314610d4d576040517fc4bbea6900000000000000000000000000000000000000000000000000000000815260040160405180910390fd5b6000610d5b82840184614e23565b60408082015181516020810183526000815291517f2eb2c2d600000000000000000000000000000000000000000000000000000000815292935073ffffffffffffffffffffffffffffffffffffffff891692632eb2c2d692610dca92309233928c928c92909190600401614f43565b600060405180830381600087803b158015610de457600080fd5b505af1158015610df8573d6000803e3d6000fd5b5050825173ffffffffffffffffffffffffffffffffffffffff1630149150610e30905057610e30308260000151308460200151611ad9565b505050505050565b600a5473ffffffffffffffffffffffffffffffffffffffff163314610e89576040517fc4bbea6900000000000000000000000000000000000000000000000000000000815260040160405180910390fd5b6000610e9782840184614d21565b90508060a00151600a6007016000828254610eb29190614dec565b9091555050604081015173ffffffffffffffffffffffffffffffffffffffff163014610cc3576000610ee4600a611c36565b90506000610ef160025490565b15610f2257610f1d610f0260025490565b6080850151610f119085614dec565b60808601519190611c63565b610f28565b82608001515b9050610f38836040015182611fba565b826040015173ffffffffffffffffffffffffffffffffffffffff16836020015173ffffffffffffffffffffffffffffffffffffffff1684600001517f5b8912f7b6279b0f8853b45d905392ee067798a3cc9dcb145a2a8907d93494e1866080015185604051610fb1929190918252602082015260400190565b60405180910390a45050610cef565b60026016540361102c576040517f08c379a000000000000000000000000000000000000000000000000000000000815260206004820152601f60248201527f5265656e7472616e637947756172643a207265656e7472616e742063616c6c0060448201526064016108c7565b6002601655565b60606104ba8261104260025490565b600a91906120c1565b6110536145e2565b611060600a8585856122c3565b90506105c8816000015161246a565b73ffffffffffffffffffffffffffffffffffffffff8316611111576040517f08c379a0000000000000000000000000000000000000000000000000000000008152602060048201526024808201527f45524332303a20617070726f76652066726f6d20746865207a65726f2061646460448201527f726573730000000000000000000000000000000000000000000000000000000060648201526084016108c7565b73ffffffffffffffffffffffffffffffffffffffff82166111b4576040517f08c379a000000000000000000000000000000000000000000000000000000000815260206004820152602260248201527f45524332303a20617070726f766520746f20746865207a65726f20616464726560448201527f737300000000000000000000000000000000000000000000000000000000000060648201526084016108c7565b73ffffffffffffffffffffffffffffffffffffffff83811660008181526001602090815260408083209487168084529482529182902085905590518481527f8c5be1e5ebec7d5bd14f71427d1e84f3dd0314c0f7b2291e5b200ac8c7c3b925910160405180910390a3505050565b600080611230600a84612581565b905060008160c00151600181111561124a5761124a6146df565b0361127d5760075460808201516112679161ffff16612710611c63565b81608001516112769190614dec565b9150611338565b6000611289600a611a0a565b6040517f70a0823100000000000000000000000000000000000000000000000000000000815230600482015273ffffffffffffffffffffffffffffffffffffffff91909116906370a0823190602401602060405180830381865afa1580156112f5573d6000803e3d6000fd5b505050506040513d601f19601f820116820180604052508101906113199190614bed565b9050611334826080015161132c60025490565b839190611c63565b9250505b50919050565b60008061134c600a84612581565b9050611358600a612635565b816060015110156113fc5760008160c00151600181111561137b5761137b6146df565b036113905761138b600a8261273d565b6113ea565b60018160c0015160018111156113a8576113a86146df565b036113b85761138b600a826127f4565b6040517f0c63171200000000000000000000000000000000000000000000000000000000815260040160405180910390fd5b6113f383612830565b50600192915050565b50600092915050565b60008060006114126128f1565b915091506000600a60000160009054906101000a900473ffffffffffffffffffffffffffffffffffffffff1673ffffffffffffffffffffffffffffffffffffffff1663c45a01556040518163ffffffff1660e01b8152600401602060405180830381865afa158015611488573d6000803e3d6000fd5b505050506040513d601f19601f820116820180604052508101906114ac9190614fe9565b73ffffffffffffffffffffffffffffffffffffffff16635b5b52c06040518163ffffffff1660e01b8152600401602060405180830381865afa1580156114f6573d6000803e3d6000fd5b505050506040513d601f19601f8201168201806040525081019061151a9190614fe9565b90506000611528600a611a0a565b9050611535818388611d8d565b6040517f780205b100000000000000000000000000000000000000000000000000000000815273ffffffffffffffffffffffffffffffffffffffff828116600483015260248201869052848116604483015283169063780205b1906064016020604051808303816000875af11580156115b2573d6000803e3d6000fd5b505050506040513d601f19601f820116820180604052508101906115d69190614bed565b9695505050505050565b73ffffffffffffffffffffffffffffffffffffffff8381166000908152600160209081526040808320938616835292905220547fffffffffffffffffffffffffffffffffffffffffffffffffffffffffffffffff81146107f257818110156116a4576040517f08c379a000000000000000000000000000000000000000000000000000000000815260206004820152601d60248201527f45524332303a20696e73756666696369656e7420616c6c6f77616e636500000060448201526064016108c7565b6107f2848484840361106f565b73ffffffffffffffffffffffffffffffffffffffff8316611754576040517f08c379a000000000000000000000000000000000000000000000000000000000815260206004820152602560248201527f45524332303a207472616e736665722066726f6d20746865207a65726f20616460448201527f647265737300000000000000000000000000000000000000000000000000000060648201526084016108c7565b73ffffffffffffffffffffffffffffffffffffffff82166117f7576040517f08c379a000000000000000000000000000000000000000000000000000000000815260206004820152602360248201527f45524332303a207472616e7366657220746f20746865207a65726f206164647260448201527f657373000000000000000000000000000000000000000000000000000000000060648201526084016108c7565b6118028383836105a2565b73ffffffffffffffffffffffffffffffffffffffff8316600090815260208190526040902054818110156118b8576040517f08c379a000000000000000000000000000000000000000000000000000000000815260206004820152602660248201527f45524332303a207472616e7366657220616d6f756e742065786365656473206260448201527f616c616e6365000000000000000000000000000000000000000000000000000060648201526084016108c7565b73ffffffffffffffffffffffffffffffffffffffff848116600081815260208181526040808320878703905593871680835291849020805487019055925185815290927fddf252ad1be2c89b69c2b068fc378daa952ba7f163c4a11628f55a4df523b3ef910160405180910390a36107f28484846105a2565b600061193b610fc0565b600080611948600a612996565b915061ffff16915080600003611963576000925050506119fd565b6040805160808101825260075461ffff8082168352620100009091041660208201526008549181019190915260095460608201526000906119a490846129f0565b905060028160028111156119ba576119ba6146df565b036119d2576119c883612a45565b93505050506119fd565b60018160028111156119e6576119e66146df565b036119f5576119c88383612b6c565b600093505050505b611a076001601655565b90565b8054604080517f7b9e618d000000000000000000000000000000000000000000000000000000008152905160009273ffffffffffffffffffffffffffffffffffffffff1691637b9e618d9160048083019260209291908290030181865afa158015611a79573d6000803e3d6000fd5b505050506040513d601f19601f820116820180604052508101906104ba9190614fe9565b611aa56145e2565b600754611aca908490611ac090829061ffff16612710611c63565b600a919085612c0b565b90506104ba816000015161246a565b60405173ffffffffffffffffffffffffffffffffffffffff808516602483015283166044820152606481018290526107f29085907f23b872dd00000000000000000000000000000000000000000000000000000000906084015b604080517fffffffffffffffffffffffffffffffffffffffffffffffffffffffffffffffe08184030181529190526020810180517bffffffffffffffffffffffffffffffffffffffffffffffffffffffff167fffffffff0000000000000000000000000000000000000000000000000000000090931692909217909152612e09565b60005b83811015610e3057828282818110611bd257611bd2614dbd565b90506020020135866008016000878785818110611bf157611bf1614dbd565b9050602002016020810190611c069190615015565b60010b60010b81526020019081526020016000206000828254611c299190614dec565b9091555050600101611bb8565b6000611c4182612f18565b6007830154611c4f84613215565b611c599190614bda565b6104ba9190614bda565b600080807fffffffffffffffffffffffffffffffffffffffffffffffffffffffffffffffff85870985870292508281108382030391505080600003611cbb57838281611cb157611cb1615032565b04925050506105c8565b808411611d24576040517f08c379a000000000000000000000000000000000000000000000000000000000815260206004820152601560248201527f4d6174683a206d756c446976206f766572666c6f77000000000000000000000060448201526064016108c7565b60008486880960026001871981018816978890046003810283188082028403028082028403028082028403028082028403028082028403029081029092039091026000889003889004909101858311909403939093029303949094049190911702949350505050565b60405173ffffffffffffffffffffffffffffffffffffffff83166024820152604481018290526105a29084907fa9059cbb0000000000000000000000000000000000000000000000000000000090606401611b33565b73ffffffffffffffffffffffffffffffffffffffff8216611e86576040517f08c379a000000000000000000000000000000000000000000000000000000000815260206004820152602160248201527f45524332303a206275726e2066726f6d20746865207a65726f2061646472657360448201527f730000000000000000000000000000000000000000000000000000000000000060648201526084016108c7565b611e92826000836105a2565b73ffffffffffffffffffffffffffffffffffffffff821660009081526020819052604090205481811015611f48576040517f08c379a000000000000000000000000000000000000000000000000000000000815260206004820152602260248201527f45524332303a206275726e20616d6f756e7420657863656564732062616c616e60448201527f636500000000000000000000000000000000000000000000000000000000000060648201526084016108c7565b73ffffffffffffffffffffffffffffffffffffffff83166000818152602081815260408083208686039055600280548790039055518581529192917fddf252ad1be2c89b69c2b068fc378daa952ba7f163c4a11628f55a4df523b3ef910160405180910390a36105a2836000846105a2565b73ffffffffffffffffffffffffffffffffffffffff8216612037576040517f08c379a000000000000000000000000000000000000000000000000000000000815260206004820152601f60248201527f45524332303a206d696e7420746f20746865207a65726f20616464726573730060448201526064016108c7565b612043600083836105a2565b80600260008282546120559190614bda565b909155505073ffffffffffffffffffffffffffffffffffffffff8216600081815260208181526040808320805486019055518481527fddf252ad1be2c89b69c2b068fc378daa952ba7f163c4a11628f55a4df523b3ef910160405180910390a36105a4600083836105a2565b606060006120d0856001015490565b905060008167ffffffffffffffff8111156120ed576120ed614c06565b604051908082528060200260200182016040528015612116578160200160208202803683370190505b50905060005b82811015612164573082828151811061213757612137614dbd565b73ffffffffffffffffffffffffffffffffffffffff9092166020928302919091019091015260010161211c565b506000612170876132b0565b73ffffffffffffffffffffffffffffffffffffffff16634e1273f483896003016040518363ffffffff1660e01b81526004016121ad929190615096565b600060405180830381865afa1580156121ca573d6000803e3d6000fd5b505050506040513d6000823e601f3d9081017fffffffffffffffffffffffffffffffffffffffffffffffffffffffffffffffe016820160405261221091908101906150f9565b90508267ffffffffffffffff81111561222b5761222b614c06565b604051908082528060200260200182016040528015612254578160200160208202803683370190505b50935060005b838110156122b8576122938787600185858151811061227b5761227b614dbd565b602002602001015161331d909392919063ffffffff16565b8582815181106122a5576122a5614dbd565b602090810291909101015260010161225a565b505050509392505050565b6122cb6145e2565b8454604080516060810182523381526020808201879052818301889052915160009373ffffffffffffffffffffffffffffffffffffffff169263766e1b1792309260018c01928b9261231f9290910161517f565b6040516020818303038152906040526040518563ffffffff1660e01b815260040161234d94939291906154fd565b6000604051808303816000875af115801561236c573d6000803e3d6000fd5b505050506040513d6000823e601f3d9081017fffffffffffffffffffffffffffffffffffffffffffffffffffffffffffffffe01682016040526123b29190810190615552565b90506040518060e001604052806123c88861337c565b81526020013373ffffffffffffffffffffffffffffffffffffffff1681526020018473ffffffffffffffffffffffffffffffffffffffff1681526020018260008151811061241857612418614dbd565b602002602001015160200151815260200185815260200160008152602001600180811115612448576124486146df565b9052915061245786838361339a565b61246186826134f5565b50949350505050565b60008181526015602052604081205490036105a65761256f3073ffffffffffffffffffffffffffffffffffffffff16639134e7e7836040516024016124b191815260200190565b604051602081830303815290604052915060e01b6020820180517bffffffffffffffffffffffffffffffffffffffffffffffffffffffff83818316178352505050503073ffffffffffffffffffffffffffffffffffffffff166323a43ec88460405160240161252291815260200190565b604051602081830303815290604052915060e01b6020820180517bffffffffffffffffffffffffffffffffffffffffffffffffffffffff8381831617835250505050600760020154613573565b60008281526015602052604090205550565b6125896145e2565b600082815260048085016020908152604092839020835160e0810185528154815260018083015473ffffffffffffffffffffffffffffffffffffffff9081169483019490945260028301549093169481019490945260038101546060850152918201546080840152600582015460a0840152600682015460c084019160ff9091169081111561261a5761261a6146df565b600181111561262b5761262b6146df565b9052509392505050565b8054604080517f0aa7d2f9000000000000000000000000000000000000000000000000000000008152905160009273ffffffffffffffffffffffffffffffffffffffff1691630aa7d2f99160048083019260209291908290030181865afa1580156126a4573d6000803e3d6000fd5b505050506040513d601f19601f820116820180604052508101906126c89190614fe9565b73ffffffffffffffffffffffffffffffffffffffff16639d888e866040518163ffffffff1660e01b8152600401606060405180830381865afa158015612712573d6000803e3d6000fd5b505050506040513d601f19601f820116820180604052508101906127369190615649565b5192915050565b815481516000908152600584016020526040902073ffffffffffffffffffffffffffffffffffffffff90911690623fb6539061277890613882565b83604051602001612789919061470e565b6040516020818303038152906040526040518363ffffffff1660e01b81526004016127b5929190615685565b600060405180830381600087803b1580156127cf57600080fd5b505af11580156127e3573d6000803e3d6000fd5b505082516105a4925084915061388f565b815481516000908152600584016020526040902073ffffffffffffffffffffffffffffffffffffffff9091169063b9d3e6979061277890613882565b600081815260156020526040902054156105a657600081815260156020526040808220829055517fee8ca3b500000000000000000000000000000000000000000000000000000000815260048101919091527f000000000000000000000000000000000000000000000000000000000000000073ffffffffffffffffffffffffffffffffffffffff169063ee8ca3b590602401600060405180830381600087803b1580156128dd57600080fd5b505af1158015610a1f573d6000803e3d6000fd5b6000806128fc61397a565b50809250507f000000000000000000000000000000000000000000000000000000000000000073ffffffffffffffffffffffffffffffffffffffff1663573ea5756040518163ffffffff1660e01b8152600401602060405180830381865afa15801561296c573d6000803e3d6000fd5b505050506040513d601f19601f820116820180604052508101906129909190614fe9565b90509091565b60008060006129a484613a14565b80519250905060008290036129bc57600092506129ea565b6129e76127108260000151836080015184602001516129db9190614bda565b8451610bbb9190614dec565b92505b50915091565b60008183602001518460000151612a0791906156aa565b61ffff161015612a19575060026104ba565b602083015183518391612a2b916156c5565b61ffff161115612a3d575060016104ba565b5060006104ba565b600080612a52600a613acb565b600b5490915060008167ffffffffffffffff811115612a7357612a73614c06565b604051908082528060200260200182016040528015612a9c578160200160208202803683370190505b50905060005b82811015612b0e576007548451612ae99162010000900461ffff16908890879085908110612ad257612ad2614dbd565b6020026020010151611c639092919063ffffffff16565b828281518110612afb57612afb614dbd565b6020908102919091010152600101612aa2565b506000612b1d8260003061104b565b8051606082015160408051918252602082018a905292935090917f8aad6bbc03265658da02fa5fbd92dceeb370324eb38f13306dd6fa7a99f41a1e910160405180910390a25195945050505050565b6007546000908190612b8c90849062010000900461ffff16612710611c63565b600754909150600090612bb790612bb190869062010000900461ffff16612710611c63565b30611a9d565b80516060808301516040805191825260208201879052810189905292935090917fda49fd3c25d3b48f4b00bc9f0676581393595167b76d99ab50ae0b894fecf608910160405180910390a251949350505050565b612c136145e2565b600080612c208786613c17565b8854604080516060810182523381526020810184905293955091935060009273ffffffffffffffffffffffffffffffffffffffff909116916328700ad291309160018d019188918101612c73898f614dec565b905260408051825173ffffffffffffffffffffffffffffffffffffffff166020808301919091528301518183015291015160608201526080016040516020818303038152906040526040518563ffffffff1660e01b8152600401612cda94939291906154fd565b6000604051808303816000875af1158015612cf9573d6000803e3d6000fd5b505050506040513d6000823e601f3d9081017fffffffffffffffffffffffffffffffffffffffffffffffffffffffffffffffe0168201604052612d3f9190810190615552565b90506040518060e00160405280612d558a61337c565b81526020013373ffffffffffffffffffffffffffffffffffffffff1681526020018673ffffffffffffffffffffffffffffffffffffffff16815260200182600081518110612da557612da5614dbd565b602002602001015160200151815260200188815260200183815260200160006001811115612dd557612dd56146df565b90529350612de488858361339a565b81886007016000828254612df89190614bda565b909155509398975050505050505050565b6000612e6b826040518060400160405280602081526020017f5361666545524332303a206c6f772d6c6576656c2063616c6c206661696c65648152508573ffffffffffffffffffffffffffffffffffffffff16613d149092919063ffffffff16565b9050805160001480612e8c575080806020019051810190612e8c91906156e0565b6105a2576040517f08c379a000000000000000000000000000000000000000000000000000000000815260206004820152602a60248201527f5361666545524332303a204552433230206f7065726174696f6e20646964206e60448201527f6f7420737563636565640000000000000000000000000000000000000000000060648201526084016108c7565b6000808260000160009054906101000a900473ffffffffffffffffffffffffffffffffffffffff1673ffffffffffffffffffffffffffffffffffffffff166264041d6040518163ffffffff1660e01b8152600401602060405180830381865afa158015612f89573d6000803e3d6000fd5b505050506040513d601f19601f82011682018060405250810190612fad9190614fe9565b73ffffffffffffffffffffffffffffffffffffffff166377954ac2846003016040518263ffffffff1660e01b8152600401612fe89190615702565b600060405180830381865afa158015613005573d6000803e3d6000fd5b505050506040513d6000823e601f3d9081017fffffffffffffffffffffffffffffffffffffffffffffffffffffffffffffffe016820160405261304b91908101906150f9565b83546040517ffaf07bf300000000000000000000000000000000000000000000000000000000815291925060009173ffffffffffffffffffffffffffffffffffffffff9091169063faf07bf3906130a9906001880190600401615715565b600060405180830381865afa1580156130c6573d6000803e3d6000fd5b505050506040513d6000823e601f3d9081017fffffffffffffffffffffffffffffffffffffffffffffffffffffffffffffffe016820160405261310c91908101906150f9565b9050600061311985613acb565b905060005b825181101561320c57600086600801600088600101848154811061314457613144614dbd565b90600052602060002090601091828204019190066002029054906101000a900460010b60010b60010b81526020019081526020016000205483838151811061318e5761318e614dbd565b60200260200101516131a09190614bda565b905080156131f4576131ef8483815181106131bd576131bd614dbd565b60200260200101518684815181106131d7576131d7614dbd565b602002602001015183611c639092919063ffffffff16565b6131f7565b60005b6132019087614bda565b95505060010161311e565b50505050919050565b600061322082611a0a565b6040517f70a0823100000000000000000000000000000000000000000000000000000000815230600482015273ffffffffffffffffffffffffffffffffffffffff91909116906370a0823190602401602060405180830381865afa15801561328c573d6000803e3d6000fd5b505050506040513d601f19601f820116820180604052508101906104ba9190614bed565b8054604080517e64041d000000000000000000000000000000000000000000000000000000008152905160009273ffffffffffffffffffffffffffffffffffffffff16916264041d9160048083019260209291908290030181865afa158015611a79573d6000803e3d6000fd5b60008061332b868686611c63565b90506001836002811115613341576133416146df565b14801561335e57506000848061335957613359615032565b868809115b156133715761336e600182614bda565b90505b90505b949350505050565b6000816009016000815461338f90615728565b918290555092915050565b815160009081526004808501602090815260409283902085518155908501516001808301805473ffffffffffffffffffffffffffffffffffffffff9384167fffffffffffffffffffffffff000000000000000000000000000000000000000091821617909155948701516002840180549190931695169490941790556060850151600382015560808501519181019190915560a0840151600582015560c084015160068201805486947fffffffffffffffffffffffffffffffffffffffffffffffffffffffffffffff00909116908381811115613479576134796146df565b02179055505082516000908152600585016020526040812091505b82518110156134d6576134cd8382815181106134b2576134b2614dbd565b60200260200101516000015183613d2390919063ffffffff16565b50600101613494565b5033600090815260068501602052604090208351610e30908290613d23565b60005b81518110156105a25781818151811061351357613513614dbd565b60200260200101516040015183600801600084848151811061353757613537614dbd565b602002602001015160a0015160010b60010b815260200190815260200160002060008282546135669190614bda565b90915550506001016134f8565b6000806040518060400160405280600367ffffffffffffffff81111561359b5761359b614c06565b6040519080825280602002602001820160405280156135c4578160200160208202803683370190505b5081526040805160038082526080820190925260209092019190816020015b60608152602001906001900390816135e3575050905280518051919250600091829061361157613611614dbd565b6020026020010190600381111561362a5761362a6146df565b9081600381111561363d5761363d6146df565b815250506001816000015160018151811061365a5761365a614dbd565b60200260200101906003811115613673576136736146df565b90816003811115613686576136866146df565b81525050600281600001516002815181106136a3576136a3614dbd565b602002602001019060038111156136bc576136bc6146df565b908160038111156136cf576136cf6146df565b9052506040516136e59030908790602001615760565b604051602081830303815290604052816020015160008151811061370b5761370b614dbd565b60209081029190910101526137208342614bda565b604080516fffffffffffffffffffffffffffffffff928316602082015291851690820152606001604051602081830303815290604052816020015160018151811061376d5761376d614dbd565b602002602001018190525060405180602001604052806000815250816020015160028151811061379f5761379f614dbd565b60209081029190910101526040517f3323b46700000000000000000000000000000000000000000000000000000000815273ffffffffffffffffffffffffffffffffffffffff7f00000000000000000000000000000000000000000000000000000000000000001690633323b467906138369030908890869073eeeeeeeeeeeeeeeeeeeeeeeeeeeeeeeeeeeeeeee9060040161578f565b6020604051808303816000875af1158015613855573d6000803e3d6000fd5b505050506040513d601f19601f820116820180604052508101906138799190614bed565b95945050505050565b606060006105c883613d2f565b600061389b8383612581565b60008381526004808601602090815260408084208481556001810180547fffffffffffffffffffffffff00000000000000000000000000000000000000009081169091556002820180549091169055600381018590559283018490556005808401859055600690930180547fffffffffffffffffffffffffffffffffffffffffffffffffffffffffffffff00169055918701905281209192508181613940828261465b565b5050505060208181015173ffffffffffffffffffffffffffffffffffffffff1660009081526006850190915260409020610a1f8184613d8b565b6000807f000000000000000000000000000000000000000000000000000000000000000073ffffffffffffffffffffffffffffffffffffffff1663b810c6366040518163ffffffff1660e01b81526004016040805180830381865afa1580156139e7573d6000803e3d6000fd5b505050506040513d601f19601f82011682018060405250810190613a0b91906158b4565b90939092509050565b613a466040518060a0016040528060008152602001600081526020016000815260200160008152602001600081525090565b6040518060a0016040528060008152602001613a6184613215565b8152602001613a71846007015490565b8152602001613a7f84613d97565b8152602001613a8d84613ffe565b81525090508060800151816060015182604001518360200151613ab09190614bda565b613aba9190614bda565b613ac49190614bda565b8152919050565b60606000613ada836001015490565b67ffffffffffffffff811115613af257613af2614c06565b604051908082528060200260200182016040528015613b1b578160200160208202803683370190505b50905060005b6001840154811015613b6d5730828281518110613b4057613b40614dbd565b73ffffffffffffffffffffffffffffffffffffffff90921660209283029190910190910152600101613b21565b50613b77836132b0565b73ffffffffffffffffffffffffffffffffffffffff16634e1273f482856003016040518363ffffffff1660e01b8152600401613bb4929190615096565b600060405180830381865afa158015613bd1573d6000803e3d6000fd5b505050506040513d6000823e601f3d9081017fffffffffffffffffffffffffffffffffffffffffffffffffffffffffffffffe01682016040526105c891908101906150f9565b60606000613c26846001015490565b67ffffffffffffffff811115613c3e57613c3e614c06565b604051908082528060200260200182016040528015613c67578160200160208202803683370190505b50915060005b6001850154811015613d0c576000613cd7866002016000886001018581548110613c9957613c99614dbd565b60009182526020808320601083040154600f9092166002026101000a90910460010b8352820192909252604001902054869061ffff16612710611c63565b905080848381518110613cec57613cec614dbd565b6020908102919091010152613d018184614bda565b925050600101613c6d565b509250929050565b606061337484846000856142a9565b60006105c883836143c2565b606081600001805480602002602001604051908101604052809291908181526020018280548015613d7f57602002820191906000526020600020905b815481526020019060010190808311613d6b575b50505050509050919050565b60006105c88383614409565b6000808260000160009054906101000a900473ffffffffffffffffffffffffffffffffffffffff1673ffffffffffffffffffffffffffffffffffffffff166264041d6040518163ffffffff1660e01b8152600401602060405180830381865afa158015613e08573d6000803e3d6000fd5b505050506040513d601f19601f82011682018060405250810190613e2c9190614fe9565b73ffffffffffffffffffffffffffffffffffffffff166377954ac2846003016040518263ffffffff1660e01b8152600401613e679190615702565b600060405180830381865afa158015613e84573d6000803e3d6000fd5b505050506040513d6000823e601f3d9081017fffffffffffffffffffffffffffffffffffffffffffffffffffffffffffffffe0168201604052613eca91908101906150f9565b83546040517ffaf07bf300000000000000000000000000000000000000000000000000000000815291925060009173ffffffffffffffffffffffffffffffffffffffff9091169063faf07bf390613f28906001880190600401615715565b600060405180830381865afa158015613f45573d6000803e3d6000fd5b505050506040513d6000823e601f3d9081017fffffffffffffffffffffffffffffffffffffffffffffffffffffffffffffffe0168201604052613f8b91908101906150f9565b90506000613f9885613acb565b905060005b825181101561320c576000828281518110613fba57613fba614dbd565b6020026020010151905080600014613fe657613fe18483815181106131bd576131bd614dbd565b613fe9565b60005b613ff39087614bda565b955050600101613f9d565b6000808260000160009054906101000a900473ffffffffffffffffffffffffffffffffffffffff1673ffffffffffffffffffffffffffffffffffffffff166264041d6040518163ffffffff1660e01b8152600401602060405180830381865afa15801561406f573d6000803e3d6000fd5b505050506040513d601f19601f820116820180604052508101906140939190614fe9565b73ffffffffffffffffffffffffffffffffffffffff166377954ac2846003016040518263ffffffff1660e01b81526004016140ce9190615702565b600060405180830381865afa1580156140eb573d6000803e3d6000fd5b505050506040513d6000823e601f3d9081017fffffffffffffffffffffffffffffffffffffffffffffffffffffffffffffffe016820160405261413191908101906150f9565b83546040517ffaf07bf300000000000000000000000000000000000000000000000000000000815291925060009173ffffffffffffffffffffffffffffffffffffffff9091169063faf07bf39061418f906001880190600401615715565b600060405180830381865afa1580156141ac573d6000803e3d6000fd5b505050506040513d6000823e601f3d9081017fffffffffffffffffffffffffffffffffffffffffffffffffffffffffffffffe01682016040526141f291908101906150f9565b905060005b81518110156142a157600085600801600087600101848154811061421d5761421d614dbd565b60009182526020808320601083040154600f9092166002026101000a90910460010b8352820192909252604001902054905080156142895761428483838151811061426a5761426a614dbd565b60200260200101518584815181106131d7576131d7614dbd565b61428c565b60005b6142969086614bda565b9450506001016141f7565b505050919050565b60608247101561433b576040517f08c379a000000000000000000000000000000000000000000000000000000000815260206004820152602660248201527f416464726573733a20696e73756666696369656e742062616c616e636520666f60448201527f722063616c6c000000000000000000000000000000000000000000000000000060648201526084016108c7565b6000808673ffffffffffffffffffffffffffffffffffffffff16858760405161436491906158d9565b60006040518083038185875af1925050503d80600081146143a1576040519150601f19603f3d011682016040523d82523d6000602084013e6143a6565b606091505b50915091506143b787838387614503565b979650505050505050565b6000818152600183016020526040812054612a3d575081546001818101845560008481526020808220909301849055845484825282860190935260409020919091556104ba565b600081815260018301602052604081205480156144f257600061442d600183614dec565b855490915060009061444190600190614dec565b90508181146144a657600086600001828154811061446157614461614dbd565b906000526020600020015490508087600001848154811061448457614484614dbd565b6000918252602080832090910192909255918252600188019052604090208390555b85548690806144b7576144b76158f5565b6001900381819060005260206000200160009055905585600101600086815260200190815260200160002060009055600193505050506104ba565b60009150506104ba565b5092915050565b606083156145995782516000036145925773ffffffffffffffffffffffffffffffffffffffff85163b614592576040517f08c379a000000000000000000000000000000000000000000000000000000000815260206004820152601d60248201527f416464726573733a2063616c6c20746f206e6f6e2d636f6e747261637400000060448201526064016108c7565b5081613374565b61337483838151156145ae5781518083602001fd5b806040517f08c379a00000000000000000000000000000000000000000000000000000000081526004016108c791906147f8565b6040518060e0016040528060008152602001600073ffffffffffffffffffffffffffffffffffffffff168152602001600073ffffffffffffffffffffffffffffffffffffffff16815260200160008152602001600081526020016000815260200160006001811115614656576146566146df565b905290565b50805460008255906000526020600020908101906105a691905b808211156146895760008155600101614675565b5090565b73ffffffffffffffffffffffffffffffffffffffff811681146105a657600080fd5b600080604083850312156146c257600080fd5b8235915060208301356146d48161468d565b809150509250929050565b7f4e487b7100000000000000000000000000000000000000000000000000000000600052602160045260246000fd5b600060e08201905082518252602083015173ffffffffffffffffffffffffffffffffffffffff80821660208501528060408601511660408501525050606083015160608301526080830151608083015260a083015160a083015260c08301516002811061477d5761477d6146df565b8060c08401525092915050565b60005b838110156147a557818101518382015260200161478d565b50506000910152565b600081518084526147c681602086016020860161478a565b601f017fffffffffffffffffffffffffffffffffffffffffffffffffffffffffffffffe0169290920160200192915050565b6020815260006105c860208301846147ae565b6000806040838503121561481e57600080fd5b82356148298161468d565b946020939093013593505050565b60006020828403121561484957600080fd5b5035919050565b60008060006060848603121561486557600080fd5b83356148708161468d565b925060208401356148808161468d565b929592945050506040919091013590565b6000602082840312156148a357600080fd5b81356105c88161468d565b821515815260406020820152600061337460408301846147ae565b60008083601f8401126148db57600080fd5b50813567ffffffffffffffff8111156148f357600080fd5b60208301915083602082850101111561490b57600080fd5b9250929050565b6000806000806060858703121561492857600080fd5b84356149338161468d565b935060208501356149438161468d565b9250604085013567ffffffffffffffff81111561495f57600080fd5b61496b878288016148c9565b95989497509550505050565b60008083601f84011261498957600080fd5b50813567ffffffffffffffff8111156149a157600080fd5b6020830191508360208260051b850101111561490b57600080fd5b60008060008060008060008060008060a08b8d0312156149db57600080fd5b8a3567ffffffffffffffff808211156149f357600080fd5b6149ff8e838f01614977565b909c509a5060208d0135915080821115614a1857600080fd5b614a248e838f01614977565b909a50985060408d0135915080821115614a3d57600080fd5b614a498e838f01614977565b909850965060608d0135915080821115614a6257600080fd5b614a6e8e838f01614977565b909650945060808d0135915080821115614a8757600080fd5b50614a948d828e016148c9565b915080935050809150509295989b9194979a5092959850565b60008060408385031215614ac057600080fd5b8235614acb8161468d565b915060208301356146d48161468d565b600080600080600060608688031215614af357600080fd5b8535614afe8161468d565b9450602086013567ffffffffffffffff80821115614b1b57600080fd5b614b2789838a01614977565b90965094506040880135915080821115614b4057600080fd5b50614b4d888289016148c9565b969995985093965092949392505050565b600181811c90821680614b7257607f821691505b602082108103611338577f4e487b7100000000000000000000000000000000000000000000000000000000600052602260045260246000fd5b7f4e487b7100000000000000000000000000000000000000000000000000000000600052601160045260246000fd5b808201808211156104ba576104ba614bab565b600060208284031215614bff57600080fd5b5051919050565b7f4e487b7100000000000000000000000000000000000000000000000000000000600052604160045260246000fd5b6040516060810167ffffffffffffffff81118282101715614c5857614c58614c06565b60405290565b60405160c0810167ffffffffffffffff81118282101715614c5857614c58614c06565b604051601f82017fffffffffffffffffffffffffffffffffffffffffffffffffffffffffffffffe016810167ffffffffffffffff81118282101715614cc857614cc8614c06565b604052919050565b600060608284031215614ce257600080fd5b614cea614c35565b8235614cf58161468d565b8152602083810135908201526040928301359281019290925250919050565b600281106105a657600080fd5b600060e08284031215614d3357600080fd5b60405160e0810181811067ffffffffffffffff82111715614d5657614d56614c06565b604052823581526020830135614d6b8161468d565b60208201526040830135614d7e8161468d565b80604083015250606083013560608201526080830135608082015260a083013560a082015260c0830135614db181614d14565b60c08201529392505050565b7f4e487b7100000000000000000000000000000000000000000000000000000000600052603260045260246000fd5b818103818111156104ba576104ba614bab565b600067ffffffffffffffff821115614e1957614e19614c06565b5060051b60200190565b60006020808385031215614e3657600080fd5b823567ffffffffffffffff80821115614e4e57600080fd5b9084019060608287031215614e6257600080fd5b614e6a614c35565b8235614e758161468d565b81528284013584820152604083013582811115614e9157600080fd5b80840193505086601f840112614ea657600080fd5b82359150614ebb614eb683614dff565b614c81565b82815260059290921b83018401918481019088841115614eda57600080fd5b938501935b83851015614ef857843582529385019390850190614edf565b6040830152509695505050505050565b600081518084526020808501945080840160005b83811015614f3857815187529582019590820190600101614f1c565b509495945050505050565b600073ffffffffffffffffffffffffffffffffffffffff808916835280881660208401525060a060408301528460a08301527f07ffffffffffffffffffffffffffffffffffffffffffffffffffffffffffffff851115614fa257600080fd5b8460051b808760c0850137820182810360c09081016060850152614fc890820186614f08565b90508281036080840152614fdc81856147ae565b9998505050505050505050565b600060208284031215614ffb57600080fd5b81516105c88161468d565b8060010b81146105a657600080fd5b60006020828403121561502757600080fd5b81356105c881615006565b7f4e487b7100000000000000000000000000000000000000000000000000000000600052601260045260246000fd5b6000815480845260208085019450836000528060002060005b83811015614f385781548752958201956001918201910161507a565b604080825283519082018190526000906020906060840190828701845b828110156150e557815173ffffffffffffffffffffffffffffffffffffffff16845292840192908401906001016150b3565b505050838103828501526115d68186615061565b6000602080838503121561510c57600080fd5b825167ffffffffffffffff81111561512357600080fd5b8301601f8101851361513457600080fd5b8051615142614eb682614dff565b81815260059190911b8201830190838101908783111561516157600080fd5b928401925b828410156143b757835182529284019290840190615166565b6020815273ffffffffffffffffffffffffffffffffffffffff825116602082015260208201516040820152600060408301516060808401526133746080840182614f08565b805480835260008281526020808220940193909190825b82600f82011015615329578154600181810b88526020615204818a018460101c840b60010b9052565b6040615218818b0185841c850b60010b9052565b6060915061522f828b018560301c850b60010b9052565b6080615243818c0186841c860b60010b9052565b60a0915061525a828c018660501c860b60010b9052565b60c061526e818d0187861c870b60010b9052565b60e09350615285848d018760701c870b60010b9052565b85821c850b60010b6101008d01526152a86101208d018760901c870b60010b9052565b85831c850b60010b6101408d01526152cb6101608d018760b01c870b60010b9052565b85811c850b60010b6101808d01525050506152f16101a08a018460d01c840b60010b9052565b82811c820b60010b6101c08a0152506153136101e089018360f01d60010b9052565b61020097909701969290920191506010016151db565b9054908281101561534357600182810b8752602090960195015b8281101561536057601082901c60010b8652602095909501946001015b8281101561537957602082811c600190810b8852960195015b8281101561539657603082901c60010b8652602095909501946001015b828110156153b357604082901c60010b8652602095909501946001015b828110156153d057605082901c60010b8652602095909501946001015b828110156153ed57606082901c60010b8652602095909501946001015b8281101561540a57607082901c60010b8652602095909501946001015b8281101561542757608082901c60010b8652602095909501946001015b8281101561544457609082901c60010b8652602095909501946001015b828110156154615760a082901c60010b8652602095909501946001015b8281101561547e5760b082901c60010b8652602095909501946001015b8281101561549b5760c082901c60010b8652602095909501946001015b828110156154b85760d082901c60010b8652602095909501946001015b828110156154d55760e082901c60010b8652602095909501946001015b828110156154f3576154ec868360f01d60010b9052565b6020860195505b5093949350505050565b73ffffffffffffffffffffffffffffffffffffffff8516815260806020820152600061552c60808301866151c4565b828103604084015261553e8186614f08565b905082810360608401526143b781856147ae565b6000602080838503121561556557600080fd5b825167ffffffffffffffff81111561557c57600080fd5b8301601f8101851361558d57600080fd5b805161559b614eb682614dff565b81815260c091820283018401918482019190888411156155ba57600080fd5b938501935b8385101561563d5780858a0312156155d75760008081fd5b6155df614c5e565b855181528686015187820152604080870151908201526060808701516156048161468d565b9082015260808681015161561781614d14565b9082015260a08681015161562a81615006565b90820152835293840193918501916155bf565b50979650505050505050565b60006060828403121561565b57600080fd5b615663614c35565b8251815260208301516020820152604083015160408201528091505092915050565b6040815260006156986040830185614f08565b828103602084015261387981856147ae565b61ffff8181168382160190808211156144fc576144fc614bab565b61ffff8281168282160390808211156144fc576144fc614bab565b6000602082840312156156f257600080fd5b815180151581146105c857600080fd5b6020815260006105c86020830184615061565b6020815260006105c860208301846151c4565b60007fffffffffffffffffffffffffffffffffffffffffffffffffffffffffffffffff820361575957615759614bab565b5060010190565b73ffffffffffffffffffffffffffffffffffffffff8316815260406020820152600061337460408301846147ae565b73ffffffffffffffffffffffffffffffffffffffff85168152600060206080818401526157bf60808401876147ae565b8381036040808601919091528651818352805191830182905283019060009060608401905b80831015615814578351600481106157fe576157fe6146df565b82529285019260019290920191908501906157e4565b508885015184820394860194909452835180825281860194860193509150600582901b8101850160005b8381101561588a577fffffffffffffffffffffffffffffffffffffffffffffffffffffffffffffffe08383030186526158788286516147ae565b9587019594870194915060010161583e565b5073ffffffffffffffffffffffffffffffffffffffff891660608901529550613879945050505050565b600080604083850312156158c757600080fd5b8251915060208301516146d48161468d565b600082516158eb81846020870161478a565b9190910192915050565b7f4e487b7100000000000000000000000000000000000000000000000000000000600052603160045260246000fdfea26469706673582212200316d1af87acd959fe815cdd79a461298dcf6cce72a89416d94ce5cf90fc33f564736f6c63430008130033",
  "devdoc": {
    "events": {
      "Approval(address,address,uint256)": {
        "details": "Emitted when the allowance of a `spender` for an `owner` is set by a call to {approve}. `value` is the new allowance."
      },
      "Transfer(address,address,uint256)": {
        "details": "Emitted when `value` tokens are moved from one account (`from`) to another (`to`). Note that `value` may be zero."
      }
    },
    "kind": "dev",
    "methods": {
      "addLiquidity(uint256,address)": {
        "details": "implementation of IChromaticLP"
      },
      "addLiquidityBatchCallback(address,address,bytes)": {
        "details": "implementation of IChromaticLiquidityCallback"
      },
      "allowance(address,address)": {
        "details": "See {IERC20-allowance}."
      },
      "approve(address,uint256)": {
        "details": "See {IERC20-approve}. NOTE: If `amount` is the maximum `uint256`, the allowance is not updated on `transferFrom`. This is semantically equivalent to an infinite approval. Requirements: - `spender` cannot be the zero address."
      },
      "balanceOf(address)": {
        "details": "See {IERC20-balanceOf}."
      },
      "claimLiquidityBatchCallback(uint256[],int16[],uint256[],uint256[],bytes)": {
        "details": "implementation of IChromaticLiquidityCallback"
      },
      "decimals()": {
        "details": "Returns the number of decimals used to get its user representation. For example, if `decimals` equals `2`, a balance of `505` tokens should be displayed to a user as `5.05` (`505 / 10 ** 2`). Tokens usually opt for a value of 18, imitating the relationship between Ether and Wei. This is the default value returned by this function, unless it's overridden. NOTE: This information is only used for _display_ purposes: it in no way affects any of the arithmetic of the contract, including {IERC20-balanceOf} and {IERC20-transfer}."
      },
      "decreaseAllowance(address,uint256)": {
        "details": "Atomically decreases the allowance granted to `spender` by the caller. This is an alternative to {approve} that can be used as a mitigation for problems described in {IERC20-approve}. Emits an {Approval} event indicating the updated allowance. Requirements: - `spender` cannot be the zero address. - `spender` must have allowance for the caller of at least `subtractedValue`."
      },
      "increaseAllowance(address,uint256)": {
        "details": "Atomically increases the allowance granted to `spender` by the caller. This is an alternative to {approve} that can be used as a mitigation for problems described in {IERC20-approve}. Emits an {Approval} event indicating the updated allowance. Requirements: - `spender` cannot be the zero address."
      },
      "name()": {
        "details": "Returns the name of the token."
      },
      "rebalance()": {
        "details": "implementation of IChromaticLP"
      },
      "removeLiquidity(uint256,address)": {
        "details": "implementation of IChromaticLP"
      },
      "removeLiquidityBatchCallback(address,uint256[],bytes)": {
        "details": "implementation of IChromaticLiquidityCallback"
      },
      "settle(uint256)": {
        "details": "implementation of IChromaticLP"
      },
      "symbol()": {
        "details": "Returns the symbol of the token, usually a shorter version of the name."
      },
      "totalSupply()": {
        "details": "See {IERC20-totalSupply}."
      },
      "transfer(address,uint256)": {
        "details": "See {IERC20-transfer}. Requirements: - `to` cannot be the zero address. - the caller must have a balance of at least `amount`."
      },
      "transferFrom(address,address,uint256)": {
        "details": "See {IERC20-transferFrom}. Emits an {Approval} event indicating the updated allowance. This is not required by the EIP. See the note at the beginning of {ERC20}. NOTE: Does not update the allowance if the current allowance is the maximum `uint256`. Requirements: - `from` and `to` cannot be the zero address. - `from` must have a balance of at least `amount`. - the caller must have allowance for ``from``'s tokens of at least `amount`."
      },
      "withdrawLiquidityBatchCallback(uint256[],int16[],uint256[],uint256[],bytes)": {
        "details": "implementation of IChromaticLiquidityCallback"
      }
    },
    "version": 1
  },
  "userdoc": {
    "kind": "user",
    "methods": {},
    "version": 1
  },
  "storageLayout": {
    "storage": [
      {
        "astId": 3967,
        "contract": "contracts/lp/ChromaticLPLogic.sol:ChromaticLPLogic",
        "label": "_balances",
        "offset": 0,
        "slot": "0",
        "type": "t_mapping(t_address,t_uint256)"
      },
      {
        "astId": 3973,
        "contract": "contracts/lp/ChromaticLPLogic.sol:ChromaticLPLogic",
        "label": "_allowances",
        "offset": 0,
        "slot": "1",
        "type": "t_mapping(t_address,t_mapping(t_address,t_uint256))"
      },
      {
        "astId": 3975,
        "contract": "contracts/lp/ChromaticLPLogic.sol:ChromaticLPLogic",
        "label": "_totalSupply",
        "offset": 0,
        "slot": "2",
        "type": "t_uint256"
      },
      {
        "astId": 3977,
        "contract": "contracts/lp/ChromaticLPLogic.sol:ChromaticLPLogic",
        "label": "_name",
        "offset": 0,
        "slot": "3",
        "type": "t_string_storage"
      },
      {
        "astId": 3979,
        "contract": "contracts/lp/ChromaticLPLogic.sol:ChromaticLPLogic",
        "label": "_symbol",
        "offset": 0,
        "slot": "4",
        "type": "t_string_storage"
      },
      {
        "astId": 11152,
        "contract": "contracts/lp/ChromaticLPLogic.sol:ChromaticLPLogic",
        "label": "s_meta",
        "offset": 0,
        "slot": "5",
        "type": "t_struct(LPMeta)11137_storage"
      },
      {
        "astId": 11155,
        "contract": "contracts/lp/ChromaticLPLogic.sol:ChromaticLPLogic",
        "label": "s_config",
        "offset": 0,
        "slot": "7",
        "type": "t_struct(LPConfig)11525_storage"
      },
      {
        "astId": 11158,
        "contract": "contracts/lp/ChromaticLPLogic.sol:ChromaticLPLogic",
        "label": "s_state",
        "offset": 0,
        "slot": "10",
        "type": "t_struct(LPState)11621_storage"
      },
      {
        "astId": 10941,
        "contract": "contracts/lp/ChromaticLPLogic.sol:ChromaticLPLogic",
        "label": "s_task",
        "offset": 0,
        "slot": "20",
        "type": "t_struct(Tasks)10926_storage"
      },
      {
        "astId": 3719,
        "contract": "contracts/lp/ChromaticLPLogic.sol:ChromaticLPLogic",
        "label": "_status",
        "offset": 0,
        "slot": "22",
        "type": "t_uint256"
      }
    ],
    "types": {
      "t_address": {
        "encoding": "inplace",
        "label": "address",
        "numberOfBytes": "20"
      },
      "t_array(t_bytes32)dyn_storage": {
        "base": "t_bytes32",
        "encoding": "dynamic_array",
        "label": "bytes32[]",
        "numberOfBytes": "32"
      },
      "t_array(t_int16)dyn_storage": {
        "base": "t_int16",
        "encoding": "dynamic_array",
        "label": "int16[]",
        "numberOfBytes": "32"
      },
      "t_array(t_uint256)dyn_storage": {
        "base": "t_uint256",
        "encoding": "dynamic_array",
        "label": "uint256[]",
        "numberOfBytes": "32"
      },
      "t_bytes32": {
        "encoding": "inplace",
        "label": "bytes32",
        "numberOfBytes": "32"
      },
      "t_contract(IChromaticMarket)330": {
        "encoding": "inplace",
        "label": "contract IChromaticMarket",
        "numberOfBytes": "20"
      },
      "t_enum(ChromaticLPAction)11493": {
        "encoding": "inplace",
        "label": "enum ChromaticLPAction",
        "numberOfBytes": "1"
      },
      "t_int16": {
        "encoding": "inplace",
        "label": "int16",
        "numberOfBytes": "2"
      },
      "t_mapping(t_address,t_mapping(t_address,t_uint256))": {
        "encoding": "mapping",
        "key": "t_address",
        "label": "mapping(address => mapping(address => uint256))",
        "numberOfBytes": "32",
        "value": "t_mapping(t_address,t_uint256)"
      },
      "t_mapping(t_address,t_struct(UintSet)8412_storage)": {
        "encoding": "mapping",
        "key": "t_address",
        "label": "mapping(address => struct EnumerableSet.UintSet)",
        "numberOfBytes": "32",
        "value": "t_struct(UintSet)8412_storage"
      },
      "t_mapping(t_address,t_uint256)": {
        "encoding": "mapping",
        "key": "t_address",
        "label": "mapping(address => uint256)",
        "numberOfBytes": "32",
        "value": "t_uint256"
      },
      "t_mapping(t_bytes32,t_uint256)": {
        "encoding": "mapping",
        "key": "t_bytes32",
        "label": "mapping(bytes32 => uint256)",
        "numberOfBytes": "32",
        "value": "t_uint256"
      },
      "t_mapping(t_int16,t_uint16)": {
        "encoding": "mapping",
        "key": "t_int16",
        "label": "mapping(int16 => uint16)",
        "numberOfBytes": "32",
        "value": "t_uint16"
      },
      "t_mapping(t_int16,t_uint256)": {
        "encoding": "mapping",
        "key": "t_int16",
        "label": "mapping(int16 => uint256)",
        "numberOfBytes": "32",
        "value": "t_uint256"
      },
      "t_mapping(t_uint256,t_bytes32)": {
        "encoding": "mapping",
        "key": "t_uint256",
        "label": "mapping(uint256 => bytes32)",
        "numberOfBytes": "32",
        "value": "t_bytes32"
      },
      "t_mapping(t_uint256,t_struct(ChromaticLPReceipt)11509_storage)": {
        "encoding": "mapping",
        "key": "t_uint256",
        "label": "mapping(uint256 => struct ChromaticLPReceipt)",
        "numberOfBytes": "32",
        "value": "t_struct(ChromaticLPReceipt)11509_storage"
      },
      "t_mapping(t_uint256,t_struct(UintSet)8412_storage)": {
        "encoding": "mapping",
        "key": "t_uint256",
        "label": "mapping(uint256 => struct EnumerableSet.UintSet)",
        "numberOfBytes": "32",
        "value": "t_struct(UintSet)8412_storage"
      },
      "t_string_storage": {
        "encoding": "bytes",
        "label": "string",
        "numberOfBytes": "32"
      },
      "t_struct(ChromaticLPReceipt)11509_storage": {
        "encoding": "inplace",
        "label": "struct ChromaticLPReceipt",
        "members": [
          {
            "astId": 11495,
            "contract": "contracts/lp/ChromaticLPLogic.sol:ChromaticLPLogic",
            "label": "id",
            "offset": 0,
            "slot": "0",
            "type": "t_uint256"
          },
          {
            "astId": 11497,
            "contract": "contracts/lp/ChromaticLPLogic.sol:ChromaticLPLogic",
            "label": "provider",
            "offset": 0,
            "slot": "1",
            "type": "t_address"
          },
          {
            "astId": 11499,
            "contract": "contracts/lp/ChromaticLPLogic.sol:ChromaticLPLogic",
            "label": "recipient",
            "offset": 0,
            "slot": "2",
            "type": "t_address"
          },
          {
            "astId": 11501,
            "contract": "contracts/lp/ChromaticLPLogic.sol:ChromaticLPLogic",
            "label": "oracleVersion",
            "offset": 0,
            "slot": "3",
            "type": "t_uint256"
          },
          {
            "astId": 11503,
            "contract": "contracts/lp/ChromaticLPLogic.sol:ChromaticLPLogic",
            "label": "amount",
            "offset": 0,
            "slot": "4",
            "type": "t_uint256"
          },
          {
            "astId": 11505,
            "contract": "contracts/lp/ChromaticLPLogic.sol:ChromaticLPLogic",
            "label": "pendingLiquidity",
            "offset": 0,
            "slot": "5",
            "type": "t_uint256"
          },
          {
            "astId": 11508,
            "contract": "contracts/lp/ChromaticLPLogic.sol:ChromaticLPLogic",
            "label": "action",
            "offset": 0,
            "slot": "6",
            "type": "t_enum(ChromaticLPAction)11493"
          }
        ],
        "numberOfBytes": "224"
      },
      "t_struct(LPConfig)11525_storage": {
        "encoding": "inplace",
        "label": "struct LPConfig",
        "members": [
          {
            "astId": 11518,
            "contract": "contracts/lp/ChromaticLPLogic.sol:ChromaticLPLogic",
            "label": "utilizationTargetBPS",
            "offset": 0,
            "slot": "0",
            "type": "t_uint16"
          },
          {
            "astId": 11520,
            "contract": "contracts/lp/ChromaticLPLogic.sol:ChromaticLPLogic",
            "label": "rebalanceBPS",
            "offset": 2,
            "slot": "0",
            "type": "t_uint16"
          },
          {
            "astId": 11522,
            "contract": "contracts/lp/ChromaticLPLogic.sol:ChromaticLPLogic",
            "label": "rebalanceCheckingInterval",
            "offset": 0,
            "slot": "1",
            "type": "t_uint256"
          },
          {
            "astId": 11524,
            "contract": "contracts/lp/ChromaticLPLogic.sol:ChromaticLPLogic",
            "label": "settleCheckingInterval",
            "offset": 0,
            "slot": "2",
            "type": "t_uint256"
          }
        ],
        "numberOfBytes": "96"
      },
      "t_struct(LPMeta)11137_storage": {
        "encoding": "inplace",
        "label": "struct ChromaticLPStorageCore.LPMeta",
        "members": [
          {
            "astId": 11134,
            "contract": "contracts/lp/ChromaticLPLogic.sol:ChromaticLPLogic",
            "label": "lpName",
            "offset": 0,
            "slot": "0",
            "type": "t_string_storage"
          },
          {
            "astId": 11136,
            "contract": "contracts/lp/ChromaticLPLogic.sol:ChromaticLPLogic",
            "label": "tag",
            "offset": 0,
            "slot": "1",
            "type": "t_string_storage"
          }
        ],
        "numberOfBytes": "64"
      },
      "t_struct(LPState)11621_storage": {
        "encoding": "inplace",
        "label": "struct LPState",
        "members": [
          {
            "astId": 11587,
            "contract": "contracts/lp/ChromaticLPLogic.sol:ChromaticLPLogic",
            "label": "market",
            "offset": 0,
            "slot": "0",
            "type": "t_contract(IChromaticMarket)330"
          },
          {
            "astId": 11590,
            "contract": "contracts/lp/ChromaticLPLogic.sol:ChromaticLPLogic",
            "label": "feeRates",
            "offset": 0,
            "slot": "1",
            "type": "t_array(t_int16)dyn_storage"
          },
          {
            "astId": 11594,
            "contract": "contracts/lp/ChromaticLPLogic.sol:ChromaticLPLogic",
            "label": "distributionRates",
            "offset": 0,
            "slot": "2",
            "type": "t_mapping(t_int16,t_uint16)"
          },
          {
            "astId": 11597,
            "contract": "contracts/lp/ChromaticLPLogic.sol:ChromaticLPLogic",
            "label": "clbTokenIds",
            "offset": 0,
            "slot": "3",
            "type": "t_array(t_uint256)dyn_storage"
          },
          {
            "astId": 11602,
            "contract": "contracts/lp/ChromaticLPLogic.sol:ChromaticLPLogic",
            "label": "receipts",
            "offset": 0,
            "slot": "4",
            "type": "t_mapping(t_uint256,t_struct(ChromaticLPReceipt)11509_storage)"
          },
          {
            "astId": 11607,
            "contract": "contracts/lp/ChromaticLPLogic.sol:ChromaticLPLogic",
            "label": "lpReceiptMap",
            "offset": 0,
            "slot": "5",
            "type": "t_mapping(t_uint256,t_struct(UintSet)8412_storage)"
          },
          {
            "astId": 11612,
            "contract": "contracts/lp/ChromaticLPLogic.sol:ChromaticLPLogic",
            "label": "providerReceiptIds",
            "offset": 0,
            "slot": "6",
            "type": "t_mapping(t_address,t_struct(UintSet)8412_storage)"
          },
          {
            "astId": 11614,
            "contract": "contracts/lp/ChromaticLPLogic.sol:ChromaticLPLogic",
            "label": "pendingAddAmount",
            "offset": 0,
            "slot": "7",
            "type": "t_uint256"
          },
          {
            "astId": 11618,
            "contract": "contracts/lp/ChromaticLPLogic.sol:ChromaticLPLogic",
            "label": "pendingRemoveClbAmounts",
            "offset": 0,
            "slot": "8",
            "type": "t_mapping(t_int16,t_uint256)"
          },
          {
            "astId": 11620,
            "contract": "contracts/lp/ChromaticLPLogic.sol:ChromaticLPLogic",
            "label": "receiptId",
            "offset": 0,
            "slot": "9",
            "type": "t_uint256"
          }
        ],
        "numberOfBytes": "320"
      },
      "t_struct(Set)7940_storage": {
        "encoding": "inplace",
        "label": "struct EnumerableSet.Set",
        "members": [
          {
            "astId": 7935,
            "contract": "contracts/lp/ChromaticLPLogic.sol:ChromaticLPLogic",
            "label": "_values",
            "offset": 0,
            "slot": "0",
            "type": "t_array(t_bytes32)dyn_storage"
          },
          {
            "astId": 7939,
            "contract": "contracts/lp/ChromaticLPLogic.sol:ChromaticLPLogic",
            "label": "_indexes",
            "offset": 0,
            "slot": "1",
            "type": "t_mapping(t_bytes32,t_uint256)"
          }
        ],
        "numberOfBytes": "64"
      },
      "t_struct(Tasks)10926_storage": {
        "encoding": "inplace",
        "label": "struct ChromaticLPStorage.Tasks",
        "members": [
          {
            "astId": 10921,
            "contract": "contracts/lp/ChromaticLPLogic.sol:ChromaticLPLogic",
            "label": "rebalanceTaskId",
            "offset": 0,
            "slot": "0",
            "type": "t_bytes32"
          },
          {
            "astId": 10925,
            "contract": "contracts/lp/ChromaticLPLogic.sol:ChromaticLPLogic",
            "label": "settleTasks",
            "offset": 0,
            "slot": "1",
            "type": "t_mapping(t_uint256,t_bytes32)"
          }
        ],
        "numberOfBytes": "64"
      },
      "t_struct(UintSet)8412_storage": {
        "encoding": "inplace",
        "label": "struct EnumerableSet.UintSet",
        "members": [
          {
            "astId": 8411,
            "contract": "contracts/lp/ChromaticLPLogic.sol:ChromaticLPLogic",
            "label": "_inner",
            "offset": 0,
            "slot": "0",
            "type": "t_struct(Set)7940_storage"
          }
        ],
        "numberOfBytes": "64"
      },
      "t_uint16": {
        "encoding": "inplace",
        "label": "uint16",
        "numberOfBytes": "2"
      },
      "t_uint256": {
        "encoding": "inplace",
        "label": "uint256",
        "numberOfBytes": "32"
      }
    }
  }
}