{
  "address": "0x6c8960c6b8F12c4AA364401eFC95784E5651a102",
  "abi": [
    {
      "inputs": [
        {
          "internalType": "contract ChromaticLPLogic",
          "name": "lpLogic",
          "type": "address"
        },
        {
          "components": [
            {
              "internalType": "string",
              "name": "lpName",
              "type": "string"
            },
            {
              "internalType": "string",
              "name": "tag",
              "type": "string"
            }
          ],
          "internalType": "struct ChromaticLPStorageCore.LPMeta",
          "name": "lpMeta",
          "type": "tuple"
        },
        {
          "components": [
            {
              "internalType": "contract IChromaticMarket",
              "name": "market",
              "type": "address"
            },
            {
              "internalType": "uint16",
              "name": "utilizationTargetBPS",
              "type": "uint16"
            },
            {
              "internalType": "uint16",
              "name": "rebalanceBPS",
              "type": "uint16"
            },
            {
              "internalType": "uint256",
              "name": "rebalanceCheckingInterval",
              "type": "uint256"
            },
            {
              "internalType": "uint256",
              "name": "settleCheckingInterval",
              "type": "uint256"
            }
          ],
          "internalType": "struct ChromaticLPStorageCore.ConfigParam",
          "name": "config",
          "type": "tuple"
        },
        {
          "internalType": "int16[]",
          "name": "_feeRates",
          "type": "int16[]"
        },
        {
          "internalType": "uint16[]",
          "name": "distributionRates",
          "type": "uint16[]"
        },
        {
          "components": [
            {
              "internalType": "address",
              "name": "automate",
              "type": "address"
            },
            {
              "internalType": "address",
              "name": "opsProxyFactory",
              "type": "address"
            }
          ],
          "internalType": "struct ChromaticLPStorage.AutomateParam",
          "name": "automateParam",
          "type": "tuple"
        }
      ],
      "stateMutability": "nonpayable",
      "type": "constructor"
    },
    {
      "inputs": [],
      "name": "AlreadyRebalanceTaskExist",
      "type": "error"
    },
    {
      "inputs": [],
      "name": "AlreadySwapRouterConfigured",
      "type": "error"
    },
    {
      "inputs": [],
      "name": "InvalidDistributionSum",
      "type": "error"
    },
    {
      "inputs": [],
      "name": "InvalidRebalanceBPS",
      "type": "error"
    },
    {
      "inputs": [
        {
          "internalType": "uint16",
          "name": "targetBPS",
          "type": "uint16"
        }
      ],
      "name": "InvalidUtilizationTarget",
      "type": "error"
    },
    {
      "inputs": [],
      "name": "NotAutomationCalled",
      "type": "error"
    },
    {
      "inputs": [],
      "name": "NotImplementedInLogicContract",
      "type": "error"
    },
    {
      "inputs": [],
      "name": "NotKeeperCalled",
      "type": "error"
    },
    {
      "inputs": [],
      "name": "NotMarket",
      "type": "error"
    },
    {
      "inputs": [
        {
          "internalType": "uint256",
          "name": "feeLength",
          "type": "uint256"
        },
        {
          "internalType": "uint256",
          "name": "distributionLength",
          "type": "uint256"
        }
      ],
      "name": "NotMatchDistributionLength",
      "type": "error"
    },
    {
      "inputs": [],
      "name": "NotOwner",
      "type": "error"
    },
    {
      "inputs": [],
      "name": "OnlyAccessableByOwner",
      "type": "error"
    },
    {
      "inputs": [],
      "name": "OnlyBatchCall",
      "type": "error"
    },
    {
      "inputs": [],
      "name": "UnknownLPAction",
      "type": "error"
    },
    {
      "anonymous": false,
      "inputs": [
        {
          "indexed": true,
          "internalType": "uint256",
          "name": "receiptId",
          "type": "uint256"
        },
        {
          "indexed": true,
          "internalType": "address",
          "name": "provider",
          "type": "address"
        },
        {
          "indexed": true,
          "internalType": "address",
          "name": "recipient",
          "type": "address"
        },
        {
          "indexed": false,
          "internalType": "uint256",
          "name": "oracleVersion",
          "type": "uint256"
        },
        {
          "indexed": false,
          "internalType": "uint256",
          "name": "amount",
          "type": "uint256"
        }
      ],
      "name": "AddLiquidity",
      "type": "event"
    },
    {
      "anonymous": false,
      "inputs": [
        {
          "indexed": true,
          "internalType": "uint256",
          "name": "receiptId",
          "type": "uint256"
        },
        {
          "indexed": true,
          "internalType": "address",
          "name": "provider",
          "type": "address"
        },
        {
          "indexed": true,
          "internalType": "address",
          "name": "recipient",
          "type": "address"
        },
        {
          "indexed": false,
          "internalType": "uint256",
          "name": "settlementAdded",
          "type": "uint256"
        },
        {
          "indexed": false,
          "internalType": "uint256",
          "name": "lpTokenAmount",
          "type": "uint256"
        },
        {
          "indexed": false,
          "internalType": "uint256",
          "name": "keeperFee",
          "type": "uint256"
        }
      ],
      "name": "AddLiquiditySettled",
      "type": "event"
    },
    {
      "anonymous": false,
      "inputs": [
        {
          "indexed": true,
          "internalType": "address",
          "name": "owner",
          "type": "address"
        },
        {
          "indexed": true,
          "internalType": "address",
          "name": "spender",
          "type": "address"
        },
        {
          "indexed": false,
          "internalType": "uint256",
          "name": "value",
          "type": "uint256"
        }
      ],
      "name": "Approval",
      "type": "event"
    },
    {
      "anonymous": false,
      "inputs": [
        {
          "indexed": true,
          "internalType": "uint256",
          "name": "receiptId",
          "type": "uint256"
        },
        {
          "indexed": false,
          "internalType": "uint256",
          "name": "oracleVersion",
          "type": "uint256"
        },
        {
          "indexed": false,
          "internalType": "uint256",
          "name": "amount",
          "type": "uint256"
        },
        {
          "indexed": false,
          "internalType": "uint256",
          "name": "currentUtility",
          "type": "uint256"
        }
      ],
      "name": "RebalanceAddLiquidity",
      "type": "event"
    },
    {
      "anonymous": false,
      "inputs": [
        {
          "indexed": true,
          "internalType": "uint256",
          "name": "receiptId",
          "type": "uint256"
        },
        {
          "indexed": false,
          "internalType": "uint256",
          "name": "oracleVersion",
          "type": "uint256"
        },
        {
          "indexed": false,
          "internalType": "uint256",
          "name": "currentUtility",
          "type": "uint256"
        }
      ],
      "name": "RebalanceRemoveLiquidity",
      "type": "event"
    },
    {
      "anonymous": false,
      "inputs": [
        {
          "indexed": true,
          "internalType": "uint256",
          "name": "receiptId",
          "type": "uint256"
        },
        {
          "indexed": false,
          "internalType": "uint256",
          "name": "keeperFee",
          "type": "uint256"
        }
      ],
      "name": "RebalanceSettled",
      "type": "event"
    },
    {
      "anonymous": false,
      "inputs": [
        {
          "indexed": true,
          "internalType": "uint256",
          "name": "receiptId",
          "type": "uint256"
        },
        {
          "indexed": true,
          "internalType": "address",
          "name": "provider",
          "type": "address"
        },
        {
          "indexed": true,
          "internalType": "address",
          "name": "recipient",
          "type": "address"
        },
        {
          "indexed": false,
          "internalType": "uint256",
          "name": "oracleVersion",
          "type": "uint256"
        },
        {
          "indexed": false,
          "internalType": "uint256",
          "name": "lpTokenAmount",
          "type": "uint256"
        }
      ],
      "name": "RemoveLiquidity",
      "type": "event"
    },
    {
      "anonymous": false,
      "inputs": [
        {
          "indexed": true,
          "internalType": "uint256",
          "name": "receiptId",
          "type": "uint256"
        },
        {
          "indexed": true,
          "internalType": "address",
          "name": "provider",
          "type": "address"
        },
        {
          "indexed": true,
          "internalType": "address",
          "name": "recipient",
          "type": "address"
        },
        {
          "indexed": false,
          "internalType": "uint256",
          "name": "burningAmount",
          "type": "uint256"
        },
        {
          "indexed": false,
          "internalType": "uint256",
          "name": "witdrawnSettlementAmount",
          "type": "uint256"
        },
        {
          "indexed": false,
          "internalType": "uint256",
          "name": "refundedAmount",
          "type": "uint256"
        },
        {
          "indexed": false,
          "internalType": "uint256",
          "name": "keeperFee",
          "type": "uint256"
        }
      ],
      "name": "RemoveLiquiditySettled",
      "type": "event"
    },
    {
      "anonymous": false,
      "inputs": [
        {
          "indexed": true,
          "internalType": "address",
          "name": "from",
          "type": "address"
        },
        {
          "indexed": true,
          "internalType": "address",
          "name": "to",
          "type": "address"
        },
        {
          "indexed": false,
          "internalType": "uint256",
          "name": "value",
          "type": "uint256"
        }
      ],
      "name": "Transfer",
      "type": "event"
    },
    {
      "stateMutability": "payable",
      "type": "fallback"
    },
    {
      "inputs": [],
      "name": "CHROMATIC_LP_LOGIC",
      "outputs": [
        {
          "internalType": "address",
          "name": "",
          "type": "address"
        }
      ],
      "stateMutability": "view",
      "type": "function"
    },
    {
      "inputs": [
        {
          "internalType": "uint256",
          "name": "",
          "type": "uint256"
        },
        {
          "internalType": "address",
          "name": "",
          "type": "address"
        }
      ],
      "name": "addLiquidity",
      "outputs": [
        {
          "components": [
            {
              "internalType": "uint256",
              "name": "id",
              "type": "uint256"
            },
            {
              "internalType": "address",
              "name": "provider",
              "type": "address"
            },
            {
              "internalType": "address",
              "name": "recipient",
              "type": "address"
            },
            {
              "internalType": "uint256",
              "name": "oracleVersion",
              "type": "uint256"
            },
            {
              "internalType": "uint256",
              "name": "amount",
              "type": "uint256"
            },
            {
              "internalType": "uint256",
              "name": "pendingLiquidity",
              "type": "uint256"
            },
            {
              "internalType": "enum ChromaticLPAction",
              "name": "action",
              "type": "uint8"
            }
          ],
          "internalType": "struct ChromaticLPReceipt",
          "name": "",
          "type": "tuple"
        }
      ],
      "stateMutability": "nonpayable",
      "type": "function"
    },
    {
      "inputs": [
        {
          "internalType": "address",
          "name": "",
          "type": "address"
        },
        {
          "internalType": "address",
          "name": "",
          "type": "address"
        },
        {
          "internalType": "bytes",
          "name": "",
          "type": "bytes"
        }
      ],
      "name": "addLiquidityBatchCallback",
      "outputs": [],
      "stateMutability": "nonpayable",
      "type": "function"
    },
    {
      "inputs": [
        {
          "internalType": "address",
          "name": "",
          "type": "address"
        },
        {
          "internalType": "address",
          "name": "",
          "type": "address"
        },
        {
          "internalType": "bytes",
          "name": "",
          "type": "bytes"
        }
      ],
      "name": "addLiquidityCallback",
      "outputs": [],
      "stateMutability": "pure",
      "type": "function"
    },
    {
      "inputs": [
        {
          "internalType": "address",
          "name": "owner",
          "type": "address"
        },
        {
          "internalType": "address",
          "name": "spender",
          "type": "address"
        }
      ],
      "name": "allowance",
      "outputs": [
        {
          "internalType": "uint256",
          "name": "",
          "type": "uint256"
        }
      ],
      "stateMutability": "view",
      "type": "function"
    },
    {
      "inputs": [
        {
          "internalType": "address",
          "name": "spender",
          "type": "address"
        },
        {
          "internalType": "uint256",
          "name": "amount",
          "type": "uint256"
        }
      ],
      "name": "approve",
      "outputs": [
        {
          "internalType": "bool",
          "name": "",
          "type": "bool"
        }
      ],
      "stateMutability": "nonpayable",
      "type": "function"
    },
    {
      "inputs": [],
      "name": "automate",
      "outputs": [
        {
          "internalType": "contract IAutomate",
          "name": "",
          "type": "address"
        }
      ],
      "stateMutability": "view",
      "type": "function"
    },
    {
      "inputs": [
        {
          "internalType": "address",
          "name": "account",
          "type": "address"
        }
      ],
      "name": "balanceOf",
      "outputs": [
        {
          "internalType": "uint256",
          "name": "",
          "type": "uint256"
        }
      ],
      "stateMutability": "view",
      "type": "function"
    },
    {
      "inputs": [],
      "name": "cancelRebalanceTask",
      "outputs": [],
      "stateMutability": "nonpayable",
      "type": "function"
    },
    {
      "inputs": [
        {
          "internalType": "uint256[]",
          "name": "",
          "type": "uint256[]"
        },
        {
          "internalType": "int16[]",
          "name": "",
          "type": "int16[]"
        },
        {
          "internalType": "uint256[]",
          "name": "",
          "type": "uint256[]"
        },
        {
          "internalType": "uint256[]",
          "name": "",
          "type": "uint256[]"
        },
        {
          "internalType": "bytes",
          "name": "",
          "type": "bytes"
        }
      ],
      "name": "claimLiquidityBatchCallback",
      "outputs": [],
      "stateMutability": "nonpayable",
      "type": "function"
    },
    {
      "inputs": [
        {
          "internalType": "uint256",
          "name": "",
          "type": "uint256"
        },
        {
          "internalType": "int16",
          "name": "",
          "type": "int16"
        },
        {
          "internalType": "uint256",
          "name": "",
          "type": "uint256"
        },
        {
          "internalType": "uint256",
          "name": "",
          "type": "uint256"
        },
        {
          "internalType": "bytes",
          "name": "",
          "type": "bytes"
        }
      ],
      "name": "claimLiquidityCallback",
      "outputs": [],
      "stateMutability": "pure",
      "type": "function"
    },
    {
      "inputs": [],
      "name": "clbTokenBalances",
      "outputs": [
        {
          "internalType": "uint256[]",
          "name": "_clbTokenBalances",
          "type": "uint256[]"
        }
      ],
      "stateMutability": "view",
      "type": "function"
    },
    {
      "inputs": [],
      "name": "clbTokenIds",
      "outputs": [
        {
          "internalType": "uint256[]",
          "name": "",
          "type": "uint256[]"
        }
      ],
      "stateMutability": "view",
      "type": "function"
    },
    {
      "inputs": [],
      "name": "createRebalanceTask",
      "outputs": [],
      "stateMutability": "nonpayable",
      "type": "function"
    },
    {
      "inputs": [],
      "name": "decimals",
      "outputs": [
        {
          "internalType": "uint8",
          "name": "",
          "type": "uint8"
        }
      ],
      "stateMutability": "view",
      "type": "function"
    },
    {
      "inputs": [
        {
          "internalType": "address",
          "name": "spender",
          "type": "address"
        },
        {
          "internalType": "uint256",
          "name": "subtractedValue",
          "type": "uint256"
        }
      ],
      "name": "decreaseAllowance",
      "outputs": [
        {
          "internalType": "bool",
          "name": "",
          "type": "bool"
        }
      ],
      "stateMutability": "nonpayable",
      "type": "function"
    },
    {
      "inputs": [],
      "name": "dedicatedMsgSender",
      "outputs": [
        {
          "internalType": "address",
          "name": "",
          "type": "address"
        }
      ],
      "stateMutability": "view",
      "type": "function"
    },
    {
      "inputs": [],
      "name": "feeRates",
      "outputs": [
        {
          "internalType": "int16[]",
          "name": "",
          "type": "int16[]"
        }
      ],
      "stateMutability": "view",
      "type": "function"
    },
    {
      "inputs": [
        {
          "internalType": "uint256",
          "name": "receiptId",
          "type": "uint256"
        }
      ],
      "name": "getReceipt",
      "outputs": [
        {
          "components": [
            {
              "internalType": "uint256",
              "name": "id",
              "type": "uint256"
            },
            {
              "internalType": "address",
              "name": "provider",
              "type": "address"
            },
            {
              "internalType": "address",
              "name": "recipient",
              "type": "address"
            },
            {
              "internalType": "uint256",
              "name": "oracleVersion",
              "type": "uint256"
            },
            {
              "internalType": "uint256",
              "name": "amount",
              "type": "uint256"
            },
            {
              "internalType": "uint256",
              "name": "pendingLiquidity",
              "type": "uint256"
            },
            {
              "internalType": "enum ChromaticLPAction",
              "name": "action",
              "type": "uint8"
            }
          ],
          "internalType": "struct ChromaticLPReceipt",
          "name": "",
          "type": "tuple"
        }
      ],
      "stateMutability": "view",
      "type": "function"
    },
    {
      "inputs": [
        {
          "internalType": "address",
          "name": "owner",
          "type": "address"
        }
      ],
      "name": "getReceiptIdsOf",
      "outputs": [
        {
          "internalType": "uint256[]",
          "name": "receiptIds",
          "type": "uint256[]"
        }
      ],
      "stateMutability": "view",
      "type": "function"
    },
    {
      "inputs": [],
      "name": "holdingClbValue",
      "outputs": [
        {
          "internalType": "uint256",
          "name": "value",
          "type": "uint256"
        }
      ],
      "stateMutability": "view",
      "type": "function"
    },
    {
      "inputs": [],
      "name": "holdingValue",
      "outputs": [
        {
          "internalType": "uint256",
          "name": "",
          "type": "uint256"
        }
      ],
      "stateMutability": "view",
      "type": "function"
    },
    {
      "inputs": [
        {
          "internalType": "address",
          "name": "spender",
          "type": "address"
        },
        {
          "internalType": "uint256",
          "name": "addedValue",
          "type": "uint256"
        }
      ],
      "name": "increaseAllowance",
      "outputs": [
        {
          "internalType": "bool",
          "name": "",
          "type": "bool"
        }
      ],
      "stateMutability": "nonpayable",
      "type": "function"
    },
    {
      "inputs": [],
      "name": "lpName",
      "outputs": [
        {
          "internalType": "string",
          "name": "",
          "type": "string"
        }
      ],
      "stateMutability": "view",
      "type": "function"
    },
    {
      "inputs": [],
      "name": "lpToken",
      "outputs": [
        {
          "internalType": "address",
          "name": "",
          "type": "address"
        }
      ],
      "stateMutability": "view",
      "type": "function"
    },
    {
      "inputs": [],
      "name": "market",
      "outputs": [
        {
          "internalType": "address",
          "name": "",
          "type": "address"
        }
      ],
      "stateMutability": "view",
      "type": "function"
    },
    {
      "inputs": [],
      "name": "name",
      "outputs": [
        {
          "internalType": "string",
          "name": "",
          "type": "string"
        }
      ],
      "stateMutability": "view",
      "type": "function"
    },
    {
      "inputs": [
        {
          "internalType": "address",
          "name": "",
          "type": "address"
        },
        {
          "internalType": "address",
          "name": "",
          "type": "address"
        },
        {
          "internalType": "uint256[]",
          "name": "",
          "type": "uint256[]"
        },
        {
          "internalType": "uint256[]",
          "name": "",
          "type": "uint256[]"
        },
        {
          "internalType": "bytes",
          "name": "",
          "type": "bytes"
        }
      ],
      "name": "onERC1155BatchReceived",
      "outputs": [
        {
          "internalType": "bytes4",
          "name": "",
          "type": "bytes4"
        }
      ],
      "stateMutability": "pure",
      "type": "function"
    },
    {
      "inputs": [
        {
          "internalType": "address",
          "name": "",
          "type": "address"
        },
        {
          "internalType": "address",
          "name": "",
          "type": "address"
        },
        {
          "internalType": "uint256",
          "name": "",
          "type": "uint256"
        },
        {
          "internalType": "uint256",
          "name": "",
          "type": "uint256"
        },
        {
          "internalType": "bytes",
          "name": "",
          "type": "bytes"
        }
      ],
      "name": "onERC1155Received",
      "outputs": [
        {
          "internalType": "bytes4",
          "name": "",
          "type": "bytes4"
        }
      ],
      "stateMutability": "pure",
      "type": "function"
    },
    {
      "inputs": [],
      "name": "pendingClbValue",
      "outputs": [
        {
          "internalType": "uint256",
          "name": "value",
          "type": "uint256"
        }
      ],
      "stateMutability": "view",
      "type": "function"
    },
    {
      "inputs": [],
      "name": "pendingRemoveClbBalances",
      "outputs": [
        {
          "internalType": "uint256[]",
          "name": "",
          "type": "uint256[]"
        }
      ],
      "stateMutability": "view",
      "type": "function"
    },
    {
      "inputs": [],
      "name": "pendingValue",
      "outputs": [
        {
          "internalType": "uint256",
          "name": "",
          "type": "uint256"
        }
      ],
      "stateMutability": "view",
      "type": "function"
    },
    {
      "inputs": [],
      "name": "rebalance",
      "outputs": [],
      "stateMutability": "nonpayable",
      "type": "function"
    },
    {
      "inputs": [
        {
          "internalType": "uint256",
          "name": "",
          "type": "uint256"
        },
        {
          "internalType": "address",
          "name": "",
          "type": "address"
        }
      ],
      "name": "removeLiquidity",
      "outputs": [
        {
          "components": [
            {
              "internalType": "uint256",
              "name": "id",
              "type": "uint256"
            },
            {
              "internalType": "address",
              "name": "provider",
              "type": "address"
            },
            {
              "internalType": "address",
              "name": "recipient",
              "type": "address"
            },
            {
              "internalType": "uint256",
              "name": "oracleVersion",
              "type": "uint256"
            },
            {
              "internalType": "uint256",
              "name": "amount",
              "type": "uint256"
            },
            {
              "internalType": "uint256",
              "name": "pendingLiquidity",
              "type": "uint256"
            },
            {
              "internalType": "enum ChromaticLPAction",
              "name": "action",
              "type": "uint8"
            }
          ],
          "internalType": "struct ChromaticLPReceipt",
          "name": "",
          "type": "tuple"
        }
      ],
      "stateMutability": "nonpayable",
      "type": "function"
    },
    {
      "inputs": [
        {
          "internalType": "address",
          "name": "",
          "type": "address"
        },
        {
          "internalType": "uint256[]",
          "name": "",
          "type": "uint256[]"
        },
        {
          "internalType": "bytes",
          "name": "",
          "type": "bytes"
        }
      ],
      "name": "removeLiquidityBatchCallback",
      "outputs": [],
      "stateMutability": "nonpayable",
      "type": "function"
    },
    {
      "inputs": [
        {
          "internalType": "address",
          "name": "",
          "type": "address"
        },
        {
          "internalType": "uint256",
          "name": "",
          "type": "uint256"
        },
        {
          "internalType": "bytes",
          "name": "",
          "type": "bytes"
        }
      ],
      "name": "removeLiquidityCallback",
      "outputs": [],
      "stateMutability": "pure",
      "type": "function"
    },
    {
      "inputs": [],
      "name": "resolveRebalance",
      "outputs": [
        {
          "internalType": "bool",
          "name": "",
          "type": "bool"
        },
        {
          "internalType": "bytes",
          "name": "",
          "type": "bytes"
        }
      ],
      "stateMutability": "view",
      "type": "function"
    },
    {
      "inputs": [
        {
          "internalType": "uint256",
          "name": "receiptId",
          "type": "uint256"
        }
      ],
      "name": "resolveSettle",
      "outputs": [
        {
          "internalType": "bool",
          "name": "",
          "type": "bool"
        },
        {
          "internalType": "bytes",
          "name": "",
          "type": "bytes"
        }
      ],
      "stateMutability": "view",
      "type": "function"
    },
    {
      "inputs": [
        {
          "internalType": "uint256",
          "name": "",
          "type": "uint256"
        }
      ],
      "name": "settle",
      "outputs": [
        {
          "internalType": "bool",
          "name": "",
          "type": "bool"
        }
      ],
      "stateMutability": "nonpayable",
      "type": "function"
    },
    {
      "inputs": [
        {
          "internalType": "uint256",
          "name": "",
          "type": "uint256"
        }
      ],
      "name": "settleTask",
      "outputs": [],
      "stateMutability": "nonpayable",
      "type": "function"
    },
    {
      "inputs": [],
      "name": "settlementToken",
      "outputs": [
        {
          "internalType": "address",
          "name": "",
          "type": "address"
        }
      ],
      "stateMutability": "view",
      "type": "function"
    },
    {
      "inputs": [
        {
          "internalType": "bytes4",
          "name": "interfaceID",
          "type": "bytes4"
        }
      ],
      "name": "supportsInterface",
      "outputs": [
        {
          "internalType": "bool",
          "name": "",
          "type": "bool"
        }
      ],
      "stateMutability": "pure",
      "type": "function"
    },
    {
      "inputs": [],
      "name": "symbol",
      "outputs": [
        {
          "internalType": "string",
          "name": "",
          "type": "string"
        }
      ],
      "stateMutability": "view",
      "type": "function"
    },
    {
      "inputs": [],
      "name": "totalClbValue",
      "outputs": [
        {
          "internalType": "uint256",
          "name": "value",
          "type": "uint256"
        }
      ],
      "stateMutability": "view",
      "type": "function"
    },
    {
      "inputs": [],
      "name": "totalSupply",
      "outputs": [
        {
          "internalType": "uint256",
          "name": "",
          "type": "uint256"
        }
      ],
      "stateMutability": "view",
      "type": "function"
    },
    {
      "inputs": [],
      "name": "totalValue",
      "outputs": [
        {
          "internalType": "uint256",
          "name": "value",
          "type": "uint256"
        }
      ],
      "stateMutability": "view",
      "type": "function"
    },
    {
      "inputs": [
        {
          "internalType": "address",
          "name": "to",
          "type": "address"
        },
        {
          "internalType": "uint256",
          "name": "amount",
          "type": "uint256"
        }
      ],
      "name": "transfer",
      "outputs": [
        {
          "internalType": "bool",
          "name": "",
          "type": "bool"
        }
      ],
      "stateMutability": "nonpayable",
      "type": "function"
    },
    {
      "inputs": [
        {
          "internalType": "address",
          "name": "from",
          "type": "address"
        },
        {
          "internalType": "address",
          "name": "to",
          "type": "address"
        },
        {
          "internalType": "uint256",
          "name": "amount",
          "type": "uint256"
        }
      ],
      "name": "transferFrom",
      "outputs": [
        {
          "internalType": "bool",
          "name": "",
          "type": "bool"
        }
      ],
      "stateMutability": "nonpayable",
      "type": "function"
    },
    {
      "inputs": [],
      "name": "utilization",
      "outputs": [
        {
          "internalType": "uint16",
          "name": "currentUtility",
          "type": "uint16"
        }
      ],
      "stateMutability": "view",
      "type": "function"
    },
    {
      "inputs": [],
      "name": "valueInfo",
      "outputs": [
        {
          "components": [
            {
              "internalType": "uint256",
              "name": "total",
              "type": "uint256"
            },
            {
              "internalType": "uint256",
              "name": "holding",
              "type": "uint256"
            },
            {
              "internalType": "uint256",
              "name": "pending",
              "type": "uint256"
            },
            {
              "internalType": "uint256",
              "name": "holdingClb",
              "type": "uint256"
            },
            {
              "internalType": "uint256",
              "name": "pendingClb",
              "type": "uint256"
            }
          ],
          "internalType": "struct ValueInfo",
          "name": "info",
          "type": "tuple"
        }
      ],
      "stateMutability": "view",
      "type": "function"
    },
    {
      "inputs": [
        {
          "internalType": "uint256[]",
          "name": "",
          "type": "uint256[]"
        },
        {
          "internalType": "int16[]",
          "name": "",
          "type": "int16[]"
        },
        {
          "internalType": "uint256[]",
          "name": "",
          "type": "uint256[]"
        },
        {
          "internalType": "uint256[]",
          "name": "",
          "type": "uint256[]"
        },
        {
          "internalType": "bytes",
          "name": "",
          "type": "bytes"
        }
      ],
      "name": "withdrawLiquidityBatchCallback",
      "outputs": [],
      "stateMutability": "nonpayable",
      "type": "function"
    },
    {
      "inputs": [
        {
          "internalType": "uint256",
          "name": "",
          "type": "uint256"
        },
        {
          "internalType": "int16",
          "name": "",
          "type": "int16"
        },
        {
          "internalType": "uint256",
          "name": "",
          "type": "uint256"
        },
        {
          "internalType": "uint256",
          "name": "",
          "type": "uint256"
        },
        {
          "internalType": "bytes",
          "name": "",
          "type": "bytes"
        }
      ],
      "name": "withdrawLiquidityCallback",
      "outputs": [],
      "stateMutability": "pure",
      "type": "function"
    },
    {
      "stateMutability": "payable",
      "type": "receive"
    }
  ],
  "transactionHash": "0xa75ba3a880accb0df1c479055989dccfa20c4bccdaa30f64edba5041cc445c3f",
  "args": [
    "0x3AFb4A70F8E4678864C9Cd76B61329a77aDC75d9",
    {
      "lpName": "normal",
      "tag": "N"
    },
    {
      "market": "0x8Afc5b9e09F8c6002d8400f5E71cd74649466f95",
      "utilizationTargetBPS": 5000,
      "rebalanceBPS": 500,
      "rebalanceCheckingInterval": 3600,
      "settleCheckingInterval": 60
    },
    [
      -4,
      -3,
      -2,
      -1,
      1,
      2,
      3,
      4
    ],
    [
      2000,
      1500,
      1000,
      500,
      500,
      1000,
      1500,
      2000
    ],
    {
      "automate": "0xa5f9b728ecEB9A1F6FCC89dcc2eFd810bA4Dec41",
      "opsProxyFactory": "0x0000000000000000000000000000000000000000"
    }
  ],
  "numDeployments": 15,
  "solcInputHash": "4a90887917b4748a31e059164e357121",
  "bytecode": "0x6101206040523480156200001257600080fd5b506040516200569738038062005697833981016040819052620000359162000d60565b808080600001513082602001516040518060200160405280600081525060405180602001604052806000815250816003908162000073919062000f17565b50600462000082828262000f17565b5050506001600160a01b03831660808190526040805163573ea57560e01b8152905163573ea575916004808201926020929091908290030181865afa158015620000d0573d6000803e3d6000fd5b505050506040513d601f19601f82011682018060405250810190620000f6919062000fe3565b6001600160a01b0390811660c052811662000122575073c815db16d4be6ddf2685c201937905abf338f5d75b6040516337b6269f60e21b81526001600160a01b03838116600483015282169063ded89a7c906024016040805180830381865afa15801562000168573d6000803e3d6000fd5b505050506040513d601f19601f820116820180604052508101906200018e919062001003565b506001600160a01b0390811660a0523360e0528b166101005250620001be935088925087915086905085620001d4565b620001c8620002ac565b50505050505062001272565b620001f08360200151846040015184846200036260201b60201c565b6040805180820190915284518082526020808701519083015260059081906200021a908262000f17565b506020820151600182019062000231908262000f17565b5050604080516080808201835260208781015161ffff908116808552898601519091169184018290526060808a015195850186905292890151929093018290526007805463ffffffff19169093176201000090910217909155600891909155600955508251620002a690600a908484620003ef565b50505050565b60e0516001600160a01b0316336001600160a01b031614620002e157604051639298645b60e01b815260040160405180910390fd5b6014541562000303576040516378bfb91760e01b815260040160405180910390fd5b60408051600480825260248083018452602080840180516001600160e01b03908116635030825760e11b17909152855193845291830190945292810180518416631f5f0a8760e21b1790526008546200035d936200041516565b601455565b6127108461ffff1611156200039557604051631191f22d60e31b815261ffff851660048201526024015b60405180910390fd5b8051825114620003c65781518151604051637e2c0eb360e01b8152600481019290925260248201526044016200038c565b8261ffff168461ffff1611620002a657604051630272acdf60e41b815260040160405180910390fd5b83546001600160a01b0319166001600160a01b038416178455620002a684838362000708565b600080604051806040016040528060036001600160401b038111156200043f576200043f62000a4c565b60405190808252806020026020018201604052801562000469578160200160208202803683370190505b5081526040805160038082526080820190925260209092019190816020015b6060815260200190600190039081620004885750509052805180519192506000918290620004ba57620004ba62001046565b60200260200101906003811115620004d657620004d66200105c565b90816003811115620004ec57620004ec6200105c565b81525050600181600001516001815181106200050c576200050c62001046565b602002602001019060038111156200052857620005286200105c565b908160038111156200053e576200053e6200105c565b81525050600281600001516002815181106200055e576200055e62001046565b602002602001019060038111156200057a576200057a6200105c565b908160038111156200059057620005906200105c565b905250604051620005a89030908790602001620010a0565b6040516020818303038152906040528160200151600081518110620005d157620005d162001046565b6020908102919091010152620005e88342620010dc565b604080516001600160801b0392831660208201529185169082015260600160405160208183030381529060405281602001516001815181106200062f576200062f62001046565b602002602001018190525060405180602001604052806000815250816020015160028151811062000664576200066462001046565b60200260200101819052506080516001600160a01b0316633323b46730868473eeeeeeeeeeeeeeeeeeeeeeeeeeeeeeeeeeeeeeee6040518563ffffffff1660e01b8152600401620006b994939291906200114e565b6020604051808303816000875af1158015620006d9573d6000803e3d6000fd5b505050506040513d601f19601f82011682018060405250810190620006ff91906200120f565b95945050505050565b6000805b8251811015620007b9578281815181106200072b576200072b62001046565b60200260200101518560020160008684815181106200074e576200074e62001046565b602002602001015160010b60010b815260200190815260200160002060006101000a81548161ffff021916908361ffff16021790555082818151811062000799576200079962001046565b602002602001015182620007ae919062001229565b91506001016200070c565b506127108161ffff1614620007e15760405163243d9fd360e01b815260040160405180910390fd5b8251620007f890600186019060208601906200092b565b50620002a6848480516001600160401b038111156200081b576200081b62000a4c565b60405190808252806020026020018201604052801562000845578160200160208202803683370190505b5080516200085e916003850191602090910190620009de565b5060005b8151811015620008c6576200089982828151811062000885576200088562001046565b6020026020010151620008cb60201b60201c565b836003018281548110620008b157620008b162001046565b60009182526020909120015560010162000862565b505050565b6000600182900b8112620008f881620008ef57620008e9846200124e565b620008f1565b835b82620008ff565b9392505050565b60008162000922576200091c6402540be40061ffff8516620010dc565b620008f8565b505061ffff1690565b82805482825590600052602060002090600f01601090048101928215620009cc5791602002820160005b838211156200099a57835183826101000a81548161ffff021916908360010b61ffff160217905550926020019260020160208160010104928301926001030262000955565b8015620009ca5782816101000a81549061ffff02191690556002016020816001010492830192600103026200099a565b505b50620009da92915062000a1c565b5090565b828054828255906000526020600020908101928215620009cc579160200282015b82811115620009cc578251825591602001919060010190620009ff565b5b80821115620009da576000815560010162000a1d565b6001600160a01b038116811462000a4957600080fd5b50565b634e487b7160e01b600052604160045260246000fd5b604080519081016001600160401b038111828210171562000a875762000a8762000a4c565b60405290565b604051601f8201601f191681016001600160401b038111828210171562000ab85762000ab862000a4c565b604052919050565b60005b8381101562000add57818101518382015260200162000ac3565b50506000910152565b600082601f83011262000af857600080fd5b81516001600160401b0381111562000b145762000b1462000a4c565b62000b29601f8201601f191660200162000a8d565b81815284602083860101111562000b3f57600080fd5b62000b5282602083016020870162000ac0565b949350505050565b805161ffff8116811462000b6d57600080fd5b919050565b600060a0828403121562000b8557600080fd5b60405160a081016001600160401b038111828210171562000baa5762000baa62000a4c565b8060405250809150825162000bbf8162000a33565b815262000bcf6020840162000b5a565b602082015262000be26040840162000b5a565b604082015260608301516060820152608083015160808201525092915050565b60006001600160401b0382111562000c1e5762000c1e62000a4c565b5060051b60200190565b600082601f83011262000c3a57600080fd5b8151602062000c5362000c4d8362000c02565b62000a8d565b82815260059290921b8401810191818101908684111562000c7357600080fd5b8286015b8481101562000ca15780518060010b811462000c935760008081fd5b835291830191830162000c77565b509695505050505050565b600082601f83011262000cbe57600080fd5b8151602062000cd162000c4d8362000c02565b82815260059290921b8401810191818101908684111562000cf157600080fd5b8286015b8481101562000ca15762000d098162000b5a565b835291830191830162000cf5565b60006040828403121562000d2a57600080fd5b62000d3462000a62565b9050815162000d438162000a33565b8152602082015162000d558162000a33565b602082015292915050565b600080600080600080610160878903121562000d7b57600080fd5b865162000d888162000a33565b60208801519096506001600160401b038082111562000da657600080fd5b908801906040828b03121562000dbb57600080fd5b62000dc562000a62565b82518281111562000dd557600080fd5b62000de38c82860162000ae6565b82525060208301518281111562000df957600080fd5b62000e078c82860162000ae6565b602083015250965062000e1e8a60408b0162000b72565b955060e089015191508082111562000e3557600080fd5b62000e438a838b0162000c28565b945061010089015191508082111562000e5b57600080fd5b5062000e6a89828a0162000cac565b92505062000e7d88610120890162000d17565b90509295509295509295565b600181811c9082168062000e9e57607f821691505b60208210810362000ebf57634e487b7160e01b600052602260045260246000fd5b50919050565b601f821115620008c657600081815260208120601f850160051c8101602086101562000eee5750805b601f850160051c820191505b8181101562000f0f5782815560010162000efa565b505050505050565b81516001600160401b0381111562000f335762000f3362000a4c565b62000f4b8162000f44845462000e89565b8462000ec5565b602080601f83116001811462000f83576000841562000f6a5750858301515b600019600386901b1c1916600185901b17855562000f0f565b600085815260208120601f198616915b8281101562000fb45788860151825594840194600190910190840162000f93565b508582101562000fd35787850151600019600388901b60f8161c191681555b5050505050600190811b01905550565b60006020828403121562000ff657600080fd5b8151620008f88162000a33565b600080604083850312156200101757600080fd5b8251620010248162000a33565b602084015190925080151581146200103b57600080fd5b809150509250929050565b634e487b7160e01b600052603260045260246000fd5b634e487b7160e01b600052602160045260246000fd5b600081518084526200108c81602086016020860162000ac0565b601f01601f19169290920160200192915050565b6001600160a01b038316815260406020820181905260009062000b529083018462001072565b634e487b7160e01b600052601160045260246000fd5b80820180821115620010f257620010f2620010c6565b92915050565b6000815180845260208085019450848260051b860182860160005b85811015620011415783830389526200112e83835162001072565b9885019892509084019060010162001113565b5090979650505050505050565b6001600160a01b038516815260806020808301829052600091620011759084018762001072565b838103604080860191909152865181835280519183018290528301906000906060840190825b81811015620011d75784516004808210620011c357634e487b7160e01b865260218152602486fd5b50835293860193918601916001016200119b565b505084890151925083810385850152620011f28184620010f8565b95505050505050620006ff60608301846001600160a01b03169052565b6000602082840312156200122257600080fd5b5051919050565b61ffff818116838216019080821115620012475762001247620010c6565b5092915050565b60008160010b617fff198103620012695762001269620010c6565b60000392915050565b60805160a05160c05160e051610100516143c0620012d7600039600081816105af0152610a74015260008181610e4d015261115e015260005050600081816104c801528181610baa01526110b00152600081816103a101526125c801526143c06000f3fe6080604052600436106103435760003560e01c80637b9e618d116101b0578063b63e6ac3116100ec578063d2419e2311610095578063e921b5c21161006f578063e921b5c2146109e1578063ea21cd9214610a01578063f120bc4d14610959578063f23a6e6114610a2957610352565b8063d2419e2314610959578063d4c3eea014610979578063dd62ed3e1461098e57610352565b8063c73fc729116100c6578063c73fc729146104ea578063c95f9d0e146103e8578063d0d063c01461093957610352565b8063b63e6ac31461088b578063bc197c81146108ab578063c244e4ca1461092457610352565b806393e15ee911610159578063a06104ae11610133578063a06104ae14610821578063a457c2d714610836578063a9059cbb14610856578063ac31bb041461087657610352565b806393e15ee9146107dc57806395d89b41146107f1578063970d1d6f1461080657610352565b8063836339641161018a57806383633964146107795780638df828001461078e5780639134e7e7146107ae57610352565b80637b9e618d146107245780637d7c2a1c1461073957806380f556051461074e57610352565b8063395093511161027f5780635fcbd2851161022857806370a082311161020257806370a0823114610653578063735a448e14610696578063747cd3d9146106ed5780637688c5841461070257610352565b80635fcbd2851461061657806366cc811a146106295780636868fe1d1461063e57610352565b806346cd68011161025957806346cd6801146105d15780635a80e080146105e65780635c3986b01461060157610352565b806339509351146105685780633ab8a16c1461058857806340c592c11461059d57610352565b806323a43ec8116102ec5780633068e794116102c65780633068e794146104ea578063313ce5671461050a5780633179f04814610526578063357dbd231461055357610352565b806323a43ec81461047657806323b872dd1461049657806328f150eb146104b657610352565b806306fdde031161031d57806306fdde0314610415578063095ea7b31461043757806318160ddd1461045757610352565b806301ffc9a71461035a578063049aacfe1461038f57806305fe138b146103e857610352565b3661035257610350610a6f565b005b610350610a6f565b34801561036657600080fd5b5061037a6103753660046131d5565b610a9a565b60405190151581526020015b60405180910390f35b34801561039b57600080fd5b506103c37f000000000000000000000000000000000000000000000000000000000000000081565b60405173ffffffffffffffffffffffffffffffffffffffff9091168152602001610386565b3480156103f457600080fd5b50610408610403366004613239565b610b33565b6040516103869190613298565b34801561042157600080fd5b5061042a610b43565b6040516103869190613382565b34801561044357600080fd5b5061037a610452366004613395565b610b7a565b34801561046357600080fd5b506002545b604051908152602001610386565b34801561048257600080fd5b506103506104913660046133c1565b610b92565b3480156104a257600080fd5b5061037a6104b13660046133da565b610c0c565b3480156104c257600080fd5b506103c37f000000000000000000000000000000000000000000000000000000000000000081565b3480156104f657600080fd5b5061035061050536600461345d565b610c32565b34801561051657600080fd5b5060405160128152602001610386565b34801561053257600080fd5b506105466105413660046134d6565b610c64565b60405161038691906134f3565b34801561055f57600080fd5b50601154610468565b34801561057457600080fd5b5061037a610583366004613395565b610c9a565b34801561059457600080fd5b50610468610ce6565b3480156105a957600080fd5b506103c37f000000000000000000000000000000000000000000000000000000000000000081565b3480156105dd57600080fd5b5061042a610cf2565b3480156105f257600080fd5b50610350610505366004613537565b34801561060d57600080fd5b50610546610d87565b34801561062257600080fd5b50306103c3565b34801561063557600080fd5b50610468610de1565b34801561064a57600080fd5b50610468610ded565b34801561065f57600080fd5b5061046861066e3660046134d6565b73ffffffffffffffffffffffffffffffffffffffff1660009081526020819052604090205490565b3480156106a257600080fd5b506106ab610df9565b6040516103869190600060a082019050825182526020830151602083015260408301516040830152606083015160608301526080830151608083015292915050565b3480156106f957600080fd5b50610350610e35565b34801561070e57600080fd5b50610717610f84565b6040516103869190613593565b34801561073057600080fd5b506103c3611004565b34801561074557600080fd5b50610350611098565b34801561075a57600080fd5b50600a5473ffffffffffffffffffffffffffffffffffffffff166103c3565b34801561078557600080fd5b5061046861110f565b34801561079a57600080fd5b5061037a6107a93660046133c1565b61111b565b3480156107ba57600080fd5b506107ce6107c93660046133c1565b61112a565b6040516103869291906135ce565b3480156107e857600080fd5b50610350611146565b3480156107fd57600080fd5b5061042a6111b5565b34801561081257600080fd5b506103506105053660046135f1565b34801561082d57600080fd5b506107ce611250565b34801561084257600080fd5b5061037a610851366004613395565b61126a565b34801561086257600080fd5b5061037a610871366004613395565b61134b565b34801561088257600080fd5b50610546611359565b34801561089757600080fd5b506104086108a63660046133c1565b611365565b3480156108b757600080fd5b506108f36108c6366004613683565b7fbc197c810000000000000000000000000000000000000000000000000000000098975050505050505050565b6040517fffffffff000000000000000000000000000000000000000000000000000000009091168152602001610386565b34801561093057600080fd5b50610546611378565b34801561094557600080fd5b506103506109543660046135f1565b611384565b34801561096557600080fd5b50610350610974366004613742565b611392565b34801561098557600080fd5b506104686113a6565b34801561099a57600080fd5b506104686109a9366004613833565b73ffffffffffffffffffffffffffffffffffffffff918216600090815260016020908152604080832093909416825291909152205490565b3480156109ed57600080fd5b506103506109fc366004613861565b6113cf565b348015610a0d57600080fd5b50610a166113de565b60405161ffff9091168152602001610386565b348015610a3557600080fd5b506108f3610a443660046138e4565b7ff23a6e61000000000000000000000000000000000000000000000000000000009695505050505050565b610a987f00000000000000000000000000000000000000000000000000000000000000006113f0565b565b60007fffffffff0000000000000000000000000000000000000000000000000000000082167f01ffc9a7000000000000000000000000000000000000000000000000000000001480610b2d57507fffffffff0000000000000000000000000000000000000000000000000000000082167f4e2312e000000000000000000000000000000000000000000000000000000000145b92915050565b610b3b61315c565b610b2d610a6f565b6060610b4d611414565b610b556114b0565b604051602001610b66929190613918565b604051602081830303815290604052905090565b600033610b8881858561158e565b5060019392505050565b3373ffffffffffffffffffffffffffffffffffffffff7f00000000000000000000000000000000000000000000000000000000000000001614610c01576040517fa19677f400000000000000000000000000000000000000000000000000000000815260040160405180910390fd5b610c09610a6f565b50565b600033610c1a858285611741565b610c25858585611812565b60019150505b9392505050565b6040517f36bcfc9a00000000000000000000000000000000000000000000000000000000815260040160405180910390fd5b73ffffffffffffffffffffffffffffffffffffffff81166000908152601060205260409020606090610b2d90611a81565b905090565b33600081815260016020908152604080832073ffffffffffffffffffffffffffffffffffffffff87168452909152812054909190610b889082908690610ce19087906139c8565b61158e565b6000610c95600a611a8e565b606060056000018054610d04906139db565b80601f0160208091040260200160405190810160405280929190818152602001828054610d30906139db565b8015610d7d5780601f10610d5257610100808354040283529160200191610d7d565b820191906000526020600020905b815481529060010190602001808311610d6057829003601f168201915b5050505050905090565b6060600a600301805480602002602001604051908101604052809291908181526020018280548015610d7d57602002820191906000526020600020905b815481526020019060010190808311610dc4575050505050905090565b6000610c95600a611d51565b6000610c95600a611fdb565b610e2b6040518060a0016040528060008152602001600081526020016000815260200160008152602001600081525090565b610c95600a61229d565b3373ffffffffffffffffffffffffffffffffffffffff7f00000000000000000000000000000000000000000000000000000000000000001614610ea4576040517f9298645b00000000000000000000000000000000000000000000000000000000815260040160405180910390fd5b60145415610ede576040517f78bfb91700000000000000000000000000000000000000000000000000000000815260040160405180910390fd5b60408051600480825260248083018452602080840180517bffffffffffffffffffffffffffffffffffffffffffffffffffffffff9081167fa06104ae0000000000000000000000000000000000000000000000000000000017909152855193845291830190945292810180519093167f7d7c2a1c0000000000000000000000000000000000000000000000000000000017909252600854610f7f9290612354565b601455565b6060600a600101805480602002602001604051908101604052809291908181526020018280548015610d7d57602002820191906000526020600020906000905b82829054906101000a900460010b60010b81526020019060020190602082600101049283019260010382029150808411610fc45790505050505050905090565b600a54604080517f7b9e618d000000000000000000000000000000000000000000000000000000008152905160009273ffffffffffffffffffffffffffffffffffffffff1691637b9e618d9160048083019260209291908290030181865afa158015611074573d6000803e3d6000fd5b505050506040513d601f19601f82011682018060405250810190610c959190613a28565b3373ffffffffffffffffffffffffffffffffffffffff7f00000000000000000000000000000000000000000000000000000000000000001614611107576040517fa19677f400000000000000000000000000000000000000000000000000000000815260040160405180910390fd5b610a98610a6f565b6000610c95600a612663565b6000611125610a6f565b919050565b6000606061113d83306323a43ec86126fe565b91509150915091565b3373ffffffffffffffffffffffffffffffffffffffff7f00000000000000000000000000000000000000000000000000000000000000001614611107576040517f9298645b00000000000000000000000000000000000000000000000000000000815260040160405180910390fd5b600a546060906111dc9073ffffffffffffffffffffffffffffffffffffffff1660046127b2565b600680546000906111ec906139db565b81106111fa576111fa613a45565b8154600116156112195790600052602060002090602091828204019190065b9054901a7f010000000000000000000000000000000000000000000000000000000000000002604051602001610b66929190613a74565b6000606061126230637d7c2a1c612944565b915091509091565b33600081815260016020908152604080832073ffffffffffffffffffffffffffffffffffffffff8716845290915281205490919083811015611333576040517f08c379a000000000000000000000000000000000000000000000000000000000815260206004820152602560248201527f45524332303a2064656372656173656420616c6c6f77616e63652062656c6f7760448201527f207a65726f00000000000000000000000000000000000000000000000000000060648201526084015b60405180910390fd5b611340828686840361158e565b506001949350505050565b600033610b88818585611812565b6060610c95600a612a40565b61136d61315c565b610b2d600a83612b8c565b6060610c95600a612c40565b61138c610a6f565b50505050565b61139a610a6f565b50505050505050505050565b60006113b0610ded565b6011546113bb61110f565b6113c591906139c8565b610c9591906139c8565b6113d7610a6f565b5050505050565b60006113ea600a612d18565b50919050565b3660008037600080366000845af43d6000803e80801561140f573d6000f35b3d6000fd5b6060611420600a612d79565b73ffffffffffffffffffffffffffffffffffffffff166395d89b416040518163ffffffff1660e01b8152600401600060405180830381865afa15801561146a573d6000803e3d6000fd5b505050506040513d6000823e601f3d9081017fffffffffffffffffffffffffffffffffffffffffffffffffffffffffffffffe0168201604052610c959190810190613b88565b600a54604080517f0aa7d2f9000000000000000000000000000000000000000000000000000000008152905160609273ffffffffffffffffffffffffffffffffffffffff1691630aa7d2f99160048083019260209291908290030181865afa158015611520573d6000803e3d6000fd5b505050506040513d601f19601f820116820180604052508101906115449190613a28565b73ffffffffffffffffffffffffffffffffffffffff16637284e4166040518163ffffffff1660e01b8152600401600060405180830381865afa15801561146a573d6000803e3d6000fd5b73ffffffffffffffffffffffffffffffffffffffff8316611630576040517f08c379a0000000000000000000000000000000000000000000000000000000008152602060048201526024808201527f45524332303a20617070726f76652066726f6d20746865207a65726f2061646460448201527f7265737300000000000000000000000000000000000000000000000000000000606482015260840161132a565b73ffffffffffffffffffffffffffffffffffffffff82166116d3576040517f08c379a000000000000000000000000000000000000000000000000000000000815260206004820152602260248201527f45524332303a20617070726f766520746f20746865207a65726f20616464726560448201527f7373000000000000000000000000000000000000000000000000000000000000606482015260840161132a565b73ffffffffffffffffffffffffffffffffffffffff83811660008181526001602090815260408083209487168084529482529182902085905590518481527f8c5be1e5ebec7d5bd14f71427d1e84f3dd0314c0f7b2291e5b200ac8c7c3b925910160405180910390a3505050565b73ffffffffffffffffffffffffffffffffffffffff8381166000908152600160209081526040808320938616835292905220547fffffffffffffffffffffffffffffffffffffffffffffffffffffffffffffffff811461138c5781811015611805576040517f08c379a000000000000000000000000000000000000000000000000000000000815260206004820152601d60248201527f45524332303a20696e73756666696369656e7420616c6c6f77616e6365000000604482015260640161132a565b61138c848484840361158e565b73ffffffffffffffffffffffffffffffffffffffff83166118b5576040517f08c379a000000000000000000000000000000000000000000000000000000000815260206004820152602560248201527f45524332303a207472616e736665722066726f6d20746865207a65726f20616460448201527f6472657373000000000000000000000000000000000000000000000000000000606482015260840161132a565b73ffffffffffffffffffffffffffffffffffffffff8216611958576040517f08c379a000000000000000000000000000000000000000000000000000000000815260206004820152602360248201527f45524332303a207472616e7366657220746f20746865207a65726f206164647260448201527f6573730000000000000000000000000000000000000000000000000000000000606482015260840161132a565b73ffffffffffffffffffffffffffffffffffffffff831660009081526020819052604090205481811015611a0e576040517f08c379a000000000000000000000000000000000000000000000000000000000815260206004820152602660248201527f45524332303a207472616e7366657220616d6f756e742065786365656473206260448201527f616c616e63650000000000000000000000000000000000000000000000000000606482015260840161132a565b73ffffffffffffffffffffffffffffffffffffffff848116600081815260208181526040808320878703905593871680835291849020805487019055925185815290927fddf252ad1be2c89b69c2b068fc378daa952ba7f163c4a11628f55a4df523b3ef910160405180910390a361138c565b60606000610c2b83612e0c565b6000808260000160009054906101000a900473ffffffffffffffffffffffffffffffffffffffff1673ffffffffffffffffffffffffffffffffffffffff166264041d6040518163ffffffff1660e01b8152600401602060405180830381865afa158015611aff573d6000803e3d6000fd5b505050506040513d601f19601f82011682018060405250810190611b239190613a28565b73ffffffffffffffffffffffffffffffffffffffff166377954ac2846003016040518263ffffffff1660e01b8152600401611b5e9190613c7a565b600060405180830381865afa158015611b7b573d6000803e3d6000fd5b505050506040513d6000823e601f3d9081017fffffffffffffffffffffffffffffffffffffffffffffffffffffffffffffffe0168201604052611bc19190810190613c8d565b83546040517ffaf07bf300000000000000000000000000000000000000000000000000000000815291925060009173ffffffffffffffffffffffffffffffffffffffff9091169063faf07bf390611c1f906001880190600401613d33565b600060405180830381865afa158015611c3c573d6000803e3d6000fd5b505050506040513d6000823e601f3d9081017fffffffffffffffffffffffffffffffffffffffffffffffffffffffffffffffe0168201604052611c829190810190613c8d565b905060005b8151811015611d49576000856008016000876001018481548110611cad57611cad613a45565b60009182526020808320601083040154600f9092166002026101000a90910460010b835282019290925260400190205490508015611d3157611d2c838381518110611cfa57611cfa613a45565b6020026020010151858481518110611d1457611d14613a45565b602002602001015183612e689092919063ffffffff16565b611d34565b60005b611d3e90866139c8565b945050600101611c87565b505050919050565b6000808260000160009054906101000a900473ffffffffffffffffffffffffffffffffffffffff1673ffffffffffffffffffffffffffffffffffffffff166264041d6040518163ffffffff1660e01b8152600401602060405180830381865afa158015611dc2573d6000803e3d6000fd5b505050506040513d601f19601f82011682018060405250810190611de69190613a28565b73ffffffffffffffffffffffffffffffffffffffff166377954ac2846003016040518263ffffffff1660e01b8152600401611e219190613c7a565b600060405180830381865afa158015611e3e573d6000803e3d6000fd5b505050506040513d6000823e601f3d9081017fffffffffffffffffffffffffffffffffffffffffffffffffffffffffffffffe0168201604052611e849190810190613c8d565b83546040517ffaf07bf300000000000000000000000000000000000000000000000000000000815291925060009173ffffffffffffffffffffffffffffffffffffffff9091169063faf07bf390611ee2906001880190600401613d33565b600060405180830381865afa158015611eff573d6000803e3d6000fd5b505050506040513d6000823e601f3d9081017fffffffffffffffffffffffffffffffffffffffffffffffffffffffffffffffe0168201604052611f459190810190613c8d565b90506000611f5285612a40565b905060005b8251811015611fd2576000828281518110611f7457611f74613a45565b6020026020010151905080600014611fba57611fb5848381518110611f9b57611f9b613a45565b6020026020010151868481518110611d1457611d14613a45565b611fbd565b60005b611fc790876139c8565b955050600101611f57565b50505050919050565b6000808260000160009054906101000a900473ffffffffffffffffffffffffffffffffffffffff1673ffffffffffffffffffffffffffffffffffffffff166264041d6040518163ffffffff1660e01b8152600401602060405180830381865afa15801561204c573d6000803e3d6000fd5b505050506040513d601f19601f820116820180604052508101906120709190613a28565b73ffffffffffffffffffffffffffffffffffffffff166377954ac2846003016040518263ffffffff1660e01b81526004016120ab9190613c7a565b600060405180830381865afa1580156120c8573d6000803e3d6000fd5b505050506040513d6000823e601f3d9081017fffffffffffffffffffffffffffffffffffffffffffffffffffffffffffffffe016820160405261210e9190810190613c8d565b83546040517ffaf07bf300000000000000000000000000000000000000000000000000000000815291925060009173ffffffffffffffffffffffffffffffffffffffff9091169063faf07bf39061216c906001880190600401613d33565b600060405180830381865afa158015612189573d6000803e3d6000fd5b505050506040513d6000823e601f3d9081017fffffffffffffffffffffffffffffffffffffffffffffffffffffffffffffffe01682016040526121cf9190810190613c8d565b905060006121dc85612a40565b905060005b8251811015611fd257600086600801600088600101848154811061220757612207613a45565b90600052602060002090601091828204019190066002029054906101000a900460010b60010b60010b81526020019081526020016000205483838151811061225157612251613a45565b602002602001015161226391906139c8565b9050801561228557612280848381518110611f9b57611f9b613a45565b612288565b60005b61229290876139c8565b9550506001016121e1565b6122cf6040518060a0016040528060008152602001600081526020016000815260200160008152602001600081525090565b6040518060a00160405280600081526020016122ea84612663565b81526020016122fa846007015490565b815260200161230884611d51565b815260200161231684611a8e565b8152509050806080015181606001518260400151836020015161233991906139c8565b61234391906139c8565b61234d91906139c8565b8152919050565b6000806040518060400160405280600367ffffffffffffffff81111561237c5761237c613b0a565b6040519080825280602002602001820160405280156123a5578160200160208202803683370190505b5081526040805160038082526080820190925260209092019190816020015b60608152602001906001900390816123c457505090528051805191925060009182906123f2576123f2613a45565b6020026020010190600381111561240b5761240b613269565b9081600381111561241e5761241e613269565b815250506001816000015160018151811061243b5761243b613a45565b6020026020010190600381111561245457612454613269565b9081600381111561246757612467613269565b815250506002816000015160028151811061248457612484613a45565b6020026020010190600381111561249d5761249d613269565b908160038111156124b0576124b0613269565b9052506040516124c69030908790602001614046565b60405160208183030381529060405281602001516000815181106124ec576124ec613a45565b602090810291909101015261250183426139c8565b604080516fffffffffffffffffffffffffffffffff928316602082015291851690820152606001604051602081830303815290604052816020015160018151811061254e5761254e613a45565b602002602001018190525060405180602001604052806000815250816020015160028151811061258057612580613a45565b60209081029190910101526040517f3323b46700000000000000000000000000000000000000000000000000000000815273ffffffffffffffffffffffffffffffffffffffff7f00000000000000000000000000000000000000000000000000000000000000001690633323b467906126179030908890869073eeeeeeeeeeeeeeeeeeeeeeeeeeeeeeeeeeeeeeee90600401614075565b6020604051808303816000875af1158015612636573d6000803e3d6000fd5b505050506040513d601f19601f8201168201806040525081019061265a919061419a565b95945050505050565b600061266e82612d79565b6040517f70a0823100000000000000000000000000000000000000000000000000000000815230600482015273ffffffffffffffffffffffffffffffffffffffff91909116906370a0823190602401602060405180830381865afa1580156126da573d6000803e3d6000fd5b505050506040513d601f19601f82011682018060405250810190610b2d919061419a565b600060608161270e600a87612b8c565b80519091501580159061272d5750612726600a612f92565b8160600151105b1561279557600185858860405160240161274991815260200190565b604051602081830303815290604052915060e01b6020820180517bffffffffffffffffffffffffffffffffffffffffffffffffffffffff838183161783525050505092509250506127aa565b50506040805160208101909152600080825291505b935093915050565b60608160ff1667ffffffffffffffff8111156127d0576127d0613b0a565b6040519080825280601f01601f1916602001820160405280156127fa576020820181803683370190505b5060408051808201909152601081527f303132333435363738396162636465660000000000000000000000000000000060208201529091508361283e8460276141b3565b6128499060046141cc565b60ff168173ffffffffffffffffffffffffffffffffffffffff16901c905060005b8460ff1681101561293b5760048273ffffffffffffffffffffffffffffffffffffffff16901c9150826010836128a0919061421e565b60ff16815181106128b3576128b3613a45565b01602001517fff00000000000000000000000000000000000000000000000000000000000000168460016128ea8460ff8a16614278565b6128f49190614278565b8151811061290457612904613a45565b60200101907effffffffffffffffffffffffffffffffffffffffffffffffffffffffffffff1916908160001a90535060010161286a565b50505092915050565b60006060600080612955600a612d18565b915061ffff1691508060000361298257600060405180602001604052806000815250935093505050612a39565b60006040805160808101825260075461ffff8082168352620100009091041660208201526008549181019190915260095460608201526129c2908461309a565b60028111156129d3576129d3613269565b036129f557600060405180602001604052806000815250935093505050612a39565b50506040805160048152602481019091526020810180517bffffffffffffffffffffffffffffffffffffffffffffffffffffffff1660e086901b1790526001925090505b9250929050565b60606000612a4f836001015490565b67ffffffffffffffff811115612a6757612a67613b0a565b604051908082528060200260200182016040528015612a90578160200160208202803683370190505b50905060005b6001840154811015612ae25730828281518110612ab557612ab5613a45565b73ffffffffffffffffffffffffffffffffffffffff90921660209283029190910190910152600101612a96565b50612aec836130ef565b73ffffffffffffffffffffffffffffffffffffffff16634e1273f482856003016040518363ffffffff1660e01b8152600401612b2992919061428b565b600060405180830381865afa158015612b46573d6000803e3d6000fd5b505050506040513d6000823e601f3d9081017fffffffffffffffffffffffffffffffffffffffffffffffffffffffffffffffe0168201604052610c2b9190810190613c8d565b612b9461315c565b600082815260048085016020908152604092839020835160e0810185528154815260018083015473ffffffffffffffffffffffffffffffffffffffff9081169483019490945260028301549093169481019490945260038101546060850152918201546080840152600582015460a0840152600682015460c084019160ff90911690811115612c2557612c25613269565b6001811115612c3657612c36613269565b9052509392505050565b6060612c4d826001015490565b67ffffffffffffffff811115612c6557612c65613b0a565b604051908082528060200260200182016040528015612c8e578160200160208202803683370190505b50905060005b60018301548110156113ea57826008016000846001018381548110612cbb57612cbb613a45565b90600052602060002090601091828204019190066002029054906101000a900460010b60010b60010b815260200190815260200160002054828281518110612d0557612d05613a45565b6020908102919091010152600101612c94565b6000806000612d268461229d565b8051925090506000829003612d3e5760009250612d73565b612d70612710826000015183608001518460200151612d5d91906139c8565b8451612d699190614278565b9190612e68565b92505b50915091565b8054604080517f7b9e618d000000000000000000000000000000000000000000000000000000008152905160009273ffffffffffffffffffffffffffffffffffffffff1691637b9e618d9160048083019260209291908290030181865afa158015612de8573d6000803e3d6000fd5b505050506040513d601f19601f82011682018060405250810190610b2d9190613a28565b606081600001805480602002602001604051908101604052809291908181526020018280548015612e5c57602002820191906000526020600020905b815481526020019060010190808311612e48575b50505050509050919050565b600080807fffffffffffffffffffffffffffffffffffffffffffffffffffffffffffffffff85870985870292508281108382030391505080600003612ec057838281612eb657612eb66141ef565b0492505050610c2b565b808411612f29576040517f08c379a000000000000000000000000000000000000000000000000000000000815260206004820152601560248201527f4d6174683a206d756c446976206f766572666c6f770000000000000000000000604482015260640161132a565b60008486880960026001871981018816978890046003810283188082028403028082028403028082028403028082028403028082028403029081029092039091026000889003889004909101858311909403939093029303949094049190911702949350505050565b8054604080517f0aa7d2f9000000000000000000000000000000000000000000000000000000008152905160009273ffffffffffffffffffffffffffffffffffffffff1691630aa7d2f99160048083019260209291908290030181865afa158015613001573d6000803e3d6000fd5b505050506040513d601f19601f820116820180604052508101906130259190613a28565b73ffffffffffffffffffffffffffffffffffffffff16639d888e866040518163ffffffff1660e01b8152600401606060405180830381865afa15801561306f573d6000803e3d6000fd5b505050506040513d601f19601f8201168201806040525081019061309391906142f8565b5192915050565b600081836020015184600001516130b19190614354565b61ffff1610156130c357506002610b2d565b6020830151835183916130d59161436f565b61ffff1611156130e757506001610b2d565b506000610b2d565b8054604080517e64041d000000000000000000000000000000000000000000000000000000008152905160009273ffffffffffffffffffffffffffffffffffffffff16916264041d9160048083019260209291908290030181865afa158015612de8573d6000803e3d6000fd5b6040518060e0016040528060008152602001600073ffffffffffffffffffffffffffffffffffffffff168152602001600073ffffffffffffffffffffffffffffffffffffffff168152602001600081526020016000815260200160008152602001600060018111156131d0576131d0613269565b905290565b6000602082840312156131e757600080fd5b81357fffffffff0000000000000000000000000000000000000000000000000000000081168114610c2b57600080fd5b73ffffffffffffffffffffffffffffffffffffffff81168114610c0957600080fd5b6000806040838503121561324c57600080fd5b82359150602083013561325e81613217565b809150509250929050565b7f4e487b7100000000000000000000000000000000000000000000000000000000600052602160045260246000fd5b600060e08201905082518252602083015173ffffffffffffffffffffffffffffffffffffffff80821660208501528060408601511660408501525050606083015160608301526080830151608083015260a083015160a083015260c08301516002811061330757613307613269565b8060c08401525092915050565b60005b8381101561332f578181015183820152602001613317565b50506000910152565b60008151808452613350816020860160208601613314565b601f017fffffffffffffffffffffffffffffffffffffffffffffffffffffffffffffffe0169290920160200192915050565b602081526000610c2b6020830184613338565b600080604083850312156133a857600080fd5b82356133b381613217565b946020939093013593505050565b6000602082840312156133d357600080fd5b5035919050565b6000806000606084860312156133ef57600080fd5b83356133fa81613217565b9250602084013561340a81613217565b929592945050506040919091013590565b60008083601f84011261342d57600080fd5b50813567ffffffffffffffff81111561344557600080fd5b602083019150836020828501011115612a3957600080fd5b60008060008060008060a0878903121561347657600080fd5b8635955060208701358060010b811461348e57600080fd5b94506040870135935060608701359250608087013567ffffffffffffffff8111156134b857600080fd5b6134c489828a0161341b565b979a9699509497509295939492505050565b6000602082840312156134e857600080fd5b8135610c2b81613217565b6020808252825182820181905260009190848201906040850190845b8181101561352b5783518352928401929184019160010161350f565b50909695505050505050565b6000806000806060858703121561354d57600080fd5b843561355881613217565b935060208501359250604085013567ffffffffffffffff81111561357b57600080fd5b6135878782880161341b565b95989497509550505050565b6020808252825182820181905260009190848201906040850190845b8181101561352b578351600190810b84529385019392850192016135af565b82151581526040602082015260006135e96040830184613338565b949350505050565b6000806000806060858703121561360757600080fd5b843561361281613217565b9350602085013561362281613217565b9250604085013567ffffffffffffffff81111561357b57600080fd5b60008083601f84011261365057600080fd5b50813567ffffffffffffffff81111561366857600080fd5b6020830191508360208260051b8501011115612a3957600080fd5b60008060008060008060008060a0898b03121561369f57600080fd5b88356136aa81613217565b975060208901356136ba81613217565b9650604089013567ffffffffffffffff808211156136d757600080fd5b6136e38c838d0161363e565b909850965060608b01359150808211156136fc57600080fd5b6137088c838d0161363e565b909650945060808b013591508082111561372157600080fd5b5061372e8b828c0161341b565b999c989b5096995094979396929594505050565b60008060008060008060008060008060a08b8d03121561376157600080fd5b8a3567ffffffffffffffff8082111561377957600080fd5b6137858e838f0161363e565b909c509a5060208d013591508082111561379e57600080fd5b6137aa8e838f0161363e565b909a50985060408d01359150808211156137c357600080fd5b6137cf8e838f0161363e565b909850965060608d01359150808211156137e857600080fd5b6137f48e838f0161363e565b909650945060808d013591508082111561380d57600080fd5b5061381a8d828e0161341b565b915080935050809150509295989b9194979a5092959850565b6000806040838503121561384657600080fd5b823561385181613217565b9150602083013561325e81613217565b60008060008060006060868803121561387957600080fd5b853561388481613217565b9450602086013567ffffffffffffffff808211156138a157600080fd5b6138ad89838a0161363e565b909650945060408801359150808211156138c657600080fd5b506138d38882890161341b565b969995985093965092949392505050565b60008060008060008060a087890312156138fd57600080fd5b863561390881613217565b9550602087013561348e81613217565b7f4368726f6d617469634c50202d2000000000000000000000000000000000000081526000835161395081600e850160208801613314565b7f202d200000000000000000000000000000000000000000000000000000000000600e91840191820152835161398d816011840160208801613314565b01601101949350505050565b7f4e487b7100000000000000000000000000000000000000000000000000000000600052601160045260246000fd5b80820180821115610b2d57610b2d613999565b600181811c908216806139ef57607f821691505b6020821081036113ea577f4e487b7100000000000000000000000000000000000000000000000000000000600052602260045260246000fd5b600060208284031215613a3a57600080fd5b8151610c2b81613217565b7f4e487b7100000000000000000000000000000000000000000000000000000000600052603260045260246000fd5b7f434c502d00000000000000000000000000000000000000000000000000000000815260008351613aac816004850160208801613314565b7f2d0000000000000000000000000000000000000000000000000000000000000060049390910192830152507fff00000000000000000000000000000000000000000000000000000000000000919091166005820152600601919050565b7f4e487b7100000000000000000000000000000000000000000000000000000000600052604160045260246000fd5b604051601f82017fffffffffffffffffffffffffffffffffffffffffffffffffffffffffffffffe016810167ffffffffffffffff81118282101715613b8057613b80613b0a565b604052919050565b600060208284031215613b9a57600080fd5b815167ffffffffffffffff80821115613bb257600080fd5b818401915084601f830112613bc657600080fd5b815181811115613bd857613bd8613b0a565b613c0960207fffffffffffffffffffffffffffffffffffffffffffffffffffffffffffffffe0601f84011601613b39565b9150808252856020828501011115613c2057600080fd5b613c31816020840160208601613314565b50949350505050565b6000815480845260208085019450836000528060002060005b83811015613c6f57815487529582019560019182019101613c53565b509495945050505050565b602081526000610c2b6020830184613c3a565b60006020808385031215613ca057600080fd5b825167ffffffffffffffff80821115613cb857600080fd5b818501915085601f830112613ccc57600080fd5b815181811115613cde57613cde613b0a565b8060051b9150613cef848301613b39565b8181529183018401918481019088841115613d0957600080fd5b938501935b83851015613d2757845182529385019390850190613d0e565b98975050505050505050565b60006020808301818452808554613d4e818490815260200190565b60008881526020812094509092505b81600f82011015613e9f578354600181810b8552601082901c810b878601526040613d90818701848a1c840b60010b9052565b6060613da58188018560301c850b60010b9052565b6080613db981890186851c860b60010b9052565b60a09250613dd08389018660501c860b60010b9052565b60c0613de4818a0187851c870b60010b9052565b60e09250613dfb838a018760701c870b60010b9052565b85821c850b60010b6101008a0152613e1e6101208a018760901c870b60010b9052565b85841c850b60010b6101408a0152613e416101608a018760b01c870b60010b9052565b85811c850b60010b6101808a01525050613e666101a088018560d01c850b60010b9052565b83811c830b60010b6101c08801525050613e896101e086018360f01d60010b9052565b9490940193506102009290920191601001613d5d565b92549281811015613eb757600184810b845292850192015b81811015613ed157601084901c60010b8352918401916001015b81811015613ee95783851c60010b8352918401916001015b81811015613f0357603084901c60010b8352918401916001015b81811015613f1d57604084901c60010b8352918401916001015b81811015613f3757605084901c60010b8352918401916001015b81811015613f5157606084901c60010b8352918401916001015b81811015613f6b57607084901c60010b8352918401916001015b81811015613f8557608084901c60010b8352918401916001015b81811015613f9f57609084901c60010b8352918401916001015b81811015613fb95760a084901c60010b8352918401916001015b81811015613fd35760b084901c60010b8352918401916001015b81811015613fed5760c084901c60010b8352918401916001015b818110156140075760d084901c60010b8352918401916001015b818110156140215760e084901c60010b8352918401916001015b8181101561352b57614038838560f01d60010b9052565b505091909101949350505050565b73ffffffffffffffffffffffffffffffffffffffff831681526040602082015260006135e96040830184613338565b73ffffffffffffffffffffffffffffffffffffffff85168152600060206080818401526140a56080840187613338565b8381036040808601919091528651818352805191830182905283019060009060608401905b808310156140fa578351600481106140e4576140e4613269565b82529285019260019290920191908501906140ca565b508885015184820394860194909452835180825281860194860193509150600582901b8101850160005b83811015614170577fffffffffffffffffffffffffffffffffffffffffffffffffffffffffffffffe083830301865261415e828651613338565b95870195948701949150600101614124565b5073ffffffffffffffffffffffffffffffffffffffff89166060890152955061265a945050505050565b6000602082840312156141ac57600080fd5b5051919050565b60ff8281168282160390811115610b2d57610b2d613999565b60ff81811683821602908116908181146141e8576141e8613999565b5092915050565b7f4e487b7100000000000000000000000000000000000000000000000000000000600052601260045260246000fd5b600073ffffffffffffffffffffffffffffffffffffffff8084168061426c577f4e487b7100000000000000000000000000000000000000000000000000000000600052601260045260246000fd5b92169190910692915050565b81810381811115610b2d57610b2d613999565b604080825283519082018190526000906020906060840190828701845b828110156142da57815173ffffffffffffffffffffffffffffffffffffffff16845292840192908401906001016142a8565b505050838103828501526142ee8186613c3a565b9695505050505050565b60006060828403121561430a57600080fd5b6040516060810181811067ffffffffffffffff8211171561432d5761432d613b0a565b80604052508251815260208301516020820152604083015160408201528091505092915050565b61ffff8181168382160190808211156141e8576141e8613999565b61ffff8281168282160390808211156141e8576141e861399956fea26469706673582212205ce987e4aeb2db4c90a7785f8f3a2619724fff35d0b6399445f07fe01829fac664736f6c63430008130033",
  "devdoc": {
    "events": {
      "Approval(address,address,uint256)": {
        "details": "Emitted when the allowance of a `spender` for an `owner` is set by a call to {approve}. `value` is the new allowance."
      },
      "Transfer(address,address,uint256)": {
        "details": "Emitted when `value` tokens are moved from one account (`from`) to another (`to`). Note that `value` may be zero."
      }
    },
    "kind": "dev",
    "methods": {
      "addLiquidityBatchCallback(address,address,bytes)": {
        "details": "not implemented",
        "params": {
          "data": "Additional data associated with the liquidity addition.",
          "settlementToken": "The address of the settlement token used for adding liquidity.",
          "vault": "The address of the vault where the liquidity is added."
        }
      },
      "addLiquidityCallback(address,address,bytes)": {
        "details": "not implemented",
        "params": {
          "data": "Additional data associated with the liquidity addition.",
          "settlementToken": "The address of the settlement token used for adding liquidity.",
          "vault": "The address of the vault where the liquidity is added."
        }
      },
      "allowance(address,address)": {
        "details": "See {IERC20-allowance}."
      },
      "approve(address,uint256)": {
        "details": "See {IERC20-approve}. NOTE: If `amount` is the maximum `uint256`, the allowance is not updated on `transferFrom`. This is semantically equivalent to an infinite approval. Requirements: - `spender` cannot be the zero address."
      },
      "balanceOf(address)": {
        "details": "See {IERC20-balanceOf}."
      },
      "claimLiquidityBatchCallback(uint256[],int16[],uint256[],uint256[],bytes)": {
        "details": "not implemented",
        "params": {
          "data": "Additional data associated with the liquidity claim.",
          "depositedAmounts": "The array of deposited liquidity amounts for each receipt in the batch.",
          "feeRates": "The array of trading fee rates associated with each claim in the batch.",
          "mintedCLBTokenAmounts": "The array of CLB token amounts minted for each receipt in the batch.",
          "receiptIds": "The array of the liquidity receipt IDs."
        }
      },
      "claimLiquidityCallback(uint256,int16,uint256,uint256,bytes)": {
        "details": "not implemented",
        "params": {
          "data": "Additional data associated with the liquidity claim.",
          "depositedAmount": "The amount of liquidity deposited.",
          "feeRate": "The trading fee rate associated with the liquidity claim.",
          "mintedCLBTokenAmount": "The amount of CLB tokens minted as liquidity.",
          "receiptId": "The ID of the liquidity claim receipt."
        }
      },
      "decimals()": {
        "details": "Returns the number of decimals used to get its user representation. For example, if `decimals` equals `2`, a balance of `505` tokens should be displayed to a user as `5.05` (`505 / 10 ** 2`). Tokens usually opt for a value of 18, imitating the relationship between Ether and Wei. This is the default value returned by this function, unless it's overridden. NOTE: This information is only used for _display_ purposes: it in no way affects any of the arithmetic of the contract, including {IERC20-balanceOf} and {IERC20-transfer}."
      },
      "decreaseAllowance(address,uint256)": {
        "details": "Atomically decreases the allowance granted to `spender` by the caller. This is an alternative to {approve} that can be used as a mitigation for problems described in {IERC20-approve}. Emits an {Approval} event indicating the updated allowance. Requirements: - `spender` cannot be the zero address. - `spender` must have allowance for the caller of at least `subtractedValue`."
      },
      "increaseAllowance(address,uint256)": {
        "details": "Atomically increases the allowance granted to `spender` by the caller. This is an alternative to {approve} that can be used as a mitigation for problems described in {IERC20-approve}. Emits an {Approval} event indicating the updated allowance. Requirements: - `spender` cannot be the zero address."
      },
      "name()": {
        "details": "Returns the name of the token."
      },
      "onERC1155BatchReceived(address,address,uint256[],uint256[],bytes)": {
        "details": "Handles the receipt of a multiple ERC1155 token types. This function is called at the end of a `safeBatchTransferFrom` after the balances have been updated. NOTE: To accept the transfer(s), this must return `bytes4(keccak256(\"onERC1155BatchReceived(address,address,uint256[],uint256[],bytes)\"))` (i.e. 0xbc197c81, or its own function selector).",
        "params": {
          "data": "Additional data with no specified format",
          "from": "The address which previously owned the token",
          "ids": "An array containing ids of each token being transferred (order and length must match values array)",
          "operator": "The address which initiated the batch transfer (i.e. msg.sender)",
          "values": "An array containing amounts of each token being transferred (order and length must match ids array)"
        },
        "returns": {
          "_0": "`bytes4(keccak256(\"onERC1155BatchReceived(address,address,uint256[],uint256[],bytes)\"))` if transfer is allowed"
        }
      },
      "onERC1155Received(address,address,uint256,uint256,bytes)": {
        "details": "Handles the receipt of a single ERC1155 token type. This function is called at the end of a `safeTransferFrom` after the balance has been updated. NOTE: To accept the transfer, this must return `bytes4(keccak256(\"onERC1155Received(address,address,uint256,uint256,bytes)\"))` (i.e. 0xf23a6e61, or its own function selector).",
        "params": {
          "data": "Additional data with no specified format",
          "from": "The address which previously owned the token",
          "id": "The ID of the token being transferred",
          "operator": "The address which initiated the transfer (i.e. msg.sender)",
          "value": "The amount of tokens being transferred"
        },
        "returns": {
          "_0": "`bytes4(keccak256(\"onERC1155Received(address,address,uint256,uint256,bytes)\"))` if transfer is allowed"
        }
      },
      "rebalance()": {
        "details": "called by automation only"
      },
      "removeLiquidityBatchCallback(address,uint256[],bytes)": {
        "details": "not implemented",
        "params": {
          "clbToken": "The address of the Chromatic liquidity token.",
          "clbTokenIds": "The array of the Chromatic liquidity token IDs to be removed.",
          "data": "Additional data associated with the liquidity removal."
        }
      },
      "removeLiquidityCallback(address,uint256,bytes)": {
        "details": "not implemented",
        "params": {
          "clbToken": "The address of the Chromatic liquidity token.",
          "clbTokenId": "The ID of the Chromatic liquidity token to be removed.",
          "data": "Additional data associated with the liquidity removal."
        }
      },
      "settleTask(uint256)": {
        "details": "called by automation only"
      },
      "supportsInterface(bytes4)": {
        "details": "Returns true if this contract implements the interface defined by `interfaceId`. See the corresponding https://eips.ethereum.org/EIPS/eip-165#how-interfaces-are-identified[EIP section] to learn more about how these ids are created. This function call must use less than 30 000 gas."
      },
      "symbol()": {
        "details": "Returns the symbol of the token, usually a shorter version of the name."
      },
      "totalSupply()": {
        "details": "See {IERC20-totalSupply}."
      },
      "transfer(address,uint256)": {
        "details": "See {IERC20-transfer}. Requirements: - `to` cannot be the zero address. - the caller must have a balance of at least `amount`."
      },
      "transferFrom(address,address,uint256)": {
        "details": "See {IERC20-transferFrom}. Emits an {Approval} event indicating the updated allowance. This is not required by the EIP. See the note at the beginning of {ERC20}. NOTE: Does not update the allowance if the current allowance is the maximum `uint256`. Requirements: - `from` and `to` cannot be the zero address. - `from` must have a balance of at least `amount`. - the caller must have allowance for ``from``'s tokens of at least `amount`."
      },
      "withdrawLiquidityBatchCallback(uint256[],int16[],uint256[],uint256[],bytes)": {
        "details": "not implemented",
        "params": {
          "burnedCLBTokenAmounts": "The array of CLB token amounts burned for each receipt in the batch.",
          "data": "Additional data associated with the liquidity withdrawal.",
          "feeRates": "The array of trading fee rates associated with each withdrawal in the batch.",
          "receiptIds": "The array of the liquidity receipt IDs.",
          "withdrawnAmounts": "The array of withdrawn liquidity amounts for each receipt in the batch."
        }
      },
      "withdrawLiquidityCallback(uint256,int16,uint256,uint256,bytes)": {
        "details": "not implemented",
        "params": {
          "burnedCLBTokenAmount": "The amount of CLB tokens burned during the withdrawal.",
          "data": "Additional data associated with the liquidity withdrawal.",
          "feeRate": "The trading fee rate associated with the liquidity withdrawal.",
          "receiptId": "The ID of the liquidity withdrawal receipt.",
          "withdrawnAmount": "The amount of liquidity that has been withdrawn."
        }
      }
    },
    "version": 1
  },
  "userdoc": {
    "kind": "user",
    "methods": {
      "addLiquidityBatchCallback(address,address,bytes)": {
        "notice": "Handles the callback after adding liquidity to the Chromatic protocol."
      },
      "addLiquidityCallback(address,address,bytes)": {
        "notice": "Handles the callback after adding liquidity to the Chromatic protocol."
      },
      "claimLiquidityBatchCallback(uint256[],int16[],uint256[],uint256[],bytes)": {
        "notice": "Handles the callback after claiming liquidity from the Chromatic protocol."
      },
      "claimLiquidityCallback(uint256,int16,uint256,uint256,bytes)": {
        "notice": "Handles the callback after claiming liquidity from the Chromatic protocol."
      },
      "removeLiquidityBatchCallback(address,uint256[],bytes)": {
        "notice": "Handles the callback after removing liquidity from the Chromatic protocol."
      },
      "removeLiquidityCallback(address,uint256,bytes)": {
        "notice": "Handles the callback after removing liquidity from the Chromatic protocol."
      },
      "withdrawLiquidityBatchCallback(uint256[],int16[],uint256[],uint256[],bytes)": {
        "notice": "Handles the callback after withdrawing liquidity from the Chromatic protocol."
      },
      "withdrawLiquidityCallback(uint256,int16,uint256,uint256,bytes)": {
        "notice": "Handles the callback after withdrawing liquidity from the Chromatic protocol."
      }
    },
    "version": 1
  },
  "storageLayout": {
    "storage": [
      {
        "astId": 3967,
        "contract": "contracts/lp/ChromaticLP.sol:ChromaticLP",
        "label": "_balances",
        "offset": 0,
        "slot": "0",
        "type": "t_mapping(t_address,t_uint256)"
      },
      {
        "astId": 3973,
        "contract": "contracts/lp/ChromaticLP.sol:ChromaticLP",
        "label": "_allowances",
        "offset": 0,
        "slot": "1",
        "type": "t_mapping(t_address,t_mapping(t_address,t_uint256))"
      },
      {
        "astId": 3975,
        "contract": "contracts/lp/ChromaticLP.sol:ChromaticLP",
        "label": "_totalSupply",
        "offset": 0,
        "slot": "2",
        "type": "t_uint256"
      },
      {
        "astId": 3977,
        "contract": "contracts/lp/ChromaticLP.sol:ChromaticLP",
        "label": "_name",
        "offset": 0,
        "slot": "3",
        "type": "t_string_storage"
      },
      {
        "astId": 3979,
        "contract": "contracts/lp/ChromaticLP.sol:ChromaticLP",
        "label": "_symbol",
        "offset": 0,
        "slot": "4",
        "type": "t_string_storage"
      },
      {
        "astId": 11206,
        "contract": "contracts/lp/ChromaticLP.sol:ChromaticLP",
        "label": "s_meta",
        "offset": 0,
        "slot": "5",
        "type": "t_struct(LPMeta)11191_storage"
      },
      {
        "astId": 11209,
        "contract": "contracts/lp/ChromaticLP.sol:ChromaticLP",
        "label": "s_config",
        "offset": 0,
        "slot": "7",
        "type": "t_struct(LPConfig)11585_storage"
      },
      {
        "astId": 11212,
        "contract": "contracts/lp/ChromaticLP.sol:ChromaticLP",
        "label": "s_state",
        "offset": 0,
        "slot": "10",
        "type": "t_struct(LPState)11681_storage"
      },
      {
        "astId": 10995,
        "contract": "contracts/lp/ChromaticLP.sol:ChromaticLP",
        "label": "s_task",
        "offset": 0,
        "slot": "20",
        "type": "t_struct(Tasks)10980_storage"
      }
    ],
    "types": {
      "t_address": {
        "encoding": "inplace",
        "label": "address",
        "numberOfBytes": "20"
      },
      "t_array(t_bytes32)dyn_storage": {
        "base": "t_bytes32",
        "encoding": "dynamic_array",
        "label": "bytes32[]",
        "numberOfBytes": "32"
      },
      "t_array(t_int16)dyn_storage": {
        "base": "t_int16",
        "encoding": "dynamic_array",
        "label": "int16[]",
        "numberOfBytes": "32"
      },
      "t_array(t_uint256)dyn_storage": {
        "base": "t_uint256",
        "encoding": "dynamic_array",
        "label": "uint256[]",
        "numberOfBytes": "32"
      },
      "t_bytes32": {
        "encoding": "inplace",
        "label": "bytes32",
        "numberOfBytes": "32"
      },
      "t_contract(IChromaticMarket)330": {
        "encoding": "inplace",
        "label": "contract IChromaticMarket",
        "numberOfBytes": "20"
      },
      "t_enum(ChromaticLPAction)11553": {
        "encoding": "inplace",
        "label": "enum ChromaticLPAction",
        "numberOfBytes": "1"
      },
      "t_int16": {
        "encoding": "inplace",
        "label": "int16",
        "numberOfBytes": "2"
      },
      "t_mapping(t_address,t_mapping(t_address,t_uint256))": {
        "encoding": "mapping",
        "key": "t_address",
        "label": "mapping(address => mapping(address => uint256))",
        "numberOfBytes": "32",
        "value": "t_mapping(t_address,t_uint256)"
      },
      "t_mapping(t_address,t_struct(UintSet)8412_storage)": {
        "encoding": "mapping",
        "key": "t_address",
        "label": "mapping(address => struct EnumerableSet.UintSet)",
        "numberOfBytes": "32",
        "value": "t_struct(UintSet)8412_storage"
      },
      "t_mapping(t_address,t_uint256)": {
        "encoding": "mapping",
        "key": "t_address",
        "label": "mapping(address => uint256)",
        "numberOfBytes": "32",
        "value": "t_uint256"
      },
      "t_mapping(t_bytes32,t_uint256)": {
        "encoding": "mapping",
        "key": "t_bytes32",
        "label": "mapping(bytes32 => uint256)",
        "numberOfBytes": "32",
        "value": "t_uint256"
      },
      "t_mapping(t_int16,t_uint16)": {
        "encoding": "mapping",
        "key": "t_int16",
        "label": "mapping(int16 => uint16)",
        "numberOfBytes": "32",
        "value": "t_uint16"
      },
      "t_mapping(t_int16,t_uint256)": {
        "encoding": "mapping",
        "key": "t_int16",
        "label": "mapping(int16 => uint256)",
        "numberOfBytes": "32",
        "value": "t_uint256"
      },
      "t_mapping(t_uint256,t_bytes32)": {
        "encoding": "mapping",
        "key": "t_uint256",
        "label": "mapping(uint256 => bytes32)",
        "numberOfBytes": "32",
        "value": "t_bytes32"
      },
      "t_mapping(t_uint256,t_struct(ChromaticLPReceipt)11569_storage)": {
        "encoding": "mapping",
        "key": "t_uint256",
        "label": "mapping(uint256 => struct ChromaticLPReceipt)",
        "numberOfBytes": "32",
        "value": "t_struct(ChromaticLPReceipt)11569_storage"
      },
      "t_mapping(t_uint256,t_struct(UintSet)8412_storage)": {
        "encoding": "mapping",
        "key": "t_uint256",
        "label": "mapping(uint256 => struct EnumerableSet.UintSet)",
        "numberOfBytes": "32",
        "value": "t_struct(UintSet)8412_storage"
      },
      "t_string_storage": {
        "encoding": "bytes",
        "label": "string",
        "numberOfBytes": "32"
      },
      "t_struct(ChromaticLPReceipt)11569_storage": {
        "encoding": "inplace",
        "label": "struct ChromaticLPReceipt",
        "members": [
          {
            "astId": 11555,
            "contract": "contracts/lp/ChromaticLP.sol:ChromaticLP",
            "label": "id",
            "offset": 0,
            "slot": "0",
            "type": "t_uint256"
          },
          {
            "astId": 11557,
            "contract": "contracts/lp/ChromaticLP.sol:ChromaticLP",
            "label": "provider",
            "offset": 0,
            "slot": "1",
            "type": "t_address"
          },
          {
            "astId": 11559,
            "contract": "contracts/lp/ChromaticLP.sol:ChromaticLP",
            "label": "recipient",
            "offset": 0,
            "slot": "2",
            "type": "t_address"
          },
          {
            "astId": 11561,
            "contract": "contracts/lp/ChromaticLP.sol:ChromaticLP",
            "label": "oracleVersion",
            "offset": 0,
            "slot": "3",
            "type": "t_uint256"
          },
          {
            "astId": 11563,
            "contract": "contracts/lp/ChromaticLP.sol:ChromaticLP",
            "label": "amount",
            "offset": 0,
            "slot": "4",
            "type": "t_uint256"
          },
          {
            "astId": 11565,
            "contract": "contracts/lp/ChromaticLP.sol:ChromaticLP",
            "label": "pendingLiquidity",
            "offset": 0,
            "slot": "5",
            "type": "t_uint256"
          },
          {
            "astId": 11568,
            "contract": "contracts/lp/ChromaticLP.sol:ChromaticLP",
            "label": "action",
            "offset": 0,
            "slot": "6",
            "type": "t_enum(ChromaticLPAction)11553"
          }
        ],
        "numberOfBytes": "224"
      },
      "t_struct(LPConfig)11585_storage": {
        "encoding": "inplace",
        "label": "struct LPConfig",
        "members": [
          {
            "astId": 11578,
            "contract": "contracts/lp/ChromaticLP.sol:ChromaticLP",
            "label": "utilizationTargetBPS",
            "offset": 0,
            "slot": "0",
            "type": "t_uint16"
          },
          {
            "astId": 11580,
            "contract": "contracts/lp/ChromaticLP.sol:ChromaticLP",
            "label": "rebalanceBPS",
            "offset": 2,
            "slot": "0",
            "type": "t_uint16"
          },
          {
            "astId": 11582,
            "contract": "contracts/lp/ChromaticLP.sol:ChromaticLP",
            "label": "rebalanceCheckingInterval",
            "offset": 0,
            "slot": "1",
            "type": "t_uint256"
          },
          {
            "astId": 11584,
            "contract": "contracts/lp/ChromaticLP.sol:ChromaticLP",
            "label": "settleCheckingInterval",
            "offset": 0,
            "slot": "2",
            "type": "t_uint256"
          }
        ],
        "numberOfBytes": "96"
      },
      "t_struct(LPMeta)11191_storage": {
        "encoding": "inplace",
        "label": "struct ChromaticLPStorageCore.LPMeta",
        "members": [
          {
            "astId": 11188,
            "contract": "contracts/lp/ChromaticLP.sol:ChromaticLP",
            "label": "lpName",
            "offset": 0,
            "slot": "0",
            "type": "t_string_storage"
          },
          {
            "astId": 11190,
            "contract": "contracts/lp/ChromaticLP.sol:ChromaticLP",
            "label": "tag",
            "offset": 0,
            "slot": "1",
            "type": "t_string_storage"
          }
        ],
        "numberOfBytes": "64"
      },
      "t_struct(LPState)11681_storage": {
        "encoding": "inplace",
        "label": "struct LPState",
        "members": [
          {
            "astId": 11647,
            "contract": "contracts/lp/ChromaticLP.sol:ChromaticLP",
            "label": "market",
            "offset": 0,
            "slot": "0",
            "type": "t_contract(IChromaticMarket)330"
          },
          {
            "astId": 11650,
            "contract": "contracts/lp/ChromaticLP.sol:ChromaticLP",
            "label": "feeRates",
            "offset": 0,
            "slot": "1",
            "type": "t_array(t_int16)dyn_storage"
          },
          {
            "astId": 11654,
            "contract": "contracts/lp/ChromaticLP.sol:ChromaticLP",
            "label": "distributionRates",
            "offset": 0,
            "slot": "2",
            "type": "t_mapping(t_int16,t_uint16)"
          },
          {
            "astId": 11657,
            "contract": "contracts/lp/ChromaticLP.sol:ChromaticLP",
            "label": "clbTokenIds",
            "offset": 0,
            "slot": "3",
            "type": "t_array(t_uint256)dyn_storage"
          },
          {
            "astId": 11662,
            "contract": "contracts/lp/ChromaticLP.sol:ChromaticLP",
            "label": "receipts",
            "offset": 0,
            "slot": "4",
            "type": "t_mapping(t_uint256,t_struct(ChromaticLPReceipt)11569_storage)"
          },
          {
            "astId": 11667,
            "contract": "contracts/lp/ChromaticLP.sol:ChromaticLP",
            "label": "lpReceiptMap",
            "offset": 0,
            "slot": "5",
            "type": "t_mapping(t_uint256,t_struct(UintSet)8412_storage)"
          },
          {
            "astId": 11672,
            "contract": "contracts/lp/ChromaticLP.sol:ChromaticLP",
            "label": "providerReceiptIds",
            "offset": 0,
            "slot": "6",
            "type": "t_mapping(t_address,t_struct(UintSet)8412_storage)"
          },
          {
            "astId": 11674,
            "contract": "contracts/lp/ChromaticLP.sol:ChromaticLP",
            "label": "pendingAddAmount",
            "offset": 0,
            "slot": "7",
            "type": "t_uint256"
          },
          {
            "astId": 11678,
            "contract": "contracts/lp/ChromaticLP.sol:ChromaticLP",
            "label": "pendingRemoveClbAmounts",
            "offset": 0,
            "slot": "8",
            "type": "t_mapping(t_int16,t_uint256)"
          },
          {
            "astId": 11680,
            "contract": "contracts/lp/ChromaticLP.sol:ChromaticLP",
            "label": "receiptId",
            "offset": 0,
            "slot": "9",
            "type": "t_uint256"
          }
        ],
        "numberOfBytes": "320"
      },
      "t_struct(Set)7940_storage": {
        "encoding": "inplace",
        "label": "struct EnumerableSet.Set",
        "members": [
          {
            "astId": 7935,
            "contract": "contracts/lp/ChromaticLP.sol:ChromaticLP",
            "label": "_values",
            "offset": 0,
            "slot": "0",
            "type": "t_array(t_bytes32)dyn_storage"
          },
          {
            "astId": 7939,
            "contract": "contracts/lp/ChromaticLP.sol:ChromaticLP",
            "label": "_indexes",
            "offset": 0,
            "slot": "1",
            "type": "t_mapping(t_bytes32,t_uint256)"
          }
        ],
        "numberOfBytes": "64"
      },
      "t_struct(Tasks)10980_storage": {
        "encoding": "inplace",
        "label": "struct ChromaticLPStorage.Tasks",
        "members": [
          {
            "astId": 10975,
            "contract": "contracts/lp/ChromaticLP.sol:ChromaticLP",
            "label": "rebalanceTaskId",
            "offset": 0,
            "slot": "0",
            "type": "t_bytes32"
          },
          {
            "astId": 10979,
            "contract": "contracts/lp/ChromaticLP.sol:ChromaticLP",
            "label": "settleTasks",
            "offset": 0,
            "slot": "1",
            "type": "t_mapping(t_uint256,t_bytes32)"
          }
        ],
        "numberOfBytes": "64"
      },
      "t_struct(UintSet)8412_storage": {
        "encoding": "inplace",
        "label": "struct EnumerableSet.UintSet",
        "members": [
          {
            "astId": 8411,
            "contract": "contracts/lp/ChromaticLP.sol:ChromaticLP",
            "label": "_inner",
            "offset": 0,
            "slot": "0",
            "type": "t_struct(Set)7940_storage"
          }
        ],
        "numberOfBytes": "64"
      },
      "t_uint16": {
        "encoding": "inplace",
        "label": "uint16",
        "numberOfBytes": "2"
      },
      "t_uint256": {
        "encoding": "inplace",
        "label": "uint256",
        "numberOfBytes": "32"
      }
    }
  }
}