{
  "address": "0x0EFC89A1dD7C2d150175b1b5ffbA87356A5F8100",
  "abi": [
    {
      "inputs": [
        {
          "internalType": "contract IChromaticMarketFactory",
          "name": "_factory",
          "type": "address"
        }
      ],
      "stateMutability": "nonpayable",
      "type": "constructor"
    },
    {
      "inputs": [],
      "name": "AlreadyRegistered",
      "type": "error"
    },
    {
      "inputs": [],
      "name": "NotRegistered",
      "type": "error"
    },
    {
      "inputs": [],
      "name": "OnlyAccessableByOwner",
      "type": "error"
    },
    {
      "anonymous": false,
      "inputs": [
        {
          "indexed": true,
          "internalType": "address",
          "name": "market",
          "type": "address"
        },
        {
          "indexed": true,
          "internalType": "address",
          "name": "lp",
          "type": "address"
        }
      ],
      "name": "ChromaticLPRegistered",
      "type": "event"
    },
    {
      "anonymous": false,
      "inputs": [
        {
          "indexed": true,
          "internalType": "address",
          "name": "market",
          "type": "address"
        },
        {
          "indexed": true,
          "internalType": "address",
          "name": "lp",
          "type": "address"
        }
      ],
      "name": "ChromaticLPUnregistered",
      "type": "event"
    },
    {
      "anonymous": false,
      "inputs": [
        {
          "indexed": true,
          "internalType": "address",
          "name": "previousOwner",
          "type": "address"
        },
        {
          "indexed": true,
          "internalType": "address",
          "name": "newOwner",
          "type": "address"
        }
      ],
      "name": "OwnershipTransferred",
      "type": "event"
    },
    {
      "inputs": [],
      "name": "factory",
      "outputs": [
        {
          "internalType": "contract IChromaticMarketFactory",
          "name": "",
          "type": "address"
        }
      ],
      "stateMutability": "view",
      "type": "function"
    },
    {
      "inputs": [],
      "name": "lpList",
      "outputs": [
        {
          "internalType": "address[]",
          "name": "lpAddresses",
          "type": "address[]"
        }
      ],
      "stateMutability": "view",
      "type": "function"
    },
    {
      "inputs": [
        {
          "internalType": "address",
          "name": "market",
          "type": "address"
        }
      ],
      "name": "lpListByMarket",
      "outputs": [
        {
          "internalType": "address[]",
          "name": "",
          "type": "address[]"
        }
      ],
      "stateMutability": "view",
      "type": "function"
    },
    {
      "inputs": [
        {
          "internalType": "address",
          "name": "token",
          "type": "address"
        }
      ],
      "name": "lpListBySettlementToken",
      "outputs": [
        {
          "internalType": "address[]",
          "name": "",
          "type": "address[]"
        }
      ],
      "stateMutability": "view",
      "type": "function"
    },
    {
      "inputs": [],
      "name": "owner",
      "outputs": [
        {
          "internalType": "address",
          "name": "",
          "type": "address"
        }
      ],
      "stateMutability": "view",
      "type": "function"
    },
    {
      "inputs": [
        {
          "internalType": "contract IChromaticLP",
          "name": "lp",
          "type": "address"
        }
      ],
      "name": "register",
      "outputs": [],
      "stateMutability": "nonpayable",
      "type": "function"
    },
    {
      "inputs": [],
      "name": "renounceOwnership",
      "outputs": [],
      "stateMutability": "nonpayable",
      "type": "function"
    },
    {
      "inputs": [
        {
          "internalType": "address",
          "name": "newOwner",
          "type": "address"
        }
      ],
      "name": "transferOwnership",
      "outputs": [],
      "stateMutability": "nonpayable",
      "type": "function"
    },
    {
      "inputs": [
        {
          "internalType": "contract IChromaticLP",
          "name": "lp",
          "type": "address"
        }
      ],
      "name": "unregister",
      "outputs": [],
      "stateMutability": "nonpayable",
      "type": "function"
    }
  ],
  "transactionHash": "0xd9b1fc365d6aea9d70d2482665530184fcd950ee12e685ecef43db464579dad4",
  "args": [
    "0xa0755fFd98D451B4F8fc8dfF2dE4452C2d1284a2"
  ],
  "numDeployments": 1,
  "solcInputHash": "a157a9087c71aee63b36f877ba356c7c",
  "bytecode": "0x60a060405234801561001057600080fd5b50604051610c0f380380610c0f83398101604081905261002f91610099565b61003833610049565b6001600160a01b03166080526100c9565b600080546001600160a01b038381166001600160a01b0319831681178455604051919092169283917f8be0079c531659141344cd1fd0a4f28419497f9722a3daafe3b4186f6b6457e09190a35050565b6000602082840312156100ab57600080fd5b81516001600160a01b03811681146100c257600080fd5b9392505050565b608051610b2b6100e4600039600061014d0152610b2b6000f3fe608060405234801561001057600080fd5b50600436106100a35760003560e01c80638da5cb5b11610076578063c45a01551161005b578063c45a015514610148578063f2fde38b1461016f578063f67188701461018257600080fd5b80638da5cb5b14610101578063a82e2a9c1461014057600080fd5b80632ec2c246146100a85780634420e486146100bd578063715018a6146100d05780637fc73df1146100d8575b600080fd5b6100bb6100b63660046109c9565b610195565b005b6100bb6100cb3660046109c9565b61039c565b6100bb6105a3565b6100eb6100e63660046109c9565b6105b7565b6040516100f891906109e6565b60405180910390f35b60005473ffffffffffffffffffffffffffffffffffffffff165b60405173ffffffffffffffffffffffffffffffffffffffff90911681526020016100f8565b6100eb6105ee565b61011b7f000000000000000000000000000000000000000000000000000000000000000081565b6100bb61017d3660046109c9565b6105ff565b6100eb6101903660046109c9565b6106ba565b61019d6106eb565b60008173ffffffffffffffffffffffffffffffffffffffff166380f556056040518163ffffffff1660e01b8152600401602060405180830381865afa1580156101ea573d6000803e3d6000fd5b505050506040513d601f19601f8201168201806040525081019061020e9190610a40565b73ffffffffffffffffffffffffffffffffffffffff8116600090815260016020526040812091925090610241908461073c565b90508080156102ee57506102ee83600260008673ffffffffffffffffffffffffffffffffffffffff16637b9e618d6040518163ffffffff1660e01b8152600401602060405180830381865afa15801561029e573d6000803e3d6000fd5b505050506040513d601f19601f820116820180604052508101906102c29190610a40565b73ffffffffffffffffffffffffffffffffffffffff16815260208101919091526040016000209061073c565b9050808015610303575061030360038461073c565b9050801561036a578273ffffffffffffffffffffffffffffffffffffffff168273ffffffffffffffffffffffffffffffffffffffff167f66d239913eaca8ae904608125c5fbd16c6f7c093904e5f0a0b5f5c3540f80b0e60405160405180910390a3505050565b6040517faba4733900000000000000000000000000000000000000000000000000000000815260040160405180910390fd5b6103a46106eb565b60008173ffffffffffffffffffffffffffffffffffffffff166380f556056040518163ffffffff1660e01b8152600401602060405180830381865afa1580156103f1573d6000803e3d6000fd5b505050506040513d601f19601f820116820180604052508101906104159190610a40565b73ffffffffffffffffffffffffffffffffffffffff81166000908152600160205260408120919250906104489084610765565b90508080156104f557506104f583600260008673ffffffffffffffffffffffffffffffffffffffff16637b9e618d6040518163ffffffff1660e01b8152600401602060405180830381865afa1580156104a5573d6000803e3d6000fd5b505050506040513d601f19601f820116820180604052508101906104c99190610a40565b73ffffffffffffffffffffffffffffffffffffffff168152602081019190915260400160002090610765565b905080801561050a575061050a600384610765565b90508015610571578273ffffffffffffffffffffffffffffffffffffffff168273ffffffffffffffffffffffffffffffffffffffff167ffcfbf32d91a6881e9070cb68f1a2329fe4896a66b20638faa8da73a7e09af2ad60405160405180910390a3505050565b6040517f3a81d6fc00000000000000000000000000000000000000000000000000000000815260040160405180910390fd5b6105ab6106eb565b6105b56000610787565b565b73ffffffffffffffffffffffffffffffffffffffff811660009081526002602052604090206060906105e8906107fc565b92915050565b60606105fa60036107fc565b905090565b6106076106eb565b73ffffffffffffffffffffffffffffffffffffffff81166106ae576040517f08c379a000000000000000000000000000000000000000000000000000000000815260206004820152602660248201527f4f776e61626c653a206e6577206f776e657220697320746865207a65726f206160448201527f6464726573730000000000000000000000000000000000000000000000000000606482015260840160405180910390fd5b6106b781610787565b50565b73ffffffffffffffffffffffffffffffffffffffff811660009081526001602052604090206060906105e8906107fc565b60005473ffffffffffffffffffffffffffffffffffffffff1633146105b5576040517f9298645b00000000000000000000000000000000000000000000000000000000815260040160405180910390fd5b600061075e8373ffffffffffffffffffffffffffffffffffffffff8416610809565b9392505050565b600061075e8373ffffffffffffffffffffffffffffffffffffffff84166108fc565b6000805473ffffffffffffffffffffffffffffffffffffffff8381167fffffffffffffffffffffffff0000000000000000000000000000000000000000831681178455604051919092169283917f8be0079c531659141344cd1fd0a4f28419497f9722a3daafe3b4186f6b6457e09190a35050565b6060600061075e8361094b565b600081815260018301602052604081205480156108f257600061082d600183610a5d565b855490915060009061084190600190610a5d565b90508181146108a657600086600001828154811061086157610861610a97565b906000526020600020015490508087600001848154811061088457610884610a97565b6000918252602080832090910192909255918252600188019052604090208390555b85548690806108b7576108b7610ac6565b6001900381819060005260206000200160009055905585600101600086815260200190815260200160002060009055600193505050506105e8565b60009150506105e8565b6000818152600183016020526040812054610943575081546001818101845560008481526020808220909301849055845484825282860190935260409020919091556105e8565b5060006105e8565b60608160000180548060200260200160405190810160405280929190818152602001828054801561099b57602002820191906000526020600020905b815481526020019060010190808311610987575b50505050509050919050565b73ffffffffffffffffffffffffffffffffffffffff811681146106b757600080fd5b6000602082840312156109db57600080fd5b813561075e816109a7565b6020808252825182820181905260009190848201906040850190845b81811015610a3457835173ffffffffffffffffffffffffffffffffffffffff1683529284019291840191600101610a02565b50909695505050505050565b600060208284031215610a5257600080fd5b815161075e816109a7565b818103818111156105e8577f4e487b7100000000000000000000000000000000000000000000000000000000600052601160045260246000fd5b7f4e487b7100000000000000000000000000000000000000000000000000000000600052603260045260246000fd5b7f4e487b7100000000000000000000000000000000000000000000000000000000600052603160045260246000fdfea2646970667358221220aed10a61ceab3a60af383377ade644a00dcf34e8f34ca22513aa6ce48539ce1664736f6c63430008130033",
  "devdoc": {
    "events": {
      "ChromaticLPRegistered(address,address)": {
        "params": {
          "lp": "The address of the registered Chromatic LP.",
          "market": "The address of the associated market."
        }
      },
      "ChromaticLPUnregistered(address,address)": {
        "params": {
          "lp": "The address of the unregistered Chromatic LP.",
          "market": "The address of the associated market."
        }
      }
    },
    "kind": "dev",
    "methods": {
      "lpList()": {
        "returns": {
          "lpAddresses": "An array of Chromatic LP addresses."
        }
      },
      "lpListByMarket(address)": {
        "params": {
          "market": "The address of the market for which LPs are to be retrieved."
        },
        "returns": {
          "_0": "An array of Chromatic LP addresses associated with the specified market."
        }
      },
      "lpListBySettlementToken(address)": {
        "params": {
          "token": "The address of the settlement token for which LPs are to be retrieved."
        },
        "returns": {
          "_0": "An array of Chromatic LP addresses associated with the specified settlement token."
        }
      },
      "owner()": {
        "details": "Returns the address of the current owner."
      },
      "register(address)": {
        "params": {
          "lp": "The address of the Chromatic LP contract to be registered."
        }
      },
      "renounceOwnership()": {
        "details": "Leaves the contract without owner. It will not be possible to call `onlyOwner` functions. Can only be called by the current owner. NOTE: Renouncing ownership will leave the contract without an owner, thereby disabling any functionality that is only available to the owner."
      },
      "transferOwnership(address)": {
        "details": "Transfers ownership of the contract to a new account (`newOwner`). Can only be called by the current owner."
      },
      "unregister(address)": {
        "params": {
          "lp": "The address of the Chromatic LP contract to be unregistered."
        }
      }
    },
    "version": 1
  },
  "userdoc": {
    "errors": {
      "AlreadyRegistered()": [
        {
          "notice": "Error thrown when attempting to register an LP that is already registered."
        }
      ],
      "NotRegistered()": [
        {
          "notice": "Error thrown when attempting to unregister an LP that is not registered."
        }
      ],
      "OnlyAccessableByOwner()": [
        {
          "notice": "Error thrown when a function is called by an unauthorized user."
        }
      ]
    },
    "events": {
      "ChromaticLPRegistered(address,address)": {
        "notice": "Emitted when a Chromatic LP is successfully registered."
      },
      "ChromaticLPUnregistered(address,address)": {
        "notice": "Emitted when a Chromatic LP is successfully unregistered."
      }
    },
    "kind": "user",
    "methods": {
      "lpList()": {
        "notice": "Retrieves the list of all registered Chromatic LP addresses."
      },
      "lpListByMarket(address)": {
        "notice": "Retrieves the list of Chromatic LP addresses associated with a specific market."
      },
      "lpListBySettlementToken(address)": {
        "notice": "Retrieves the list of Chromatic LP addresses associated with a specific settlement token."
      },
      "register(address)": {
        "notice": "Registers a new Chromatic LP."
      },
      "unregister(address)": {
        "notice": "Unregisters an existing Chromatic LP."
      }
    },
    "version": 1
  },
  "storageLayout": {
    "storage": [
      {
        "astId": 6077,
        "contract": "contracts/lp/ChromaticLPRegistry.sol:ChromaticLPRegistry",
        "label": "_owner",
        "offset": 0,
        "slot": "0",
        "type": "t_address"
      },
      {
        "astId": 11903,
        "contract": "contracts/lp/ChromaticLPRegistry.sol:ChromaticLPRegistry",
        "label": "_lpsByMarket",
        "offset": 0,
        "slot": "1",
        "type": "t_mapping(t_address,t_struct(AddressSet)10796_storage)"
      },
      {
        "astId": 11908,
        "contract": "contracts/lp/ChromaticLPRegistry.sol:ChromaticLPRegistry",
        "label": "_lpsBySettlementToken",
        "offset": 0,
        "slot": "2",
        "type": "t_mapping(t_address,t_struct(AddressSet)10796_storage)"
      },
      {
        "astId": 11911,
        "contract": "contracts/lp/ChromaticLPRegistry.sol:ChromaticLPRegistry",
        "label": "_lpsAll",
        "offset": 0,
        "slot": "3",
        "type": "t_struct(AddressSet)10796_storage"
      }
    ],
    "types": {
      "t_address": {
        "encoding": "inplace",
        "label": "address",
        "numberOfBytes": "20"
      },
      "t_array(t_bytes32)dyn_storage": {
        "base": "t_bytes32",
        "encoding": "dynamic_array",
        "label": "bytes32[]",
        "numberOfBytes": "32"
      },
      "t_bytes32": {
        "encoding": "inplace",
        "label": "bytes32",
        "numberOfBytes": "32"
      },
      "t_mapping(t_address,t_struct(AddressSet)10796_storage)": {
        "encoding": "mapping",
        "key": "t_address",
        "label": "mapping(address => struct EnumerableSet.AddressSet)",
        "numberOfBytes": "32",
        "value": "t_struct(AddressSet)10796_storage"
      },
      "t_mapping(t_bytes32,t_uint256)": {
        "encoding": "mapping",
        "key": "t_bytes32",
        "label": "mapping(bytes32 => uint256)",
        "numberOfBytes": "32",
        "value": "t_uint256"
      },
      "t_struct(AddressSet)10796_storage": {
        "encoding": "inplace",
        "label": "struct EnumerableSet.AddressSet",
        "members": [
          {
            "astId": 10795,
            "contract": "contracts/lp/ChromaticLPRegistry.sol:ChromaticLPRegistry",
            "label": "_inner",
            "offset": 0,
            "slot": "0",
            "type": "t_struct(Set)10481_storage"
          }
        ],
        "numberOfBytes": "64"
      },
      "t_struct(Set)10481_storage": {
        "encoding": "inplace",
        "label": "struct EnumerableSet.Set",
        "members": [
          {
            "astId": 10476,
            "contract": "contracts/lp/ChromaticLPRegistry.sol:ChromaticLPRegistry",
            "label": "_values",
            "offset": 0,
            "slot": "0",
            "type": "t_array(t_bytes32)dyn_storage"
          },
          {
            "astId": 10480,
            "contract": "contracts/lp/ChromaticLPRegistry.sol:ChromaticLPRegistry",
            "label": "_indexes",
            "offset": 0,
            "slot": "1",
            "type": "t_mapping(t_bytes32,t_uint256)"
          }
        ],
        "numberOfBytes": "64"
      },
      "t_uint256": {
        "encoding": "inplace",
        "label": "uint256",
        "numberOfBytes": "32"
      }
    }
  }
}