{
  "address": "0xc4d1e0459E1e408F1bc6D1aCa86528321AC07695",
  "abi": [
    {
      "inputs": [
        {
          "internalType": "contract ChromaticLPLogicGelato",
          "name": "lpLogic",
          "type": "address"
        },
        {
          "components": [
            {
              "internalType": "string",
              "name": "lpName",
              "type": "string"
            },
            {
              "internalType": "string",
              "name": "tag",
              "type": "string"
            }
          ],
          "internalType": "struct ChromaticLPStorage.LPMeta",
          "name": "lpMeta",
          "type": "tuple"
        },
        {
          "components": [
            {
              "internalType": "contract IChromaticMarket",
              "name": "market",
              "type": "address"
            },
            {
              "internalType": "uint16",
              "name": "utilizationTargetBPS",
              "type": "uint16"
            },
            {
              "internalType": "uint16",
              "name": "rebalanceBPS",
              "type": "uint16"
            },
            {
              "internalType": "uint256",
              "name": "rebalanceCheckingInterval",
              "type": "uint256"
            },
            {
              "internalType": "uint256",
              "name": "settleCheckingInterval",
              "type": "uint256"
            }
          ],
          "internalType": "struct ChromaticLPStorage.Config",
          "name": "config",
          "type": "tuple"
        },
        {
          "internalType": "int16[]",
          "name": "_feeRates",
          "type": "int16[]"
        },
        {
          "internalType": "uint16[]",
          "name": "distributionRates",
          "type": "uint16[]"
        },
        {
          "components": [
            {
              "internalType": "address",
              "name": "automate",
              "type": "address"
            },
            {
              "internalType": "address",
              "name": "opsProxyFactory",
              "type": "address"
            }
          ],
          "internalType": "struct ChromaticLPStorageGelato.AutomateParam",
          "name": "automateParam",
          "type": "tuple"
        }
      ],
      "stateMutability": "nonpayable",
      "type": "constructor"
    },
    {
      "inputs": [],
      "name": "AlreadyRebalanceTaskExist",
      "type": "error"
    },
    {
      "inputs": [],
      "name": "AlreadySwapRouterConfigured",
      "type": "error"
    },
    {
      "inputs": [],
      "name": "InvalidDistributionSum",
      "type": "error"
    },
    {
      "inputs": [],
      "name": "InvalidRebalanceBPS",
      "type": "error"
    },
    {
      "inputs": [
        {
          "internalType": "uint16",
          "name": "targetBPS",
          "type": "uint16"
        }
      ],
      "name": "InvalidUtilizationTarget",
      "type": "error"
    },
    {
      "inputs": [],
      "name": "NotAutomationCalled",
      "type": "error"
    },
    {
      "inputs": [],
      "name": "NotImplementedInLogicContract",
      "type": "error"
    },
    {
      "inputs": [],
      "name": "NotKeeperCalled",
      "type": "error"
    },
    {
      "inputs": [],
      "name": "NotMarket",
      "type": "error"
    },
    {
      "inputs": [
        {
          "internalType": "uint256",
          "name": "feeLength",
          "type": "uint256"
        },
        {
          "internalType": "uint256",
          "name": "distributionLength",
          "type": "uint256"
        }
      ],
      "name": "NotMatchDistributionLength",
      "type": "error"
    },
    {
      "inputs": [],
      "name": "NotOwner",
      "type": "error"
    },
    {
      "inputs": [],
      "name": "OnlyAccessableByOwner",
      "type": "error"
    },
    {
      "inputs": [],
      "name": "OnlyBatchCall",
      "type": "error"
    },
    {
      "inputs": [],
      "name": "UnknownLPAction",
      "type": "error"
    },
    {
      "anonymous": false,
      "inputs": [
        {
          "indexed": true,
          "internalType": "uint256",
          "name": "receiptId",
          "type": "uint256"
        },
        {
          "indexed": true,
          "internalType": "address",
          "name": "recipient",
          "type": "address"
        },
        {
          "indexed": false,
          "internalType": "uint256",
          "name": "oracleVersion",
          "type": "uint256"
        },
        {
          "indexed": false,
          "internalType": "uint256",
          "name": "amount",
          "type": "uint256"
        }
      ],
      "name": "AddLiquidity",
      "type": "event"
    },
    {
      "anonymous": false,
      "inputs": [
        {
          "indexed": true,
          "internalType": "uint256",
          "name": "receiptId",
          "type": "uint256"
        },
        {
          "indexed": false,
          "internalType": "uint256",
          "name": "settlementAdded",
          "type": "uint256"
        },
        {
          "indexed": false,
          "internalType": "uint256",
          "name": "lpTokenAmount",
          "type": "uint256"
        }
      ],
      "name": "AddLiquiditySettled",
      "type": "event"
    },
    {
      "anonymous": false,
      "inputs": [
        {
          "indexed": true,
          "internalType": "address",
          "name": "owner",
          "type": "address"
        },
        {
          "indexed": true,
          "internalType": "address",
          "name": "spender",
          "type": "address"
        },
        {
          "indexed": false,
          "internalType": "uint256",
          "name": "value",
          "type": "uint256"
        }
      ],
      "name": "Approval",
      "type": "event"
    },
    {
      "anonymous": false,
      "inputs": [
        {
          "indexed": true,
          "internalType": "uint256",
          "name": "receiptId",
          "type": "uint256"
        }
      ],
      "name": "RebalanceLiquidity",
      "type": "event"
    },
    {
      "anonymous": false,
      "inputs": [
        {
          "indexed": true,
          "internalType": "uint256",
          "name": "receiptId",
          "type": "uint256"
        }
      ],
      "name": "RebalanceSettled",
      "type": "event"
    },
    {
      "anonymous": false,
      "inputs": [
        {
          "indexed": true,
          "internalType": "uint256",
          "name": "receiptId",
          "type": "uint256"
        },
        {
          "indexed": true,
          "internalType": "address",
          "name": "recipient",
          "type": "address"
        },
        {
          "indexed": false,
          "internalType": "uint256",
          "name": "oracleVersion",
          "type": "uint256"
        },
        {
          "indexed": false,
          "internalType": "uint256",
          "name": "lpTokenAmount",
          "type": "uint256"
        }
      ],
      "name": "RemoveLiquidity",
      "type": "event"
    },
    {
      "anonymous": false,
      "inputs": [
        {
          "indexed": true,
          "internalType": "uint256",
          "name": "receiptId",
          "type": "uint256"
        },
        {
          "indexed": false,
          "internalType": "uint256",
          "name": "burningAmount",
          "type": "uint256"
        },
        {
          "indexed": false,
          "internalType": "uint256",
          "name": "witdrawnSettlementAmount",
          "type": "uint256"
        },
        {
          "indexed": false,
          "internalType": "uint256",
          "name": "refundedAmount",
          "type": "uint256"
        }
      ],
      "name": "RemoveLiquiditySettled",
      "type": "event"
    },
    {
      "anonymous": false,
      "inputs": [
        {
          "indexed": true,
          "internalType": "address",
          "name": "from",
          "type": "address"
        },
        {
          "indexed": true,
          "internalType": "address",
          "name": "to",
          "type": "address"
        },
        {
          "indexed": false,
          "internalType": "uint256",
          "name": "value",
          "type": "uint256"
        }
      ],
      "name": "Transfer",
      "type": "event"
    },
    {
      "stateMutability": "payable",
      "type": "fallback"
    },
    {
      "inputs": [],
      "name": "CHROMATIC_LP_LOGIC",
      "outputs": [
        {
          "internalType": "address",
          "name": "",
          "type": "address"
        }
      ],
      "stateMutability": "view",
      "type": "function"
    },
    {
      "inputs": [
        {
          "internalType": "uint256",
          "name": "",
          "type": "uint256"
        },
        {
          "internalType": "address",
          "name": "",
          "type": "address"
        }
      ],
      "name": "addLiquidity",
      "outputs": [
        {
          "components": [
            {
              "internalType": "uint256",
              "name": "id",
              "type": "uint256"
            },
            {
              "internalType": "uint256",
              "name": "oracleVersion",
              "type": "uint256"
            },
            {
              "internalType": "uint256",
              "name": "amount",
              "type": "uint256"
            },
            {
              "internalType": "uint256",
              "name": "pendingLiquidity",
              "type": "uint256"
            },
            {
              "internalType": "address",
              "name": "recipient",
              "type": "address"
            },
            {
              "internalType": "enum ChromaticLPAction",
              "name": "action",
              "type": "uint8"
            }
          ],
          "internalType": "struct ChromaticLPReceipt",
          "name": "",
          "type": "tuple"
        }
      ],
      "stateMutability": "nonpayable",
      "type": "function"
    },
    {
      "inputs": [
        {
          "internalType": "address",
          "name": "",
          "type": "address"
        },
        {
          "internalType": "address",
          "name": "",
          "type": "address"
        },
        {
          "internalType": "bytes",
          "name": "",
          "type": "bytes"
        }
      ],
      "name": "addLiquidityBatchCallback",
      "outputs": [],
      "stateMutability": "nonpayable",
      "type": "function"
    },
    {
      "inputs": [
        {
          "internalType": "address",
          "name": "",
          "type": "address"
        },
        {
          "internalType": "address",
          "name": "",
          "type": "address"
        },
        {
          "internalType": "bytes",
          "name": "",
          "type": "bytes"
        }
      ],
      "name": "addLiquidityCallback",
      "outputs": [],
      "stateMutability": "pure",
      "type": "function"
    },
    {
      "inputs": [
        {
          "internalType": "address",
          "name": "owner",
          "type": "address"
        },
        {
          "internalType": "address",
          "name": "spender",
          "type": "address"
        }
      ],
      "name": "allowance",
      "outputs": [
        {
          "internalType": "uint256",
          "name": "",
          "type": "uint256"
        }
      ],
      "stateMutability": "view",
      "type": "function"
    },
    {
      "inputs": [
        {
          "internalType": "address",
          "name": "spender",
          "type": "address"
        },
        {
          "internalType": "uint256",
          "name": "amount",
          "type": "uint256"
        }
      ],
      "name": "approve",
      "outputs": [
        {
          "internalType": "bool",
          "name": "",
          "type": "bool"
        }
      ],
      "stateMutability": "nonpayable",
      "type": "function"
    },
    {
      "inputs": [],
      "name": "automate",
      "outputs": [
        {
          "internalType": "contract IAutomate",
          "name": "",
          "type": "address"
        }
      ],
      "stateMutability": "view",
      "type": "function"
    },
    {
      "inputs": [
        {
          "internalType": "address",
          "name": "account",
          "type": "address"
        }
      ],
      "name": "balanceOf",
      "outputs": [
        {
          "internalType": "uint256",
          "name": "",
          "type": "uint256"
        }
      ],
      "stateMutability": "view",
      "type": "function"
    },
    {
      "inputs": [],
      "name": "cancelRebalanceTask",
      "outputs": [],
      "stateMutability": "nonpayable",
      "type": "function"
    },
    {
      "inputs": [
        {
          "internalType": "uint256[]",
          "name": "",
          "type": "uint256[]"
        },
        {
          "internalType": "int16[]",
          "name": "",
          "type": "int16[]"
        },
        {
          "internalType": "uint256[]",
          "name": "",
          "type": "uint256[]"
        },
        {
          "internalType": "uint256[]",
          "name": "",
          "type": "uint256[]"
        },
        {
          "internalType": "bytes",
          "name": "",
          "type": "bytes"
        }
      ],
      "name": "claimLiquidityBatchCallback",
      "outputs": [],
      "stateMutability": "nonpayable",
      "type": "function"
    },
    {
      "inputs": [
        {
          "internalType": "uint256",
          "name": "",
          "type": "uint256"
        },
        {
          "internalType": "int16",
          "name": "",
          "type": "int16"
        },
        {
          "internalType": "uint256",
          "name": "",
          "type": "uint256"
        },
        {
          "internalType": "uint256",
          "name": "",
          "type": "uint256"
        },
        {
          "internalType": "bytes",
          "name": "",
          "type": "bytes"
        }
      ],
      "name": "claimLiquidityCallback",
      "outputs": [],
      "stateMutability": "pure",
      "type": "function"
    },
    {
      "inputs": [],
      "name": "clbTokenBalances",
      "outputs": [
        {
          "internalType": "uint256[]",
          "name": "_clbTokenBalances",
          "type": "uint256[]"
        }
      ],
      "stateMutability": "view",
      "type": "function"
    },
    {
      "inputs": [],
      "name": "clbTokenIds",
      "outputs": [
        {
          "internalType": "uint256[]",
          "name": "",
          "type": "uint256[]"
        }
      ],
      "stateMutability": "view",
      "type": "function"
    },
    {
      "inputs": [],
      "name": "createRebalanceTask",
      "outputs": [],
      "stateMutability": "nonpayable",
      "type": "function"
    },
    {
      "inputs": [],
      "name": "decimals",
      "outputs": [
        {
          "internalType": "uint8",
          "name": "",
          "type": "uint8"
        }
      ],
      "stateMutability": "view",
      "type": "function"
    },
    {
      "inputs": [
        {
          "internalType": "address",
          "name": "spender",
          "type": "address"
        },
        {
          "internalType": "uint256",
          "name": "subtractedValue",
          "type": "uint256"
        }
      ],
      "name": "decreaseAllowance",
      "outputs": [
        {
          "internalType": "bool",
          "name": "",
          "type": "bool"
        }
      ],
      "stateMutability": "nonpayable",
      "type": "function"
    },
    {
      "inputs": [],
      "name": "dedicatedMsgSender",
      "outputs": [
        {
          "internalType": "address",
          "name": "",
          "type": "address"
        }
      ],
      "stateMutability": "view",
      "type": "function"
    },
    {
      "inputs": [],
      "name": "feeRates",
      "outputs": [
        {
          "internalType": "int16[]",
          "name": "",
          "type": "int16[]"
        }
      ],
      "stateMutability": "view",
      "type": "function"
    },
    {
      "inputs": [
        {
          "internalType": "uint256",
          "name": "receiptId",
          "type": "uint256"
        }
      ],
      "name": "getReceipt",
      "outputs": [
        {
          "components": [
            {
              "internalType": "uint256",
              "name": "id",
              "type": "uint256"
            },
            {
              "internalType": "uint256",
              "name": "oracleVersion",
              "type": "uint256"
            },
            {
              "internalType": "uint256",
              "name": "amount",
              "type": "uint256"
            },
            {
              "internalType": "uint256",
              "name": "pendingLiquidity",
              "type": "uint256"
            },
            {
              "internalType": "address",
              "name": "recipient",
              "type": "address"
            },
            {
              "internalType": "enum ChromaticLPAction",
              "name": "action",
              "type": "uint8"
            }
          ],
          "internalType": "struct ChromaticLPReceipt",
          "name": "",
          "type": "tuple"
        }
      ],
      "stateMutability": "view",
      "type": "function"
    },
    {
      "inputs": [
        {
          "internalType": "address",
          "name": "owner",
          "type": "address"
        }
      ],
      "name": "getReceiptIdsOf",
      "outputs": [
        {
          "internalType": "uint256[]",
          "name": "receiptIds",
          "type": "uint256[]"
        }
      ],
      "stateMutability": "view",
      "type": "function"
    },
    {
      "inputs": [],
      "name": "holdingClbValue",
      "outputs": [
        {
          "internalType": "uint256",
          "name": "value",
          "type": "uint256"
        }
      ],
      "stateMutability": "view",
      "type": "function"
    },
    {
      "inputs": [],
      "name": "holdingValue",
      "outputs": [
        {
          "internalType": "uint256",
          "name": "",
          "type": "uint256"
        }
      ],
      "stateMutability": "view",
      "type": "function"
    },
    {
      "inputs": [
        {
          "internalType": "address",
          "name": "spender",
          "type": "address"
        },
        {
          "internalType": "uint256",
          "name": "addedValue",
          "type": "uint256"
        }
      ],
      "name": "increaseAllowance",
      "outputs": [
        {
          "internalType": "bool",
          "name": "",
          "type": "bool"
        }
      ],
      "stateMutability": "nonpayable",
      "type": "function"
    },
    {
      "inputs": [],
      "name": "lpName",
      "outputs": [
        {
          "internalType": "string",
          "name": "",
          "type": "string"
        }
      ],
      "stateMutability": "view",
      "type": "function"
    },
    {
      "inputs": [],
      "name": "lpToken",
      "outputs": [
        {
          "internalType": "address",
          "name": "",
          "type": "address"
        }
      ],
      "stateMutability": "view",
      "type": "function"
    },
    {
      "inputs": [],
      "name": "market",
      "outputs": [
        {
          "internalType": "address",
          "name": "",
          "type": "address"
        }
      ],
      "stateMutability": "view",
      "type": "function"
    },
    {
      "inputs": [],
      "name": "name",
      "outputs": [
        {
          "internalType": "string",
          "name": "",
          "type": "string"
        }
      ],
      "stateMutability": "view",
      "type": "function"
    },
    {
      "inputs": [
        {
          "internalType": "address",
          "name": "",
          "type": "address"
        },
        {
          "internalType": "address",
          "name": "",
          "type": "address"
        },
        {
          "internalType": "uint256[]",
          "name": "",
          "type": "uint256[]"
        },
        {
          "internalType": "uint256[]",
          "name": "",
          "type": "uint256[]"
        },
        {
          "internalType": "bytes",
          "name": "",
          "type": "bytes"
        }
      ],
      "name": "onERC1155BatchReceived",
      "outputs": [
        {
          "internalType": "bytes4",
          "name": "",
          "type": "bytes4"
        }
      ],
      "stateMutability": "pure",
      "type": "function"
    },
    {
      "inputs": [
        {
          "internalType": "address",
          "name": "",
          "type": "address"
        },
        {
          "internalType": "address",
          "name": "",
          "type": "address"
        },
        {
          "internalType": "uint256",
          "name": "",
          "type": "uint256"
        },
        {
          "internalType": "uint256",
          "name": "",
          "type": "uint256"
        },
        {
          "internalType": "bytes",
          "name": "",
          "type": "bytes"
        }
      ],
      "name": "onERC1155Received",
      "outputs": [
        {
          "internalType": "bytes4",
          "name": "",
          "type": "bytes4"
        }
      ],
      "stateMutability": "pure",
      "type": "function"
    },
    {
      "inputs": [],
      "name": "pendingClbValue",
      "outputs": [
        {
          "internalType": "uint256",
          "name": "value",
          "type": "uint256"
        }
      ],
      "stateMutability": "view",
      "type": "function"
    },
    {
      "inputs": [],
      "name": "pendingValue",
      "outputs": [
        {
          "internalType": "uint256",
          "name": "",
          "type": "uint256"
        }
      ],
      "stateMutability": "view",
      "type": "function"
    },
    {
      "inputs": [],
      "name": "rebalance",
      "outputs": [],
      "stateMutability": "nonpayable",
      "type": "function"
    },
    {
      "inputs": [
        {
          "internalType": "uint256",
          "name": "",
          "type": "uint256"
        },
        {
          "internalType": "address",
          "name": "",
          "type": "address"
        }
      ],
      "name": "removeLiquidity",
      "outputs": [
        {
          "components": [
            {
              "internalType": "uint256",
              "name": "id",
              "type": "uint256"
            },
            {
              "internalType": "uint256",
              "name": "oracleVersion",
              "type": "uint256"
            },
            {
              "internalType": "uint256",
              "name": "amount",
              "type": "uint256"
            },
            {
              "internalType": "uint256",
              "name": "pendingLiquidity",
              "type": "uint256"
            },
            {
              "internalType": "address",
              "name": "recipient",
              "type": "address"
            },
            {
              "internalType": "enum ChromaticLPAction",
              "name": "action",
              "type": "uint8"
            }
          ],
          "internalType": "struct ChromaticLPReceipt",
          "name": "",
          "type": "tuple"
        }
      ],
      "stateMutability": "nonpayable",
      "type": "function"
    },
    {
      "inputs": [
        {
          "internalType": "address",
          "name": "",
          "type": "address"
        },
        {
          "internalType": "uint256[]",
          "name": "",
          "type": "uint256[]"
        },
        {
          "internalType": "bytes",
          "name": "",
          "type": "bytes"
        }
      ],
      "name": "removeLiquidityBatchCallback",
      "outputs": [],
      "stateMutability": "nonpayable",
      "type": "function"
    },
    {
      "inputs": [
        {
          "internalType": "address",
          "name": "",
          "type": "address"
        },
        {
          "internalType": "uint256",
          "name": "",
          "type": "uint256"
        },
        {
          "internalType": "bytes",
          "name": "",
          "type": "bytes"
        }
      ],
      "name": "removeLiquidityCallback",
      "outputs": [],
      "stateMutability": "pure",
      "type": "function"
    },
    {
      "inputs": [],
      "name": "resolveRebalance",
      "outputs": [
        {
          "internalType": "bool",
          "name": "",
          "type": "bool"
        },
        {
          "internalType": "bytes",
          "name": "",
          "type": "bytes"
        }
      ],
      "stateMutability": "view",
      "type": "function"
    },
    {
      "inputs": [
        {
          "internalType": "uint256",
          "name": "receiptId",
          "type": "uint256"
        }
      ],
      "name": "resolveSettle",
      "outputs": [
        {
          "internalType": "bool",
          "name": "",
          "type": "bool"
        },
        {
          "internalType": "bytes",
          "name": "",
          "type": "bytes"
        }
      ],
      "stateMutability": "view",
      "type": "function"
    },
    {
      "inputs": [
        {
          "internalType": "uint256",
          "name": "",
          "type": "uint256"
        }
      ],
      "name": "settle",
      "outputs": [
        {
          "internalType": "bool",
          "name": "",
          "type": "bool"
        }
      ],
      "stateMutability": "nonpayable",
      "type": "function"
    },
    {
      "inputs": [
        {
          "internalType": "uint256",
          "name": "",
          "type": "uint256"
        }
      ],
      "name": "settleTask",
      "outputs": [],
      "stateMutability": "nonpayable",
      "type": "function"
    },
    {
      "inputs": [],
      "name": "settlementToken",
      "outputs": [
        {
          "internalType": "address",
          "name": "",
          "type": "address"
        }
      ],
      "stateMutability": "view",
      "type": "function"
    },
    {
      "inputs": [
        {
          "internalType": "bytes4",
          "name": "interfaceID",
          "type": "bytes4"
        }
      ],
      "name": "supportsInterface",
      "outputs": [
        {
          "internalType": "bool",
          "name": "",
          "type": "bool"
        }
      ],
      "stateMutability": "pure",
      "type": "function"
    },
    {
      "inputs": [],
      "name": "symbol",
      "outputs": [
        {
          "internalType": "string",
          "name": "",
          "type": "string"
        }
      ],
      "stateMutability": "view",
      "type": "function"
    },
    {
      "inputs": [],
      "name": "totalClbValue",
      "outputs": [
        {
          "internalType": "uint256",
          "name": "value",
          "type": "uint256"
        }
      ],
      "stateMutability": "view",
      "type": "function"
    },
    {
      "inputs": [],
      "name": "totalSupply",
      "outputs": [
        {
          "internalType": "uint256",
          "name": "",
          "type": "uint256"
        }
      ],
      "stateMutability": "view",
      "type": "function"
    },
    {
      "inputs": [],
      "name": "totalValue",
      "outputs": [
        {
          "internalType": "uint256",
          "name": "value",
          "type": "uint256"
        }
      ],
      "stateMutability": "view",
      "type": "function"
    },
    {
      "inputs": [
        {
          "internalType": "address",
          "name": "to",
          "type": "address"
        },
        {
          "internalType": "uint256",
          "name": "amount",
          "type": "uint256"
        }
      ],
      "name": "transfer",
      "outputs": [
        {
          "internalType": "bool",
          "name": "",
          "type": "bool"
        }
      ],
      "stateMutability": "nonpayable",
      "type": "function"
    },
    {
      "inputs": [
        {
          "internalType": "address",
          "name": "from",
          "type": "address"
        },
        {
          "internalType": "address",
          "name": "to",
          "type": "address"
        },
        {
          "internalType": "uint256",
          "name": "amount",
          "type": "uint256"
        }
      ],
      "name": "transferFrom",
      "outputs": [
        {
          "internalType": "bool",
          "name": "",
          "type": "bool"
        }
      ],
      "stateMutability": "nonpayable",
      "type": "function"
    },
    {
      "inputs": [],
      "name": "utilization",
      "outputs": [
        {
          "internalType": "uint16",
          "name": "currentUtility",
          "type": "uint16"
        }
      ],
      "stateMutability": "view",
      "type": "function"
    },
    {
      "inputs": [],
      "name": "valueInfo",
      "outputs": [
        {
          "components": [
            {
              "internalType": "uint256",
              "name": "total",
              "type": "uint256"
            },
            {
              "internalType": "uint256",
              "name": "holding",
              "type": "uint256"
            },
            {
              "internalType": "uint256",
              "name": "pending",
              "type": "uint256"
            },
            {
              "internalType": "uint256",
              "name": "holdingClb",
              "type": "uint256"
            },
            {
              "internalType": "uint256",
              "name": "pendingClb",
              "type": "uint256"
            }
          ],
          "internalType": "struct ValueInfo",
          "name": "info",
          "type": "tuple"
        }
      ],
      "stateMutability": "view",
      "type": "function"
    },
    {
      "inputs": [
        {
          "internalType": "uint256[]",
          "name": "",
          "type": "uint256[]"
        },
        {
          "internalType": "int16[]",
          "name": "",
          "type": "int16[]"
        },
        {
          "internalType": "uint256[]",
          "name": "",
          "type": "uint256[]"
        },
        {
          "internalType": "uint256[]",
          "name": "",
          "type": "uint256[]"
        },
        {
          "internalType": "bytes",
          "name": "",
          "type": "bytes"
        }
      ],
      "name": "withdrawLiquidityBatchCallback",
      "outputs": [],
      "stateMutability": "nonpayable",
      "type": "function"
    },
    {
      "inputs": [
        {
          "internalType": "uint256",
          "name": "",
          "type": "uint256"
        },
        {
          "internalType": "int16",
          "name": "",
          "type": "int16"
        },
        {
          "internalType": "uint256",
          "name": "",
          "type": "uint256"
        },
        {
          "internalType": "uint256",
          "name": "",
          "type": "uint256"
        },
        {
          "internalType": "bytes",
          "name": "",
          "type": "bytes"
        }
      ],
      "name": "withdrawLiquidityCallback",
      "outputs": [],
      "stateMutability": "pure",
      "type": "function"
    },
    {
      "stateMutability": "payable",
      "type": "receive"
    }
  ],
  "transactionHash": "0xa26239ecf309778f7a8e0dda6b7de14d599e0363a2de6ebba25fd5c60062da13",
  "args": [
    "0x8aD2BF39F0CB690b9fBaaAee545B2567a0fF5e01",
    {
      "lpName": "normal",
      "tag": "N"
    },
    {
      "market": "0x8Afc5b9e09F8c6002d8400f5E71cd74649466f95",
      "utilizationTargetBPS": 5000,
      "rebalanceBPS": 500,
      "rebalanceCheckingInterval": 3600,
      "settleCheckingInterval": 60
    },
    [
      -4,
      -3,
      -2,
      -1,
      1,
      2,
      3,
      4
    ],
    [
      2000,
      1500,
      1000,
      500,
      500,
      1000,
      1500,
      2000
    ],
    {
      "automate": "0xa5f9b728ecEB9A1F6FCC89dcc2eFd810bA4Dec41",
      "opsProxyFactory": "0x0000000000000000000000000000000000000000"
    }
  ],
  "numDeployments": 3,
  "solcInputHash": "7c62a9a78955dd40ad4fd41dae0045a6",
  "bytecode": "0x6101006040523480156200001257600080fd5b50604051620055d1380380620055d1833981016040819052620000359162000d65565b808080600001513082602001516040518060200160405280600081525060405180602001604052806000815250816003908162000073919062000f1c565b50600462000082828262000f1c565b5050506001600160a01b03831660808190526040805163573ea57560e01b8152905163573ea575916004808201926020929091908290030181865afa158015620000d0573d6000803e3d6000fd5b505050506040513d601f19601f82011682018060405250810190620000f6919062000fe8565b6001600160a01b0390811660c052811662000122575073c815db16d4be6ddf2685c201937905abf338f5d75b6040516337b6269f60e21b81526001600160a01b03838116600483015282169063ded89a7c906024016040805180830381865afa15801562000168573d6000803e3d6000fd5b505050506040513d601f19601f820116820180604052508101906200018e919062001008565b506001600160a01b0390811660a052601680546001600160a01b031916331790558b1660e05250620001cb935088925087915086905085620001e1565b620001d5620002db565b5050505050506200127a565b620001fd8360200151846040015184846200038860201b60201c565b60408051808201909152845180825260208087015190830152600590819062000227908262000f1c565b50602082015160018201906200023e908262000f1c565b50506040805160a08101825285516001600160a01b031680825260208088015161ffff90811691840182905288850151169383018490526060808901519084018190526080808a01519401849052600780546001600160b01b031916909317600160a01b9092029190911761ffff60b01b1916600160b01b90940293909317905560089190915560095550620002d5828262000415565b50505050565b6016546001600160a01b031633146200030757604051639298645b60e01b815260040160405180910390fd5b6014541562000329576040516378bfb91760e01b815260040160405180910390fd5b60408051600480825260248083018452602080840180516001600160e01b03908116635030825760e11b17909152855193845291830190945292810180518416631f5f0a8760e21b17905260085462000383936200051516565b601455565b61271061ffff85161115620003bb57604051631191f22d60e31b815261ffff851660048201526024015b60405180910390fd5b8051825114620003ec5781518151604051637e2c0eb360e01b815260048101929092526024820152604401620003b2565b8261ffff168461ffff1611620002d557604051630272acdf60e41b815260040160405180910390fd5b6000805b8251811015620004c7578281815181106200043857620004386200104b565b6020026020010151600a60010160008684815181106200045c576200045c6200104b565b602002602001015160010b60010b815260200190815260200160002060006101000a81548161ffff021916908361ffff160217905550828181518110620004a757620004a76200104b565b602002602001015182620004bc919062001077565b915060010162000419565b5061ffff811661271014620004ef5760405163243d9fd360e01b815260040160405180910390fd5b82516200050490600a90602086019062000930565b50620005108362000808565b505050565b600080604051806040016040528060036001600160401b038111156200053f576200053f62000a51565b60405190808252806020026020018201604052801562000569578160200160208202803683370190505b5081526040805160038082526080820190925260209092019190816020015b6060815260200190600190039081620005885750509052805180519192506000918290620005ba57620005ba6200104b565b60200260200101906003811115620005d657620005d66200109c565b90816003811115620005ec57620005ec6200109c565b81525050600181600001516001815181106200060c576200060c6200104b565b602002602001019060038111156200062857620006286200109c565b908160038111156200063e576200063e6200109c565b81525050600281600001516002815181106200065e576200065e6200104b565b602002602001019060038111156200067a576200067a6200109c565b908160038111156200069057620006906200109c565b905250604051620006a89030908790602001620010e0565b6040516020818303038152906040528160200151600081518110620006d157620006d16200104b565b6020908102919091010152620006e8834262001106565b604080516001600160801b0392831660208201529185169082015260600160405160208183030381529060405281602001516001815181106200072f576200072f6200104b565b60200260200101819052506040518060200160405280600081525081602001516002815181106200076457620007646200104b565b60200260200101819052506080516001600160a01b0316633323b46730868473eeeeeeeeeeeeeeeeeeeeeeeeeeeeeeeeeeeeeeee6040518563ffffffff1660e01b8152600401620007b994939291906200117b565b6020604051808303816000875af1158015620007d9573d6000803e3d6000fd5b505050506040513d601f19601f82011682018060405250810190620007ff91906200123c565b95945050505050565b80516001600160401b0381111562000824576200082462000a51565b6040519080825280602002602001820160405280156200084e578160200160208202803683370190505b5080516200086591600c91602090910190620009e3565b5060005b8151811015620008cc57620008a08282815181106200088c576200088c6200104b565b6020026020010151620008d060201b60201c565b600c805483908110620008b757620008b76200104b565b60009182526020909120015560010162000869565b5050565b6000600182900b8112620008fd81620008f457620008ee8462001256565b620008f6565b835b8262000904565b9392505050565b6000816200092757620009216402540be40061ffff851662001106565b620008fd565b505061ffff1690565b82805482825590600052602060002090600f01601090048101928215620009d15791602002820160005b838211156200099f57835183826101000a81548161ffff021916908360010b61ffff16021790555092602001926002016020816001010492830192600103026200095a565b8015620009cf5782816101000a81549061ffff02191690556002016020816001010492830192600103026200099f565b505b50620009df92915062000a21565b5090565b828054828255906000526020600020908101928215620009d1579160200282015b82811115620009d157825182559160200191906001019062000a04565b5b80821115620009df576000815560010162000a22565b6001600160a01b038116811462000a4e57600080fd5b50565b634e487b7160e01b600052604160045260246000fd5b604080519081016001600160401b038111828210171562000a8c5762000a8c62000a51565b60405290565b604051601f8201601f191681016001600160401b038111828210171562000abd5762000abd62000a51565b604052919050565b60005b8381101562000ae257818101518382015260200162000ac8565b50506000910152565b600082601f83011262000afd57600080fd5b81516001600160401b0381111562000b195762000b1962000a51565b62000b2e601f8201601f191660200162000a92565b81815284602083860101111562000b4457600080fd5b62000b5782602083016020870162000ac5565b949350505050565b805161ffff8116811462000b7257600080fd5b919050565b600060a0828403121562000b8a57600080fd5b60405160a081016001600160401b038111828210171562000baf5762000baf62000a51565b8060405250809150825162000bc48162000a38565b815262000bd46020840162000b5f565b602082015262000be76040840162000b5f565b604082015260608301516060820152608083015160808201525092915050565b60006001600160401b0382111562000c235762000c2362000a51565b5060051b60200190565b600082601f83011262000c3f57600080fd5b8151602062000c5862000c528362000c07565b62000a92565b82815260059290921b8401810191818101908684111562000c7857600080fd5b8286015b8481101562000ca65780518060010b811462000c985760008081fd5b835291830191830162000c7c565b509695505050505050565b600082601f83011262000cc357600080fd5b8151602062000cd662000c528362000c07565b82815260059290921b8401810191818101908684111562000cf657600080fd5b8286015b8481101562000ca65762000d0e8162000b5f565b835291830191830162000cfa565b60006040828403121562000d2f57600080fd5b62000d3962000a67565b9050815162000d488162000a38565b8152602082015162000d5a8162000a38565b602082015292915050565b600080600080600080610160878903121562000d8057600080fd5b865162000d8d8162000a38565b60208801519096506001600160401b038082111562000dab57600080fd5b908801906040828b03121562000dc057600080fd5b62000dca62000a67565b82518281111562000dda57600080fd5b62000de88c82860162000aeb565b82525060208301518281111562000dfe57600080fd5b62000e0c8c82860162000aeb565b602083015250965062000e238a60408b0162000b77565b955060e089015191508082111562000e3a57600080fd5b62000e488a838b0162000c2d565b945061010089015191508082111562000e6057600080fd5b5062000e6f89828a0162000cb1565b92505062000e8288610120890162000d1c565b90509295509295509295565b600181811c9082168062000ea357607f821691505b60208210810362000ec457634e487b7160e01b600052602260045260246000fd5b50919050565b601f8211156200051057600081815260208120601f850160051c8101602086101562000ef35750805b601f850160051c820191505b8181101562000f145782815560010162000eff565b505050505050565b81516001600160401b0381111562000f385762000f3862000a51565b62000f508162000f49845462000e8e565b8462000eca565b602080601f83116001811462000f88576000841562000f6f5750858301515b600019600386901b1c1916600185901b17855562000f14565b600085815260208120601f198616915b8281101562000fb95788860151825594840194600190910190840162000f98565b508582101562000fd85787850151600019600388901b60f8161c191681555b5050505050600190811b01905550565b60006020828403121562000ffb57600080fd5b8151620008fd8162000a38565b600080604083850312156200101c57600080fd5b8251620010298162000a38565b602084015190925080151581146200104057600080fd5b809150509250929050565b634e487b7160e01b600052603260045260246000fd5b634e487b7160e01b600052601160045260246000fd5b61ffff81811683821601908082111562001095576200109562001061565b5092915050565b634e487b7160e01b600052602160045260246000fd5b60008151808452620010cc81602086016020860162000ac5565b601f01601f19169290920160200192915050565b6001600160a01b038316815260406020820181905260009062000b5790830184620010b2565b808201808211156200111c576200111c62001061565b92915050565b600081518084526020808501808196508360051b8101915082860160005b858110156200116e5782840389526200115b848351620010b2565b9885019893509084019060010162001140565b5091979650505050505050565b6001600160a01b038516815260806020808301829052600091620011a290840187620010b2565b838103604080860191909152865181835280519183018290528301906000906060840190825b81811015620012045784516004808210620011f057634e487b7160e01b865260218152602486fd5b5083529386019391860191600101620011c8565b5050848901519250838103858501526200121f818462001122565b95505050505050620007ff60608301846001600160a01b03169052565b6000602082840312156200124f57600080fd5b5051919050565b60008160010b617fff19810362001271576200127162001061565b60000392915050565b60805160a05160c05160e051614312620012bf600039600081816105a40152610a5401526000505060006104bd01526000818161039601526129f801526143126000f3fe6080604052600436106103385760003560e01c80637688c584116101b0578063ac31bb04116100ec578063d2419e2311610095578063e921b5c21161006f578063e921b5c2146109c1578063ea21cd92146109e1578063f120bc4d14610939578063f23a6e6114610a0957610347565b8063d2419e2314610939578063d4c3eea014610959578063dd62ed3e1461096e57610347565b8063c73fc729116100c6578063c73fc729146104df578063c95f9d0e146103dd578063d0d063c01461091957610347565b8063ac31bb041461086b578063b63e6ac314610880578063bc197c81146108a057610347565b80639134e7e711610159578063970d1d6f11610133578063970d1d6f146107fb578063a06104ae14610816578063a457c2d71461082b578063a9059cbb1461084b57610347565b80639134e7e7146107a357806393e15ee9146107d157806395d89b41146107e657610347565b806380f556051161018a57806380f5560514610743578063836339641461076e5780638df828001461078357610347565b80637688c584146106f75780637b9e618d146107195780637d7c2a1c1461072e57610347565b8063357dbd231161027f5780635c3986b0116102285780636868fe1d116102025780636868fe1d1461063357806370a0823114610648578063735a448e1461068b578063747cd3d9146106e257610347565b80635c3986b0146105f65780635fcbd2851461060b57806366cc811a1461061e57610347565b806340c592c11161025957806340c592c11461059257806346cd6801146105c65780635a80e080146105db57610347565b8063357dbd2314610548578063395093511461055d5780633ab8a16c1461057d57610347565b806323a43ec8116102e15780633068e794116102bb5780633068e794146104df578063313ce567146104ff5780633179f0481461051b57610347565b806323a43ec81461046b57806323b872dd1461048b57806328f150eb146104ab57610347565b806306fdde031161031257806306fdde031461040a578063095ea7b31461042c57806318160ddd1461044c57610347565b806301ffc9a71461034f578063049aacfe1461038457806305fe138b146103dd57610347565b3661034757610345610a4f565b005b610345610a4f565b34801561035b57600080fd5b5061036f61036a3660046130f9565b610a7a565b60405190151581526020015b60405180910390f35b34801561039057600080fd5b506103b87f000000000000000000000000000000000000000000000000000000000000000081565b60405173ffffffffffffffffffffffffffffffffffffffff909116815260200161037b565b3480156103e957600080fd5b506103fd6103f836600461315d565b610b13565b60405161037b91906131bc565b34801561041657600080fd5b5061041f610b23565b60405161037b9190613296565b34801561043857600080fd5b5061036f6104473660046132a9565b610b5a565b34801561045857600080fd5b506002545b60405190815260200161037b565b34801561047757600080fd5b506103456104863660046132d5565b610b72565b34801561049757600080fd5b5061036f6104a63660046132ee565b610b7d565b3480156104b757600080fd5b506103b87f000000000000000000000000000000000000000000000000000000000000000081565b3480156104eb57600080fd5b506103456104fa366004613371565b610ba3565b34801561050b57600080fd5b506040516012815260200161037b565b34801561052757600080fd5b5061053b6105363660046133ea565b610bd5565b60405161037b9190613407565b34801561055457600080fd5b5060115461045d565b34801561056957600080fd5b5061036f6105783660046132a9565b610c06565b34801561058957600080fd5b5061045d610c52565b34801561059e57600080fd5b506103b87f000000000000000000000000000000000000000000000000000000000000000081565b3480156105d257600080fd5b5061041f610f2f565b3480156105e757600080fd5b506103456104fa36600461344b565b34801561060257600080fd5b5061053b610fc4565b34801561061757600080fd5b50306103b8565b34801561062a57600080fd5b5061045d61101e565b34801561063f57600080fd5b5061045d6112bf565b34801561065457600080fd5b5061045d6106633660046133ea565b73ffffffffffffffffffffffffffffffffffffffff1660009081526020819052604090205490565b34801561069757600080fd5b506106a061159c565b60405161037b9190600060a082019050825182526020830151602083015260408301516040830152606083015160608301526080830151608083015292915050565b3480156106ee57600080fd5b5061034561164c565b34801561070357600080fd5b5061070c61177d565b60405161037b91906134a7565b34801561072557600080fd5b506103b86117fd565b34801561073a57600080fd5b50610345611896565b34801561074f57600080fd5b5060075473ffffffffffffffffffffffffffffffffffffffff166103b8565b34801561077a57600080fd5b5061045d61189e565b34801561078f57600080fd5b5061036f61079e3660046132d5565b6119c2565b3480156107af57600080fd5b506107c36107be3660046132d5565b6119d1565b60405161037b9291906134e2565b3480156107dd57600080fd5b506103456119ed565b3480156107f257600080fd5b5061041f611a3e565b34801561080757600080fd5b506103456104fa366004613505565b34801561082257600080fd5b506107c3611ad9565b34801561083757600080fd5b5061036f6108463660046132a9565b611af3565b34801561085757600080fd5b5061036f6108663660046132a9565b611bd4565b34801561087757600080fd5b5061053b611be2565b34801561088c57600080fd5b506103fd61089b3660046132d5565b611dcf565b3480156108ac57600080fd5b506108e86108bb366004613597565b7fbc197c810000000000000000000000000000000000000000000000000000000098975050505050505050565b6040517fffffffff00000000000000000000000000000000000000000000000000000000909116815260200161037b565b34801561092557600080fd5b50610345610934366004613505565b611e85565b34801561094557600080fd5b50610345610954366004613656565b611e93565b34801561096557600080fd5b5061045d611ea7565b34801561097a57600080fd5b5061045d610989366004613747565b73ffffffffffffffffffffffffffffffffffffffff918216600090815260016020908152604080832093909416825291909152205490565b3480156109cd57600080fd5b506103456109dc366004613775565b611ed0565b3480156109ed57600080fd5b506109f6611edf565b60405161ffff909116815260200161037b565b348015610a1557600080fd5b506108e8610a243660046137f8565b7ff23a6e61000000000000000000000000000000000000000000000000000000009695505050505050565b610a787f0000000000000000000000000000000000000000000000000000000000000000611f34565b565b60007fffffffff0000000000000000000000000000000000000000000000000000000082167f01ffc9a7000000000000000000000000000000000000000000000000000000001480610b0d57507fffffffff0000000000000000000000000000000000000000000000000000000082167f4e2312e000000000000000000000000000000000000000000000000000000000145b92915050565b610b1b61309d565b610b0d610a4f565b6060610b2d611f58565b610b3561207c565b604051602001610b4692919061382c565b604051602081830303815290604052905090565b600033610b6881858561215a565b5060019392505050565b610b7a610a4f565b50565b600033610b8b85828561230d565b610b968585856123de565b60019150505b9392505050565b6040517f36bcfc9a00000000000000000000000000000000000000000000000000000000815260040160405180910390fd5b73ffffffffffffffffffffffffffffffffffffffff81166000908152601060205260409020606090610b0d9061264d565b33600081815260016020908152604080832073ffffffffffffffffffffffffffffffffffffffff87168452909152812054909190610b689082908690610c4d9087906138dc565b61215a565b600080600760000160009054906101000a900473ffffffffffffffffffffffffffffffffffffffff1673ffffffffffffffffffffffffffffffffffffffff166264041d6040518163ffffffff1660e01b8152600401602060405180830381865afa158015610cc4573d6000803e3d6000fd5b505050506040513d601f19601f82011682018060405250810190610ce891906138ef565b6040517f77954ac200000000000000000000000000000000000000000000000000000000815273ffffffffffffffffffffffffffffffffffffffff91909116906377954ac290610d3d90600c9060040161394c565b600060405180830381865afa158015610d5a573d6000803e3d6000fd5b505050506040513d6000823e601f3d9081017fffffffffffffffffffffffffffffffffffffffffffffffffffffffffffffffe0168201604052610da091908101906139dd565b6007546040517ffaf07bf300000000000000000000000000000000000000000000000000000000815291925060009173ffffffffffffffffffffffffffffffffffffffff9091169063faf07bf390610dfd90600a90600401613a83565b600060405180830381865afa158015610e1a573d6000803e3d6000fd5b505050506040513d6000823e601f3d9081017fffffffffffffffffffffffffffffffffffffffffffffffffffffffffffffffe0168201604052610e6091908101906139dd565b905060005b8151811015610f29576000600a6008016000600a6000018481548110610e8d57610e8d613d96565b60009182526020808320601083040154600f9092166002026101000a90910460010b835282019290925260400190205490508015610f1157610f0c838381518110610eda57610eda613d96565b6020026020010151858481518110610ef457610ef4613d96565b60200260200101518361265a9092919063ffffffff16565b610f14565b60005b610f1e90866138dc565b945050600101610e65565b50505090565b606060056000018054610f4190613dc5565b80601f0160208091040260200160405190810160405280929190818152602001828054610f6d90613dc5565b8015610fba5780601f10610f8f57610100808354040283529160200191610fba565b820191906000526020600020905b815481529060010190602001808311610f9d57829003601f168201915b5050505050905090565b6060600a600201805480602002602001604051908101604052809291908181526020018280548015610fba57602002820191906000526020600020905b815481526020019060010190808311611001575050505050905090565b600080600760000160009054906101000a900473ffffffffffffffffffffffffffffffffffffffff1673ffffffffffffffffffffffffffffffffffffffff166264041d6040518163ffffffff1660e01b8152600401602060405180830381865afa158015611090573d6000803e3d6000fd5b505050506040513d601f19601f820116820180604052508101906110b491906138ef565b6040517f77954ac200000000000000000000000000000000000000000000000000000000815273ffffffffffffffffffffffffffffffffffffffff91909116906377954ac29061110990600c9060040161394c565b600060405180830381865afa158015611126573d6000803e3d6000fd5b505050506040513d6000823e601f3d9081017fffffffffffffffffffffffffffffffffffffffffffffffffffffffffffffffe016820160405261116c91908101906139dd565b6007546040517ffaf07bf300000000000000000000000000000000000000000000000000000000815291925060009173ffffffffffffffffffffffffffffffffffffffff9091169063faf07bf3906111c990600a90600401613a83565b600060405180830381865afa1580156111e6573d6000803e3d6000fd5b505050506040513d6000823e601f3d9081017fffffffffffffffffffffffffffffffffffffffffffffffffffffffffffffffe016820160405261122c91908101906139dd565b90506000611238611be2565b905060005b82518110156112b857600082828151811061125a5761125a613d96565b60200260200101519050806000146112a05761129b84838151811061128157611281613d96565b6020026020010151868481518110610ef457610ef4613d96565b6112a3565b60005b6112ad90876138dc565b95505060010161123d565b5050505090565b600080600760000160009054906101000a900473ffffffffffffffffffffffffffffffffffffffff1673ffffffffffffffffffffffffffffffffffffffff166264041d6040518163ffffffff1660e01b8152600401602060405180830381865afa158015611331573d6000803e3d6000fd5b505050506040513d601f19601f8201168201806040525081019061135591906138ef565b6040517f77954ac200000000000000000000000000000000000000000000000000000000815273ffffffffffffffffffffffffffffffffffffffff91909116906377954ac2906113aa90600c9060040161394c565b600060405180830381865afa1580156113c7573d6000803e3d6000fd5b505050506040513d6000823e601f3d9081017fffffffffffffffffffffffffffffffffffffffffffffffffffffffffffffffe016820160405261140d91908101906139dd565b6007546040517ffaf07bf300000000000000000000000000000000000000000000000000000000815291925060009173ffffffffffffffffffffffffffffffffffffffff9091169063faf07bf39061146a90600a90600401613a83565b600060405180830381865afa158015611487573d6000803e3d6000fd5b505050506040513d6000823e601f3d9081017fffffffffffffffffffffffffffffffffffffffffffffffffffffffffffffffe01682016040526114cd91908101906139dd565b905060006114d9611be2565b905060005b82518110156112b8576000600a6008016000600a600001848154811061150657611506613d96565b90600052602060002090601091828204019190066002029054906101000a900460010b60010b60010b81526020019081526020016000205483838151811061155057611550613d96565b602002602001015161156291906138dc565b905080156115845761157f84838151811061128157611281613d96565b611587565b60005b61159190876138dc565b9550506001016114de565b6115ce6040518060a0016040528060008152602001600081526020016000815260200160008152602001600081525090565b6040518060a00160405280600081526020016115e861189e565b81526020016115f660115490565b815260200161160361101e565b8152602001611610610c52565b8152509050806080015181606001518260400151836020015161163391906138dc565b61163d91906138dc565b61164791906138dc565b815290565b60165473ffffffffffffffffffffffffffffffffffffffff16331461169d576040517f9298645b00000000000000000000000000000000000000000000000000000000815260040160405180910390fd5b601454156116d7576040517f78bfb91700000000000000000000000000000000000000000000000000000000815260040160405180910390fd5b60408051600480825260248083018452602080840180517bffffffffffffffffffffffffffffffffffffffffffffffffffffffff9081167fa06104ae0000000000000000000000000000000000000000000000000000000017909152855193845291830190945292810180519093167f7d7c2a1c00000000000000000000000000000000000000000000000000000000179092526008546117789290612784565b601455565b6060600a600001805480602002602001604051908101604052809291908181526020018280548015610fba57602002820191906000526020600020906000905b82829054906101000a900460010b60010b815260200190600201906020826001010492830192600103820291508084116117bd5790505050505050905090565b600754604080517f7b9e618d000000000000000000000000000000000000000000000000000000008152905160009273ffffffffffffffffffffffffffffffffffffffff1691637b9e618d9160048083019260209291908290030181865afa15801561186d573d6000803e3d6000fd5b505050506040513d601f19601f8201168201806040525081019061189191906138ef565b905090565b610a78610a4f565b600754604080517f7b9e618d000000000000000000000000000000000000000000000000000000008152905160009273ffffffffffffffffffffffffffffffffffffffff1691637b9e618d9160048083019260209291908290030181865afa15801561190e573d6000803e3d6000fd5b505050506040513d601f19601f8201168201806040525081019061193291906138ef565b6040517f70a0823100000000000000000000000000000000000000000000000000000000815230600482015273ffffffffffffffffffffffffffffffffffffffff91909116906370a0823190602401602060405180830381865afa15801561199e573d6000803e3d6000fd5b505050506040513d601f19601f820116820180604052508101906118919190613e18565b60006119cc610a4f565b919050565b600060606119e483306323a43ec8612a93565b91509150915091565b60165473ffffffffffffffffffffffffffffffffffffffff163314611896576040517f9298645b00000000000000000000000000000000000000000000000000000000815260040160405180910390fd5b600754606090611a659073ffffffffffffffffffffffffffffffffffffffff166004612ce9565b60068054600090611a7590613dc5565b8110611a8357611a83613d96565b815460011615611aa25790600052602060002090602091828204019190065b9054901a7f010000000000000000000000000000000000000000000000000000000000000002604051602001610b46929190613e31565b60006060611aeb30637d7c2a1c612e85565b915091509091565b33600081815260016020908152604080832073ffffffffffffffffffffffffffffffffffffffff8716845290915281205490919083811015611bbc576040517f08c379a000000000000000000000000000000000000000000000000000000000815260206004820152602560248201527f45524332303a2064656372656173656420616c6c6f77616e63652062656c6f7760448201527f207a65726f00000000000000000000000000000000000000000000000000000060648201526084015b60405180910390fd5b611bc9828686840361215a565b506001949350505050565b600033610b688185856123de565b600a5460609060009067ffffffffffffffff811115611c0357611c0361395f565b604051908082528060200260200182016040528015611c2c578160200160208202803683370190505b50905060005b600a54811015611c7c5730828281518110611c4f57611c4f613d96565b73ffffffffffffffffffffffffffffffffffffffff90921660209283029190910190910152600101611c32565b50600754604080517e64041d000000000000000000000000000000000000000000000000000000008152905173ffffffffffffffffffffffffffffffffffffffff909216916264041d916004808201926020929091908290030181865afa158015611ceb573d6000803e3d6000fd5b505050506040513d601f19601f82011682018060405250810190611d0f91906138ef565b6040517f4e1273f400000000000000000000000000000000000000000000000000000000815273ffffffffffffffffffffffffffffffffffffffff9190911690634e1273f490611d66908490600c90600401613ec7565b600060405180830381865afa158015611d83573d6000803e3d6000fd5b505050506040513d6000823e601f3d9081017fffffffffffffffffffffffffffffffffffffffffffffffffffffffffffffffe0168201604052611dc991908101906139dd565b91505090565b611dd761309d565b6000828152600d6020908152604091829020825160c081018452815481526001808301549382019390935260028201549381019390935260038101546060840152600481015473ffffffffffffffffffffffffffffffffffffffff81166080850152909160a084019174010000000000000000000000000000000000000000900460ff1690811115611e6b57611e6b61318d565b6001811115611e7c57611e7c61318d565b90525092915050565b611e8d610a4f565b50505050565b611e9b610a4f565b50505050505050505050565b6000611eb16112bf565b601154611ebc61189e565b611ec691906138dc565b61189191906138dc565b611ed8610a4f565b5050505050565b600080611eea61159c565b8051909150600003611efe57600091505090565b611dc961271061ffff16826000015183608001518460200151611f2191906138dc565b8451611f2d9190613f34565b919061265a565b3660008037600080366000845af43d6000803e808015611f53573d6000f35b3d6000fd5b600754604080517f7b9e618d000000000000000000000000000000000000000000000000000000008152905160609273ffffffffffffffffffffffffffffffffffffffff1691637b9e618d9160048083019260209291908290030181865afa158015611fc8573d6000803e3d6000fd5b505050506040513d601f19601f82011682018060405250810190611fec91906138ef565b73ffffffffffffffffffffffffffffffffffffffff166395d89b416040518163ffffffff1660e01b8152600401600060405180830381865afa158015612036573d6000803e3d6000fd5b505050506040513d6000823e601f3d9081017fffffffffffffffffffffffffffffffffffffffffffffffffffffffffffffffe01682016040526118919190810190613f47565b600754604080517f0aa7d2f9000000000000000000000000000000000000000000000000000000008152905160609273ffffffffffffffffffffffffffffffffffffffff1691630aa7d2f99160048083019260209291908290030181865afa1580156120ec573d6000803e3d6000fd5b505050506040513d601f19601f8201168201806040525081019061211091906138ef565b73ffffffffffffffffffffffffffffffffffffffff16637284e4166040518163ffffffff1660e01b8152600401600060405180830381865afa158015612036573d6000803e3d6000fd5b73ffffffffffffffffffffffffffffffffffffffff83166121fc576040517f08c379a0000000000000000000000000000000000000000000000000000000008152602060048201526024808201527f45524332303a20617070726f76652066726f6d20746865207a65726f2061646460448201527f72657373000000000000000000000000000000000000000000000000000000006064820152608401611bb3565b73ffffffffffffffffffffffffffffffffffffffff821661229f576040517f08c379a000000000000000000000000000000000000000000000000000000000815260206004820152602260248201527f45524332303a20617070726f766520746f20746865207a65726f20616464726560448201527f73730000000000000000000000000000000000000000000000000000000000006064820152608401611bb3565b73ffffffffffffffffffffffffffffffffffffffff83811660008181526001602090815260408083209487168084529482529182902085905590518481527f8c5be1e5ebec7d5bd14f71427d1e84f3dd0314c0f7b2291e5b200ac8c7c3b925910160405180910390a3505050565b73ffffffffffffffffffffffffffffffffffffffff8381166000908152600160209081526040808320938616835292905220547fffffffffffffffffffffffffffffffffffffffffffffffffffffffffffffffff8114611e8d57818110156123d1576040517f08c379a000000000000000000000000000000000000000000000000000000000815260206004820152601d60248201527f45524332303a20696e73756666696369656e7420616c6c6f77616e63650000006044820152606401611bb3565b611e8d848484840361215a565b73ffffffffffffffffffffffffffffffffffffffff8316612481576040517f08c379a000000000000000000000000000000000000000000000000000000000815260206004820152602560248201527f45524332303a207472616e736665722066726f6d20746865207a65726f20616460448201527f64726573730000000000000000000000000000000000000000000000000000006064820152608401611bb3565b73ffffffffffffffffffffffffffffffffffffffff8216612524576040517f08c379a000000000000000000000000000000000000000000000000000000000815260206004820152602360248201527f45524332303a207472616e7366657220746f20746865207a65726f206164647260448201527f65737300000000000000000000000000000000000000000000000000000000006064820152608401611bb3565b73ffffffffffffffffffffffffffffffffffffffff8316600090815260208190526040902054818110156125da576040517f08c379a000000000000000000000000000000000000000000000000000000000815260206004820152602660248201527f45524332303a207472616e7366657220616d6f756e742065786365656473206260448201527f616c616e636500000000000000000000000000000000000000000000000000006064820152608401611bb3565b73ffffffffffffffffffffffffffffffffffffffff848116600081815260208181526040808320878703905593871680835291849020805487019055925185815290927fddf252ad1be2c89b69c2b068fc378daa952ba7f163c4a11628f55a4df523b3ef910160405180910390a3611e8d565b60606000610b9c83613041565b600080807fffffffffffffffffffffffffffffffffffffffffffffffffffffffffffffffff858709858702925082811083820303915050806000036126b2578382816126a8576126a8613ff9565b0492505050610b9c565b80841161271b576040517f08c379a000000000000000000000000000000000000000000000000000000000815260206004820152601560248201527f4d6174683a206d756c446976206f766572666c6f7700000000000000000000006044820152606401611bb3565b60008486880960026001871981018816978890046003810283188082028403028082028403028082028403028082028403028082028403029081029092039091026000889003889004909101858311909403939093029303949094049190911702949350505050565b6000806040518060400160405280600367ffffffffffffffff8111156127ac576127ac61395f565b6040519080825280602002602001820160405280156127d5578160200160208202803683370190505b5081526040805160038082526080820190925260209092019190816020015b60608152602001906001900390816127f4575050905280518051919250600091829061282257612822613d96565b6020026020010190600381111561283b5761283b61318d565b9081600381111561284e5761284e61318d565b815250506001816000015160018151811061286b5761286b613d96565b602002602001019060038111156128845761288461318d565b908160038111156128975761289761318d565b81525050600281600001516002815181106128b4576128b4613d96565b602002602001019060038111156128cd576128cd61318d565b908160038111156128e0576128e061318d565b9052506040516128f69030908790602001614028565b604051602081830303815290604052816020015160008151811061291c5761291c613d96565b602090810291909101015261293183426138dc565b604080516fffffffffffffffffffffffffffffffff928316602082015291851690820152606001604051602081830303815290604052816020015160018151811061297e5761297e613d96565b60200260200101819052506040518060200160405280600081525081602001516002815181106129b0576129b0613d96565b60209081029190910101526040517f3323b46700000000000000000000000000000000000000000000000000000000815273ffffffffffffffffffffffffffffffffffffffff7f00000000000000000000000000000000000000000000000000000000000000001690633323b46790612a479030908890869073eeeeeeeeeeeeeeeeeeeeeeeeeeeeeeeeeeeeeeee90600401614057565b6020604051808303816000875af1158015612a66573d6000803e3d6000fd5b505050506040513d601f19601f82011682018060405250810190612a8a9190613e18565b95945050505050565b600060606000600760000160009054906101000a900473ffffffffffffffffffffffffffffffffffffffff1673ffffffffffffffffffffffffffffffffffffffff16630aa7d2f96040518163ffffffff1660e01b8152600401602060405180830381865afa158015612b09573d6000803e3d6000fd5b505050506040513d601f19601f82011682018060405250810190612b2d91906138ef565b73ffffffffffffffffffffffffffffffffffffffff16639d888e866040518163ffffffff1660e01b8152600401606060405180830381865afa158015612b77573d6000803e3d6000fd5b505050506040513d601f19601f82011682018060405250810190612b9b919061417c565b6000878152600d60209081526040808320815160c081018352815481526001808301549482019490945260028201549281019290925260038101546060830152600481015473ffffffffffffffffffffffffffffffffffffffff81166080840152949550929390929160a084019174010000000000000000000000000000000000000000900460ff1690811115612c3457612c3461318d565b6001811115612c4557612c4561318d565b905250805190915015801590612c5f575081516020820151105b15612cc8576001868689604051602401612c7b91815260200190565b604051602081830303815290604052915060e01b6020820180517bffffffffffffffffffffffffffffffffffffffffffffffffffffffff8381831617835250505050935093505050612ce1565b6000604051806020016040528060008152509350935050505b935093915050565b60608160ff1667ffffffffffffffff811115612d0757612d0761395f565b6040519080825280601f01601f191660200182016040528015612d31576020820181803683370190505b5060408051808201909152601081527f3031323334353637383961626364656600000000000000000000000000000000602082015290915083612d758460276141d8565b612d809060046141f1565b60ff168173ffffffffffffffffffffffffffffffffffffffff16901c905060005b8460ff16811015612e7c5760048273ffffffffffffffffffffffffffffffffffffffff16901c915082601083612dd79190614214565b60ff1681518110612dea57612dea613d96565b01602001517fff0000000000000000000000000000000000000000000000000000000000000016846001612e218460ff8a16613f34565b612e2b9190613f34565b81518110612e3b57612e3b613d96565b60200101907effffffffffffffffffffffffffffffffffffffffffffffffffffffffffffff1916908160001a90535080612e748161426e565b915050612da1565b50505092915050565b600060606000612e9361159c565b8051909150600003612eb857505060408051602081019091526000808252915061303a565b6000612eec61271061ffff168360000151846080015185604001518660600151612ee291906138dc565b611f2d9190613f34565b6007549091508190612f369061ffff7601000000000000000000000000000000000000000000008204811691740100000000000000000000000000000000000000009004166142a6565b61ffff161015612f885750506040805160048152602481019091526020810180517bffffffffffffffffffffffffffffffffffffffffffffffffffffffff1660e086901b17905260019250905061303a565b6007548190612fcf9061ffff7601000000000000000000000000000000000000000000008204811691740100000000000000000000000000000000000000009004166142c1565b61ffff1611156130215750506040805160048152602481019091526020810180517bffffffffffffffffffffffffffffffffffffffffffffffffffffffff1660e086901b17905260019250905061303a565b6000604051806020016040528060008152509350935050505b9250929050565b60608160000180548060200260200160405190810160405280929190818152602001828054801561309157602002820191906000526020600020905b81548152602001906001019080831161307d575b50505050509050919050565b6040518060c0016040528060008152602001600081526020016000815260200160008152602001600073ffffffffffffffffffffffffffffffffffffffff168152602001600060018111156130f4576130f461318d565b905290565b60006020828403121561310b57600080fd5b81357fffffffff0000000000000000000000000000000000000000000000000000000081168114610b9c57600080fd5b73ffffffffffffffffffffffffffffffffffffffff81168114610b7a57600080fd5b6000806040838503121561317057600080fd5b8235915060208301356131828161313b565b809150509250929050565b7f4e487b7100000000000000000000000000000000000000000000000000000000600052602160045260246000fd5b600060c0820190508251825260208301516020830152604083015160408301526060830151606083015273ffffffffffffffffffffffffffffffffffffffff608084015116608083015260a08301516002811061321b5761321b61318d565b8060a08401525092915050565b60005b8381101561324357818101518382015260200161322b565b50506000910152565b60008151808452613264816020860160208601613228565b601f017fffffffffffffffffffffffffffffffffffffffffffffffffffffffffffffffe0169290920160200192915050565b602081526000610b9c602083018461324c565b600080604083850312156132bc57600080fd5b82356132c78161313b565b946020939093013593505050565b6000602082840312156132e757600080fd5b5035919050565b60008060006060848603121561330357600080fd5b833561330e8161313b565b9250602084013561331e8161313b565b929592945050506040919091013590565b60008083601f84011261334157600080fd5b50813567ffffffffffffffff81111561335957600080fd5b60208301915083602082850101111561303a57600080fd5b60008060008060008060a0878903121561338a57600080fd5b8635955060208701358060010b81146133a257600080fd5b94506040870135935060608701359250608087013567ffffffffffffffff8111156133cc57600080fd5b6133d889828a0161332f565b979a9699509497509295939492505050565b6000602082840312156133fc57600080fd5b8135610b9c8161313b565b6020808252825182820181905260009190848201906040850190845b8181101561343f57835183529284019291840191600101613423565b50909695505050505050565b6000806000806060858703121561346157600080fd5b843561346c8161313b565b935060208501359250604085013567ffffffffffffffff81111561348f57600080fd5b61349b8782880161332f565b95989497509550505050565b6020808252825182820181905260009190848201906040850190845b8181101561343f578351600190810b84529385019392850192016134c3565b82151581526040602082015260006134fd604083018461324c565b949350505050565b6000806000806060858703121561351b57600080fd5b84356135268161313b565b935060208501356135368161313b565b9250604085013567ffffffffffffffff81111561348f57600080fd5b60008083601f84011261356457600080fd5b50813567ffffffffffffffff81111561357c57600080fd5b6020830191508360208260051b850101111561303a57600080fd5b60008060008060008060008060a0898b0312156135b357600080fd5b88356135be8161313b565b975060208901356135ce8161313b565b9650604089013567ffffffffffffffff808211156135eb57600080fd5b6135f78c838d01613552565b909850965060608b013591508082111561361057600080fd5b61361c8c838d01613552565b909650945060808b013591508082111561363557600080fd5b506136428b828c0161332f565b999c989b5096995094979396929594505050565b60008060008060008060008060008060a08b8d03121561367557600080fd5b8a3567ffffffffffffffff8082111561368d57600080fd5b6136998e838f01613552565b909c509a5060208d01359150808211156136b257600080fd5b6136be8e838f01613552565b909a50985060408d01359150808211156136d757600080fd5b6136e38e838f01613552565b909850965060608d01359150808211156136fc57600080fd5b6137088e838f01613552565b909650945060808d013591508082111561372157600080fd5b5061372e8d828e0161332f565b915080935050809150509295989b9194979a5092959850565b6000806040838503121561375a57600080fd5b82356137658161313b565b915060208301356131828161313b565b60008060008060006060868803121561378d57600080fd5b85356137988161313b565b9450602086013567ffffffffffffffff808211156137b557600080fd5b6137c189838a01613552565b909650945060408801359150808211156137da57600080fd5b506137e78882890161332f565b969995985093965092949392505050565b60008060008060008060a0878903121561381157600080fd5b863561381c8161313b565b955060208701356133a28161313b565b7f4368726f6d617469634c50202d2000000000000000000000000000000000000081526000835161386481600e850160208801613228565b7f202d200000000000000000000000000000000000000000000000000000000000600e9184019182015283516138a1816011840160208801613228565b01601101949350505050565b7f4e487b7100000000000000000000000000000000000000000000000000000000600052601160045260246000fd5b80820180821115610b0d57610b0d6138ad565b60006020828403121561390157600080fd5b8151610b9c8161313b565b6000815480845260208085019450836000528060002060005b8381101561394157815487529582019560019182019101613925565b509495945050505050565b602081526000610b9c602083018461390c565b7f4e487b7100000000000000000000000000000000000000000000000000000000600052604160045260246000fd5b604051601f82017fffffffffffffffffffffffffffffffffffffffffffffffffffffffffffffffe016810167ffffffffffffffff811182821017156139d5576139d561395f565b604052919050565b600060208083850312156139f057600080fd5b825167ffffffffffffffff80821115613a0857600080fd5b818501915085601f830112613a1c57600080fd5b815181811115613a2e57613a2e61395f565b8060051b9150613a3f84830161398e565b8181529183018401918481019088841115613a5957600080fd5b938501935b83851015613a7757845182529385019390850190613a5e565b98975050505050505050565b60006020808301818452808554613a9e818490815260200190565b60008881526020812094509092505b81600f82011015613bef578354600181810b8552601082901c810b878601526040613ae0818701848a1c840b60010b9052565b6060613af58188018560301c850b60010b9052565b6080613b0981890186851c860b60010b9052565b60a09250613b208389018660501c860b60010b9052565b60c0613b34818a0187851c870b60010b9052565b60e09250613b4b838a018760701c870b60010b9052565b85821c850b60010b6101008a0152613b6e6101208a018760901c870b60010b9052565b85841c850b60010b6101408a0152613b916101608a018760b01c870b60010b9052565b85811c850b60010b6101808a01525050613bb66101a088018560d01c850b60010b9052565b83811c830b60010b6101c08801525050613bd96101e086018360f01d60010b9052565b9490940193506102009290920191601001613aad565b92549281811015613c0757600184810b845292850192015b81811015613c2157601084901c60010b8352918401916001015b81811015613c395783851c60010b8352918401916001015b81811015613c5357603084901c60010b8352918401916001015b81811015613c6d57604084901c60010b8352918401916001015b81811015613c8757605084901c60010b8352918401916001015b81811015613ca157606084901c60010b8352918401916001015b81811015613cbb57607084901c60010b8352918401916001015b81811015613cd557608084901c60010b8352918401916001015b81811015613cef57609084901c60010b8352918401916001015b81811015613d095760a084901c60010b8352918401916001015b81811015613d235760b084901c60010b8352918401916001015b81811015613d3d5760c084901c60010b8352918401916001015b81811015613d575760d084901c60010b8352918401916001015b81811015613d715760e084901c60010b8352918401916001015b8181101561343f57613d88838560f01d60010b9052565b505091909101949350505050565b7f4e487b7100000000000000000000000000000000000000000000000000000000600052603260045260246000fd5b600181811c90821680613dd957607f821691505b602082108103613e12577f4e487b7100000000000000000000000000000000000000000000000000000000600052602260045260246000fd5b50919050565b600060208284031215613e2a57600080fd5b5051919050565b7f434c502d00000000000000000000000000000000000000000000000000000000815260008351613e69816004850160208801613228565b7f2d0000000000000000000000000000000000000000000000000000000000000060049390910192830152507fff00000000000000000000000000000000000000000000000000000000000000919091166005820152600601919050565b604080825283519082018190526000906020906060840190828701845b82811015613f1657815173ffffffffffffffffffffffffffffffffffffffff1684529284019290840190600101613ee4565b50505083810382850152613f2a818661390c565b9695505050505050565b81810381811115610b0d57610b0d6138ad565b600060208284031215613f5957600080fd5b815167ffffffffffffffff80821115613f7157600080fd5b818401915084601f830112613f8557600080fd5b815181811115613f9757613f9761395f565b613fc860207fffffffffffffffffffffffffffffffffffffffffffffffffffffffffffffffe0601f8401160161398e565b9150808252856020828501011115613fdf57600080fd5b613ff0816020840160208601613228565b50949350505050565b7f4e487b7100000000000000000000000000000000000000000000000000000000600052601260045260246000fd5b73ffffffffffffffffffffffffffffffffffffffff831681526040602082015260006134fd604083018461324c565b73ffffffffffffffffffffffffffffffffffffffff8516815260006020608081840152614087608084018761324c565b8381036040808601919091528651818352805191830182905283019060009060608401905b808310156140dc578351600481106140c6576140c661318d565b82529285019260019290920191908501906140ac565b508885015184820394860194909452835180825281860194860193509150600582901b8101850160005b83811015614152577fffffffffffffffffffffffffffffffffffffffffffffffffffffffffffffffe083830301865261414082865161324c565b95870195948701949150600101614106565b5073ffffffffffffffffffffffffffffffffffffffff891660608901529550612a8a945050505050565b60006060828403121561418e57600080fd5b6040516060810181811067ffffffffffffffff821117156141b1576141b161395f565b80604052508251815260208301516020820152604083015160408201528091505092915050565b60ff8281168282160390811115610b0d57610b0d6138ad565b60ff818116838216029081169081811461420d5761420d6138ad565b5092915050565b600073ffffffffffffffffffffffffffffffffffffffff80841680614262577f4e487b7100000000000000000000000000000000000000000000000000000000600052601260045260246000fd5b92169190910692915050565b60007fffffffffffffffffffffffffffffffffffffffffffffffffffffffffffffffff820361429f5761429f6138ad565b5060010190565b61ffff81811683821601908082111561420d5761420d6138ad565b61ffff82811682821603908082111561420d5761420d6138ad56fea2646970667358221220d1c44a6445b0775473a7b4d34536b09122172c85b9e970f06e41206145fce15864736f6c63430008130033",
  "devdoc": {
    "events": {
      "Approval(address,address,uint256)": {
        "details": "Emitted when the allowance of a `spender` for an `owner` is set by a call to {approve}. `value` is the new allowance."
      },
      "Transfer(address,address,uint256)": {
        "details": "Emitted when `value` tokens are moved from one account (`from`) to another (`to`). Note that `value` may be zero."
      }
    },
    "kind": "dev",
    "methods": {
      "addLiquidityBatchCallback(address,address,bytes)": {
        "details": "not implemented",
        "params": {
          "data": "Additional data associated with the liquidity addition.",
          "settlementToken": "The address of the settlement token used for adding liquidity.",
          "vault": "The address of the vault where the liquidity is added."
        }
      },
      "addLiquidityCallback(address,address,bytes)": {
        "details": "not implemented",
        "params": {
          "data": "Additional data associated with the liquidity addition.",
          "settlementToken": "The address of the settlement token used for adding liquidity.",
          "vault": "The address of the vault where the liquidity is added."
        }
      },
      "allowance(address,address)": {
        "details": "See {IERC20-allowance}."
      },
      "approve(address,uint256)": {
        "details": "See {IERC20-approve}. NOTE: If `amount` is the maximum `uint256`, the allowance is not updated on `transferFrom`. This is semantically equivalent to an infinite approval. Requirements: - `spender` cannot be the zero address."
      },
      "balanceOf(address)": {
        "details": "See {IERC20-balanceOf}."
      },
      "claimLiquidityBatchCallback(uint256[],int16[],uint256[],uint256[],bytes)": {
        "details": "not implemented",
        "params": {
          "data": "Additional data associated with the liquidity claim.",
          "depositedAmounts": "The array of deposited liquidity amounts for each receipt in the batch.",
          "feeRates": "The array of trading fee rates associated with each claim in the batch.",
          "mintedCLBTokenAmounts": "The array of CLB token amounts minted for each receipt in the batch.",
          "receiptIds": "The array of the liquidity receipt IDs."
        }
      },
      "claimLiquidityCallback(uint256,int16,uint256,uint256,bytes)": {
        "details": "not implemented",
        "params": {
          "data": "Additional data associated with the liquidity claim.",
          "depositedAmount": "The amount of liquidity deposited.",
          "feeRate": "The trading fee rate associated with the liquidity claim.",
          "mintedCLBTokenAmount": "The amount of CLB tokens minted as liquidity.",
          "receiptId": "The ID of the liquidity claim receipt."
        }
      },
      "decimals()": {
        "details": "Returns the number of decimals used to get its user representation. For example, if `decimals` equals `2`, a balance of `505` tokens should be displayed to a user as `5.05` (`505 / 10 ** 2`). Tokens usually opt for a value of 18, imitating the relationship between Ether and Wei. This is the default value returned by this function, unless it's overridden. NOTE: This information is only used for _display_ purposes: it in no way affects any of the arithmetic of the contract, including {IERC20-balanceOf} and {IERC20-transfer}."
      },
      "decreaseAllowance(address,uint256)": {
        "details": "Atomically decreases the allowance granted to `spender` by the caller. This is an alternative to {approve} that can be used as a mitigation for problems described in {IERC20-approve}. Emits an {Approval} event indicating the updated allowance. Requirements: - `spender` cannot be the zero address. - `spender` must have allowance for the caller of at least `subtractedValue`."
      },
      "increaseAllowance(address,uint256)": {
        "details": "Atomically increases the allowance granted to `spender` by the caller. This is an alternative to {approve} that can be used as a mitigation for problems described in {IERC20-approve}. Emits an {Approval} event indicating the updated allowance. Requirements: - `spender` cannot be the zero address."
      },
      "name()": {
        "details": "Returns the name of the token."
      },
      "onERC1155BatchReceived(address,address,uint256[],uint256[],bytes)": {
        "details": "Handles the receipt of a multiple ERC1155 token types. This function is called at the end of a `safeBatchTransferFrom` after the balances have been updated. NOTE: To accept the transfer(s), this must return `bytes4(keccak256(\"onERC1155BatchReceived(address,address,uint256[],uint256[],bytes)\"))` (i.e. 0xbc197c81, or its own function selector).",
        "params": {
          "data": "Additional data with no specified format",
          "from": "The address which previously owned the token",
          "ids": "An array containing ids of each token being transferred (order and length must match values array)",
          "operator": "The address which initiated the batch transfer (i.e. msg.sender)",
          "values": "An array containing amounts of each token being transferred (order and length must match ids array)"
        },
        "returns": {
          "_0": "`bytes4(keccak256(\"onERC1155BatchReceived(address,address,uint256[],uint256[],bytes)\"))` if transfer is allowed"
        }
      },
      "onERC1155Received(address,address,uint256,uint256,bytes)": {
        "details": "Handles the receipt of a single ERC1155 token type. This function is called at the end of a `safeTransferFrom` after the balance has been updated. NOTE: To accept the transfer, this must return `bytes4(keccak256(\"onERC1155Received(address,address,uint256,uint256,bytes)\"))` (i.e. 0xf23a6e61, or its own function selector).",
        "params": {
          "data": "Additional data with no specified format",
          "from": "The address which previously owned the token",
          "id": "The ID of the token being transferred",
          "operator": "The address which initiated the transfer (i.e. msg.sender)",
          "value": "The amount of tokens being transferred"
        },
        "returns": {
          "_0": "`bytes4(keccak256(\"onERC1155Received(address,address,uint256,uint256,bytes)\"))` if transfer is allowed"
        }
      },
      "rebalance()": {
        "details": "called by keeper only"
      },
      "removeLiquidityBatchCallback(address,uint256[],bytes)": {
        "details": "not implemented",
        "params": {
          "clbToken": "The address of the Chromatic liquidity token.",
          "clbTokenIds": "The array of the Chromatic liquidity token IDs to be removed.",
          "data": "Additional data associated with the liquidity removal."
        }
      },
      "removeLiquidityCallback(address,uint256,bytes)": {
        "details": "not implemented",
        "params": {
          "clbToken": "The address of the Chromatic liquidity token.",
          "clbTokenId": "The ID of the Chromatic liquidity token to be removed.",
          "data": "Additional data associated with the liquidity removal."
        }
      },
      "settleTask(uint256)": {
        "details": "called by Keeper only"
      },
      "supportsInterface(bytes4)": {
        "details": "Returns true if this contract implements the interface defined by `interfaceId`. See the corresponding https://eips.ethereum.org/EIPS/eip-165#how-interfaces-are-identified[EIP section] to learn more about how these ids are created. This function call must use less than 30 000 gas."
      },
      "symbol()": {
        "details": "Returns the symbol of the token, usually a shorter version of the name."
      },
      "totalSupply()": {
        "details": "See {IERC20-totalSupply}."
      },
      "transfer(address,uint256)": {
        "details": "See {IERC20-transfer}. Requirements: - `to` cannot be the zero address. - the caller must have a balance of at least `amount`."
      },
      "transferFrom(address,address,uint256)": {
        "details": "See {IERC20-transferFrom}. Emits an {Approval} event indicating the updated allowance. This is not required by the EIP. See the note at the beginning of {ERC20}. NOTE: Does not update the allowance if the current allowance is the maximum `uint256`. Requirements: - `from` and `to` cannot be the zero address. - `from` must have a balance of at least `amount`. - the caller must have allowance for ``from``'s tokens of at least `amount`."
      },
      "withdrawLiquidityBatchCallback(uint256[],int16[],uint256[],uint256[],bytes)": {
        "details": "not implemented",
        "params": {
          "burnedCLBTokenAmounts": "The array of CLB token amounts burned for each receipt in the batch.",
          "data": "Additional data associated with the liquidity withdrawal.",
          "feeRates": "The array of trading fee rates associated with each withdrawal in the batch.",
          "receiptIds": "The array of the liquidity receipt IDs.",
          "withdrawnAmounts": "The array of withdrawn liquidity amounts for each receipt in the batch."
        }
      },
      "withdrawLiquidityCallback(uint256,int16,uint256,uint256,bytes)": {
        "details": "not implemented",
        "params": {
          "burnedCLBTokenAmount": "The amount of CLB tokens burned during the withdrawal.",
          "data": "Additional data associated with the liquidity withdrawal.",
          "feeRate": "The trading fee rate associated with the liquidity withdrawal.",
          "receiptId": "The ID of the liquidity withdrawal receipt.",
          "withdrawnAmount": "The amount of liquidity that has been withdrawn."
        }
      }
    },
    "version": 1
  },
  "userdoc": {
    "kind": "user",
    "methods": {
      "addLiquidityBatchCallback(address,address,bytes)": {
        "notice": "Handles the callback after adding liquidity to the Chromatic protocol."
      },
      "addLiquidityCallback(address,address,bytes)": {
        "notice": "Handles the callback after adding liquidity to the Chromatic protocol."
      },
      "claimLiquidityBatchCallback(uint256[],int16[],uint256[],uint256[],bytes)": {
        "notice": "Handles the callback after claiming liquidity from the Chromatic protocol."
      },
      "claimLiquidityCallback(uint256,int16,uint256,uint256,bytes)": {
        "notice": "Handles the callback after claiming liquidity from the Chromatic protocol."
      },
      "removeLiquidityBatchCallback(address,uint256[],bytes)": {
        "notice": "Handles the callback after removing liquidity from the Chromatic protocol."
      },
      "removeLiquidityCallback(address,uint256,bytes)": {
        "notice": "Handles the callback after removing liquidity from the Chromatic protocol."
      },
      "withdrawLiquidityBatchCallback(uint256[],int16[],uint256[],uint256[],bytes)": {
        "notice": "Handles the callback after withdrawing liquidity from the Chromatic protocol."
      },
      "withdrawLiquidityCallback(uint256,int16,uint256,uint256,bytes)": {
        "notice": "Handles the callback after withdrawing liquidity from the Chromatic protocol."
      }
    },
    "version": 1
  },
  "storageLayout": {
    "storage": [
      {
        "astId": 4155,
        "contract": "contracts/lp/contracts/gelato/ChromaticLPGelato.sol:ChromaticLPGelato",
        "label": "_balances",
        "offset": 0,
        "slot": "0",
        "type": "t_mapping(t_address,t_uint256)"
      },
      {
        "astId": 4161,
        "contract": "contracts/lp/contracts/gelato/ChromaticLPGelato.sol:ChromaticLPGelato",
        "label": "_allowances",
        "offset": 0,
        "slot": "1",
        "type": "t_mapping(t_address,t_mapping(t_address,t_uint256))"
      },
      {
        "astId": 4163,
        "contract": "contracts/lp/contracts/gelato/ChromaticLPGelato.sol:ChromaticLPGelato",
        "label": "_totalSupply",
        "offset": 0,
        "slot": "2",
        "type": "t_uint256"
      },
      {
        "astId": 4165,
        "contract": "contracts/lp/contracts/gelato/ChromaticLPGelato.sol:ChromaticLPGelato",
        "label": "_name",
        "offset": 0,
        "slot": "3",
        "type": "t_string_storage"
      },
      {
        "astId": 4167,
        "contract": "contracts/lp/contracts/gelato/ChromaticLPGelato.sol:ChromaticLPGelato",
        "label": "_symbol",
        "offset": 0,
        "slot": "4",
        "type": "t_string_storage"
      },
      {
        "astId": 9019,
        "contract": "contracts/lp/contracts/gelato/ChromaticLPGelato.sol:ChromaticLPGelato",
        "label": "s_meta",
        "offset": 0,
        "slot": "5",
        "type": "t_struct(LPMeta)8966_storage"
      },
      {
        "astId": 9022,
        "contract": "contracts/lp/contracts/gelato/ChromaticLPGelato.sol:ChromaticLPGelato",
        "label": "s_config",
        "offset": 0,
        "slot": "7",
        "type": "t_struct(Config)8978_storage"
      },
      {
        "astId": 9025,
        "contract": "contracts/lp/contracts/gelato/ChromaticLPGelato.sol:ChromaticLPGelato",
        "label": "s_state",
        "offset": 0,
        "slot": "10",
        "type": "t_struct(State)9016_storage"
      },
      {
        "astId": 11582,
        "contract": "contracts/lp/contracts/gelato/ChromaticLPGelato.sol:ChromaticLPGelato",
        "label": "s_task",
        "offset": 0,
        "slot": "20",
        "type": "t_struct(Tasks)11579_storage"
      },
      {
        "astId": 9514,
        "contract": "contracts/lp/contracts/gelato/ChromaticLPGelato.sol:ChromaticLPGelato",
        "label": "_owner",
        "offset": 0,
        "slot": "22",
        "type": "t_address"
      }
    ],
    "types": {
      "t_address": {
        "encoding": "inplace",
        "label": "address",
        "numberOfBytes": "20"
      },
      "t_array(t_bytes32)dyn_storage": {
        "base": "t_bytes32",
        "encoding": "dynamic_array",
        "label": "bytes32[]",
        "numberOfBytes": "32"
      },
      "t_array(t_int16)dyn_storage": {
        "base": "t_int16",
        "encoding": "dynamic_array",
        "label": "int16[]",
        "numberOfBytes": "32"
      },
      "t_array(t_uint256)dyn_storage": {
        "base": "t_uint256",
        "encoding": "dynamic_array",
        "label": "uint256[]",
        "numberOfBytes": "32"
      },
      "t_bytes32": {
        "encoding": "inplace",
        "label": "bytes32",
        "numberOfBytes": "32"
      },
      "t_contract(IChromaticMarket)462": {
        "encoding": "inplace",
        "label": "contract IChromaticMarket",
        "numberOfBytes": "20"
      },
      "t_enum(ChromaticLPAction)15675": {
        "encoding": "inplace",
        "label": "enum ChromaticLPAction",
        "numberOfBytes": "1"
      },
      "t_int16": {
        "encoding": "inplace",
        "label": "int16",
        "numberOfBytes": "2"
      },
      "t_mapping(t_address,t_mapping(t_address,t_uint256))": {
        "encoding": "mapping",
        "key": "t_address",
        "label": "mapping(address => mapping(address => uint256))",
        "numberOfBytes": "32",
        "value": "t_mapping(t_address,t_uint256)"
      },
      "t_mapping(t_address,t_struct(UintSet)8600_storage)": {
        "encoding": "mapping",
        "key": "t_address",
        "label": "mapping(address => struct EnumerableSet.UintSet)",
        "numberOfBytes": "32",
        "value": "t_struct(UintSet)8600_storage"
      },
      "t_mapping(t_address,t_uint256)": {
        "encoding": "mapping",
        "key": "t_address",
        "label": "mapping(address => uint256)",
        "numberOfBytes": "32",
        "value": "t_uint256"
      },
      "t_mapping(t_bytes32,t_uint256)": {
        "encoding": "mapping",
        "key": "t_bytes32",
        "label": "mapping(bytes32 => uint256)",
        "numberOfBytes": "32",
        "value": "t_uint256"
      },
      "t_mapping(t_int16,t_uint16)": {
        "encoding": "mapping",
        "key": "t_int16",
        "label": "mapping(int16 => uint16)",
        "numberOfBytes": "32",
        "value": "t_uint16"
      },
      "t_mapping(t_int16,t_uint256)": {
        "encoding": "mapping",
        "key": "t_int16",
        "label": "mapping(int16 => uint256)",
        "numberOfBytes": "32",
        "value": "t_uint256"
      },
      "t_mapping(t_uint256,t_address)": {
        "encoding": "mapping",
        "key": "t_uint256",
        "label": "mapping(uint256 => address)",
        "numberOfBytes": "32",
        "value": "t_address"
      },
      "t_mapping(t_uint256,t_bytes32)": {
        "encoding": "mapping",
        "key": "t_uint256",
        "label": "mapping(uint256 => bytes32)",
        "numberOfBytes": "32",
        "value": "t_bytes32"
      },
      "t_mapping(t_uint256,t_struct(ChromaticLPReceipt)15689_storage)": {
        "encoding": "mapping",
        "key": "t_uint256",
        "label": "mapping(uint256 => struct ChromaticLPReceipt)",
        "numberOfBytes": "32",
        "value": "t_struct(ChromaticLPReceipt)15689_storage"
      },
      "t_mapping(t_uint256,t_struct(UintSet)8600_storage)": {
        "encoding": "mapping",
        "key": "t_uint256",
        "label": "mapping(uint256 => struct EnumerableSet.UintSet)",
        "numberOfBytes": "32",
        "value": "t_struct(UintSet)8600_storage"
      },
      "t_string_storage": {
        "encoding": "bytes",
        "label": "string",
        "numberOfBytes": "32"
      },
      "t_struct(ChromaticLPReceipt)15689_storage": {
        "encoding": "inplace",
        "label": "struct ChromaticLPReceipt",
        "members": [
          {
            "astId": 15677,
            "contract": "contracts/lp/contracts/gelato/ChromaticLPGelato.sol:ChromaticLPGelato",
            "label": "id",
            "offset": 0,
            "slot": "0",
            "type": "t_uint256"
          },
          {
            "astId": 15679,
            "contract": "contracts/lp/contracts/gelato/ChromaticLPGelato.sol:ChromaticLPGelato",
            "label": "oracleVersion",
            "offset": 0,
            "slot": "1",
            "type": "t_uint256"
          },
          {
            "astId": 15681,
            "contract": "contracts/lp/contracts/gelato/ChromaticLPGelato.sol:ChromaticLPGelato",
            "label": "amount",
            "offset": 0,
            "slot": "2",
            "type": "t_uint256"
          },
          {
            "astId": 15683,
            "contract": "contracts/lp/contracts/gelato/ChromaticLPGelato.sol:ChromaticLPGelato",
            "label": "pendingLiquidity",
            "offset": 0,
            "slot": "3",
            "type": "t_uint256"
          },
          {
            "astId": 15685,
            "contract": "contracts/lp/contracts/gelato/ChromaticLPGelato.sol:ChromaticLPGelato",
            "label": "recipient",
            "offset": 0,
            "slot": "4",
            "type": "t_address"
          },
          {
            "astId": 15688,
            "contract": "contracts/lp/contracts/gelato/ChromaticLPGelato.sol:ChromaticLPGelato",
            "label": "action",
            "offset": 20,
            "slot": "4",
            "type": "t_enum(ChromaticLPAction)15675"
          }
        ],
        "numberOfBytes": "160"
      },
      "t_struct(Config)8978_storage": {
        "encoding": "inplace",
        "label": "struct ChromaticLPStorage.Config",
        "members": [
          {
            "astId": 8969,
            "contract": "contracts/lp/contracts/gelato/ChromaticLPGelato.sol:ChromaticLPGelato",
            "label": "market",
            "offset": 0,
            "slot": "0",
            "type": "t_contract(IChromaticMarket)462"
          },
          {
            "astId": 8971,
            "contract": "contracts/lp/contracts/gelato/ChromaticLPGelato.sol:ChromaticLPGelato",
            "label": "utilizationTargetBPS",
            "offset": 20,
            "slot": "0",
            "type": "t_uint16"
          },
          {
            "astId": 8973,
            "contract": "contracts/lp/contracts/gelato/ChromaticLPGelato.sol:ChromaticLPGelato",
            "label": "rebalanceBPS",
            "offset": 22,
            "slot": "0",
            "type": "t_uint16"
          },
          {
            "astId": 8975,
            "contract": "contracts/lp/contracts/gelato/ChromaticLPGelato.sol:ChromaticLPGelato",
            "label": "rebalanceCheckingInterval",
            "offset": 0,
            "slot": "1",
            "type": "t_uint256"
          },
          {
            "astId": 8977,
            "contract": "contracts/lp/contracts/gelato/ChromaticLPGelato.sol:ChromaticLPGelato",
            "label": "settleCheckingInterval",
            "offset": 0,
            "slot": "2",
            "type": "t_uint256"
          }
        ],
        "numberOfBytes": "96"
      },
      "t_struct(LPMeta)8966_storage": {
        "encoding": "inplace",
        "label": "struct ChromaticLPStorage.LPMeta",
        "members": [
          {
            "astId": 8963,
            "contract": "contracts/lp/contracts/gelato/ChromaticLPGelato.sol:ChromaticLPGelato",
            "label": "lpName",
            "offset": 0,
            "slot": "0",
            "type": "t_string_storage"
          },
          {
            "astId": 8965,
            "contract": "contracts/lp/contracts/gelato/ChromaticLPGelato.sol:ChromaticLPGelato",
            "label": "tag",
            "offset": 0,
            "slot": "1",
            "type": "t_string_storage"
          }
        ],
        "numberOfBytes": "64"
      },
      "t_struct(Set)8128_storage": {
        "encoding": "inplace",
        "label": "struct EnumerableSet.Set",
        "members": [
          {
            "astId": 8123,
            "contract": "contracts/lp/contracts/gelato/ChromaticLPGelato.sol:ChromaticLPGelato",
            "label": "_values",
            "offset": 0,
            "slot": "0",
            "type": "t_array(t_bytes32)dyn_storage"
          },
          {
            "astId": 8127,
            "contract": "contracts/lp/contracts/gelato/ChromaticLPGelato.sol:ChromaticLPGelato",
            "label": "_indexes",
            "offset": 0,
            "slot": "1",
            "type": "t_mapping(t_bytes32,t_uint256)"
          }
        ],
        "numberOfBytes": "64"
      },
      "t_struct(State)9016_storage": {
        "encoding": "inplace",
        "label": "struct ChromaticLPStorage.State",
        "members": [
          {
            "astId": 8981,
            "contract": "contracts/lp/contracts/gelato/ChromaticLPGelato.sol:ChromaticLPGelato",
            "label": "feeRates",
            "offset": 0,
            "slot": "0",
            "type": "t_array(t_int16)dyn_storage"
          },
          {
            "astId": 8985,
            "contract": "contracts/lp/contracts/gelato/ChromaticLPGelato.sol:ChromaticLPGelato",
            "label": "distributionRates",
            "offset": 0,
            "slot": "1",
            "type": "t_mapping(t_int16,t_uint16)"
          },
          {
            "astId": 8988,
            "contract": "contracts/lp/contracts/gelato/ChromaticLPGelato.sol:ChromaticLPGelato",
            "label": "clbTokenIds",
            "offset": 0,
            "slot": "2",
            "type": "t_array(t_uint256)dyn_storage"
          },
          {
            "astId": 8993,
            "contract": "contracts/lp/contracts/gelato/ChromaticLPGelato.sol:ChromaticLPGelato",
            "label": "receipts",
            "offset": 0,
            "slot": "3",
            "type": "t_mapping(t_uint256,t_struct(ChromaticLPReceipt)15689_storage)"
          },
          {
            "astId": 8998,
            "contract": "contracts/lp/contracts/gelato/ChromaticLPGelato.sol:ChromaticLPGelato",
            "label": "lpReceiptMap",
            "offset": 0,
            "slot": "4",
            "type": "t_mapping(t_uint256,t_struct(UintSet)8600_storage)"
          },
          {
            "astId": 9002,
            "contract": "contracts/lp/contracts/gelato/ChromaticLPGelato.sol:ChromaticLPGelato",
            "label": "providerMap",
            "offset": 0,
            "slot": "5",
            "type": "t_mapping(t_uint256,t_address)"
          },
          {
            "astId": 9007,
            "contract": "contracts/lp/contracts/gelato/ChromaticLPGelato.sol:ChromaticLPGelato",
            "label": "providerReceiptIds",
            "offset": 0,
            "slot": "6",
            "type": "t_mapping(t_address,t_struct(UintSet)8600_storage)"
          },
          {
            "astId": 9009,
            "contract": "contracts/lp/contracts/gelato/ChromaticLPGelato.sol:ChromaticLPGelato",
            "label": "pendingAddAmount",
            "offset": 0,
            "slot": "7",
            "type": "t_uint256"
          },
          {
            "astId": 9013,
            "contract": "contracts/lp/contracts/gelato/ChromaticLPGelato.sol:ChromaticLPGelato",
            "label": "pendingRemoveClbAmounts",
            "offset": 0,
            "slot": "8",
            "type": "t_mapping(t_int16,t_uint256)"
          },
          {
            "astId": 9015,
            "contract": "contracts/lp/contracts/gelato/ChromaticLPGelato.sol:ChromaticLPGelato",
            "label": "receiptId",
            "offset": 0,
            "slot": "9",
            "type": "t_uint256"
          }
        ],
        "numberOfBytes": "320"
      },
      "t_struct(Tasks)11579_storage": {
        "encoding": "inplace",
        "label": "struct ChromaticLPStorageGelato.Tasks",
        "members": [
          {
            "astId": 11574,
            "contract": "contracts/lp/contracts/gelato/ChromaticLPGelato.sol:ChromaticLPGelato",
            "label": "rebalanceTaskId",
            "offset": 0,
            "slot": "0",
            "type": "t_bytes32"
          },
          {
            "astId": 11578,
            "contract": "contracts/lp/contracts/gelato/ChromaticLPGelato.sol:ChromaticLPGelato",
            "label": "settleTasks",
            "offset": 0,
            "slot": "1",
            "type": "t_mapping(t_uint256,t_bytes32)"
          }
        ],
        "numberOfBytes": "64"
      },
      "t_struct(UintSet)8600_storage": {
        "encoding": "inplace",
        "label": "struct EnumerableSet.UintSet",
        "members": [
          {
            "astId": 8599,
            "contract": "contracts/lp/contracts/gelato/ChromaticLPGelato.sol:ChromaticLPGelato",
            "label": "_inner",
            "offset": 0,
            "slot": "0",
            "type": "t_struct(Set)8128_storage"
          }
        ],
        "numberOfBytes": "64"
      },
      "t_uint16": {
        "encoding": "inplace",
        "label": "uint16",
        "numberOfBytes": "2"
      },
      "t_uint256": {
        "encoding": "inplace",
        "label": "uint256",
        "numberOfBytes": "32"
      }
    }
  }
}